:10100000F87F002091140000DF160000E1160000B8
:1010100000000000000000000000000000000000D0
:10102000000000000000000000000000DD160000CD
:101030000000000000000000DD160000DD160000CA
:10104000DD160000DD160000DD160000DD160000D4
:10105000DD160000DD160000DD160000DD160000C4
:10106000DD160000DD160000DD160000DD160000B4
:10107000DD160000DD160000DD160000DD160000A4
:10108000DD160000DD160000DD160000DD16000094
:10109000DD160000DD160000DD160000DD16000084
:1010A000DD160000DD160000DD160000DD16000074
:1010B000DD160000DD160000DD160000DD16000064
:1010C000DD160000DD160000DD160000DD16000054
:1010D000DD160000DD160000DD160000DD16000044
:1010E000DD160000DD160000DD1600000000000027
:1010F000000000000000000000000000DD160000FD
:10110000DD160000DD160000DD160000DD16000013
:10111000DD160000DD160000DD160000DD16000003
:10112000DD160000DD160000DD160000DD160000F3
:10113000DD160000DD160000DD160000DD160000E3
:10114000DD160000DD160000DD160000DD160000D3
:10115000DD160000DD160000DD160000F87F00201F
:1011600091140000DF160000E116000000000000EE
:10117000000000000000000000000000000000006F
:101180000000000000000000DD160000000000006C
:1011900000000000DD160000DD160000DD16000076
:1011A000DD160000DD160000DD160000DD16000073
:1011B000DD160000DD160000DD160000DD16000063
:1011C000DD160000DD160000DD160000DD16000053
:1011D000DD160000DD160000DD160000DD16000043
:1011E000DD160000DD160000DD160000DD16000033
:1011F000DD160000DD160000DD160000DD16000023
:10120000DD160000DD160000DD160000DD16000012
:10121000DD160000DD160000DD160000DD16000002
:10122000DD160000DD160000DD160000DD160000F2
:10123000DD160000DD160000DD160000DD160000E2
:10124000DD160000DD160000E3160000E3160000C6
:10125000E3160000E3160000DD160000DD160000B6
:10126000DD160000DD160000DD160000DD160000B2
:10127000DD160000DD160000DD160000DD160000A2
:10128000DD160000DD160000DD160000DD16000092
:10129000DD160000DD160000DD160000DD16000082
:1012A000DD160000DD160000DD160000DD16000072
:1012B000DD160000DD16000041F20003C2F200035B
:1012C000186058609860D860BFF34F8F4EF6005397
:1012D000CEF200030422C0F2FA52DA60BFF34F8F5D
:1012E000C046FDE7F8B5C046F8BC08BC9E4670474E
:1012F00059150000F8B5C046F8BC08BC9E467047BA
:101300003515000041F20003C4F2000302201876F4
:1013100041F20041C4F2000100220A7441F60001CA
:10132000C4F2000108621A8641F20002C4F200020F
:101330008021490413690B42FCD046F22003C0F21D
:1013400080031B685B009B0E9B0240F2002213434C
:10135000D200C4F20002536341F20002C4F2000260
:101360008021490413690B42FCD041F20003C4F20E
:10137000000302221A86D202C4F20002802149042C
:1013800013690B42FCD041F60043C4F2000340F263
:101390000712C0F201021A6241F60042C4F20002D2
:1013A000042153681942FCD141F60043C4F2000302
:1013B000D0224021995041F60042C4F20002D020D0
:1013C00013581942FCD0704710B543F20023C4F201
:1013D00000030022DA660121D42019540130195487
:1013E000B931B33858543231C020800358500021ED
:1013F000C0F6080140F2001019500021C1F6180192
:101400001030195043301A544E38FF3840F25414FB
:10141000185507341A55013418553430FF301A5412
:1014200001301A5403301A5401301A546D32FF320D
:10143000995010BD00230E4A10B513600D4A0E4C92
:1014400013600E4A13600E4A13600E4A13600E4A70
:10145000536213610133936000F045F900F043F9E2
:101460000A4B9C4200D310BD08CC9847F8E7C04611
:10147000700000200C000020F01200000800002086
:10148000000000200400002010000020F4120000E2
:1014900010B541F2DB63C0F20003984741F2DB6311
:1014A000C0F20003984700F09DF841F20003C0F23B
:1014B00000037F2293434EF60052CEF20002936067
:1014C00041F23543C0F20003984741F2DB63C0F2BA
:1014D0000003984741F2DB63C0F20003984700F035
:1014E00066F8FEE7500000201C000000000000002D
:1014F0000010002010000000000000006C00002020
:101500000400000000000000000000205000000067
:101510000000000070000020040000000000000037
:10152000000000000000000066666666666666668B
:101530006666666610B5054C227832B9044B13B165
:10154000044800E000BF0123237010BD50000020BC
:101550000000000000000000034B10B51BB1034960
:10156000034800E000BF10BD000000005400002050
:101570000000000040F20043C4F2000300221A8180
:101580009A7901210A439A719B7803221340022B16
:101590000CD040F20043C4F20003013A9A705202A8
:1015A000C4F20002012193790B42FCD0704710B5C0
:1015B00082B045F200031C68002000F046F8631C6E
:1015C0000ED084F3888845F204031B680193019CC4
:1015D00064086400200021002200230000F01CF8B1
:1015E000FEE7704710B50A48016821B9436813B98E
:1015F00000F078F810BD04008368064A9BB20C34F2
:101600009B009B5842682000984780002018EBE719
:10161000E414000094160000E0B545464E465746D7
:10162000E0B45D4620B4254626462746A046A1469E
:10163000A246A346A44684F30088A44720BCAB4638
:10164000E0BCBA46B146A846E0BD10B5FFF792FF30
:1016500045F20003C4F2001304225A60FFF7B4FEFF
:10166000FFF750FE00F020F800F036F8FFF7B9FF62
:1016700000F02CF810BD002310B5934206D10320D2
:101680001840421E90419B08C01810BDC45CCC5449
:101690000133F2E7BB16000077160000D5160000F4
:1016A000D5160000D516000045F20003C4F2001361
:1016B00006225A60053A1A7270478A18914201D17F
:1016C0000020704700230B700131F7E7BFF35F8FF5
:1016D00062B670470020704770477047FEE7FEE72C
:0816E000FEE7FEE770477047CA
:084E00007FE97FE9FCF758BAD5
:10500000F8FF00204757000033560000135B0000F4
:105010000000000000000000000000000000000090
:105020000000000000000000000000001B5E000007
:1050300000000000000000001B5E0000E55A0000B8
:105040000000000000000000000000000000000060
:105050000000000000000000000000000000000050
:105060000000000000000000000000000000000040
:105070000000000000000000000000000000000030
:105080000000000000000000000000000000000020
:105090000000000000000000000000000000000010
:1050A0000000000000000000000000000000000000
:1050B00000000000000000000000000000000000F0
:1050C00000000000000000000000000000000000E0
:1050D00000000000000000000000000000000000D0
:1050E0000000000000000000000000001B5E000047
:1050F0001B5E00001B5E00001B5E00000000000045
:10510000000000000000000000000000000000009F
:10511000000000000000000000000000000000008F
:10512000000000000000000000000000000000007F
:10513000000000000000000000000000000000006F
:10514000000000000000000000000000000000005F
:10515000000000000000000000000000F8B5C0469C
:10516000F8BC08BC9E46704785590000F8B5C0469B
:10517000F8BC08BC9E467047615900005884002066
:105180002800000000000000A484002001000000AE
:1051900000000000948400200400000000000000D3
:1051A000088400205000000000000000A8840020B7
:1051B0006C00000001000000B4840020B0840020D6
:1051C000B4840020000000002500000008800020BA
:1051D00000040000000000000000000000000000CB
:1051E00000000000000000000000000000000000BF
:1051F000000000002F5E0000000000000000000022
:105200000000000000000000D15500000000000078
:10521000000000000000000000000000000000008E
:1052200000000000008000200804000000000000D2
:105230007485002020000000010000000100000033
:10524000030000000000000000000000000000005B
:1052500000000000000000008C8400208C840020EE
:1052600008000000000000009884002004000000F6
:105270000000000014850020600000000100000014
:10528000010000000300000000000000000000001A
:10529000000000000000000000000000ED560000CB
:1052A000000000000000000000000000015E00009F
:1052B0003D5E000000000000000000000000000053
:1052C00000000000000000000000000000000000DE
:1052D00000000000000000000000000000000000CE
:1052E000948500200400000001000000010000007F
:1052F0009C84002008000000000000008084002042
:105300000C00000000000000000000000000000091
:1053100066666666666666666666666610B548F2C6
:10532000A443C2F200031B78012B14D013B1022B4B
:105330002FD010BD40F2E83000F0CCFA45F2B83082
:10534000C0F2000000F026FC48F2A443C2F20003C1
:1053500001221A70EDE743F20003C4F2000340F2A9
:1053600020129B58DB0206D448F2A443C2F2000389
:105370001F3AFF3A1A7040F2E83000F0ABFA43F2FD
:105380000003C4F2000340F21C1280210905995069
:10539000CFE745F2F030C0F2000000F0FBFB45F231
:1053A0001840C0F2000000F0F5FB44F24D30C5F2A9
:1053B0004800FFF725FDBCE70D0A0D0A2323232330
:1053C000232323204170706C69636174696F6E20C0
:1053D0006C6F616465642066726F6D20426F6F74DC
:1053E0006C6F6164657220232323232323230D0024
:1053F0000D0A2323232323232320426F6F746C6F12
:105400006164657220547269676765726564202300
:105410002323232323230D000D0A232323232323C4
:10542000232050726F6772616D206E657720666908
:10543000726D776172652066726F6D20426F6F7456
:105440006C6F6164657220232323232323230D00C3
:10545000F0B51600050002278369426987B0029300
:10546000D31A03939B1904910596019302AC3A0059
:105470002100286800F0B6FB019B984208D1AB6878
:10548000EA68AB619A18AA626B61300007B0F0BDA0
:1054900000280CDA102200236968AB620A43AB6172
:1054A0006B616A60022F12D06368F61AEDE7019B08
:1054B0001B1A01936368984202D9C01A0834013F4D
:1054C00023681B1823606368181A6060CFE71E000A
:1054D000DBE77047F7B51E4C256801942B0065B1DA
:1054E00000222900160013000F68BC460F6984458E
:1054F0000AD132B117610B0010331800FEBD39001C
:10550000F2E7019B1F60F6E7844503D9D3B11C681D
:10551000A44517D30A00002FF1D1002BEDD01F00B6
:105520001A681969121A1037102A05D91860381824
:1055300001610100103A02609D4206D1019B196091
:105540003B00DAE716000B00E4E73161F8E7C046FC
:105550009C840020F8B5846A05000F00160054B141
:10556000AB6A6A699B1AB3420CD232003900280038
:10557000FFF76EFF05E000F0C3FB03002000002BE7
:10558000EED0F8BD002EF0D02B0034331B785BB288
:10559000002B1BDB3400DBB2621EB95C994212D1D6
:1055A000220039002800FFF753FFA042E9D33F193A
:1055B000341B22003900686900F0EEFB6B69300093
:1055C0001C196C61DDE71400002AE5D13400F0E716
:1055D0007FB51600C2680D0013000091591E8B4163
:1055E000F31A01938368040003926946022200685B
:1055F000029300F0E3FA002808DC18220823024096
:10560000534062681343636006000FE0019B8342CE
:10561000FAD2A268C01AE3681018E26320642BB1C2
:10562000531CE3631378AD19013D2B70300004B0B7
:1056300070BDFEE700230E4A10B513600D4A0E4CF4
:1056400013600E4A13600E4A13600E4A13600E4A2E
:10565000536213610133936000F0C3FB00F0ECFB75
:105660000A4B9C4200D310BD08CC9847F8E7C046CF
:1056700098840020148400206851000010840020C9
:10568000088400200C840020188400206C51000045
:1056900037B5144D04002B6873B100F0DBFA0190AC
:1056A00001A800F050FB0F230F309843019900F040
:1056B0000DFB58B100232B6004B901340F230F34C4
:1056C0009C4324B90C222000074B1A603EBD042CD9
:1056D00000D204242000FFF7FDFE0028F6D0031FAF
:1056E0001C60F3E794850020A084002070B50400BE
:1056F0000D0008B9002070BD43689B0607D54369BB
:105700008269934215D80023A362A3616361E16BB0
:10571000236C994204D2C91A0122206800F089FB47
:1057200000232364E363002DE4D0206800F07AFBBB
:10573000E1E70022C36A110098476369002BE2D1B8
:1057400001204042D7E710B545F63763C0F20003A9
:10575000984745F63763C0F20003984700F092F986
:1057600045F20003C0F200037F2293434EF600523D
:10577000CEF20002936045F23563C0F20003984711
:1057800045F63763C0F20003984745F63763C0F229
:105790000003984700F02DFBFEE7F8B505000C006C
:1057A000002015B300F038F9D4B1002041F2000216
:1057B000C4F200220421072605E0976A4300EF5255
:1057C000013084420DD0137E0B42FCD0538B334208
:1057D00007D153683340012BEFD0936A2B54EFE786
:1057E0002000201A44426041C0B2F8BD41F20003DB
:1057F000C4F2002340F20412C4F210021A600E4AEE
:105800009A81C02292025A6041F20002C4F2002240
:10581000D369002BFCD141F20003C4F200231A68C3
:1058200002210A431A6041F20002C4F20022D36945
:10583000002BFCD17047C0462BF6FFFF70B504006B
:1058400016001D00022A1AD043689B0617D439B9E6
:105850000DB940F2004528000830FFF719FF01009C
:1058600020236268A160134363602300E560343342
:10587000FF22012E00D10A221A70024BE36200209F
:1058800070BDC0465555000037B56B46DD1D836AB7
:105890000400297063B16369A26A93420FD3E36A7B
:1058A0000122290020009847012805D1287805E029
:1058B00000F026FA0028EED0012040423EBD220032
:1058C00034321278287852B29042E8D05A1C626181
:1058D0001870F3E770B54EF21003CEF200035E6865
:1058E0001B68DB071AD54BF6803358434EF2100382
:1058F000CEF200039B6888B100214EF21005CEF273
:10590000000506E0741CA41AE318C91813008842A5
:1059100004D9AA689A42F5D89B1AF6E770BD70B50B
:10592000D0B1D9B1002541F20002C4F20022012415
:10593000072605E06B00C35A93620135A94209D0DE
:10594000137E2342FCD053683340012BF2D0435DD9
:105950009362F2E7012070BD0020FCE70120FAE726
:1059600010B5054C227832B9044B13B1044800E05D
:1059700000BF0123237010BD5884002000000000E8
:1059800000000000034B10B51BB10349034800E0C1
:1059900000BF10BD000000005C840020000000007B
:1059A00010B548F2AC43C2F200031B68186800212E
:1059B00000F0FCF948F29053C2F200031B6818682B
:1059C000002100F0F3F9FFF711FF00F01FF900F0DC
:1059D0008BF900F0C3F9FFF77CFD10BD0B0049689F
:1059E00010B50200890603D4190000F031F810BD8B
:1059F000190034310978C0B249B2814207D05969DF
:105A00009C6AA14203D24C1C5C610A70EFE7110052
:105A10001800FFF739FFEAE741F20003C4F2002360
:105A20005B8B5B0713D041F20003C4F2002380229A
:105A30001A76793A5A831B7E5B0708D541F2000338
:105A4000C4F2002304219A6A1A7E0A42FBD17047ED
:105A500013B50B006A46D41D5A68C1B22170D20535
:105A600005D55A69C0B2541C5C61117016BD012283
:105A70002100180000F0A3F908B12078F6E7012012
:105A80004042F3E710B50948016811B9436803B90A
:105A900010BD04008368064A9BB20C349B009B58DF
:105AA00042682000984780002018EDE77C510000F4
:105AB000705D0000064B1A680AB9064A1A60064A69
:105AC000116809B9054911601A68054B1A607047D9
:105AD00088840020A085002084840020A0870020E6
:105AE0008084002010B548F27443C2F20003586865
:105AF0004EF21002CEF2000212689A6801329A60E9
:105B00001B682BB148F27443C2F200031B6898472C
:105B100010BDFEE770B5084C050023680BB9FFF710
:105B2000C9FF064A206812684519AA4201D32560B8
:105B300070BD01204042FBE7808400208484002067
:105B4000020000234832D356591E0B43137004231E
:105B5000426813402BB1102313434360012040429D
:105B600070470364C3631800FAE770B514001600A9
:105B70000A004E430D00511E8A415242144001005A
:105B80003200180000F01BF9864201D0B0FBF5F49A
:105B9000200070BD10B5084C2368196800F049F862
:105BA0000123002805DB23680A20196800F031F979
:105BB000C30F584210BDC04690850020F7B50025A0
:105BC00007000C002E000192019B9E4201DB280081
:105BD000FEBD62682168380000F04CF801362D18CF
:105BE0000834F1E7F7B5002507000C002E000192FC
:105BF000019B9E4201DB2800FEBD626821683800DF
:105C000000F056F801362D180834F1E74EF2100373
:105C1000CEF2000300221A609A604BF67F31596081
:105C20000621196048F27443C2F200039A601A60B8
:105C3000704770B50E00050000F06EF833000400E8
:105C4000020001212800FFF790FF001B431E98412E
:105C5000404270BD10B5054C22680AB9FFF72AFF13
:105C6000034B18682368C01A10BDC046808400200A
:105C70008484002010B503000C00002043B91800F4
:105C800032B101212000FFF788FD0028F9D0012062
:105C900010BD002310B5934206D103201840421EC8
:105CA00090419B08C01810BDC45CCC540133F2E78E
:105CB00070B50D001400012801D0200070BD210036
:105CC0002800FFF72CFE0028F9D0F6E7054A10B5AA
:105CD000146800231CB910600361016001331800CF
:105CE00010BDC0469C84002043F20003C4F20003B0
:105CF00040F2181280210903995009029950704707
:105D000010B50400FFF71CFF28B9A368E268A3617F
:105D100063619B18A36210BD037833B103000133A4
:105D20001A78002AFBD1181A70470020FCE7C046F9
:105D30004EF21003CEF2000300229A601A6801218D
:105D40000A431A607047006810B5002801DA002085
:105D500010BDFFF7DFFE431CFAD1F8E710B548F29B
:105D6000A443C2F2000300221A70FFF7E1FF10BD46
:105D7000D15D0000935C00002B5E00002B5E0000F4
:105D80002B5E000010B500F049F8024B1860586017
:105D900010BDC0468C84002010B52AB10023CC5C15
:105DA000C45401339342FAD110BDC0464A424A411D
:105DB00010B5520040F20043FFF740FD10BDC36A2A
:105DC00010B50BB1984710BD0068FFF771FFFAE7F7
:105DD0008A18914201D10020704700230B700131D5
:105DE000F7E710B5FFF7CEFF00F027F800F025F831
:105DF00010BD10B50020FFF7D3FD00F006F8FCE75A
:105E000010B50068FFF754FF10BD10B5FFF786FA14
:105E100010BD10B5FFF7E2FD10BDFEE7004870476A
:105E20001485002001204042704700207047002068
:0E5E30007047002070477047704770477047FA
:00000001FF
