:10000000F07F0020850400009F060000DD06000050
:1000100000000000000000000000000000000000E0
:10002000000000000000000000000000DF060000EB
:100030000000000000000000DF060000DF060000F6
:10004000DF060000DF060000DF060000DF0600001C
:10005000DF060000DF060000DF060000DF0600000C
:10006000DF060000DF060000DF060000DF060000FC
:10007000DF060000DF060000DF060000DF060000EC
:10008000DF060000DF060000DF060000DF060000DC
:10009000DF060000DF060000DF060000DF060000CC
:1000A000DF060000DF060000DF060000DF060000BC
:1000B000DF060000DF060000DF060000DF060000AC
:1000C000DF060000DF060000DF0600000000000081
:1000D000000000000000000000000000DF0600003B
:1000E000DF060000DF060000DF0600000000000061
:1000F000000000000000000000000000DF0600001B
:10010000DF060000DF060000DF060000DF0600005B
:10011000DF060000DF060000DF060000DF0600004B
:10012000DF060000DF060000DF060000DF0600003B
:10013000DF060000DF060000DF060000DF0600002B
:10014000DF060000DF060000DF060000DF0600001B
:10015000DF060000DF060000DF060000F07F002061
:10016000850400009F060000DD060000000000007E
:10017000000000000000000000000000000000007F
:100180000000000000000000DF060000000000008A
:1001900000000000DF060000DF060000DF060000B0
:1001A000DF060000DF060000DF060000DF060000BB
:1001B000DF060000DF060000DF060000DF060000AB
:1001C000DF060000DF060000DF060000DF0600009B
:1001D000DF060000DF060000DF060000DF0600008B
:1001E000DF060000DF060000DF060000DF0600007B
:1001F000DF060000DF060000DF060000DF0600006B
:10020000DF060000DF060000DF060000DF0600005A
:10021000DF060000DF060000DF060000DF0600004A
:10022000DF060000DF060000E3060000E306000032
:10023000E3060000E3060000DF060000DF06000022
:10024000DF060000DF060000E3060000E306000012
:10025000E3060000E3060000DF060000DF06000002
:10026000DF060000DF060000DF060000DF060000FA
:10027000DF060000DF060000DF060000DF060000EA
:10028000DF060000DF060000DF060000DF060000DA
:10029000DF060000DF060000DF060000DF060000CA
:1002A000DF060000DF060000DF060000DF060000BA
:1002B000DF060000DF060000F8B5C046F8BC08BC49
:1002C0009E467047FD040000F8B5C046F8BC08BC67
:1002D0009E467047D904000041F20003C4F20003B7
:1002E0000220187641F20041C4F2000100220A7493
:1002F00041F60001C4F2000108621A8641F20002D0
:10030000C4F200028021490413690B42FCD046F27A
:100310002003C0F280031B685B009B0E9B0240F22F
:1003200000221343D200C4F20002536341F20002E0
:10033000C4F200028021490413690B42FCD041F24F
:100340000003C4F2000302221A86D202C4F20002A1
:100350008021490413690B42FCD041F60043C4F2EA
:10036000000340F20712C0F201021A6241F6004295
:10037000C4F20002042153681942FCD141F6004343
:10038000C4F20003C8224021995041F60042C4F251
:100390000002C82013581942FCD041F60043C4F2B1
:1003A0000003D0224021995041F60042C4F20002DD
:1003B000D02013581942FCD0704730B543F20023C7
:1003C000C4F2000348F280021A608022C0F2800268
:1003D0001A61002147229954463A48201A540130A4
:1003E0001A5402301A5404301954083006241C548C
:1003F000243819542E3422251D550134023D1D5533
:10040000023419550434195548F68031C0F2800180
:10041000D966C8215A5401315A54B33298543832EB
:1004200040F20031995030BD00230E4A10B51360E0
:100430000D4A0E4C13600E4A13600E4A13600E4AAA
:1004400013600E4A536213610133936000F04AF95E
:1004500000F048F90A4B9C4200D310BD08CC9847E5
:10046000F8E7C046700000200C000020C402000025
:1004700008000020000000200400002010000020E0
:10048000C802000010B540F2E163C0F200039847D3
:1004900040F2E163C0F20003984700F0ADF840F28B
:1004A0000003C0F200037F2293434EF60052CEF2C7
:1004B0000002936040F22943C0F20003984740F2E3
:1004C000E163C0F20003984740F2E163C0F2000329
:1004D000984700F05CF8FEE710B5054C227832B979
:1004E000044B13B1044800E000BF0123237010BD8A
:1004F000500000200000000000000000034B10B579
:100500001BB10349034800E000BF10BD000000001C
:100510005400002000000000BFF35F8F62B64EF26F
:100520000013CEF2000340F28422995808200143C0
:1005300099509958995808300143995099589958A9
:1005400010300143995099589958203001439950DF
:100550009B58704740F20043C4F2000300221A8106
:100560009A7901210A439A719B7803221340022B46
:100570000CD040F20043C4F20003013A9A705202D8
:10058000C4F20002012193790B42FCD0704710B5F0
:1005900082B08023DB021C68002000F05DF8631C41
:1005A0000FD084F388880423C0F204031B680193EE
:1005B000019C64086400200021002200230000F058
:1005C00001F8FEE7E0B545464E465746E0B45D46C5
:1005D00020B4254626462746A046A146A246A34665
:1005E000A44684F30088A44720BCAB46E0BCBA46CE
:1005F000B146A846E0BD704710B50948016811B979
:10060000436803B910BD04008368064A9BB20C34EA
:100610009B009B5842682000984780002018EDE717
:1006200028060000A0060000500000202000000066
:10063000000000000000002050000000000000004A
:100640007000002004000000000000000000000016
:10065000000000006666666610B5FFF77BFF45F296
:100660000003C4F2001304225A60FFF7A6FEFFF74E
:1006700033FE00F01FF8FFF7BEFFFFF74DFF10BD80
:10068000002310B5934206D103201840421E90412A
:100690009B08C01810BDC45CCC540133F2E7FEE7E0
:1006A000C706000081060000D9060000D906000038
:1006B000D906000045F20003C4F2001306225A6076
:1006C000053A1A7270478A18914201D1002070478A
:1006D00000230B700131F7E700207047FEE7FEE7CB
:0606E0007047FEE77047C1
:020000040004F6
:10000000F0FF0020319F0400738104009F860400EC
:1000100000000000000000000000000000000000E0
:100020000000000000000000000000005F4004002D
:1000300000000000000000005F40040091AB0400DD
:1000400000000000000000000000000000000000B0
:1000500000000000000000000000000000000000A0
:100060000000000000000000000000000000000090
:100070000000000000000000000000000000000080
:100080000000000000000000000000000000000070
:100090000000000000000000000000000000000060
:1000A0000000000000000000000000000000000050
:1000B0000000000000000000000000000000000040
:1000C000000000000000000000000000354B0400AC
:1000D000354B0400354B0400354B04000000000094
:1000E0000000000000000000000000005F4004006D
:1000F0005F4004005F4004005F4004000000000017
:1001000000000000000000000000000000000000EF
:1001100000000000000000000000000000000000DF
:1001200000000000000000000000000000000000CF
:1001300000000000000000000000000000000000BF
:1001400000000000000000000000000000000000AF
:10015000000000000000000000000000F8B5C046EC
:10016000F8BC08BC9E46704709A50400F8B5C04617
:10017000F8BC08BC9E467047E5A40400C83B0000DC
:1001800001000000F0B5C64600B50400A4254543B3
:1001900049F6C403C2F20003EE18330074331B782F
:1001A000012B12D0A423634349F6C402C2F2000219
:1001B000944663445D6D65331A78192A01D901F0BC
:1001C00066FC9300E549CB589F46330032007432F9
:1001D0000021117063331A78042A00D99BE193003F
:1001E000DF4AD3589F46A425454349F6C403C2F2CB
:1001F00000039C466544AB6D98B2032106F0D7FD21
:10020000E865431C00D186E14AF6A301C0F204016F
:1002100032000AF010FB2B00633301221A707AE1DE
:10022000A423434349F6C402C2F200029446634445
:10023000D96B30000AF046FD002800D16BE1A42301
:10024000634349F6C402C2F2000294466344633336
:1002500002221A705FE1A423434349F6C402C2F2AA
:1002600000029446634422331B78002B00D152E1F4
:10027000A423434363441A002232002111706333E4
:1002800003221A7047E1A423434349F6C402C2F291
:1002900000029446634466331A78072A00D91DE2A7
:1002A0009300B04AD3589F46A423434349F6C4025F
:1002B000C2F20002944663441A00693201211170AF
:1002C000603300229A5641F68021C0F206013000C8
:1002D0000AF060FE58B1A423634349F6C402C2F297
:1002E000000294466344663301221A7010E0A4238E
:1002F000634349F6C402C2F2000294466344693380
:1003000000221A7004E0012130000BF0CDF990BBFF
:10031000A423634349F6C402C2F200029446634434
:100320001A0044320021117045331B78002B00D194
:100330000BE2A423634349F6C402C2F200029446CE
:100340006344453300221A70A423634349F6C40270
:10035000C2F20002944663441A0063320121117014
:10036000463300221A70756D002D00D1E1E1A427FB
:1003700067436744CDE1A423634349F6C402C2F254
:100380000002944663441A00693201211170D96A4F
:100390000A22300009F04DFD0028B9D0A4236343A0
:1003A00049F6C402C2F20002944663446633032253
:1003B0001A70ADE7A423434349F6C402C2F2000217
:1003C0009446634462331B78012B21D0A42343431A
:1003D00049F6C402C2F200029446634462331B78B9
:1003E000022B95D1A425454365442B0060330022A0
:1003F0009A5641F68021C0F2060130000AF0CAFD8B
:100400002B00663301221A70693500232B707FE7B9
:10041000A425454365442B00603300229A5641F6DB
:100420008021C0F2060130000AF0B4FD66350223D7
:100430002B706DE70022002101F070FFA4236343BD
:1004400049F6C402C2F200029446634467331B7843
:100450000C2B12D00B2B00D05AE79933634349F68B
:10046000C402C2F20002944663441A0069320021B9
:100470001170663301221A704AE79833634363446C
:100480001A006932002111706C331B78012B06D0E1
:10049000A42363436344663301221A7038E7A4231C
:1004A000634349F6C402C2F20002944663446633D1
:1004B00008221A700BE0A423434349F6C402C2F297
:1004C00000029446634469331B78022B2FD1A42386
:1004D000634349F6C402C2F20002944663441A0020
:1004E00044320121117045331B78012B00D12CE1DE
:1004F000A423634349F6C402C2F200029446634453
:100500001A00453201211170633304221A70002150
:1005100030000BF0C9F8A423634349F6C402C2F2C9
:10052000000294466344743300221A703AE60121B3
:1005300030000BF0B9F80028C9D0A423634349F672
:10054000C402C2F20002944663441A0069320121D7
:100550001170663305221A70B9E7C046BC770400F3
:1005600024780400387804000022042101F0D6FE2B
:10057000A423634349F6C402C2F2000294466344D2
:1005800067331B780C2B11D00B2BA0D1993363430D
:1005900049F6C402C2F20002944663441A0069326A
:1005A00000211170663301221A70B1E6983363435B
:1005B00063446C331B7833B9A433634363446633B9
:1005C00006221A7083E7A423634349F6C402C2F2E9
:1005D0000002944663441A006932002111706633A8
:1005E00001221A7094E681000918890049F68C539B
:1005F000C2F200039C466144142230000AF04DFB15
:1006000058B1A423634349F6C402C2F200029446DF
:100610006344663307221A7059E7A423634349F6FB
:10062000C402C2F20002944663441A0069320021F7
:100630001170663301221A706AE6A423434349F617
:10064000C402C2F200029446634462331B78012B59
:1006500017D0A423434349F6C402C2F200029446D1
:10066000634462331B78022B00D030E7A23343434C
:1006700063441A00693200211170663301221A7036
:1006800046E6A333434363441A00693200211170E4
:1006900081000918890049F68C52C2F20002944682
:1006A0006144586B13220AF0A7FD58B9A423634391
:1006B00049F6C402C2F2000294466344663304223F
:1006C0001A7004E7A423634349F6C402C2F200028D
:1006D00094466344663301221A7019E6A423434307
:1006E00049F6C402C2F20002944663441A0044323E
:1006F0000021117045331B783BB3A423434363446B
:10070000453300221A701FE600232B622B70756D93
:100710007DB12B6A73652B791B017A68944663441B
:100720005A689046002AEFD09A68E9680120C047CD
:10073000EAE7A423634349F6C402C2F200029446E6
:100740006344663300221A70E1E6A423634349F64A
:10075000C402C2F200029446634469331B78002B42
:1007600000D0D8E6002130000AF09EFFA4236343A6
:1007700049F6C402C2F20002944663446333012284
:100780001A70C8E6A423434349F6C402C2F2000229
:100790009446634468331A78172A00D92DE19300F0
:1007A000D64AD3589F46A423434349F6C402C2F213
:1007B00000029446634400221A64190048310A700A
:1007C000683301321A70A6E6A423434349F6C402F3
:1007D000C2F2000294466344D96A0A22300009F04A
:1007E00028FB58B1A423634349F6C402C2F20002B5
:1007F00094466344683303221A708CE6A42363434F
:1008000049F6C402C2F200029446634468331722D8
:100810001A7000F016FCA423434349F6C402C2F246
:1008200000029446634462331B78012B1ED0A4233C
:10083000434349F6C402C2F2000294466344623361
:100840001B78022B00D066E6A425454365442B00A7
:10085000603300229A5641F68021C0F20601300032
:100860000AF098FB683517232B70EAE3A42545436B
:1008700065442B00603300229A5641F68021C0F275
:10088000060130000AF086FB683504232B7042E62F
:100890000022002101F042FDA423634349F6C40273
:1008A000C2F200029446634467331B780C2B0ED0CF
:1008B0000B2B00D0A1E09933634349F6C402C2F286
:1008C000000294466344683317221A70B9E39833E0
:1008D000634363446C331B78012B0BD0A423634325
:1008E00049F6C402C2F2000294466344683301220E
:1008F0001A7010E6A33363436344683305221A7009
:1009000009E640F2AA12022101F008FDA423634384
:1009100049F6C402C2F200029446634467331B786E
:100920000C2B0DD00B2B68D19933634349F6C402CD
:10093000C2F2000294466344683317221A7080E3BF
:100940009833634363441B6F1B051B0D40F2AA11D0
:1009500000228B420ED0A423634349F6C401C2F2A5
:1009600000018C466344190023310A706833062263
:100970001A70D0E5A4236343634468331B799B0852
:1009800001229A43E7E70022102101F0C7FCA423CB
:10099000634349F6C402C2F20002944663446733DB
:1009A0001B780C2B0DD00B2B27D19933634349F6C1
:1009B000C402C2F2000294466344683317221A70DC
:1009C0003FE39833634363441A0068320721117090
:1009D0000022DA749FE500220F2101F09FFCA4237E
:1009E000634349F6C402C2F200029446634467338B
:1009F0001B780C2B42D00B2B47D0A423634349F622
:100A0000C402C2F200029446634468331B78162B7A
:100A100000D012E3A423634349F6C402C2F20002E9
:100A2000944663441A004732002111701A6C180072
:100A30008C3040F20021016004300260043001601B
:100A400004300260043001601900A0310A601A000D
:100A50007832182111700122DA67190080310A609A
:100A600004310A6004318C3565440D6042390A70E6
:100A700020310420087063331A704CE598336343C7
:100A80006344683308221A7045E5A427674349F692
:100A9000C403C2F200039C4667443B00683317223C
:100AA0001A7030000AF057FC0023FB74A5E7A42756
:100AB000474349F6C403C2F200039C4667443B0027
:100AC00023331A789207122101F028FC67373B780C
:100AD0000C2B15D00B2B90D130000AF03CFCA4233A
:100AE000634349F6C402C2F2000294466344002202
:100AF000DA74683317321A70A3E2C04658780400DB
:100B00009833634349F6C402C2F200029446634438
:100B10006C331B78F3B1A423634349F6C402C2F2D9
:100B2000000294466344DB7C0BB3A423634349F681
:100B3000C402C2F200029446634421331B789BB383
:100B4000A423634363441A00683217211170002202
:100B5000DA7476E2A427674367443B0068330922CE
:100B60001A7030000AF0F7FB0023FB7445E740F2EF
:100B7000E83130000AF0D0F858B9A423634349F6AD
:100B8000C402C2F2000294466344683317221A700A
:100B900057E2A423634349F6C402C2F2000294461A
:100BA00063440122DA74C0E7A423634349F6C40214
:100BB000C2F2000294466344683307221A70AAE422
:100BC0000022102101F0AAFBA423634349F6C402CA
:100BD000C2F200029446634467331B780C2B0ED09C
:100BE0000B2B00D009E79933634349F6C402C2F2E4
:100BF000000294466344683317221A7021E2983346
:100C000063436344190048311A6F5200D20F0A70CF
:100C100068330A221A707EE4A425454349F6C403CA
:100C2000C2F200039C4665442B00603300229A56B2
:100C3000A96B30000AF0AEF90A22A96A30000AF066
:100C40002CF868350B232B7065E4A423434349F645
:100C5000C402C2F200029446634462331B78012B43
:100C600013D0A423434349F6C402C2F200029446BF
:100C7000634462331B78022B00D04CE4A23343431D
:100C80006344683317221A70DBE1012130000AF057
:100C90000BFD002800D1B0E6A423634349F6C4024B
:100CA000C2F200029446634468330C221A7032E4A4
:100CB0000022032101F032FBA423634349F6C4025E
:100CC000C2F200029446634467331B780C2B0ED0AB
:100CD0000B2B00D091E69933634349F6C402C2F26C
:100CE000000294466344683317221A70A9E19833CE
:100CF000634363446C331B783BB9A433634363445D
:100D000068330D221A70FFF706FCA423634349F6EB
:100D1000C402C2F2000294466344683317221A7078
:100D20008FE1A423434349F6C402C2F20002944671
:100D30006344196B1422300009F0AFFF60B1A423A3
:100D4000634349F6C402C2F2000294466344683326
:100D500010221A70FFF7DFFBA423634349F6C40295
:100D6000C2F2000294466344683317221A7068E1A5
:100D7000A423434349F6C402C2F2000294466344EA
:100D800062331B78012B14D0A423434349F6C402D9
:100D9000C2F200029446634462331B78022B01D0F6
:100DA000FFF7B9FBA23343436344683317221A7039
:100DB00047E1A333434363441A6B1378FE3B594224
:100DC0004B41D21813783F218B43CBB1D3791B040D
:100DD000FC2189030B40117A09020B43527A134319
:100DE00001339B02A422624349F6C401C2F200010E
:100DF0008C4662441364683211231370FFF78BFB37
:100E00009079032318400002D37918438000517A67
:100E1000490006231940137A9B0903430133907A52
:100E2000C009014302318B40190052790F231A4047
:100E3000093A80235B0293401B0C4B43D2E700220C
:100E4000042101F06BFAA423634349F6C402C2F201
:100E500000029446634467331B780C2B0ED00B2B97
:100E600000D0CAE59933634349F6C402C2F20002D6
:100E700094466344683317221A70E2E09833634360
:100E800063446C331B783BB9A433634363446833D6
:100E900012221A70FFF73FFBA423634349F6C402F2
:100EA000C2F2000294466344683317221A70C8E005
:100EB000A423434349F6C402C2F2000294466344A9
:100EC000596B1422300009F0E8FE60B1A42363439B
:100ED00049F6C402C2F20002944663446833132206
:100EE0001A70FFF718FBA423634349F6C402C2F249
:100EF000000294466344683317221A70A1E0A423C9
:100F0000434349F6C402C2F200029446634462338A
:100F10001B78012B14D0A423434349F6C402C2F228
:100F200000029446634462331B78022B01D0FFF722
:100F3000F2FAA23343436344683317221A7080E005
:100F4000002130000AF0B0FBA423634349F6C40239
:100F5000C2F2000294466344683314221A70FFF709
:100F6000DAFA0022112101F0D9F9A423634349F6EA
:100F7000C402C2F200029446634467331B780C2B10
:100F80000ED00B2B00D038E59933634349F6C402E9
:100F9000C2F2000294466344683317221A7050E08C
:100FA000983363436344683315221A70FFF7B3FA2A
:100FB00040F20022072101F0B1F9A423634349F66E
:100FC000C402C2F200029446634467331B780C2BC0
:100FD0000ED00B2B00D010E59933634349F6C402C1
:100FE000C2F2000294466344683317221A7028E064
:100FF000983363436344683316221A700AE5A423C6
:10100000434349F6C402C2F2000294466344683383
:1010100000221A70FFF77FFA002130000AF044FB2B
:10102000A423634349F6C402C2F200029446634417
:10103000683300221A70FFF76EFA172B01D0FFF702
:101040006AFAA423634349F6C402C2F2000294463A
:1010500063441900453100220A7001390A702231B7
:101060000A70633301321A70FFF755FAA423634301
:1010700049F6C402C2F200029446634446331B7828
:10108000012B01D000F003FDA423634349F6C40201
:10109000C2F200029446634469331B78002B01D0EE
:1010A00000F0F5FC7DB3012130000AF0FDFA0028C4
:1010B00001D100F0ECFCA423634349F6C402C2F260
:1010C0000002944663441900693102220A702A72B0
:1010D00048331B7813B96B695B026B616B7FD3B9C3
:1010E000AB69013B5A1E934108332B77A42363431A
:1010F00049F6C402C2F200029446634465330222F8
:101100001A7000F0C4FCA4336343634465330022C7
:101110001A7000F0BCFCAB69013B5A1E93410A33C4
:101120002B77A423634349F6C402C2F2000294461B
:101130006344653303221A7000F0A9FC6A69297FB1
:10114000200001F0EBF8A423634349F6C402C2F285
:1011500000029446634467331B780C2B10D00B2B92
:1011600001D000F094FC9933634349F6C402C2F203
:10117000000294466344653319221A7000F087FC1C
:101180009833634363446C331B784BB9A433634394
:1011900063440022DA74653305321A7000F077FC7C
:1011A000A423634349F6C402C2F200029446634496
:1011B000653319221A7000F06AFCA423634349F6D0
:1011C000C402C2F200029446634462331B78012BCE
:1011D00015D0A423634349F6C402C2F20002944628
:1011E000634462331B78022B01D000F050FCA23321
:1011F00063436344653319221A7000F048FCA3333B
:10120000634363441A00653264331B78137000F043
:101210003EFCA423634349F6C402C2F20002944692
:101220006344996A0122300009F037FD80B1A4239C
:10123000634349F6C402C2F20002944663441A00B2
:10124000643206211170653304221A7000F01FFC0D
:10125000A423634349F6C402C2F2000294466344E5
:101260000022DA74653319321A7000F010FCA423DE
:10127000634349F6C402C2F20002944663449B6A87
:101280001B78FE2B1DD0A423634349F6C402C2F28F
:10129000000294466344DB7C03B3A423634349F612
:1012A000C402C2F200029446634421331B788BB31C
:1012B000A423634363440022DA74653319321A703D
:1012C000E5E3A425654365442B00653307221A70C6
:1012D00030000AF040F80023EB74D8E3FA21300024
:1012E00009F01AFD58B9A423634349F6C402C2F2B7
:1012F000000294466344653319221A70C7E3A4239D
:10130000634349F6C402C2F20002944663440122D8
:10131000DA74C2E7A423634349F6C402C2F20002AE
:1013200094466344653305221A70B0E3296940F29C
:101330000022300009F0B1FC78B1A423634349F6E0
:10134000C402C2F20002944663441A0064320821C7
:101350001170653304221A7099E3A423634349F69C
:10136000C402C2F2000294466344653319221A7023
:101370008DE3A423634349F6C402C2F200029446FB
:101380006344996A0222300009F087FC78B1A423F3
:10139000634349F6C402C2F20002944663441A0051
:1013A000643209211170653304221A706FE3A4239B
:1013B000634349F6C402C2F20002944663446533B3
:1013C00019221A7063E32B7F092B0BD0A4236343EC
:1013D00049F6C402C2F200029446634465330B220C
:1013E0001A7054E3AB69013BAB615BB9A43363434F
:1013F00049F6C402C2F200029446634465330A22ED
:101400001A7044E32B6940F2002C63442B61A4233F
:10141000634349F6C402C2F2000294466344653352
:1014200005221A7033E3A423634349F6C402C2F2CF
:10143000000294466344996A0122300009F02DFCB1
:1014400078B1A423634349F6C402C2F20002944671
:1014500063441A00643218211170653304221A7033
:1014600015E3A423634349F6C402C2F20002944682
:101470006344653319221A7009E300220521200014
:1014800000F04CFFA423634349F6C402C2F20002F9
:101490009446634467331B780C2B0ED00B2B00D083
:1014A000F5E29933634349F6C402C2F2000294465E
:1014B0006344653319221A70E9E298336343634445
:1014C00065330B221A70E2E26A69297F200000F07E
:1014D00025FFA423634349F6C402C2F200029446E6
:1014E000634467331B780C2B0ED00B2B00D0CEE25D
:1014F0009933634349F6C402C2F20002944663443E
:10150000653319221A70C2E29833634363446C3323
:101510001B7833B9A4336343634465330C221A70D8
:10152000B5E2A423634349F6C402C2F20002944622
:101530006344653319221A70A9E22B7F0B2B28D044
:10154000A423634349F6C402C2F2000294466344F2
:101550009B6AFE221A70A423634349F6C402C2F2B6
:10156000000294466344996A0122300009F080FB2E
:10157000D8B1A423634349F6C402C2F200029446E0
:1015800063441A0064320D211170653304221A700D
:101590007DE29933634349F6C402C2F200029446E5
:1015A00063449B6AFC221A70D5E7A423634349F67F
:1015B000C402C2F2000294466344653319221A70D1
:1015C00065E2296940F20022300009F051FB78B150
:1015D000A423634349F6C402C2F200029446634462
:1015E0001A0064320E211170653304221A704EE223
:1015F000A423634349F6C402C2F200029446634442
:10160000653319221A7042E2A423634349F6C402E7
:10161000C2F2000294466344D96A0222300009F003
:1016200027FB78B1A423634349F6C402C2F2000247
:10163000944663441A0064320F211170653304220A
:101640001A7024E2A423634349F6C402C2F20002E2
:1016500094466344653319221A7018E2A423634345
:1016600049F6C402C2F2000294466344996A012218
:10167000300009F012FB78B1A423634349F6C40299
:10168000C2F20002944663441A00643210211170C1
:10169000653304221A70FAE1A423634349F6C402B5
:1016A000C2F2000294466344653319221A70EEE1D7
:1016B000A423634349F6C402C2F200029446634481
:1016C0009B6A1A781F231340052B06D0A42363437B
:1016D0006344653319221A70D9E1A423634349F6A0
:1016E000C402C2F20002944663441A00653211211A
:1016F00011700022DA74CAE1A423634349F6C402DC
:10170000C2F2000294466344996A0122300009F053
:10171000C4FA78B1A423634349F6C402C2F20002BA
:10172000944663441A006432122111706533042216
:101730001A70ACE1A423634349F6C402C2F200026A
:1017400094466344653319221A70A0E1A4236343CD
:1017500049F6C402C2F20002944663449B6A1B78B5
:10176000002B40D1A43363436344DB7C9BB1A423AF
:10177000634349F6C402C2F2000294466344213333
:101780001B7823B3A423634363440022DA746533D4
:1017900019321A707BE1FA21300009F0BDFA58B90C
:1017A000A423634349F6C402C2F200029446634490
:1017B000653319221A706AE1A423634349F6C4020F
:1017C000C2F20002944663440122DA74CFE7A423F4
:1017D000634349F6C402C2F200029446634465338F
:1017E00011221A7053E1300009F0B5FDA4236343C0
:1017F00049F6C402C2F20002944663440022DA743D
:10180000653313321A7042E12B7F0B2B0BD0A423CC
:10181000634349F6C402C2F200029446634465334E
:101820000B221A7033E1AB69013BAB615BB9A433A6
:10183000634349F6C402C2F200029446634465332E
:1018400014221A7023E12B6940F2002C63442B61AF
:10185000A423634349F6C402C2F2000294466344DF
:1018600065330C221A7012E1A423634349F6C402C3
:10187000C2F2000294466344FD22996A0A70996A92
:10188000FC3A300009F0F4F988B1A423634349F627
:10189000C402C2F20002944663441A006432152165
:1018A00011700132113911700022DA74EFE0A423B3
:1018B000634349F6C402C2F20002944663446533AE
:1018C00019221A70E3E0A423634349F6C402C2F26A
:1018D000000294466344996A0122300009F0DDF960
:1018E00078B1A423634349F6C402C2F200029446CD
:1018F00063441A00643216211170653304221A7091
:10190000C5E0A423634349F6C402C2F20002944630
:101910006344653319221A70B9E0A423634349F67E
:10192000C402C2F2000294466344996A0122300064
:1019300009F0B3F978B1A423634349F6C402C2F2B3
:101940000002944663441A00643217211170653313
:1019500004221A709BE0A423634349F6C402C2F236
:10196000000294466344653319221A708FE0A42361
:10197000634349F6C402C2F20002944663449B6A80
:101980001B78002B40D1A43363436344DB7C9BB1C1
:10199000A423634349F6C402C2F20002944663449E
:1019A00021331B7823B3A423634363440022DA74F6
:1019B000653319321A706AE0FA21300009F0ACF987
:1019C00058B9A423634349F6C402C2F20002944604
:1019D0006344653319221A7059E0A423634349F61E
:1019E000C402C2F20002944663440122DA74CFE7D3
:1019F000A423634349F6C402C2F20002944663443E
:101A0000653316221A7042E0300009F0A4FCA423CA
:101A1000634349F6C402C2F20002944663440022C2
:101A2000DA74653318321A7031E0182A3DD0012378
:101A30005B4240F201082B720021300009F034FEB5
:101A40002B791B01A422624349F6C401C2F20001B2
:101A50008C46624452689B185F681FB19A68E968B7
:101A60004046B847736D23B11A6A726500221A6244
:101A70001A70A423634349F6C402C2F200029446DA
:101A800063441900693100220A7065331A70A4207A
:101A9000604349F6C403C2F200039C4660447430BC
:101AA0000123037004BC9046F0BD002340F20008FF
:101AB000C1E7C046F0B5DE4657464E464546E0B55E
:101AC00097B011900E000192029311A808F0DAF875
:101AD000002800DAB5E349F63C43C2F20003820075
:101AE000D3580BB100221A7049F64463C2F20003C6
:101AF0004000C55C9C46604443789B46280009F042
:101B000032FDC30700D59EE3430700D5A3E3002EB3
:101B100001D100F0F2FB73681593002B01D100F0A6
:101B2000F2FB159B5A1E47F6FF718A4201D81A42F2
:101B300001D00123159373789846013B012B01D9FD
:101B400040F20108B7687A1E47F6FF739A4204D83C
:101B50003B0704D040F2002701E040F20027F46880
:101B600080235B049C4200D9A6E0631E23405A42B6
:101B700053415B421C4040F2FF13029A9A4200D844
:101B80006BE30199002900D169E3337806930023C0
:101B900014935B46002B00D190E0012300220E003D
:101BA000280009F038F8002800D05AE340F2FF136B
:101BB0003100F25C1202013BF35C1343984A1BB202
:101BC000934200D04FE35B461E01AF36FF368C4692
:101BD0006644042B00D948E33379002B00D146E357
:101BE0003000083009F0E3FB059030000C3009F0BC
:101BF000DEFB1490149B7F2B00D83CE340F2FF13D4
:101C0000C0F20103802204929C4201D8630A04932B
:101C10000223069A110019400D91002963D0013B5F
:101C200013405A4253410233039309F047FD109089
:101C3000149B9A461B0B1C007B015B0A0A93059AB6
:101C400001320E92944663440993159B5A1E0792E3
:101C50005B42089353465B0C0F9350464146B9468E
:101C60000C95A446039B032B00D11AE3049B1C0094
:101C7000002B5ED0B0FBF4F540F6F5739D4275D9AC
:101C8000AB1C5B0040F2FF1A53445D0A2E004E432A
:101C9000099B9A465644079B9B19089A13409B1B25
:101CA000B3FBF1F24A43934268D0013B059A0232FA
:101CB0000B9240F2020A65E000245CE714AA0121BD
:101CC000280008F0EAFC002800D0D2E200230593A7
:101CD000069B1B078ED4149B3F2B8BD93F3B149341
:101CE0003F23059386E7069BDB0700D4C5E202236A
:101CF00003939AE70494B5E74FF6FF73C0F201032C
:101D0000984214D94BF2E053C0F204030433022486
:101D100002220C9F0F9DAA4207D8640002339A1E2C
:101D20001288002AF7D10C97C0E20C97BEE201247A
:101D3000BCE240F6FF73984216D94BF2D053C0F282
:101D400004030433022404220C9F6546AA4208D8E7
:101D5000640002339A1E1288002AF7D10C97AC4611
:101D600088E70C97AC4685E7012483E76B005B1995
:101D700001335B0803330122039283E70E9A0B922F
:101D800040F2010AB3FBF1F35B190A9D2201059FA2
:101D9000F61B9619B04200D273E252465619861BC2
:101DA0000A005A43B61AB6FBF4F6039A032A15D072
:101DB000039A022A36D14FF6F57296421FD9049B38
:101DC000002B00D06BE26400402C93D90D9B002BBC
:101DD00000D066E2802C10D8049443E74FF6F572E9
:101DE00096421FD8049B002B00D04CE2012C02D954
:101DF0006308049336E70E2026E20E2024E240F624
:101E0000F572964200D9B4E0049B002B00D03CE26E
:101E100063000493802B00D824E70E2014E2C04610
:101E200055AAFFFF089552460792824604930C9DDF
:101E30004F468946039B012B00D0BEE040F6F57368
:101E40009E4200D923E240F200220021019809F0CD
:101E50003FFB4AF64011C0F204010B22019809F041
:101E60002DFB0023019AD372023313735473079B23
:101E700093739BB21B0AD37343461374019A57742E
:101E8000BFB23F0A97744FF6FF739A4500D9B6E088
:101E90005346D3749BB21B0A1375029B5B0A984688
:101EA000109B53441F00F82301994B75B93B0B76E7
:101EB00000234B76FF228A76CB7608001C300599EA
:101EC00009F075FB039B032B00D19EE03900019EB6
:101ED0003000273009F06BFB049BB3759BB21B0AE3
:101EE000F37524238022F2540233573AF2544AF60F
:101EF0006011C0F20401163A30002B3009F0DEFA0E
:101F000040F2FE135522F25401335532F254FF3B96
:101F1000FF3B059A3100280008F060FD002800D042
:101F2000B7E1029B5A0A52020021019809F0D0FA47
:101F30004B46002B00D1DDE1039B013B5A1E934130
:101F40005B421B064FF6F87CC0F2FF0C634405931E
:101F500040F2000A0B9F02954346A0461C00039BDB
:101F6000032B00D1DAE00599019809F020FB049DCC
:101F7000F8E0089552460792824604930C9D4F461E
:101F8000894640F200220021019809F0A1FA4AF6A0
:101F90004011C0F204010B22019809F08FFA0023CE
:101FA000019AD372023313735473079B93739BB2DA
:101FB0001B0AD3734346137460E740F200220021EA
:101FC000019809F085FA4AF64011C0F204010B228B
:101FD000019809F073FA0023019AD3720233137344
:101FE0005473079B93739BB21B0AD37343461374BA
:101FF000039B033B5A1E93415B421F403EE70198FF
:102000002030514609F0D3FA47E73900019F3800E4
:10201000433009F0CCFA38002430049909F0C7FAAB
:1020200038002C30022109F0C2FA30230122FA5480
:1020300000233032BB5401320621B9540132BB5463
:1020400040334D32FA540233573AFA544AF64C119F
:10205000C0F20401163A3800473009F02FFA40F276
:10206000FE135522FA5401335532FA54FF3BFF3B1D
:10207000059A3900280008F0B1FC03000120002B6C
:1020800000D0E1E0059B9A1D0123019F3900280043
:1020900008F0A4FC40F200220021380009F018FAF0
:1020A00045F25221C4F26111380009F080FA47F27A
:1020B0007221C6F241113B00E533FF33180009F0ED
:1020C00076FA711E3E00E936FF36300009F06FFAED
:1020D0003800ED30FF30022109F069FA40F2FE13BA
:1020E0005522FA5401335532FA54059BDA1D012367
:1020F0003900280008F072FC01230E9A39002800EC
:1021000008F06CFC029B5A0A52020021380009F0C8
:10211000DFF94B46002B00D00EE733E0082149429F
:10212000019D280009F043FA01212B1D49421800A6
:1021300009F03DFA28000830764909F038FA16E728
:1021400033003A000199029808F048FC002800D0BA
:10215000A1E040F200220021019809F0B9F9BF196D
:10216000AD1B25B12E00A542EAD92600E8E740F2D2
:10217000010CE244D14500D9F1E60B97029D230002
:1021800044469846039B0B9F032B0ED0089C0B9F45
:102190000BE033003A000199280008F01FFC0028EA
:1021A00000D07AE0BF19A41B24B126004445F0D921
:1021B0004646EEE7039A032A09D04FF6FF7306342A
:1021C0001499994204D8022A10D0053C00E00C244E
:1021D0005B466BB9069B1B0726D500221100280021
:1021E00008F05BFA431E9841C0B22DE00424EFE7EB
:1021F00001230022019E3100280008F00CFD03009D
:1022000001200BBB5B46013B1B01B4466344C33357
:10221000FF331C70030000223100280008F0DEFBB1
:102220000028DAD001200FE0149B129300231393AF
:10223000019B220012A9280004F0AEF80028CCD09F
:1022400002E00B2000E0032017B03CBC904699460A
:10225000A246AB46F0BD0A20F6E71120F4E71120B4
:10226000F2E70120F0E70E20EEE70E20ECE70E206B
:10227000EAE70120E8E70E20E6E71320E4E70E2076
:10228000E2E70E20E0E70E20DEE70E20DCE70E207E
:10229000DAE70120D8E70120D6E70120D4E70D9B3B
:1022A00033B3049B1C00002B00D125E5B0FBF4F2F6
:1022B000930040F2072A53445B0A174DAA46524442
:1022C0002D0CC0F6FE75AA42D9D8059D20351E00FA
:1022D0004E437619079A9219089F3A40921B40F292
:1022E000200A9244AA180B920025032203924DE57E
:1022F0000E20A9E7089C0B9F57E7002315934BF28C
:10230000F056C0F2040615AA0321280008F0C5F90A
:10231000FFF707FCFFFFFF0F0A00FFFF70B5060085
:102320000D00A424444349F6C403C2F200039C46B2
:1023300064442300673319780C2937D88B00CF49C0
:10234000CB589F46A4235E4349F6C403C2F2000360
:102350009C4666440023B37448F6B823C0F20403D5
:10236000ED00EB5C40210B43B16A0B70130EB16AB8
:102370004B7013021B0EB16A8B7013041B0EB16AF3
:10238000CB70B36A1A7148F6B823C0F204039C46B6
:1023900065446B78B26A5371FF23B26A937133005C
:1023A00024330A221A7067360123337070BD01216D
:1023B000200009F079F90028F8D0A423734349F6E6
:1023C000C402C2F2000294466344996A06222000C5
:1023D00008F04EFC58B9A4235E4349F6C403C2F288
:1023E00000039C46664467360A233370DEE7052DFA
:1023F0000BD0A4235E4349F6C403C2F200039C46FB
:102400006644673603233370D0E7A4235E4349F65E
:10241000C403C2F200039C4666446736022333704D
:10242000C4E7A423434349F6C402C2F2000294461F
:10243000634462331B78012B12D0A423434349F633
:10244000C402C2F200029446634462331B78022B3A
:10245000ACD1A2335E43664467360A233370A5E7E6
:10246000A33343436344996A0122200008F015FC1A
:1024700058B1A4235E4349F6C403C2F200039C464C
:10248000664467360323337090E7A4235E4349F61E
:10249000C403C2F200039C46664467360A233370C5
:1024A00084E7A423434349F6C402C2F200029446DF
:1024B000634462331B78012B13D0A423434349F6B2
:1024C000C402C2F200029446634462331B78022BBA
:1024D00000D06BE7A2335E43664467360A2333704D
:1024E00064E7A33343436344996A0122200008F060
:1024F000D4FB58B1A4235E4349F6C403C2F20003DF
:102500009C4666446736042333704FE7A4235E433A
:1025100049F6C403C2F200039C46664467360A23A8
:10252000337043E7A423434349F6C402C2F20002D6
:102530009446634462331B78012B13D0A423434396
:1025400049F6C402C2F200029446634462331B7827
:10255000022B00D02AE7A2335E43664467360A2383
:10256000337023E7A33343436344996A0A786C3397
:102570001A70FF2A22D0ED0048F6B823C0F20403F7
:102580009C466544AB78012B7AD09BB3022B4ED08E
:10259000042B00D00AE70422200008F07EFB00286C
:1025A00000D18AE0A423734349F6C402C2F20002B8
:1025B00094466344673306221A70F7E6A423434324
:1025C000634424331A78013AD2B21A7032B9A42380
:1025D0005E43664467360A233370E7E6A4235E430E
:1025E00049F6C403C2F200039C46664467360323DF
:1025F0003370DBE60122200008F04FFB58B1A42322
:10260000734349F6C402C2F200029446634467333E
:1026100008221A70CAE6A423734349F6C402C2F220
:1026200000029446634467330A221A70BEE6A4236C
:10263000434349F6C400C2F20000844663446D334C
:102640001A700122200008F028FB58B1A42373431C
:1026500049F6C402C2F2000294466344673305227D
:102660001A70A3E6A423734349F6C402C2F200021F
:102670009446634467330A221A7097E6D8A8040088
:102680000122200008F009FB58B1A423734349F646
:10269000C402C2F2000294466344673307221A70F0
:1026A00084E6A423734349F6C402C2F200029446AE
:1026B000634467330A221A7078E6A423734349F609
:1026C000C402C2F200029446634467330A221A70BD
:1026D0006CE6A423434349F6C402C2F200029446C6
:1026E000634462331B78012B13D0A423434349F680
:1026F000C402C2F200029446634462331B78022B88
:1027000000D053E6A2335E43664467360A23337033
:102710004CE6A333434363449A6A12786C331A70CD
:1027200002BBA423434349F6C402C2F2000294460A
:1027300063449B7C002B40D0A423734349F6C4021E
:10274000C2F200029446634420331B78002B50D021
:10275000A4235E436644330067330A221A700023C1
:10276000B37423E6200008F0EBFDA423734349F67D
:10277000C402C2F200029446634400229A74D96AE9
:102780000132200008F074FA58B9A4235E4349F6D8
:10279000C403C2F200039C46664467360A233370C2
:1027A00004E6A4235E4349F6C403C2F200039C4638
:1027B0006644673608233370F8E56421200008F08A
:1027C00096FA58B9A423734349F6C402C2F2000230
:1027D0009446634467330A221A70E7E5A4237343DF
:1027E00049F6C402C2F200029446634401229A747C
:1027F000A2E7A423734349F6C402C2F2000294463E
:102800006344996A0122200008F047FA58B1A423D2
:10281000734349F6C402C2F200029446634467332C
:1028200007221A70C2E5200008F08AFDA4235E4347
:1028300049F6C403C2F200039C4666440023B37405
:1028400067360A333370B1E5A423434349F6C40223
:10285000C2F200029446634462331B78012B13D00A
:10286000A423434349F6C402C2F2000294466344DF
:1028700062331B78022B00D098E5A2335E43664496
:1028800067360A23337091E5A333434363449A6A5E
:1028900011781A006D321170D96A0122200008F0F7
:1028A000E7F958B9A4235E4349F6C403C2F2000312
:1028B0009C46664467360A23337077E5A4235E435B
:1028C00049F6C403C2F200039C46664467360823F7
:1028D00033706BE5A423434349F6C402C2F20002FD
:1028E0009446634462331B78012B13D0A4234343E3
:1028F00049F6C402C2F200029446634462331B7874
:10290000022B00D052E5A2335E43664467360A23A9
:1029100033704BE5A333434363449A6AD07819007C
:10292000703108709078013108705078013108706A
:1029300011781A0073321170D96A0122200008F050
:1029400097F958B9A4235E4349F6C403C2F20003C1
:102950009C46664467360A23337027E5A4235E430A
:1029600049F6C403C2F200039C4666446736082356
:1029700033701BE5A423434349F6C402C2F20002AC
:102980009446634462331B78012B13D0A423434342
:1029900049F6C402C2F200029446634462331B78D3
:1029A000022B00D002E5A2335E43664467360A2359
:1029B0003370FBE4A3335E43664467360923337008
:1029C000F4E4A4235E4349F6C403C2F200039C4628
:1029D000664467360C2333700021200008F064FE43
:1029E000E4E4A4235E4349F6C403C2F200039C4618
:1029F000664467360B2333700021200008F054FE34
:102A0000D4E4A4235E4349F6C403C2F200039C4607
:102A10006644673600233370C8E4C046F0B5DE462E
:102A200057464E464546E0B585B049F63C73C2F27E
:102A300000031C68187D48B92378002B32D105B0FB
:102A40003CBC90469946A246AB46F0BD2378002B8D
:102A500000D017E2210028310022531CDBB298423B
:102A6000EDD028310D00283D2D780DB91A00F4E77E
:102A70000232D2B2012A00D105E249F63C71C2F21B
:102A800000010A75FF2BDAD09A00D318DB00E41896
:102A90006379012B08D0237B042BD0D89B00CE4A2E
:102AA000D3589F460300EFE7237B042B10D000236D
:102AB00023732023E35C012B00D1B7E100232370B3
:102AC0002022A3546371A370E37063702371B6E78F
:102AD00049F63C73C2F2000300225A75E7E7E0882A
:102AE000A3685B6A032198476061431CA7D04AF63C
:102AF0006D01C0F20401A3681B69220098470223FC
:102B000023739CE7A3681B686069984768B120231A
:102B1000E35C33B9A3685B6860699847606203232C
:102B2000237320230122E25489E72023E35C012B55
:102B300003D020230022E25481E7200008F023FB89
:102B400000232371F5E749F63C73C2F200035B7D75
:102B5000002B00D073E749F63C73C2F20003012258
:102B60005A75636A1B691B68FF32FF320126934264
:102B700002D87602B6FBF3F649F63C75C2F20005C0
:102B800040F200220021286908F0A2FC2123022241
:102B9000E2542A6921001C316069A36800969D688F
:102BA0000023A847E369013302D00423237346E7D7
:102BB00049F63C73C2F2000300225A753FE7212315
:102BC000E356022B09D083B149F63C73C2F20003ED
:102BD00000225A750323237331E7A368DB6A002BB5
:102BE00000D12CE72069984729E749F63C73C2F2E7
:102BF00000031D6900236370FF33FF33EB5C40F279
:102C00000008552B78D0C14640F2FF0A49F63C73C4
:102C1000C2F200035D682B78002B64D149F63C7347
:102C2000C2F200031B699B462379013323714BF2E7
:102C30009443C0F20403227E9200D35803931800F9
:102C400008F05AFBC6B2FF270740A81C3A000399B8
:102C500008F034FCA378EF19BB70731CDBB2EB18DF
:102C6000227930329A700236F6B2AE190023B37070
:102C7000AC6153466B704B464A4633B3DB0700D416
:102C8000B9E000235246FF2A1FD04BF24C72C0F22B
:102C9000040259008A5A5946895C69705A44D17AAB
:102CA0000906907A00040918107A0918507A00026F
:102CB00009186961D1790906907900040918107919
:102CC0000918527912028A182A614246002A00D154
:102CD000A3E049F64462C2F20002E17811700133C8
:102CE000537001232B7049F63C73C2F2000300229B
:102CF0005A7502232373A2E6AB33FF33EB5CAA2B96
:102D000081D12B78EB2B37D040F2C213E85C08F06E
:102D1000CFFA002857D1637840F20009637040F27F
:102D2000D213E85C08F0C4FA30B102234A461A43D1
:102D3000914663780133637040F2E213E85C08F077
:102D4000B7FA00284AD004234A461A4391466378CA
:102D50000133637040F2F213E85C08F0A9FAB0B3F3
:102D600008234A461A43914663780133637040F260
:102D7000010840F2010A49E76B783C2B03D0582B3D
:102D800001D0FE2BC0D1AB78902BBDD18F3B6370AF
:102D90005133EB5C462B4DD05323EB5C412B4FD092
:102DA0005423EB5C542B51D03623EB5C462B53D091
:102DB0003723EB5C412B55D03823EB5C542B57D099
:102DC00040F200081FE7012340F20109A6E740F2A4
:102DD0000108C2461AE7C04680B4040040F2F2136C
:102DE000E85C08F065FA0028BAD14B46002B45D1C3
:102DF00040F2010807E74B469B0701D5012341E755
:102E00004B465B0701D502233CE708231A40130019
:102E1000002A00D136E7032334E749F64463C2F2BF
:102E20000003E2781A7000225A705AE7200008F076
:102E3000AAF943E640F20008C14640F20B0AE5E673
:102E400040F20008C14640F20B0ADFE640F20008FB
:102E5000C14640F20B0AD9E640F20008C14640F2F2
:102E6000060AD3E640F20008C14640F2060ACDE663
:102E700040F20008C14640F2060AC7E640F20108E7
:102E8000C246C3E6002349F63C72C2F200020021AA
:102E90001175F9E5F0B5DE4657464E464546E0B5B4
:102EA00085B00F00160000230B6006F0EBFE051E38
:102EB00000DA40E149F63C43C2F200038200D458F4
:102EC000002C00D140E13C6001239E43237873B184
:102ED000607808F091FCC30709D4002E00D12BE1E3
:102EE00004260640002E00D126E10A2624E1002314
:102EF0002370607808F037FB01270740002F00D0CF
:102F000024E116B1430700D522E16D0049F6446380
:102F1000C2F200039C4665446E780021200004F054
:102F20002DFA022801D02ED89EB3042E00D92FE10D
:102F30002500FF35FF3540F23E29A144E846280030
:102F400008F035FA434601C3984610354D45F6D191
:102F500035006B1E9D41751BAD006D4404AB98465A
:102F60000AE0200004F00AFA6EB9012801D810E046
:102F700003200435454506D029680029F1D1002EEB
:102F8000F6D00D26D8E0042800D1E3E0012800D9CE
:102F9000E2E04423E25C1202013BE35C134340F2B3
:102FA00000221BB2934200D0D8E04F23E55C2D02F3
:102FB000013BE35C1D4325B920005C3008F0F7F9C4
:102FC0000500636B9B4625624823E65CE670731E32
:102FD000012B00D9C4E04523E35C98469BB2638192
:102FE000002B00D1BEE04346013B42461A4200D0CE
:102FF000BAE04A23E25C1202013BE35C13431BB2DA
:1030000099469BB29A4623811B0700D0AEE04C2321
:10301000E05C0002013BE35C184318B92000583023
:1030200008F0C5F94723E35C1B024622A25C134368
:10303000002B00D19CE032006A4351460909C918AF
:103040008918884200D295E0401AB0FBF8FC404550
:1030500000D291E04FF6F570C0F6FF70844500D9BC
:1030600098E04FF6F5700326844500D993E040F6CA
:10307000F5700226844500D98FE002206044804626
:10308000E061584660625B44A362594421630D26A7
:103090005146002950D0D318E362012643465B0015
:1030A00043445B08012241460A409B1840F2FF1C42
:1030B00063445B0AAB4267D801235B4263612361CF
:1030C00081336371267049F64662C2F200021388AA
:1030D00001339BB21380E38049F2C443C2F2000380
:1030E000E3600023A36149F6EC43C2F200031B68CE
:1030F000A34212D049F6EC43C2F200031B699C4282
:1031000012D03E0018E0514600293BD09B18E362E4
:10311000022EC3D143465B00C8E749F6EC43C2F236
:10312000000300221A60E5E749F6EC43C2F200030F
:1031300000221A61E5E70B26300005B03CBC904642
:103140009946A246AB46F0BD0C26F5E70326F3E709
:103150000A26F1E70126EFE70D26EDE70D26EBE75E
:103160000D26E9E70D26E7E70D26E5E70D26E3E75F
:103170000D26E1E70D26DFE70D26DDE70D26DBE76F
:103180000D26D9E70D26D7E70D26D5E70D26D3E77F
:103190000D26D1E70026002EF8D00220604480469C
:1031A000E061584660625B44A36259442163032E88
:1031B000A9D16323E25C1202013BE35C13434A465C
:1031C0001A4313B2002BD9D12000643008F0EFF875
:1031D000E06243469B0040F2FF1C63445B0AAB4243
:1031E000CED801235B426361236181336371173B56
:1031F000E25C1202013BE35C1343012B00D061E768
:1032000059460131200007F081FB002800D059E722
:103210000023637140F23723E25C1202013BE35C5E
:103220001343144A1BB2934200D04BE720003830BE
:1032300008F0BDF845F25223C4F26113984200D061
:1032400040E740F21C23E01808F0B1F847F272237F
:10325000C6F24113984200D034E740F22023E01830
:1032600008F0A5F8606140F22423E01808F09FF808
:10327000206127E755AAFFFFF0B5DE4657464E46C8
:103280004546E0B587B083460F00036898460B7843
:103290002F2B06D05C2B04D042469269826008E056
:1032A00001373B782F2BFBD05C2BF9D000235A46FB
:1032B00093603B781F2B04D9C2463B005F469B4678
:1032C00029E12F2380225946CA540021584605F08F
:1032D0002FF99DE1FE2C00D9A9E163005E53013472
:1032E00005A807F068FE431C00D1A0E14FF6FF736C
:1032F000984203D96300020C5A53013486B21F2E40
:103300002DD92F2E11D05C2E0FD07F2EE2D84FF664
:10331000FF7101404BF26C40C0F2040008F0E2F88B
:103320000028D7D083E101330593059B1A782F2A13
:10333000F9D05C2AF7D000261F2393427641B300D0
:103340000093059B9B46012C0CD0022C22D0002C14
:1033500000D16AE1B74BE3185B00EB1826E00423C9
:103360000093EEE72B882E2BF4D1630000225A53F2
:103370000E2039002431A2429B41034020338B545C
:1033800001320B2AF7D12026009B33431E002F2346
:10339000FE54A5E06B882E2BDCD12B882E2BD9D1A7
:1033A000E3E7013C023B002C00D13EE11A88202AD1
:1033B000F7D02E2AF5D063000022EA52002C00D16B
:1033C00035E12A88202A46D1002601367200AA5A01
:1033D000202AFAD0002E3FD0032200991143CAB20E
:1033E0000092EA18023A1288043BEB182E2A05D004
:1033F000013C1CB1023B5A882E2AF9D138002430F6
:103400000B22202108F064F8082301930023029383
:103410000393A8462500741C76004346F65AAEB3C3
:10342000202E1ED02E2E1AD0029B019A93421FD21C
:10343000AC4200D100E17F2E00D981E04BF2784010
:10344000C0F20400310008F04DF8002800D1B6E0C9
:10345000009B994689E000262E2AC2D1BCE7AC42E7
:10346000E2D00323009A1A43D3B200932600D2E796
:10347000019B0B2B55D0AC4200D1E1E00323009A15
:103480001A43D3B20093AC4200D8D9E02423FB5CAA
:10349000E52B51D0019B082B00D1AAE00C23039A05
:1034A00013400C2B02D0D3439B0704D10223009E70
:1034B0001E43F3B20093009A93070ED4039BDB07DD
:1034C00003D510231A43D3B20093039B5B0704D5A3
:1034D0000823009E1E43F3B200932F23009AFA5450
:1034E000380002F023FC2F23FB5C002800D085E08D
:1034F0005B0700D58CE0BB7910221A4200D192E024
:103500005346383340F2FF117A691140591850463A
:1035100007F062FDB8605B4605933B68DD680024F8
:10352000DEE60323009E1E43F3B200932423FB5CDC
:10353000E52BB3D10B23019324230522FA54A9E7E9
:103540000223009A1343DBB2994640F2B5113000D2
:1035500006F0DCFE0600030615D549F22022C0F273
:1035600004027F231840165C36BB03234A461A43E5
:10357000D3B20093029B5F265A1C0292FB1824339D
:103580001E70260047E7FF28EED9019B013B029AF7
:103590009A4208D2029A531CBA182432000A1070B8
:1035A0004A460092E8E70323009A1A43D3B20093F5
:1035B0002600019B02932EE74B4600933EE7330023
:1035C000413B9BB2192B05D80223039A1A4303925D
:1035D000029BD1E73300613B9BB2192B07D8012333
:1035E000039A1A430392203EB6B2029BC4E7029BA1
:1035F000C2E7039B9B00DBB203934FE7042807D18C
:103600009A060CD55B0786D52F238022FA5400201A
:1036100007B03CBC90469946A246AB46F0BD5B075E
:10362000F6D40520F4E70520F2E700232B800620DE
:10363000EEE7C046FFFFFF7F019B0B2B00D170E739
:10364000039B9B00DBB203932E000B230193033BF0
:103650000293E0E62C9D00201C000000000000000A
:10366000649D00201400000000000000D09D002098
:103670000C00000000000000A09D002010000000D1
:1036800000000000789D00201400000000000000F1
:10369000C4980020A4000000000000008C9D0020C1
:1036A0001400000000000000989B0020540000005F
:1036B00000000000489E0020010000000000000003
:1036C000709C00202C00000000000000DC9D002009
:1036D0000C00000000000000499E002001000000D6
:1036E000000000003C9C00200400000000000000DE
:1036F000EC9C00202000000000000000469E0020FE
:103700000200000000000000C4940020000200003D
:10371000000000000C9E00200800000000000000D7
:103720004A9E00200100000000000000149E0020BE
:1037300008000000000000000C9D00202000000098
:1037400000000000A4920020200200000000000001
:10375000B09D002010000000000000001C9E002012
:1037600008000000000000004B9E00200100000047
:1037700000000000449E0020020000000000000045
:10378000008000200008000000000000C496002017
:1037900000020000000000009C9C002028000000A7
:1037A00000000000489D00201C00000000000000F8
:1037B0003C9F002018000000010000009C9C00209D
:1037C000489D0020F49D002000000000C4960020C9
:1037D00000000000289B0020700000000000000096
:1037E00000880020600400000000000068900020B5
:1037F0003C020000000000004C9E00200100000080
:1038000000000000409C002030000000000000008C
:1038100068990020A0000000000000004E9E0020DB
:10382000020000000100000001000000C09D002017
:103830001000000000000000089A00209000000026
:1038400000000000C49C00202800000000000000D0
:10385000989A00209000000000000000E89D0020E1
:103860001800000000000000249E00200800000056
:1038700000000000549F00200C0000000100000028
:1038800048656C6C6F20576F726C6400349E00202A
:103890000400000000000000EC9B0020500000002D
:1038A00000000000509E00206C000000010000009D
:1038B0005C9E0020589E00205C9E002000000000BE
:1038C00025000000688C00200004000000000000BB
:1038D00000000000000000000000000000000000E8
:1038E00000000000000000000000000009B8040013
:1038F00000000000000000000000000000000000C8
:103900008998040000000000000000000000000092
:10391000000000000000000000000000608C00209B
:1039200008040000000000001C9F00202000000090
:103930000100000001000000030000000000000082
:103940000000000000000000000000000000000077
:103950002C9E00202C9E002008000000000000008B
:10396000389E00200800000000000000BC9E0020DF
:1039700060000000010000000100000003000000E2
:103980000000000000000000000000000000000037
:10399000000000007D9B040000000000000000000B
:1039A000000000002BB70400EB98040000000000AA
:1039B0000000000000000000000000000000000007
:1039C00000000000000000000000000000000000F7
:1039D0000000000000000000609F002004000000C4
:1039E0000100000001000000409E002004000000D3
:1039F00000000000009E00200C00000000000000FD
:103A00000000000000000000666666666666666686
:103A1000666666660023F0B506001500B1B0079132
:103A2000039307990B78002B00D10AE101235B4235
:103A30000C9310AB00240E9380230B940D940F93E2
:103A40000B5D0BB1252B29D134B12200300006F0DB
:103A5000B9FE079B1B190793079B1A78252A00D0EC
:103A6000E4E040F2020C0121102701330493079394
:103A7000079803782B2B1AD025D8202B1AD0232B6C
:103A80001DD02A2B28D006F0CBFD0D90079B1A786D
:103A9000303A092A31D801330793F7E70134CFE7E9
:103AA0000B9B05930B4301300B930790E0E7042336
:103AB0000B9A0FE00B9B0593059A08230AE00B9BDA
:103AC00005933B43EFE72D2BEAD0302BD9D162464B
:103AD0000B9B05931343E6E72B6801301A1D1B6807
:103AE00007902A600D93002B07DA0B9A5B42059230
:103AF000012205990D934A400B920B9BDA0702D5E0
:103B0000022293430B93079B1A782E2A0ED1002290
:103B1000581C0C9207905A782A2A27D1023307930F
:103B20002B681A1D1B682A6005930C9307A806F0E2
:103B30003BFF079B0700187807F09DFD692800D11F
:103B400082E034DC632800D1D7E01ADC252800D1DC
:103B5000E4E0612858D0049B0122079300235242DD
:103B60000C920B930D9300930232E1E006F058FDA6
:103B70000C90079B1A78303A092AD7D8013307935B
:103B8000F7E7642860D06728E5DC2A00390008A838
:103B900007F016F9002800D1ABE0079B0BA95A1CCF
:103BA00007921B7808AA300007F032FE3DE070282B
:103BB00000D17BE016DC6E2800D193E06F28CAD1DB
:103BC0002B000022390008A804F00EFD002800D1C7
:103BD0008FE0079B08AA01330BA93000079307F079
:103BE00015FE22E0752840D078284ED07328B2D137
:103BF000802F00D07DE0079B2A6801330793131DB7
:103C00002B601268002384E02A00390008A807F01E
:103C1000D7F8002800D16CE0079B0BA95A1C07922B
:103C20001B7808AA300007F0F3FD2418039B1C1929
:103C3000A34200DC7EE04F223F4B1A6001235B422F
:103C40000393039831B0F0BD2B000122390008A87E
:103C500004F0CAFC00284CD0079B08AA01330BA92A
:103C60003000079307F0D2FDDFE72B000022390078
:103C700008A804F0B9FCE0B3079B08AA01330BA91C
:103C80003000079307F0C2FDCFE72B000022390078
:103C900008A804F0A9FC60B3079B5A1C07921B7884
:103CA00008AA0BA9300007F0B3FDBEE72B000022E5
:103CB000F02108A804F098FCD8B1079B099A0133B9
:103CC0000793089B13435BB91C4807F015FB0200E0
:103CD0000B9B1A4900930D9B300005F056FCA4E79E
:103CE0007823DDE7039B39001A1908A82B0005F09B
:103CF00031FD079B0133079398E7802FF9D1079B8C
:103D0000013307932B681A1D1B682A6008AA1370D9
:103D100001230BA9300007F07DFD86E7802FE8D155
:103D20000122079B013307930B9B049300930D9B88
:103D30000349D1E7039474E63C9E0020D4B7040005
:103D4000DAB70400F0B585B000930393009B0290AE
:103D50000C001600150001900F00002B00D0C9E0E8
:103D60008A424AD9100006F0D5FC48B12023019FB1
:103D70001B1ADF40019B8440834085402743019309
:103D8000AAB22B0CB7FBF3F1160094461A004A4373
:103D90004E43BF1A019A3F04140C27430A00BE4247
:103DA00007D97F19013ABD4203D8BE4201D98A1E04
:103DB0007F19BE1BB6FBF3F14B436446F61A6B4604
:103DC0004C439B8836041E430F00B44207D9761932
:103DD000013FB54203D8B44201D98F1E76191204AF
:103DE000341B3A430A9B23B1C4401C6000230A9948
:103DF0004B601000009905B0F0BD02B9FFDE100065
:103E000006F088FCB8BB0123A41B00932B0CB4FB69
:103E1000F3F21F0011005743AEB27143E41B019F40
:103E200024043F0C3C439446A1420AD9012764195B
:103E30007F42BC44A54204D8A14202D9023A94462A
:103E40006419641AB4FBF3F77B43E41A6B467E43B0
:103E50009B8824041C433900A64207D96419013900
:103E6000A54203D8A64201D9B91E641963461A04B3
:103E7000A41B0A43B6E7202223000199121AD3405B
:103E80008440D140019A8540824021438C46290CD0
:103E9000B3FBF1F401920A00624326009B1A6246CA
:103EA000AFB27E43120C1B04134322009E4207D97B
:103EB0005B19013A9D4203D89E4201D9A21E5B19AB
:103EC0009B1BB3FBF1F671435B1A614677438CB2DF
:103ED0001B041C433100A74207D964190139A542CC
:103EE00003D8A74201D9B11E641912040A43E41B86
:103EF00000928BE7009B8B420AD90A9B002B00D1D2
:103F0000ABE0029A59601A60002300931A0070E730
:103F1000039806F0FFFBD8B9039BA34203D3029B8F
:103F200002009E420AD8029B01229E1B039B01961F
:103F3000E41A029BB342AD416D42671B0A9B00939A
:103F4000002B00D155E7019982C30023009350E76D
:103F500020231B1A01933300019A039FD34087400B
:103F60001F4323000199D340029A8440CA40224350
:103F70009446029A390C8240B3FBF1F402920A0093
:103F800086406243009626009B1A6246BDB26E438D
:103F9000120C1B04134322009E4207D9DB19013A7D
:103FA0009F4203D89E4201D9A21EDB199E1BB6FB7D
:103FB000F1F4634661436543761A360499B20E43C1
:103FC0002300B54207D9F619013BB74203D8B542E1
:103FD00001D9A31EF61912041A436B461C88009BD4
:103FE000711B8C46190C230096B2150C6C4373435D
:103FF0004D4371431E0C091971188C4202D980245B
:1040000064022D190C0C9BB209046519C918AC4542
:1040100003D30BD1029B8B4208D2009B013ACE1AEC
:10402000B14289414942CF193100ED1B0A9B0093EF
:10403000002B00D1DDE6029B019C591A63465D1BF3
:10404000029B8B429B415B42ED1A2B00C140A34077
:10405000C54019430A9B22C377E70A9B55E7FEE751
:10406000F0B5DE4657464E464546E0B59FB00400E3
:104070000F000192232302AA9446634400221A707F
:10408000483200210CA807F023FA0B9416E10137FF
:104090000BA806F0E4FA11E10094BC78033740F273
:1040A000000C1CE1BC7803372023009340F2020C83
:1040B00015E100262300303B092B00D917E1B100A0
:1040C00089194900091930390E0001377B1E1C7807
:1040D0002300303B092BF2D909E13C782A2C06D188
:1040E000019D08CD99467C780195023705E101379D
:1040F00040F200092300303B092B00D9FDE04B467C
:10410000990049444900091930235B429946894482
:1041100001377B1E1C782300303B092BEFD9ECE0E4
:10412000042362461A4394463C780137E8E0019D37
:1041300002CDC9B20BA806F092FA0195BEE0019B30
:1041400020CB9A46EDB1297801B3002401342B5DD0
:10415000002BFBD14B46002B02DB4C4500D94C46D3
:1041600063469B0714D4A64206D900990BA806F013
:1041700076FA0134A642F8D1297851B95346019311
:104180009CE0233502AB98464544DCE70024E1E798
:1041900089B1AB460BAB00934B4663B140F2010CC7
:1041A000E344009806F05BFA5B46197819B14A4679
:1041B0009B1AAB42F2D1651CA64203D85346019329
:1041C0007CE01D0020210BA806F049FA6B1CAE42D2
:1041D000F7D15346019371E021000BA806F03FFA96
:1041E0006CE00A2000E0102063465B070CD5019BC1
:1041F00004CB0193642C0CD1002A0ADA5242012329
:10420000614619438C4604E0642C0BD0019D04CD1B
:1042100001950723782C09D0DBB29B46002502AB21
:10422000591E0EE0019D04CD0195E5E72723F3E734
:104230006C1C30330B5590420FD84A46202C0BD0C3
:104240002500B2FBF0F94B464343D31ADBB2092BEE
:10425000EED95B44DBB2EBE71F256346DB0703D5F2
:104260002D2302AA1355AC1C63469B070ED4B442FF
:104270000ED2250000990BA806F0F1F90135AE42E7
:10428000F8D102AB013C1C19984604E02500F8E780
:104290002500F6E71C0021780BA806F0E0F9631E64
:1042A000A045F7D16C1CAE4201D807E01C002021CC
:1042B0000BA806F0D4F9631CA642F7D13978F1B304
:1042C000252900D0E3E67C78302C00D1E4E62D2CC3
:1042D00000D1E7E602372023009340F2000C2A2C9D
:1042E00000D0E6E6019D40CD3C78019501372E2CAB
:1042F00000D1F2E601235B4299466C2C00D10FE716
:10430000ECB12300583BDAB2202A00D964E79300CD
:10431000104AD3589F46634608205B0700D475E7D0
:10432000019D04CD0195082073E7634602205B07D9
:1043300000D469E7019D04CD0195022069E70BA82F
:1043400006F006FA1FB03CBC90469946A246AB4622
:10435000F0BDC04618910400F0B5DE4657464E4603
:104360004546E0B589B080462F23C35C1A009B46C2
:104370005F239A43002A00D0FBE003689946DA687D
:104380001388F3B1002601367300D35A002BFAD1FB
:10439000414624310C2205A807F090F85B46DB0764
:1043A00070D52F2340224146CA5447462437353A18
:1043B00005A9380007F082F801240123009645463C
:1043C0000FE00026E4E70139002949D05B005046A0
:1043D0001040C318520860460342F4D06340F2E72D
:1043E0004446072240F20F080AE0013A03A81018D9
:1043F0004170002A00D1E0E00F2B00D8E2E033004A
:1044000040461840010030311E093929EDD90731E5
:10441000EBE7F9540133072B06D80100072AF8D837
:1044200003A9895C0132F4E7280001F07FFCE8B9B8
:104430000134642C4DD04B46DE680B2205A93800B0
:1044400007F03CF82300052CCBD940F2010A80226A
:104450005202944641F22100C0F20100A04604003D
:104460003288002ABCD002361021AFE7009EA84651
:104470000500642C00D185E004287BD12F2342461F
:104480005946D1545B469B0700D4ABE00C3640F252
:104490000D0BB6FBFBFB5B46591C404605F086FE48
:1044A0000500002866D10C2E00D8A2E05B46590119
:1044B00043465B69591A404604F03AF80500002863
:1044C00058D14046243006F050FE0190DA46C346EB
:1044D00022E007254EE021005BE03C0067464FF6F6
:1044E000FF739A4202D04900CB5B1BB94023009A6C
:1044F0001A430092009B237001234A461371002146
:10450000584603F0FCFC002800D095E001235B42F4
:104510009C46E244534653B35B46D969484606F08D
:10452000F5F9002800D085E04B46DF685B461C6A41
:104530005346DBB20093019B63730F23E3720023A6
:104540002373A376E376FF21534619404B1E59008F
:10455000C9188900C9184BF2C053C0F204031D00EA
:104560000D3500224FF6FF70BC46270014E0D846F8
:104570003FE00625280009B03CBC90469946A2467B
:10458000AB46F0BD0725F5E71C783C19FF262670E1
:1045900066700133AB42A0D08242F5D04C1C49007A
:1045A00062468A5A197879180A70160A4E70002ADB
:1045B00000D090E721000200EBE703AB7E211970E9
:1045C00013000DE003AB7E2199542423E95C002302
:1045D000202905D001339A4202D9F95C2029F9D16A
:1045E00020201AE70121404605F0E0FD05000028E3
:1045F000C0D14346D969484606F088F9050000282D
:10460000B8D1202200214346186A06F061FF4146D6
:1046100024310B224346186A06F050FF43461A6ABB
:104620002F234146C95C173B0B40137301234A46B5
:1046300013719FE705009DE705009BE7F0B5D6469F
:104640004F464646C0B592B00600039115000028BB
:1046500000D1EBE03F2717403A0004A903A8FEF77A
:1046600019FC040040B100233360200012B01CBCD0
:1046700090469946A246F0BD049B0593039905A870
:10468000FEF7FAFD002800D0E4E005AA2F23D35C52
:104690007F2B00D9E3E00123390099434B1E994158
:1046A000100004F0B1F81C222A4256D0002800D095
:1046B000ECE005AB9B7911221A4200D0C6E06B07F3
:1046C00009D50824CFE705A8FFF746FE002800D04B
:1046D000BAE008231F433B074DD506F0EFFF050066
:1046E0000D9B019318000E30290006F060FF0D9B12
:1046F000019318001630290006F059FF049B0D9D08
:1047000029000193180006F067FC81462023EB7214
:104710000D9A029200220299019806F089FD0D98E7
:104720001C30002106F043FF049B01221A714A4607
:10473000FAB15D6B0022494605A804F063FF08B199
:10474000040090E72900049806F0E0F84B46013B8E
:10475000049A136168B1040085E7002878D105AB9D
:104760009B79DA066CD4AA0701D5DB076AD42B073C
:1047700001D540231F43049B5B6B73620D9B019328
:10478000B3620123390099434B1E994105A803F0F8
:1047900093F8306100284BD0049B99460D9B9846B6
:1047A0001900484606F018FC0500B06040461C3071
:1047B00006F0FDFD8046F0604B463360DB88B38039
:1047C0003775002373753362B36140F22C0AB2442B
:1047D00040F200220021504606F07AFEBB0600D4CB
:1047E00043E74346002B00D13FE7B3614B465F8967
:1047F0007F02B8453FD8F5614346DB0500D134E779
:10480000049F2900380006F047FD08B9022413E090
:1048100043465A0A1218326278780123514606F04C
:10482000FAF9002800D120E7012405E009241CE75B
:10483000022418E70224F561306905F04FFB12E706
:10484000042410E707240EE704000CE707240AE716
:10485000040008E71C232B4218D1040003E71C23A3
:10486000062406202B4200D0FDE6F6E74346DB1B7C
:1048700098469F42BFD22900300003F066FA050037
:104880000128D7D9431CF1D10124D4E7042811D140
:1048900049F6EC43C2F200031B68002B00D112E77B
:1048A00049F6EC43C2F200031B69002B00D10AE772
:1048B0001224D8E60400D6E610B582B049F6246387
:1048C000C2F200031A790B2A00D911E19300984A29
:1048D000D3589F4643F20003C4F200031B6A1B0235
:1048E00000D405E149F62463C2F2000301221A71E3
:1048F000FEE045F29C71C0F2040145F2AC70C0F2DA
:10490000040000230093012200F035FA30B149F68B
:104910002463C2F2000301221A71E9E049F624631C
:10492000C2F2000302221A7145F2BC70C0F2040008
:1049300006F084FBDCE045F29C70C0F2040001F05C
:10494000E9FD30B149F62463C2F2000302221A7174
:10495000CEE045F2E870C0F2040006F06FFB49F6C5
:104960002463C2F2000303221A71C1E045F29C7174
:10497000C0F2040145F2AC70C0F2040000230093C1
:10498000012200F0F8F930B149F62463C2F20003C5
:1049900003221A71ACE049F62463C2F20003042238
:1049A0001A7145F61400C0F2040006F047FB9FE0C0
:1049B00045F29C70C0F2040003F040FC431C0CD094
:1049C00049F62463C2F2000306221A7145F650002C
:1049D000C0F2040006F032FB8AE049F62463C2F21A
:1049E000000306221A7145F65000C0F2040006F0DA
:1049F00025FB7DE045F68400C0F2040004F0FBF8DE
:104A0000431C0CD045F6C800C0F2040006F016FBAB
:104A100049F62463C2F2000307221A7168E045F6E2
:104A20008C00C0F2040006F009FB49F62463C2F2D0
:104A3000000307221A715BE045F6E400C0F20400AF
:104A4000052101F023FE49F62463C2F20003186039
:104A5000431C06D149F62463C2F200030B221A71EB
:104A600046E049F62463C2F2000308221A7145F6B3
:104A7000F800C0F2040006F0E1FA39E049F654719A
:104A8000C2F2000149F62463C2F2000318680C2246
:104A900004F03EFD431C0CD049F62463C2F200032F
:104AA00009221A7145F62010C0F2040006F0C6FA79
:104AB0001EE049F62464C2F20004206804F0EBFC16
:104AC0000B23237114E049F62464C2F20004206829
:104AD00004F0E1FC0A23237145F63C10C0F2040007
:104AE00006F0ACFA45F65810C0F2040006F0A6FA3B
:104AF00002B010BD43F20003C4F2000348F200020A
:104B00009A61F5E743F20003C4F2000348F20002A1
:104B10005A6145F29C70C0F2040001F0FBFC0028D1
:104B2000E6D049F62463C2F200030B221A71DFE7D4
:104B300000AB040070B549F67043C2F20003586A36
:104B400040F60003C4F200239B7D002B00D199E0C6
:104B500040F60002C4F20022546807210C4049F6D6
:104B60007043C2F2000359699D699E68137E5B071A
:104B700000D49EE040F60003C4F200239A6A49F68E
:104B80007043C2F20003DB688B4200D891E0002C36
:104B900000D078E049F67043C2F200035B685A54D3
:104BA000013140F60003C4F200231B7EDB072AD547
:104BB00040F60003C4F2002301221A7549F670433F
:104BC000C2F200039B68AB4200D897E049F67043FD
:104BD000C2F200031B685A5D40F60003C4F20023D2
:104BE0009A62013549F67043C2F200031B6913B99A
:104BF000B54200D1AFE049F67043C2F20003DB6872
:104C00008B4200D1AEE049F67043C2F20003596115
:104C10009D6140F60003C4F200231B7E9B0725D54F
:104C200049F64863C2F200031B785BB349F6704350
:104C3000C2F20003DB688B421ED149F67043C2F218
:104C400000030021197740F60002C4F20022072475
:104C5000147549F64862C2F2000211701B6A8BB1EA
:104C600049F67043C2F200031B6A984749F648634D
:104C7000C2F200031B782BB140F60003C4F20023FC
:104C800002229A7570BD49F67043C2F200035B6858
:104C90004C00E252013140F60003C4F200231B7EB7
:104CA000DB07B0D540F60003C4F2002301221A75D9
:104CB0000FE040F60003C4F200231B7EDB07A2D501
:104CC00040F60003C4F2002301221A75002C00D123
:104CD00074E749F67043C2F200039B68AB4223D9E4
:104CE00049F67043C2F200031B686A00D25A40F6CC
:104CF0000003C4F200239A62013573E749F670435A
:104D0000C2F200031B69002B00D16BE740F60003E1
:104D1000C4F20023FF229A6249F67043C2F20003F4
:104D20001A69013A1A615DE749F67043C2F200035D
:104D30001B69002B00D155E740F60003C4F20023A5
:104D40004FF6FF729A6249F67043C2F200031A6985
:104D5000013A1A6146E749F64863C2F200030122AC
:104D60001A7050E740F60003C4F2002301229A753E
:104D700003321A7547E770B582B005000E001400C3
:104D8000E8B1E1B1531E032B19D804F06DFEF8B160
:104D900049F64A63C2F2000300221A7049F61C6306
:104DA000C2F200031B78A34200D1DAE049F64A635D
:104DB000C2F2000315221A7001204042EFE049F6CA
:104DC0004A63C2F2000313221A7001204042E6E057
:104DD00049F64A63C2F2000303221A700138DEE08A
:104DE00049F64A63C2F2000301221A7001204042D0
:104DF000D5E049F64A63C2F2000316221A70012078
:104E00004042CCE049F64B63C2F2000300221A7024
:104E100049F6B053C2F200031B78002B66D049F666
:104E20004B63C2F2000301221A7049F64A63C2F2D0
:104E3000000313321A7001204042B0E049F6B0532B
:104E4000C2F2000300229A73A36CE3B1984749F6BB
:104E5000B053C2F200035B681A68DAB149F6B05386
:104E6000C2F20003587B904749F64A63C2F200033E
:104E700018700D281DD049F6B053C2F2000301226C
:104E80009A7348BB1BE049F64A63C2F2000317223B
:104E90001A70DCE749F64A63C2F2000317221A705F
:104EA00049F6B053C2F20003163A9A730120404209
:104EB00012E049F6B053C2F2000301229A7349F698
:104EC000B052C2F200020121117049F61463C2F21D
:104ED000000319705A60002049F64B63C2F20003C8
:104EE00001221A70431E9841404258E049F6B053DF
:104EF000C2F200035C7049F61C62C2F20002546800
:104F00005C6000221A73701D73792F2B0ED06BB169
:104F1000020049F6B051C2F2000101320B7B0133AD
:104F20000B7313782F2B01D0002BF6D149F6B05319
:104F3000C2F200039860009AD0B258739B7B012B99
:104F400000D17BE749F64A63C2F2000307221A70D8
:104F500049F64B63C2F20003063A1A700120404240
:104F60001DE06946280005F0B3FD002800D137E7B1
:104F70006B461B79A34202D0002B00D039E749F6DB
:104F80004B63C2F200031B78012B00D13AE749F6CC
:104F90004A63C2F2000307221A700120404202B0A5
:104FA00070BD70B5050049F67044C2F20004207F60
:104FB000C0B2002800D003E100297AD0002D78D0BB
:104FC00040F60004C4F20024666807243440012C33
:104FD00000D196E049F67040C2F2000005604260E0
:104FE000002444618461046149F67040C2F200000B
:104FF0008160002A00D189E049F67042C2F20002C5
:10500000D36049F67042C2F200020121117740F6E6
:105010000002C4F20022127E520708D540F60002B8
:10502000C4F200220420916A117E0142FBD140F6B5
:105030000002C4F20022518B042001435183117EEF
:1050400080200143117649F67042C2F20002916855
:10505000D2688A4206D949F67042C2F20002D0688C
:10506000401A106140F60002C4F200225268520752
:1050700068D149F67042C2F2000292698A424CD26B
:1050800049F67042C2F200021168087840F6000149
:10509000C4F200218862916901319161002B00D135
:1050A00086E040F60003C4F2002304229A75012032
:1050B00087E0002B00D184E0002A00D181E040F697
:1050C0000004C4F20024666807243440012C13D085
:1050D00049F67040C2F2000005604260002444615D
:1050E00084610461002D00D07EE749F67041C2F270
:1050F0000001002088607CE7002963D1DC07E7D548
:105100005FE0CC075DD4002BE2D0F7E749F67042B0
:10511000C2F200020021D16073E749F67042C2F288
:1051200000021269002AB9D040F60002C4F200223F
:10513000FF21916249F67042C2F200021169013901
:105140001161ABE749F67042C2F20002916849086A
:105150009160116949081161D1684908D16091686D
:1051600092698A420ED249F67042C2F20002116878
:10517000088840F60001C4F200218862916901317B
:1051800091618BE749F67042C2F200021269002A6F
:1051900084D040F60002C4F200224FF6FF71916203
:1051A00049F67042C2F2000211690139116175E7D6
:1051B00040F60003C4F2002301229A75012000E0AA
:1051C000002070BDCC0799D5FBE7F0B5DE46574609
:1051D0004E464546E0B585B00400009115001E001E
:1051E00000233360019003A905F028F882460028C7
:1051F0004AD1637D9A46002B46D1237D9B0700D47C
:10520000DBE0A3695A19934200D9DD43002D00D099
:10521000ACE0237D40221343237535E0E16901981A
:1052200002F0C4F90028F4D0012835D0431C38D04E
:10523000E061A36803B9A060237D7F2B36D8039B70
:105240009B46E169180006F027F8002841D0404449
:10525000070040F2FF139D4256D96B0A99465B4600
:105260005B8942464A449A4202D942469B1A994671
:105270005B4658784B463A00009905F0AFFB68B39F
:105280000123637540F2010A504605B03CBC9046CC
:105290009946A246AB46F0BD0223637540F2020A6E
:1052A000F2E70123637540F2010AEDE721002C319A
:1052B000039B58780123226A05F090FB20B9227DD8
:1052C0007F2313402375BAE70123637540F2010A77
:1052D000DAE70223637540F2020AD5E7236AD91B95
:1052E000494502D34B465F022CE020002C30490296
:1052F000009B9C46614440F2002206F0DFF8227DCC
:105300007F2313402375EDE7236A834203D0A3690B
:10531000E268934242D3276240F2FF10A36918402B
:1053200040F200273F1AAF4200D92F0023002C3350
:1053300018183A00009906F0C1F8227D80235B42DC
:1053400013432375ED1B3368DB193360009B9C46C8
:10535000BC4463460093A369FB18A361E2689A42C8
:1053600000D21A00E260002D00D152E7A369DA05ED
:10537000D2D1039A5289013A590A1140884600292C
:1053800000D059E7002B00D048E7A068002800D0E3
:105390004AE70021019802F009F943E721002C3186
:1053A0005B46587801233A0005F035FC0028B2D05E
:1053B0000123637540F2010A66E740F2070A63E7DA
:1053C00061001A03E0001703F8000703FF00010063
:1053D00078010001300132010601390110014A0152
:1053E0002E017901060180014D00430281018201F5
