:10000000F07F00200D040000650600006706000078
:1000100000000000000000000000000000000000E0
:100020000000000000000000000000006306000067
:1000300000000000000000006306000063060000EE
:10004000630600006306000063060000630600000C
:1000500063060000630600006306000063060000FC
:1000600063060000630600006306000063060000EC
:1000700063060000630600006306000063060000DC
:1000800063060000630600006306000063060000CC
:1000900063060000630600006306000063060000BC
:1000A00063060000630600006306000063060000AC
:1000B000630600006306000063060000630600009C
:1000C000630600006306000063060000630600008C
:1000D000630600006306000063060000630600007C
:1000E000630600006306000063060000630600006C
:1000F000630600006306000063060000630600005C
:10010000630600006306000063060000630600004B
:10011000630600006306000063060000630600003B
:10012000630600006306000063060000630600002B
:10013000630600006306000063060000630600001B
:10014000630600006306000063060000630600000B
:10015000630600006306000063060000F07F0020D5
:100160000D040000650600006706000000000000A6
:10017000000000000000000000000000000000007F
:100180000000000000000000630600000000000006
:100190000000000063060000630600006306000024
:1001A00063060000630600006306000063060000AB
:1001B000630600006306000063060000630600009B
:1001C000630600006306000063060000630600008B
:1001D000630600006306000063060000630600007B
:1001E000630600006306000063060000630600006B
:1001F000630600006306000063060000630600005B
:10020000630600006306000063060000630600004A
:10021000630600006306000063060000630600003A
:10022000630600006306000063060000630600002A
:10023000630600006306000063060000630600001A
:10024000630600006306000063060000630600000A
:1002500063060000630600006306000063060000FA
:1002600063060000630600006306000063060000EA
:1002700063060000630600006306000063060000DA
:1002800063060000630600006306000063060000CA
:1002900063060000630600006306000063060000BA
:1002A00063060000630600006306000063060000AA
:1002B000630600006306000040180100020003000E
:1002C00084468EF300887447F8B5C046F8BC08BC75
:1002D0009E46704785040000F8B5C046F8BC08BCCF
:1002E0009E4670476104000041F20003C4F200031F
:1002F0000220187641F20041C4F2000100220A7483
:1003000041F60001C4F2000108621A8641F20003BE
:10031000C4F200038022520419691142FCD046F253
:100320002003C0F280031B685B009B0E9B0240F21F
:1003300000221343D200C4F20002536341F20003CF
:10034000C4F200038022520419691142FCD041F228
:100350000003C4F2000302221A8641F20003C4F231
:100360000003D20519691142FCD041F60043C4F2E2
:10037000000340F20712C0F201021A6241F6004384
:10038000C4F20003042259680A42FCD141F600433A
:10039000C4F2000340F60712C0F20C025A6241F6A2
:1003A0000043C4F20003082259680A42FCD1704796
:1003B00000230E4A10B513600D4A0E4C13600E4A0E
:1003C00013600E4A13600E4A13600E4A53621361A3
:1003D0000133936000F048F900F046F90A4B9C4263
:1003E00000D310BD08CC9847F8E7C0467000002045
:1003F0000C000020D40200000800002000000020B3
:100400000400002010000020D802000010B540F2C7
:100410006163C0F20003984740F26163C0F20003D9
:10042000984700F0A7F840F20003C0F200037F22D3
:1004300093434EF60052CEF20002936040F2B13385
:10044000C0F20003984740F26163C0F2000398478E
:1004500040F26163C0F20003984700F03EF8FEE707
:1004600010B5054C227832B9044B13B1044800E0B2
:1004700000BF0123237010BD5000002000000000C9
:1004800000000000034B10B51BB10349034800E016
:1004900000BF10BD0000000054000020000000005C
:1004A00040F20043C4F2000300221A819A7901212C
:1004B0000A439A719B7803221340022B0CD040F21E
:1004C0000043C4F20003013A9A705202C4F20002DF
:1004D000012193790B42FCD0704710B582B0802384
:1004E000DB021C68002000F075F8631C0FD084F359
:1004F00088880423C0F204031B680193019C6408EC
:100500006400200021002200230000F01AF8FEE71A
:1005100043F20023C4F2000348F200021A601A6199
:1005200000214F20195418381954DA66D7220131A6
:1005300099541C3A6F3199543132802109049950F1
:100540007047E0B545464E465746E0B45D4620B498
:10055000254626462746A046A146A246A346A446CF
:1005600084F30088A44720BCAB46E0BCBA46B14641
:10057000A846E0BD10B50948016811B9436803B940
:1005800010BD04008368064A9BB20C349B009B5844
:1005900042682000984780002018EDE7A40500007D
:1005A0001C06000050000020200000000000000099
:1005B000000000205000000000000000700000203B
:1005C0000400000000000000000000000000000027
:1005D0006666666610B5FFF763FF45F20003C4F276
:1005E000001304225A60FFF793FFFFF77DFE00F02F
:1005F0001FF800F012F800F02DF810BD002310B520
:10060000934206D103201840421E90419B08C01817
:1006100010BDC45CCC540133F2E7704743060000C0
:10062000FD0500005D0600005D0600005D0600009F
:1006300045F20003C4F2001306225A60053A1A720A
:1006400070478A18914201D10020704700230B7037
:100650000131F7E7BFF35F8F62B670470020704744
:0A0660007047FEE7FEE7FEE7704773
:020000040003F7
:08FE00007FE97FE9C0F758BA61
:020000040004F6
:10000000F8FF0020D90104000304040005040400E3
:1000100000000000000000000000000000000000E0
:1000200000000000000000000000000001040400C7
:100030000000000000000000010404001903040097
:1000400000000000000000000000000000000000B0
:1000500000000000000000000000000000000000A0
:100060000000000000000000000000000000000090
:100070000000000000000000000000000000000080
:100080000000000000000000000000000000000070
:100090000000000000000000000000000000000060
:1000A0000000000000000000000000000000000050
:1000B0000000000000000000000000000000000040
:1000C0000000000000000000000000000000000030
:1000D0000000000000000000000000000000000020
:1000E0000000000000000000000000000000000010
:1000F0000000000000000000000000000000000000
:1001000000000000000000000000000000000000EF
:1001100000000000000000000000000000000000DF
:1001200000000000000000000000000000000000CF
:1001300000000000000000000000000000000000BF
:1001400000000000000000000000000000000000AF
:10015000000000000000000000000000F8B5C046EC
:10016000F8BC08BC9E4670479D020400F8B5C04626
:10017000F8BC08BC9E4670477902040000230E4A72
:1001800010B513600D4A0E4C13600E4A13600E4AF0
:1001900013600E4A13600E4A536213610133936079
:1001A00000F031F900F02FF90A4B9C4200D310BD4A
:1001B00008CC9847F8E7C0467C8000200C800020DF
:1001C00068010400088000200080002004800020D6
:1001D000108000206C01040010B540F2FF33C0F223
:1001E0000403984740F2FF33C0F20403984700F03D
:1001F00063F840F20003C0F204037F2293434EF6FB
:100200000052CEF20002936040F27D13C0F204036C
:10021000984740F2FF33C0F20403984740F2FF339F
:10022000C0F20403984700F0A3F8FEE770B54EF261
:100230001003CEF200035E681B68DB071AD54BF68D
:10024000803358434EF21003CEF200039B6888B10E
:1002500000214EF21005CEF2000506E0741CA41A2F
:10026000E318C9181300884204D9AA689A42F5D83D
:100270009B1AF6E770BD704710B5054C227832B96D
:10028000044B13B1044800E000BF0123237010BDEC
:10029000508000200000000000000000034B10B55B
:1002A0001BB10349034800E000BF10BD000000007F
:1002B000548000200000000010B50948016811B901
:1002C000436803B910BD04008368064A9BB20C342E
:1002D0009B009B5842682000984780002018EDE75B
:1002E000E8020400C8030400508000202C00000035
:1002F000000000000080002050000000000000000E
:100300007C800020040000000000000000000000CD
:10031000000000006666666610B548F26C03C2F223
:10032000000358684EF21002CEF2000212689A687A
:1003300001329A601B682BB148F26C03C2F20003D1
:100340001B68984710BD4EF21003CEF20003002246
:100350001A609A6043F6FF51C0F2490159600621C4
:10036000196048F26C03C2F200039A601A60704789
:1003700070B5002000F03BF800F01BF843F20004D9
:10038000C4F2000448F20005E56140F2E830FFF7EE
:100390004DFFF9E7002310B5934206D10320184022
:1003A000421E90419B08C01810BDC45CCC54013360
:1003B000F2E74EF21003CEF2000300229A601A68B0
:1003C00001210A431A607047DD030400950304000D
:1003D000FB030400FB030400FB0304008A189142A2
:1003E00001D10020704700230B700131F7E710B5F1
:1003F000FFF7A9FFFFF73FFF10BD002070477047D0
:08040000FEE7FEE7FEE770478E
:0200000400807A
:1040000077438FB0BBF0FFFF008430F000FFFFFF6D
:10401000000000000200000000000000000000009E
:04402000B67376E815
:0CC00000FFFF07F00000E8FFCC9A34C0FE
:10C01000FFFFFFFFFFFFFFFFFFFFFFFFFFFFFFFF30
:10C02000FFFFFFFFFFFFFFFFFFFFFFFFFFFFFFFF20
:10C03000FFFFFFFFFFFFFFFFFFFFFFFFFFFFFFFF10
:10C04000FFFFFFFFFFFFFFFFFFFFFFFFFFFFFFFF00
:10C05000FFFFFFFFFFFFFFFFFFFFFFFFFFFFFFFFF0
:10C06000FFFFFFFFFFFFFFFFFFFFFFFFFFFFFFFFE0
:10C07000FFFFFFFFFFFFFFFFFFFFFFFFFFFFFFFFD0
:10C08000FFFFFFFFFFFFFFFFFFFFFFFFFFFFFFFFC0
:10C0E000FFFFFFFFFFFFFFFFFFFFFFFFFFFFFFFF60
:10C0F000FFFFFFFFFFFFFFFFFFFFFFFFFFFFFFFF50
:00000001FF
