:020000040000fa
:10000000f00f00206d19000017130000db1800002e
:1000100000000000000000000000000000000000e0
:100020000000000000000000000000005f11000060
:1000300000000000000000005f110000991e000099
:100040005f1100005f1100005f1100005f110000f0
:100050005f1100005f1100005f1100005f110000e0
:100060005f1100005f1100005f1100005f110000d0
:100070005f1100005f1100005f1100005f110000c0
:100080005f1100005f1100005f1100005f110000b0
:100090005f1100005f1100005f1100005f110000a0
:0400a0005f110000ec
:020000040000fa
:1000a400f8b5c046f8bc08bc9e4670470519000068
:1000b400f8b5c046f8bc08bc9e467047dd18000081
:020000040000fa
:0800c400d00c00000100000057
:020000040000fa
:1000cc000023f0b506001500b1b007910393079912
:1000dc000b78002b00d10ce101235b420c9310ab8d
:1000ec0000240e9380230b940d940f930b5d002b27
:1000fc0001d0252b2ad1002c06d02200300001f093
:10010c0013fd079b1b190793079b1a78252a00d010
:10011c00e4e0013304930793022301219c4610274a
:10012c00079803782b2b1ad025d8202b1ad0232be9
:10013c001dd02a2b28d001f099fc0d90079b1a7822
:10014c00303a092a31d801330793f7e70134cde768
:10015c000b9b05930b4301300b930790e0e70423b3
:10016c000b9a0fe00b9b0593059a08230ae00b9b57
:10017c0005933b43efe72d2bead0302bd9d16246c8
:10018c000b9b05931343e6e72b6801301a1d1b6884
:10019c0007902a600d93002b07da0b9a5b420592ad
:1001ac00012205990d934a400b920b9bda0702d55d
:1001bc00022293430b93079b1a782e2a0ed100220e
:1001cc00581c0c9207905a782a2a27d1023307938d
:1001dc002b681a1d1b682a6005930c9307a801f065
:1001ec0087fd079b0700187802f009f8692800d1f1
:1001fc0082e034dc632800d1dbe01adc252800d156
:10020c00e8e0612858d0049b012207930023524256
:10021c000c920b930d9300930232e5e001f026fc57
:10022c000c90079b1a78303a092ad7d801330793d8
:10023c00f7e7642860d06728e5dc2a00390008a8b5
:10024c0001f0d1fd002800d1afe0079b0ba95a1c8f
:10025c0007921b7808aa300002f00df83de07028d8
:10026c0000d17de016dc6e2800d197e06f28cad152
:10027c002b000022390008a800f0f7fd002800d15f
:10028c0093e0079b08aa01330ba93000079301f0f8
:10029c00f0ff22e0752840d078284fd07328b2d1d7
:1002ac00802f00d081e0079b2a6801330793131d30
:1002bc002b601268002388e02a00390008a801f09e
:1002cc0092fd002800d170e0079b0ba95a1c0792e5
:1002dc001b7808aa300001f0ceff2418039b1c19d0
:1002ec00a34200dc82e04f22414b1a6001235b42a7
:1002fc000393039831b0f0bd2b000122390008a8fc
:10030c0000f0b3fd002850d0079b08aa01330ba9bd
:10031c003000079300f0c4fedfe72b000022390009
:10032c0008a800f0a2fd00283fd0079b08aa0133c3
:10033c000ba93000079301f09cffcee72b000022a5
:10034c00390008a800f091fd00282ed0079b5a1cfc
:10035c0007921b7808aa0ba9300000f0d3fabce76f
:10036c002b000022f02108a800f07ffd00281cd0f3
:10037c00079b099a01330793089b13430cd11d4f1c
:10038c00380001f0a9fe390002000b9b00930d9b75
:10039c00300001f039f8a0e77823dbe7039b390044
:1003ac001a1908a82b0001f0a7f8079b0133079333
:1003bc0094e7802ff9d1079b013307932b681a1d03
:1003cc001b682a6008aa137001230ba9300001f0e6
:1003dc0054ff82e7802fe8d10122079b013307935a
:1003ec000b9b049300930d9b0349d1e703946ee69a
:0c03fc00a40400205c220000622200002b
:020000040000fa
:10040800580400201c000000000000009404002094
:100418000400000000000000980400200400000010
:10042800000000009c050020010000000100000001
:1004380061000000740400200c00000000000000af
:100448009c040020040000000000000008040020b4
:100458005000000000000000ac0400206c00000008
:1004680001000000b8040020b4040020b8040020f3
:100478000000000025000000080000200004000023
:100488000000000000000000000000000000000064
:100498000000000000000000000000000000000054
:1004a8008b22000000000000000000000000000097
:1004b800000000006d1500000000000000000000b2
:1004c8000000000000000000000000000000000024
:1004d800000000200804000000000000780500204b
:1004e80020000000010000000100000003000000df
:1004f80000000000000000000000000000000000f4
:10050800000000008c0400208c040020080000007b
:1005180000000000a0040020080000000000000007
:100528001805002060000000010000000100000024
:1005380003000000000000000000000000000000b0
:100548000000000000000000ed16000000000000a0
:1005580000000000000000004b2200008f22000075
:100568000000000000000000000000000000000083
:100578000000000000000000000000000000000073
:1005880000000000000000000000000098050020a6
:10059800040000000100000001000000a804002081
:1005a8000400000000000000800400200c0000008f
:1005b800000000000000000000000000666666669b
:020000040000fa
:1005c800f0b58db05d4801f0e7fc5d4801f0e4fc52
:1005d8005c4801f0e1fc01f0affd00f02ffa07ab39
:1005e80000225a72584c01f017fb2378612b05d072
:1005f800622b3dd0554801f0cffcf4e7544801f098
:10060800cbfc07ac53490891534801f0c5fc0821bd
:100618002172524d280001f0bffc012161722800af
:1006280001f0bafc4121a172280001f0b5fc422179
:10063800e172280001f0b0fc43212173280001f089
:10064800abfc44216173280001f0a6fc4521a1738d
:10065800280001f0a1fc4621e173280001f09cfc70
:10066800ff2121743e4801f097fc200000f05efc59
:10067800354e394f3ae0364801f08efc41e002ab86
:10068800597a364801f088fc02ab997a07aca17216
:10069800324d280001f080fc02abd97ae1722800c3
:1006a80001f07afc02ab197b2173280001f074fc7d
:1006b80002ab597b6173280001f06efc02ab997b99
:1006c800a173280001f068fc02abd97be173280014
:1006d80001f062fc02ab197c2174280001f05cfc7b
:1006e800200000f023fc1f4801f0a2f902a800f046
:1006f80033fd0028fad03378612bbcd01a4801f0ba
:100708004bfc07ac02ab1b782370039b0193089347
:100718001900380001f040fc02ab197a21720f4829
:1007280001f03afc617a0131c9b26172064b1b785b
:10073800612ba4d1094801f02ffca5e7640b000048
:10074800a40b0000ec0b00009c0500205c0c0000d2
:100758002c0c000044040000440c00004c0c000069
:0c076800540c000088130000700c00000e
:020000040000fa
:10077400f0b5de4657464e464546e0b583b084465e
:1007840091461a00002932d0002830d05d4b5b68b6
:100794000720184001903ed14b46002b00d197e032
:1007a400584b9b7b5b0705d5564b04251c8b9c7bc8
:1007b4002c42fbd1534c238a04252b432382002350
:1007c4009a468a4201d9531a9a46019b002b04d0b7
:1007d4005208490853465b089a464a4d0124ab7bac
:1007e4002342fcd000239846464c04272ae00020ec
:1007f400002a62d04b46002b66d0424b5b68073020
:100804001840019000d172e0002900d075e0d307b0
:1008140005d5002051e0cb0758d4002af7d1634610
:100824005c1ea3415b421940b6e75d006646ad5bc2
:10083400ed05ed0d25830133002a10d10126a57b9a
:100844003542fcd08b4225d001980028edd1654675
:10085400ed5c25830133efe72b4d258322e0a57b57
:100864003d42fcd0258badb29045ebd201980028d7
:1008740006d14e464046355401208346d844e1e72c
:1008840040464600ed05ed0d4846355201208346ad
:10089400d844d7e75546002d09d001980028dbd16c
:1008a400ff25258301256d42ab46da44c4e715498b
:1008b40002228b7b1342fcd0012003b03cbc904647
:1008c4009946a246ab46f0bd0020f6e70020f4e7c7
:1008d4000c4b9b7b00225b0700d565e7094a138a12
:1008e400042423431382002200239a466de76346bf
:1008f400002b00d050e7019952e7cb0700d486e7dc
:0c0904000020dae7001c0042ff010000a8
:020000040000fa
:10091000f0b58fb00d934b680c9006938b680d006b
:100920000793cb6816000393069b0f68002b44dbec
:1009300002239f4310233b400a93079b04930a9b87
:10094000002b07d0726833681343079a02d0130054
:10095000023b049308233b400b935a1e9341049a95
:10096000d31a04933368039a0893736809932b6925
:100970005c1e00231355069b0593012c20dc0a9b6b
:10098000002b51d10b9b002b03d02023039a013c59
:1009900013552b6900975a1e039b121b19190c98ab
:1009a000079b00f037fd0c9b5b68db0503d56b688c
:1009b000984200da18000fb0f0bd01230693b9e7a2
:1009c000089b099a13430bd1059b002b08dc069a60
:1009d000049b9b1a059a9b18002bd0ddbb07ced534
:1009e0000f23089a013c134018005730092b01dcf3
:1009f000303318000d9b413b192b06d820230343ad
:100a0000613b192b01d801f007fc039b1855059b8e
:100a1000013b0593099b1a07089b1b091a43099b75
:100a200008921b090993a8e70cce1343aad0039b95
:100a30000d9a1b19013b1a703023039a023c13557f
:020a4000a0e72d
:020000040000fa
:020a42007047fb
:020000040000fa
:100a440010b588b001aaff201070f0215170002366
:100a54009370d3706a46107051709370d37007aa64
:100a640068391170083951709370d37006aa2a310d
:100a740011700a3951709370d37005aa2c3111701a
:100a84000c3951709370d37004aa1370537093701f
:100a9400d37003aa137053709370d37002aa1370a7
:100aa40053709370d3702d4b802292049a619822d4
:100ab4008021890199508021f03801f0c3f91f2465
:100ac4000e2001f04df9a043c0b28028f8d101aa4c
:100ad4002321603800f08eff6a462721242000f08d
:100ae40089ff07aa0321002000f084ff06aa07213a
:100af400042000f07fff05aa0b21082000f07afff4
:100b040004aa1321102000f075ff03aa1721142052
:100b140000f070ff02aa1b21182000f06bff0921ce
:100b24002a2001f08ff98321292001f08bf901217a
:100b3400282001f087f9094a94234021d15000214b
:100b44000f2001f07ff91f240e2001f009f9a043c2
:100b5400c0b20028f8d108b010bdc046004400411e
:020000040000fa
:100b64000a0a0d2d2d2d2d2d2d2d2d2d2d2d2d2d17
:100b74002d2d2d2d2d2d2d2d2d2d2d2d2d2d2d2da1
:100b84002d2d2d2d2d2d2d2d2d2d2d2d2d2d2d2d91
:100b94002d2d2d2d2d2d2d2d2d2d2d2d2d2d0000db
:100ba4000a0d2020202020202020204d43503235c3
:100bb40036323520436c69636b204170706c696315
:100bc4006174696f6e206f6e205049433332434d18
:100bd40020475620564c20434e616e6f2020202023
:100be40020202020200000000a0d2d2d2d2d2d2d3c
:100bf4002d2d2d2d2d2d2d2d2d2d2d2d2d2d2d2d21
:100c04002d2d2d2d2d2d2d2d2d2d2d2d2d2d2d2d10
:100c14002d2d2d2d2d2d2d2d2d2d2d2d2d2d2d2d00
:100c24002d2d2d2d2d0000000a0d5472616e736d53
:100c34006974204d6573736167653a200000000094
:100c44002530336c64200000253032582000000029
:100c540025303258200a0d000a0d496e76616c6900
:100c6400642063686f696365000000000a0d5265c3
:100c74006365697665204d6573736167653a200025
:020000040000fa
:100c8400354b364a1a821a000123d1680b42fcd034
:100c9400314a136a32490b4002210b431362082381
:100ca400d1680b42fcd02c4b00229a612d4b2e4a6a
:100cb4005a602e4a9a601a0053785bb2002bfbdb11
:100cc400284b2b4a5a601a0053785bb2002bfbdb8b
:100cd400214a938c80218b4393841023d1680b4247
:100ce400fcd0244b1b689b0e3f2b32d09b028022ee
:100cf40092001343184a93621a4b8222d2015a80fb
:100d0400154a1023d1680b42fcd0134b1a4ada62fd
:100d14001a001023d1680b42fcd00f4b06229a8490
:100d24001a004023d1680b42fcd00e4b134a5a6080
:100d34001a0053785bb2002bfbdb0a4b104a5a8033
:100d4400104a5a80104b1f225a61da610f4a1a6204
:100d54007047203bcae7c046000800400602000076
:100d64000000ffcf000c00400106010001fa000062
:100d74000203010024608000dc0501040007010077
:100d84000f400000124000000004004090000100e9
:020000040000fa
:100d9400f0b5060085b00f0015001c008b4265d825
:100da40001d1824262d82100280001f08df9390076
:100db4000090300001f088f9009b21001b1a1a00f2
:100dc4002800039301f074f900900191019bbb4248
:100dd40046d802d1009bb34242d8009b019c039a9f
:100de40001200021f61aa74101f062f9039b002bb0
:100df4002fd0019b009adb0754081c43019b5d081c
:100e0400039b9c46bd422ed801d1b4422bd832005c
:100e14003b00121bab41012692185b410027b61818
:100e24005f4101235b429c446346002bead1801955
:100e34007941039a04000d003000390001f02cf9c7
:100e4400039a06000f0001f033f9241a8d412000a3
:100e540029000a9b002b01d01e605f6005b0f0bd25
:100e640000200021c2e7b6197f41dae70020002103
:020e7400efe7a6
:020000040000fa
:100e760010b588293cd015dc81294dd003dc8029aa
:100e86004ad0002010bd822911d08429f9d11968d1
:100e9600002a26d00a1d1a6000228b5e0360db172b
:100ea600436011e0a02930d010dc9029e9d11968ff
:100eb6000724002a2ed00919a1430a0008321a6015
:100ec6000b684c68036044600120dbe7c02901d051
:100ed600f029d6d11a68111d196013680360002322
:100ee600dee70c1d1c600b689bb203604260ebe7fb
:100ef6001968002a04d00a1d1a600023cb56cde7d4
:100f06000c1d1c600b68dbb2efe71a68111d196037
:100f16001368c3e70731cfe71968002a03d00a1d13
:0e0f26001a600b68bae70c1d1c600b68dde753
:020000040000fa
:100f3400f0b583b004002a4b00221a705a709a70dc
:100f4400da70284e8027bf047761a02001f0d4f81e
:100f54006b46dd1d280001f071f9b7612b78224a38
:100f640013705a0716d5da0627d500205b0622d45b
:100f74001b4d21782a00606800f088fe23000933a5
:100f8400227a2900442000f0cbfc842001f06cf884
:100f9400012010e0124d21782a00606800f076feee
:100fa40023000933227a2900402000f0b9fc812073
:100fb40001f05af8012003b0f0bd094d21782a0050
:100fc400606800f063fe23000933227a290042207e
:100fd40000f0a6fc822001f047f80120ebe7c046b0
:0c0fe40098040020004400419404002008
:020000040000fa
:100ff0000a0d0a0d53656c65637420746865206181
:1010000070706c69636174696f6e00000a0d61290c
:1010100020546f20696e6974696174652074686515
:101020002043414e204d65737361676520547261a2
:101030006e736d697420616e6420776169742066d7
:101040006f722074686520726573706f6e736500cf
:101050000a0d622920546f207761697420666f72cf
:10106000207468652043414e204d65737361676548
:10107000205265636569766520616e6420547261f3
:101080006e736d69742074686520726573706f6e1d
:10109000736500000a0d456e74657220796f757274
:0c10a0002063686f6963650d0000c046a6
:020000040000fa
:1010ac00f0b54b6889b005930b6807009c46079315
:1010bc00cb680c008e68049310685168cd0f44d037
:1010cc000b000200002150429941059b002b08dbcc
:1010dc000222634693430793002d02d1079b5a07c4
:1010ec002ad5731e07aa02920a22009301920b00c2
:1010fc000200200000f0c5f9002d02d1079b5a0711
:10110c001ed501382d23002d00d1023b049a135417
:10111c0023695a1e049b121a1918079b3800009356
:10112c00330000f071f97b68db0503d563689842e6
:10113c0000da180009b0f0bd1b07db0ff31ad1e77a
:10114c001b07e5d501382023e0e7059b002bbfda10
:02115c00c4e7e6
:020000040000fa
:02115e00fee7aa
:020000040000fa
:10116000f0b587b00400274e8027bf047761b02018
:1011700000f0c4ff6b46dd1d280001f061f8b76187
:101180002d783f23280098432fd06b0607d4802862
:101190000ad102aa0d21143000f026fd04e002aab3
:1011a0000d21902000f020fd18231d40102d1ed091
:1011b0000123237002a90a78d2004b785b099b189f
:1011c000636002ab1a7922725a7962729a79a272ba
:1011d000da79e2721a7a22735a7a62739a7aa2736d
:1011e000da7ae2731b7b2374012007b0f0bd163b53
:1011f000237002a843780278c178807800f01cff41
:081200006060dee700440041dc
:020000040000fa
:10120800002934d00123002210b488422cd30124b1
:101218002407a14204d2814202d209011b01f8e746
:10122800e400a14204d2814202d249005b00f8e7ff
:10123800884201d3401a1a434c08a04202d3001b2b
:101248005c0822438c08a04202d3001b9c0822435e
:10125800cc08a04202d3001bdc082243002803d09c
:101268001b0901d00909e3e7101c10bc704701b540
:10127800002001f009f802bd0029f8d003b5fff7f6
:0c128800c1ff0ebc4243891a1847c04643
:020000040000fa
:10129400f0b51600050002278369426987b00293fe
:1012a400d31a03939b1904910596019302ac3a0057
:1012b4002100286800f02afe019b984208d1ab68ff
:1012c400ea68ab619a18aa626b61300007b0f0bd9e
:1012d40000280cda102200236968ab620a43ab6170
:1012e4006b616a60022f12d06368f61aede7019b06
:1012f4001b1a01936368984202d9c01a0834013f4b
:1013040023681b1823606368181a6060cfe71e0007
:02131400dbe715
:020000040000fa
:02131600fee7f0
:020000040000fa
:101318001e4bf0b51c68231e0dd0002221001500bd
:1013280013000f68bc460f6984450bd1002a06d00c
:1013380017610b0010331800f0bd3900f1e7134bab
:101348001f60f6e7844504d9002b1ad01e68b445ff
:1013580017d30a00002ff0d1002becd01f001a6819
:101368001969121a1037102a05d91860381801613e
:101378000100103a02609c4206d1044b19603b0000
:10138800d9e715000b00e4e72961f8e7a804002075
:020000040000fa
:10139800f8b5846a05000f001600002c0ad0ab6a65
:1013a8006a699b1ab3420cd2320039002800fff751
:1013b8006dff05e000f049fe03002000002beed091
:1013c800f8bd002ef0d02b0034331b785bb2002b15
:1013d8001adb3400dbb2621eb95c994212d12200da
:1013e80039002800fff752ffa042e9d33f19341b08
:1013f80022003900686900f0b3fe6b6930001c19df
:0c1408006c61dde7141ee6d13400f1e752
:020000040000fa
:10141400f0b51d00012389b014000e9a06001a408d
:101424000391029201d1a5420ad822000399300007
:1014340000f07efba54203d82500280009b0f0bdca
:101444002f1b01973a00102f00d91022202104a845
:1014540000f0a6fe019b0f2b0ed80f2204a93a40e0
:10146400300000f065fb029b002be6d122000399bb
:10147400300000f05dfbe0e7102204a9300000f02a
:0a14840057fb019b103b0193e4e7c6
:020000040000fa
:10148e00f7b5040019000a9fe368666800933b688d
:10149e00100001932369013b1c00002e00da012687
:1014ae000022009dea5435000123002c03dc002ba2
:1014be001cd02000febd02000a4309d1002d07dc1e
:1014ce00089a921b5219002af1dd019a9207eed565
:1014de00099b099adb1700f0e8fa8c460099013c4b
:1014ee00130030320a55013d6146dee710233a689b
:0614fe009a433a60dde7ad
:020000040000fa
:1015040010b584291fd007dc812915d0822922d067
:10151400802911d0002010bd90291cd008dc882916
:10152400f8d119680c1d1c600b6803601a7010e078
:10153400a02901d0c029edd119680c1d1c600b68cd
:1015440003601a6005e019680c1d1c600b680360d9
:101554001a800120dfe719680c1d1c600b6803600a
:081564001a60d2175a60f4e787
:020000040000fa
:10156c007fb51600c2680d0013000091591e8b4107
:10157c00f31a0193836804000392694602220068ff
:10158c00029300f0abfc002808dc18220823024070
:10159c005340626813436360060010e0019b834272
:1015ac00fad2a268c01ae3681018e2632064002b18
:1015bc0005d0531ce3631378ad19013d2b7030003b
:0415cc0004b070bd3a
:020000040000fa
:1015d00037b5164d04002b68002b0fd000f0f0fc3f
:1015e000019001a800f0a0fd0f230f30984301994e
:1015f00000f014fd00280cd000232b60002c00d13b
:1016000001340f230f349c4304d10c222000084bdb
:101610001a603ebd042c00d204242000fff77cfe9b
:101620000028f6d0031f1c60f3e7c0469805002091
:04163000a4040020ee
:020000040000fa
:1016340010b5154b802292041a601a6101214c22c4
:10164400995401329954002259201a5423382224df
:101654001c5406301a5444308124a4011c504030d8
:1016640019540230195401301954c5315a540731f0
:101674005a541d39c038585401313030585402314d
:0c1684005a5403315a5410bd0044004178
:020000040000fa
:1016900000230e4a10b513600d4a13600d4a136003
:1016a0000d4a13600d4a13600d4a536213610133f2
:1016b000936000f09bfd00f042fd0a4c0a4b9c42f7
:1016c00000d310bd08cc9847f8e7c046a00400201e
:1016d0001404002010040020080400200c04002042
:0c16e00018040020b0000000b40000005e
:020000040000fa
:1016ec0070b504000d00002801d1002070bd4368c6
:1016fc009b0607d543698269934215d80023a362e0
:10170c00a3616361e16b236c994204d2c91a012273
:10171c00206800f0b9fd00232364e3639d42e4d00c
:10172c00206800f0a1fde1e70022c36a1100984790
:0c173c006369002be2d101204042d7e796
:020000040000fa
:10174800f8b505000c000020002d20d000f08cfb1f
:10175800002c17d000200e4a0421072605e0178b1d
:101768004300ef52013084420dd0937b0b42fcd0f2
:10177800138a334207d153683340012befd0138bc0
:101788002b54efe72000201a44426041c0b2f8bd54
:0417980000100042fb
:020000040000fa
:10179c0010b5104b06225a600f4b1b6818680021bd
:1017ac0000f004fd0d4b1b681868002100f0fefcd6
:1017bc00fff73afffff760fa00f098f900f02efd02
:1017cc0000f0b4fb00f0e0fafff735f900f03cfd57
:1017dc0010bdc04600400041b0040020940500201c
:020000040000fa
:1017ec0070b5040016001d00022a1cd043689b062d
:1017fc0019d4002908d1002d01d18025ed00280035
:10180c000830fff7dffe010020236268a16013435c
:10181c0063602300e5603433ff22012e00d10a22dd
:10182c001a70024be362002070bdc0469913000091
:020000040000fa
:10183c0070b5104c05002368002b0cd0002d12da6b
:10184c000d4b22681b68d31a6a42934208db20684e
:10185c004519256006e000f065fa2368002bedd1f0
:10186c000120404270bd054b22681b689b1aab429d
:10187c00eddaf5e7800400208804002084040020c1
:020000040000fa
:10188c0037b56b46dd1d836a04002970002b0cd024
:10189c006369a26a93420fd3e36a012229002000f4
:1018ac009847012805d1287805e000f0ccfb0028ea
:1018bc00eed0012040423ebd22003432127828780e
:0e18cc0052b29042e8d05a1c62611870f3e7e5
:020000040000fa
:0218da00fee727
:020000040000fa
:1018dc0010b5064c2378002b07d1054b002b02d0fa
:1018ec00044800e000bf0123237010bd5804002001
:1018fc000000000000000000044b10b5002b03d0ca
:10190c000349044800e000bf10bdc04600000000c1
:08191c005c0400200000000043
:020000040000fa
:10192400f8b50e0017001d000e4b802292045a6178
:1019340000f0e2fb34000436207800f0ddfb0134d3
:10194400b442f9d1380000f0d7fb2c0008352078d8
:1019540000f0d2fb0134a542f9d1024b802292045b
:081964009a61f8bd0044004146
:020000040000fa
:10196c0010b50a4b98470a4b984700f06ff9094b92
:10197c00ff229343084a9360084b9847084b9847bb
:10198c00084b984700f034fcfee7c046471e0000a9
:10199c00471e00000000000000ed00e09116000062
:0819ac00471e0000471e000069
:020000040000fa
:1019b40070b5002818d0002918d000250c4a01243d
:1019c400072605e06b00c35a13830135a94209d0e9
:1019d400937b2342fcd053683340012bf2d0435d08
:1019e4001383f2e7012070bd0020fce70120fae731
:0419f400001000429d
:020000040000fa
:1019f80070b505000e0014000c4b802292045a6149
:101a0800022000f077fb280000f074fb00e01d00c6
:101a1800207800f06ffb6b1cdbb20134b542f6d1c5
:101a2800024b802292049a6170bdc0460044004176
:020000040000fa
:101a380070b50d4b5e681b68db0714d50b4b58431c
:101a4800094b9b6800280ed00021074d06e0741c46
:101a5800a41ae318c9181300884204d9aa689a423c
:101a6800f5d89b1af6e770bd10e000e080bb0000d7
:020000040000fa
:101a7800030010b51a78202a0dd01100093904295d
:101a880009d900212b2a02d02d2a01d10131013395
:101a980000200a2404e00133ece760430133801a94
:101aa8001a78303a092af8d9002900d1404210bde5
:020000040000fa
:101ab800002b11d1002a0fd1002900d1002802d013
:101ac8000021c943081c07b4024802a1401802902b
:101ad80003bdc046b507000003b4684601b50298c7
:101ae800fff754f9019b9e4602b00cbc7047c046f4
:020000040000fa
:101af8000b4b0c4a1a600c4a5a81c02292025a6057
:101b08001a00138a1bb2002bfbdb054a136802215b
:101b18000b431360138a1bb2002bfbdb7047c046d4
:0c1b280000100042040110402bf6ffffeb
:020000040000fa
:101b3400436870b50400d80512d52569954200d9cb
:101b44001500002d0bd02a00606900f00bfb226900
:101b540063695b19551b0022636125611a7070bdae
:0c1b6400db06fcd4200000f011fbf8e7c9
:020000040000fa
:101b70000b00496810b50200890603d4190000f073
:101b8000a2f810bd190034310978c0b249b28142bf
:101b900007d059699c6aa14203d24c1c5c610a704f
:0c1ba000efe711001800fff771feeae704
:020000040000fa
:101bac001c2101231b04984201d3000c10391b0a81
:101bbc00984201d3000a08391b09984201d3000945
:101bcc00043902a2105c40187047c046040302029c
:0c1bdc00010101010000000000000000f9
:020000040000fa
:101be80070b50e0015000b4b802292045a6100f06c
:101bf80081fa002e08d00024280000f01dfb0135d2
:101c08000134e4b2a642f7d1024b802292049a61d1
:081c180070bdc046004400410c
:020000040000fa
:101c200010b5084800f0bcf9074800f0b9f90748ba
:101c300000f0b6f9064800f043f901210548fff726
:101c400083fd10bdf00f00000c10000050100000cc
:081c5000941000009c05002027
:020000040000fa
:101c580010b50b480168002905d14368002b02d153
:101c680000f0d7f910bd04008368064a9bb20c3413
:101c78009b009b5842682000984780002018e9e79d
:081c88000804000054210000d3
:020000040000fa
:101c900010b5022907d000239370d3704001507013
:101ca000000a107010bdd070030a9370000c03235b
:101cb0000340c0001d3104008c432343083353709c
:061cc000000a1070eee7bf
:020000040000fa
:101cc60013b50b006a46d41d5a68c1b22170d205fd
:101cd60005d55a69c0b2541c5c61117016bd01224b
:101ce6002100180000f051fa002801d02078f5e70d
:061cf60001204042f2e76c
:020000040000fa
:101cfc00f0b5050000200a4a4400a65c002e02d173
:101d0c0012195078f0bd296801300f78c0b2b74273
:101d1c0003d112190131507829600a28ebd9f1e767
:041d2c001221000080
:020000040000fa
:101d3000074b1a68002a01d1064a1a60064a116840
:101d4000002901d1054911601a68054b1a607047d6
:101d500088040020a005002084040020a0070020a3
:041d600080040020db
:020000040000fa
:101d640070b582b00400094d8026b6046e6103206c
:101d740000f0c2f9200000f0bff96b46dc1d200022
:101d840000f05cfaae61207802b070bd00440041fe
:020000040000fa
:101d9400094b802292025a601a00138a1bb2002b4c
:101da400fbdb054b17229a72044a1a601a00138a45
:101db4001bb2002bfbdb7047001c00420e0020000e
:020000040000fa
:101dc40070b5140016000a004e430d00511e8a41de
:101dd4005242144001003200180000f0d7f9864244
:0e1de40003d02900fff70efa0400200070bda6
:020000040000fa
:101df200002380290fdb812901dd83290bd10721f3
:101e0200136807338b431900083111601a685b6845
:0a1e120002604360012318007047ce
:020000040000fa
:101e1c00020000234832d356591e0b43137004237f
:101e2c004268134005d01023134343600120404205
:0a1e3c0070470364c3631800fae75f
:020000040000fa
:021e46007047e3
:020000040000fa
:101e4800f8b507000e00074c8025ad046561022037
:101e580000f050f9380000f04df9300000f04af970
:081e6800a561f8bd0044004132
:020000040000fa
:101e7000084b1b8a5b070bd0064b07221a829b7b01
:101e80005b0705d5034b04211a8b9a7b0a42fbd1d1
:081e90007047c046001000423b
:020000040000fa
:101e980010b5074b5868074a12689a6801329a6069
:101ea8001b68002b02d0024b1b68984710bdc04628
:081eb8007404002010e000e0ba
:020000040000fa
:101ec00010b5084c2368196800f059f80123002860
:101ed00005db23680a20196800f0c4f9c30f5842d3
:081ee00010bdc046940500206e
:020000040000fa
:101ee800f7b5002507000c002e000192019b9e42c9
:101ef80001db2800febd62682168380000f02af87e
:081f080001362d180834f1e741
:020000040000fa
:101f1000f7b5002507000c002e000192019b9e42a0
:101f200001db2800febd62682168380000f067f818
:081f300001362d180834f1e719
:020000040000fa
:101f3800054a00231360936004495160062111602b
:101f4800034a93601360704710e000e0ff3d4900ca
:041f580074040020ed
:020000040000fa
:101f5c0010b50c000023002809d10300002a06d07c
:101f6c0001212000fff7eafb0028f9d0012318001b
:021f7c0010bd96
:020000040000fa
:101f7e0070b50e00050000f0aef83300040002004c
:101f8e0001212800fff717ff001b431e9841404216
:021f9e0070bd14
:020000040000fa
:101fa0000fb407b5054b04aa1b6802ca1868019252
:101fb00000f068f803b008bc04b01847940500208e
:020000040000fa
:101fc00010b5054c2368002b01d1fff7b1fe034b80
:101fd00018682368c01a10bd800400208404002003
:020000040000fa
:101fe000002310b5934206d103201840421e9041b1
:0e1ff0009b08c01810bdc45ccc540133f2e74e
:020000040000fa
:101ffe0070b50d001400012801d0200070bd210025
:0c200e002800fff7d0fc0028f9d0f6e70e
:020000040000fa
:02201a0070470d
:020000040000fa
:10201c000023054a10b514689c4203d1106003617b
:0c202c0001600133180010bda804002062
:020000040000fa
:1020380030b5d5005a095219920003241c40a4183f
:0a204800240200190002081830bd40
:020000040000fa
:1020520010b50400fff7e1fe002805d1a368e2688d
:0a206200a36163619b18a36210bd27
:020000040000fa
:10206c0070b5044c8025ad04656100f041f8a561a4
:08207c0070bdc04600440041a4
:020000040000fa
:1020840013b50400019201aafef71ef86368db068b
:0820940001d50120404216bdf8
:020000040000fa
:10209c00d0400b1cd1409c46203ad34018435242ae
:0820ac0063469340184370479e
:020000040000fa
:1020b4009140031c90409c46203a9340194352425d
:0820c4006346d3401943704745
:020000040000fa
:1020cc0010b5002903d1fff76bfd203002e0081c8e
:0820dc00fff766fd10bdc046d0
:020000040000fa
:1020e4000378002b06d0030001331a78002afbd1b1
:0820f400181a70470020fce7f8
:020000040000fa
:1020fc0000b583b06b46d87107330121180000f08e
:06210c0093f803b000bdd2
:020000040000fa
:1021120068076c094c836a9074a07ac00080688852
:0621220000846c820081c4
:020000040000fa
:10212800006810b5002801da002010bdfff782fb17
:06213800431cfad1f8e798
:020000040000fa
:02213e007047e8
:020000040000fa
:10214000034b00229a601a6801210a431a60704703
:0421500010e000e0bb
:020000040000fa
:10215400cb210000e11f00007b2200007b22000055
:042164007b220000da
:020000040000fa
:1021680010b5002a05d00023cc5cc4540133934237
:04217800fad110bdcb
:020000040000fa
:10217c0010b500f075f8024b1860586010bdc046e1
:04218c008c0400209f
:020000040000fa
:10219000c36a10b5002b01d0984710bd0068fff747
:0421a0002efffae72d
:020000040000fa
:1021a400002a06d00300c9b2821819700133934281
:0421b400fbd17047a4
:020000040000fa
:1021b8004a424a41802310b55200db00fff712fb68
:0221c80010bd48
:020000040000fa
:1021ca008a18914201d10020704700230b70013117
:0221da00f7e725
:020000040000fa
:1021dc0010b502000b0000210020fef7c5fa10bd5f
:020000040000fa
:1021ec0010b5fff7c5ff00f018f800f016f810bd99
:020000040000fa
:0e21fc0010b50020fff7ccfafef7e0f9fce783
:020000040000fa
:0e220a000300413b192b01d8202318437047d5
:020000040000fa
:0e2218000300613b192b01d85f23184070476b
:020000040000fa
:022226007047ff
:020000040000fa
:0c222800014b8a225a60704700400041c0
:020000040000fa
:0c22340010b500230022fef79bfa10bd3d
:020000040000fa
:0a22400010b50121fff7caff10bd21
:020000040000fa
:0a224a0010b50068fff7d6fe10bdc6
:020000040000fa
:08225400bff35f8f62b6704713
:020000040000fa
:08225c00286e696c29002500c1
:020000040000fa
:0822640010b5fff783fc10bd6b
:020000040000fa
:08226c0000487047180500202e
:020000040000fa
:062274000120404270470a
:020000040000fa
:04227a000020704789
:020000040000fa
:04227e000020704785
:020000040000fa
:042282000020704781
:020000040000fa
:04228600002070477d
:020000040000fa
:04228a000020704779
:020000040000fa
:02228e00704797
:020000040000fa
:042290007047c0468d
:020000040000fa
:04229400002070476f
:020000040000fa
:0200000400807a
:0440000077c700d8a6
:020000040000fa
:0200000400807a
:044004005c01ffff5d
:00000001FF
