:020000040000fa
:10000000f0ff0020dd0d0000db0d00003b140000c0
:1000100000000000000000000000000000000000e0
:10002000000000000000000000000000b319000004
:100030000000000000000000b3190000b319000028
:10004000b3190000b3190000cd1c00000516000014
:10005000b3190000b3190000b319000045130000e4
:10006000b3190000b3190000b3190000b319000060
:100070008907000025180000b3190000b31900001b
:10008000b3190000b3190000b3190000b319000040
:10009000b3190000b3190000b3190000b319000030
:1000a000b3190000b3190000b3190000b319000020
:1000b000b3190000b3190000b3190000b319000010
:020000040000fa
:1000c000f8b5c046f8bc08bc9e467047dd19000074
:1000d000f8b5c046f8bc08bc9e467047b51900008c
:020000040000fa
:0800e000180c000001000000f3
:020000040000fa
:1000e800f0b5de46574680b59db06422002103a8ce
:1000f80001f036ff002001f07bfd0021b54801f03a
:1001080081ff0022b449002001f048ff0021b348d4
:1001180001f07eff0021b24801f06eff0022b149d4
:10012800032001f03ffeb04c3922b049200001f015
:100138000dffaf4b00221a70200001f08dfe030066
:10014800ac4a2100002000f0abfe01f04ffe012177
:10015800a94801f073fca94ea94daa4ca8e0a84be8
:100168001b78002b03d0a84b1b78002b2cd1a74b56
:100178001b78002b23d0a54b00221a70a44b1b78a8
:10018800002b48d0012b4ed0022b54d0032b5ad031
:10019800002001f0b3fe9e4b1b789a00d218920003
:1001a8009c4b9a189c4903a801f092fe03a801f001
:1001b80053fe03008f4a03a9002000f071fe0121bd
:1001c8008d4801f03bfc73e000278d4b1f708e4b70
:1001d8001f708222d2058e235b002021d150844bd0
:1001e8009a4618788a4b1b789a00d2189200894b45
:1001f8009a187d4b9b465844884901f069fe53463e
:100208001f70584601f028fe03007a4a594600201c
:1002180000f046feabe77e4b01321a708020c0002a
:1002280001f076feb4e77a4b02221a7080200001b2
:1002380001f06efeace7764b03221a708020400175
:1002480001f066fea4e7724b00221a70802080003d
:1002580001f05efe9ce76a4b00221a7002230093ad
:100268006f4b01326f494f2001f0a6fc2be0674b22
:1002780000221a70002001f041fe654b1b78002b0c
:100288005ad0012b6dd0022b7ed0032b00d18ee0eb
:1002980001f0acfd544f380001f0defd0300554a73
:1002a8003900002000f0fcfd0121534801f0c6fb95
:1002b8003378002b04d15c4b1b78002b00d14ee720
:1002c8002b78002bc7d12378002bedd0564b1b7809
:1002d800002be9d04b4b00221a704c4b1b78002b9b
:1002e800c5d14f4a13781b025078184300b2c01189
:1002f80001f08afd00224d4b00f03cfb3c4b9a4636
:100308001f78ffb201f0aafc00b2c300181805213b
:1003180000f03aff02002032d2b23348c0194449f3
:1003280001f0d6fd0023524613708222d2051d33f8
:10033800ff332021d150ade7354b01221a702a49ed
:100348003c4b0a0083cb83c283cb83c283cb83c25b
:10035800198811809b7893708020c00001f0d8fd27
:1003680096e72b4b02221a701f49334b0a0083cba6
:1003780083c283cb83c283cb83c21b681360802074
:10038800000101f0c5fd83e7214b03221a701649cd
:100398002a4b0a0083cb83c283cb83c283cb83c21d
:1003a8001b6813608020400101f0b2fd70e7184b14
:1003b80000221a700c49224b0a0083cb83c283cbdc
:1003c80083c283cb83c21b7813708020800001f026
:1003d8009ffd5de7491e00002d1f0000891a0000df
:1003e800d51f000025200000c0000020d00a000012
:1003f8003f02002028140042340200203d02002061
:100408003a0200203b020020400200203502002072
:100418003e02002078180000280b00000c0b00009a
:1004280038020020370200203c0200200000e03f94
:10043800500b0000680b0000900b0000b80b000088
:04044800e00b0000c5
:020000040000fa
:10044c000023f0b506001500b1b00791039307998e
:10045c000b78002b00d10ce101235b420c9310ab09
:10046c0000240e9380230b940d940f930b5d002ba3
:10047c0001d0252b2ad1002c06d02200300001f00f
:10048c0065fc079b1b190793079b1a78252a00d03c
:10049c00e4e0013304930793022301219c461027c7
:1004ac00079803782b2b1ad025d8202b1ad0232b66
:1004bc001dd02a2b28d001f001fb0d90079b1a7838
:1004cc00303a092a31d801330793f7e70134cde7e5
:1004dc000b9b05930b4301300b930790e0e7042330
:1004ec000b9a0fe00b9b0593059a08230ae00b9bd4
:1004fc0005933b43efe72d2bead0302bd9d1624645
:10050c000b9b05931343e6e72b6801301a1d1b6800
:10051c0007902a600d93002b07da0b9a5b42059229
:10052c00012205990d934a400b920b9bda0702d5d9
:10053c00022293430b93079b1a782e2a0ed100228a
:10054c00581c0c9207905a782a2a27d10233079309
:10055c002b681a1d1b682a6005930c9307a801f0e1
:10056c0095fb079b0700187801f036fd692800d130
:10057c0082e034dc632800d1dbe01adc252800d1d2
:10058c00e8e0612858d0049b0122079300235242d3
:10059c000c920b930d9300930232e5e001f08efa6e
:1005ac000c90079b1a78303a092ad7d80133079355
:1005bc00f7e7642860d06728e5dc2a00390008a832
:1005cc0001f0d9fb002800d1afe0079b0ba95a1c06
:1005dc0007921b7808aa300001f030fd3de070282e
:1005ec0000d17de016dc6e2800d197e06f28cad1cf
:1005fc002b000022390008a800f0b4fc002800d120
:10060c0093e0079b08aa01330ba93000079301f074
:10061c0013fd22e0752840d078284fd07328b2d132
:10062c00802f00d081e0079b2a6801330793131dac
:10063c002b601268002388e02a00390008a801f01a
:10064c009afb002800d170e0079b0ba95a1c07925b
:10065c001b7808aa300001f0f1fc2418039b1c192c
:10066c00a34200dc82e04f22414b1a6001235b4223
:10067c000393039831b0f0bd2b000122390008a878
:10068c0000f070fc002850d0079b08aa01330ba97e
:10069c003000079300f0c5fcdfe72b000022390087
:1006ac0008a800f05ffc00283fd0079b08aa013384
:1006bc000ba93000079301f0bffccee72b00002202
:1006cc00390008a800f04efc00282ed0079b5a1cbd
:1006dc0007921b7808aa0ba9300001f0affcbce70d
:1006ec002b000022f02108a800f03cfc00281cd0b4
:1006fc00079b099a01330793089b13430cd11d4f99
:10070c00380001f0a7fb390002000b9b00930d9bf6
:10071c00300000f04ffea0e77823dbe7039b3900a5
:10072c001a1908a82b0000f033ff079b013307931d
:10073c0094e7802ff9d1079b013307932b681a1d7f
:10074c001b682a6008aa137001230ba9300001f062
:10075c00b5f882e7802fe8d10122079b013307937c
:10076c000b9b049300930d9b0349d1e703946ee616
:0c077c0030020020302000003620000079
:020000040000fa
:1007880070b56c4b9b7d002b19d06b4b9c6a694be9
:100798005b8b9b0714d5684b2022ff2199540132ab
:1007a800fd399954644a2023d35c5bb2013300d1ec
:1007b8008de0614a2023d35c062b00d1a0e070bdf8
:1007c8005c4b5b8bdb0707d55b4b2022ff219954e1
:1007d8000132fd399954e5e7564b5b8b5b0707d52a
:1007e800554b2022ff2199540132fe399954d9e7fb
:1007f800514a2023d35c5bb2032b47d0042b11d082
:10080800022bcfd11369002b05d0908880b200212c
:1008180000f0daffc6e7484b988880b2012100f063
:10082800d3ffbfe7444a936912699a420dd0424afe
:100838009268d05c3f4928228854591c3d4ad369a4
:10084800002bfcd13c4b9961ace73b4b5b69002b1f
:100858000ed0394b9b885b0001221343354a536203
:10086800d369002bfcd1344a20330321d15499e7b2
:10087800304a5168c0239b020b435360d369002b55
:10088800fcd12d4a20330621d1548be72a4bd96954
:100898005b69013b8b420cd0264ad369002bfcd103
:1008a800254bda68234d2820285c50540131d96142
:1008b80078e7204a5068e023db0203435360d3699a
:1008c800002bfcd11c4a20330620d054e4e7202317
:1008d8000021d154174a5168c0239b020b4353602f
:1008e800d369002bfcd1134b83221a76124b5b6a17
:1008f800002b00d163e7104b5b6a200098475ee746
:100908001300002220215a5401315a54094b8332d2
:100918001a761900533a4b8b1340102bfbd1064b18
:100928005b6a002b00d14ae7034b5b6a20009847bb
:0c09380045e7c04600100042a40100206a
:020000040000fa
:1009440008d1002806d1f54204d801d3002a01d1e8
:100954006d0d09d10020c143090dc904f0bdf9d1c1
:100964001242f7d1640df5d00020c143490549086e
:10097400a6e000206146f0bdf0b50127ff070e0098
:100984005e403e40b446be0a4c18dd18f442d7d24d
:10099400f542e4d2640decd06d0dead06419c902bd
:1009a4003943460dc0023143db023b43db0a10b43a
:1009b4008e4685b297b26f43140c6c433e0ca41957
:1009c400260c2404bfb227439cb26c43a419190c0f
:1009d4006943250ca4b249190d04090c6419000ccf
:1009e40095b245433e0c76193743bfb2360c150c0d
:1009f4004543ad19a6b2240cad192e0437432e0c71
:100a040036199db24543ad19acb22e0c89191d0c93
:100a140045436d182e04290c3443704680b295b2b8
:100a240045433e0c76193743bfb2360c150c45438b
:100a3400ad19a6b2ad19240c2e0437432e0c361969
:100a44009db24543ad19acb22e0c89191d0c45431a
:100a54006d182e043443290c75462d0c90b268434e
:100a64003e0c80190604bfb23e43070ca0b23f18e7
:100a7400120c6a43d019020c80b2240ca4189ab246
:100a84006a43121914042043120c89181b0c6b437b
:100a9400c91810bc01273d05294203d1b6194041ac
:100aa4004941013cff077d0d013d641b0bdb6d00db
:100ab400ac4209da240500254208be41684161417f
:0a0ac40066463143f0bd54e74ee7eb
:020000040000fa
:020ace0070476f
:020000040000fa
:100ad0002a2a2a2a2a2a2a2a2a2a2a2a2a20507212
:100ae000696e74696e6720546f67676c696e672002
:100af0004c45442072617465202a2a2a2a2a2a2a0f
:100b00002a2a2a2a2a2a0d0a00000000546f676741
:100b10006c696e67204c45442061742025732072f7
:100b2000617465200d0a00004c454420546f6767ce
:100b30006c696e67207261746520697320636861f7
:100b40006e67656420746f2025730d0a0000000035
:100b500054656d7065726174757265203d20253035
:100b6000326420460d0a000053616d706c696e6737
:100b70002054656d70657261747572652065766567
:100b800072792031207365636f6e64200d0a000056
:100b900053616d706c696e672054656d706572612c
:100ba000747572652065766572792032207365638d
:100bb0006f6e6473200d0a0053616d706c696e670f
:100bc0002054656d70657261747572652065766517
:100bd00072792034207365636f6e6473200d0a0090
:100be00053616d706c696e672054656d70657261dc
:100bf0007475726520657665727920353030206da8
:080c000073200d0a0000c0463c
:020000040000fa
:100c0800d00100201c00000000000000f0010020be
:100c1800300000000000000000000020c0000000bc
:100c280000000000200200200c000000000000006e
:100c3800a40100202c000000000000007401002026
:100c48003000000000000000350200200200000013
:100c58000000000038020020020000000000000030
:100c68003702002001000000000000003a020020c6
:100c780002000000000000003c020020010000000b
:100c88000000000034020020010000000000000005
:100c98003d0200200300000000000000c00000200a
:100ca8006400000000000000400200200100000075
:100cb8000100000001000000ec0100200400000019
:100cc8000000000024010020500000000000000087
:100cd8002c020020080000000000000000000000b6
:100ce8000000000066666666666666666666666634
:020000040000fa
:100cf800f0b5060085b00f0015001c008b4265d8c2
:100d080001d1824262d82100280001f0d5f83900cb
:100d18000090300001f0d0f8009b21001b1a1a0047
:100d28002800039301f0bcf800900191019bbb429d
:100d380046d802d1009bb34242d8009b019c039a3b
:100d480001200021f61aa74101f0aaf8039b002b05
:100d58002fd0019b009adb0754081c43019b5d08b8
:100d6800039b9c46bd422ed801d1b4422bd83200f9
:100d78003b00121bab41012692185b410027b618b5
:100d88005f4101235b429c446346002bead18019f2
:100d98007941039a04000d003000390001f074f81d
:100da800039a06000f0001f07bf8241a8d412000f9
:100db80029000a9b002b01d01e605f6005b0f0bdc2
:100dc80000200021c2e7b6197f41dae700200021a0
:020dd800efe743
:020000040000fa
:020dda00fee732
:020000040000fa
:100ddc00f8b5294b1b785bb2002b03db264b1b7839
:100dec009b072dd5244b1b785b0718d580239b05bf
:100dfc000024214a01201026a52503e004331f49b5
:100e0c008b4224d01c6091790142f7d091680e423c
:100e1c00f4d115739179012739439171eee7802351
:100e2c009b05002514491024a526144802e0043320
:100e3c0083420cd01d608a681442f8d10e73f6e719
:100e4c0080239b0500210d4a02c39342fcd10c4b1d
:100e5c0098470c4b984700f0e5fe0b4bff22934351
:100e6c000a4a93600a4b98470a4b98470a4b984793
:100e7c00fff734f9fee7c0460020004000000120d7
:100e8c002b1500002b1500000000000000ed00e009
:0c0e9c00c51600002b1500002b150000ef
:020000040000fa
:100ea800f0b505012d4c6419267bf6b22c4d3f2771
:100eb800ec5de4b2e8550f37ed5dad0702d10025d2
:100ec800002e3bd1264e4e25032777550501234e8c
:100ed8007619023f3773234ead5b6d0533d5c918bc
:100ee8000601204dad19696001011e4d495b0905d8
:100ef8002ed5d21805011b4949198a6019490501df
:100f08006a5a9205920fd3409bb249194b80144af2
:100f18004021535c02252b435354516c536c9b0462
:100f28009b0e08220a4013430125002b06d10c4ac8
:100f38001169012383400b4313610125084a3f23ac
:100f4800d4542800f0bd0601064dad196960cbe701
:100f58000501044949198a60d0e7c046000200200b
:080f680000600041f0010020cf
:020000040000fa
:100f700010b588293cd015dc81294dd003dc8029af
:100f80004ad0002010bd822911d08429f9d11968d6
:100f9000002a26d00a1d1a6000228b5e0360db1730
:100fa000436011e0a02930d010dc9029e9d1196804
:100fb0000724002a2ed00919a1430a0008321a601a
:100fc0000b684c68036044600120dbe7c02901d056
:100fd000f029d6d11a68111d196013680360002327
:100fe000dee70c1d1c600b689bb203604260ebe700
:100ff0001968002a04d00a1d1a600023cb56cde7d9
:101000000c1d1c600b68dbb2efe71a68111d19603c
:101010001368c3e70731cfe71968002a03d00a1d18
:0e1020001a600b68bae70c1d1c600b68dde758
:020000040000fa
:10102e00f0b54b6889b005930b6807009c46079393
:10103e00cb680c008e68049310685168cd0f44d0b5
:10104e000b000200002150429941059b002b08db4a
:10105e000222634693430793002d02d1079b5a0742
:10106e002ad5731e07aa02920a22009301920b0040
:10107e000200200000f017fa002d02d1079b5a073c
:10108e001ed501382d23002d00d1023b049a135496
:10109e0023695a1e049b121a1918079b38000093d5
:1010ae00330000f086f97b68db0503d56368984250
:1010be0000da180009b0f0bd1b07db0ff31ad1e7f9
:1010ce001b07e5d501382023e0e7059b002bbfda8f
:0210de00c4e765
:020000040000fa
:1010e000244b5a6852031b68db0c13439b029b0a78
:1010f000214a936300235375110004228b691a421d
:10110000fcd11d491022cb681a42fcd01a4a137d2b
:1011100080210b431375194b00229a611a61184bf9
:10112000184a1a62190004224b681a42fcd1144a68
:1011300088234021d15010004831402243581a42a0
:10114000fcd00f4ad4234021d150100094314022ca
:1011500043581a42fcd00a4ad8234021d1501000eb
:101160009831402243581a42fcd0074b074ada61b3
:101170007047c0462060800000100040001400400e
:10118000001c00400601010000080040300000087b
:020000040000fa
:10119000002941d010b4041c4c40a4460123002275
:1011a000002900d54942002800d5404288422cd36e
:1011b00001242407a14204d2814202d209011b0169
:1011c000f8e7e400a14204d2814202d249005b0068
:1011d000f8e7884201d3401a1a434c08a04202d3d0
:1011e000001b5c0822438c08a04202d3001b9c0811
:1011f0002243cc08a04202d3001bdc082243002873
:1012000003d01b0901d00909e3e7101c6446002c38
:1012100000d5404210bc704701b5002000f016ff19
:1012200002bdc0460029f7d003b5fff7b3ff0ebcdf
:081230004243891a1847c04629
:020000040000fa
:101238001f4a137801210b431370110001224b68d8
:101248001a42fcd11a490b781022102003430b7064
:1012580090231b02cb610020086208230b634863bc
:101268000b61144b1a819a821a84033098851a8765
:1012780041301a520c301a520c301a520c301a5291
:101288000c301a520c301a520c301a520c301a52b6
:101298000c301a520c301a520c301a520b780222a7
:1012a80013430b7002224b681a42fcd17047c046a8
:0812b8000028004000000020a6
:020000040000fa
:1012c000f8b51e4b1b7d002b37d01c4a9368516824
:1012d0001b4a127ed2071dd599421bd918490726f1
:1012e000164a944617001500012409e03a68d25cba
:1012f0000a85013368680a7e22420bd0984209d9d8
:101300004a683240012af1d1624612685800825a76
:101310000a85eee7094a936052689a420dd8074b56
:1013200000221a755a60064a01211175db68002bec
:1013300003d0024b1869db689847f8bd74010020a0
:041340000014004253
:020000040000fa
:1013440010b582b0002301931a4a118c0f330b405d
:101354003f21545ce4b253540f31525cd2b2019237
:10136400019a0220920708d512494e228854190185
:10137400114a5218002111730138019ad20709d574
:101384000c494e220120885419010b4a521800219d
:10139400117301301901084a52185268002a04d006
:1013a400054a531899685b689847024a3f23d45406
:0c13b40002b010bd0060004100020020eb
:020000040000fa
:1013c000f0b51d00012389b014000e9a06001a40e2
:1013d0000391029201d1a5420ad82200039930005c
:1013e00000f0bafca54203d82500280009b0f0bde2
:1013f0002f1b01973a00102f00d91022202104a89a
:1014000000f0b2fd019b0f2b0ed80f2204a93a4029
:10141000300000f0a1fc029b002be6d122000399d2
:10142000300000f099fce0e7102204a9300000f041
:0a14300093fc019b103b0193e4e7dd
:020000040000fa
:02143a00fee7cb
:020000040000fa
:10143c00bff35f8f62b6194bc02080001a58184951
:10144c001140c02212040a431a5004221a601a587e
:10145c001202120ac02109060a431a5008221a6005
:10146c0004301a581202120a0a431a5080221a60c7
:10147c00c32189005a58ff2082433f3802435a50f7
:10148c00802252011a605a5806481040c02212029b
:10149c0002435a50802292011a60704700e100e02a
:0814ac00ffff00ffff00ffff3e
:020000040000fa
:1014b400f7b5040019000a9fe368666800933b6867
:1014c400100001932369013b1c00002e00da012661
:1014d4000022009dea5435000123002c03dc002b7c
:1014e4001cd02000febd02000a4309d1002d07dcf8
:1014f400089a921b5219002af1dd019a9207eed53f
:10150400099b099adb1700f0fdfa8c460099013c0f
:10151400130030320a55013d6146dee710233a6874
:061524009a433a60dde786
:020000040000fa
:02152a00704708
:020000040000fa
:10152c0010b5194a2c23d35c002b18d01300d269a8
:10153c001b6a934213d2144b986a14490a8d92b2c7
:10154c001b6a4c6807212140012909d00e49896981
:10155c00ca5401330c4a1362d2699a4205d010bda9
:10156c00094989695c006252f3e7074b00222c2180
:10157c005a54da61054a583111755b6a002beed06a
:10158c00014b5b6a9847eae77401002000140042a3
:020000040000fa
:10159c0010b584291fd007dc812915d0822922d0cf
:1015ac00802911d0002010bd90291cd008dc88297e
:1015bc00f8d119680c1d1c600b6803601a7010e0e0
:1015cc00a02901d0c029edd119680c1d1c600b6835
:1015dc0003601a6005e019680c1d1c600b68036041
:1015ec001a800120dfe719680c1d1c600b68036072
:0815fc001a60d2175a60f4e7ef
:020000040000fa
:10160400f8b50024144d154e03e077610134102c15
:1016140020d063001b199b00eb181b899bb2a1b25d
:101624008b42f3d173690127a7401f42eed06300b8
:101634001b199b0008495b58002be6d00800630087
:1016440019198900411849681b199b001b58080087
:101654009847dae7f8bdc0460000002000280040a3
:020000040000fa
:10166400144b01221a601a00d369002bfcd1114bd0
:10167400802252005a601a00d369002bfcd10d4b12
:10168400e822da600c4a1a601a00d369002bfcd1f4
:10169400084b10225a831a00d369002bfcd1074b44
:1016a400002221215a5401395a54024b83329a752b
:1016b4007047c0460010004216001000a40100202c
:020000040000fa
:1016c40000230e4a10b513600d4a13600d4a1360cf
:1016d4000d4a13600d4a13600d4a536213610133be
:1016e400936000f020fb00f01efb0a4c0a4b9c4266
:1016f40000d310bd08cc9847f8e7c0462c02002060
:10170400300100202c0100202401002028010020a9
:0c17140034010020cc000000d0000000d8
:020000040000fa
:1017200010b50d4a002111705160916011730b4882
:101730000b4b58630b4c9c630b4c5c613f2419555d
:101740000a4959640a490180012111704d22023170
:101750009954084a1a8010bd00020020f0010020b0
:10176000006000411002002081818181000b800017
:0817700009040000020f000053
:020000040000fa
:10177800114b124a1a60124a9a81c02292025a6088
:101788001a00d369002bfcd10b4a136802210b43c2
:101798001360d369002bfcd10a4b00229a61da61ed
:1017a8001a622c215a545a621a605a609a601a7541
:1017b800da60da857047c0460014004204013140ff
:0817c8002bf6ffff7401002065
:020000040000fa
:1017d00010b5114b00229a61da61104b83321a76f0
:1017e0005a680f4c22405a601a00d369002bfcd172
:1017f00000290cd0084a20330324d4544000084365
:10180000064b58621a00d369002bfcd110bd024a66
:1018100020230424d454f1e7a40100200010004246
:04182000fffffbffcc
:020000040000fa
:1018240010b5134b9b7d002b1ad0114a137edbb2eb
:10183400927d52b2002a14db0d4a137edbb2927df4
:10184400d20703d5db0701d5fff738fd084a137e1d
:10185400dbb2927d520703d55b0701d5fff764fe27
:1018640010bd5bb2002be7da00f06cf9e4e7c04688
:04187400001400421a
:020000040000fa
:10187800353030206d696c6c695365636f6e6473c5
:101888000000000031205365636f6e6400000000a3
:10189800000000000000000032205365636f6e6492
:1018a80073000000000000000000000034205365b1
:1018b800636f6e6473000000000000000000000009
:020000040000fa
:1018c800f0b50f0087b0039015001049072204a84f
:1018d8001c0000f03bfbbb687e6802933f68002d4c
:1018e80000d104ad002c03d1280000f0b5fa0400a3
:1018f800002e02dbb44200d934000097029b22007c
:1019080029000398fff758fd07b0f0bd3820000004
:020000040000fa
:1019180030b51500012289b0524201920432ff32db
:101928000292002800d16846002403900491a14245
:1019380000d04c1e0594002906da4f220120074bdf
:1019480040421a6009b030bd00220790027006902c
:101958001a00290001a800f08bfaf3e730020020f2
:020000040000fa
:101968008223db05012256215a5401315a541c396d
:101978002220585455318020000358503a315a5487
:1019880001315a54d232863999541e3a123999542f
:10199800002286315a544731202058504621ff31c1
:0a19a8001e38585413395a54704782
:020000040000fa
:0219b200fee74e
:020000040000fa
:1019b40010b5064c2378002b07d1054b002b02d021
:1019c400044800e000bf0123237010bdd0010020b3
:1019d4000000000000000000044b10b5002b03d0f1
:1019e4000349044800e000bf10bdc04600000000e9
:0819f400d401002000000000f6
:020000040000fa
:1019fc000f4b01221a8019000b691a42fcd10c4bb7
:101a0c000c4a1a801900802212020b691342fcd175
:101a1c00074b802292001a621900e13aff3a0b69d7
:101a2c001a42fcd1024b802252005a817047c046a8
:081a3c00002400408081ffff3f
:020000040000fa
:101a440070b504000d00002815d00c4a2c23d35c7b
:101a54000020002b00d070bd00f066f9074b9c619c
:101a6400dd6100221a622c2101205854da85044bce
:101a740084329a75efe70020ede7c0467401002038
:041a84000014004208
:020000040000fa
:101a880010b500f09bfa002803d00a4b01221a7007
:101a980010bd094b1b78002b05d00023064a137094
:101aa800064a1370f4e70123034a1370034a1370bc
:101ab800eee7c046360200203c0200203d0200202e
:020000040000fa
:101ac800030010b51a78202a0dd01100093904290d
:101ad80009d900212b2a02d02d2a01d10131013345
:101ae80000200a2404e00133ece760430133801a44
:101af8001a78303a092af8d9002900d1404210bd95
:020000040000fa
:101b0800002b11d1002a0fd1002900d1002802d0c2
:101b18000021c943081c07b4024802a140180290da
:101b280003bdc0462105000003b4684601b502980c
:101b3800fff7def8019b9e4602b00cbc7047c0461a
:020000040000fa
:101b480010b50c4b5b8b0722134000d110bd0a4c1b
:101b5800e38500f0e7f8074b84221a752c2300224e
:101b6800e254636a002bf1d0034b986a5b6a98478a
:0c1b7800ece7c04600140042740100209d
:020000040000fa
:101b84001c2101231b04984201d3000c10391b0aa9
:101b9400984201d3000a08391b09984201d300096d
:101ba400043902a2105c40187047c04604030202c4
:0c1bb40001010101000000000000000021
:020000040000fa
:101bc00070b50c4d20242d5d0024002d01d0200087
:101bd00070bd084ca080e360049b6361a16022613a
:101be0000023a37023702122a3540021fff7f0fdee
:081bf0000124ece7a401002030
:020000040000fa
:101bf80010b50c4b06225a60fff7b2fefff76cfadd
:101c0800fff72cfd00f0f2f9fef75dfffff784fd0a
:101c1800fff7aefdfff70cfbfff7ecfefff70afc42
:081c280010bdc0460040004160
:020000040000fa
:101c300010b50a480168002903d14368002b00d180
:101c400010bd04008368064a9bb20c349b009b586d
:101c500042682000984780002018ebe7080c00003d
:041c6000401f000021
:020000040000fa
:101c6400f4464a1805d200f049f801d5c0174008d7
:101c7400604701235b05d34206d200f03ff801d54b
:101c84000120c0074042604701d10042f5d0d0177f
:041c9400400870474d
:020000040000fa
:101c9800f0b5050000200a4a4400a65c002e02d1d7
:101ca80012195078f0bd296801300f78c0b2b742d8
:101cb80003d112190131507829600a28ebd9f1e7cc
:041cc800ee1e00000c
:020000040000fa
:101ccc0010b5084b9a8992b207494a60074a9a8123
:101cdc009b890b68002b04d00b00486889681b6833
:101cec00984710bd0024004020020020ff81ffff18
:020000040000fa
:101cfc004a0010d2520d03231b02ff33d21a0ad40e
:101d0c0052421f3209d4400dc90208430123db079c
:0e1d1c001843d040704700207047d017704722
:020000040000fa
:021d2a00704700
:020000040000fa
:101d2c00094b5b8b5b070dd0074b80221a76793af7
:101d3c005a831b7e5b0705d5034b04211a8d1a7e33
:0c1d4c000a42fbd17047c0460014004260
:020000040000fa
:101d580070b505690400954200d91500002d0bd017
:101d68002a00606900f0f2f8226963695b19551b63
:0a1d78000022636125611a7070bd3e
:020000040000fa
:101d8200002380290fdb812901dd83290bd1072163
:101d9200136807338b431900083111601a685b68b6
:0a1da200026043600123180070473f
:020000040000fa
:101dac0030b543001b189b00064ce3181b899bb2f3
:101dbc00834200d030bd43001d18ad00295160197d
:081dcc004260f7e7000000206f
:020000040000fa
:101dd400002310b5934206d103201840421e9041bf
:0e1de4009b08c01810bdc45ccc540133f2e75c
:020000040000fa
:101df400054a138802210b431380110002220b6948
:0c1e04001a42fcd17047c0460024004088
:020000040000fa
:101e1000054b004206d5404200b5984708bc012258
:0c1e2000d2071143184700002d1e0000df
:020000040000fa
:101e2c0042221201033a010007d002d4013a0018f1
:0c1e3c00fcd51205c30a40059918704738
:020000040000fa
:101e480010b500f0b3f8002802d1024b01221a7035
:081e580010bdc0463b02002052
:020000040000fa
:101e60000378002b06d0030001331a78002afbd137
:081e7000181a70470020fce77e
:020000040000fa
:101e780013b50400019201aafef7e4fa6368db06d1
:081e880001d50120404216bd06
:020000040000fa
:101e9000d0400b1cd1409c46203ad34018435242bc
:081ea0006346934018437047ac
:020000040000fa
:101ea8009140031c90409c46203a9340194352426b
:081eb8006346d3401943704753
:020000040000fa
:101ec00010b5002903d1fff75dfe203002e0081ca9
:081ed000fff758fe10bdc046eb
:020000040000fa
:101ed8000eb403b503aa02ca019200f04bf802b08f
:061ee80008bc03b018471e
:020000040000fa
:101eee0068076c094c836a9074a07ac00080688879
:061efe0000846c820081eb
:020000040000fa
:101f0400034b9861190008220b691a42fcd17047ef
:041f14000024004065
:020000040000fa
:101f1800034b1862190020220b691a42fcd1704742
:041f28000024004051
:020000040000fa
:101f2c00012800d07047024b01221a70fae7c04614
:041f3c00400200203f
:020000040000fa
:101f4000911f0000d51d000041200000412000002d
:041f5000412000002c
:020000040000fa
:101f540010b5002a05d00023cc5cc454013393424d
:041f6400fad110bde1
:020000040000fa
:101f6800002a06d00300c9b28218197001339342bf
:041f7800fbd17047e2
:020000040000fa
:101f7c0010b513000a000249fff7c8fc10bdc0469b
:041f8c00ffffff7fd5
:020000040000fa
:101f90008a18914201d10020704700230b70013153
:021fa000f7e761
:020000040000fa
:101fa40003010248c01841608260704700020020ab
:020000040000fa
:101fb400024a2123d05cc0b27047c046a40100206d
:020000040000fa
:101fc400024bd88d80b20022da857047740100205c
:020000040000fa
:101fd400c30502d5014b01221a7070473a02002052
:020000040000fa
:0e1fe4000300413b192b01d8202318437047fe
:020000040000fa
:0c1ff400014b84225a60704700400041fd
:020000040000fa
:0c200000014b186099607047200200201e
:020000040000fa
:0c200c00014b586299627047a40100204b
:020000040000fa
:0c201800014b586299627047740100206f
:020000040000fa
:0c202400014b01221a70704735020020a9
:020000040000fa
:08203000286e696c29002500ef
:020000040000fa
:07203800286e756c6c290095
:020000040000fa
:0420400000207047c5
:020000040000fa
:0420440000207047c1
:020000040000fa
:0420480000207047bd
:020000040000fa
:04204c007047c046d3
:020000040000fa
:0200000400807a
:04400000ff88feb384
:020000040000fa
:0200000400807a
:04400400bbfcffff03
:00000001FF
