:020000040000fa
:10000000f01f0020857f00002f4100009746000070
:1000100000000000000000000000000000000000e0
:100020000000000000000000000000003735000064
:1000300000000000000000003735000037350000e8
:1000400037350000373500003d89000037350000a6
:100050003735000000000000373500000170000057
:1000600037350000917b000037350000e138000093
:100070003d7b0000000000000000000000000000c8
:10008000000000003735000037350000373500002c
:10009000058800003735000037350000373500008f
:1000a000373500003735000000000000373500000c
:0c00b000000000000000000005960000a9
:020000040000fa
:1000bc00f8b5c046f8bc08bc9e4670471d7f0000d2
:1000cc00f8b5c046f8bc08bc9e467047f57e0000eb
:020000040000fa
:0800dc0068540000010000005f
:020000040000fa
:1000e400f0b59bb013930b6815900a938b680d9130
:1000f4000b930b694d681893cb68029313680893ac
:1001040053680898069300220023069908f0cff953
:1001140000280dd10a9b5b073bd408200a9b0340af
:1001240009930b9b0393099b002b0fd0202306e01c
:10013400802212069446069b634406932d23029a5a
:1001440013700b9b013b039301230993069b0899ae
:100154005b005b08924a00291dd193421bd102998e
:10016400139b8c46099a413b624410008d49192b1c
:1001740000d98d4909f080fa029809f023f80a9b06
:100184000200009302990b9b159807f02ef81bb000
:10019400f0bd2b23d3e7934203d80ed1089b002b49
:1001a4000bd00299139b8c46099a413b6244100080
:1001b4007e49192bded97e49dce70022002308980a
:1001c400069908f034fd00267a4f002400283ed119
:1001d400040002e00134049e059f0022764b3000a7
:1001e400390003f0f9fe089a069b0490059108f083
:1001f4003ff90028eed00023049320e06f4b9c428b
:1002040014da049b002b11d100226d4b0898069937
:1002140003f0e2fe6a4b0890069130003900002298
:1002240003f0dafe012306000f00049330003900c6
:100234000022614b05f07cfc06000f00013c3200fb
:100244003b000898069908f032f90028d6d1139893
:1002540009f0a9f9c3b20c93002d00da94e10493d8
:10026400672b00d0b2e0002d00d189e1231d02db11
:10027400ac4200daa6e06523b6e0002200230e9229
:100284000f9303e106960797049b2600652b00d085
:100294001ae1002618e1129b002b0bd1002e09da7b
:1002a400029a14992e335354039b0137013b039351
:1002b40001231293ea193b009446302102e0029a8a
:1002c400d15401339c45fad1039aeb19551b029a78
:1002d40030305f1cd0546b1e0393002521e00d9b2e
:1002e40014971b691093053bbb4200d8f5e0069aae
:1002f400079b08980e9905f01bfc05f0c5ff1090ac
:10030400119108f0fffa092800dd092010230a9a48
:1003140013400343bfd10c9b672bbcd1002ec9da19
:1003240001358020000684460e99089a61440b002a
:100334001098119900920193069a079b09f024f9e9
:1003440080231b06cb1808900e9306980799002269
:10035400194b05f0edfb013e06900791b9e00a9bad
:10036400db0600d4bde02e23029ad3550137b8e052
:1003740020000a2106f086f8029b3031013d5955d0
:1003840020000a2106f034f8039b0400013b039388
:10039400b7e0029b03991a5c5b181a540138e0e039
:1003a4000000f07f6c9500007095000074950000cb
:1003b400789500000000f03f00002440d4feffffc9
:1003c40000005043002c0eda66230493049b01358d
:1003d400662b0ad1002c02da002600246d4f0c9bf8
:1003e400672b00d02d1966230493089b0e960f9754
:1003f4001293069b1093002314930e9a0f9b12984a
:10040400109905f095fb05f03fff1690179108f041
:1004140079fa19908020000684461099129a614452
:100424000b0016981799009201930e9a0f9b09f0ee
:10043400abf880231b06cb18129010930e980f99db
:10044400554b002205f074fb149b0e900f91013361
:1004540014939d42d1d10022504b03f0bdfd0e9068
:100464000f9102000b001298109908f020f8002850
:1004740000d002e70e9a0f9b1298109908f0d7fb50
:10048400002803d0199bdb0700d4f6e60e9a0f9bd5
:100494000898069903f03ef9002208900e913e4b0d
:1004a4003000390003f098fd089a0e9b06900791de
:1004b40007f05cfe002800d1e4e6049b0134662bbf
:1004c40000d0e1e626000135731b0025099f169331
:1004d4001295169b9e4200d001e7129b002b00d17f
:1004e4003de70026029bdb1906931e70049b652bd7
:1004f4002ad1189b5d1e029b5e55b44201da644208
:100504000136002c00d033e7189beb1a0333002b81
:1005140000dd2de76a1e2d23002e00d1023b029937
:10052400023d8b54139b413b192b01d84523049363
:10053400029b5919049b0b70039b023b0393af422c
:1005440002da069809f098f803230a9a1340022b5a
:1005540000d011e6039b002b00dc0de6029808f0a6
:1005640031fe099b834200dc13e7029a3021944652
:1005740063441800039a08f04fff00230b93fbe534
:10058400012573e6062571e60c9b672bfad00493cc
:1005940006251be70000f03f000024400000144043
:020000040000fa
:1005a400f0b587b00090009b0b20002b00d1e2e156
:1005b400002603275b68049602931b880196059323
:1005c4000396049b059a93421ed1009b1a681378e4
:1005d40059b200290bda0820002101268446049c24
:1005e40088b2844200d9ffe07f210b401370039b43
:1005f400002b00d009e1019801231178002800d1d3
:100604005be10b4313705ae1009bb5009b685d19d5
:100614001e236a681178194001d001232b702b78ae
:10062400042b73d00ad8022b2ed043d8012b23d00d
:10063400049b033601339bb20493c2e7852b00d19c
:1006440082e0862b00d1a9e0072bf1d129895388b8
:1006540099425fd9c91a009b0298db6840799b5d77
:1006640089b20341dbb28b4254d86b78002b69d139
:1006740001232b701770dbe703930029d8d10223e1
:100684002b7008236b70d3e76978002910d0528847
:10069400042904d92a810139697001237ce02b895a
:1006a4009342f8d002d9013b2b81f4e70133fbe7f5
:1006b4002f70bde7298953889942b9d0009ad2682e
:1006c40010d9cb1a0299925d49799bb20a41d2b2f0
:1006d4009a42add8029b1b79002ba9d007222a701d
:1006e4006b70dae792195b1a11789bb299429fd822
:1006f4009378002b05d00499009806f039fd002862
:1007040096d104232b70029b9b78e9e729895388af
:10071400994202d92f700023b4e7009a5b1ad26879
:100724009bb2921911789942f4d29378002b06d097
:100734000499009806f01cfd002800d078e76b7837
:10074400002b47d0013bcbe7029b00991b7a096839
:100754000b7128895388984207d986232b70029bf2
:100764009b786b700123019316e0009a1b1ad268e0
:100774009bb291190a784978140001310c41012186
:10078400121bd2b201919a4200d251e786232b70f8
:10079400029b9b786b700b00039349e7288953886d
:1007a400984209d96b78002b01d12f7001e0013bed
:1007b4006b70012301933be7009a1b1ad2689bb22a
:1007c40091190a784978140001310c41121bd2b2f4
:1007d4009a4204d285232b70029bdb78e8e76b787e
:1007e400002be2d0013bbce70c2500984d43806808
:1007f40045196f683878304205d164462d78a54391
:1008040001d0304338700131e9e6029b597a00295e
:1008140000d1f0e6802310785b4203431370012972
:1008240000d0e8e600218bb20393049b88b2834294
:1008340000d8e0e60c20009b48439b680825181864
:10084400029303781c00ac4315d0852b01d0032bf5
:100854002ed10325009bdf682b004b43fb189b78ac
:100864009c46002b07d000231e000595049c9c4247
:1008740008d8002e1cd1012540680378ab430370cf
:100884000131d0e7039c9c420fd00c255d43029cb0
:100894002d5d042d01d0862d07d1059d5d437d1965
:1008a400ad78654501d10126049b01339bb2dde798
:1008b4000123406805782b43e1e79943117052887e
:1008c400584b11001b88c8318b4251d99b1a9bb2db
:1008d4009c466346c82b4dd96346c83b9bb29c4695
:1008e400009b1b685a88c8325a801a79002a00d0a3
:1008f40070e05a79002a01d0013a5a719a79002a93
:1009040001d0013a9a71009a50688679002e07d076
:100914005a79002a04d1078891b28f4234d85e7183
:10092400c579002d07d09a79002a04d1068891b29e
:10093400b1423cd39d71009b5b68da78002ac8d031
:100944001f880c23002103207b4302938bb2bb42fc
:10095400bfd20c22009b4a439b689a181578852db8
:1009640004d15578002d38d0013d55700131ede7a3
:10097400934202d3002007b0f0bd2b495918891abd
:10098400c829f7d9013ba1e70c21009c5143a46875
:1009940061180d78032d01d0082d06d14c680d89fe
:1009a4006488ac4201d901350d810132b4e70c21d0
:1009b40000985143806841180878032801d008281a
:1009c40006d14c6808896788874201d201380881ba
:1009d4000132ace7013a1a71ade701240500147045
:1009e40052684d431070009ad2685519ad78002da5
:1009f400bcd0029c02321c1901920394039a9342c4
:100a0400b4d0019a1678ae4206d101225e683478d9
:100a1400144201d01a703070019a0c3303320192df
:0c0a2400ece7c046da170020ffff0000de
:020000040000fa
:100a3000f0b599b014930b68566809934b681390fe
:100a40000d938b68cf680c930b6931001193136879
:100a5000002208930898002307f02bfd00280cd1f2
:100a6000099b5b0724d40820099b0c9d0340059338
:100a70000cd02023013d3b7006e080231b06f618b6
:100a80002d233b700c9b5d1e01230593089a730078
:100a90005b08002a0ed1ac4a93420bd1149b059af5
:100aa000413bb818a94caa49192b12d9210010e0d2
:100ab0002b23e6e7a44a934203d819d1089b002bc5
:100ac00016d0149b059a413bb818a24ca249192b89
:100ad000ecd808f0d3fd200008f076fb099b02005b
:100ae000009339000c9b139806f081fb19b0f0bd00
:100af000059b05995a1c30237b54149b413b0e9354
:100b00000e995823192900d920330599bb54023175
:100b1000ab1e05910793002200230898310008f0ce
:100b200088f8002800d165e100238c4c06930293dd
:100b300003940d9b1093002b01da18231093029b52
:100b4000039c0a930b9434000023089d1293280001
:100b50000a9a0b9b210004f0edff05f097fb0a9a1f
:100b60000b9b1690179103f039fa02000b00280036
:100b7000210008f0ebfc7a4b05000c000a980b9959
:100b8000002203f02bfa129b0a900b9101330f9372
:100b90000d9b002b07da002200232800210008f01b
:100ba00048f8002806d1109b129a934200dd27e1f5
:100bb00001330f9300220a980b996a4b03f00efa47
:100bc0000a900b9102000b002800210007f071fc35
:100bd000002800d016e10a9a0b9b2800210008f09b
:100be00028f8002806d01698179907f08dfec3073d
:100bf00000d407e10a9a0b9b0898310002f08cfda3
:100c0000129149000a904908002803d14e4b99429d
:100c100000d143e70025059c10950895119b2600ff
:100c2000053ba34230d9029a039b0a98129904f01b
:100c300081ff05f02bfb1490159107f065fe031e54
:100c400000d0e4e0089a002a00d1e0e00135029ae1
:100c5000039b1498159903f0c1f902000b000a9840
:100c6000129908f073fc00220a9012913c4b0298f2
:100c7000039903f0b3f9089b0290039101330893a1
:100c8000089a0f9b9342c9d1109b002b1ad1002dbb
:100c900000d100e10d9b002b00dcfce0099bdb0791
:100ca00000d5f8e02e2230213b191a702a19ba1803
:100cb000597001339a42fbd12c19ed43079b013443
:100cc000eb18079300263b191e700293119b5d1ec3
:100cd000069b7e55b34202da5b4206930136069bc1
:100ce000002b00d0c0e0119beb1a013300d1bbe018
:100cf0006a1e2d23002e00d1023bbb540e9a023dea
:100d00005023192a00d9203379190b70ac4202da2a
:100d1000029808f0b3fc0323099a1340022b11d167
:100d2000079b9c1e002c0ddd380008f04dfa059b3a
:100d3000984200dba8e0f8182200302108f06efb92
:100d400000230c933800c7e60000f07f6095000098
:100d50005c95000068950000649500000000f03f7d
:100d60000000b03f00002040069b02940395013331
:100d70000693029a039b1000190002f0cdfc0400b8
:100d80000d0002000b000898310007f092fb0028cc
:100d9000ead0029a039b0898310007f08afb0028ea
:100da00000d1c6e60298039900223f4b03f016f9e2
:100db0000022002307f03dff00280fd0029803997e
:100dc00000223a4b03f00af9002202900391374bbc
:100dd0000898310003f002f90e000890324b029897
:100de0000399002203f0faf8069b02900391013b5d
:100df0000693cee700232e4c069002930394b8e7a7
:100e00000f9ba3e6002300240a930b94f2e6109aaa
:100e1000002a0ad1089a002a07d02e22ba55079a2a
:100e20000134013a0792012210922e19302201e07a
:100e30003a550134b442fbd11800079a5730551b7c
:100e4000092b01dc303318000e9b192b06d8202308
:100e50000343613b192b01d808f0aefb6b1e741cd9
:100e6000b85507930025f2e606980a2105f00cfb19
:100e7000013d3031795506980a2105f0bbfa079bf0
:100e80000690013b07932ae7079b3a5c023bfb185d
:100e90001a5401384be7099bdb0600d412e72e23d6
:100ea0003b5501340ee7c0460000e03f00005043d0
:040eb0000000f03f0f
:020000040000fa
:100eb400f0b58bb0040001910292242901d80129d4
:100ec40003d11622b84b1a6056e0e36be26c9342ee
:100ed40024d25a1ce2631d78202df6d02b00093b46
:100ee400042bf2d90222223b934300220392934221
:100ef4000bd12d3d6b425d416b420393e26ce36b7e
:100f0400934210d25a1ce2631d78019be26c002bc1
:100f14000ed0102b54d1302d0cd051e0200006f00f
:100f240003fd0500d8e7200006f0fefc0500ece711
:100f3400302d43d1e36b934224d25a1ce2631d78d3
:100f440020232b43782b2ed1e36be26c93421ed2e9
:100f54005a1ce2631d781022944b01925b5d0f2ba7
:100f640000d8c7e0e36c002b00d1a9e1029ae36b3f
:100f7400002a11d0023be363002600273000390029
:100f84000bb0f0bd200006f0cffc0500d8e7200030
:100f940006f0cafc0500dee7013be3630021200004
:100fa40008f0aff8e8e7019b002b00d1a0e0019b1b
:100fb4000a2b00d09ee0002302931de00a23019334
:100fc4007a4b01995b5d8b42f1d3002a02d0e36b2b
:100fd400013be3630021200008f093f871e70a2342
:100fe400029a5343e26c5d19e36b303d02959342e0
:100ff40068d25a1ce2631d782b00303b092b03d8be
:101004006b4b029a9a42ead90027029e2b00303b8e
:101014000293092b33d8674b9f4213d802d1664bf6
:101024009e420fd800230a223000390007f0c0f88e
:10103400029b049300230593049bdb434a1c46d183
:10104400984244d9594b019a5b5d934217d2e36ba2
:10105400e26c934200d318e15a1ce2631878534bb4
:10106400019a1b5c9342f2d3109e119f22224e4b95
:101074001a600123109a134201d000230393e36cf6
:10108400002b02d0e36b013be363119bbb4200d90d
:101094000ce103d1109bb34200d907e10123109a5c
:1010a400134200d0f5e0039b002b00d0f1e0222294
:1010b40001267642f7173c4b1a60109b119cf618d8
:1010c40067415be7200006f02ffc050094e7e36b23
:1010d400e26c049e059f36184f41934203d25a1c7a
:1010e400e2631d7892e7200006f01efc05008de700
:1010f40008230193019b5e1e3340029300d0bce0a1
:10110400019a173353432d4a1b065b0fd35c049398
:10111400264b019a5b5d9a4203d9294a029991426e
:101124002bd9049a01204042c11708f06ff8002718
:10113400029e089006911d4b5b5d0293029a019bef
:10114400934200d87ee7069b9f4200d97ae703d1f9
:10115400089b9e4200d975e7049a3000390008f0d4
:1011640061f8029be26c03431e00e36b0f009342a1
:1011740015d25a1ce2631d78dde7029e049a96405c
:10118400e26c1e43e36b0296934203d25a1ce26361
:101194001d78bde7200006f0c7fb0500b8e7200076
:1011a40006f0c2fb0500c6e7041800208a4e0000c2
:1011b400989999199999991999999999804e000032
:1011c400ffffff07029e019a5643f3180293e26c55
:1011d400e36b93424cd25a1ce2631d783c4b019a58
:1011e4005b5d9a4203d93b4a02999142ead90027ae
:1011f400029e374b5b5d0293029a019b934200d897
:1012040020e7002f17d01a0000233000190006f041
:10121400cfff002304913a001900019806f0c8ff9b
:10122400049b089300230993089a099b8018594149
:10123400002900d006e73b0032000198002106f0a7
:10124400b7ff029b069300230793069bdb434a1ccc
:1012540002d1984200d9f5e6069e079fe36be26c43
:1012640036184f4193420bd25a1ce2631d78c0e7f3
:10127400200006f059fb0500b0e700230293ade718
:10128400200006f051fb0500b3e7200006f04cfbfc
:10129400e5e6119b9f4203d808d1109b9e4205d9d5
:1012a400109e119f22220c4b1a6067e6039b0133a8
:1012b40000d063e633003c0000275e42a7415de6b0
:1012c400029b00260027002b00d057e666e6c046a6
:0c12d4008a4e0000c6711c0704180020a0
:020000040000fa
:1012e000d41600201c00000000000000d8150020cb
:1012f0003c000000000000001816002090000000d4
:1013000000000000681700200c0000000000000032
:10131000a81600202c00000000000000ac110020e6
:101320000001000000000000d41400204000000074
:1013300000000000ac1200200001000000000000ce
:10134000141500204000000000000000a417002039
:101350000800000000000000741700200c000000ce
:1013600000000000ac13002080000000000000001e
:10137000e21700200200000000000000ac1700206f
:1013800008000000000000005415002004000000c8
:1013900000000000141600200400000000000000ff
:1013a0000c0e002000030000000000000c000020d4
:1013b000000a000000000000801700201800000054
:1013c00000000000d3180020010000000100000010
:1013d00001000000c018002004000000010000000f
:1013e000ffff0700be180020010000000100000000
:1013f000010000000a1800200100000000000000a9
:10140000b417002010000000000000005815002054
:1014100040000000000000000c110020a0000000af
:1014200000000000a61800200200000001000000db
:1014300001000000c41700200800000000000000a8
:101440000c18002003000000000000000b18002012
:1014500001000000000000000f1800200100000043
:1014600000000000d417002006000000000000006b
:10147000dc17002006000000000000009817002084
:101480000c00000000000000cc1700200800000045
:101490000000000010180020010000000000000003
:1014a00008180020020000000000000011180020b1
:1014b0000100000000000000d4180020030000001c
:1014c0000100000000010200b81800200600000022
:1014d000010000000100803000030000841800209b
:1014e00018000000010000000000000000004000a3
:1014f00000000004b818002084180020dc17002029
:10150000d0180020030000000100000014010000ba
:101510009c1800200a0000000100000001000400e7
:1015200005001405140100005418002020000000dc
:1015300001000000cc1700209c1800209817002004
:10154000d018002001000300bc180020d41800208f
:1015500001190600a8180020080000000100000082
:101560007418002064180020741800201000000077
:101570000100000000000000d4170020dc1700204c
:101580000c1800200c1700201800000000000000bc
:101590002c14002058000000000000003817002024
:1015a0001000000000000000f01600201c000000e9
:1015b000000000000c0a00200004000000000000f1
:1015c0001218002001000000000000004817002051
:1015d00010000000000000009815002040000000ee
:1015e00000000000131800200200000000000000ae
:1015f000381800201c00000001000000785d000089
:10160000a85d0000b85d0000ec5d0000b3220200a0
:101610001818002003003c00b0180020080000004b
:101620000100000000000000a86800001818002059
:101630002000000001000000f05d0000f45d0000eb
:10164000045e0000205e000000000000785d0000e5
:101650000000000000000000e41700200c00000063
:1016600000000000581700201000000000000000db
:10167000f01700200800000000000000c41800203f
:101680000c000000010000000000003f6f12833bcf
:1016900000002042bf1800200100000001000000ef
:1016a00001000000241700201400000000000000ca
:1016b000000000200c00000000000000da170020ed
:1016c0000200000000000000f817002008000000e1
:1016d0000000000084140020500000000000000002
:1016e00000180020080000000000000000000000ba
:1016f0000000000066666666666666666666666622
:020000040000fa
:10170000f0b5de4657464e464546e0b587b0b94b84
:1017100002215956002900d1e7e11b785bb29a00fb
:10172000b4488446624454680133d80f1b18012220
:1017300013401b1a62461370013991702100ae48a4
:1017400007f09cff2100ad4807f070f9ac49aa48aa
:1017500006f0c2fa051edad002ab9e1db0e10133dd
:1017600033803388f8180278002a05d02c2af6d165
:10177000013333800170f4e79046380007f024fd10
:1017800000b2431e1bb2002806dbfa1818001378bb
:101790000d2bf6d1002313702b78443bdab2132ab9
:1017a00000d986e19300974ad3589f4604a90e209a
:1017b00001f0acfc04ac06ab99460095250049e06d
:1017c0009149009806f026fc00284cd18f490098da
:1017d00006f020fc002853d039000120a04708e083
:1017e0008b49009806f016fc002845d039000420eb
:1017f000a0478849009806f00dfc002802d0390067
:101800000820a0478449009806f004fc002802d074
:1018100039000920a0478149009806f0fbfb002809
:1018200002d039000a20a0477d49009806f0f2fb5b
:10183000002802d039000720a0477a49009806f016
:10184000e9fb002802d039000620a0470435a9454d
:1018500000d12ee12c68002cf8d07349009806f0d6
:10186000d9fb0028acd0009807f026fa0028b7d0a2
:1018700039000320a047bce739000520a047b8e79e
:101880006a49009806f0c6fb0028a5d1684900986f
:1018900006f0c0fb0028acd039000020a047a8e724
:1018a00004a90c2000f0f0fc04ab994606ab9b4663
:1018b00005230193002400954d46b94627003fe0db
:1018c00000225c4b9a460127a44601321100835c3a
:1018d000002b23d0203bdbb21d2bf6d85446dc4036
:1018e0002742f2d0644643185b7820221f009743ba
:1018f00040d02c2b40d002314018002720211a0064
:10190000bb00db195b009b18303b1f000278130003
:101910008b4305d001302c2af2d101e06446002728
:101920004549009806f076fb002827d00123019353
:101930004a4601993800a04704355d4500d1b8e01a
:101940002c68002cf8d03d49009806f063fb002875
:10195000e6d00378002b0bd0203bdbb21d2bafd899
:10196000344ada40130000220021db07a9d5bae788
:101970000027d5e70027d3e70027d1e730490098b3
:1019800006f048fb002802d043460193d0e72d49da
:10199000009806f03ffb002802d002230193c7e71e
:1019a0002949009806f036fb00280cd0002333802c
:1019b0002021484607f03cfd06f0befc30800323a2
:1019c0000193b146b4e72149009806f023fb0028b3
:1019d000aed004230193abe704a90a2001f02af951
:1019e00004ac06ab9a4603235b42019300953d008d
:1019f0004ce0c0468c1700200c0e00208017002001
:101a000094590000387c0000d0580000e0580000d5
:101a1000d8580000fc580000085900001459000074
:101a20001c59000024590000c4580000e858000068
:101a3000f45800000100002438590000305900001b
:101a400044590000505900005859000064590000e2
:101a500029000120b84701902a49009806f0dafad7
:101a6000002803d029000320b84701902649009898
:101a700006f0d0fa002803d029000220b8470190d0
:101a8000019b033315d00434a24512d02768002fe0
:101a9000f9d01e49009806f0bdfa0028dcd02800d5
:101aa00006f04afc0028d3d029000020b847019056
:101ab000d2e71749002006f00ff9051e00d126e6ef
:101ac000280007f081fb0128f3d9002333803a2155
:101ad000280007f0adfc471c202142e6002300222d
:101ae0000021002000f018ff03e00a4b1b78002bb8
:101af000f4d1002007b03cbc90469946a246ab46c4
:101b0000f0bdc0467c5900008859000070590000a3
:081b100094590000d3180020d5
:020000040000fa
:101b18000023f0b505001600f1b00791089304936f
:101b2800079b1b78002b67d0002309930a930b931c
:101b38000eab0c93802307a928000d9306f0eaff4b
:101b48000400079b1a78002a01d0252a41d1089a57
:101b5800141908941a78252a31d100245a1c07929e
:101b68000b945a782a2a02d1023307930134079832
:101b780006f0defb01000b90280007f0c0fa079b77
:101b88001a78303a092a4dd907a806f09ffe079b14
:101b98000700187807f005fd672865dc652800db75
:101ba800cce0612800d1c9e03fdc079b252800d1a3
:101bb800f3e05b2800d10ee1079b01330793039bf9
:101bc800013300d0fae0049b002b15d1013b0493ac
:101bd80012e0eb6bea6c934211d25a1cea631b7851
:101be8000393079b039a1b7893420fd0eb6c002b4f
:101bf80002d0eb6b013beb63049871b0f0bd280099
:101c080005f090fe030003900133ead1089b07a971
:101c180001330893079b28000133079306f07affe6
:101c280024188ee701330793a9e7632800d199e0c8
:101c38006428c1d108ab09aa2ea9280007f05cfdc9
:101c4800002800da6be1079b01330793002c00d0d2
:101c5800b4e03300012239002ea805f049fa041e29
:101c680069da631cafd0c7e7702843d00bdc6e2855
:101c780052d031dc69289fd108ab09aa2ea92800c7
:101c880007f03afddce7752815d078282bd07328a3
:101c980000d091e7802f00d08ee7079b0133079390
:101ca80000239c4203d133681a1d32601b680093dd
:101cb800012208ab6ce008ab09aa2ea9280006f09f
:101cc8009dff002800da2ae1079b01330793002cc7
:101cd80074d133002200bee708ab09aa2ea9280058
:101ce80007f00afdede708ab09aa2ea9280007f0be
:101cf80003fde6e708ab09aa2ea9280007f0fcfcbb
:101d0800002800da0be1079b01330793002c55d11b
:101d180033002200f0219fe7079b01330793089bbc
:101d28002e93db172f93002c48d133002200390063
:101d38002ea805f0ddf9049b1b19f0e608ab09aaeb
:101d48002ea9280007f0d8fc002800dae7e0079b56
:101d580001330793002c31d1320039002ea806f048
:101d68009ff87ce7802f00d026e70b9b0593002b7c
:101d780001d101330b93079b0133079300239c4246
:101d880003d133681a1d32601b680022009308ab28
:101d980009a9280007f0b2fc61e7802f00d00be703
:101da80001330793ea6ceb6b934209d25a1cea633e
:101db8001878252808d1089b013308930024bae72e
:101dc800280005f0affdf4e7eb6c002bf6d0eb6bc9
:101dd800013beb63f2e7802f00d0ede60027bc4221
:101de80003d13268111d316017685a1c07925a785e
:101df80000245e2a02d10233079301340222210013
:101e0800ff322ea807f006fba821002304aa5218c7
:101e18001370079b1a782d2a1ed1013307930123cb
:101e2800a93204a91b1b5218137007990b785d2b54
:101e38001cd10024a74240d1eb6bea6c934269d2d3
:101e48005a1cea631b780393039a2eab9b185c78a1
:101e5800002c5bd105943fe05d2ae6d1013307935e
:101e6800012304aa07321b1bff32dde7002be0d059
:101e78002d2b09d00122079b2ea819789b184118f1
:101e8800101b48700793d0e7089b1b78002bf1d0f4
:101e98005d2befd04b1c0793069b1b784878834239
:101ea800e8da01220133101b2eaa9854f6e7039ba7
:101eb8003b55089b013401330893eb6bea6c05949e
:101ec80093421ed25a1cea631b780393039a2eabe3
:101ed8009b185b78002bead1eb6c002b02d0eb6be4
:101ee800013beb63079b01330793059b002b00d154
:101ef80062e6002f00d15fe60023059a0124bb5457
:101f080019e7280005f00efd0390dfe7089b013371
:101f1800089391e7280005f005fd039094e7040075
:021f28009fe632
:020000040000fa
:021f2a007047fe
:020000040000fa
:101f2c000322f0b5ac4b89b01b7a0392002b14d072
:101f3c00aa4b1b6804931b6805931b880693a84b3c
:101f4c001b6807930023029303936b461a89069b25
:101f5c009a4205d30222a04b1a72039809b0f0bd25
:101f6c00029b07995b00cc5a062302994b430499b8
:101f7c008968cd180c2302992e784b430499f606e8
:101f8c004968760fcb180193db7a042e00d96ce1eb
:101f9c00300007f079fa050013004c012d01e00028
:101fac000f21019a927a0a40934201d99e1af6b2f5
:101fbc0034416c80029b01330293c6e71c41894a71
:101fcc00a3b26b80af88934229d9874a9b18320001
:101fdc009bb205998978402926d15b08002a25d027
:101fec00002f27d0042b29d90f24b9043a12381109
:101ffc00890f224020402740002e50d0cf2b01d9f2
:10200c0000297cd1152b00d883e0002a7cd100223a
:10201c00914200d180e00139c9b20a227ce0714ab8
:10202c00d31a9bb20022d4e7002ad9d06f4a0026db
:10203c009742d7d181232b700e2303932b785a060a
:10204c0001d501230ce05bb2002b0adb0322059bbc
:10205c00db781340934208d1ff23019a13721123aa
:10206c002b70bf04bf0caf80a4e7022b07d10f224b
:10207c00019b5b7a9343019a53720923f0e7012b7e
:10208c00dfd10f22019b5b7a1a4030231343019a54
:10209c0053720d23e4e70131cf3bc9b29bb2cf2b76
:1020ac0001d90329f7d1152b0dd90f2a06d10f22ef
:1020bc0003290ad00131c9b2052206e00132153bd1
:1020cc00d2b29bb2efe70f2af1d0022b11d90f2815
:1020dc000ad10f2a00d1c9e00132d2b2052003295e
:1020ec000bd0022bdbd827e00130023bc0b29bb2f5
:1020fc00ebe70f28edd003291ed10321f1e70139bd
:10210c00cf3bc9b29bb279e7013a153bd2b29bb235
:10211c0078e7002a00d17ae7022b0bd9002804d1ea
:10212c00002a11d11700100006e00138023bc0b2a2
:10213c009bb2f1e70028f3d009038cb212021443ce
:10214c002743000107438ee7013ad2b20a20022b43
:10215c0000d953e7f0e71c41019ba4b21f7a012080
:10216c000023ff2f14d17f23019a6c8013722b78dc
:10217c00012b00d01ee7ff33ff339c4272d91a4b60
:10218c00e418a4b2052c00d814e745232b7011e7f2
:10219c003900d9400026014201d11e000823013329
:1021ac00dbb2072bf4d92100100004f01ffe00282d
:1021bc0004d00123b3401f43019b1f720123002e47
:1021cc0008d0013ef6b2b340019a127a9a43019bb1
:1021dc001a72cce72b70cae72417002004000020e9
:1021ec0008000020ff01000001feffffff3f000080
:1021fc001c41019ba4b25f7a3e09032e15d021002d
:10220c00100004f0f3fd00280ad1013601232b70d5
:10221c000f2336011f40019b3e435e726c80a6e784
:10222c00002ef3d0013ef6b2f2e70226f0e71c4195
:10223c000f26019ba4b25f7a3e4011d02100100002
:10224c0004f0d4fd002806d1013ef6b201232b7018
:10225c000f239f43dfe7032ef8d00136f6b2f7e7e2
:10226c000126f5e7044b1c1b8be7fee7032900d185
:0c227c0058e7100035e7c046ff010000e5
:020000040000fa
:1022880030b58db004000d000c2800d96be1830037
:10229800b64ad3589f460020002928d0b44b0022c4
:1022a8000021b44800f034fb2b68002b06d00093c3
:1022b800b14b00220021af4800f02afb6b68002bcd
:1022c80006d00093ad4b00220021aa4800f020fb65
:1022d800ab4b00220021a74800f01afb40b206e0f1
:1022e800a34b00220021a34800f012fb40b20db01e
:1022f80030bd4b7b0093a34b04aaa3499d4800f033
:1023080007fb03000020002bf1d104a806f010f809
:10231800a8602b78012b21d0002b12d0022b2ad0b9
:1023280000202b7b002be2d00028e0d10193ab6882
:102338000093964b002200218e4800f0e9fa40b243
:10234800d5e7ab7b02936b8801930090904b0022fa
:102358000021884800f0dcfa40b2e2e76b8802937b
:102368006b68019300908b4b00220021814800f09c
:10237800cffa40b2d5e76b8802936b68019300905f
:10238800854b002200217b4800f0c2fa40b2c8e722
:10239800824b04aa7c49774800f0bafa030000206f
:1023a800002ba4d12a0008327d4904a806f05bff5f
:1023b8002b78012b21d0002b11d00020022b00d02c
:1023c80095e76b8802936b680193ab680093724b37
:1023d80000220021674800f09bfa40b287e7ab7bf8
:1023e80002936b880193ab680093694b002200212c
:1023f800604800f08dfa40b279e76b8802936b6809
:102408000193ab680093634b00220021594800f008
:102418007ffa40b26be70b680020002b00d166e71b
:102428000093604b00220021524800f071fa40b23c
:102438005de7504c4b7901930b6800935a4b00228f
:102448000021200000f064fa2b7901932b68009397
:10245800564b00220021200000f05afa40b246e70d
:102468000b68002b59d0012301930090504b002298
:102478000021404800f04cfa6b68002b07d001930c
:1024880000944c4b002200213a4800f041faab6816
:10249800002b07d001930094474b002200213548b8
:1024a80000f036faeb68002b07d001930094434bf9
:1024b800002200212f4800f02bfa2b69002b07d0af
:1024c800019300943e4b002200212a4800f020fa94
:1024d8006b69002b07d0019300943a4b002200212e
:1024e800244800f015faab69002b22d00123019390
:1024f8000094354b002200211e4800f009faeb69d0
:10250800002b14d0ab6901930094304b00220021ba
:10251800184800f0fdf940b2e9e600230193009065
:10252800234b00220021134800f0f2f9afe740b234
:10253800dde6002301930094234b002200210d487f
:1025480000f0e6f940b2d2e6214b59600020cee611
:102558001f4b19600020cae61d4b1a680a605b68a9
:102568004b600020c3e601204042c0e66c880000b2
:102578009c3a0000b03a0000b43a0000cc3a00009f
:10258800e43a0000f83a0000083b0000583b00001d
:10259800103b0000283b0000403b00006c3b000063
:1025a8007c3b0000803b0000903b0000a43b000007
:1025b800b83b0000cc3b0000e03b0000f43b0000cf
:1025c800083c00001c3c0000303c0000443c00007b
:0425d800bc1700200c
:020000040000fa
:1025dc000023f0b506001500b1b0079103930799dd
:1025ec000b78002b00d10ce101235b420c9310ab58
:1025fc0000240e9380230b940d940f930b5d002bf2
:10260c0001d0252b2ad1002c06d02200300005f059
:10261c0087ff079b1b190793079b1a78252a00d065
:10262c00e4e0013304930793022301219c46102715
:10263c00079803782b2b1ad025d8202b1ad0232bb4
:10264c001dd02a2b28d005f071fe0d90079b1a780f
:10265c00303a092a31d801330793f7e70134cde733
:10266c000b9b05930b4301300b930790e0e704237e
:10267c000b9a0fe00b9b0593059a08230ae00b9b22
:10268c0005933b43efe72d2bead0302bd9d1624693
:10269c000b9b05931343e6e72b6801301a1d1b684f
:1026ac0007902a600d93002b07da0b9a5b42059278
:1026bc00012205990d934a400b920b9bda0702d528
:1026cc00022293430b93079b1a782e2a0ed10022d9
:1026dc00581c0c9207905a782a2a27d10233079358
:1026ec002b681a1d1b682a6005930c9307a806f02b
:1026fc00ebf8079b0700187806f051ff692800d10a
:10270c0082e034dc632800d1dbe01adc252800d120
:10271c00e8e0612858d0049b012207930023524221
:10272c000c920b930d9300930232e5e005f0fefd45
:10273c000c90079b1a78303a092ad7d801330793a3
:10274c00f7e7642860d06728e5dc2a00390008a880
:10275c0006f0edfa002800d1afe0079b0ba95a1c3c
:10276c0007921b7808aa3000fdf7b6fc3de07028f4
:10277c0000d17de016dc6e2800d197e06f28cad11d
:10278c002b000022390008a803f050fb002800d1d0
:10279c0093e0079b08aa01330ba93000079304f0c0
:1027ac000bfe22e0752840d078284fd07328b2d188
:1027bc00802f00d081e0079b2a6801330793131dfb
:1027cc002b601268002388e02a00390008a806f064
:1027dc00aefa002800d170e0079b0ba95a1c079297
:1027ec001b7808aa3000fef71df92418039b1c194e
:1027fc00a34200dc82e04f22414b1a6001235b4272
:10280c000393039831b0f0bd2b000122390008a8c6
:10281c0003f00cfb002850d0079b08aa01330ba92e
:10282c003000079303f086fddfe72b000022390010
:10283c0008a803f0fbfa00283fd0079b08aa013335
:10284c000ba93000079305f01df9cee72b000022f1
:10285c00390008a803f0eafa00282ed0079b5a1c6e
:10286c0007921b7808aa0ba9300001f0a9ffbce75e
:10287c002b000022f02108a803f0d8fa00281cd065
:10288c00079b099a01330793089b13430cd11d4fe7
:10289c00380006f093fc390002000b9b00930d9b53
:1028ac00300004f09efca0e77823dbe7039b3900a3
:1028bc001a1908a82b0004f0edfd079b01330793b0
:1028cc0094e7802ff9d1079b013307932b681a1dce
:1028dc001b682a6008aa137001230ba9300005f0ad
:1028ec001dfa82e7802fe8d10122079b0133079361
:1028fc000b9b049300930d9b0349d1e703946ee665
:0c290c0004180020d4960000da960000a9
:020000040000fa
:1029180008b4f0b584b00d00170002ab0022da80cd
:10292800099b002b16d00aab02938021b24c099a5e
:10293800c900200004f016fe06000100200006f081
:1029480089f832000021200006f064fd002f01d034
:1029580000233b70a94baa4a1a601e00a94c336891
:10296800013b5a1c00d130e12278591e002a01d1be
:102978000b00f6e7a14a136002ab06331b881bb2b3
:10298800a14a934200dc8be002ab9a1dd88800b2c2
:10299800d98809b2984b18180238007859180339a1
:1029a8000870118809b2108800b2591801390978dd
:1029b8001b18023b19701388013b1bb2138002ab32
:1029c800da8812b28c4b9b18013b1b78232b00d161
:1029d80006e102ab06331b881bb2012bbfdd02ab3d
:1029e800da8812b2844b9b18013b1b780a2bb6d1ac
:1029f80002abda8812b2804b9b18023b1b780d2b76
:102a0800add102ab06331b881bb2032b08dd02ab2a
:102a1800da8812b2784b9b18033b1b784b2b51d0aa
:102a2800754b1b78452b00d1a9e00d2b97d1724b24
:102a38005b782b2b93d102ab06331b881bb26e4af3
:102a48000021d154714b02201856002821d01900ba
:102a58000023cb569a008a18526801920133da0f84
:102a6800944663440122134062469b1a0b70013856
:102a78008870c02292000021019806f0cbfcc02289
:102a880092005d49019806f0fbfd0199604805f048
:102a9800c9ff002f00d192e002ab0022da805ee786
:102aa80002abd88800b2544bc018012103f066ff6e
:102ab800012800d053e702ab9a1ddb8801331bb213
:102ac80013807ce702abda8812b24b4b9b18043bad
:102ad8001b784f2ba4d102ab991ddb881bb2464a49
:102ae800d318013b002018700b881bb2d218023a89
:102af8001070874200d17ae085422dd029003e48e7
:102b080005f084fa0400280006f05afb01904149b8
:102b1800200005f0ddf80400022604e03d4900200d
:102b280005f0d6f80400002c14d02900200005f088
:102b38006dfa0028f2d0380006f042fb381832004f
:102b4800354906f05dfc6b4699886118380006f037
:102b58007ffbe3e7002044e002ab9c1ddb881bb24f
:102b68002549cb18053b00221a70228812b2053a73
:102b7800380006f045fc2088053880b231e01e4b4d
:102b88005b78522b00d0eae61b4b9b78522b00d087
:102b9800e5e602ab981ddb881bb2174ad318013b48
:102ba8000021197003881bb2d218023a11708f42a3
:102bb8001fd01a49380006f05dfd194811e0099b3d
:102bc800002b00d068e700200be00c4b012252429a
:102bd8001a60144800b204b0f0bc08bc01b0184731
:102be8001148064b1b680133f4d10e48f2e7002068
:102bf800f7e70b48f5e7c0460c060020c018002090
:102c0800ffff0700d3180020ff03000080170020f3
:102c18008c170020f4960000f096000012060020a1
:0c2c2800ffff0000fbff0000feff0000ab
:020000040000fa
:102c340030b587b00c000a2800d904e18000834b2a
:102c44001b589f460b7e0093814b00220021814834
:102c5400fff760fea07c002839d17e4d23680093e5
:102c64007d4b002200212800fff754fe238a0093a5
:102c74007a4b002200212800fff74cfe6368009382
:102c8400774b002200212800fff744fea36800933d
:102c9400744b002200212800fff73cfee3680093f8
:102ca400714b002200212800fff734fe638b009350
:102cb4006e4b002200212800fff72cfe45b2e37c76
:102cc400002b6fd06a490920fff7b2ff6ae06169ff
:102cd400fff7d8faa37c0093664b002200215d48dd
:102ce400fff718feb9e70b78002b2bd101256d42b5
:102cf4006388002b37d16368002b0fd0554d5e4b92
:102d0400002200212800fff705fe636800935b4b57
:102d1400002200212800fff7fdfd45b26369002b66
:102d240040d04c4d564b002200212800fff7f2fd05
:102d340063690093534b002200212800fff7eafd4a
:102d440045b22fe0434d504b002200212800fff7ed
:102d5400e1fd237800934d4b002200212800fff76a
:102d6400d9fd45b2c4e73b4d494b00220021280060
:102d7400fff7d0fd63880093464b00220021280012
:102d8400fff7c8fd45b2b6e7324c434b00220021a1
:102d94002000fff7bffd414b002200212000fff778
:102da400b9fd45b2280007b030bd8b6803934b686a
:102db40002934b7801930b780093394b0022002146
:102dc4002448fff7a7fd45b2ece7364b002200216b
:102dd4002048fff79ffd45b2e4e72f4b0022002176
:102de4001c48fff797fd45b2dce78b6804934b68fa
:102df40003938b7802934b7801930b7800932a4bbf
:102e0400002200211348fff785fd45b2cae70b787d
:102e140001934b680093254b002200210d48fff7d6
:102e240079fd45b2bee7224b59600025bae7204b35
:102e340019600025b6e71e4b1a680a605b684b6090
:102e440001256d42aee701256d42abe7e48c00003d
:102e540038350000483500005c350000703500004e
:102e64008035000094350000a8350000bc35000012
:102e7400314100004c3500002c360000443600007f
:102e84005c36000074360000cc350000e4350000e8
:102e9400fc350000143600008c360000a03600001b
:102ea400b0360000d0360000e036000000370000e5
:042eb400b41700202f
:020000040000fa
:102eb800f0b5d646474680b587b004900591039291
:102ec800029311ab1e78109b002b33d001235b4279
:102ed800109a136004f04cff051e2bd0012e10d061
:102ee800022e15d0082e13d0029b002b22d0039b54
:102ef800002b1fd00f9b002b1cd00e9b002b0dd13d
:102f080018e00f9b002b15d00e9b002b06d111e06b
:102f1800029b002b0ed0039b002b0bd02f683b018c
:102f2800db1b9b00754a92469a44504603f092fe7a
:102f3800002804d107b00cbc90469a46f0bd2b6817
:102f48009c461b0162469b1a9b006c4ad3185c6a1c
:102f5800186a002800d1cce0217823002c33002205
:102f680000290ad00132904200d1c2e01c002c3363
:102f780019002c3909780029f4d101232370002382
:102f8800a3622b681b061b0c614609016046091adf
:102f980089005a484118888d00040343ff200240e5
:102fa8001a4322628a8d013292b2554b9a422ed030
:102fb80063461b0161465b1a9b005049cb189a85f2
:102fc800059b63800e9b63600f9ba360039be3607c
:102fd800029b2361049ba36100232422a354233a68
:102fe800227763752675109b226a1a6053469b6a7e
:102ff800002b0ed03b01db1b9b00404ad3189b6a79
:10300800002b56d09a6a002a4fd11a0050e00122ac
:10301800cee753469c623b01db1b9b00374ad31823
:103028005b696a6993420fd0280014303b01db1baf
:103038009b00324a904698444346db685b6900210e
:10304800984743466a695a6102232377012e34d090
:10305800022e40d063682269e16860883e01f61b51
:10306800b600264dae19f668a5680095b668b04753
:1030780000281ed101235b42109a13603b01db1b21
:103088009b001e4ad318db681b6998472423e05429
:10309800e35c5a4253415a4202231340013b637591
:1030a800504606f00cf904e01a00936a002bfbd195
:1030b8009462504603f062ff3ce760883b01db1beb
:1030c8009b000e4ad318db681b68a26861689847a2
:1030d8000028eed1cee760883b01db1b9b00074a46
:1030e800d318db685b682269e16898470028e0d15b
:1030f800c0e7504603f042ff1ce7c046d815002041
:04310800ffff0000c5
:020000040000fa
:10310c0030b583b00c00102803d88000724b1b58cc
:10311c009f4601204042dce0704b002200217048a9
:10312c00fff7f4fb40b2d4e06e4b002200216c4858
:10313c00fff7ecfb40b2cce06b4b0022002168485f
:10314c00fff7e4fb40b2c4e00b780093674b00221e
:10315c0000216348fff7dafb40b2bae00091644b00
:10316c00002200215e48fff7d1fb40b2b1e00b78a2
:10317c000093604b002200215948fff7c7fb40b277
:10318c00a7e00b78002b38d00020012b00d0a0e05a
:10319c00534d544b002200212800fff7b7fb524b34
:1031ac00002200212800fff7b1fb63680093524b0b
:1031bc00002200212800fff7a9fba36800934f4bc6
:1031cc00002200212800fff7a1fb237b00934c4b2e
:1031dc00002200212800fff799fba37b0093434baf
:1031ec00002200212800fff791fb464b0022002112
:1031fc002800fff78bfb40b26be0394d3a4b0022b5
:10320c0000212800fff782fb364b0022002128000a
:10321c00fff77cfb636800933b4b002200212800e6
:10322c00fff774fba3680093384b002200212800a1
:10323c00fff76cfb237b0093354b00220021280009
:10324c00fff764fb637b002b01d140b241e0244cbf
:10325c00254b002200212000fff758fb1f4b0022ba
:10326c0000212000fff752fb40b232e00091294bc5
:10327c00002200211a48fff749fb40b229e0264bf7
:10328c00002200211648fff741fb40b221e0234bfe
:10329c00002200211248fff739fb40b219e0204b05
:1032ac005960002015e01e4b1960002011e01c4bea
:1032bc001a680a605b684b6000200ae000230b7000
:1032cc00184b0a0018490648fff720fb40b200e0f3
:1032dc00002003b030bdc046e8800000504b000019
:1032ec005c4b0000604b00006c4b0000784b000006
:1032fc00884b0000984b0000e04b0000f44b0000a2
:10330c00084c0000184c0000a84b0000bc4b0000ff
:10331c00d04b0000244c0000384c0000444c000002
:0c332c00c4170020504c00005c4c000056
:020000040000fa
:10333800f0b502008db00b20002a6ad055681168dc
:10334800ab7801934b7802932b7b002b3ed0002463
:1033580020002b889c46019b5b000393029b5e0028
:103368006746a3b29f4256d86b7b984200d87be051
:10337800cb6802995b181978013119701168536884
:103388004878c968085c997b88421fd169469d685e
:10339800029b0989e81803780391002b53d0013b5d
:1033a800dbb26e466f46b68800213e823e8a012413
:1033b800b44667468eb2b74247d8002cedd00370aa
:1033c8000023180051688978994247d8029b6946ba
:1033d8005b000a93019b56685b08013306936b46b2
:1033e8009b888b818b890b9300239c46039333889e
:1033f80003998b4244d8029b01990133dbb28b427b
:103408008941b0680b40c05c716808700020126880
:1034180053700db0f0bd062363438f68fb185f88b7
:103428004b689b5b9f420ad9fb1a9bb21f1c8342c5
:1034380000d2071cb8b2039b0134f61890e79f42ec
:10344800f9d2db1bf1e70f23abe7039fb74203d0a9
:103458006e5c9e4200d100240131aae71168c96858
:10346800c85401339bb2ade75b088342aed9cb6841
:1034780002995b1819780029a8d001391970a5e7b5
:103488000623039910684b438168cb1804931b7873
:10349800db065b0f40d16146406849004118059141
:1034a8000499059849880a9c0993015301999942fe
:1034b8002ed9002005995d004919089104000121c1
:1034c8000de09f420ad0059d6700ed5b0795089dba
:1034d8002f88079dbd4215d10131c9b20134019d24
:1034e800e7b2bd42edd8069c8c4204d9844206d985
:1034f8004118a14203db089b1b880993019b0133f8
:10350800dbb2d3e7079dbd42e8d20130c0b2e5e7a0
:103518006946049b898c5980039b0b9901339bb2a4
:0e352800039363468c4663449bb29c465fe768
:020000040000fa
:02353600fee7ae
:020000040000fa
:1035380041542b4d515454433d382c25640d0a00f9
:103548004f4b000041542b4d515454433d372c25cb
:10355800640d0a0041542b4d515454433d312c22e3
:103568002573220d0a00000041542b4d5154544339
:103578003d322c25640d0a0041542b4d51545443bf
:103588003d332c222573220d0a00000041542b4d97
:10359800515454433d342c222573220d0a00000057
:1035a80041542b4d515454433d352c222573220d43
:1035b8000a00000041542b4d515454433d362c25ec
:1035c800640d0a0041542b4d51545450524f5054dd
:1035d80058533d312c310d0a0000000041542b4d49
:1035e80051545450524f5054583d312c25640d0ab3
:1035f8000000000041542b4d51545450524f505428
:1036080058533d322c310d0a0000000041542b4d17
:1036180051545450524f5054583d322c25640d0a81
:103628000000000041542b4d51545450524f5054f7
:1036380058533d332c310d0a0000000041542b4de6
:1036480051545450524f5054583d332c2225732214
:103658000d0a000041542b4d51545450524f5054b0
:1036680058533d31372c310d0a00000041542b4d81
:1036780051545450524f5054583d31372c25640df5
:103688000a00000041542b4d515454444953434fb0
:103698004e4e3d300d0a000041542b4d51545443b9
:1036a8004f4e4e3d310d0a0041542b4d5154544c50
:1036b80057543d25642c25642c222573222c222561
:1036c80073220d0a0000000041542b4d51545443fd
:1036d8004f4e4e3d300d0a0041542b4d515454501d
:1036e80055423d25642c25642c25642c2225732203
:1036f8002c222573220d0a0041542b4d515454534a
:1037080055423d222573222c25640d0a0000c0462f
:020000040000fa
:10371800f0b40125ed070f005f405ad48b4200d169
:10372800824205d950404240504059404b40594090
:103738004e18760ddf187f0d3bd0741c640529d018
:10374800f41b352c26d80e0ddb022b43db0ac902ed
:103758002943c9121700202c1ed2e741e2405740e6
:10376800e3415a40a340e3405a400024801859419d
:103778000ad3b21c520521d0c207012f624117009b
:103788004008cb0718434908013636054208af41bf
:1037980060417141f0bc7047203c06d01f00e741f2
:1037a800e3405f400024012a6741c0186141ebd320
:1037b800dfe7002eeed129400020ebe70136310586
:1037c8000020e7e7e742e5d10020c143090dc9041d
:1037d800e0e76b400e00871a9e4104d26e40c01b82
:1037e800b141d21973414e18df18ac0ae642e9d24a
:1037f800760d7f0d31d0f41b362ccbd8b4460e0d88
:10380800db022b43db0ac9022943c90a012c32d83f
:1038180004d1d4075208df073a435b08ef0a644231
:10382800904199411ed0002239424dd1241940417e
:1038380049410124394204d101340018494139422f
:10384800fad06246a24204d9361b013e36058919d0
:10385800a0e7f10ac90700209ce736429ad1002068
:10386800002197e70200224394d0b842ded201003b
:1038780020002024e3d1202c13dd203ce241170056
:10388800a240e2405740e3415a40a340e3405a4037
:10389800012fbf410137174300227c4298419141d3
:1038a8000ce01700e741e2405740e3415a40a3408b
:1038b800e3405a407c429041994100220f0303d2d1
:1038c800013e241940414941013e36054708ac41b3
:0838d80050417141f0bc704742
:020000040000fa
:1038e00070b56c4b9b7d002b19d06b4b9c6a694b60
:1038f0005b8b9b0714d5684b2022ff219954013222
:10390000fd399954644a2023d35c5bb2013300d162
:103910008de0614a2023d35c062b00d1a0e070bd6e
:103920005c4b5b8bdb0707d55b4b2022ff21995457
:103930000132fd399954e5e7564b5b8b5b0707d5a0
:10394000554b2022ff2199540132fe399954d9e771
:10395000514a2023d35c5bb2032b47d0042b11d0f8
:10396000022bcfd11369002b05d0908880b20021a3
:1039700004f0baf8c6e7484b988880b2012104f0f9
:10398000b3f8bfe7444a936912699a420dd0424a9c
:103990009268d05c3f4928228854591c3d4ad3691b
:1039a000002bfcd13c4b9961ace73b4b5b69002b96
:1039b0000ed0394b9b885b0001221343354a53627a
:1039c000d369002bfcd1344a20330321d15499e729
:1039d000304a5168c0239b020b435360d369002bcc
:1039e000fcd12d4a20330621d1548be72a4bd969cb
:1039f0005b69013b8b420cd0264ad369002bfcd17a
:103a0000254bda68234d2820285c50540131d961b8
:103a100078e7204a5068e023db0203435360d36910
:103a2000002bfcd11c4a20330620d054e4e720238d
:103a30000021d154174a5168c0239b020b435360a5
:103a4000d369002bfcd1134b83221a76124b5b6a8d
:103a5000002b00d163e7104b5b6a200098475ee7bc
:103a60001300002220215a5401315a54094b833249
:103a70001a761900533a4b8b1340102bfbd1064b8f
:103a80005b6a002b00d14ae7034b5b6a2000984732
:0c3a900045e7c046000c0042a8160020cc
:020000040000fa
:103a9c0041542b4448435053433d302c312c300d72
:103aac000a0000004f4b000041542b4e4554494630
:103abc00433d302c34302c222573220d0a0000009b
:103acc0041542b4448435053433d302c322c222537
:103adc0073220d0a0000000041542b4448435053fc
:103aec00433d302c312c310d0a00000041542b5336
:103afc004f434b4f3d322c25640d0a002b534f4343
:103b0c004b4f3a0041542b534f434b424c3d256c89
:103b1c00752c25642c25640d0a00000041542b5390
:103b2c004f434b42523d256c752c222573222c257c
:103b3c00640d0a0041542b534f434b424d3d256cb1
:103b4c00752c25732c25640d0a00000041542b5351
:103b5c004f434b544c533d256c752c25640d0a007a
:103b6c0041542b534f434b4f3d312c340d0a000025
:103b7c00256c750041542b534f434b434c3d256ce6
:103b8c00750d0a0041542b534f434b433d256c7527
:103b9c002c322c25640d0a0041542b534f434b43bc
:103bac003d256c752c312c25640d0a0041542b5489
:103bbc004c53433d25642c34302c25640d0a0000f5
:103bcc0041542b544c53433d25642c312c222573ea
:103bdc00220d0a0041542b544c53433d25642c3286
:103bec002c222573220d0a0041542b544c53433d77
:103bfc0025642c332c222573220d0a0041542b549e
:103c0c004c53433d25642c342c222573220d0a0081
:103c1c0041542b544c53433d25642c352c22257395
:103c2c00220d0a0041542b544c53433d25642c3433
:103c3c00312c25640d0a000041542b544c53433d48
:0c3c4c0025642c362c222573220d0a0062
:020000040000fa
:103c5800f0b587b0070005f0a7fa02220c255d4ce5
:103c68007d4323889343238005f09efa5a4e336898
:103c78005b685b195b68636405f096fa31684b68aa
:103c88005a191088554bd887062302205f438b6842
:103c9800db1919789f88014201d0052119701b781a
:103ca800db065b0f00d089e0917a4d4b09095b1860
:103cb8001b7a1b041f43137afa2b00d981e00433c3
:103cc8003f021b063f0a1f4305f06efaa76403274d
:103cd80005f06afa336843495b6822695b195b7ac5
:103ce8000a401b093b401b051343236105f05cfa9e
:103cf80033685b685b195a7a23883a403a4f120254
:103d08001f401743278005f04ffa07213368022622
:103d18005b685d19ea7a23690a40344912040b404a
:103d28001343236105f040fa2388314f334323803e
:103d38007b68002b48d005f037faa36c1b0e039361
:103d480005f032fa23691b051b0f049305f02cfac2
:103d580023889b059b0f059305f026fa2388b34318
:103d6800238005f021fa012325791d433543edb25f
:103d780005f01afa257105f017fa1e4b25691a681d
:103d8800082311780b43137005f00efa2369174abc
:103d9800134023610095059a174b049903987d6891
:103da800a84705f001fa23881e43268005f0fcf990
:103db8000122237f1343237707b0f0bdfc239b0325
:103dc80078e7ff231b067ee705f0eef9227f012343
:103dd800f0e7c046005800420400002002580042a4
:103de8004c8b0000ffffcffffffcfffffffff8ff3a
:0c3df8002417002000000020105800429a
:020000040000fa
:103e04002f736d6172745f7069645f6177732f00e3
:103e14005b4d5154545d3a417a7572652043656e29
:103e24007472616c20436f6e6e656374696f6e208b
:103e34005375636365737366756c210d0a00000026
:103e44005b4d5154545d3a506572666f726d696e84
:103e540067204465766963652050726f766973697b
:103e64006f6e696e67205365727669636528445086
:103e740053292e2e2e0d0a00246470732f72656749
:103e8400697374726174696f6e732f5055542f691e
:103e94006f746470732d72656769737465722f3ff4
:103ea400247269643d3100007b5c227061796c6f1f
:103eb40061645c223a207b5c226d6f64656c4964aa
:103ec4005c223a205c2264746d693a636f6d3a4dea
:103ed4006963726f636869703a415652313238448b
:103ee4004234385f434e414e4f3b315c227d7d006e
:103ef4005c2261737369676e65644875625c223a1b
:103f04005c0000005c2264657669636549645c2238
:103f14003a5c00005c22205c2200000025732f25ff
:103f2400732f3f6170692d76657273696f6e3d32d0
:103f34003032312d30342d31320000005c226f706c
:103f440065726174696f6e49645c223a5c000000ba
:103f5400246470732f726567697374726174696f16
:103f64006e732f4745542f696f746470732d6765a2
:103f7400742d6f7065726174696f6e73746174759a
:103f8400732f3f247269643d32266f7065726174c9
:103f9400696f6e49643d2573000000000000c0464f
:020000040000fa
:103fa40008d1002806d1f54204d801d3002a01d152
:103fb4006d0d09d10020c143090dc904f0bdf9d12b
:103fc4001242f7d1640df5d00020c14349054908d8
:103fd400a6e000206146f0bdf0b50127ff070e0002
:103fe4005e403e40b446be0a4c18dd18f442d7d2b7
:103ff400f542e4d2640decd06d0dead06419c90227
:104004003943460dc0023143db023b43db0a10b4a3
:104014008e4685b297b26f43140c6c433e0ca419c0
:10402400260c2404bfb227439cb26c43a419190c78
:104034006943250ca4b249190d04090c6419000c38
:1040440095b245433e0c76193743bfb2360c150c76
:104054004543ad19a6b2240cad192e0437432e0cda
:1040640036199db24543ad19acb22e0c89191d0cfd
:1040740045436d182e04290c3443704680b295b222
:1040840045433e0c76193743bfb2360c150c4543f5
:10409400ad19a6b2ad19240c2e0437432e0c3619d3
:1040a4009db24543ad19acb22e0c89191d0c454384
:1040b4006d182e043443290c75462d0c90b26843b8
:1040c4003e0c80190604bfb23e43070ca0b23f1851
:1040d400120c6a43d019020c80b2240ca4189ab2b0
:1040e4006a43121914042043120c89181b0c6b43e5
:1040f400c91810bc01273d05294203d1b619404116
:104104004941013cff077d0d013d641b0bdb6d0044
:10411400ac4209da240500254208be4168416141e8
:0a41240066463143f0bd54e74ee754
:020000040000fa
:02412e00fee7aa
:020000040000fa
:1041300070b5c6b00c00012800d185e0002807d07a
:10414000022825d0032815d00320404246b070bd78
:1041500003ab00221a70434a04924349002003f043
:10416000f9f84249002003f0f5f803a90620fef70c
:1041700061fde9e703ab00221a705a709a703c4a5d
:1041800004923c4a059219000720fef753fddbe735
:104190003949200003f03eff051e34d03749200086
:1041a00003f038ff041ecfd0354903f033ff002859
:1041b000cad0002303703249280003f02bff0028e7
:1041c000c2d000230370123523000f3306ae2a003d
:1041d0002c49300005f061f82b4c00962b4b002247
:1041e00000212000fef798fb0095294b00220021ba
:1041f0002000fef791fb00210520fef71bfd254b5b
:1042000001221a70a0e72449200003f003ff041ed6
:104210009ad01b4903f0fefe002800d194e7002548
:1042200005702200123206ac1c49200005f035f85a
:1042300003ab1d705d709d700494194a05921900be
:104240000720fef7f7fc7fe700210920fef7f2fccc
:10425000144b5b68002b00d176e70e490520984788
:1042600072e7c046043e0000143e0000443e0000d9
:104270007c3e0000ac3e0000f43e0000083f000021
:10428000183f0000203f0000483500009435000032
:104290005c3500000a180020403f0000543f000039
:0842a000a03f0000b41700204c
:020000040000fa
:1042a80030b5a3b00c000b2800d983e08000434b45
:1042b8001b589f46424b02aa00214248fef728fba2
:1042c80040b223b030bd404b002200213d48fef7ec
:1042d8001ffb40b2f5e700230b703c4b0a003c493a
:1042e8003848fef715fb40b2ebe700230b70394b5b
:1042f8000a0039493348fef70bfb40b2e1e70023d7
:104308000b70364b0a0036492e48fef701fb40b2c7
:10431800d7e7344b002200212a48fef7f9fa40b2c9
:10432800cfe70b680093304b002200212548fef7a9
:10433800effa40b2c5e70b6800932c4b002200212e
:104348002048fef7e5fa40b2bbe70091284b00226f
:1043580000211c48fef7dcfa40b2b2e700230b70dc
:10436800244b0a0024491748fef7d2fa40b2a8e7be
:10437800144d0091214b002200212800fef7c8fab5
:1043880000941f4b002200212800fef7c1fa009478
:104398001c4b002200212800fef7bafa40b290e731
:1043a80000230b70184b0a0018490648fef7b0faac
:1043b80040b286e70120404283e7c0468c8a00006d
:1043c800905100009c510000a0510000a85100002d
:1043d800b4510000bc510000c8510000d051000089
:1043e800d8510000e0510000ec510000fc510000e1
:1043f8000c52000020520000305200003c520000d5
:104408004c52000060520000705200007c520000c4
:020000040000fa
:1044180030b585b0474b1b78012b1dd0002b06d03b
:10442800022b3ed0032b00d179e005b030bd03212b
:10443800002000f029fe3f4b5860431c03d13d4b40
:1044480003221a70f1e73b4c220014323a4904f077
:10445800a5f801232370e8e701220021fe2004f0db
:1044680029fb002803d1334b03221a70dde7012012
:1044780004f0f8fc02220221e62004f01bfb0028cd
:10448800f1d0322004f0eefc0123642200212b48f5
:1044980003f0cefa274bd86001225a7501321a7000
:1044a800c3e7244b1b69012bbfd1224c0025256192
:1044b80001220021f32004f0fdfa322004f0d2fc9e
:1044c8002575606808340094022303aa402104f08b
:1044d80028fd184a137d012bfcd103a90a78120282
:1044e8004b781343134c2383238b03229343238357
:1044f800208b80b204f0f7fcde21890501f0b2fdc3
:1045080003f010fe0e4a0f4bfff764fd0e4a0f4be7
:1045180005f018f804f05bfb80b2e08285e7054bf4
:1045280000225a7502321a700949002002f00eff63
:104538007be7c046f0160020819100002996000014
:10454800d7a3703d0af76540cdcccccccc6c4740a6
:04455800008e0000d1
:020000040000fa
:10455c000122d20703004b403dd430b4431a01d2a0
:10456c00c01ac9184b004400240eff2c29d0002c73
:10457c0024d01b0e20d0e31a182b1ddc090211438a
:10458c00c40d000210435d4219350a00aa40d2093d
:10459c00d940451801d36d080234013ce405280ac2
:1045ac000121c9072d062a438a4160414100090ea9
:1045bc00ff2901d3c00dc00530bc7047c00fc00728
:1045cc00fae742001823da41ff2af5d07f200001d8
:1045dc000c300005f0e7a4465140431a02d2534078
:1045ec00c01ac9184b00090211431b0e4400240ebb
:1045fc00ff2c41d0002b10d05b421b19012b10d388
:10460c0022d1c30d4002401a10d3db050100400a31
:10461c00c90591415841644670472442fbd10020a2
:10462c00f9e7c30d40024900401af4d000210131d2
:10463c004000fcd38c4204d95b1adb05400ac0183d
:10464c00e9e7180ac007e6e7192be4d801330c0098
:10465c00d940dc414c40012c4941c30d00021043b0
:10466c00441a01d4a4006408013bdb05200a24068b
:10467c009441584164467047ff2b01d04102cad087
:0a468c007f2000010c300005c5e797
:020000040000fa
:02469600fee73d
:020000040000fa
:10469800f7b58021424a434c1369c90023400b43b4
:1046a800136153692340194351610b24002844d0f6
:1046b80003680c2419880023009301939ab291424d
:1046c8003dd8009b0224002b37d0019b009a1b0485
:1046d8001a439446002001210f24334f0e376346b6
:1046e800c3400b4211d0c35d1f2b3ad82f4d5a0837
:1046f80052190b4231d010251678264035431570d3
:104708002b4a9b181a780a431a7001302028e6d1e0
:104718000024284d04f048fd274f2c803e7aa642fd
:1047280031d104f041fd6b469b883400ab8204f024
:104738003bfd009bab6101233b722000febd2200c4
:104748005a434568019eaa18158852682e43009d51
:104758000196154300950133b0e71578a5430d433d
:10476800cde7203bdbb2154d5a0852190b4206d053
:1047780010251678264035431570114ac1e715787b
:10478800a5430d43f8e704f00ffdab8a019a1a43dd
:10479800aa8204f009fdab69009a1a43aa61cce722
:1047a80000500042fff8ffff4c8b00003000004132
:1047b800400000410058004224170020b00000418a
:0447c800c0000041ec
:020000040000fa
:1047cc00f0b58fb00d934b680c9006938b680d0071
:1047dc000793cb6816000393069b0f68002b44dbf2
:1047ec0002239f4310233b400a93079b04930a9b8d
:1047fc00002b07d0726833681343079a02d013005a
:10480c00023b049308233b400b935a1e9341049a9a
:10481c00d31a04933368039a0893736809932b692a
:10482c005c1e00231355069b0593012c20dc0a9b70
:10483c00002b51d10b9b002b03d02023039a013c5e
:10484c0013552b6900975a1e039b121b19190c98b0
:10485c00079b02f0c6fc0c9b5b68db0503d56b6801
:10486c00984200da18000fb0f0bd01230693b9e7a7
:10487c00089b099a13430bd1059b002b08dc069a65
:10488c00049b9b1a059a9b18002bd0ddbb07ced539
:10489c000f23089a013c134018005730092b01dcf8
:1048ac00303318000d9b413b192b06d820230343b2
:1048bc00613b192b01d804f079fe039b1855059b1d
:1048cc00013b0593099b1a07089b1b091a43099b7b
:1048dc0008921b090993a8e70cce1343aad0039b9b
:1048ec000d9a1b19013b1a703023039a023c135585
:0248fc00a0e733
:020000040000fa
:0248fe00704701
:020000040000fa
:10490000414b5a6852031b68db0c13439b029b0a02
:104910003e4a93634223137500235375110004220a
:104920008b691a42fcd139491022cb681a42fcd05b
:10493000364a137d80210b431375354b00229a6153
:104940001a61344b344a1a62190004224b681a4225
:10495000fcd1304b314a5a62190008224b681a4286
:10496000fcd12c4b2e4a9a62190010224b681a4235
:10497000fcd1284a98234121d150100057314022c0
:1049800043581a42fcd0234acc234021d150100076
:104990008c31402243581a42fcd01e4ad423402175
:1049a000d15010009431402243581a42fcd0194a89
:1049b000d8234021d15010009831402243581a4248
:1049c000fcd0144af8234221d1501000b6314022c5
:1049d00043581a42fcd00f4afc234221d150100008
:1049e000ba31402243581a42fcd00a4a8a235b005b
:1049f0004121d15010001900402243581a42fcd0e6
:104a0000084b094ada6170472060800000100040be
:104a100000140040001c00400601010006210c00ab
:0c4a200006010c00000800401b90400044
:020000040000fa
:104a2c0070b53b4b1b78002b02d0022b0dd070bd08
:104a3c0004f0f4fa012364220021364802f0f6ff58
:104a4c00334b586002221a70f1e7314b9b68012bf3
:104a5c00edd12f4b00229a6004f0f8fd0028e6d02f
:104a6c0004f0e2fd04f0a0f92b4904f061fd2b4c9d
:104a7c00206021682a4d2868fff76afd28602068ad
:104a8c00284b196804f054fd274b186020682e68d9
:104a9c001d68264b196801f0e3fa041c244b1968b5
:104aac00301c01f0ddfa011c201cfff751fd041c29
:104abc00204b1968281c01f0d3fa011c201cfff7ad
:104acc0047fd03f093fc04f06ff91b4b186018685a
:104adc001a4904f04cf800280ed0174b184a1a60eb
:104aec000e4b1a680f4b1a60134b186804f0a6f99a
:104afc0080b204f00ffb9ae70f4b1868002104f00a
:104b0c004df80028ecd00c4b00221a60e8e7c046a8
:104b1c0058170020659600000000c041e4170020e3
:104b2c00f4170020e8170020f0170020cc18002004
:104b3c00c8180020c4180020ec17002000004743c0
:044b4c009a1933433c
:020000040000fa
:104b500041542b575354413d310d0a004f4b000037
:104b600041542b575354413d300d0a0041542b57ab
:104b700041503d300d0a000041542b574150433df8
:104b8000342c25640d0a000041542b5753544143e3
:104b90003d352c25730d0a0041542b574150433da0
:104ba000352c25640d0a000041542b5753544143c2
:104bb0003d312c222573220d0a00000041542b5751
:104bc000535441433d332c222573220d0a0000002b
:104bd00041542b57535441433d322c25640d0a0058
:104be00041542b574150433d312c222573220d0a4d
:104bf0000000000041542b574150433d332c2225e7
:104c000073220d0a0000000041542b574150433dd0
:104c1000322c25640d0a000041542b5741503d3180
:104c20000d0a000041542b57494649433d31302c71
:104c3000222573220d0a000041542b5753434e3d49
:104c4000300d0a0041542b5753434e3d310d0a009d
:104c500041542b57494649430d0a00002b574946fa
:044c600049433a008a
:020000040000fa
:104c640030b58bb0364b1b78012b30d0002b05d0e0
:104c7400022b37d0042b5ad00bb030bd02f0fef813
:104c840005a9304b0a0031cb31c2186810609b88eb
:104c940093800520fff706fb2b490d20fef734fa1d
:104ca40001ac002301930493284a0292284b0393f6
:104cb40003232373012565732649002002f048fb72
:104cc40021000320fef720fa1d4b1d70d4e70123b9
:104cd40064220021204802f0adfe194b58600222e4
:104ce4001a70c9e71d4b1b78022b02d0fcf706fd96
:104cf400c2e7134b1b7a002bf8d004f09ffc00286a
:104d0400f4d004f095fc03b28021154c154ac90077
:104d1400200004f0b5fa05a900230b704b708b70ca
:104d2400114b4b608c600720fdf782ffdee7044bdc
:104d340003221a700d49002002f00afb9ce7c046ca
:104d440048170020dc680000e1650000546800009a
:104d54005c680000686800002d87000013180020bc
:104d64000c0a00208c680000a8680000b8680000e5
:020000040000fa
:104d740070b5002841d00468002900d13649630089
:104d840099423cd3354b9c423bd8080004f0adf823
:104d9400051c200004f0a9f8011c281c01f03afeaf
:104da400061c2f49281c01f05ff92e49fff7d4fb9c
:104db400011c301c04f0c0fb04f044f805002a4b2d
:104dc4009c4209d8ff235b00ff209d421cd8fe387b
:104dd400012d19d9680817e07e23ff33984212d8b1
:104de400032836d94000032101f0f0fe0602032116
:104df400280001f0ebfe304306e0002028e000200c
:104e040026e0002024e019481749a142894149427b
:104e1400174a13680224a3431360d369002bfcd1ff
:104e2400134bd8601a6813480240090611431960ed
:104e34001a6802210a431a601a00d369002bfcd1b4
:104e44000b4b10225a831a00d369002bfcd101208a
:104e540070bd0948d8e7c046006cdc0240420f0030
:104e640095bfd63300002041801a06007fff000062
:0c4e7400000c0042fffffffc01020000e8
:020000040000fa
:104e8000000102040703060500ffffffffffffff0d
:104e9000ffffffffffffffffffffffffffffffff22
:104ea000ffffffffffffffffffffffffffffffff12
:104eb000ffffffffffffffffffff000102030405ed
:104ec00006070809ffffffffffffff0a0b0c0d0e8f
:104ed0000f101112131415161718191a1b1c1d1e6a
:104ee0001f20212223ffffffffffff0a0b0c0d0ee7
:104ef0000f101112131415161718191a1b1c1d1e4a
:104f00001f20212223ffffffffffffffffffffff07
:104f1000ffffffffffffffffffffffffffffffffa1
:104f2000ffffffffffffffffffffffffffffffff91
:104f3000ffffffffffffffffffffffffffffffff81
:104f4000ffffffffffffffffffffffffffffffff71
:104f5000ffffffffffffffffffffffffffffffff61
:104f6000ffffffffffffffffffffffffffffffff51
:104f7000ffffffffffffffffffffffffffffffff41
:0a4f8000ffffffffffffffffffff31
:020000040000fa
:024f8a0070476e
:020000040000fa
:104f8c00f0b5de4657464e464546e0b583b0804602
:104f9c0000296ed00024384f0726384b9c469b4680
:104fac009946009108e03648415549468a60621c92
:104fbc000134009991424cd97a683240012a16d0ba
:104fcc009d68da6892466a1c19698a4289410a40ce
:104fdc0092453fd04146095d786830400128e2d1c6
:104fec006d0027484155013500214155dde76246ea
:104ffc009568d26892466a1c614609698a42894161
:10500c000a40924526d0610001204044405c0002d9
:10501c0082464046415c50460143019178683040dd
:10502c00012809d0694609798a46154950464855e0
:10503c0059468a60621cbbe7690068460079104dce
:10504c00aa4668540d0001350199090a504641558c
:10505c00eee7140003f08eff002802d0064b01226d
:10506c009a75200003b03cbc90469946a246ab46cc
:10507c00f0bd0c00eee7c04600100042d414002036
:04508c002c120020c2
:020000040000fa
:1050900030b5002800d074e03b4a3423d35c012ba8
:1050a00002d00120404230bd1300342298545b7876
:1050b0005bb2022b45d1344b1b78002b41d0324bd5
:1050c0009b78002b44d1304b5b68002b47d12e4b93
:1050d0009d68002d4ed0db6918005c7918330022e2
:1050e000002c07d00132aa4244d01800183344796a
:1050f000002cf7d1012343710b0702d5224b012469
:105100009c70214c636801336360a38d1b04ff25f1
:105110002a401a430261a38d01339bb21b4a93427a
:1051200026d0194a938534230124d45400230360e4
:10513000042421430171126942618360c3600069e4
:10514000b1e7114a34230121d15401204042aae79a
:105150000d4a34230121d15401204042a3e70b071b
:10516000b5d5094a34230121d154012040429ae7a0
:105170000123d6e7044a34230121d15401204042bf
:1051800091e7012040428ee7d8150020ffff000084
:020000040000fa
:1051900041542b5253540d0a000000004f4b0000a5
:1051a000415445300d0a000041542b474d490d0a2a
:1051b000000000002b474d493a00000041542b47a6
:1051c0004d520d0a000000002b474d523a000000de
:1051d00041542b44490d0a002b44493a0000000079
:1051e00041542b54494d452c330d0a0041542b5446
:1051f000494d453d312c256c750d0a0041542b5409
:10520000494d453d322c256c750d0a0041542b54f7
:10521000494d453d332c222573220d0a0000000024
:1052200041542b4e45544946433d300d0a00000081
:105230002b4e45544946433a0000000041542b533d
:105240004e5450433d322c310d0a000041542b5333
:105250004e5450433d332c222573220d0a0000008a
:1052600041542b534e5450433d312c310d0a000014
:1052700041542b4d515454430d0a00002b4d5154b1
:0452800054433a0059
:020000040000fa
:10528400f0b5d6464f464646c0b50426344da8462a
:10529400a946334b9a465be04a46126a002a42d03a
:1052a400796a3b6a01209847bb6a01333a6b93429f
:1052b4009241134037e05246926a5200e0b22949c3
:1052c40088540132240a8c543ce003f065fe244bdc
:1052d4001b6a002bddd0224b596a3c23204ad35c45
:1052e400002b06d0936b9842d3d3136a00209847bf
:1052f400cfe71b4b9b6b9842cbd1194b1b6a002009
:105304009847c6e7184b1b7e334223d0164b1c8d9f
:10531400a4b2ab6a01332a6b9342924113404246d2
:10532400d26a9a42b8d00e4ad26a9a42ead00e4a57
:10533400516807220a40012abdd0094a926ae4b2a0
:1053440008498c54064a93623423d35c002bbcd1a5
:10535400034fd7e71cbc90469946a246f0bdc04611
:0c536400d4140020ac1100200010004206
:020000040000fa
:10537000f0b5d6464f464646c0b50426344da8463d
:10538000a946334b9a465be04a46126a002a42d04d
:10539000796a3b6a01209847bb6a01333a6b9342b2
:1053a0009241134037e05246926a5200e0b22949d6
:1053b00088540132240a8c543ce003f00bfe244b49
:1053c0001b6a002bddd0224b596a3c23204ad35c58
:1053d000002b06d0936b9842d3d3136a00209847d2
:1053e000cfe71b4b9b6b9842cbd1194b1b6a00201c
:1053f0009847c6e7184b1b7e334223d0164b1c8db3
:10540000a4b2ab6a01332a6b9342924113404246e5
:10541000d26a9a42b8d00e4ad26a9a42ead00e4a6a
:10542000516807220a40012abdd0094a926ae4b2b3
:1054300008498c54064a93623423d35c002bbcd1b8
:10544000034fd7e71cbc90469946a246f0bdc04624
:0c54500014150020ac12002000040042e3
:020000040000fa
:10545c00f8b5374c656b63689b6998476061606908
:10546c0003f006fea66ae76a0023020092197b414c
:10547c00a262e362002d51d02d4c3022a35c01338b
:10548c00a35403f015f9646b002c06d0a368002b11
:10549c0003d101250027264e11e0264d00242e00b5
:1054ac0021e0e06902f0e2fee368002b01d0206904
:1054bc009847746b002cf0d0a368002bedd12575a8
:1054cc006575a378002b02d1e368002be9d120008d
:1054dc0002f0daf8a378002be6d16770e4e7013428
:1054ec002035052c15d06301f3185b7d002bf6d00d
:1054fc006201104b9b1800225a75ab78012beed130
:10550c0061010c4b59186b688b60280000f066f930
:10551c00e5e7074930228b5c013b8b5404f0bcf867
:10552c00040000f0e3fc200004f0baf8f8bdc0461b
:08553c00581500200c1100209d
:020000040000fa
:10554400f0b5060085b00f0015001c008b4265d82d
:1055540001d1824262d82100280003f06ffe390095
:105564000090300003f06afe009b21001b1a1a0011
:105574002800039303f056fe00900191019bbb4267
:1055840046d802d1009bb34242d8009b019c039aa7
:1055940001200021f61aa74103f044fe039b002bcf
:1055a4002fd0019b009adb0754081c43019b5d0824
:1055b400039b9c46bd422ed801d1b4422bd8320065
:1055c4003b00121bab41012692185b410027b61821
:1055d4005f4101235b429c446346002bead180195e
:1055e4007941039a04000d003000390003f00efee7
:1055f400039a06000f0003f015fe241a8d412000c3
:1056040029000a9b002b01d01e605f6005b0f0bd2d
:1056140000200021c2e7b6197f41dae7002000210b
:02562400efe7ae
:020000040000fa
:025626007047cb
:020000040000fa
:10562800f0b5ce46474680b583b00125314ca0463b
:10563800314a304eff23994616e058002f4f3f5c01
:10564800bc466f466146b97101302c49085cf87157
:1056580001331ae06b4606331b8849460b40138515
:10566800244b1b7d002b20d1137e2b423dd0a068fc
:10567800e368984236d05768072038400128dcd0c4
:105688001e48c75c68468771013330698342804190
:1056980003401848c360506807230340012bd9d141
:1056a8006b4606331b881385dae703f03bfe114b84
:1056b8001b68002bbcd0434659681b7f002b08d0c1
:1056c8000c4b9b699842b3d30a4b1b68032098473d
:1056d800aee7084b9b699842aad1064b1b6803208a
:1056e8009847a5e7044b01221a7503b00cbc9046f5
:1056f8009946f0bdd4140020001000422c1200205e
:020000040000fa
:10570800f0b5ce46474680b583b00125314ca0465a
:10571800314a304eff23994616e058002f4f3f5c20
:10572800bc466f466146b97101302c49085cf87176
:1057380001331ae06b4606331b8849460b40138534
:10574800244b1b7d002b20d1137e2b423dd0a0681b
:10575800e368984236d05768072038400128dcd0e3
:105768001e48c75c684687710133306983428041af
:1057780003401848c360506807230340012bd9d160
:105788006b4606331b881385dae703f0d5fd114b0a
:105798001b68002bbcd0434659681b7f002b08d0e0
:1057a8000c4b9b699842b3d30a4b1b68032098475c
:1057b800aee7084b9b699842aad1064b1b680320a9
:1057c8009847a5e7044b01221a7503b00cbc904614
:1057d8009946f0bd14150020000400422c13002047
:020000040000fa
:1057e800f0b5de4657464e464546e0b585b081469b
:1057f800002853d0304b596b83689a4600290cd047
:105808008b6852460392002290469a4548d300225c
:1058180000238b460092019305e08360264b586372
:10582800012034e0e3465e46b66834000025009a5d
:10583800019b12196b41009201935e46b669b4460a
:10584800002e12d06646b66800210f00009a019b10
:10585800b6185f41474529d8e4d1039b9e42e1d958
:1058680060465946009a019b01e0300059464c4673
:10587800a0618c61002051468a1a4b469a609b6948
:10588800002b04d04a4691689a68521a9a6005b06b
:105898003cbc90469946a246ab46f0bd0020f6e7d0
:1058a800054b5863816100220120e4e760465946b0
:0c58b800009a019bdbe7c0465815002059
:020000040000fa
:1058c400575354414149503a000000005741504158
:1058d40049503a00464538300000000057535441bf
:1058e4004c443a00575354414552523a0000000088
:1058f400575354414c553a005753434e494e443a3a
:10590400000000005753434e444f4e453a000000f8
:1059140054494d453a00000050494e473a000000b2
:10592400444e535245534f4c56000000534f434b83
