:020000040000fa
:020000040004f6
:10000000f0ff00207d1204005f1304001f140400a1
:1000100000000000000000000000000000000000e0
:10002000000000000000000000000000b116040005
:100030000000000000000000b1160400b11604002a
:1000400000000000000000000000000000000000b0
:1000500000000000000000000000000000000000a0
:100060000000000000000000000000000000000090
:10007000000000000000000000000000690e040005
:10008000490d040000000000000000000000000016
:100090000000000000000000000000000000000060
:1000a0000000000000000000000000000000000050
:1000b0000000000000000000000000000000000040
:1000c0000000000000000000000000000000000030
:1000d0000000000000000000000000000000000020
:1000e000000000000000000000000000bd1104003e
:1000f000bd110400bd110400bd110400000000008a
:1001000000000000000000000000000000000000ef
:1001100000000000000000000000000000000000df
:1001200000000000000000000000000000000000cf
:1001300000000000000000000000000000000000bf
:1001400000000000000000000000000000000000af
:0c015000000000000000000000000000a3
:020000040000fa
:020000040004f6
:10015c00f8b5c046f8bc08bc9e4670478513040031
:10016c00f8b5c046f8bc08bc9e4670476113040045
:020000040000fa
:020000040004f6
:08017c0038030000010000003f
:020000040000fa
:020000040004f6
:100184000023f0b506001500b1b007910393079959
:100194000b78002b00d10ae101235b420c9310abd6
:1001a40000240e9380230b940d940f930b5d0bb1dd
:1001b400252b29d134b12200300001f0b0f9079b7e
:1001c4001b190793079b1a78252a00d0e4e040f214
:1001d400020c012110270133049307930798037835
:1001e4002b2b1ad025d8202b1ad0232b1dd02a2b09
:1001f40028d001f0f3f80d90079b1a78303a092ab9
:1002040031d801330793f7e70134cfe70b9b05930c
:100214000b4301300b930790e0e704230b9a0fe0a4
:100224000b9b0593059a08230ae00b9b05933b431c
:10023400efe72d2bead0302bd9d162460b9b0593e7
:100244001343e6e72b6801301a1d1b6807902a60e8
:100254000d93002b07da0b9a5b4205920122059954
:100264000d934a400b920b9bda0702d5022293436b
:100274000b93079b1a782e2a0ed10022581c0c923d
:1002840007905a782a2a27d1023307932b681a1d1c
:100294001b682a6005930c9307a801f0f9f8079be3
:1002a4000700187801f0edf9692800d182e034dc08
:1002b400632800d1d7e01adc252800d1e4e06128c6
:1002c40058d0049b01220793002352420c920b93b3
:1002d4000d9300930232e1e001f080f80c90079b4b
:1002e4001a78303a092ad7d801330793f7e76428f4
:1002f40060d06728e5dc2a00390008a801f0faf884
:10030400002800d1abe0079b0ba95a1c07921b786d
:1003140008aa300001f0c4f93de0702800d17be068
:1003240016dc6e2800d193e06f28cad12b0000227e
:10033400390008a800f0b0fb002800d18fe0079b2b
:1003440008aa01330ba93000079301f0a7f922e0b2
:10035400752840d078284ed07328b2d1802f00d091
:100364007de0079b2a6801330793131d2b601268f5
:10037400002384e02a00390008a801f0bbf8002813
:1003840000d16ce0079b0ba95a1c07921b7808aaa2
:10039400300001f085f92418039b1c19a34200dcea
:1003a4007ee04f223f4b1a6001235b420393039884
:1003b40031b0f0bd2b000122390008a800f06cfb1d
:1003c40000284cd0079b08aa01330ba930000793df
:1003d40000f0bdfbdfe72b000022390008a800f085
:1003e4005bfbe0b3079b08aa01330ba9300007931a
:1003f40001f054f9cfe72b000022390008a800f0df
:100404004bfb60b3079b5a1c07921b7808aa0ba9e5
:10041400300001f045f9bee72b000022f02108a8c6
:1004240000f03afbd8b1079b099a01330793089b64
:1004340013435bb91c4801f095f802000b9b1a4961
:1004440000930d9b300000f0d4fda4e77823dde792
:10045400039b39001a1908a82b0000f079fe079baa
:100464000133079398e7802ff9d1079b0133079352
:100474002b681a1d1b682a6008aa137001230ba994
:10048400300001f00ff986e7802fe8d10122079ba5
:10049400013307930b9b049300930d9b0349d1e70e
:1004a400039474e670810020941604009a160400e4
:020000040000fa
:020000040004f6
:1004b400f0b585b000930393009b02900c001600e6
:1004c400150001900f00002b00d0c9e08a424ad9e0
:1004d400100000f0a3ff48b12023019f1b1adf4046
:1004e400019b84408340854027430193aab22b0c8f
:1004f400b7fbf3f1160094461a004a434e43bf1a61
:10050400019a3f04140c27430a00be4207d97f19fd
:10051400013abd4203d8be4201d98a1e7f19be1bcf
:10052400b6fbf3f14b436446f61a6b464c439b8887
:1005340036041e430f00b44207d97619013fb54271
:1005440003d8b44201d98f1e76191204341b3a43de
:100554000a9b23b1c4401c6000230a994b6010001d
:10056400009905b0f0bd02b9ffde100000f056ff9f
:10057400b8bb0123a41b00932b0cb4fbf3f21f00a4
:1005840011005743aeb27143e41b019f24043f0c96
:100594003c439446a1420ad9012764197f42bc44d2
:1005a400a54204d8a14202d9023a94466419641ab5
:1005b400b4fbf3f77b43e41a6b467e439b88240425
:1005c4001c433900a64207d964190139a54203d84e
:1005d400a64201d9b91e641963461a04a41b0a432e
:1005e400b6e7202223000199121ad3408440d14057
:1005f400019a8540824021438c46290cb3fbf1f4d7
:1006040001920a00624326009b1a6246afb27e43ff
:10061400120c1b04134322009e4207d95b19013ab2
:100624009d4203d89e4201d9a21e5b199b1bb3fbba
:10063400f1f671435b1a614677438cb21b041c4389
:100644003100a74207d964190139a54203d8a7424a
:1006540001d9b11e641912040a43e41b00928be70a
:10066400009b8b420ad90a9b002b00d1abe0029a73
:1006740059601a60002300931a0070e7039800f091
:10068400cdfed8b9039ba34203d3029b02009e4232
:100694000ad8029b01229e1b039b0196e41a029b2b
:1006a400b342ad416d42671b0a9b0093002b00d1fe
:1006b40055e7019982c30023009350e720231b1ab6
:1006c40001933300019a039fd34087401f432300c3
:1006d4000199d340029a8440ca4022439446029a24
:1006e400390c8240b3fbf1f402920a008640624363
:1006f400009626009b1a6246bdb26e43120c1b0480
:10070400134322009e4207d9db19013a9f4203d8c2
:100714009e4201d9a21edb199e1bb6fbf1f463466f
:1007240061436543761a360499b20e432300b542f9
:1007340007d9f619013bb74203d8b54201d9a31e24
:10074400f61912041a436b461c88009b711b8c46d5
:10075400190c230096b2150c6c4373434d4371433b
:100764001e0c091971188c4202d9802464022d19b7
:100774000c0c9bb209046519c918ac4503d30bd101
:10078400029b8b4208d2009b013ace1ab1428941a6
:100794004942cf193100ed1b0a9b0093002b00d175
:1007a400dde6029b019c591a63465d1b029b8b424a
:1007b4009b415b42ed1a2b00c140a340c540194345
:0a07c4000a9b22c377e70a9b55e762
:020000040000fa
:020000040004f6
:1007ce00f0b5040148f20815c2f20005ac466444c7
:1007de00267bf6b246f20004c4f200143f27e55d14
:1007ee00edb2e0550f37e45da40702d10024002ed0
:1007fe005cd146f20004c4f200144e260327a7551e
:10080e00060148f20814c2f200043419023f27739d
:10081e0048f2e804c2f20004345b64054ed5c918f0
:10082e00340048f2e806c2f20006b4466444616041
:10083e0048f2e801c2f200010401615a090546d5e9
:10084e00d218210048f2e804c2f20004a446614422
:10085e008a6048f2e802c2f2000201018a5a920549
:10086e00920fd3409bb248f2e802c2f200029446c5
:10087e0061444b8046f20002c4f200124021535ce8
:10088e00022423435354516c536c9b049b0e082239
:10089e000a40134301244bb946f20002c4f200127f
:1008ae001169012383400b431361012446f20003b7
:1008be00c4f200133f229d542000f0bd040148f203
:1008ce00e806c2f20006b44664446160b0e7010176
:1008de0048f2e804c2f20004a44661448a60b8e714
:020000040000fa
:020000040004f6
:1008ee00f8b5002000f0c0fe41f2d951c0f204016b
:1008fe000022002000f05ffe41f2ed51c0f2040133
:10090e000022012000f057fe48f27412c2f20002db
:10091e0041f22801c4f2002101230120fff750ff0c
:10092e0048f20004c2f2000441f22805c4f2002588
:10093e0048f26a17c2f2000748f27516c2f20006b4
:10094e0014e0200000f009fe03002a002100002020
:10095e00fff736ff0fe000233b7048f26410c2f23f
:10096e000000fff752fa09e0fff743fa2000fff705
:10097e0048fa0028e5d13b78002becd148f27510ef
:10098e00c2f20000fff739fa0028edd000233b70c9
:10099e00317848f26410c2f2000000f013f848f209
:1009ae007412c2f20002012329000120fff708ff92
:1009be0043f20003c4f2000340f21c128021090529
:0409ce009950d1e784
:020000040000fa
:020000040004f6
:1009d200f8b5ce46474680b58146884648f20002c1
:1009e200c2f2000241f20063c0f2040303cb03c26d
:1009f2004346042b4fd84e4646444546072441f20f
:100a02000867c0f204070022b25648f20003c2f29d
:100a12000003e018390000f0befd2418e4b20135ed
:100a2200edb20136052deed14346c3b14d464f46d8
:100a32000137013bdbb2ff1841f20866c0f204063f
:100a42000022aa5648f20003c2f20003e018310065
:100a520000f0a1fd2418e4b20135bd42f0d148f204
:100a62000005c2f20005601941f21061c0f20401f2
:100a7200032200f0d8fd280000f075fd030041f2ca
:100a82002802c4f2002229000020fff79ffe0cbcbe
:0a0a920090469946f8bd0724c6e718
:020000040000fa
:020000040004f6
:100a9c0010b588293ad014dc81294ad003dc80298e
:100aac0047d0002010bd822910d08429f9d11968b3
:100abc002ab30a1d1a6000228b5e0360db174360a9
:100acc0010e0a0292ed00fdc9029ead11968072458
:100adc006ab30919a1430a0008321a600b684c6802
:100aec00036044600120dde7c02901d0f029d8d192
:100afc001a68111d1960136803600023dfe70c1dd1
:100b0c001c600b689bb203604260ebe7196822b172
:100b1c000a1d1a600023cb56cfe70c1d1c600b6816
:100b2c00dbb2f0e71a68111d19601368c5e70731cd
:100b3c00d0e719681ab10a1d1a600b68bde70c1dc5
:060b4c001c600b68dfe7ee
:020000040000fa
:020000040004f6
:100b5200f0b54b6889b005930b6807009c46079374
:100b6200cb680c008e6810685168cd0f0493002d7d
:100b720041d00b000200002150429941059b002bfd
:100b820007db022263469343079315b9079b5a0773
:100b920028d5731e07aa02920a22009301920b0023
:100ba2000200200000f063fa15b9079b5a071dd511
:100bb20001382d2305b9023b049a135423695a1ea6
:100bc200049b121a1918079b38000093330000f097
:100bd20011fa7b68db0503d56368984200da1800d6
:100be20009b0f0bd1b07db0ff31ad3e71b07e5d5ee
:0e0bf20001382023e0e7059b002bc2dac6e79e
:020000040000fa
:020000040004f6
:100c000070b548f2b403c2f200031b7d002b4ad03a
:100c100048f2b402c2f200029368516841f2000245
:100c2000c4f20022127ed2071fd599421dd941f28b
:100c30000001c4f20021072648f2b400c2f200000d
:100c4000012509e00268d25c8a62013344680a7ea9
:100c50002a420ad09c4208d94a683240012af1d17e
:100c600002685c00a25a8a62efe748f2b402c2f25c
:100c70000002936052689a4215d848f2b403c2f257
:100c8000000300221a755a6041f20002c4f20022e9
:100c900001211175db6833b148f2b403c2f20003dd
:080ca0001869db68984770bd7c
:020000040000fa
:020000040004f6
:100ca80010b548f2b403c2f200032c229b5c33b3a4
:100cb80048f2b403c2f20003da691b6a93421ed2f7
:100cc80048f2b403c2f20003986a41f20002c4f287
:100cd8000022916a1b6a546807222240012a0fd019
:100ce80048f2b402c2f200029269d154013348f2c8
:100cf800b402c2f200021362d2699a4208d010bd4f
:100d080048f2b402c2f2000292695c00a152ede717
:100d180048f2b403c2f2000300222c215a54da61cb
:100d280041f20002c4f20022583111755b6a002baf
:100d3800e5d048f2b403c2f200035b6a9847dee7e5
:020000040000fa
:020000040004f6
:100d480010b582b00023019346f20003c4f20013e9
:100d58003f229c5ce4b2012199540f329b5cdbb2c8
:100d68000193019b02209b070cd546f20003c4f2b5
:100d780000130131995448f20813c2f2000300220b
:100d88001a770138019bdb070dd546f20003c4f240
:100d980000134e220121995448f20813c2f20003ad
:100da80000221a77022048f20813c2f200035b6996
:100db80033b148f20813c2f2000399695b69984796
:100dc80046f20003c4f200133f229c5402b010bd47
:020000040000fa
:020000040004f6
:100dd80070b54ef20013cef2000340f20c315a58af
:100de8001202120ac024240622435a5048f2000272
:100df8001a6040f210329858ff26b043c0252843a5
:100e08009850802252021a601c315a581202120a53
:100e180022435a5040f600025a6040f22c32995848
:100e2800b1432943995041f20001596099580a4841
:100e380001404cf200000143995042f20001596010
:100e4800995806480840c02109040143995044f2c2
:100e580000025a6070bdc046ff00ffffffff00ffa1
:020000040000fa
:020000040004f6
:100e680010b582b00021019146f20003c4f20013cc
:100e78003f229c5ce4b299540f329b5cdbb2019335
:100e8800019b02209b070cd546f20003c4f2001315
:100e98000231995448f20813c2f2000300221a736f
:100ea8000138019bdb070dd546f20003c4f200139d
:100eb8004e220121995448f20813c2f2000300227d
:100ec8001a73022048f20813c2f200035b6833b1b8
:100ed80048f20813c2f2000399685b68984746f223
:0e0ee8000003c4f200133f229c5402b010bd60
:020000040000fa
:020000040004f6
:020ef600704743
:020000040000fa
:020000040004f6
:100ef800488100201c00000000000000e88000205d
:100f08006000000000000000b480002030000000f5
:100f180000000000648100200700000000000000bd
:100f28006b8100200100000000000000008000200c
:100f3800640000000000000074810020020000002e
:100f480000000000e4800020040000000000000011
:100f58006480002050000000000000006c81002028
:100f68000800000000000000000000000000000071
:020000040000fa
:020000040004f6
:100f780070b548f20813c2f20003002119705960d5
:100f880099601973197459619961197748f2e800e1
:100f9800c2f2000046f20002c4f20012506348f2a6
:100fa8002814c2f20004946348f28114c8f2811430
:100fb80054613f26915540f60031c0f280015164da
:100fc80040f209410180012119704d24032515556e
:100fd800915540f60026c0f28006566440f6090690
:0e0fe80006821974155540f60273138070bd11
:020000040000fa
:020000040004f6
:100ff600f0b51d00012389b014000e9a06001a40b0
:10100600039102920ab9a5420ad822000399300038
:1010160000f084faa54203d82500280009b0f0bde7
:101026002f1b01973a00102f00d91022202104a867
:1010360000f00bfb019b0f2b0ed80f2204a93a40a0
:10104600300000f06bfa029b002be6d122000399d8
:10105600300000f063fae0e7102204a9300000f047
:0a1066005dfa019b103b0193e4e7e3
:020000040000fa
:020000040004f6
:10107000f7b5040019000a9fe368666800933b68af
:10108000100001932369013b1c00002e00da0126a9
:101090000022009dea5435000123002c02dce3b15c
:1010a0002000febd02000a434ab9002d07dc089a61
:1010b000921b5219002af2dd019a9207efd5099b83
:1010c000099adb1700f06cf98c460099013c13007b
:1010d00030320a55013d6146dfe710233a689a43f2
:0410e0003a60dde7ae
:020000040000fa
:020000040004f6
:1010e40041f20003c4f2002340f20412c4f21002dd
:1010f4001a60164a9a81c02292025a6041f2000292
:10110400c4f20022d369002bfcd141f20003c4f2e3
:1011140000231a6802210a431a6041f20002c4f251
:101124000022d369002bfcd148f2b403c2f20003bd
:1011340000229a61da611a622c215a545a621a60a6
:101144005a609a601a75da60da8570472bf6ffffe9
:020000040000fa
:020000040004f6
:1011540010b584291fd007dc812915d0822922d01b
:10116400802911d0002010bd90291cd008dc8829ca
:10117400f8d119680c1d1c600b6803601a7010e02c
:10118400a02901d0c029edd119680c1d1c600b6881
:1011940003601a6005e019680c1d1c600b6803608d
:1011a4001a800120dfe719680c1d1c600b680360be
:0811b4001a60d2175a60f4e73b
:020000040000fa
:020000040004f6
:1011bc0010b541f20003c4f200239b7d1bb341f236
:1011cc000002c4f20022137edbb2927d52b2002ade
:1011dc001adb41f20003c4f200231a7ed2b29b7dcb
:1011ec00db0703d5d30701d5fff704fd41f200035c
:1011fc00c4f200231a7ed2b29b7d5b0703d5530742
:10120c0001d5fff74bfd10bd5bb2002be1da00f00e
:04121c007ff8dee792
:020000040000fa
:020000040004f6
:1012200000230e4a10b513600d4a0e4c13600e4a8f
:1012300013600e4a13600e4a13600e4a5362136124
:101240000133936000f035fa00f033fa0a4b9c4208
:1012500000d310bd08cc9847f8e7c0466c81002049
:1012600070800020680104006c80002064800020f1
:0c12700068800020748000206c010400e5
:020000040000fa
:020000040004f6
:10127c0010b540f6f763c0f20403984740f6f763e5
:10128c00c0f20403984700f019f940f20003c0f2d1
:10129c0004037f2293434ef60052cef20002936079
:1012ac0041f22123c0f20403984740f6f763c0f2e1
:1012bc000403984740f6f763c0f204039847fff71e
:0412cc0010fbfee72e
:020000040000fa
:020000040004f6
:1012d00030b51500012289b0524201920432ff322a
:1012e000029200b9684603900491002401b14c1e9b
:1012f0000594002906da4f220120074b40421a606c
:1013000009b030bd00220790027006901a00290033
:0c13100001a800f035f9f3e7708100201f
:020000040000fa
:020000040004f6
:10131c0010b541f20003c4f200235b8b072213408b
:10132c0003b910bd48f2b404c2f20004e38500f026
:10133c008ff841f20003c4f2002384221a752c2387
:10134c000022e254636a002bebd0a06a636a9847d0
:02135c00e7e7c1
:020000040000fa
:020000040004f6
:02135e00fee7a8
:020000040000fa
:020000040004f6
:1013600010b5054c227832b9044b13b1044800e0a3
:1013700000bf0123237010bd488100200000000041
:1013800000000000034b10b51bb10349034800e007
:1013900000bf10bd000000004c81002000000000d4
:020000040000fa
:020000040004f6
:1013a000002b11d1002a0fd1002900d1002802d032
:1013b0000021c943081c07b4024802a1401802904a
:1013c00003bdc046e902000003b4684601b50298b7
:1013d000fff770f8019b9e4602b00cbc7047c046f8
:020000040000fa
:020000040004f6
:1013e000030010b51a78202a0dd0110009390429fc
:1013f00009d900212b2a02d02d2a01d10131013334
:1014000000200a2404e00133ece760430133801a32
:0e1410001a78303a092af8d901b9404210bdc5
:020000040000fa
:020000040004f6
:02141e00fee7e7
:020000040000fa
:020000040004f6
:101420001c2101231b04984201d3000c10391b0a14
:10143000984201d3000a08391b09984201d30009d8
:10144000043902a2105c40187047c046040302022f
:0c1450000101010100000000000000008c
:020000040000fa
:020000040004f6
:10145c0041f20003c4f200235b8b5b0713d041f213
:10146c000003c4f2002380221a76793a5a831b7e39
:10147c005b0708d541f20003c4f2002304219a6ae9
:08148c001a7e0a42fbd17047f1
:020000040000fa
:020000040004f6
:1014940070b5040000200a4b4200d55c15b9d2187f
:1014a400507870bd216801300e78c0b2ae4204d1cc
:1014b400034b0131d218507821600a28ebd9f0e7a8
:0414c400ae1504005d
:020000040000fa
:020000040004f6
:1014c80010b50948016811b9436803b910bd040093
:1014d8008368064a9bb20c349b009b5842682000e4
:1014e800984780002018ede7f80e04001416040051
:020000040000fa
:020000040004f6
:1014f800002380290fdb812901dd83290bd10721f6
:10150800136807338b431900083111601a685b6848
:0a15180002604360012318007047d1
:020000040000fa
:020000040004f6
:1015220070b505690400954200d915005db12a0025
:10153200606900f078f8226963695b19551b002223
:08154200636125611a7070bda0
:020000040000fa
:020000040004f6
:10154a00002310b5934206d103201840421e904151
:0e155a009b08c01810bdc45ccc540133f2e7ee
:020000040000fa
:020000040004f6
:10156800037833b1030001331a78002afbd1181a23
:0815780070470020fce7c046ab
:020000040000fa
:020000040004f6
:1015800013b50400019201aafef7fcfd6368db06b7
:0815900001d50120404216bd07
:020000040000fa
:020000040004f6
:101598000eb403b503aa02ca019200f04bf802b0d8
:0615a80008bc03b0184767
:020000040000fa
:020000040004f6
:1015ae0068076c094c836a9074a07ac000806888c2
:0615be0000846c82008134
:020000040000fa
:020000040004f6
:1015c400000148f20813c2f200039c4660444160e3
:0415d400826070477a
:020000040000fa
:020000040004f6
:1015d800012800d0704748f26b13c2f200030122c1
:0415e8001a70f7e797
:020000040000fa
:020000040004f6
:1015ec00012800d0704748f26a13c2f200030122ae
:0415fc001a70f7e783
:020000040000fa
:020000040004f6
:10160000454550524f4d3a002564467c000000008d
:041610000d0a0000bf
:020000040000fa
:020000040004f6
:10161400651604004b1504009d1604009d16040075
:041624009d1604000b
:020000040000fa
:020000040004f6
:1016280010b52ab10023cc5cc45401339342fad1db
:0416380010bdc046db
:020000040000fa
:020000040004f6
:10163c0010b513000a000249fff744fe10bdc04666
:04164c00ffffff7f1e
:020000040000fa
:020000040004f6
:1016500032b10300c9b28218197001339342fbd131
:041660007047c046c9
:020000040000fa
:020000040004f6
:101664008a18914201d10020704700230b70013188
:02167400f7e796
:020000040000fa
:020000040004f6
:1016760010b5fff734fdfff77cfcfff7aafb10bda2
:020000040000fa
:020000040004f6
:0e1686000300413b192b01d820231843704765
:020000040000fa
:020000040004f6
:08169400286e696c2900250095
:020000040000fa
:020000040004f6
:04169c000020704773
:020000040000fa
:020000040004f6
:0416a000002070476f
:020000040000fa
:020000040004f6
:0416a400002070476b
:020000040000fa
:020000040004f6
:0416a8000020704767
:020000040000fa
:020000040004f6
:0416ac007047c0467d
:020000040000fa
:020000040004f6
:0216b000fee753
:020000040000fa
:020000040004f6
:0216b20070477f
:00000001FF
