:020000040000fa
:10000000f01f0020ed6c000061810000678100009e
:1000100000000000000000000000000000000000e0
:100020000000000000000000000000007338000025
:10003000000000000000000073380000d9710000cb
:100040007338000073380000056900007338000041
:10005000733800000000000073380000733800009f
:10006000733800006d3a000073380000153200004c
:100070001d4400000000000000000000000000001f
:10008000000000007338000073380000733800006f
:1000900073380000733800007338000073380000b4
:1000a000733800007338000000000000733800004f
:0c00b00000000000000000003180000093
:020000040000fa
:1000bc00f8b5c046f8bc08bc9e467047f56b00000e
:1000cc00f8b5c046f8bc08bc9e467047cd6b000026
:020000040000fa
:0800dc00f846000001000000dd
:020000040000fa
:1000e400000000000000000000000000000000000c
:1000f40000000000000000000000000000000000fc
:1001040000000000000000000000000000000000eb
:1001140000000000000000000000000000000000db
:1001240000000000000000000000000000000000cb
:1001340000000000000000000000000000000000bb
:1001440000000000000000000000000000000000ab
:10015400000000000000000000000000000000009b
:10016400000000000000000000000000000000008b
:10017400000000000000000000000000000000007b
:10018400000000000000000000000000000000006b
:10019400000000000000000000000000000000005b
:1001a400000000000000000000000000000000004b
:1001b400000000000000000000000000000000003b
:1001c400000000000000000000000000000000002b
:1001d400000000000000000000000000000000001b
:1001e400000000000000000000000000000000000b
:1001f40000000000000000000000000000000000fb
:1002040000000000000000000000000000000000ea
:1002140000000000000000000000000000000000da
:1002240000000000000000000000000000000000ca
:10023400000000000000000ff000000000000000bb
:1002440000000000000000fffe00000000000000ad
:1002540000000000000003ffff8100000000000018
:100264000000000000000fffffc0000000000000bd
:100274000000000000003fffffe10000000000005c
:100284000000000000007fffffe00000000000000d
:10029400000000000000fffffff00000000000006d
:1002a400000000000001fffffff800000000000054
:1002b400000000000003fe3ffe7800000000000084
:1002c400000000000007fc1ffc3c000000000000d0
:1002d400000000000007f81ff81e000000000000e6
:1002e40000000000000ff80ff01e000000000000e6
:1002f40000000000000ff007f00f000000000000f5
:1003040000000000001fe007e0078000000000007c
:1003140000000000001fe003c00780000000000090
:1003240000000000003fe001c003c0000000000026
:1003340000000000003fe001e001c00000000000f8
:1003440000000000003ff000e001e00000000000b9
:1003540000000000003f7800f000f0000000000002
:1003640000000000003e38007800f00000000000ab
:1003740000000000003c1c00380078000000000071
:1003840000000000003c1c003c003c000000000099
:100394000000000000380e001c003c0000000000bb
:1003a4000000000000300f000e001c0000000000e0
:1003b40000000000002007000f000c0000000000f7
:1003c400000000000020038007000c000000000073
:1003d40000000000000003c00380040000000000cf
:1003e40000000000000007c003c00000000000007f
:1003f40000000000000007e003c00000000000004f
:100404000000000000000ff007e000000000000002
:100414000000000000001ff00ff0000000000000ca
:100424000000000000001ff80ff0000000000000b2
:100434000000000000003ffc1ff800000000000066
:100444000000000000007ffc3ff8000000000000f6
:10045400000000000000fffe3ffc00000000000060
:10046400000000000000fffffffe0000000000008d
:10047400000000000000fffffffe0000000000007d
:100484000000000000003ffffffc0000000000002f
:100494000000000000001ffffff800000000000043
:1004a4000000000000000fffffe00000000000005b
:1004b40000000000000003ffff80000000000000b7
:1004c400000000000000003ffc00000000000000ed
:1004d4000000000000000000000000000000000018
:1004e4000000000000000000000000000000000008
:1004f40006003800000000000000000000000000ba
:100504000f007c000000000000000000000000005c
:100514000f807c00000000000000000000000000cc
:100524000f807c00000000000000000000000000bc
:100534000f80fc000000000000000000000000002c
:100544001fc0fc387ff3ffc1ffc1ffce039e7ff0c5
:100554001fc1fc38fff3ffe3ffe3ffce039e7ff8e8
:100564001fe1fc39fff3ffe3ffe7ffce039e7ffcaf
:100574001fe1fc39fff3ffe7ffe7ffce039e7ffc9b
:100584001ee3de39e00380e780e7800e039e701ce3
:100594001cf3de39c00380e700e7000fff9e701ce8
:1005a4001cf79e39c00380e700e7000fff9e701c14
:1005b4001c7f9e39c003ffe700e7000fff9e7fbc4e
:1005c4001c7f8e39c003ffc700e7000fff9e7ffc2e
:1005d4003c7f0e39c003ffc700e7000e039e7ff87f
:1005e4003c3f0e39e003ffe780e7800e039e7ff86f
:1005f4003c3e0e39fff380e7ffe7ffce039e700019
:100604003c1e0e39fff380e3ffe7ffce039e70002c
:100614003c1c0f38fff380e3ffc3ffce039e700042
:100624003c000f387fe380e1ff81ff8e039e700062
:1006340000000000000000000000000000000000b6
:1006440000000000000000000000000000000000a6
:100654000000000000000000000000000000000096
:100664000000000000000000000000000000000086
:100674000000000000000000000000000000000076
:100684000000000000000000000000000000000066
:100694000000000000000000000000000000000056
:1006a4000000000000000000000000000000000046
:1006b4000000000000000000000000000000000036
:1006c4000000000000000000000000000000000026
:1006d4000000000000000000000000000000000016
:1006e4000000000000000000000000000000000006
:1006f40000000000000000000000000000000000f6
:10070400000000000000001fe000000000000000e6
:1007140000000000000000fff800000000000000de
:1007240000000000000001fffe00000000000000c7
:1007340000000000000001ffff00000000000000b6
:1007440000000000000007ffffc0000000000000e0
:1007540000000000000007ffffc0000000000000d0
:1007640000000000000007ffffc0000000000000c0
:100774000000000000001fffffe000000000000078
:100784000000000000001fffffe000000000000068
:100794000000000000001fffffe000000000000058
:1007a4000000000000001fffffc000000000000068
:1007b4000000000000001fffffc000000000000058
:1007c4000000000000001fffffc000000000000048
:1007d40000000000000007fffe0000000000000011
:1007e40000000000000007fffe0000000000000001
:1007f40000000000000007fffc00000000000000f3
:1008040000000000000007fff800000000000000e6
:1008140000000000001c01fff00ffc0000000000bd
:1008240000000000003e01ffe01ffe000000000089
:100834000000000000ff01ffe03fff000000000097
:100844000000000001ff80ffe1ffff000000000046
:100854000000000001ff80ffe1ffff8000000000b6
:100864000000000003ffc0fffbffff80000000004a
:100874000000000003ffe07fffffff800000000096
:100884000000000007fff8ffffffffc000000000aa
:100894000000000007fffcffffffffc00000000096
:1008a4000000000007fffef83fffffc0000000004b
:1008b4000000000007fffff01fffffe00000000042
:1008c4000000000007fffff01fffffe00000000032
:1008d4000000000007fffff01fffffe00000000022
:1008e4000000000007fffff01fffffe00000000012
:1008f4000000000007fffff01fffffc00000000022
:100904000000000007fffff81fffffc00000000009
:100914000000000007fffffffc3fffc000000000d5
:100924000000000007fffffff81fffc000000000e9
:100934000000000007fffffff80fff800000000029
:100944000000000007ffffbff80fff800000000059
:100954000000000003ffff1ffc07ff000000000071
:100964000000000003ffff07fe03ff00000000007b
:100974000000000001fffe07fe01ff000000000070
:100984000000000000fff80fff01fc000000000061
:1009940000000000001f801fffc0000000000000d6
:1009a40000000000000e003fffc000000000000037
:1009b40000000000000000ffffe000000000000055
:1009c40000000000000000ffffe000000000000045
:1009d40000000000000001ffffe000000000000034
:1009e40000000000000001fffff000000000000014
:1009f40000000000000003fffff000000000000002
:100a040000000000000007fffff0000000000000ed
:100a140000000000000007fffff0000000000000dd
:100a240000000000000007fffff0000000000000cd
:100a340000000000000007fffff0000000000000bd
:100a440000000000000007ffffe0000000000000bd
:100a540000000000000003ffffe0000000000000b1
:100a640000000000000001ffffe0000000000000a3
:100a740000000000000001ffffc0000000000000b3
:100a840000000000000000fffe0000000000000065
:100a940000000000000000fffe0000000000000055
:100aa4000000000000000003c0000000000000007f
:100ab4000000000000000000000000000000000032
:100ac4000000000000000000000000000000000022
:100ad4000000000000000000000000000000000012
:100ae4000000000000000000000000000000000002
:020000040000fa
:10136400000020007f001010038801000298010093
:1013740004a8010008b8010006c801000bd8010048
:1013840008f80100020802000518020004280200ff
:1013940006380200074802000258020004680200ee
:1013a40002780200058802000698020006a80200de
:1013b40006b8020006c8020006d8020006e80200c9
:1013c40006f80200060803000618030006280300b6
:1013d40003380300034803000858030008680300a7
:1013e40008780300058803000b98030007b803007e
:1013f40006c8030007d8030007e8030006f8030043
:101404000608040007180400072804000338040031
:101414000448040006580400056804000978040020
:101424000798040008a8040006b8040008c80400cb
:1014340007d8040007e8040007f8040007080500bb
:10144400071805000b280500074805000758050084
:101454000668050004780500058805000498050061
:1014640009a8050007c8050005d8050006e8050019
:1014740006f80500050806000618060006280600fa
:1014840005380600064806000658060002680600ed
:101494000378060005880600029806000aa80600dc
:1014a40006c8060006d8060006e8060006f8060088
:1014b4000408070005180700042807000638070079
:1014c4000548070009580700057807000588070044
:1014d4000598070005a8070003b8070005c807001a
:1014e40008d8070003e8070000000000000000001f
:1014f40000000000000000000000000002020202e0
:1015040002020002020000000000000a0a0a0a00a7
:101514000000000000000000000000005050fc2803
:10152400287e28141400000000000004043e050571
:10153400061c24241f040400000000000000000016
:101544000c019200920052002c03a0049004900419
:101554000803000000000000000000001e2121120a
:101564004e5161619e000000000000020202020070
:101574000000000000000000000000100804040245
:10158400020202020404081000000001020404081c
:101594000808080804040201000000082a1c2a089c
:1015a400000000000000000000000000000808081f
:1015b4007f08080800000000000000000000000090
:1015c4000000000202020100000000000000000010
:1015d4000f000000000000000000000000000000f8
:1015e40000000002020000000000001010080808bb
:1015f4000404020202010100000000001e21212156
:10160400212121211e00000000000000080e08080e
:10161400080808083e000000000000001e212020e9
:10162400100c02013f000000000000001e212020d9
:101634001c2020211e0000000000000010181412bd
:10164400113f101010000000000000003f01011fb6
:10165400202020211e000000000000001c02011fa9
:10166400212121211e000000000000003f20101055
:101674000808040402000000000000001e212121cb
:101684001e2121211e000000000000001e21212136
:10169400213e20100e0000000000000000000404a1
:1016a4000000000404000000000000000000040426
:1016b4000000000404040200000000000080601820
:1016c400061860800000000000000000000000fe1a
:1016d4000000fe00000000000000000000020c30ca
:1016e400c0300c0200000000000000000e111008c1
:1016f40004020002020000000000000000000000dc
:10170400f8000603f2028904890489048904f203b7
:101714000600f8000000000000000000080814148f
:1017240022223e4141000000000000000f1111116f
:101734001f2121211f000000000000003c42010184
:10174400010101423c000000000000001f21414152
:10175400414141211f000000000000003f01010140
:101764003f0101013f000000000000003f010101b2
:101774003f01010101000000000000003c420101a2
:10178400017141427c0000000000000041414141e0
:101794007f414141410000000000000007020202b5
:1017a4000202020207000000000000000e08080800
:1017b40008080808070000000000000021110905be
:1017c40003050911210000000000000001010101ce
:1017d400010101011f0000000000000000000000e2
:1017e40083018301450145012901290111011101e9
:1017f40001010000000000000000000043434545d3
:101804004951516161000000000000003c428181a7
:10181400818181423c000000000000001f21212141
:101824001f01010101000000000000003c42818111
:10183400818181423c10e000000000001f21212131
:101844001f09112141000000000000003e41010178
:101854003e4040413e000000000000007f080808b0
:101864000808080808000000000000004141414148
:10187400414141221c00000000000000414141227e
:1018840022141408080000000000000000000000fa
:10189400210421045104510452028a028a028a0258
:1018a40004010000000000000000000041221414a4
:1018b40008141422410000000000000041222214f8
:1018c4000808080808000000000000003f20100875
:1018d400040402013f0000000000000e02020202a4
:1018e4000202020202020e000000000101020202d2
:1018f40004040808081010000000000e0808080876
:101904000808080808080e00000000000000000095
:1019140030004800840002010000000000000000c4
:1019240000000000000000000000000000000000b3
:101934000000000000007f0000000008100000000c
:1019440000000000000000000000000000001e2055
:10195400203e21312e0000000000000101011d2362
:10196400212121211f0000000000000000001e01b1
:10197400010101011e0000000000002020203e2182
:10198400212121312e0000000000000000001e2152
:10199400213f01211e0000000000001c02020f0272
:1019a40002020202020000000000000000003e21ca
:1019b400212121312e20201e0000000101011d23c0
:1019c4002121212121000000000000000200020268
:1019d40002020202020000000000000004000604eb
:1019e40004040404040404030000000101011109b7
:1019f40005030509110000000000000202020202b2
:101a040002020202020000000000000000000000c8
:101a1400000000009a01660222022202220222022f
:101a240022020000000000000000000000001d234e
:101a340021212121210000000000000000001e21be
:101a4400212121211e0000000000000000001d23b0
:101a5400212121211f0101010000000000003e217d
:101a6400212121312e2020200000000000000d0340
:101a740001010101010000000000000000000e113e
:101a8400010e10110e0000000000000002020f02ff
:101a9400020202020c0000000000000000002121ec
:101aa400212121312e00000000000000000011114e
:101ab4000a0a0a04040000000000000000000000fc
:101ac4000000000011011101aa00aa00aa004400ac
:101ad4004400000000000000000000000000110aa3
:101ae4000a040a0a1100000000000000000011119d
:101af4000a0a0a04040402020000000000001f1085
:101b0400080402011f00000000000018040404047b
:101b1400040304040404180000000004040404047e
:101b24000404040404040400000000030404040482
:101b34000418040404040300000000000000008ce6
:101b44009262000000000000000000070505050582
:081b540005050505070000006e
:020000040000fa
:101b5c00501a00201c00000000000000101d002086
:101b6c000300000001000000270100000c1d0020f4
:101b7c0001000000010000001a000000081d0020f8
:101b8c00010000000100000008000000041d0020fe
:101b9c00010000000100000003000000001d0020f7
:101bac000200000001000000000f0000c81c002013
:101bbc00040000000100000000002701fc1c0020b4
:101bcc000200000001000000000f0000cc1c0020ef
:101bdc000400000001000000a0002701f81c0020f8
:101bec0001000000010000006e000000f41c002049
:101bfc00010000000100000033000000701b0020f9
:101c0c0001000000000000006c1b0020020000001e
:101c1c0000000000681b0020010000000000000014
:101c2c00f01c00200200000001000000a0000000d9
:101c3c00ec1c00200100000001000000c7000000a7
:101c4c000c00002080120000000000000c1b002083
:101c5c000400000000000000021b00200200000035
:101c6c0000000000531b00200100000000000000d9
:101c7c000a1b00200200000000000000561b002080
:101c8c0002000000000000005a1b002002000000af
:101c9c00000000005e1b002002000000000000009d
:101cac00621b00200200000000000000591b0020f5
:101cbc0001000000000000005c1800205000000033
:101ccc0000000000101b00200400000000000000b9
:101cdc00d41a00200a00000000000000641b002041
:101cec0001000000000000005d1b0020010000004e
:101cfc0000000000601b002001000000000000003c
:101d0c005c1b00200100000000000000fc180020fb
:101d1c004800000000000000141b00201000000010
:101d2c0000000000611b002001000000000000000a
:101d3c00981a00200c00000000000000f819002088
:101d4c0058000000000000006e1b00200100000085
:101d5c0000000000441900204000000000000000ba
:101d6c00941600200001000000000000a41a0020be
:101d7c000c000000000000006f1b002001000000a0
:101d8c0000000000651b00200200000000000000a5
:101d9c00d01c0020040000000100000080bb0000eb
:101dac00581b00200100000000000000241b002034
:101dbc0004000000000000009417002064000000e4
:101dcc0000000000d41c00200400000001000000f2
:101ddc0000010000281b002004000000000000008f
:101dec00d81c00200400000001000000303030300e
:101dfc002c1b00200400000000000000dc1c002054
:101e0c000400000001000000ed0000006c1a00202e
:101e1c001800000000000000671b002001000000fb
:101e2c0000000000691b00200300000000000000ff
:101e3c00541b00200200000000000000c01c002009
:101e4c0006000000010000000100803000030000cb
:101e5c00fc1a00200600000000000000941c00206a
:101e6c00180000000100000000000000000040000d
:101e7c0000000004c01c0020941c0020fc1a002050
:101e8c00041b00200600000000000000e81c0020dd
:101e9c00030000000100000000010200501b0020a4
:101eac000300000000000000641c00202000000063
:101ebc000100000001000300c41c0020e81c0020ed
:101ecc000119060000000000041b0020fc1a002071
:101edc00501b0020b81c002008000000010000006e
:101eec00741c0020641c0020ac1c00200a000000a4
:101efc00010000000100040005001405140100009d
:101f0c00ec1a00200800000000000000b01a0020ad
:101f1c000c00000000000000e41c00200300000086
:101f2c000100000014010000841c002010000000bf
:101f3c0001000000ec1a0020ac1c0020b01a00209c
:101f4c00e41c0020301b00200400000000000000f6
:101f5c00e71c00200100000001000000250000002b
:101f6c00711b0020010000000000000084190020fb
:101f7c004000000000000000721b00200100000067
:101f8c0000000000341b00200400000000000000d2
:101f9c00731b00200100000000000000381b002013
:101fac000400000000000000741b00200200000070
:101fbc0000000000f8170020640000000000000082
:101fcc00761b002001000000000000003c1b0020dc
:101fdc000400000000000000771b0020010000003e
:101fec0000000000f61900200200000000000000b4
:101ffc00bc1a00200c00000000000000c4190020d6
:10200c003200000000000000e01a00200a0000006e
:10201c0000000000de1a002002000000000000009a
:10202c00ea1a00200200000000000000eb1c002057
:10203c00010000000100000001000000841a0020d3
:10204c001400000000000000000000200c00000044
:10205c0000000000401b00200400000000000000f5
:10206c00ac1800205000000000000000781b00207d
:10207c006c00000001000000841b0020801b00206d
:10208c00841b00200000000025000000941200209a
:10209c000004000000000000000000000000000030
:1020ac000000000000000000000000000000000024
:1020bc00000000007f810000000000000000000014
:1020cc000000000000000000996200000000000009
:1020dc0000000000000000000000000000000000f4
:1020ec00000000008c12002008040000000000001a
:1020fc00441c002020000000010000000100000032
:10210c0003000000000000000000000000000000c0
:10211c000000000000000000f41a0020f41a002057
:10212c000800000000000000441b00200800000014
:10213c0000000000e41b0020600000000100000013
:10214c00010000000300000000000000000000007f
:10215c000000000000000000000000009d65000071
:10216c000000000000000000000000004d81000095
:10217c00c36300000000000000000000000000002d
:10218c000000000000000000000000000000000043
:10219c000000000000000000000000000000000033
:1021ac00e01c002004000000010000000100000001
:1021bc004c1b00200400000000000000c81a002086
:1021cc000c000000000000000000000000000000f7
:020000040000fa
:1021dc00f0b587b00090009b0b20002b00d1e2e102
:1021ec00002603275b68049602931b8801960593cf
:1021fc000396049b059a93421ed1009b1a68137890
:10220c0059b200290bda0820002101268446049ccf
:10221c0088b2844200d9ffe07f210b401370039bee
:10222c00002b00d009e1019801231178002800d17e
:10223c005be10b4313705ae1009bb5009b685d1981
:10224c001e236a681178194001d001232b702b785a
:10225c00042b73d00ad8022b2ed043d8012b23d0b9
:10226c00049b033601339bb20493c2e7852b00d148
:10227c0082e0862b00d1a9e0072bf1d12989538864
:10228c0099425fd9c91a009b0298db6840799b5d23
:10229c0089b20341dbb28b4254d86b78002b69d1e5
:1022ac0001232b701770dbe703930029d8d102238d
:1022bc002b7008236b70d3e76978002910d05288f3
:1022cc00042904d92a810139697001237ce02b8906
:1022dc009342f8d002d9013b2b81f4e70133fbe7a1
:1022ec002f70bde7298953889942b9d0009ad268da
:1022fc0010d9cb1a0299925d49799bb20a41d2b29c
:10230c009a42add8029b1b79002ba9d007222a70c8
:10231c006b70dae792195b1a11789bb299429fd8cd
:10232c009378002b05d00499009803f089fc0028c1
:10233c0096d104232b70029b9b78e9e7298953885b
:10234c00994202d92f700023b4e7009a5b1ad26825
:10235c009bb2921911789942f4d29378002b06d043
:10236c000499009803f06cfc002800d078e76b7897
:10237c00002b47d0013bcbe7029b00991b7a0968e5
:10238c000b7128895388984207d986232b70029b9e
:10239c009b786b700123019316e0009a1b1ad2688c
:1023ac009bb291190a784978140001310c41012132
:1023bc00121bd2b201919a4200d251e786232b70a4
:1023cc00029b9b786b700b00039349e72889538819
:1023dc00984209d96b78002b01d12f7001e0013b99
:1023ec006b70012301933be7009a1b1ad2689bb2d6
:1023fc0091190a784978140001310c41121bd2b2a0
:10240c009a4204d285232b70029bdb78e8e76b7829
:10241c00002be2d0013bbce70c2500984d438068b3
:10242c0045196f683878304205d164462d78a5433c
:10243c0001d0304338700131e9e6029b597a00290a
:10244c0000d1f0e6802310785b420343137001291e
:10245c0000d0e8e600218bb20393049b88b2834240
:10246c0000d8e0e60c20009b48439b680825181810
:10247c00029303781c00ac4315d0852b01d0032ba1
:10248c002ed10325009bdf682b004b43fb189b7858
:10249c009c46002b07d000231e000595049c9c42f3
:1024ac0008d8002e1cd1012540680378ab4303707b
:1024bc000131d0e7039c9c420fd00c255d43029c5c
:1024cc002d5d042d01d0862d07d1059d5d437d1911
:1024dc00ad78654501d10126049b01339bb2dde744
:1024ec000123406805782b43e1e79943117052882a
:1024fc00584b11001b88c8318b4251d99b1a9bb287
:10250c009c466346c82b4dd96346c83b9bb29c4640
:10251c00009b1b685a88c8325a801a79002a00d04e
:10252c0070e05a79002a01d0013a5a719a79002a3e
:10253c0001d0013a9a71009a50688679002e07d022
:10254c005a79002a04d1078891b28f4234d85e712f
:10255c00c579002d07d09a79002a04d1068891b24a
:10256c00b1423cd39d71009b5b68da78002ac8d0dd
:10257c001f880c23002103207b4302938bb2bb42a8
:10258c00bfd20c22009b4a439b689a181578852d64
:10259c0004d15578002d38d0013d55700131ede74f
:1025ac00934202d3002007b0f0bd2b495918891a69
:1025bc00c829f7d9013ba1e70c21009c5143a46821
:1025cc0061180d78032d01d0082d06d14c680d89aa
:1025dc006488ac4201d901350d810132b4e70c217c
:1025ec0000985143806841180878032801d00828c6
:1025fc0006d14c6808896788874201d20138088166
:10260c000132ace7013a1a71ade7012405001470f0
:10261c0052684d431070009ad2685519ad78002d50
:10262c00bcd0029c02321c1901920394039a93426f
:10263c00b4d0019a1678ae4206d101225e68347885
:10264c00144201d01a703070019a0c33033201928b
:0c265c00ece7c046ea1a0020ffff000077
:020000040000fa
:102668000322f0b5ac4b89b01b7a0392002b14d02f
:10267800aa4b1b6804931b6805931b880693a84bf9
:102688001b6807930023029303936b461a89069be2
:102698009a4205d30222a04b1a72039809b0f0bde2
:1026a800029b07995b00cc5a062302994b43049975
:1026b8008968cd180c2302992e784b430499f606a5
:1026c8004968760fcb180193db7a042e00d96ce1a8
:1026d800300005f08dfc050013004c012d01e000d1
:1026e8000f21019a927a0a40934201d99e1af6b2b2
:1026f80034416c80029b01330293c6e71c41894a2e
:10270800a3b26b80af88934229d9874a9b183200bd
:102718009bb205998978402926d15b08002a25d0e3
:10272800002f27d0042b29d90f24b9043a123811c5
:10273800890f224020402740002e50d0cf2b01d9ae
:1027480000297cd1152b00d883e0002a7cd10022f7
:10275800914200d180e00139c9b20a227ce0714a75
:10276800d31a9bb20022d4e7002ad9d06f4a002698
:102778009742d7d181232b700e2303932b785a06c7
:1027880001d501230ce05bb2002b0adb0322059b79
:10279800db781340934208d1ff23019a1372112367
:1027a8002b70bf04bf0caf80a4e7022b07d10f2208
:1027b800019b5b7a9343019a53720923f0e7012b3b
:1027c800dfd10f22019b5b7a1a4030231343019a11
:1027d80053720d23e4e70131cf3bc9b29bb2cf2b33
:1027e80001d90329f7d1152b0dd90f2a06d10f22ac
:1027f80003290ad00131c9b2052206e00132153b8e
:10280800d2b29bb2efe70f2af1d0022b11d90f28d1
:102818000ad10f2a00d1c9e00132d2b2052003291a
:102828000bd0022bdbd827e00130023bc0b29bb2b1
:10283800ebe70f28edd003291ed10321f1e7013979
:10284800cf3bc9b29bb279e7013a153bd2b29bb2f2
:1028580078e7002a00d17ae7022b0bd9002804d1a7
:10286800002a11d11700100006e00138023bc0b25f
:102878009bb2f1e70028f3d009038cb2120214438b
:102888002743000107438ee7013ad2b20a20022b00
:1028980000d953e7f0e71c41019ba4b21f7a01203d
:1028a8000023ff2f14d17f23019a6c8013722b7899
:1028b800012b00d01ee7ff33ff339c4272d91a4b1d
:1028c800e418a4b2052c00d814e745232b7011e7af
:1028d8003900d9400026014201d11e0008230133e6
:1028e800dbb2072bf4d92100100003f069f80028a7
:1028f80004d00123b3401f43019b1f720123002e04
:1029080008d0013ef6b2b340019a127a9a43019b6d
:102918001a72cce72b70cae7841a00200400002042
:1029280008000020ff01000001feffffff3f00003c
:102938001c41019ba4b25f7a3e09032e15d02100e9
:10294800100003f03df800280ad1013601232b704e
:102958000f2336011f40019b3e435e726c80a6e741
:10296800002ef3d0013ef6b2f2e70226f0e71c4152
:102978000f26019ba4b25f7a3e4011d021001000bf
:1029880003f01ef8002806d1013ef6b201232b7091
:102998000f239f43dfe7032ef8d00136f6b2f7e79f
:1029a8000126f5e7044b1c1b8be7fee7032900d142
:0c29b80058e7100035e7c046ff010000a2
:020000040000fa
:1029c4000023f0b51600b1b0039007910493079d5e
:1029d4002b78002b00d1cfe001235b420c9310ab8a
:1029e40000240e9380230b940d940f932b5d002be6
:1029f40001d0252b30d1002c06d0290022000398c9
:102a04002d1904f023fc0795079b1a78252a00d07a
:102a1400a7e001331800002105930793243a0378b3
:102a24002b2b25d02dd8202b25d0232b26d00029a5
:102a340000d007902a2b2cd004f08cfa01250d909d
:102a44000020079a11000b780132303b092b64d91e
:102a540000282dd007912be00134c7e701230b99ff
:102a64000b430b9311000130d9e702230b99f7e7cd
:102a740004230b99f4e708230b99f1e710230b992e
:102a8400eee72d2bead0302befd00029d4d00790dd
:102a9400d2e7336801301a1d1b68079032600d932a
:102aa400002b05da01220b995b424a400b920d93ed
:102ab4000b9bda0702d5022293430b93079b1a78e8
:102ac4002e2a0dd100270c975a785d1c07952a2ac7
:102ad40025d10233079333681a1d1b6832600c93a7
:102ae40007a804f0a3fd079d0700287805f01afb4a
:102af400252800d1d5e06138172800d9dbe005f09e
:102b04006ffa1fdab63ea6a6a6da3edadadada9c5d
:102b14005e7fdadac6da4edada6e280092e7280047
:102b240004f018fa01210c902a0013780135303b87
:102b3400092b03d9002fd3d00792d1e70f00f3e775
:102b44003200390008a804f0d4fc002800d17be04e
:102b54006b1c079303982b7808aa0ba905f00bfbb1
:102b64002418049b1c19a34200dcb0e04f22594beb
:102b74001a6001235b420493049831b0f0bd330022
:102b84000122390008a801f06dff00285cd001354e
:102b9400039808aa0ba9079502f0e8fae0e73300c6
:102ba4000022390008a801f05dff00284cd001354f
:102bb400039808aa0ba9079505f0dbfad0e73300c0
:102bc4000022390008a801f04dff00283cd001354f
:102bd400039808aa0ba9079505f0cbfac0e73300c0
:102be4000022390008a801f03dff00282cd06b1cfe
:102bf40007932b78039808aa0ba905f0bcfaafe752
:102c040033000022f02108a801f02cff00281bd07b
:102c1400089b099a0135079513430cd12e4d2800c2
:102c240005f0caf8290002000b9b00930d9b039842
:102c340003f0fcf894e77823dce7049b39001a19c5
:102c440008a8330003f02ef90135079589e732000f
:102c5400390008a804f04dfc0028f5d06b1c07933c
:102c640003982b7808aa0ba905f085fa78e7802f3a
:102c7400ead1336801351a1d1b68326008aa137043
:102c84000123079503980ba903f0b2fe68e7802f90
:102c9400dad132680135131d3360126800230795b9
:102ca400f0e7802fd0d10b9b0135009301220b4913
:102cb4000d9b0795bbe7059b012207930023524216
:102cc4000c9206490b930d9300930232afe70494e0
:102cd4007de6c046481b00201f81000025810000be
:020000040000fa
:102ce40080b58ab000af0200bb1d1a801b217b187f
:102cf40000221a702423fb1800221a802223fb18b6
:102d040000221a802123fb1800221a702023fb18aa
:102d140000221a709d4b1b88ba1d12889a4200d259
:102d24002ee19b4b1b88ba1d12889a4200d929e1d7
:102d340000237b61954b1b88ba1d1288d31a9ab263
:102d440012203b1892001a80924b1a683b181b8879
:102d54000833d318fb607b18fa6812781a70fb6882
:102d640001331b781a00fb6802331b781b02d2184c
:102d7400fb6803331b781b04d3187b61854b1a68eb
:102d84007b69d318fb61844b1b78002b04d0824be6
:102d94001b78022b00d07ee02223fb187f4a128886
:102da4001a802623fb1800221a705ae02423fb18e9
:102db4007b4a12881a802023fb1800221a702723ca
:102dc400fb1800221a7038e020217b181b78002b96
:102dd40009d1fb695a1cfa612122ba181b781370b5
:102de4007b1801221a702123fb182022ba181b78a1
:102df40012781340dbb2002b0dd02423fb181b8860
:102e0400d8b22223fb181b88d9b2664b1b88dbb2cd
:102e14001a0002f005fa24217b181a887b18013263
:102e24001a802023fa18fb181b78db18137027214b
:102e34007b181a787b1801321a702723fa181b237f
:102e4400fb1812781b789a42bed322217b181a8869
:102e54007b1801321a8026217b181a787b180132dc
:102e64001a702623fb181b789ab24f4b1b889a4280
:102e74009cd3494b1b78002b07d12423fb181b88b8
:102e840001339ab2464b1a807de0444b2222ba1891
:102e940012881a8077e02223fb18414a12881a808c
:102ea4002623fb1800221a705ae02423fb183b4afd
:102eb40012881a802023fb1800221a702723fb187b
:102ec40000221a7038e020217b181b78002b09d1ce
:102ed400fb695a1cfa612122ba181b7813707b18fb
:102ee40001221a702123fb182022ba181b781278a9
:102ef4001340dbb2002b0dd02423fb181b88d8b25f
:102f04002223fb181b88d9b2264b1b88dbb21a007c
:102f140002f086f924217b181a887b18013a1a805a
:102f24002023fa18fb181b78db18137027217b1851
:102f34001a787b1801321a702723fa181b23fb18fe
:102f440012781b789a42bed322217b181a887b18e8
:102f540001321a8026217b181a787b1801321a70e4
:102f64002623fb181b789ab20f4b1b889a429cd3da
:102f74002423fb181b88013b9ab2084b1a8002e0f9
:102f8400c04600e0c046bd460ab080bd0a1b002012
:102f9400561b00200c1b0020531b0020621b00202a
:0c2fa4005e1b0020021b00205a1b0020b6
:020000040000fa
:102fb00080b500af824b00221a70824b00221a604b
:102fc000002003f0cdfb04f019fefa239b0018004b
:102fd00002f0f2fe02f0b4fe05f045f8fa239b0081
:102fe000180002f0e9fe01f0d3fc774b0022ff212c
:102ff000180002f047fb754b180001f007fb04f0c6
:10300000a1fc02f0cdfb6f4b1b681a00012313409b
:1030100000d083e08223db059821802292025a505f
:1030200004f024fc05f047f8031c181c04f078f8a1
:1030300003001ab2664b1a80654b00229b5e112b6f
:103040000edd634b00229b5e192b09dc012003f08f
:10305000a5ff604a604b1100180004f00bff2fe041
:103060005b4b00229b5e192b0edd594b00229b5eb1
:103070001e2b09dc002003f091ff584a564b11002b
:10308000180004f0f7fe1be0514b00229b5e1e2b44
:1030900009dd022003f082ff514a4f4b1100180056
:1030a00004f0e8fe0ce04a4b00229b5e112b07dc8b
:1030b00004f0d9ff4b4a484b1100180004f0dafe27
:1030c000434b00229b5e1a00434b4749474804f09c
:1030d000d1fe414a464b1100180004f0c0fe031e09
:1030e00007d1444b00229a5e394b00215b5e9a4225
:1030f00087d0394a3e4b1100180005f01cf8344bbc
:1031000000229a5e3b4b1a80002004f007fc374bec
:10311000af220521180001f0e9f872e78223db05f0
:103120009421802292025a5004f074fb324a334bad
:103130001100180004f093fe031e02d104f09bff5f
:103140005fe72f4a2d4b1100180004f088fe031e84
:1031500003d1012003f022ff53e72a4a274b110035
:10316000180004f07cfe031e03d1002003f016ffbc
:1031700047e7254a214b1100180004f070fe031e9a
:1031800003d1022003f00aff3be7204a1b4b11004a
:10319000180004f064fe031e02d104f064ff30e75f
:1031a0001b4a164b1100180004f059fe031e00d0f4
:1031b00027e7044b00221a6004f065ff21e7c046b0
:1031c000771b00203c1b002064130000e40000007b
:1031d000f619002060630000bc1a00206463000040
:1031e000686300006c63000070630000c419002075
:1031f000e01a0020de1a00208c630000d41a0020a0
:10320000946300009c630000a4630000b0630000ae
:04321000b86300009f
:020000040000fa
:1032140080b584b000af904b9b7ddbb2002b00d116
:1032240016e18e4b9b6afb608b4b5b8b9bb21a0047
:1032340002231340022b08d1884b2022ff219954ea
:10324400864b212202219954bbe0834b5b8b9bb2ba
:103254001a0001231340012b08d1804b2022ff21a7
:1032640099547e4b212202219954aae07a4b5b8b1c
:103274009bb21a0004231340042b08d1774b20225d
:10328400ff219954754b21220121995499e0734be4
:1032940020229b5c5bb2042b1fd000dd8ee0032b4d
:1032a4005ed000dd8ae0002b00d189e0022b00d043
:1032b40084e06a4b1b69002b07d0684b9b889bb248
:1032c4000021180003f07cf87be0644b9b889bb2e0
:1032d4000121180003f074f873e0604b9b69bb6034
:1032e4005e4b1b69ba689a4226d15c4b5b69002b22
:1032f40011d05a4b9b889bb25a00574b01210a4369
:103304005a62c046544bdb69002bfbd1534b20223d
:103314000321995455e0504b5a684f4bc021890200
:103324000a435a60c0464c4bdb69002bfbd14b4b24
:1033340020220621995444e0484b9a68bb68d3186c
:10334400454a19782823d154bb680133bb60c04671
:10335400414bdb69002bfbd1404bba689a6130e0ea
:103364003e4bdb697b603d4b5b69013b7a689a426b
:103374000fd1394b5a68384be021c9020a435a60cd
:10338400c046354bdb69002bfbd1344b2022062190
:103394009954c046304bdb69002bfbd12e492f4b8f
:1033a400da687b68d31828228a5cd2b21a707b68e8
:1033b40001337b60294b7a68da6102e0c04600e0a1
:1033c400c046264b20229b5c5bb201331cd1234bad
:1033d400202200219954204b5a681f4bc021890296
:1033e4000a435a60c0461c4bdb69002bfbd11a4bc5
:1033f40083221a76194b5b6a002b29d0174b5b6a20
:10340400fa681000984723e0144b20229b5c5bb2bf
:10341400062b1dd1114b2022002199540f4b212240
:10342400002199540c4b83221a76c0460a4b5b8bbd
:103434009bb21a0030231340102bf7d1074b5b6a61
:10344400002b05d0054b5b6afa6810009847c0460c
:10345400c046bd4604b080bd000c0042f8190020ef
:020000040000fa
:1034640080b584b000af786002f052f9734a7b688b
:103474001100180003f0ccfe031e09d0704b00228b
:103484001a70704b00221a706f4b00221a70d1e030
:103494006e4a7b681100180003f0bafe031e03d0c5
:1034a400694b01221a70c5e0694a7b681100180053
:1034b40003f0aefe031e00d1a2e0634b00221a709b
:1034c4000f23fb1800221a700ee00f203b181b7804
:1034d4007a6811785f4ad1547b6801337b603b186a
:1034e4001a783b1801321a700f23fb181b78302b03
:1034f400ebd9584b04220821180002f0f1ff020016
:10350400554bda60534b08220d21180002f0e8fff6
:103514000200514b1a604f4b08221621180002f08a
:10352400dfff02004c4b5a604a4b08221f2118004f
:1035340002f0d6ff0200484b9a60464b0422282131
:10354400180002f0cdff0200434b1a61414b0422e4
:103554002d21180002f0c4ff02003f4b5a613f4b7b
:103564001b68ed2b1bd13e4b4f2098473c4b5420fe
:1035740098473b4b41209847394b41209847384b5b
:103584002c209847364b30209847354b31209847ac
:10359400334b0d209847324b0a2098474ae0304b72
:1035a4004f2098472e4b542098472d4b4120984745
:1035b4002b4b412098472a4b2c209847284b3020ee
:1035c4009847274b31209847254b2c209847244b6c
:1035d40030209847224b234a927810009847204b7a
:1035e400204a5278100098471d4b1e4a127810004a
:1035f40098471b4b0d209847194b0a20984719e010
:10360400194a7b681100180003f002fe031e06d05d
:103614000c4b01221a700c4b00221a700ae0134a58
:103624007b681100180003f0f3fd031e02d0044b65
:1036340001221a70c046bd4604b080bdc8750000a2
:103644006f1b0020651b0020661b0020d475000042
:10365400e0750000941700206c1a0020dc1c002088
:103664005d7c0000d81c0020e8750000f4750000a3
:020000040000fa
:10367400f0b502008db00b20002a6ad0556811689d
:10368400ab7801934b7802932b7b002b3ed0002424
:1036940020002b889c46019b5b000393029b5e00e9
:1036a4006746a3b29f4256d86b7b984200d87be012
:1036b400cb6802995b181978013119701168536845
:1036c4004878c968085c997b88421fd169469d681f
:1036d400029b0989e81803780391002b53d0013b1e
:1036e400dbb26e466f46b68800213e823e8a0124d4
:1036f400b44667468eb2b74247d8002cedd003706b
:103704000023180051688978994247d8029b69467a
:103714005b000a93019b56685b08013306936b4672
:103724009b888b818b890b9300239c46039333885e
:1037340003998b4244d8029b01990133dbb28b423b
:103744008941b0680b40c05c716808700020126841
:1037540053700db0f0bd062363438f68fb185f8878
:103764004b689b5b9f420ad9fb1a9bb21f1c834286
:1037740000d2071cb8b2039b0134f61890e79f42ad
:10378400f9d2db1bf1e70f23abe7039fb74203d06a
:103794006e5c9e4200d100240131aae71168c96819
:1037a400c85401339bb2ade75b088342aed9cb6802
:1037b40002995b1819780029a8d001391970a5e776
:1037c4000623039910684b438168cb1804931b7834
:1037d400db065b0f40d16146406849004118059102
:1037e4000499059849880a9c0993015301999942bf
:1037f4002ed9002005995d00491908910400012182
:103804000de09f420ad0059d6700ed5b0795089d7a
:103814002f88079dbd4215d10131c9b20134019de4
:10382400e7b2bd42edd8069c8c4204d9844206d945
:103834004118a14203db089b1b880993019b0133b8
:10384400dbb2d3e7079dbd42e8d20130c0b2e5e761
:103854006946049b898c5980039b0b9901339bb265
:0e386400039363468c4663449bb29c465fe729
:020000040000fa
:02387200fee76f
:020000040000fa
:1038740080b588b000aff860b9607a603b601f2300
:10388400fb1800221a700023bb61744b1b7fdbb250
:1038940001225340dbb2002b00d1d7e0bb68002be0
:1038a40002d0fb68002b07d13b68002b00d1cde090
:1038b4007b68002b00d1c9e0694b5b680722134089
:1038c400012b11d1bb68002b03d0bb68012213402c
:1038d40006d13b68002b07d03b680122134003d07c
:1038e4001f23fb181b78b4e01f23fb1801221a7056
:1038f4005a4bfa681a60594b7a685a60574b00223f
:103904005a61564b00229a61544b00221a61fb689b
:10391400002b03d0514bba689a6002e04f4b00224f
:103924009a607b68002b03d04c4b3a68da6002e063
:103934004a4b0022da60494b01221a7702e0484bd5
:103944009b6abb61464b1b7edbb21a000423134007
:10395400042bf4d0424b5b8b9bb2414a04210b43b2
:103964009bb253833e4b1b7edbb23d4980225242c5
:103974001343dbb20b76394b9b687b61374bdb68b7
:103984007a699a4205d2354bda687b69d21a334b8d
:103994001a61334b5b68072213401cd12f4b9b6980
:1039a4007a699a420ad92d4b1b681a782c4b9a6271
:1039b4002a4b9b695a1c294b9a613de0274b1b6992
:1039c400002b39d0264bff229a62244b1b695a1ec6
:1039d400224b1a6130e0214b9b685a081f4b9a60b6
:1039e4001e4b1b695a081d4b1a611c4bdb685a0895
:1039f4001a4bda60194b9b687b61184b9b697a6997
:103a04009a420dd9154b1b681b881a00144bd2051a
:103a1400d20d9a62114b9b695a1c104b9a610be0b0
:103a24000e4b1b69002b07d00d4b0e4a9a620b4bb1
:103a34001b695a1e094b1a613b68002b03d0084bc3
:103a440004229a7502e0064b01229a751f23fb1883
:103a54001b781800bd4608b080bdc046241a00205b
:083a640000040042ff01000014
:020000040000fa
:103a6c0080b586b000af0023fb600023bb60694bc0
:103a7c005b6a7b60684b9b7ddbb2002b00d1c5e0a1
:103a8c00654b5b6807221340fb60624b5b697b6193
:103a9c00604b9b693b615f4b9b683b605e4b1b7e45
:103aac00dbb21a0004231340042b20d15a4b9b6a1f
:103abc00bb60584bdb687a699a4218d2fb68002bc2
:103acc000ad1544b5a687b69d318ba68d2b21a70af
:103adc007b6901337b610ae04e4b5a687b695b0062
:103aec00d318ba6892b21a807b6901337b614a4b56
:103afc001b7edbb21a0001231340012b56d1464b1f
:103b0c0001221a75fb68002b1cd1424b9b683a6949
:103b1c009a420ad23f4b1a683b69d3181a783e4b2b
:103b2c009a623b6901333b6129e03a4b1b69002bdc
:103b3c0025d0394bff229a62364b1b695a1e354be6
:103b4c001a611ce0334b9b683a699a420bd2314b99
:103b5c001a683b695b00d3181a882f4b9a623b6931
:103b6c0001333b610be02b4b1b69002b07d02a4b1d
:103b7c002a4a9a62274b1b695a1e264b1a61254bff
:103b8c001b69002b07d13a693b689a4203d1244b3d
:103b9c0001221a700ae01f4bdb687a699a4205d140
:103bac001d4b01229a751c4b04221a75194b7a690c
:103bbc005a61184b3a699a61174b1b7edbb21a009b
:103bcc0002231340022b1ad1154b1b78002b16d055
:103bdc00104bdb687a699a4211d10e4b00221a778e
:103bec000d4b07221a750e4b00221a70094b1b6adb
:103bfc00002b04d0074b1b6a7a6810009847084bbf
:103c0c001b78002b02d0044b02229a75c046bd468d
:103c1c0006b080bd241a002000040042ffff000003
:043c2c006e1b0020eb
:020000040000fa
:103c3000f0b587b0070004f0a9f802220c255d4c0e
:103c40007d4323889343238004f0a0f85a4e3368c1
:103c50005b685b195b68636404f098f831684b68d3
:103c60005a191088554bd887062302205f438b686a
:103c7000db1919789f88014201d0052119701b7842
:103c8000db065b0f00d089e0917a4d4b09095b1888
:103c90001b7a1b041f43137afa2b00d981e00433eb
:103ca0003f021b063f0a1f4304f070f8a764032776
:103cb00004f06cf8336843495b6822695b195b7aee
:103cc0000a401b093b401b051343236104f05ef8c7
:103cd00033685b685b195a7a23883a403a4f12027c
:103ce0001f401743278004f051f80721336802264c
:103cf0005b685d19ea7a23690a40344912040b4073
:103d00001343236104f042f82388314f3343238067
:103d10007b68002b48d004f039f8a36c1b0e03938a
:103d200004f034f823691b051b0f049304f02ef8ec
:103d300023889b059b0f059304f028f82388b34341
:103d4000238004f023f8012325791d433543edb288
:103d500004f01cf8257104f019f81e4b25691a6847
:103d6000082311780b43137004f010f82369174ae5
:103d7000134023610095059a174b049903987d68b9
:103d8000a84704f003f823881e43268003f0feffb3
:103d90000122237f1343237707b0f0bdfc239b034d
:103da00078e7ff231b067ee703f0f0ff227f012365
:103db000f0e7c046005800420400002002580042cc
:103dc000b8770000ffffcffffffcfffffffff8ff0a
:0c3dd000841a002000000020105800425f
:020000040000fa
:103ddc0080b586b000af3b0000221a605a609a6032
:103dec00da601a615a613b0018221900882002f02f
:103dfc000bff3b005b781b029bb23a0012789b18be
:103e0c009ab24b4b1a803b00db781b023a0092783b
:103e1c009a18474b5a603b005b791b023a001279a7
:103e2c009a18434b9a603b00db791b029bb23a0019
:103e3c0092799b189ab23e4b9a813b005b7a1b029b
:103e4c003a00127a9a183a4b1a613b00db7a1b0241
:103e5c003a00927a9a18364b5a613b005b7b1b02f4
:103e6c003a00127b9a18324b9a613b00db7b1b02a7
:103e7c003a00927b9a182e4bda613b005b7c1b025a
:103e8c003a00127c9a182a4b1a623b00db7c1b020c
:103e9c003a00927c9a18264b5a623b005b7d1b02bf
:103eac003a00127d9a18224b9a623b00db7d1b0272
:103ebc003a00927d9a181e4bda62a12002f034fe71
:103ecc00030019001a4b302299543b0007221900a9
:103edc00e12002f099fe3b005b781b023a0012785d
:103eec009a18134b5a633b009978114b382299540a
:103efc003b00db781a013b001b7919000f230b40a8
:103f0c001a430b4bda633b005b791b013a001279c5
:103f1c001209d2b21a43064b1a643b009b7959b270
:103f2c00034b44229954c046bd4606b080bdc046e2
:043f3c00fc1800204d
:020000040000fa
:103f400080b500af8223db054a4a1a608223db0575
:103f5000484a1a618223db054422012199548223b5
:103f6000db054522012199548223db0546220121ec
:103f700099548223db054a22022199548223db05ce
:103f80004b22002199548223db054c2201219954b4
:103f90008223db054d22012199548223db05502227
:103fa000012199548223db05512201219954822356
:103fb000db055222012199548223db055322002183
:103fc00099548223db055622012199548223db0573
:103fd0005722012199548223db053222332199543f
:103fe0008223db053322032199548223db0535220a
:103ff000002199548223db05362222219954822301
:10400000db053822222199548223db053922012144
:1040100099548223db053b22222199548223db051c
:104020008022154999508223db059022134999502b
:104030008223db05c022002199548223db05cf2295
:10404000002199548223db05d12200219954822337
:10405000db05b022002199548223db05b722002121
:1040600099548223db05b82200219954c046bd46ed
:1040700080bdc046000808000180020001800000e9
:020000040000fa
:1040800090b583b000af434b5b68fc1d98470300bd
:104090002370414b1b78002b25d0404b1b78fa1d19
:1040a00012789a420dd13c4b00221a703c4b1b688f
:1040b00000221a70374b1a6a3a4b1b681800904757
:1040c00061e0384b1b68384a12789a18344b1b68e9
:1040d0009a4258d9324b1b68591c314a1160fa1d5b
:1040e00012781a704fe02d4b1b78fa1d12789a4205
:1040f00021d003f0f5fe03001a0001235340dbb288
:10410000002b18d003f0f6fe03001a0001235340e1
:10411000dbb2002b0fd0204b01221a70214b1a6802
:104120001f4b1a601e4b1b68591c1d4a1160fa1d5b
:1041300012781a7027e0194b1b78fa1d12789a42f0
:1041400017d11a4b1b7801225340dbb2002b10d041
:1041500003f0c6fe03001a0001235340dbb2002b1c
:1041600007d00d4b01221a700e4b1a680c4b1a60c7
:1041700009e00e4b01221a700d4b01221a700d4bf3
:10418000fa1d12781a700a4b1b781800bd4603b04e
:1041900090bdc046107b0000761b0020e71c00206d
:1041a000381b0020341b0020731b0020711b0020d3
:0841b000751b0020741b0020a8
:020000040000fa
:1041b800f7b58021424a434c1369c90023400b4399
:1041c800136153692340194351610b24002844d0db
:1041d80003680c2419880023009301939ab2914232
:1041e8003dd8009b0224002b37d0019b009a1b046a
:1041f8001a439446002001210f24334f0e3763469b
:10420800c3400b4211d0c35d1f2b3ad82f4d5a081b
:1042180052190b4231d010251678264035431570b7
:104228002b4a9b181a780a431a7001302028e6d1c5
:104238000024284d03f0a6fd274f2c803e7aa64285
:1042480031d103f09ffd6b469b883400ab8203f0ad
:1042580099fd009bab6101233b722000febd22004b
:104268005a434568019eaa18158852682e43009d36
:104278000196154300950133b0e71578a5430d4322
:10428800cde7203bdbb2154d5a0852190b4206d038
:1042980010251678264035431570114ac1e7157860
:1042a800a5430d43f8e703f06dfdab8a019a1a4365
:1042b800aa8203f067fdab69009a1a43aa61cce7aa
:1042c80000500042fff8ffffb877000030000041bf
:1042d8004000004100580042841a0020b00000410c
:0442e800c0000041d1
:020000040000fa
:1042ec0080b586b000af786008001100fb1c021c82
:1042fc001a70bb1c0a1c1a703d4b3b617b68fb603f
:10430c00fb1c1b785bb2002b6edbfb1c1b789ab280
:10431c00384b1a80bb1c1b789ab2374b1a8006e0bc
:10432c00fb685a1cfa601b781800fef7d5fcfb687a
:10433c001b78002bf4d1314b02221900442001f0e0
:10434c0053f92f4b04221900452001f04df92d4b48
:10435c00012219004e2001f047f92b4b02221900c3
:10436c004f2001f041f900220021242001f03cf9fa
:10437c008223db05802212035a618223db059822fb
:10438c00012199501623fb1800221a800ce03b697e
:10439c005a1c3a610121180003f07efb16217b1890
:1043ac001a887b1801321a801623fb181a8894235a
:1043bc005b019a42ebd38223db05802212039a61c4
:1043cc00022001f0f3fc114b01221900222001f014
:1043dc000bf900220021202001f006f90022002117
:1043ec00ff2001f001f900e0c046bd4606b080bddb
:1043fc000c0000205e1b0020621b0020fc1c002017
:10440c00cc1c0020681b0020f01c0020ec1c0020a1
:020000040000fa
:10441c0080b582b000affb1d00221a703c4b9b7d17
:10442c00dbb2002b00d16fe0394b1b7edbb21a00e4
:10443c0080231a40fb1d803a51424a411a70344b7a
:10444c009b7ddbb21a0080231340802b05d1fb1d12
:10445c001b78002b01d0012200e00022fb1d1a70fa
:10446c001a7801210a401a70fb1d1b78002b01d011
:10447c0002f0c6f9264b1b7edbb21a0001231a4050
:10448c00fb1d013a51424a411a70214b9b7ddbb214
:10449c001a0001231340012b05d1fb1d1b78002ba7
:1044ac0001d0012200e00022fb1d1a701a780121b4
:1044bc000a401a70fb1d1b78002b01d001f0acffd9
:1044cc00134b1b7edbb21a0004231a40fb1d511e3a
:1044dc008a411a700e4b9b7ddbb21a0004231340e9
:1044ec0005d0fb1d1b78002b01d0012200e000221f
:1044fc00fb1d1a701a7801210a401a70fb1d1b78db
:10450c00002b01d002f068ffc046bd4602b080bd52
:04451c000010004249
:020000040000fa
:1045200080b588b000aff86008007a6019000b23ee
:10453000fb18021c1a700a23fb180a1c1a700023ad
:10454000fb610023bb6100237b6102e02d4b5b68b4
:1045500098472c4bdb689847031ef7d10b23fb18b9
:104560001a78fb681100180001f0c0fd06e0254b29
:10457000db6901209847bb690133bb61214bdb68d4
:10458000984703001a0001235340dbb2002beed101
:10459000bb69412bebd90ce01a4b5b6898470300d1
:1045a0001900194afb69d3180a1c1a70fb690133f8
:1045b000fb61144bdb689847031eedd10a23fb18ff
:1045c0001b78fa699a4201d0002316e000237b6130
:1045d0000ee00d4a7b69d3181a7879687b69cb188d
:1045e0001b789a4201d0002307e07b6901337b618d
:1045f0007a69fb699a42ecd301231800bd4608b0e2
:0c46000080bdc046107b0000f8170020b1
:020000040000fa
:10460c0090b585b000af7860314b02221900442080
:10461c0000f0eaff2f4b04221900452000f0e4ffc4
:10462c002d4b012219004e2000f0deff2b4b0222f5
:10463c0019004f2000f0d8ff00220021242000f0a8
:10464c00d3ff8223db05802212035a618223db0510
:10465c009822012199500e23fb1800221a800de09c
:10466c000e243b191b887a68d3180121180003f01b
:10467c0013fa3b191a883b1901321a800e23fb18c6
:10468c001a8894235b019a42ead38223db058022a9
:10469c0012039a61022001f089fb0a2001f086fbcb
:1046ac000f4b01221900222000f09eff0022002156
:1046bc00202000f099ff00220021ff2000f094ff41
:1046cc000a2001f073fbc046bd4605b090bdc04644
:1046dc00001d0020c81c0020701b00206c1b00203b
:0446ec00ec1c0020a2
:020000040000fa
:1046f00080b586b000af0200bb1d1a801323fb18e3
:1047000000221a70304b9b6a01337b612e4b1b6b6e
:104710007a699a4201d300237b612b4bdb6a7a6969
:104720009a4217d1284b1b6a002b13d0264b5b6a89
:10473000fb60254b1b6afa68110001209847224b49
:104740009b6a01337b61204b1b6b7a699a4201d3d0
:1047500000237b611c4bdb6a7a699a422dd01b4b8c
:104760005b6807221340012b0bd0174b9b6abb6081
:10477000bb1d1b88d9b2164abb68d3180a1c1a7015
:1047800014e0114b9b6a5b00bb60bb1d1b88d9b258
:104790000f4abb68d3180a1c1a70bb1d1b881b0a62
:1047a0009ab2bb680133d1b2094ad154064b7a6937
:1047b0009a621323fb1801221a701323fb181b782b
:1047c0001800bd4606b080bd44190020001000420c
:0447d000941600201b
:020000040000fa
:1047d400f0b506000f0015001c0085b08b4263d8ad
:1047e40001d1824260d82100280003f009fb39007e
:1047f4000090300003f004fb009b21001b1a1a00f8
:104804002800039303f0f0fa00900191b94245d8cf
:1048140001d1b04242d8009b019c01200021039a9f
:10482400f61aa74103f0e0fa04000d00039b002be5
:104834002bd0019b009adb0750081843019b5908b1
:10484400039b9c46b9422cd801d1b04229d83200ee
:104854003b00121a8b41012692185b410027b618bf
:104864005f4101235b429c446346002bead1300044
:104874003900039a03f0acfa039aa4197d410600a7
:104884000f0003f0b1fa241a8d410a9b002b01d0ca
:104894001e605f602000290005b0f0bd00240025e3
:0e48a400c4e7b6197f41dce700240025ede7ec
:020000040000fa
:0248b20070474d
:020000040000fa
:1048b40090b583b000af02003960fb1d1a70fb1d78
:1048c4001b787f2b28d82f4afb1d1b785bb29b08d3
:1048d400c0339b009b58fa1d1278110003220a4032
:1048e400d200ff2191400a00d2431a4011003b68d4
:1048f4009b01ff221a40fb1d1b7818000323034071
:10490400db009a401f48fb1d1b785bb29b080a43df
:10491400c0339b001a5031e01b4afb1d1b78190061
:104924000f230b40083b9b0806339b00d31804332a
:104934001b68fa1d1278110003220a40d200ff21dd
:1049440091400a00d2431a4011003b689b01ff22a8
:104954001a40fb1d1b78180003230340db009a4018
:104964000948fb1d1b781c000f232340083b9b08b0
:104974000a4306339b00c31804331a60c046bd467d
:0c49840003b090bd00e100e000ed00e099
:020000040000fa
:1049900080b500af03f032f98223db0598220121b4
:1049a00099508223db05802212039a618223db0562
:1049b000802212019a6102f06ffe142001f0fcf9ce
:1049c000204b03221900012000f014fe1e4b01228f
:1049d00019003a2000f00efe1c4b012219003b206a
:1049e00000f008fe1a4b01221900112000f002fe0f
:1049f000184b02221900442000f0fcfd164b042243
:104a00001900452000f0f6fd144b012219002c205e
:104a100000f0f0fd124b012219003c2000f0eafded
:104a20000b4b01221900112000f0e4fd0d4b462232
:104a30001900322000f0defd0a2001f0bdf9c04669
:104a4000bd4680bd101d00200c1d0020081d00204b
:104a5000041d0020001d0020c81c0020f81c0020a0
:084a6000f41c0020346d00007d
:020000040000fa
:104a680010b50400902911dc00207f2928dd803949
:104a78000800102910d803f0b1fa31313d0f110f99
:104a88000f0f240f0f0f0f0f0f0f3d00c0294bd032
:104a9800f02949d0a02928d0002011e01968002a5f
:104aa80007d00a1d1a6000228b5e2360db17636043
:104ab80005e0081d18600b689bb223606260012046
:104ac80010bd1968002a04d00a1d1a600023cb56ad
:104ad800ebe7081d18600b68dbb2eee71968002adf
:104ae8001ed00a1d1a600b68dfe71a68111d1960cd
:104af8001368dae707201968002a09d009188143e2
:104b08000a0008321a600a684b6822606360d6e7b8
:104b1800ca1d824311000831196053681268f4e70e
:104b2800081d18600b68c8e71a68111d196013681a
:064b380023600023bbe72f
:020000040000fa
:024b3e007047be
:020000040000fa
:104b400080b500af2f4b304a1a602e4b2f4a9a8106
:104b50002c4bc02292025a60c0462a4bdb69002bc4
:104b6000fbd1284b1a68274b02210a431a60c04622
:104b7000244bdb69002bfbd1254b00221a62244b0e
:104b800000229a62224b0022da62214b3422002159
:104b900099541f4b3c22002199541d4b00229a63cb
:104ba0001b4b0022da871a4b00221a60184b002296
:104bb0009a60174b0022da60154b00221a75144bcd
:104bc00000221a77124b00229a610e4b5b68072273
:104bd0001340012b06d00e4b80221a630c4b80220f
:104be0001a6105e00a4b40221a63094b40221a6100
:104bf000044b80229a75034b04229a75c046bd4629
:104c000080bdc04600100042040110402bf6ffff9b
:044c10004419002023
:020000040000fa
:104c1400f7b5070001910b24002951d000284fd08b
:104c2400294d03242b7a002b4ad00124042b47d08e
:104c3400022403685b79013ba34241d8234e03f06d
:104c4400a3f83388a3433380214b1f60019beb609f
:104c540001f016fc80221f4bd205da67bff34f8f99
:104c6400bff36f8f0323b37203f08ef80122737abc
:104c7400802113437372184bc9051a70c023174a55
:104c84005b00d150c722ff20144b920099583b6817
:104c940000045b799b050340114801400b430f4915
:104ca4008b508022d2050a6000232b8002f0f6f993
:104cb400061e07d1042328882b723400fef7b6ffa2
:104cc4002000febd2c72fbe7841a0020005800422d
:104cd4000400002004e100e0eb1c002000e100e0ff
:044ce400ffff00ffcf
:020000040000fa
:104ce80090b583b000af2b4b1b78dbb2012b0fd1f3
:104cf800fc1d294a294b11001800fff787ff030004
:104d08002370fb1d1b78002b02d1224b00221a7046
:104d1800234b1b78dbb2012b38d1214b00221a70b0
:104d2800fc1dfdf79dfc03002370fb1d1b78002b69
:104d38001cd1fc1d1b4b1800fef798fc03002370c8
:104d4800fb1d1b78002b02d0012002f0effefc1d9a
:104d5800154b1800fdf73efa03002370fb1d1b7866
:104d6800002b06d0022002f0e1fe02e0002002f053
:104d7800ddfe0d4b1b681b785bb2002b03da054b7d
:104d880001221a7002e0094b01221a70c046bd4682
:104d980003b090bd671b0020317f0000a01c0020dd
:104da800691b0020b81c0020841c00206a1b0020fe
:020000040000fa
:104db80080b588b000af786039600023fb612a4b6a
:104dc800db6abb61284b9b6a7b613fe0ba697b6900
:104dd8009a4240d0254b5b6807221340012b0fd025
:104de8007a68fb69d3182249ba698a181278d2b24c
:104df8001a70fb690133fb61bb690133bb611ee0bb
:104e0800bb695b003b61fb695b00fb607a68fb6820
:104e1800d31817493a698a181278d2b21a703b69be
:104e28005a1cfb6801337968cb1811498a5cd2b2e5
:104e38001a70bb690133bb61fb690133fb610a4b23
:104e48001b6bba699a4201d30023bb61fa693b68bc
:104e58009a42bbd300e0c046034bba69da62fb69e9
:104e68001800bd4608b080bd44190020001000425b
:044e7800941600206c
:020000040000fa
:104e7c0090b583b000af7b1d00221a707c1d294bae
:104e8c001800fff793f9030023707c1d264b1800c4
:104e9c0003f052f803002370bb1d00221a8018e0a7
:104eac007c1dbb1d1a881f4b1100180002f0b0feb0
:104ebc00030023707c1dbb1d1a881a4b11001800af
:104ecc0001f06afd03002370bb1d1a88bb1d013263
:104edc001a80bb1d1b88002be2d0bb1d00221a8040
:104eec0016e0bb1d1b88d9b2bb1d1a8813005b00d2
:104efc009b185b000d4a9a187c1d0d4b180002f094
:104f0c00b6fe03002370bb1d1a88bb1d01321a802c
:104f1c00bb1d1b88002be4d07b1d1b781800bd46e5
:104f2c0003b090bda01c0020541b0020fc1a0020d4
:044f3c00841c0020b1
:020000040000fa
:104f400080b500af01f00af902f0b6fe02f00efde6
:104f500002f020fd274a98234121d150c046254a1e
:104f60009823d35840221340402bf8d1214acc2318
:104f70004021d150c0461f4acc23d3584022134071
:104f8000402bf8d11b4ad0234021d150c046194aaa
:104f9000d023d35840221340402bf8d1154ad423b4
:104fa0004021d150c046134ad423d3584022134045
:104fb000402bf8d10f4ad8234021d150c0460d4a8a
:104fc000d823d35840221340402bf8d1094a8a23d2
:104fd0005b004121d150c046064a8a235b00d3586a
:104fe00040221340402bf7d1034b044ada61c046fc
:104ff000bd4680bd001c0040000800401f0040006e
:020000040000fa
:1050000080b588b000af786039601f23fb1800229c
:105010001a707b687b617b683b610023bb610e2358
:10502000fb1800221a807b68002b3ed001f06cfb3d
:105030002de0c046204b1b7edbb21a000423134038
:10504000f8d01d4b5b8b9ab20e203b1807210a400b
:105050001a803b181b88002b1ed1174b5b68072258
:105060001340012b08d0144b1b8d99b27a69bb6990
:10507000d318cab21a7007e00f49bb695b003a69de
:10508000d3180a8d92b21a80bb690133bb61ba6929
:105090003b689a42cdd300e0c0463a68bb699a4269
:1050a00003d11f23fb1801221a701f23fb181b7842
:0c50b0001800bd4608b080bd000800429a
:020000040000fa
:1050bc0080b588b000af0200bb1d1a80264b9b68e0
:1050cc007b61254bdb683b611b23fb1800221a70ac
:1050dc007b690133fb61204b1b69fa699a4201d34e
:1050ec000023fb61fa693b699a422dd01b4b5b682c
:1050fc0007221340012b08d0bb1d1b88d9b2184abc
:10510c007b69d3180a1c1a7017e07b695b00fb6083
:10511c00bb1d1b88d9b2124afb68d3180a1c1a7023
:10512c00fb680133fb60bb1d1b881b0a9bb2d9b209
:10513c000b4afb68d3180a1c1a70074bfa699a6061
:10514c001b23fb1801221a701b23fb181b78180059
:10515c00bd4608b080bdc046441900200010004276
:04516c0014170020f4
:020000040000fa
:10517000f0b54b6889b004930b6805000c009c46a1
:105180008e68cf68079310685168cb0f059300298c
:1051900044da0b000200002150429941049b002b8d
:1051a00009db0222634693430793059b002b02d140
:1051b000079b5a0723d5731e07aa02920a2200935f
:1051c00001920b000200200000f0a9fe059b002bbd
:1051d00019d02d2301383b542269079b013a121a3a
:1051e000391800932800330000f022fe6b68db05bd
:1051f00003d56368984200da180009b0f0bd1b07b8
:10520000db0ff31ad8e7079b5a0702d52b23013887
:10521000e1e71b07e0d520230138dce7049b002be6
:04522000bfdac5e745
:020000040000fa
:1052240090b585b000af040008001100fb1d221cde
:105234001a70bb1d021c1a707b1d0a1c1a70bb1d40
:105244001b789bb21b019ab2fb1d1b789b08dbb237
:1052540019000e203b1852181a80fb1d1b78db43e3
:10526400dbb203221340dbb20d243a19db181370ae
:105274003b181b88154ad35c5bb23a191278032198
:1052840091400a0052b2d24352b213405ab23b1870
:105294001b88d1b20d4ad1543b181b880b4ad35cee
:1052a4005ab27b1d1b78032119403b191b78994086
:1052b4000b005bb213435ab23b181b88d1b2034aaa
:1052c400d154c046bd4605b090bdc0460c00002078
:020000040000fa
:1052d40080b588b000af78601f23fb1800221a70d5
:1052e400234b9b687b61224bdb68bb617b683b6122
:1052f400ba697b699a4233d01e4b5b68072213401c
:10530400012b0ad01c4abb69d3181b78dab23b695b
:105314001a70bb690133bb6114e0bb695b00fb60bd
:10532400154afb68d3181b78dab23b691a70fb681c
:105334005a1c3b69013310498a5cd2b21a70bb69aa
:105344000133bb610a4b1b69ba699a4201d300233a
:10535400bb61074bba69da601f23fb1801221a707c
:105364001f23fb181b781800bd4608b080bdc0463b
:0c53740044190020001000421417002013
:020000040000fa
:1053800080b584b000af786039600023fb6035e001
:10539000244b5b6807221340012b0cd07a68fb6812
:1053a000d3181b781800fff789fe031e2bd0fb686b
:1053b0000133fb6022e0fb685b0001337a68d3189d
:1053c0001a780a203b181a803b183a1812881202e1
:1053d0001a80fb685b007a68d3181b7819003b18a9
:1053e0003a1812880a431a803b181b881800fff7e6
:1053f00065fe031e09d0fb680133fb60fa683b6859
:105400009a42c5d302e0c04600e0c04601f028fe43
:10541000031e02d0034b01229a75fb681800bd469b
:0854200004b080bd0010004241
:020000040000fa
:10542800f8b502f0affc0221204a13888b431380a1
:1054380002f08efb1e4b1f4c1f4a188819882388c0
:1054480012685b00d1521d4b80b21b78012b02d031
:10545800022b10d0f8bd23880133238001f01cfef5
:10546800002805d12088fef7dffb04232372f1e72b
:10547800e3689847eee70c210f22114b25881e6838
:1054880069437368002759188b7a1a40cb7a9a4275
:1054980001d29b1adfb20621f8406943b3685b1852
:1054a8005880022323722369e3e7c046005800426c
:1054b80058580042841a002008000020eb1c0020e5
:0454c80004000020bc
:020000040000fa
:1054cc00b0b500af02f0e1fd1e4b0a22002118001e
:1054dc0002f050fd0de01c4bdb690120984700f0f9
:1054ec0059f91a4b1b681a000123134001d10023f0
:1054fc0024e0154bdb68984703001a000123534046
:10550c00dbb2002be7d110e0114b1c6802f036f92e
:10551c0003001a000b4b1a550b4bdb690120984703
:10552c000b4b1b685a1c0a4b1a60074bdb689847dd
:10553c00031ee9d1064b00221a6001231800bd4658
:10554c00b0bdc046d41a0020107b00003c1b0020cc
:04555c00101b002000
:020000040000fa
:1055600030b405004d400124e407254042004b00c3
:10557000120e26d01b0e34d0ff2a2dd0ff2b35d093
:10558000d21a000220430902214343084908a00d12
:105590005b1a02d2013a5b005b185b008b4200d3be
:1055a0005b1a4041f9d37f3222ddff2a06d2d205b1
:1055b000c91a8b425041284330bc7047ff20c005b8
:1055c000f9e71b0e03d0ff2b12d1490210d07f2028
:1055d00000010c300005efe74002f8d1ff2bedd1c0
:1055e000f5e7ff2aead14002f1d1e7e74902eed11f
:0455f0002800e1e7c7
:020000040000fa
:1055f40080b584b000af39601100fb1d021c1a7025
:105604003b1d0a1c1a803b68fb60c0468223db05f5
:105614001b6a9b0a01221340012bf7d08223db056e
:10562400802212035a618223db05942201219950be
:10563400fb1d0121180002f033fa8223db059822b6
:10564400012199503b1d1b88002b06d03b1d1a8855
:10565400fb681100180002f023fa8223db05802284
:1056640012039a61c0468223db051b6a9b0a01224e
:105674001340012bf7d0c046c046bd4604b080bde0
:020000040000fa
:1056840080b582b000af786008001100bb1c021c1a
:105694001a807b1c0a1c1a70174b7a681a607b6884
:1056a40002331b781a007b6803331b781b029bb2fe
:1056b400d3189ab2114b1a807b6804331b781a00f2
:1056c4007b6805331b781b029bb2d3189ab20c4b30
:1056d4001a807b6806331b781a000a4b1a800a4b1f
:1056e400ba1c12881a80094b7a1c12781a70c046a8
:1056f400bd4602b080bdc0460c1b00200a1b002022
:10570400561b00205a1b0020021b0020531b0020a4
:020000040000fa
:1057140080b582b000affb1d00221a702fe01c4b35
:105724001b681a091b4b1a601a4b1b681b013b6050
:10573400174b1a683b68d21a164b1a60154b1b6834
:10574400092b06d8134b1b6830331a00114b1a600f
:1057540005e0104b1b6837331a000e4b1a600d4bd3
:105764001968fb1d1b78fa1d581c10701a00c9b269
:10577400094b9954064b1b681a09054b1a60044bd4
:105784001b68002bcbd1c046c046bd4602b080bdcd
:0c579400d41c0020281b0020d81c002082
:020000040000fa
:1057a00080b500af012000f007fbfff79dfa1c4b0e
:1057b0001b78dbb2012b2fd1194b00221a7000206d
:1057c00002f096f803001a007f239a431300dab21e
:1057d000144b1a70134b1b78002b1dd0fff784fa63
:1057e0000f4b1b78dbb2012b0dd10d4b00221a7031
:1057f000002002f07df803001a007f239a43130073
:10580000dab2084b1a70074b1b78002be6d1064b17
:105810001b685a1c044b1a60c046bd4680bdc0467a
:0c5820006a1b0020771b00203c1b0020ae
:020000040000fa
:10582c00002934d00123002210b488422cd3012447
:10583c002407a14204d2814202d209011b01f8e7dc
:10584c00e400a14204d2814202d249005b00f8e795
:10585c00884201d3401a1a434c08a04202d3001bc1
:10586c005c0822438c08a04202d3001b9c082243f4
:10587c00cc08a04202d3001bdc082243002803d032
:10588c001b0901d00909e3e7100010bc704701b5f2
:10589c00002002f073fc02bd0029f8d003b5fff71d
:0c58ac00c1ff0ebc4243891a1847c046d9
:020000040000fa
:1058b800b0b584b000afb9607a603b600e23fb18c6
:1058c800021c1a801b4b20229b5c5bb2002b01d070
:1058d80000232be0174b0e203a1812889a80154b9c
:1058e8003a68da60134b3a6a5a61124bba689a609e
:1058f800104b7a681a610f4b1c2408256219d219bb
:1059080012789a700b4b20225219d21912781a70f9
:10591800084b2122002199546319db191a783b1886
:105928001b881100180000f049fd01231800bd462e
:0859380004b0b0bdf819002015
:020000040000fa
:1059400080b586b000af786039601723fb1800225d
:105950001a707b68fb607b68bb6000233b617b68df
:10596000002b27d01ee0c046164b1b7edbb21a0070
:1059700001231340f8d0134b5b6807221340012b1f
:1059800006d0fa683b69d3181a780e4b1a8506e0e0
:105990003b695b00ba68d3180a4a1b8813853b69c8
:1059a00001333b613a693b689a42dcd31723fb1809
:1059b00001221a701723fb181b781800bd4606b089
:0859c00080bdc0460008004252
:020000040000fa
:1059c800f0b506241e4b44431a68002093681c193e
:1059d80063888b422cd02cd2c91a126889b293786a
:1059e800402b00d149080120842921d8002005290d
:1059f8001ed9cf250f261527a3881c009804800fd1
:105a080068431d1235407d431b11334040195b002c
:105a1800c018344080b2052c0dd8d378094a9b06ab
:105a28009b0f5b009b5a594389b288428041404290
:105a3800f0bd591ad1e70130053c80b2e4b2eae77b
:085a480004000020b877000003
:020000040000fa
:105a5000f0b51600040002278269436987b09b1adb
:105a600003939b19029204910596019302ad3a00ab
:105a70002900206801f0f0ff019b984208d1a3683b
:105a8000e268a3619a18a2626361300007b0f0bdba
:105a900000280cda102200236168a3620a43a36184
:105aa00063616260022f12d06b68f61aede7019b0a
:105ab0001b1a01936b68984202d9c01a0835013f3e
:105ac0002b681b182b606b681b1a6b60cfe71e00de
:025ad000dbe712
:020000040000fa
:025ad20070471b
:020000040000fa
:105ad400f0b58bb000af0200fb1d1a7027257b19af
:105ae40000221a700826bb19164a13ca13c313ca14
:105af40013c312681a60144b53221a70124b4622b5
:105b04005a70114b2c229a700f4bfa1d12781a718d
:105b14000d4b0d225a710c4b0a229a717c19ba1939
:105b240009481c230621fef7f9fc03002370074be8
:105b3400db69fa2098477b191b781800bd460bb027
:105b4400f0bdc046b46e000084190020107b000034
:020000040000fa
:105b540080b582b000af3b0000221a605a603b005f
:105b640008221900f72001f053f83b009b791b022f
:105b74003a00d27913431a00114b1a603b00db78c8
:105b84001a033b001b791b01390049790909c9b281
:105b94000b4313431a000b4b1a603b001b781a0388
:105ba4003b005b781b01390089780909c9b20b43b2
:105bb40013431a00044b1a60c046bd4602b080bdb0
:0c5bc400181b0020141b00201c1b0020dc
:020000040000fa
:105bd000f7b51d4f03003c68201e0dd000222100a8
:105be000100001920d68ac460d699c4509d1002a50
:105bf00005d0156110310800febd2900f2e73d60b7
:105c0000f8e79c4506d9002802d00668b44501d2c1
:105c1000080001920a00002defd10028ecd0050009
:105c200002680169d21a1035102a05d90360eb18f1
:105c300019611900103a1a60844202d139602800b3
:0c5c4000dae7019b1961fae74c1b002019
:020000040000fa
:105c4c00f7b50c25c3684d439c46032382684b4330
:105c5c0055196c6863442d8964889f781b78641b84
:105c6c00e41aa3b201930025436860461e88b5422e
:105c7c0001d10020febd8d4218d08378bb4215d1d6
:105c8c0013787b33dbb2012b15d913899c465368ef
:105c9c005b889c450ad264461b1b04789bb2a342ca
:105cac0004d91b1b019c9bb29c4204d30135adb2a1
:0a5cbc0003300c32dbe70120dce7c7
:020000040000fa
:105cc600f8b5866a04000f001500002e0ad0a36af4
:105cd60062699b1aab420cd22a0039002000fff7fa
:105ce600b4fe05e002f01df803003000002beed0f4
:105cf600f8bd002df0d03422a256002a1bdb2b0063
:105d0600d2b21e00013bf95c914212d13200390039
:105d16002000fff79afe8642ead8bf19ae1b320072
:105d26003900606902f01ff9636928009b196361f5
:0a5d3600dee7002be5d12e00f1e7b7
:020000040000fa
:105d400090b583b000affc1dfd2001f083fb030084
:105d50002370bc1dfe2001f07dfb03002370fb1da2
:105d60001b78372b03d1bb1d1b785d2b02d0012381
:105d70005b421be0ae21322001f022f835213820b1
:105d800001f01ef8f621392001f01af8ff21362023
:105d900001f016f800212a2001f012f8322001f05b
:105da00059fb03001a00034b1a7000231800bd466c
:085db00003b090bd591b002057
:020000040000fa
:105db80080b588b000af78600023fb61184b5b6842
:105dc80001333b617b68174a5343fb60144b1b68e4
:105dd80001221340012b1ed1114b9b687b6116e0f9
:105de8000f4b9b68bb607a69bb68d31abb61ba6802
:105df8007b699a4205d93a69bb68d31a7a69d3187c
:105e0800bb61bb687b61fa69bb69d318fb61fa693e
:105e1800fb689a42e4d3c046bd4608b080bdc04680
:085e280010e000e080bb000067
:020000040000fa
:105e3000f0b589b014000e9a1d00029101231100e3
:105e40001940019003911a4201d1a5420ad82200bb
:105e50000299019801f0fcf9a54203d82500280019
:105e600009b0f0bd2e1b37003200102e00d91022d1
:105e7000202104a802f084f80f2f0ed80f220198d9
:105e8000324004a901f0e4f9039b002be7d1220082
:105e90000299019801f0dcf9e1e71022019804a9c8
:085ea00001f0d6f9103fe7e71d
:020000040000fa
:105ea80010b50400902911dc00207f291bdd803902
:105eb800080010290ed802f091f80f0f250d170dc4
:105ec8000d0d1e0d0d0d0d0d0d0d2500a02903d076
:105ed800c02901d0002006e01968081d18600b6869
:105ee80023601a60012010bd1968081d18600b682e
:105ef80023601a80f6e71968081d18600b6823608c
:105f08001a70efe71968081d18600b6823601a609b
:065f1800d2175a60e6e713
:020000040000fa
:105f1e00f7b5040019000a9ee368676800933368ba
:105f2e00100001932369013b1c00002f00da0127aa
:105f3e000022009dea540123089d002c03dc002b57
:105f4e001cd02000febd02000a4309d1089aba1add
:105f5e005219002a04dc002df1dd019a9207eed5cc
:105f6e00099b099adb1701f0b4f88c4600991300cf
:105f7e00013c30320a55013d6146dee7102233689e
:065f8e0093433360dde7e0
:020000040000fa
:105f940080b584b000af184b1b68da10174b1b8810
:105fa4005b00d21a154b5b685343db12fb60124b48
:105fb4001b681b11114a12889a1a0f4b1b681b117c
:105fc4000e4909885b1a53431a130c4b9b685343bd
:105fd4009b13bb60fa68bb68d218094b1a60084b64
:105fe4001a6813009b009b1880331b127b607b682c
:105ff4001800bd4604b080bd141b0020fc1800200e
:04600400201b00203d
:020000040000fa
:1060080080b500af184b01221a60c046164bdb69f9
:10601800002bfbd1144b802252005a60c046124b11
:10602800db69002bfbd1104be822da600e4b0f4adc
:106038001a60c0460c4bdb69002bfbd10a4b1022bf
:106048005a83c046084bdb69002bfbd1084b212241
:1060580000219954064b202200219954024b832297
:106068009a75c046bd4680bd000c0042160010005f
:04607800f8190020f3
:020000040000fa
:10607c0080b582b000af194b34229b5cdbb2002b95
:10608c0027d000f0c7ff03007b60144b1b6a002b6a
:10609c001fd0124b5b6a3b60104b3c229b5cdbb20b
:1060ac00002b0bd00d4b9b6b7a689a4211d30b4b88
:1060bc001b6a3a681100002098470ae0074b9b6b5b
:1060cc007a689a4205d1054b1b6a3a681100002088
:1060dc009847c046bd4602b080bdc046441900205a
:020000040000fa
:1060ec0090b585b000af78600a00fb1c1a700f23c6
:1060fc00fb1800221a70154b9b689847031e0ed094
:10610c00124b1b680f243a19127879688a18127886
:10611c00100098473b191a783b1901321a700f235b
