:10000000F0070020392F0000932C0000DF310000A2
:1000100000000000000000000000000000000000E0
:10002000000000000000000000000000FB290000AC
:100030000000000000000000FB290000FB29000078
:10004000FB290000FB290000FB290000FB29000020
:10005000FB290000FB290000FB290000FB29000010
:10006000FB290000FB290000FB290000FB29000000
:10007000FB290000FB290000FB290000FB290000F0
:10008000FB290000FB290000FB290000FB290000E0
:10009000FB290000FB290000FB290000FB290000D0
:1000A000FB290000FB290000FB290000FB290000C0
:1000B000FB290000FB290000FB290000FB290000B0
:1000C000FB290000FB290000FB29000005060000B9
:1000D000050600000506000005060000C52D00000D
:1000E000C52D0000C52D0000C52D0000000000003A
:1000F000000000000000000000000000FB290000DC
:10010000FB290000FB290000FB2900000000000083
:1001100000000000000000000000000000000000DF
:10012000D9330000FB290000FB290000FB29000057
:10013000FB290000FB290000000000000000000077
:10014000FB290000FB290000FB290000FB2900001F
:10015000FB290000FB290000FB290000F00700201C
:10016000392F0000932C0000DF3100000000000058
:10017000000000000000000000000000000000007F
:100180000000000000000000FB290000000000004B
:1001900000000000FB290000FB290000FB290000F3
:1001A000FB290000FB290000FB290000FB290000BF
:1001B000FB290000FB290000FB290000FB290000AF
:1001C000FB290000FB290000FB290000FB2900009F
:1001D000FB290000FB290000FB290000FB2900008F
:1001E000FB290000FB290000FB290000FB2900007F
:1001F000FB290000FB290000FB290000FB2900006F
:10020000FB290000FB290000FB290000FB2900005E
:10021000FB290000FB290000FB290000FB2900004E
:10022000FB290000FB2900002337000023370000D2
:100230002337000023370000233700002337000056
:100240002337000023370000233700002337000046
:100250002337000023370000FB290000FB290000A2
:10026000FB290000FB290000233700002337000092
:100270002337000023370000233700002337000016
:10028000FB290000FB290000FB290000FB290000DE
:10029000FB2900002337000023370000FB29000062
:1002A000FB290000FB290000FB290000FB290000BE
:1002B000FB290000FB29000040F29A13C2F2000360
:1002C00001221A70704740F29913C2F20003012212
:1002D0001A70704740F2C913C2F2000301221A706B
:1002E000704730B589B004000D0040F2B413C2F27B
:1002F00000031868694602F062FC08B109B030BD1D
:100300002A006946200003F0EDFBF7E710B540F244
:10031000CC10C2F20000002101F0F0FF434258412E
:10032000C0B2010002000300844610BC02BC864635
:1003300081F300880C4710B540F2CC10C2F20000E7
:1003400003F01CFC002348B1180019001A009C4659
:1003500010BC02BC864681F300880C47063002F0D0
:10036000B0F800230028EFD140F23012C2F20002B0
:1003700040F26C11C2F2000140F2B413C2F2000369
:10038000186803F073FB00230028DDD1053002F06C
:1003900098F843424341DBB2D6E710B502F0F6FDD0
:1003A000010002000300844610BC02BC864681F3B3
:1003B00000880C4710B540F2B920C0F200000021BF
:1003C00003F047FC40F2C720C0F20000002103F018
:1003D00047FC40F2D520C0F20000002103F047FCAA
:1003E0000020010002000300844610BC01BC8646C8
:1003F00080F30088044710B540F29A13C2F200035C
:100400001B782BB940F2CB13C2F200031B78F3B96F
:1004100040F29A13C2F200031B7833B140F2CB13BF
:10042000C2F200031B78002B33D040F2C813C2F293
:1004300000031B78112B3AD00020010002000300BA
:10044000844610BC01BC864680F30088044740F215
:100450005004C2F2000440F23011C2F20001202226
:10046000200003F03FFB40F21011C2F20001200017
:100470002030202203F036FB4021200002F0F6F865
:1004800003F049FA40F2CB13C2F2000300221A70C3
:10049000D2E740F2C810C2F20000012102F016FEBD
:1004A00040F29A13C2F2000300221A70C4E740F22D
:1004B0009B13C2F200031B7833B940F29B13C2F2C4
:1004C000000301221A70B7E7012BB5D140F2C9131E
:1004D000C2F200031B78002BAED040F2C410C2F26F
:1004E0000000032102F0C2F840F2C913C2F2000377
:1004F00000221A70A0E710B540F29913C2F200036F
:100500001B782BB940F2C713C2F200031B7853B11A
:100510000020010002000300844610BC01BC864696
:1005200080F30088044740F26C10C2F200001421EE
:1005300002F0CCFDECE740F29913C2F20003187808
:10054000C0B201000200030084468EF300887447A5
:1005500040F29913C2F2000300221A700020010039
:100560000200030084468EF30088744740F2CB13E8
:10057000C2F200031878C0B20100020003008446F2
:100580008EF30088744740F29B13C2F20003187880
:10059000431E9841C0B201000200030084468EF35E
:1005A0000088744740F29A13C2F200031878C0B270
:1005B00001000200030084468EF30088744702782D
:1005C00040F2C413C2F200031A7042785A70827863
:1005D0009A70002001000200030084468EF3008818
:1005E00074470000F8B5C046F8BC08BC9E4670478A
:1005F00005320000F8B5C046F8BC08BC9E467047FE
:10060000E131000010B540F60003C4F200239B7DE9
:1006100043B340F2C003C2F200039C6A40F60003F9
:10062000C4F200235B8B9B071DD540F2C003C2F2CE
:1006300000032022FF2199540132FD39995440F2E0
:10064000C003C2F2000320229B5C5BB2013300D1E5
:10065000E4E040F2C003C2F2000320229B5C062BC0
:1006600000D107E110BD40F60003C4F200235B8B0C
:10067000DB070AD540F2C003C2F200032022FF21AB
:1006800099540132FD399954D9E740F60003C4F278
:1006900000235B8B5B070AD540F2C003C2F2000364
:1006A0002022FF2199540132FE399954C7E740F2C4
:1006B000C003C2F2000320229B5C5BB2032B77D005
:1006C000042B1BD0022BBAD140F2C003C2F20003AC
:1006D0001B694BB140F2C003C2F20003988880B29C
:1006E000002102F08BF9AAE740F2C003C2F2000336
:1006F000988880B2012102F081F9A0E740F2C0039E
:10070000C2F200039A691B69934218D040F2C003F9
:10071000C2F200039B68995C40F60003C4F2002318
:100720009962511C40F60002C4F20022D369002BEA
:10073000FCD140F2C003C2F2000399617FE740F2AE
:10074000C003C2F200035B69D3B140F2C003C2F23E
:1007500000039B885B0001221343D202C4F20022F3
:10076000536240F60002C4F20022D369002BFCD190
:1007700040F2C003C2F200032022032199545EE735
:1007800040F60003C4F200235968C02292020A43D3
:100790005A6040F60002C4F20022D369002BFCD15B
:1007A00040F2C003C2F2000320220621995446E71A
:1007B00040F2C003C2F20003D9695B69013B8B427E
:1007C00014D040F60002C4F20022D369002BFCD101
:1007D00040F60003C4F20023986A40F2C003C2F25C
:1007E0000003DA6850540131D96128E740F600036C
:1007F000C4F200235868E022D20202435A6040F655
:100800000002C4F20022D369002BFCD140F2C003E5
:10081000C2F20003202206209854D2E740F2C0031F
:10082000C2F200030021995440F60003C4F20023F1
:100830005968C02292020A435A6040F60002C4F28C
:100840000022D369002BFCD140F60003C4F2002340
:100850009B221A7640F2C003C2F200035B6A002BAF
:1008600000D1FFE640F2C003C2F200035B6A200041
:100870009847F7E640F2C003C2F2000300222021AD
:100880005A5401315A5440F60003C4F200239B32FB
:100890001A7640F60002C4F200220F31538B0B404F
:1008A000102BFBD140F2C003C2F200035B6A002BA5
:1008B00000D1D7E640F2C003C2F200035B6A200019
:1008C0009847CFE6500100201C0000000000000007
:1008D000CC010020300000000100000000030000F7
:1008E000C0000000A0860100000000000000000021
:1008F00000000000000000000000000000000000F8
:10090000DC0500001400000094020020A802002072
:100910000C00000001000000000000007C0200202C
:10092000000000007C0200202C00000001000000FC
:10093000C33C0000C73C0000292E0000E12E00004F
:1009400069380000CB3C0000E13200005F3300005A
:10095000F5370000073C0000E1170000B40100205B
:100960000400000000000000EC0000202400000053
:1009700000000000800100201000000000000000C6
:10098000C00000202C0000000000000090000020AB
:1009900030000000000000009C0100200800000062
:1009A00000000000C801002001000000000000005D
:1009B000C701002001000000000000009901002094
:1009C0000300000000000000500000204000000074
:1009D00000000000C401002003000000000000002F
:1009E000C9010020010000000000000010010020EB
:1009F0002000000000000000CA01002001000000EB
:100A000000000000CB0100200100000000000000F9
:100A10006C010020140000000000000030010020E4
:100A20002000000000000000B801002004000000C9
:100A300000000000900100200900000000000000FC
:100A4000FC01002040000000010000004A3BA04FD4
:100A500005F601A4E216378DDD72B73BC50E22B94B
:100A600030344CC79E7E1221DC9060334A3BA04F4D
:100A700005F601A4E216378DDD72B73BC50E22B92B
:100A800030344CC79E7E1221DC906033B4020020CB
:100A9000010000000100000001000000BC01002076
:100AA00004000000000000000000002050000000D2
:100AB000000000003C0200202000000001000000B7
:100AC0000100000003000000000000000000000022
:100AD000000000000000000000000000A401002051
:100AE000A40100200800000000000000C001002058
:100AF00004000000000000005C0200202000000054
:100B000001000000010000000300000000000000E0
:100B100000000000000000000000000000000000D5
:100B2000AC010020AC010020080000000000000023
:100B30000000000000000000666666666666666685
:100B400066666666F0B599B004004669002E00D16D
:100B5000FDE0076A002F00D1FBE00578022D47D8A1
:100B60008369002B00D1F6E0022D00D191E0052D24
:100B700000D9F2E02B1F012B00D9F8E02022002140
:100B8000684602F0B9FF202315226946CA54013392
:100B9000CD54638822228B541B0A232269468B542E
:100BA000327A2423CA5432780133CA54727801331A
:100BB000CA54042D00D18FE0052D3DD127230022FA
:100BC0006946CA54A38828328B541B0A01328B54BD
:100BD000E38801328B541B0A01328B54227A2C2376
:100BE000CA54132200212D20684402F085FF2FE013
:100BF000032DBCD1C169002900D1B0E00222A35E5F
:100C0000002B5DDB2022684602F06CFF20231522BA
:100C10006946CA540133CD5462880133CA54013342
:100C20000022CA54327A24236946CA5432780133E6
:100C3000CA5472780133CA5419220021272068440B
:100C400002F05AFF032D03D10222A35E002B5ADBD0
:100C50002022390010A802F045FF3A0060216846C2
:100C600002F0B4FD236A40335A7801210A435A70D6
:100C70002378022B4DD0216A4023CA5C2020824376
:100C8000CA54216ACA5C11388243CA54002019B080
:100C9000F0BD037C002B64D12022A169684602F0DC
:100CA00021FF022D68D1237C83B9202315226946B8
:100CB000CA540133133ACA54638820328B546BE709
:100CC00020223900684602F00DFF9FE70422E16907
:100CD00008A802F007FFA5E7002327228B54E2684B
:100CE000282168464254100A01316D466854100CA0
:100CF00001316854120E01316A540B930C930D9319
:100D00000E930F93A4E72022E16910A802F0EAFEF7
:100D1000A3E763880F2BAED8216A40228B5C20208A
:100D200003438B54206A61880F231940835C0F258D
:100D3000AB430B438354237C0020002BA7D0216AB4
:100D4000885C80235B4203438B5400209FE7E220B2
:100D50009DE7E2209BE7E22099E7E22097E7E22087
:100D600095E7E220E369002B00D190E794E7202289
:100D7000A169684602F0B6FE202315226946CA54CE
:100D80000133CD54638822228B5405E7F0B5CE465B
:100D9000474680B591B004000378994602F000FF01
:100DA0000190E768002F00D1F2E063689846002BBD
:100DB00000D1EFE002254B461D40002D55D1A16822
:100DC000002900D1E8E00222A35E002B38DB2022BC
:100DD00002A802F087FE142241460AA802F082FE11
:100DE0003423162202A9CA5422780133CA5401338B
:100DF0000022CA543A00372102A802F0E7FC019E03
:100E0000243EF6B2012E29D9E1684023CA5C1020A5
:100E10008243CA54E168CA5C01388243CA54E1681B
:100E2000CA5C11308243CA54E168C85C7F22024028
:100E3000CA54E36840335A7801210A435A7003E0E8
:100E40002022380002F04EFEE26842230021D154F5
:100E5000280011B00CBC90469946F0BDE1684022D4
:100E60008B5C102083438B54EEE72678F3439B077B
:100E700031D003234A461340022B00D08EE0638812
:100E800099461BB2E225002BE2DA2022A16802A8D3
:100E900002F028FE142241460AA802F023FE342361
:100EA000162202A9CA5401330A00CE54013349461E
:100EB000D1543A00372102A802F088FC019E243E5A
:100EC000F6B20025012EC3D8E16840228B5C1020C9
:100ED00083438B54BCE73F2335009D43E5BBB306FA
:100EE00029D540224146380002F0FCFD4223012270
:100EF000E168CA54019E243EF6B2012E25D9E1686C
:100F00004023CA5C10200243CA54E168CA5C0F2027
:100F10008243CA54E168CA5C11308243CA54E16812
:100F2000C85C7F220240CA54E36840335A780121EA
:100F30000A435A708CE720224146380002F0D2FD65
:100F400042230022E168CA54D4E7E16840228B5C66
:100F5000102003438B547BE74023FA5C10210A43A3
:100F6000FA54E168CA5C0F208243CA54E168CA5C43
:100F700011308243CA54E168C85C7F220240CA54DF
:100F8000E36840335A7801218A435A7000255FE7AD
:100F9000E2255DE7E2255BE7E22559E7E22557E731
:100FA000F0B5DE4657464E464546E0B5D3B009900B
:100FB000002A00D1BDE0049192018B1808935EE0F5
:100FC000019D029501900800C446B8461F00062303
:100FD0000100D94105330500DD412B004B401921AB
:100FE0000500CD416B405D4602CDAB464D4640CD40
:100FF000B246A94651445B18019901408A46029EB7
:1010000031008143554669405B189A181119022333
:101010003C00DC410B333D00DD412B0063401624D6
:101020003D00E5416B400393644643465C403C40D1
:1010300065461D406C40039B1B199B18320064469B
:101040003F4DAB45BCD14546079A0A930B970C958B
:101050000E910F90019B1093029B11930D9413001E
:101060000599069804C91C68A446624404C38342D7
:10107000F8D1049B40330493089A934259D012ABA1
:101080009946049A1178D97051789970917859706D
:10109000D17819700432043322A98B42F2D14F4621
:1010A000C0374A46122640F2110A40F2130850682F
:1010B000916B03000724E3410400F4416340C0083E
:1010C00043401068546AA44660441B180800544604
:1010D000E0410C004546EC416040890A41405B1804
:1010E00013640432BA42E2D10998030040F2880A3C
:1010F00053449C460AAA0592A830069002CB02C22D
:101100008342FBD1119A109B02930F9B01930E987F
:101110000D9B9A460C9F0B9D0A9E41F63844C0F2E7
:10112000000463460793BC463700A846A3465446CE
:101130004DE753B03CBC90469946A246AB46F0BD45
:10114000381D0000F0B5CFB00590069107921E0043
:1011500054AB80CB1D88202200211AA802F0CCFCC1
:101160002022002112A802F0C7FC202200210AA898
:1011700002F0C2FC0023099386B17FB120230293C1
:1011800022AB01930023009300220021059800F078
:1011900069FF040048B100F022FB03E0E22000F008
:1011A0001EFB040020004FB0F0BD052224A923A897
:1011B00002F0B8FA2AAC44220021200002F09CFC84
:1011C00000234A93569B4B931AAA4C924D941900B4
:1011D000059802F04BFC040010B100F000FBE1E7C1
:1011E0004AA8FFF7D3FD040010B100F0F8FAD9E7E0
:1011F00009AB15221A70133A5A709D702A0ADA70D8
:101200000423009309AB2A000221059801F010F98C
:10121000040010B100F0E3FAC4E741A800234193B1
:1012200043608360C3600361458022AB4361876193
:101230000223037009ABC3612AAB0362FFF782FC90
:10124000040010B100F0CBFAACE7122304AA9446D4
:10125000634400930023079A0699022001F07DFF62
:10126000040010B100F0BBFA9CE73BA8C223037056
:10127000B03B04AA944663441B88438022AB43607E
:10128000866012ABC3600AAB03612AAB436100F016
:1012900033FE040010B100F0A2FA83E73BA83E9BA6
:1012A000428801783F980090059801F025FA0400E3
:1012B00078E7F0B5CE46474680B58BB006900F0074
:1012C00005921C0000230993022916D81AD0139BFB
:1012D000002B00D188E0129BE3B1139B2343032230
:1012E0001A409046DAB1E22000F079FA07900798A8
:1012F0000BB00CBC90469946F0BDE22000F06FFAAE
:101300000790F4E7059B0F2BE1D9E22000F067FA84
:101310000790ECE7E22000F062FA0790E7E709ABFC
:10132000059A3900069801F0E9FC079060B9139B13
:101330001B19099A93420AD86509E406640F4646C8
:10134000B9462700139C25E000F049FACFE7E220D8
:1013500000F045FA0790CAE7814600F040FA4B4694
:101360000793C4E74B460BB9022D2ED0EBB20422F3
:101370000292129A92190192FAB20092059A494683
:10138000069801F040FA28BB04360137082F28D010
:10139000A642ACD2002FE5D1A31B1F2BE2D94B46AE
:1013A0000BB9022D23D0EBB220220292129A92198D
:1013B000019200220092059A4946069801F023FA0C
:1013C0000028C9D120360135E2E7052FCED10436F9
:1013D0000627DDE78146484600F001FA4B460793B1
:1013E00085E701354746D3E7002307937FE7EBB254
:1013F00004220292129A92190192FAB20092059A6C
:101400004946069801F0FFF910B904360137BFE7E5
:101410008146E0E741F20003C4F20003022018769F
:1014200041F20041C4F2000100220A7441F60001B9
:10143000C4F2000108621A8641F20002C4F20002FE
:101440008021490413690B42FCD046F22003C0F20C
:1014500080031B685B009B0E9B0240F2002213433B
:10146000D200C4F20002536341F20002C4F200024F
:101470008021490413690B42FCD041F20003C4F2FD
:10148000000302221A86D202C4F20002802149041B
:1014900013690B42FCD041F60043C4F2000340F252
:1014A0000712C0F201021A6241F60042C4F20002C1
:1014B000042153681942FCD141F60043C4F20003F1
:1014C000C8224021995041F60042C4F20002C820CF
:1014D00013581942FCD041F60043C4F20003CC2259
:1014E0004021995041F60042C4F20002CC2013582A
:1014F0001942FCD041F60043C4F20003D02240213F
:10150000995041F60042C4F20002D020135819420B
:10151000FCD041F60043C4F20003D8224021995088
:1015200041F60042C4F20002D82013581942FCD000
:1015300041F60043C4F20003DC224021995041F6F9
:101540000042C4F20002DC2013581942FCD041F6DC
:101550000043C4F20003F0224021995041F60042BA
:10156000C4F20002F02013581942FCD070477047B3
:10157000F0B5C64600B5BFF35F8F62B64EF20013FA
:10158000CEF2000340F220315A581202120AC0244F
:10159000240622435A5008225A6040F224329958B5
:1015A000FF26B143C025294399501021596099580D
:1015B0003B48804601404CF2000C60460143995084
:1015C000202159609858374F3840C02109040843FA
:1015D00098504020586098580002000A20439850C4
:1015E00080225A6040F228329C58B4432C439C50CD
:1015F00040F200105860985844462040644620430A
:10160000985040F20020586098580740394399504C
:10161000D8325A607D3AFF3A995840F600000143AB
:1016200099509958995840000143995099589958A0
:1016300040000143995099589958400001439950EE
:1016400099589858802109030143995099589858FE
:101650008021490301439950995898588021890362
:1016600001439950995898588021C90301439950D2
:10167000995898588021090401439950995840F28B
:1016800038301958B1432943195080214904596011
:101690009858C901014399509B5804BC9046F0BD2D
:1016A000FF00FFFFFFFF00FF0122D20703004B40B6
:1016B0003CD430B4431A01D2C01AC9184B004400BC
:1016C000240EFF2C28D024B31B0E20D0E31A182B95
:1016D0001DDC09021143C40D000210435D4219359F
:1016E0000A00AA40D209D940451801D36D08023436
:1016F000013CE405280A0121C9072D062A438A4135
:1017000060414100090EFF2901D3C00DC00530BC66
:101710007047C00FC007FAE742001823DA41FF2ADA
:10172000F5D07F2000010C300005F0E7A4465140C1
:10173000431A02D25340C01AC9184B000902114380
:101740001B0E4400240EFF2C40D083B15B421B19BA
:10175000012B10D322D1C30D4002401A10D3DB0558
:101760000100400AC905914158416446704724422E
:10177000FBD10020F9E7C30D40024900401AF4D024
:10178000002101314000FCD38C4204D95B1ADB05F7
:10179000400AC018E9E7180AC007E6E7192BE4D8A1
:1017A00001330C00D940DC414C40012C4941C30DB0
:1017B00000021043441A01D4A4006408013BDB0575
:1017C000200A24069441584164467047FF2B01D0FB
:1017D0004102CAD07F2000010C300005C5E77047E8
:1017E00070B5002800D18BE0046819B946F60041B5
:1017F000C0F2DC216300994200D283E044F240232E
:10180000C0F20F039C4200D97EE0080002F093F87A
:10181000051C200002F08FF8011C281C00F0BEFD02
:10182000061C4BF69571C3F2D631281C00F0BFFBA5
:101830000021C4F22011FFF737FF011C301C02F019
:10184000EAF902F023F841F68023C0F206039C4235
:1018500042D840F2FE13FF25984203D8FE3D0128EE
:1018600000D9450841F68023C0F20603A3429B41FC
:10187000594240F60003C4F200231A680220824352
:101880001A6040F60002C4F20022D369002BFCD19A
:1018900040F60002C4F20022D56013681B480340E2
:1018A000090619431160136802210B43136040F6C7
:1018B0000002C4F20022D369002BFCD140F60003E1
:1018C000C4F2002310225A83D201C4F20022D36949
:1018D000002BFCD1012070BD40F27D134FF67F75C7
:1018E0009842BFD840F201250328BBD945007B3B75
:1018F000FF3BB5FBF3F52D02B0FBF3F00543B1E779
:101900000020E8E70020E6E70020E4E7FFFFFFFC17
:10191000F0B5DE4657464E46C0B592B007900491EA
:1019200006929B460023119302291DD8049B022B8B
:101930001FD01B9B002B73D01A9B13B311AB069ABD
:101940000499079801F0DAF90590F8B91B9B5B44FC
:10195000119A93421DD85B465B092024002700257D
:10196000B94627001C003FE0E220FFF738FF059052
:1019700058E0069B0F2BDCD9E220FFF730FF0590E3
:1019800050E0E220FFF72BFF05904BE0FFF727FF29
:1019900048E0E220FFF723FF059043E06301119A3E
:1019A000D31A1F2B22D85B465B19DB065B0F9946C7
:1019B0001C3F1BE0FFF713FF34E07B1A1B9A561BFA
:1019C0009E4200D91E001A9B581909AB9C466144DF
:1019D000320002F087F8AD19202F1FD040F2010C21
:1019E000E1441B9BAB421DD9202FD7D0E3B2029715
:1019F00009AA01924A46D2B20092069A049907981F
:101A000000F030FB05900028D4D1E3004B449B004C
:101A100000219B45D1D95A46D11ACEE70134E0E7DF
:101A200000230593059812B01CBC91469A46A34624
:101A3000F0BDF0B587B004000F2302AA94466344BA
:101A400001221A70FFF793FD0500002844D002F030
:101A500083F80600200001F0C4FF0190013E48F227
:101A6000A067C0F2010716E001230F2202A98C46ED
:101A700062440021280001F06BFE280001F0E1FF24
:101A800002F0A9F802AB04225A80002C39D0731C52
:101A9000002B22DD013E2B689B68BB4220D90397B7
:101AA000042303AA0621280001F07FFF0400F52883
:101AB000DAD1002300220021280001F076FF040083
:101AC0000BE00393042303AA0621280001F06DFF15
:101AD00004000028DBD122E0E224200007B0F0BDA2
:101AE00001230F2202A98C4662440021280001F044
:101AF0002FFE280001F0A5FF02F06DF802AB0422D2
:101B00005A8002AB023304AA0199280001F03FFF7A
:101B100004000028BBD12B689B68BB42D1D802AB24
:101B2000598804A801F0F6FA0400731C002BD4DDD8
:101B30000028AFD1D1E7F0B5C64600B584B00600A5
:101B40000D00080001F04DFF0190280002F004F89C
:101B5000070018E0280001F063FBB8B903232B74D9
:101B600014E00323337073780133320001992800A5
:101B700001F0F6F80400E72813D100232B747B1E34
:101B8000002F4DDD1F002B7C032BE3D12B681B782E
:101B9000002BE6D0062BE4D0012BE4D17633337052
:101BA000E1E72B7C032B01D003232B74C4BB012062
:101BB00002F019F840F2E348B71DC02200213800B6
:101BC00001F09AFF02AB0633C0221A803A00019955
:101BD000280000F0B1F80400D0B1022002F003F8B0
:101BE00001235B429C46E0444346002BE4D117E0CE
:101BF000380001F0D3FB040090B9380001F014F86C
:101C000004000DE0280001F014FA02232B740DE00B
:101C100002ABDC88032CEBD860426041E630040064
:101C20002B68587802F00EF80028EBD0200004B0A2
:101C300004BC9046F0BD7047982F8A42914437719A
:101C4000CFFBC0B5A5DBB5E95BC25639F111F1593F
:101C5000A4823F92D55E1CAB98AA07D8015B831281
:101C6000BE853124C37D0C55745DBE72FEB1DE802D
:101C7000A706DC9B74F19BC1C1699BE48647BEEF5C
:101C8000C69DC10FCCA10C246F2CE92DAA84744AE7
:101C9000DCA9B05CDA88F97652513E986DC631A85D
:101CA000C82703B0C77F59BFF30BE0C64791A7D53C
:101CB0005163CA0667292914850AB72738211B2EC4
:101CC000FC6D2C4D130D385354730A65BB0A6A76AC
:101CD0002EC9C281852C7292A1E8BFA24B661AA8B8
:101CE000708B4BC2A3516CC719E892D1240699D6C8
:101CF00085350EF470A06A1016C1A419086C371E41
:101D00004C774827B5BCB034B30C1C394AAAD84E1E
:101D10004FCA9C5BF36F2E68EE828F746F63A57859
:101D20001478C8840802C78CFAFFBE90EB6C50A4EC
:101D3000F7A3F9BEF27871C6F0B585B00500019140
:101D400016001F0073B16AB102AB0122DA8001F004
:101D5000AFFD70B13B0032000021280001F017FEFA
:101D6000040003E0E220FFF73AFD0400200005B084
:101D7000F0BD002300220421280001F016FE04001B
:101D8000F52800D070BB2A681378013B59424B41BB
:101D90005B4288210B4002A94B71507801F052FF41
:101DA00040B9012302AA05320199280001F0D0FCB4
:101DB0000400B8B902AB063332000199280001F0E3
:101DC000E6FD040060B9327802ABDA803B889342CA
:101DD0000FD3032A12D8E620FFF701FD040001E02B
:101DE000FFF7FDFC002300220521280001F0DDFDA6
:101DF000BCE7ED20FFF7F3FC0400F3E702AB06338A
:101E0000013A1A80721C0199280001F0C0FD0400FB
:101E100038B902AB9A1DDB8801339BB213803B803B
:101E2000E0E7FFF7DCFC0400DCE730B543F2002319
:101E3000C4F2000340F204421A60043A1A6100221C
:101E400042215A5441394520195405301A54023060
:101E500019540130195409301954013019542638D5
:101E60001A54013010241C5403301A5402382634FA
:101E700018550534185540F22444DC66802440F29D
:101E800091151D511034195130341A55013419551A
:101E9000013419550134195501341A5503341A55B2
:101EA00001341A551634195501341955AF31BF3C58
:101EB0005C54013102345C5401315A5401315A549A
:101EC00001315A540B315854E031CCF20001B93091
:101ED000195040F20011802000035850FE3940F2A2
:101EE00053101954013019543831FF315A5401310B
:101EF0005A5432315A5030BD30B599B0040083681D
:101F0000002B50D04269002A4FD04023D35A40F2D0
:101F1000001040F280111940002381423BD1A26899
:101F2000D25C6169C95C4A40E168CA540133202B24
:101F3000F5D125690020A5B320226169684601F02A
:101F4000D1FD202312226946CA5422780133CA5493
:101F5000638822228B541B0A01328B546368197ADE
:101F60000132684681541978013281545A78262307
:101F7000C254192200212720684401F0BDFDA16848
:101F8000202210A801F0AEFD2A006021684601F071
:101F90001DFC002005E04032537801218B43537033
:101FA0000C3819B030BDE220FBE7E220F9E730B48D
:101FB00005004D400124E407254042004B00120E6D
:101FC00032D01B0E3CD0FF2A33D0FF2B3FD0D2188B
:101FD00000022043000A09022143090AC4B24C430B
:101FE000000AC3B24B43000A4843210A5B18190A8E
:101FF000091801D44900013A080A7F3A2ADBFE2A6F
:102000000FD2D2051C43240601D001242143C9B2BA
:1020100080295041802901D140084000284330BC2C
:102020007047FF20C005F9E71B0EFF2B0AD02800E0
:10203000F5E7400206D1FF2BF3D1490202D1F0E7C8
:10204000FF2AF4D17F2000010C300005E7E74902A8
:10205000F8D1E6E743020132E9D15B120233E6D957
:10206000D805E4E7F0B5B7B005000F0011001A007D
:102070003CAB1B783EA806788DB13D9878B1042E14
:102080002CD0202E12D10E2068440090380001F090
:1020900064F8040078B12000FFF7A1FB03E0E22020
:1020A000FFF79DFB0400200037B0F0BDE220FFF7F2
:1020B00096FB0400F7E780231F4318E0290004A8DB
:1020C000FFF739FD040010B1FFF789FBEBE73200A1
:1020D000172169443D9801F005FDE4E70E206844AE
:1020E0000090380001F039F804000028D3D104AC86
:1020F000E7700E236B441B88A380280001F047FD86
:10210000210001F0D1FC04000028D7D0FFF767FBC5
:10211000C9E770B540F29003C2F200031B7D002BAB
:102120004AD040F29002C2F200029368516840F631
:102130000042C4F20022127ED2071FD599421DD957
:1021400040F60041C4F20021072640F29000C2F29E
:102150000000012509E00268D25C8A62013344680C
:102160000A7E2A420AD09C4208D94A683240012A93
:10217000F1D102685C00A25A8A62EFE740F2900255
:10218000C2F20002936052689A4215D840F290035E
:10219000C2F2000300221A755A6040F60042C4F2EF
:1021A000002201211175DB6833B140F29003C2F2C5
:1021B00000031869DB68984770BDF0B5B5B004003E
:1021C0000F00009378B102ABD9709A8001F0DFFC68
:1021D00002A901F055FC060050B1FFF700FB3500E5
:1021E000280035B0F0BDE220FFF7F9FA0500F7E767
:1021F000210002A8FFF79FFC0190050070B17B1E33
:10220000012B03D90198FFF7EAFAE9E72368587828
:1022100001F018FD0028F5D0D12D12D002AB9E7927
:10222000002EDDD0009B002BDAD07B1E012B0AD9BB
:10223000062ED5D9042202ABD91D009801F052FC1C
:10224000CEE73500EAE72368587801F0FBFC002868
:10225000EED002ABDB79009A1370C1E710B540F203
:102260009003C2F200032C229B5C33B340F2900334
:10227000C2F20003DA691B6A93421ED240F2900355
:10228000C2F20003986A40F60042C4F20022916A4A
:102290001B6A546807222240012A0FD040F29002A4
:1022A000C2F200029269D154013340F29002C2F2AC
:1022B00000021362D2699A4208D010BD40F2900227
:1022C000C2F2000292695C00A152EDE740F2900375
:1022D000C2F2000300222C215A54DA6140F6004277
:1022E000C4F20022583111755B6A002BE5D040F230
:1022F0009003C2F200035B6A9847DEE770B5040002
:102300000D0001F03BFC40F2B423C2F20003187050
:1023100038B101F070FC40F2B423C2F20003187827
:1023200070BD40F2B811C2F2000140F2B413C2F223
:102330000003186801F062FB40F2B423C2F200030C
:1023400018700028E5D140F29011C2F2000140F26D
:10235000B413C2F20003186801F095FC40F2B423F4
:10236000C2F2000318700028D3D140F2B813C2F2B1
:102370000003987801F0A3F840F2CA13C2F20003F8
:10238000187063788342C4D00DB16070C1E740F229
:10239000B423C2F20003E1221A70BAE730B4050098
:1023A0004D400124E407254042004B00120E26D088
:1023B0001B0E34D0FF2A2DD0FF2B35D0D21A0002AD
:1023C00020430902214343084908A00D5B1A02D2A9
:1023D000013A5B005B185B008B4200D35B1A404103
:1023E000F9D37F3222DDFF2A06D2D205C91A8B42E9
:1023F0005041284330BC7047FF20C005F9E71B0E51
:1024000003D0FF2B12D1490210D07F2000010C30E5
:102410000005EFE74002F8D1FF2BEDD1F5E7FF2AE9
:10242000EAD14002F1D1E7E74902EED12800E1E725
:1024300030B5B3B0050036A800787DB150B36BB1AC
:102440006C46E170A280032929D11F2815D92022CA
:102450001900A01D01F046FB002423E0E220FFF755
:10246000BEF904002AE003281CD9042219006B4697
:10247000981D01F037FB013414E0002412E0002421
:1024800010E029006846FFF756FB0400B0B1FFF7E3
:10249000A6F913E06C46E170A2800329EFD0002476
:1024A0000229E0D0280001F072FB2200694601F009
:1024B00079F904000028E4D0FFF791F9200033B047
:1024C00030BD00B585B00300062804D00120052BDF
:1024D0001CD005B000BD40F2B413C2F2000318686E
:1024E0002023019340F2FC13C2F200030093002367
:1024F0000622022101F0B0FA0028EAD043F2F840A7
:10250000C0F2000001F08AF90120E2E740F21C234A
:10251000C2F2000340F2B412C2F20002106840F2AC
:102520006C12C2F2000202920622019240F2FC12E8
:10253000C2F20002009200220521FEF703FE0028ED
:10254000C7D043F21450C0F2000001F067F9012037
:10255000BFE730B5B3B005000320084065B16C4655
:10256000E170A28002280CD98A061CD540221900ED
:10257000A01D01F0B7FA09E0E220FFF730F90400EE
:102580000EE014221900A01D01F0ACFA280001F0A1
:10259000FEFA694601F098F8040050B1FFF71FF900
:1025A000200033B030BD20221900A01D01F09AFA9E
:1025B000ECE729006846FFF7BEFA040068B9369BCD
:1025C000002BEDD06B469B79222BE9D920226B465C
:1025D000D91D369801F086FAE2E7FFF700F9DFE748
:1025E00040F60003C4F2002301221A60D202C4F2B2
:1025F0000022D369002BFCD140F60003C4F2002373
:1026000040F200125A60D200C4F20022D369002BBB
:10261000FCD140F60003C4F20023E822DA60D23A8B
:10262000C0F210021A6040F60002C4F20022D36920
:10263000002BFCD140F60003C4F2002310225A8381
:10264000D201C4F20022D369002BFCD140F2C003B6
:10265000C2F20003002221215A5401395A5440F693
:102660000003C4F200239B329A75704770B50028AE
:1026700040D040F29003C2F200031A7D0023BABB9F
:1026800040F29003C2F200031860596001321A75DB
:102690005C6840F60043C4F200231B7EDB0718D5BC
:1026A000D4B1002340F60041C4F2002107260125E1
:1026B00007E0C25C8A6201330A7E2A420BD09C4248
:1026C0000AD04A683240012AF3D15A00825A8A62FB
:1026D000F1E7002400E01C0040F29003C2F2000386
:1026E0009C6040F60043C4F2002301229A75012346
:1026F000180070BD0023FBE730B5B3B00500C8B1CA
:10270000C3B16846C170828049B2002917DB042238
:102710001900063001F0E6F9280001F038FA00222D
:10272000694600F09DFD0400D8B1FFF758F820007D
:1027300033B030BDE220FFF752F80400F7E7202263
:102740001900063001F0CEF9369BA3B12022190002
:102750002620684401F0C6F9280001F018FA012289
:10276000DEE729006846FFF7E6F904000028DED01E
:10277000FFF735F8DBE7280001F009FA0022CFE780
:10278000F0B583B005000C0000283AD003680BB107
:1027900001F0EBF940F2EC01C2F2000100230B6101
:1027A0004B618B61CB610B6240F28013C2F200037C
:1027B0000A00C1CBC1C21B681360200001F07EF982
:1027C00038B940F2EC03C2F200032B606378032BAC
:1027D00001D003B0F0BD40F2EC00C2F20000023BB9
:1027E0000193030011330093132300220021FFF70C
:1027F0008FF80028EDD12A68537C07218B4353744E
:10280000E7E7E120E5E770B584B006000D001100B0
:102810001A0008AB1B780AA80078099C7CB1042830
:102820001AD0202810D10E2068440090280000F013
:1028300094FC040068B12000FEF7D1FF20E0E22004
:10284000FEF7CDFF04001BE0E220FEF7C8FF040006
:1028500016E080231D4308E00E2068440090280005
:1028600000F07BFC04000028E5D10E236B441A889D
:1028700000230093099B29003000FFF73DFF04006F
:10288000200004B070BDF0B5CE4600B582B00500A2
:102890000E001400406840273F1A974200D91700E5
:1028A000083028183A00310001F01CF96B68E31871
:1028B0003F2B04D86B6002B004BC9146F0BD40F2DF
:1028C000080CAC4463460122019361462800FEF7E0
:1028D00067FBE41BA2099146F1192800FEF760FB93
:1028E0004A46531C9B012A68944663442B603F234D
:1028F0001A0022406A6021009943C9197118019891
:1029000001F0F0F8D7E7F8B504000D00406823683F
:10291000C7182760FF0009235B421B1A3F261E4091
:10292000431C6360231880221A72321D093020185C
:10293000002101F0E1F863689C466644A3193A0E51
:102940001A733A0C5A733A0A9A7332000832626068
:10295000DF739209210008312000FEF721FB2000DF
:1029600088302C00203503E004300434AC4208D019
:1029700003230268E2540268120A0260013BF8D2A3
:10298000F2E7F8BD10B50400A8B302000832010058
:1029900001C901F04BF8FEF722FF68BBA368A3B1A1
:1029A0001A6872B15B6863B1216820009047FEF736
:1029B00016FF08BBA3685B6820009847FEF70FFF6F
:1029C00002E0F620FEF70BFFB0B963681A6872B137
:1029D0005B6863B1216820009047FEF700FF58B99B
:1029E00063685B6820009847FEF7F9FE04E0F62074
:1029F000FEF7F5FE00E0F02010BDFEE710B540F256
:102A0000C003C2F2000300229A61DA6140F60003BB
:102A1000C4F200239B321A765A68144C22405A6042
:102A200040F60002C4F20022D369002BFCD1A9B108
:102A300040F2C003C2F20003202203249C54400051
:102A4000084340F60003C4F20023586240F6000237
:102A5000C4F20022D369002BFCD110BD40F2C003A8
:102A6000C2F20003202204249C54E8E7FFFFFBFF8E
:102A700030B5B3B00500B8B13698A8B16846C1709A
:102A80008280CA0705D4B3B120221900063001F0B4
:102A900029F8280001F07BF8694600F0D3FE040015
:102AA00070B1FEF79CFE03E0E220FEF798FE040002
:102AB000200033B030BDE220FEF791FE0400F7E7BE
:102AC00029006846FFF737F8040010B1FEF787FECB
:102AD000EEE720226B46D91D369801F003F8E7E7B0
:102AE00040F60043C4F2002340F20412C4F2100284
:102AF0001A60164A9A81C02292025A6040F6004239
:102B0000C4F20022D369002BFCD140F60043C4F28A
:102B100000231A6802210A431A6040F60042C4F2F8
:102B20000022D369002BFCD140F29003C2F20003D3
:102B300000229A61DA611A622C215A545A621A6090
:102B40005A609A601A75DA60DA8570472BF6FFFFD3
:102B500010B50400A822002100F0CEFF4EF26763FA
:102B6000C6F609238822A3504AF68563CBF667335D
:102B70000432A3504FF27233C3F66E430432A350B3
:102B80004FF23A53CAF24F530432A35045F27F2317
:102B9000C5F20E130432A35046F68C03C9F6053372
:102BA0000432A3504DF6AB13C1F683730432A35025
:102BB0004CF61953C5F6E0330432A35010BD70B57E
:102BC000B2B005000E0078B100236A46D37093803E
:102BD00000F0DDFF694600F05DFF040048B1FEF73C
:102BE000FEFD200032B070BDE220FEF7F8FD0400CB
:102BF000F7E729006846FEF79EFF040060B96B46C0
:102C00009B79232B0BD1002EEBD020226B46D91DB4
:102C1000300000F067FFE4E7FEF7E1FDE1E7E620C2
:102C2000FEF7DDFD0400DCE7030002780020042A43
:102C30001CD15878072822D00CD90F2825D016D9B6
:102C4000112824D0FF384342584140420C23984376
:102C5000E1300BE0012814D040B1032813D005382F
:102C60004342584140420A239843E13070470838B4
:102C700043425841434219201840E130F6E7D7203B
:102C8000F4E7D120F2E7D220F0E7F420EEE7F320DA
:102C9000ECE7FEE7F0B5D6464F464646C0B594464B
:102CA00000B38A46884680440023134815E0434019
:102CB0009BB26D00EDB2013E56B1DF0B5B009BB2E3
:102CC0002C000C40621E9441E4B2BC42EFD1F0E70C
:102CD00040F20109CA44C24505D05246117808267F
:102CE0000125EAE70023624613701B0A53701CBCDF
:102CF00090469946A246F0BD0580FFFF10B560B131
:102D00005BB10068407858B101290ED049B1022961
:102D10000FD0E220FEF763FD02E0E220FEF75FFD48
:102D200010BD80221A600800FAE740221A600020D5
:102D3000F6E7072A03D824221A600020F0E7082AC1
:102D400005D00F2A08D848221A600020E8E79932F7
:102D5000FF321A600020E3E7E220FEF740FDDFE7E4
:102D6000F0B583B00600019115001F0002B133B920
:102D7000E220FEF734FD0400200003B0F0BD00F0B7
:102D800097FD38B17B1E6A1CFF21300000F0E0FC8B
:102D90000400F1E7002300220421300000F005FECA
:102DA0000400F52800D030B93B002A00019930001A
:102DB00000F0CEFC0400002300220521300000F0CA
:102DC000F4FDD9E710B540F60043C4F200239B7D23
:102DD0001BB340F60042C4F20022137EDBB2927DA8
:102DE00052B2002A1ADB40F60043C4F200231A7ED6
:102DF000D2B29B7DDB0703D5D30701D5FFF789F955
:102E000040F60043C4F200231A7ED2B29B7D5B07DA
:102E100003D5530701D5FFF721FA10BD5BB2002B94
:102E2000E1DA00F0BBF9DEE7F0B583B00C00019207
:102E30001D0000F040FF070000B3C66A06B31E2263
:102E40008168300000F02CFA38B960082A00019936
:102E5000736898470300F0200BB903B0F0BDAAB225
:102E6000B968300000F01CFA0028F6D1F3689847E2
:102E70000028F2D0F020FEF7B2FCEEE7E220ECE70B
:102E8000E220EAE700230E4A10B513600D4A0E4C0B
:102E900013600E4A13600E4A13600E4A13600E4A06
:102EA000536213610133936000F0BDFE00F0EFFE4A
:102EB0000A4B9C4200D310BD08CC9847F8E7C046A7
:102EC000C00100200C000020F005000008000020D8
:102ED000000000200400002010000020F405000085
:102EE000F0B583B0019117001D0000F0E4FE04006E
:102EF000A8B1A5B19FB1C66AAEB12A88019B580896
:102F000039003368984790B12A88A168300000F0F2
:102F1000C7F968B9F368984760B1F02008E0E2208B
:102F2000FEF75DFC06E0E220FEF759FC02E0F0202F
:102F3000FEF755FC03B0F0BD10B543F2F743C0F205
:102F40000003984743F2F743C0F20003984700F0AC
:102F5000A3FB40F20003C0F200037F2293434EF62E
:102F60000052CEF20002936042F68563C0F2000385
:102F7000984743F2F743C0F20003984743F2F74300
:102F8000C0F20003984700F07EFAFEE700B583B078
:102F900040F23012C2F2000240F26C11C2F20001A3
:102FA00040F2B413C2F20003186800F05FFD38B1BC
:102FB00040F2CB13C2F2000301221A7003B000BD2D
:102FC00040F2B413C2F20003186840F21013C2F2C8
:102FD00000030093002305220121FFF749FDE7E7E5
:102FE00042F20003C4F2002301221A605203C4F229
:102FF0000022012113691942FCD142F20003C4F2FC
:10300000002340F210721A6003221A732A329A8344
:1030100006329A7240F29C12C2F200020021116044
:1030200001225A725203C4F200221369002BFCD110
:10303000704730B583B0040000F0A9FD0500200002
:1030400000F036FC18B9200000F043FC20B120004D
:1030500000F051FB03B030BD280000F0F3FD030089
:103060000020002BF6D16B46DD1D02232B702000C3
:1030700000F0B7FC010001232A00200000F068FBEB
:10308000E8E730B58DB00C0081B12023029304AB8A
:1030900001930023009300220021FEF7E3FF0500C7
:1030A00048B1FEF79CFB28000DB030BDE220FEF7D2
:1030B00096FB0500F7E7042204A9200000F012FDAA
:1030C000201D052206A900F00DFDECE770B50400F7
:1030D0000D00E8B140F29003C2F200032C229B5C89
:1030E000002003B170BD00F0B2F940F29003C2F2CB
:1030F00000039C61DD6100221A622C2101205854DA
:10310000DA8540F60043C4F2002384329A75E9E779
:103110000020E7E710B582B0040043F69043C0F208
:1031200000031A6801925B680093042911D10422FC
:1031300001A900F048FC70B104226946200000F0AB
:1031400042FC431E9841404206239843D73002B0C8
:1031500010BDD020FBE70020F9E770B5049D0324E3
:1031600004402DB1022C07D9E220FEF738FB0DE018
:10317000E220FEF734FB09E000242C8007342340D2
:10318000053C204018B9D20013432B8070BDC90004
:1031900019431202114329800020F7E710B540F6C9
:1031A0000043C4F200235B8B0722134003B910BD18
:1031B00040F29004C2F20004E38500F048F940F6C2
:1031C0000043C4F2002384221A752C230022E25407
:1031D000636A002BEBD0A06A636A9847E7E7FEE7D3
:1031E00010B5054C227832B9044B13B1044800E005
:1031F00000BF0123237010BD50010020000000001B
:1032000000000000034B10B51BB10349034800E068
:1032100000BF10BD000000005401002000000000AD
:1032200070B50500FEF7A3F90400A8B10368ABB1BF
:1032300000F03EFB18B9280000F04BFB18B120004D
:1032400000F06EF870BD23681B780020002BF9D1C8
:103250002800FEF7EEFBF5E7E220F3E7E220F1E7D6
:1032600070B50C00150012238B700B3B4B7000F0F7
:10327000E9FC98B9E3787F2B09D863780433DBB293
:103280004DB96370200000F055FC002070BD6378DC
:103290002033DBB2F4E720336370F3E7F520F5E782
:1032A00070B50500023292B242F22834544340F223
:1032B000E833B1FBF3F1B4FBF1F40134AB689847A8
:1032C00028B1013C0AD3012000F085FCF6E7631E1B
:1032D0009C416042EF239843F03070BD0020FCE732
:1032E00010B5040040F2C003C2F2000320201B5CB2
:1032F000002003B110BD40F2C003C2F200039C8065
:10330000D9605A6100229A601A61012199701A707D
:1033100020315A5420392000FFF770FB0120E9E7E3
:1033200070B50400A8B14368ABB11D69ADB100230D
:1033300000220021A847D02800D070BDB73800F087
:1033400052FC63681D690023002200212000A84769
:10335000F3E7E220F1E7FD20EFE7FD20EDE770B5B0
:10336000050040F2C003C2F2000320201B5C0020D5
:1033700003B170BD40F2C003C2F200039D8000247F
:10338000DC605C6199601A619C701C7021229C5405
:1033900000212800FFF732FB0120EAE770B582B078
:1033A00005000478023CE4B201AE320001002000C6
:1033B000FFF770FC32782B5DE5209A4201D002B015
:1033C00070BD2C1901AB58786378C01A431E984120
:1033D0004042E5231840F2E710B542F20003C4F280
:1033E00000235B7AABB142F20003C4F20023987A67
:1033F000C0B233229A7240F29C13C2F200031B68DF
:103400003BB130B140F29C13C2F2000359681B6813
:10341000984710BD40F20043C4F2000300221A8115
:103420009A7901210A439A719B7803221340022B57
:103430000CD040F20043C4F20003013A9A705202E9
:10344000C4F20002012193790B42FCD0704740F690
:103450000043C4F200235B8B5B0713D040F60043AC
:10346000C4F2002380221A76793A5A831B7E5B07C6
:1034700008D540F60043C4F2002304219A6A1A7E5C
:103480000A42FBD1704710B582B08E235B021C68E4
:10349000002000F083F8631C10D084F3888841F684
:1034A0000443C0F201031B680193019C640864009B
:1034B000200021002200230000F0BDF8FEE70300F9
:1034C000102814D00AD90220502B0FD0603B58424C
:1034D000584140427A2398437E3007E048B1023B8E
:1034E0005842584140427D2398437E307047012026
:1034F000FCE70020FAE770470D0A205772697465EF
:10350000206661696C656420696E20736C6F74203D
:10351000360D00000D0A20577269746520666169D6
:103520006C656420696E20736C6F7420350D00002B
:1035300030B583B00C0000F0BEFB80B1C56A85B128
:10354000019481681E222800FFF7AAFE040018B922
:103550002B69002101A89847200003B030BDE22468
:10356000FAE7E224F8E730B583B00D006A4601A916
:1035700000F048F8040070B9019B23B15B6913B1F6
:10358000280098470400009B2BB15B691BB1280001
:10359000984704B90400200003B030BD10B5FFF710
:1035A00039FF45F20003C4F2001304225A60FEF70B
:1035B0003CFCFDF72FFF00F0FCFAFFF711FDFFF7D1
:1035C0008FFAFFF70DF8FEF736FBFDF7D1FF10BDC0
:1035D00013B50B006A46D41D5A68C1B22170D205DA
:1035E00005D55A69C0B2541C5C61117016BD012228
:1035F0002100180000F042FB08B12078F6E7012016
:103600004042F3E749B152B140F2A823C2F20003AD
:103610001B78834205D0E1207047E220FCE7E220DE
:10362000FAE740F2A823C2F20003586808609B68DA
:1036300013600020F0E7E0B545464E465746E0B43B
:103640005D4620B4254626462746A046A146A2460A
:10365000A346A44684F30088A44720BCAB46E0BC44
:10366000BA46B146A846E0BD10B5040080B1036873
:1036700083B11878E168FFF776FF08B90023E360AB
:1036800023681B78062B00D010BD00236360FBE786
:10369000E220F9E7E220F7E710B50948016811B91F
:1036A000436803B910BD04008368064A9BB20C341A
:1036B0009B009B5842682000984780002018EDE747
:1036C000C4080000D03A000010B5CA7816238B70E9
:1036D000133B1340022B06D81B234B70080000F04D
:1036E00029FA002010BD930602D547234B70F5E759
:1036F00027234B70F2E710B568B143686BB11C69C2
:103700006CB1002300220121A0470400012000F039
:103710006AFA200010BDE224FBE7FD24F9E7FD244E
:10372000F7E7FEE710B5531E884208D98C18A0426F
:1037300005D21AB1CA5CC254013BFBD210BD0023B2
:10374000002AFBD0CC5CC45401339A42FAD1F5E78D
:1037500070B560B1446864B1A46864B105682E783E
:103760000EB9FF2901D0A04770BD2979FBE7E220FF
:10377000FAE7FD20F8E7FD20F6E770B51400160023
:103780000A004E430D00511E8A415242144001006E
:103790003200180000F072FA864201D0B0FBF5F456
:1037A000200070BD10B515238B70CB78032B03D090
:1037B0004AB10B234B7001E024334B70080000F03A
:1037C000B9F9002010BD07234B70F7E770B5B0B012
:1037D00005000E0014006846FFF7BAF93200290010
:1037E0006846FFF750F821006846FFF78CF8002084
:1037F00030B070BD40F2C003C2F2000320229B5CD7
:10380000012053B940F60003C4F20023588B302343
:1038100018401038431E9841C0B2704710B5084C8C
:103820002368196800F066F80123002805DB236887
:103830000A20196800F034FAC30F584210BDC04680
:103840007802002010B508238B70CA78073B13401C
:103850005A4253415B422022134007334B70080009
:1038600000F068F9002010BD10B558B103685BB1D5
:10387000F523062901D0180010BD1168FFF758FE86
:103880000300F8E7E223F6E7E223F4E741000DD274
:10389000090E7F390AD449421F3105D400020122A2
:1038A000D2071043C8407047C817704700207047C0
:1038B00058B103685BB11B781A1F0120012A05D992
:1038C000023B58425841C0B200E00020704700203F
:1038D000FCE748B103684BB11878012808D00838D4
:1038E00043425841C0B270470020FCE70020FAE78D
:1038F0000120F8E770B50E00050000F08BF83300EA
:103900000400020001212800FFF737FF001B431EBF
:103910009841404270BD42F20003C4F200231A688D
:1039200002210A431A6042F20002C4F20022136923
:103930001942FCD170479D2201000AD002D4013AFD
:103940004900FCD5D205080A0906494100D30129DE
:1039500050417047002310B5934206D10320184010
:10396000421E90419B08C01810BDC45CCC5401336A
:10397000F2E710B538B141B108600800FFF702F86E
:10398000FDF72DFF10BDE220FCE7E220FAE710B5BD
:1039900028B144682CB1E4682CB1A04710BDE220E6
:1039A000FCE7FD20FAE7FD20F8E710B528B14468F0
:1039B0002CB124692CB1A04710BDE220FCE7FD200A
:1039C000FAE7FD20F8E730B50024A24207D0035DF6
:1039D0004D1E01342D5DAB42F7D0581B00E0002096
:1039E00030BD38B103683BB11A78FF2002B170478F
:1039F0001879FCE7FF20FAE7FF20F8E710B529B1B6
:103A00000B0000220021FEF7D8FB10BDE220FDF7DD
:103A1000E6FEFAE7037833B1030001331A78002A8F
:103A2000FBD1181A70470020FCE7C04610B520B142
:103A300029B10078FFF7E6FD10BDE220FCE7E220A7
:103A4000FAE718B1036823B1988C704740F2DC5054
:103A5000FBE740F2DC50F8E710B582B0059C01941A
:103A6000049C0094FDF725FC02B010BD00B583B0A6
:103A70000B00009200220021FEF76BFD03B000BD99
:103A800010B530238B70293B4B70080000F052F8C2
:103A9000002010BD10B51B238B70143B4B70080029
:103AA00000F048F8002010BD10B502238B700533DC
:103AB0004B70080000F03EF8002010BD10B518B1A2
:103AC00021B1FFF756FF10BDE220FCE7E220FAE744
:103AD000C53B000055390000CF3C0000CF3C000042
:103AE000CF3C000010B52AB10023CC5CC454013394
:103AF0009342FAD110BDC04632B10300C9B2821858
:103B0000197001339342FBD17047C04610B500F0E5
:103B1000C3F8024B1860586010BDC046A4010020D5
:103B200010B500F0C1F8024B1860586010BDC046D7
:103B3000AC01002010B5411C40780238C0B20A1810
:103B4000FFF7A8F810BD0301181A400101380A2335
:103B5000B0FBF3F00130704718B103681BB1986AED
:103B600070470020FCE70020FAE710B50400006869
:103B700000F061F808B90023236010BD10B5010002
:103B800040F2B410C2F20000FEF7FAFD10BD18B109
:103B900003681BB1587870477E20FCE77E20FAE767
:103BA00010B540F2B413C2F200031868FFF7EFFF3C
:103BB00010BD45F20003C4F2001306225A60053A14
:103BC0001A7270478A18914201D100207047002371
:103BD0000B700131F7E710B5FFF7B5FF01000020CA
:103BE00000F066F810BD10B54BF68031414300205F
:103BF00000F05EF810BD10B540F2B410C2F2000043
:103C0000FFF7B3FF10BD40F2C003C2F20003212250
:103C1000985CC0B270470122D207514041F2AD63B7
:103C2000C0F20003184710B5FFF77AFFFFF76EFFE9
:103C300000F04FF810BD10B510B1FFF715FD10BD25
:103C4000E220FCE70F239843203843425841C0B29A
:103C5000704740F29003C2F20003D86019617047C8
:103C600040F29003C2F2000358629962704740F23A
:103C70009C13C2F2000318605960704710B50068C9
:103C800000F01CF810BD10B5FFF7FBF910BD704730
:103C9000041133430407C440004870473C0200202D
:103CA00010B5FFF795FC10BD004870475C0200207E
:103CB0000139FDD8704700B10068704701204042CB
:103CC0007047002070470020704700207047002098
:043CD0007047704782
:10EC40007FE97FE9F1F7B6BB7FE97FE9F1F7B7BC70
:10EC50007FE97FE9F1F76FBC7FE97FE9F1F74BBC12
:10EC60007FE97FE9F1F782BC7FE97FE9F1F770BCCA
:10EC70007FE97FE9F1F791BB7FE97FE9F1F7BBBB62
:10EC80007FE97FE9F1F757BB7FE97FE9F1F78ABCBC
:10EC90007FE97FE9F1F777BC7FE97FE9F1F736BBE0
:020000040001F9
:101C0000F0FF002061180200415F0200435F020004
:101C100000000000000000000000000000000000C4
:101C20000000000000000000000000003F5F020014
:101C300000000000000000003F5F0200CF3E0200F5
:101C40000000000000000000000000000000000094
:101C50000000000000000000000000000000000084
:101C60000000000000000000000000000000000074
:101C70000000000000000000000000000000000064
:101C80000000000000000000000000000000000054
:101C90000000000000000000000000000000000044
:101CA0000000000000000000000000000000000034
:101CB0000000000000000000000000000000000024
:101CC0000000000000000000000000000000000014
:101CD0000000000000000000000000000000000004
:101CE000000000000000000000000000CD820100A4
:101CF000CD820100CD820100CD82010000000000F4
:101D000000000000000000000000000075760100E7
:101D1000757601007576010075760100413102008B
:101D200000000000000000000000000000000000B3
:101D300000000000000000003F5F0200633C020062
:101D40000000000000000000000000000000000093
:101D5000000000000000000000000000F8B5C046D0
:101D6000F8BC08BC9E467047492A0200F8B5C04638
:101D7000F8BC08BC9E467047252A0200444D00006E
:101D800001000000FFFFFFFFFFFFFFFFFFFFFFFF5E
:101D9000FFFFFFFFFFFFFFFFFFFFFFFFFFFFFFFF53
:101DA000FFFFFFFFFFFFFFFFFFFFFFFFFFFFFFFF43
:101DB000FFFFFFFFFFFFFFFFFFFFFFFFFFFFFFFF33
:101DC000FFFFFFFFFFFFFFFFFFFFFFFFFFFFFFFF23
:10202000FFE3E3E4C0C4C7FFFFFFFFFFFFFFFFFFC5
:10203000FFFFFFFFFFFFFFFFFFFFFFFFFFFFFFFFB0
:10204000FFFFFFFFFFFFFFFFFFFFFFFFFFFFFFFFA0
:10205000FFFFFFFFFFFFFFFFFFFFFFFFFFFFFFFF90
:10206000FFFFFFFFFFFFFFFFFFFFFFFFFFFFFFFF80
:10207000FFFFFFFFFFFFFFFFCED1D2D8DDDFFBFF69
:10208000FFB5B8BBFFFFFFFFFFFFFFFFFFFFFFFF35
:10209000FFFFFFFFFFFFFFFFFFFFFFFFFFFFFFFF50
:1020A000FFFFFFFFFFFFFFFFFFFFFFFFFFFFFFFF40
:1020B000FFFFFFFFFFFFFFFFFFFFFFFFFFFFFFFF30
:1020C000FFFFFFFFFFFFFFFFFFFFFFFFFFFFFFB56A
:1020D000BABEE4E9ECF9FBFEF8FBFEFFFFFFBABD78
:1020E000C0E4E5E6FFFFFFFFFFFFFFFFFFFFFFFF8D
:1020F000FFFFFFFFFFFFFFFFFFFFFFFFFFFFFFFFF0
:10210000FFFFFFFFFFFFFFFFFFFFFFFFFFFFFFFFDF
:10211000FFFFFFFFFFFFFFFFFFFFFFFFFFFFFFFFCF
:10212000FFFFFFDFE0E2B4BABFF6FCFFF6FAFCFF08
:10213000FFFFE5F2E7FFFFFFFFFFFFD8DBDDBCBFDE
:10214000C1FFFFFFFFFFFFFFFFFFFFFFFFFFFFFFDD
:10215000FFFFFFFFFFFFFFFFFFFFFFFFFFFFFFFF8F
:10216000FFFFFFFFFFFFFFFFFFFFFFFFFFFFFFFF7F
:10217000FFFFFFFFFFFFFFF6F6F7B7BDC2D6DCE0BB
:10218000F7FCFFF6F9FFFFFFFF659645296600D9CA
:10219000EAD7FFFFFFFEFFFFFFFFFFBCBFC2DBDD93
:1021A000DEFFFFFFFFFFFFFFFFFFFFFFFFFFFFFF60
:1021B000FFFFFFFFFFFFFFFFFFFFFFFFFFFFFFFF2F
:1021C000FFFFFFFFFFFFFFFFFFFFFFFCFCFCD8DD71
:1021D000E0CBD4DAF3F9FDF2F6FAFEFEFFE9F3EE16
:1021E000487E20366A0A4073152B6700A3C792FF0A
:1021F000FFFFFFFFFFFFFFFFF7F7F8E0E1E3F6F86F
:10220000F8FFFFFFFFFFFFFFFFFFFFFFFFFFFFFFE5
:10221000FFFFFFFFFFFFFFFFFFFFFFFFFDFDFDCA09
:10222000CBCDDEE3E6E8EFF3EDF3F9EFF4FAF5F802
:10223000FFFFFFFF9FBF902D67003D6F1241751795
:10224000427618427717326B02579032EFF8EEFF62
:10225000FFFFFFFFFFFFFFFFFFFFFFF5F7F8CCCF0A
:10226000D3E6E6E8FFFFFFFFFFFFFFFFFFFFFFFFF3
:10227000FFFFFFC8C9CBAAAEB2E9EFF2EDF2F6EF6D
:10228000F4FAF6F9FFFFFFFFB9D0B345791E3067C6
:102290000641721640731842761743761942781732
:1022A0004379183E76112D6D007FAD63F7FEF7FF81
:1022B000FFFFFFFFFFFFFFFFFFFFFFD1D5D6A1A567
:1022C000AAFFFFFFFFFFFFFFFFFFFFFFFFB5B6B94C
:1022D000E3E6E9E2E7EAF6F7FFE9F1F19CB88E44BC
:1022E000761B2E64023C6F143F72194374174074BE
:1022F00017427618437617427918447A18437A17AA
:10230000447C18377206296B006DA04AC8DFBCFFF9
:10231000FFFFF8F8FAEBEEEFA3A9AEFFFFFFFFFF18
:10232000FFFFFFFFFFFFFFB1B4B6DFE2E5F2F5FD0F
:1023300092AE82265B003266083E6E153F71173FF3
:10234000731941721942741741741743771943780E
:1023500016427818447B18447B1738740861903B08
:102360007EA55F3A75083974051F6E00FFFFFFEE0A
:10237000F0F2A2A9ADFFFFFFFFFFFFFFFFFFFFFF8E
:10238000FFB0B2B4DFE2E5F5F7FF72965937670D9B
:102390003E70174171193F72173F7319407219410E
:1023A0007317417617437719437717427918437BA0
:1023B00017367106759F54FFFFFF76A054417A10BF
:1023C000447D131E6600E5F1E4F0F1F5A6ADB1FC25
:1023D000FDFCFFFFFFFFFFFFFFFFFFB1B3B5DFE233
:1023E000E5F7F8FF658C483869103E7017417119A0
:1023F0003F72173F731941731841731741761743A2
:102400007719427716437A1839730B699646FFFF9E
:10241000FFFFFFFF6795413F7A0E3272002268008E
:10242000D5E7D0F2F2F7A6ADB1FDFDFDFFFFFFFF4E
:10243000FFFFFFFFFFB5B7B9DFE2E5F7F8FF648CF8
:10244000483869103E70174171193F72173F731970
:102450004274174273184176174377194277164032
:102460007713437A17FFFFFFFFFFFFFFFFFF689619
:10247000432B6C00347300226800D5E7CFF2F3F7EA
:10248000A3A9AEFFFFFFFFFFFFFFFFFFFFFFFFBBA3
:10249000BDBFDEE1E4F5F7FF71965837680E3E7078
:1024A000174171193F72173F73194273184273171E
:1024B0004176174377194277162A6800EBF1E7FF58
:1024C000FFFFFFFFFFFFFFFF7EA65D2A6B00357455
:1024D00000216800E5F1E3F0F1F5A8AEB2FFFFFFDF
:1024E000FFFFFFFFFFFFFFFFFFC5C6C8DDE0E3F30F
:1024F000F5FE8DAA7B34660B3E70174171193F7251
:10250000173F73194072193B6F10417517437719C4
:10251000376F088BAD71FFFFFFFFFFFFFFFFFFFF6E
:10252000FFFF437C142F6F003472001E6900FFFF11
:10253000FFECEEF0B4B9BCFFFFFFFFFFFFFFFFFFB2
:10254000FFFFFFF1F1F1BBBEC2F1F5FCB7CAB1303C
:1025500062053E6F174171183F72173A6F122A6277
:1025600000759A57376D0A417617336D05FFFFFFE7
:10257000FFFFFFFFFFFFFFFFFF3370012A6B0034F7
:102580007200306F003F810FFFFFFFEAEDEEC1C424
:10259000C7FFFFFFFFFFFFFFFFFFFFFFFFFFFFFF83
:1025A000AEB2B6EDF2F6EDF3F62C60003E6F173FDB
:1025B00070172C630252802EE8EEE3FFFFFF52817A
:1025C0002C316903A6BE91FFFFFFFFFFFFFFFFFF56
:1025D0003A740B296A00337100347200296A008250
:1025E000AF65FFFFFFE2E5E6D5D6D9FFFFFFFFFFAE
:1025F000FFFFFFFFFFFFFFFFFFFFBABCBEECF2F5DE
:10260000FDFDFF5D863D396A11326608C9D7BEFF00
:10261000FFFFFFFFFFFFFFFFC0D1B30D4F00FFFF24
:10262000FFFFFFFFFFFFFF4D8023266600326F0094
:102630003270003370001D6200DAEBD3FFFFFFBD84
:10264000C1C4FFFFFFFFFFFFFFFFFFFFFFFFFFFF13
:10265000FFFFFFFFE5E6E6CCD1D5F5F8FFBACEB433
:102660002C5F0036690E588335FFFFFFFFFFFFFF29
:10267000FFFFFFFFFF90AF79FFFFFFFFFFFF759C9C
:1026800056216000306E00316D003170002E6D00FB
:102690003B7D0DFFFFFFFEFFFFC3C6C9FFFFFFFF2E
:1026A000FFFFFFFFFFFFFFFFFFFFFFFFFFFFFFFF3A
:1026B000FFBBBFC1F0F5F9FFFFFF2F6406245B00ED
:1026C0001F57003E7016FFFFFFFFFFFFFFFFFFFFDA
:1026D000FFFFFFFFFFB3C8A2175800306B00316C3B
:1026E00000306E00326E001C6000BED9B0FFFFFFEC
:1026F000DFE0E1E8E9EAFFFFFFFFFFFFFFFFFFFF89
:10270000FFFFFFFFFFFFFFFFFFFFFFE5E6E6E0E65D
:10271000EBF5F9FFBDD2B9134C002A6000225A0034
:1027200034680AFFFFFFFFFFFFFFFFFFF3F6F0141F
:1027300053002F6800316A00306B00326C002B6848
:1027400000428116FFFFFFFFFFFFCBCED2FFFFFF4E
:10275000FFFFFFFFFFFFFFFFFFFFFFFFFFFFFFFF89
:10276000FFFFFFFFFFFFFFFFDCE0E3EDF3F7FFFFFD
:10277000FF5B883D2056002B6000245C0029600030
:10278000FFFFFFFFFFFF336A072963002F67003059
:102790006900316A002F6A00165B00F0F9EEFFFF56
:1027A000FFF1F3F4F4F5F7FFFFFFFFFFFFFFFFFF7B
:1027B000FFFFFFFFFFFFFFFFFFFFFFFFFFFFFFFF29
:1027C000FFFFFEFEFEE8EEF2EEF3FAF8FDFF255DF8
:1027D00000265C002B6100265E002961007B9E6064
:1027E000205C002E66002F66002F68003069001AFA
:1027F0005900A4C791FFFFFFFFFFFFF8FAFBFFFF9F
:10280000FFFFFFFFFFFFFFFFFFFFFFFFFFFFFFFFD8
:10281000FFFFFFFFFFFFFFFFFFFFFFFFFFFFFFF0D7
:10282000F2F3E9F0F5F3F7FFDCE9E0145000285E7D
:10283000002C6100296100235C002C64002D6500E0
:102840002E66002F66001F59006B9E4BFFFFFFFF97
:10285000FFFFF6F8F8FFFFFFFFFFFFFFFFFFFFFF9F
:10286000FFFFFFFFFFFFFFFFFFFFFFFFFFFFFFFF78
:10287000FFFFFFFFFFFFFFFFFFFFFFFFD3D8DCF0ED
:10288000F6FBF9FBFFC6DAC3114D00285E002C6190
:10289000002C63002C63002D64002D65001F59007F
:1028A000538D2FFFFFFFFFFFFFF0F1F2F9F9FAFF61
:1028B000FFFFFFFFFFFFFFFFFFFFFFFFFFFFFFFF28
:1028C000FFFFFFFFFFFFFFFFFFFFFFFFFFFFFFFF18
:1028D000FFFFFFFFFFFFFFFFFFC1C9CFF4FAFDFEBF
:1028E000FEFFC4D9C0134F00275C002B61002C628F
:1028F000002B62001B5400578F34FFFFFFFFFFFFC8
:10290000F1F1F2E8E9EAFFFFFFFFFFFFFFFFFFFF42
:10291000FFFFFFFFFFFFFFFFFFFFFFFFFFFFFFFFC7
:10292000FFFFFFFFFFFFFFFFFFFFFFFFFFFFFFFFB7
:10293000FFFFFFF7F7F7BEC6CCF6FBFEFDFEFFD7A5
:10294000E8D71B58002357002A5F00134F0074A5D7
:1029500059FFFFFFFFFFFFF1F2F3D3D5D6FFFFFFD3
:10296000FFFFFFFFFFFFFFFFFFFFFFFFFFFFFFFF77
:10297000FFFFFFFFFFFFFFFFFFFFFFFFFFFFFFFF67
:10298000FFFFFFFFFFFFFFFFFFFFFFFFFFFFFFFF57
:10299000EFF0F0BEC4C9F8FDFFFAFCFFF6FDFD3E06
:1029A00077180D4D00B0CFA4FFFFFFFEFFFFEEF044
:1029B000F1C3C5C7FFFFFFFFFFFFFFFFFFFFFFFFE3
:1029C000FFFFFFFFFFFFFFFFFFFFFFFFFFFFFFFF17
:1029D000FFFFFFFFFFFFFFFFFFFFFFFFFFFFFFFF07
:1029E000FFFFFFFFFFFFFFFFFFFFFFFFFFF1F1F220
:1029F000B8BEC3FAFFFFF7F9FDFFFFFFEBF6EDFFEF
:102A0000FFFFFFFFFFE4E7E9C5C7CAFFFFFFFFFFC6
:102A1000FFFFFFFFFFFFFFFFFFFFFFFFFFFFFFFFC6
:102A2000FFFFFFFFFFFFFFFFFFFFFFFFFFFFFFFFB6
:102A3000FFFFFFFFFFFFFFFFFFFFFFFFFFFFFFFFA6
:102A4000FFFFFFFFFFFFFFFFFFFFFBFBFAAFB5BA82
:102A5000F8FCFEF6F9FDF7FAFDFFFFFFD1D4D7D160
:102A6000D2D4FFFFFFFFFFFFFFFFFFFFFFFFFFFFCE
:102A7000FFFFFFFFFFFFFFFFFFFFFFFFFFFFFFFF66
:102A8000FFFFFFFFFFFFFFFFFFFFFFFFFFFFFFFF56
:102A9000FFFFFFFFFFFFFFFFFFFFFFFFFFFFFFFF46
:102AA000FFFFFFFFFFFFFFFFFFFFB7BBBDE4E8EB4A
:102AB000FEFFFFB9BDC0E6E7E8FFFFFFFFFFFFFF36
:102AC000FFFFFFFFFFFFFFFFFFFFFFFFFFFFFFFF16
:102AD000FFFFFFFFFFFFFFFFFFFFFFFFFFFFFFFF06
:102AE000FFFFFFFFFFFFFFFFFFFFFFFFFFFFFFFFF6
:102AF000FFFFFFFFFFFFFFFFFFFFFFFFFFFFFFFFE6
:102B0000FFFFFFFFFFFFFFD6D8DABEC2C4FFFFFF03
:102B1000FFFFFFFFFFFFFFFFFFFFFFFFFFFFFFFFC5
:102B2000FFFFFFFFFFFFFFFFFFFFFFFFFFFFFFFFB5
:102B3000FFFFFFFFFFFFFFFFFFFFFFFFFFFFFFFFA5
:102B4000FFFFFFFFFFFFFFFFFFFFFFFFFFFFFFFF95
:102FF000FFFFFFFFFFFFB6BABDBDC2C3FFFFFFFF6C
:10300000FFFFFFFFFFFFFFFFFFFFFFFFFFFFFFFFD0
:10301000FFFFFFFFFFFFFFFFFFFFFFFFFFFFFFFFC0
:10302000FFFFFFFFFFFFFFFFFFFFFFFFFFFFFFFFB0
:10303000FFFFFFFFFFFFFFFFFFFFFFFFFFFFFFFFA0
:10304000FFFFFFFFFFFFFFFFFFFFF5F5F5AFB4B791
:10305000FBFFFFF7FBFCABAFB2FFFFFFFFFFFFFF84
:10306000FFFFFFFFFFFFFFFFFFFFFFFFFFFFFFFF70
:10307000FFFFFFFFFFFFFFFFFFFFFFFFFFFFFFFF60
:10308000FFFFFFFFFFFFFFFFFFFFFFFFFFFFFFFF50
:10309000FFFFFFFFFFFFFFFFFFFFFFFFFFFFFFFF40
:1030A000FFD6D7D9B9BFC2FDFFFFF4F8F9F5FAFB97
:1030B000FFFFFFB0B3B6E3E4E5FFFFFFFFFFFFFF55
:1030C000FFFFFFFFFFFFFFFFFFFFFFFFFFFFFFFF10
:1030D000FFFFFFFFFFFFFFFFFFFFFFFFFFFFFFFF00
:1030E000FFFFFFFFFFFFFFFFFFFFFFFFFFFFFFFFF0
:1030F000FFFFFFFFFFFFFFFFAEB3B7D6DBE0FAFE37
:10310000FFF4F9F9FFFFFDFFFFFEF7FBFBFFFFFFF9
:10311000CFD3D5B7B9BCFFFFFFFFFFFFFFFFFFFF16
:10312000FFFFFFFFFFFFFFFFFFFFFFFFFFFFFFFFAF
:10313000FFFFFFFFFFFFFFFFFFFFFFFFFFFFFFFF9F
:10314000FFFFFFFFFFFFFFFFFFFFFFFFCBCED0AF73
:10315000B5BAF6FBFEF2F8FAF8FCFAFFFFFF403CC6
:10316000CE625FD7FFFFFFFCFEFCFFFFFFFBFCFD15
:10317000AEB1B5D8D9DAFFFFFFFFFFFFFFFFFFFFBA
:10318000FFFFFFFFFFFFFFFFFFFFFFFFFFFFFFFF4F
:10319000FFFFFFFFFFFFFFFFFFFFFFFFFFFFFFFF3F
:1031A000E0E3E5B5BEC3E0E7ECF5FBFDF0F5F8FEC6
:1031B000FFFBF0F3F92C27C61616BC1210BA423EDC
:1031C000CBFFFFFFFFFFFFFAFDFDFFFFFFE6E8E992
:1031D000CBCDCFF1F2F2FFFFFFFFFFFFFFFFFFFFBD
:1031E000FFFFFFFFFFFFFFFFFFFFFFFFFFFFFFFFEF
:1031F000FFFFFFFFF4F6F6DCE1E5E0E8EDF1F7FCB8
:10320000F0F4F8F3F9F8FFFFFFA8A7E00E0BBE1EDD
:103210001CC42321C42221C21919BE1713BBC8C75D
:10322000EBFFFFFFFFFFFFFFFFFFFFFFFFF3F4F4E4
:10323000F3F5F5F9FAFAFFFFFFFFFFFFFFFFFFFFCE
:10324000FFFFFFFFFFC5C6C8B5B8BBD0D6DAECF1AB
:10325000F6EDF3F8EDF2F8F0F8F9FFFFFEDEE2EC40
:10326000413DC30E0BC42220C72322C72421C624FC
:1032700022C52222C2201FC00807B65955C6FCFB32
:10328000F9FFFFFFFFFFFFFFFFFFFFFFFFFDFEFE58
:10329000CFD3D7BABDC0D7D8DAFFFFFFABADB0D31D
:1032A000D6DAECF1F4EDF3F6EEF2F7F5FDFBFFFF05
:1032B000FFD8DDE65A59C20B05BF1D1ACA2420CA21
:1032C0002320CA2321C92421C92322C62322C5229F
:1032D00022C22321C01919BD0707AF7271C4F8F7C4
:1032E000F6FFFFFFFFFFFFFFFFFFFEFEFDF6F8F812
:1032F000C0C4C8C5C7CAAEB1B4E3E6E9E1E6E9F1C6
:10330000F7F6F6FBF3A0A2CA3E3CB60C07BD1B18AD
:10331000CB1C19CB2420CD2421CD2421CC2421CA9F
:103320002320CA2421C92322C62321C42222C12149
:103330001FBF191BBC1617BA0706A94F4EB4B8B762
:10334000D3FFFFFFFFFFFDEDEEEEDADEE0BDC0C410
:10335000ABADB0E1E5E8EFF4F3ADAFC60000A81403
:1033600013C71E1BCB2320CB110DC96D6AD9140FB7
:10337000CA241ED02520CF2521CD2420CB2320CA2E
:103380002422C82322C51E1DC31E1CBD5A5BCC139C
:1033900013B92122BA191BB61012B300008FDBDA61
:1033A000DDF6F8F6D8DCDFB7BBBEAAACAFE2E4E8E6
:1033B000F2F8F48687BC1615C82421CA2320CB0E48
:1033C0000AC87B78DCFFFFFFD3D2F10C04CA241EAD
:1033D000D12520CF2521CD2320CA2421CA1F1DC6D7
:1033E000110FBCF3F3F8FFFFFF5152C51212B621C3
:1033F00023B82123B60000A7ADADC7FBFCF8D9DD8B
:10340000DFB4B8BBAAACAFE2E4E8F4FAF57273B883
:103410001917C72420CA1815C88886E0FFFFFFFEC9
:10342000FFFEFFFFFFDAD8F50B04CC231DD02521CA
:10343000CF2421CB1E1BC81613C0F5F5F9FFFFFFE3
:10344000FFFFFFFFFFFF6060CA1A1BB7090BAE004A
:1034500000A79796BFFDFFF9D8DDDFB4B8BCABAECF
:10346000B1E2E3E8F5FBF56C6CB81817C72420CA85
:103470001E1BC94743D1FFFFFFFFFFFFFFFFFFFFF9
:10348000FFFFDEDFF50D07CA221DCE1E1BCB181471
:10349000C4F8F9F8FFFFFFFFFFFFFFFFFFFFFFFE8C
:1034A0002F30BC0608B0090BAE0000A98E8DBAFE05
:1034B000FFF9D8DCDFB7BBBEB0B2B5E0E4E7F4FAA1
:1034C000F47274B91917C72420CA2320CA1915CB5E
:1034D0003632CFFFFFFFFFFFFFFFFFFEFFFFFFE1E1
:1034E000E2F60B06C61915C7FEFEFCFFFFFFFFFF45
:1034F000FFFFFFFFFFFFFD1919B80304B1080BB070
:103500000A0BAF0000A79898C1FDFFF8D7DCDEBE1C
:10351000C1C5B7B9BBE0E4E7F2F8F4888ABF161476
:10352000C62421C92320CB2521CD1A15CD302BCF80
:10353000FFFFFFFFFFFFFEFEFFFFFFFFD7D6F2EF0B
:10354000EFFAFFFFFFFFFFFFFFFFFFFEFEFD12117F
:10355000B80203B30A0BB3090BB00A0BAE0000A606
:10356000B1B0CBFAFCF7D7DDDDC6C8CBBEC0C1E039
:10357000E4E7EFF4F3ADAFC91211C32422C723204F
:10358000CA2320CA2521CD1B17CD2B26CDFFFFFF37
:10359000FFFFFFFFFFFFFFFFFFFFFFFFFFFFFFFF3B
:1035A000FFFFFBFBFC0705B60302B60B0BB50B0BCD
:1035B000B3090BAF0A0CAD00009FDDDDDFF7F9F6B4
:1035C000CFD3D5D7D9DADEDFDFC8CBD0ECF1F2E349
:1035D000E7E40A07B32222C72421C82320CA2421F2
:1035E000CA2421CC1C18CC2320C9F4F4FAFFFFFF15
:1035F000FFFFFFFFFFFFFFFFFFDCDDF30000B30570
:1036000004B80C0CB70A0BB40A0CB1090BAF080BC9
:10361000AF00008CFFFFFFF4F6F5B2B6BBFDFDFD79
:10362000FFFFFFA4A9ADEBF0F3FFFFFE2524A621C9
:103630001EC62421C62422C82420C92320CA1A1742
:10364000C82622C6F6F6FAFFFFFFFFFFFFFFFFFFC7
:10365000FFFFFFE0E0F30000B20605B70C0CB50B6E
:103660000BB3090BB00A0BAF0205AB3C3DA5FFFF46
:10367000FFF3F5F5B2B7BBFFFFFFFFFFFFAEB2B43C
:10368000EBF1F4F8FEF9797ABD1716C22321C523B0
:1036900022C52322C71A18C62B29C6FFFFFFFFFF2A
:1036A000FFFFFFFFFFFFFFFFFFFFFFFFFEFFFFFF2B
:1036B000FAFAFB0000B00405B20A0CB10A0BAF091C
:1036C0000CAE0000A6A1A0C7FFFFFFF4F6F6BEC037
:1036D000C3FFFFFFFFFFFFCCCDCEDADFE3F0F6F74D
:1036E000DFE4E60A07B12423C42524C41A18C32E34
:1036F0002DC4FFFFFFFFFFFFFFFFFFFFFFFFCECE49
:10370000EEEBEBF7FFFFFFFFFFFFFFFFFFFCFDFC12
:103710000102AC0204AE0A0BAE070BAD000091FF34
:10372000FFFFFFFFFECED1D4EDEDEEFFFFFFFFFF69
:10373000FFFFFFFFAAAFB3F0F6F8FFFFFF4141AD77
:103740000A09BB0100B8201EBDFFFFFFFFFFFFFFFE
:10375000FFFFFFFFFFDCDCF20000B00000B3FBFC6A
:10376000FBFFFFFFFFFEFEFFFFFFFFFFFE0305A9BC
:103770000103AB0000A86E6DB7FFFFFFFFFFFFB9AD
:10378000BCBFFFFFFFFFFFFFFFFFFFFFFFFFC9CA37
:10379000CCEAF0F4F2F7F9D5DAE30000A63232C051
:1037A000FFFFFFFFFFFFFFFFFFFFFFFFD8D8F10084
:1037B00000AF0808B80505B60000AEF6F6F8FFFF42
:1037C000FFFEFEFEFFFFFFFFFFFF171CAE00009392
:1037D000FFFFFDFFFFFFECECEDD5D7D8FFFFFFFFAC
:1037E000FFFFFFFFFFFFFFFFFFFFFFC8CED1EFF39B
:1037F000F9FFFFFF4C4CAF696AD0FFFFFFFFFFFFEF
:10380000FFFFFFD1D3EE0000AC0909B60B0BB60BDE
:103810000BB50505B30000AAF1F2F7FFFFFFFFFFAC
:10382000FFFFFFFF3438B78686C2FFFFFFFFFFFFB1
:10383000CACED2FFFFFFFFFFFFFFFFFFFFFFFFFF2B
:10384000FFFFFFFFFFEAECECE9EEF3EEF4F8FFFF19
:10385000FB0000996364CCFFFFFFCACBEB0000AA1A
:103860000809B40A0BB40B0CB30A0BB2090CB0056F
:1038700006AF0000A5EFEFF7FFFFFF3236B50C0CE7
:103880009BFFFFFFFFFFFFF4F5F7F0F2F3FFFFFFF1
:10389000FFFFFFFFFFFFFFFFFFFFFFFFFFFFFFFF38
:1038A000FFFFEAEEF0ECF2F8F4FBFBCCD0E3000013
:1038B0009B5658C50000AA080AB10A0CB10A0CB000
:1038C000090BB0090BB00A0BAF0A0BAD0508AB0230
:1038D00006A74347BA000092FDFCF9FFFFFFFFFF78
:1038E000FFF7FAFAFFFFFFFFFFFFFFFFFFFFFFFFFA
:1038F000FFFFFFFFFFFFFFFFFFFFFFFFFEFEFDE2F9
:10390000E9EDEEF3F8FEFFFE9595CF0000A3080A5F
:10391000AF090BAF090BAF0A0BAE0A0CAD0A0BAD2A
:10392000090CAC090DAB080DAA060AA7000096CC3D
:10393000CAE5FFFFFFFFFFFFF7F8F8FFFFFFFFFFFC
:10394000FFFFFFFFFFFFFFFFFFFFFFFFFFFFFFFF87
:10395000FFFFFFFFFFFFFFFFFFEAECEEE1E9EEED07
:10396000F3F8FFFFFF6F6FC40000A5090CAD090C51
:10397000AD090DAC090DAB090DAB080DA9080CA8DC
:10398000080DA7000099A7A5D9FFFFFFFFFFFFF2D1
:10399000F3F4F7F7F8FFFFFFFFFFFFFFFFFFFFFF65
:1039A000FFFFFFFFFFFFFFFFFFFFFFFFFFFFFFFF27
:1039B000FFFFFFFFFFFFC9CED3EBF1F7EEF4F7FFF8
:1039C000FFFF6767C60000A1090DA8080CA9090C34
:1039D000A8090CA8090DA7070CA50000999E9BD863
:1039E000FFFFFFFFFFFFF7F7F8E3E5E6FFFFFFFE4E
:1039F000FFFFFFFFFFFFFFFFFFFFFFFFFFFFFFFFD7
:103A0000FFFFFFFFFFFFFFFFFFFFFFFFFFFFFFFFC6
:103A1000FFFFFFB4BCC2F3F8FDEFF4F7FFFFFF7F39
:103A20007FD200009C060BA4080DA5080DA5040A72
:103A3000A200009AB0AEE3FFFFFFFEFEFFFCFDFC1C
:103A4000CBCED0FFFFFFFFFFFFFFFFFFFFFFFFFF1A
:103A5000FFFFFFFFFFFFFFFFFFFFFFFFFFFFFFFF76
:103A6000FFFFFFFFFFFFFFFFFFFFFFFFFFFFFFFF66
:103A7000AAAFB4F7FCFFF0F5F8FFFFFFB0B0E70026
:103A8000009E00069E00029C0000A2D6D6F4FFFF16
:103A9000FFFBFDFEFDFEFEB4B7B9FFFFFFFFFFFF1A
:103AA000FFFFFFFFFFFFFFFFFFFFFFFFFFFFFFFF26
:103AB000FFFFFFFFFFFFFFFFFFFFFFFFFFFFFFFF16
:103AC000FFFFFFFFFFFFFFFFFFFFFFFFFFA7ACB1FF
:103AD000F7FCFFF1F6F9FFFFFDEBECFB100FB32E47
:103AE0002CBFFFFFFFFFFFFEFDFFFFFAFBFCACAFAB
:103AF000B2FFFFFFFFFFFFFFFFFFFFFFFFFFFFFF23
:103B0000FFFFFFFFFFFFFFFFFFFFFFFFFFFFFFFFC5
:103B1000FFFFFFFFFFFFFFFFFFFFFFFFFFFFFFFFB5
:103B2000FFFFFFFFFFFFFFFFFFFFA7ACB1F0F5F9BD
:103B3000F6F9FCF9FCFAFFFFFFFFFFFFFAFCFBFEC2
:103B4000FFFFEEF0F2B0B2B5FFFFFFFFFFFFFFFF98
:103B5000FFFFFFFFFFFFFFFFFFFFFFFFFFFFFFFF75
:103B6000FFFFFFFFFFFFFFFFFFFFFFFFFFFFFFFF65
:103B7000FFFFFFFFFFFFFFFFFFFFFFFFFFFFFFFF55
:103B8000FFFFFFFFFFFFFFB0B4B8E1E6E9F9FDFE7C
:103B9000F4F8F8F5F9FAFFFFFFD7DBDDBBBEC1FF94
:103BA000FFFFFFFFFFFFFFFFFFFFFFFFFFFFFFFF25
:103BB000FFFFFFFFFFFFFFFFFFFFFFFFFFFFFFFF15
:103BC000FFFFFFFFFFFFFFFFFFFFFFFFFFFFFFFF05
:103BD000FFFFFFFFFFFFFFFFFFFFFFFFFFFFFFFFF5
:103BE000FFFFFFFFC7CACBC6CBCEFEFFFFFFFFFF25
:103BF000B9BEC1D4D6D7FFFFFFFFFFFFFFFFFFFF16
:103C0000FFFFFFFFFFFFFFFFFFFFFFFFFFFFFFFFC4
:103C1000FFFFFFFFFFFFFFFFFFFFFFFFFFFFFFFFB4
:103C2000FFFFFFFFFFFFFFFFFFFFFFFFFFFFFFFFA4
:103C3000FFFFFFFFFFFFFFFFFFFFFFFFFFFFFFFF94
:103C4000FFEBECECB3B9BBB4B9BCF7F8F8FFFFFF7E
:103C5000FFFFFFFFFFFFFFFFFFFFFFFFFFFFFFFF74
:103C6000FFFFFFFFFFFFFFFFFFFFFFFFFFFFFFFF64
:103C7000FFFFFFFFFFFFFFFFFFFFFFFFFFFFFFFF54
:103C8000FFFFFFFFFFFFFFFFFFFFFFFFFFFFFFFF44
:103C9000FFFFFFFFFFFFFFFFFFFFFFFFFFFFFFFF34
:103CA000FFFFFFFFFFFFFFFFFFFFFFFFFFFFFFFF24
:103CB000FFFFFFFFFFFFFFFFFFFFFFFFFFFFFFFF14
:103CC000FFFFFFFFFFFFFFFFFFFFFFFFFFFFFFFF04
:103CD000FFFFFFFFFFFFFFFFFFFFFFFFFFFFFFFFF4
:103CE000FFFFFFFFFFFFFFFFFFFFFFFFFFFFFFFFE4
:103CF000FFFFFFFFFFFFFFFFFFFFFFFFFFFFFFFFD4
:103D0000FFFFFFFFFFFFFFFFFFFFFFFFFFFFFFFFC3
:103D1000FFFFFFFFFFFFFFFFFFFFFFFFFFFFFFFFB3
:103D2000FFFFFFFFFFFFFFFFFFFFFFFFFFFFFFFFA3
:103D3000FFFFFFFFFFFFFFFFFFFFFFFFFFFFFFFF93
:103D4000FFFFFFFFFFFFFFFFFFFFFFFFFFFFFFFF83
:103D5000FFFFFFFFFFFFFFFFFFFFFFFFFFFFFFFF73
:103D6000FFFFFFFFFFFFFFFFFFFFFFFFFFFFFFFF63
:103D7000FFFFFFFFFFFFFFFFFFFFFFFFFFFFFFFF53
:103D8000FFFFC046E46E00201C00000000000000A1
:103D9000C46E00201E00000000000000386E0020ED
:103DA0002400000000000000A06B00205400000070
:103DB00000000000C07000200800000000000000AB
:103DC00048690020C0000000000000008C6F002047
:103DD000140000000000000078730020E4010000DF
:103DE00001000000DB6D0100DD5A0200AF5102004E
:103DF0003B4C0200D95C0200AF590200BF590200DF
:103E0000DB6D0100DB6D0100DB6D0100E35C020096
:103E1000CB370200DB6D0100E94802000B490200CC
:103E2000174302003D43020063430200DB6D0100C3
:103E3000DB6D0100DB6D0100DB6D010097370200D7
:103E40003F550200DB6D0100CB5602009B4F020084
:103E50005B4C02002D490200DB6D0100DB6D0100AF
:103E6000DB6D0100DB6D0100638B01005555020025
:103E70005B580200DB6D010089430200D33A020067
:103E800045350200DB6D0100DB6D0100DB6D0100DB
:103E9000DB6D01003F8F01004D530200C95102004C
:103EA0007B4C0200DB6D0100655D02006D5D020070
:103EB000DB6D0100DB6D0100DB6D0100DB6D0100DE
:103EC00067C301006B550200E3510200AF430200DB
:103ED000995E0200DB6D0100E55D0200DB6D010013
:103EE000DB6D0100DB6D0100DB6D01003F8F010028
:103EF0004D530200C9510200D5430200EB5D0200A0
:103F0000F15D0200DB6D0100DB6D0100DB6D010086
:103F1000DB6D0100DB6D0100DB6D0100DB6D01007D
:103F2000DB6D0100DB6D0100DB6D0100DB6D01006D
:103F3000DB6D0100DB6D0100DB6D0100DB6D01005D
:103F4000DB6D0100DB6D0100DB6D0100DB6D01004D
:103F5000DB6D0100DB6D0100DB6D0100DB6D01003D
:103F6000DB6D0100DB6D0100DB6D0100DB6D01002D
:103F7000DB6D0100DB6D0100DB6D0100DB6D01001D
:103F8000DB6D0100DB6D0100DB6D0100DB6D01000D
:103F9000DB6D0100DB6D0100DB6D0100DB6D0100FD
:103FA000DB6D0100DB6D0100DB6D0100DB6D0100ED
:103FB000DB6D0100DB6D0100DB6D0100DB6D0100DD
:103FC000DB6D0100DB6D0100F076002018000000C1
:103FD00001000000655302006D580200E52A02004E
:103FE000E52A0200E52A0200E52A020030770020D7
:103FF00020000000010000009D5E0200A15E0200A2
:10400000CF590200A55E0200F75D0200FD5D0200CF
:10401000EB5A0200035E0200647600202C000000D0
:1040200001000000755D02009928020027250200AA
:104030000112020057280200FF0C0200A10C02002E
:104040000000000000000000000000000000000070
:104050005C6E0020240000000000000008710020B9
:104060000400000000000000C0610020EC0200001D
:1040700000000000DC6F00201000000000000000C5
:1040800090760020400000000100000000000000C9
