:020000040000fa
:10000000f03f002031140000c31800002319000045
:1000100000000000000000000000000000000000e0
:100020000000000000000000000000007b1700003e
:1000300000000000000000007b1700007b1700009c
:100040007b1700007b1700007b1700007b17000068
:100050007b1700007b1700007b1700007b17000058
:100060007b1700007b1700007b17000011040000c5
:100070007b1700007b1700007b1700007b17000038
:100080007b1700007b1700007b1700007b17000028
:100090007b1700007b1700007b1700007b17000018
:0c00a0007b1700007b1700007b1700009e
:020000040000fa
:1000ac00f8b5c046f8bc08bc9e4670471114000059
:1000bc00f8b5c046f8bc08bc9e467047e913000072
:020000040000fa
:0800cc002a08000001000000f9
:020000040000fa
:1000d4000023f0b506001500b1b00791039307990a
:1000e4000b78002b00d10ce101235b420c9310ab85
:1000f40000240e9380230b940d940f930b5d002b1f
:1001040001d0252b2ad1002c06d02200300001f08a
:1001140013fa079b1b190793079b1a78252a00d00b
:10012400e4e0013304930793022301219c46102742
:10013400079803782b2b1ad025d8202b1ad0232be1
:100144001dd02a2b28d001f0b7f90d90079b1a78ff
:10015400303a092a31d801330793f7e70134cde760
:100164000b9b05930b4301300b930790e0e70423ab
:100174000b9a0fe00b9b0593059a08230ae00b9b4f
:1001840005933b43efe72d2bead0302bd9d16246c0
:100194000b9b05931343e6e72b6801301a1d1b687c
:1001a40007902a600d93002b07da0b9a5b420592a5
:1001b400012205990d934a400b920b9bda0702d555
:1001c400022293430b93079b1a782e2a0ed1002206
:1001d400581c0c9207905a782a2a27d10233079385
:1001e4002b681a1d1b682a6005930c9307a801f05d
:1001f40049fa079b0700187801f0b2fc692800d17e
:1002040082e034dc632800d1dbe01adc252800d14d
:10021400e8e0612858d0049b01220793002352424e
:100224000c920b930d9300930232e5e001f044f934
:100234000c90079b1a78303a092ad7d801330793d0
:10024400f7e7642860d06728e5dc2a00390008a8ad
:1002540001f0befa002800d1afe0079b0ba95a1c9d
:1002640007921b7808aa300001f0a9fc3de0702831
:1002740000d17de016dc6e2800d197e06f28cad14a
:100284002b000022390008a800f0a4fb002800d1ac
:1002940093e0079b08aa01330ba93000079301f0f0
:1002a4008cfc22e0752840d078284fd07328b2d136
:1002b400802f00d081e0079b2a6801330793131d28
:1002c4002b601268002388e02a00390008a801f096
:1002d4007ffa002800d170e0079b0ba95a1c0792f3
:1002e4001b7808aa300001f06afc2418039b1c192f
:1002f400a34200dc82e04f22414b1a6001235b429f
:100304000393039831b0f0bd2b000122390008a8f3
:1003140000f060fb002850d0079b08aa01330ba90a
:100324003000079300f0b5fbdfe72b000022390013
:1003340008a800f04ffb00283fd0079b08aa013310
:100344000ba93000079301f038fccee72b00002204
:10035400390008a800f03efb00282ed0079b5a1c49
:1003640007921b7808aa0ba9300001f028fcbce70f
:100374002b000022f02108a800f02cfb00281cd040
:10038400079b099a01330793089b13430cd11d4f14
:10039400380001f06ffb390002000b9b00930d9baa
:1003a400300000f08dfda0e77823dbe7039b3900e4
:1003b4001a1908a82b0000f0fbfd079b01330793d3
:1003c40094e7802ff9d1079b013307932b681a1dfb
:1003d4001b682a6008aa137001230ba9300001f0de
:1003e400f0fb82e7802fe8d10122079b01330793ba
:1003f4000b9b049300930d9b0349d1e703946ee692
:0c040400bc040020a21b0000a81b00008c
:020000040000fa
:1004100070b56c4b9b7d002b19d06b4b9c6a694b64
:100420005b8b9b0714d5684b2022ff219954013226
:10043000fd399954644a2023d35c5bb2013300d167
:100440008de0614a2023d35c062b00d1a0e070bd73
:100450005c4b5b8bdb0707d55b4b2022ff2199545c
:100460000132fd399954e5e7564b5b8b5b0707d5a5
:10047000554b2022ff2199540132fe399954d9e776
:10048000514a2023d35c5bb2032b47d0042b11d0fd
:10049000022bcfd11369002b05d0908880b20021a8
:1004a00000f0acfec6e7484b988880b2012100f00e
:1004b000a5febfe7444a936912699a420dd0424aa9
:1004c0009268d05c3f4928228854591c3d4ad36920
:1004d000002bfcd13c4b9961ace73b4b5b69002b9b
:1004e0000ed0394b9b885b0001221343354a53627f
:1004f000d369002bfcd1344a20330321d15499e72e
:10050000304a5168c0239b020b435360d369002bd0
:10051000fcd12d4a20330621d1548be72a4bd969cf
:100520005b69013b8b420cd0264ad369002bfcd17e
:10053000254bda68234d2820285c50540131d961bd
:1005400078e7204a5068e023db0203435360d36915
:10055000002bfcd11c4a20330620d054e4e7202392
:100560000021d154174a5168c0239b020b435360aa
:10057000d369002bfcd1134b83221a76124b5b6a92
:10058000002b00d163e7104b5b6a200098475ee7c1
:100590001300002220215a5401315a54094b83324e
:1005a0001a761900533a4b8b1340102bfbd1064b94
:1005b0005b6a002b00d14ae7034b5b6a2000984737
:0c05c00045e7c046000c00425804002033
:020000040000fa
:1005cc00840400201c0000000000000058040020df
:1005dc002c00000000000000c404002005000000f6
:1005ec0000000000b4040020040000000000000023
:1005fc00080400205000000000000000cc04002083
:10060c006c00000001000000d8040020d40400207d
:10061c00d804002000000000250000000800002085
:10062c0000040000000000000000000000000000ba
:10063c0000000000000000000000000000000000ae
:10064c0000000000cb1b00000000000000000000b8
:10065c0000000000000000001d1000000000000061
:10066c00000000000000000000000000000000007e
:10067c000000000000000020080400000000000042
:10068c00980500202000000001000000010000007f
:10069c00030000000000000000000000000000004b
:1006ac000000000000000000ac040020ac0400209e
:1006bc000800000000000000b80400200800000042
:1006cc000000000038050020600000000100000060
:1006dc00010000000300000000000000000000000a
:1006ec00000000000000000000000000a11100004c
:1006fc00000000000000000000000000991b00003a
:10070c00cf1b0000000000000000000000000000f3
:10071c0000000000000000000000000000000000cd
:10072c0000000000000000000000000000000000bd
:10073c00b8050020040000000100000001000000ca
:10074c00c00400200400000000000000a0040020f1
:10075c000c00000000000000000000000000000081
:020000040000fa
:10076c0008d1002806d1f54204d801d3002a01d1c2
:10077c006d0d09d10020c143090dc904f0bdf9d19b
:10078c001242f7d1640df5d00020c1434905490848
:10079c00a6e000206146f0bdf0b50127ff070e0072
:1007ac005e403e40b446be0a4c18dd18f442d7d227
:1007bc00f542e4d2640decd06d0dead06419c90297
:1007cc003943460dc0023143db023b43db0a10b414
:1007dc008e4685b297b26f43140c6c433e0ca41931
:1007ec00260c2404bfb227439cb26c43a419190ce9
:1007fc006943250ca4b249190d04090c6419000ca9
:10080c0095b245433e0c76193743bfb2360c150ce6
:10081c004543ad19a6b2240cad192e0437432e0c4a
:10082c0036199db24543ad19acb22e0c89191d0c6d
:10083c0045436d182e04290c3443704680b295b292
:10084c0045433e0c76193743bfb2360c150c454365
:10085c00ad19a6b2ad19240c2e0437432e0c361943
:10086c009db24543ad19acb22e0c89191d0c4543f4
:10087c006d182e043443290c75462d0c90b2684328
:10088c003e0c80190604bfb23e43070ca0b23f18c1
:10089c00120c6a43d019020c80b2240ca4189ab220
:1008ac006a43121914042043120c89181b0c6b4355
:1008bc00c91810bc01273d05294203d1b619404186
:1008cc004941013cff077d0d013d641b0bdb6d00b5
:1008dc00ac4209da240500254208be416841614159
:0a08ec0066463143f0bd54e74ee7c5
:020000040000fa
:1008f600f0b5060085b00f0015001c008b4265d8c8
:1009060001d1824262d82100280001f0a6f8390000
:100916000090300001f0a1f8009b21001b1a1a007c
:100926002800039301f08df800900191019bbb42d2
:1009360046d802d1009bb34242d8009b019c039a41
:1009460001200021f61aa74101f07bf8039b002b3a
:100956002fd0019b009adb0754081c43019b5d08be
:10096600039b9c46bd422ed801d1b4422bd83200ff
:100976003b00121bab41012692185b410027b618bb
:100986005f4101235b429c446346002bead18019f8
:100996007941039a04000d003000390001f045f852
:1009a600039a06000f0001f04cf8241a8d4120002e
:1009b60029000a9b002b01d01e605f6005b0f0bdc8
:1009c60000200021c2e7b6197f41dae700200021a6
:0209d600efe749
:020000040000fa
:1009d80010b588293cd015dc81294dd003dc80294d
:1009e8004ad0002010bd822911d08429f9d1196874
:1009f800002a26d00a1d1a6000228b5e0360db17ce
:100a0800436011e0a02930d010dc9029e9d11968a1
:100a18000724002a2ed00919a1430a0008321a60b7
:100a28000b684c68036044600120dbe7c02901d0f3
:100a3800f029d6d11a68111d1960136803600023c4
:100a4800dee70c1d1c600b689bb203604260ebe79d
:100a58001968002a04d00a1d1a600023cb56cde776
:100a68000c1d1c600b68dbb2efe71a68111d1960da
:100a78001368c3e70731cfe71968002a03d00a1db6
:0e0a88001a600b68bae70c1d1c600b68dde7f6
:020000040000fa
:100a9600f0b54b6889b005930b6807009c46079331
:100aa600cb680c008e68049310685168cd0f44d053
:100ab6000b000200002150429941059b002b08dbe8
:100ac6000222634693430793002d02d1079b5a07e0
:100ad6002ad5731e07aa02920a22009301920b00de
:100ae6000200200000f028fa002d02d1079b5a07c9
:100af6001ed501382d23002d00d1023b049a135434
:100b060023695a1e049b121a1918079b3800009372
:100b1600330000f0d4f97b68db0503d5636898429f
:100b260000da180009b0f0bd1b07db0ff31ad1e796
:100b36001b07e5d501382023e0e7059b002bbfda2c
:020b4600c4e702
:020000040000fa
:100b4800244b5a6852031b68db0c13439b029b0a15
:100b5800214a936300235375110004228b691a42ba
:100b6800fcd11d491022cb681a42fcd01a4a137dc9
:100b780080210b431375194b00229a611a61184b97
:100b8800184a1a62190004224b681a42fcd1144a06
:100b9800cc234021d15010008c31402243581a42b6
:100ba800fcd00f4ad4234021d15010009431402268
:100bb80043581a42fcd00a4af0234021d150100071
:100bc800b031402243581a42fcd0074b074ada6139
:100bd8007047c046206080000010004000140040ac
:100be800001c004006010100000800400a00020045
:020000040000fa
:100bf800002941d010b4041c4c40a4460123002213
:100c0800002900d54942002800d5404288422cd30b
:100c180001242407a14204d2814202d209011b0106
:100c2800f8e7e400a14204d2814202d249005b0005
:100c3800f8e7884201d3401a1a434c08a04202d36d
:100c4800001b5c0822438c08a04202d3001b9c08ae
:100c58002243cc08a04202d3001bdc082243002810
:100c680003d01b0901d00909e3e7101c6446002cd6
:100c780000d5404210bc704701b5002000f0a4ff29
:100c880002bdc0460029f7d003b5fff7b3ff0ebc7d
:080c98004243891a1847c046c7
:020000040000fa
:100ca000f0b583b0002000f0fdfa00211e4800f0ee
:100cb0006dff00f037fe1d4d1d4c1e4e07e000f08d
:100cc00059ff02001c4b19781c4800f0fbfd02275d
:100cd00000f036fe00972b00012221004f2000f08b
:100ce00069fc3378002bf3d0124b00221a700f4aa4
:100cf00013781b025078184300b2c01100f03cfe7c
:100d000000220f4bfff74efd00f0a4fc00b2c30021
:100d100018180521fff770ff2030074b187000f0fe
:100d200063fe0028fbd0cae7011a0000c4040020bb
:100d3000c6040020c7040020c8040020a817000033
:040d40000000e03f90
:020000040000fa
:100d4400f0b51600050002278369426987b0029353
:100d5400d31a03939b1904910596019302ac3a00ac
:100d64002100286800f086fd019b984208d1ab68f9
:100d7400ea68ab619a18aa626b61300007b0f0bdf3
:100d840000280cda102200236968ab620a43ab61c5
:100d94006b616a60022f12d06368f61aede7019b5b
:100da4001b1a01936368984202d9c01a0834013fa0
:100db40023681b1823606368181a6060cfe71e005d
:020dc400dbe76b
:020000040000fa
:020dc600704774
:020000040000fa
:100dc8001e4bf0b51c68231e0dd000222100150013
:100dd80013000f68bc460f6984450bd1002a06d062
:100de80017610b0010331800f0bd3900f1e7134b01
:100df8001f60f6e7844504d9002b1ad01e68b44555
:100e080017d30a00002ff0d1002becd01f001a686e
:100e18001969121a1037102a05d918603818016193
:100e28000100103a02609c4206d1044b19603b0055
:100e3800d9e715000b00e4e72961f8e7c0040020b2
:020000040000fa
:100e4800f8b5846a05000f001600002c0ad0ab6aba
:100e58006a699b1ab3420cd2320039002800fff7a6
:100e68006dff05e000f0aefd03002000002beed082
:100e7800f8bd002ef0d02b0034331b785bb2002b6a
:100e88001adb3400dbb2621eb95c994212d122002f
:100e980039002800fff752ffa042e9d33f19341b5d
:100ea80022003900686900f00ffe6b6930001c19d8
:0c0eb8006c61dde7141ee6d13400f1e7a8
:020000040000fa
:100ec400f0b51d00012389b014000e9a06001a40e3
:100ed4000391029201d1a5420ad82200039930005d
:100ee40000f02afba54203d82500280009b0f0bd74
:100ef4002f1b01973a00102f00d91022202104a89b
:100f040000f002fe019b0f2b0ed80f2204a93a40d9
:100f1400300000f011fb029b002be6d12200039964
:100f2400300000f009fbe0e7102204a9300000f0d3
:0a0f340003fb019b103b0193e4e76f
:020000040000fa
:100f3e00f7b5040019000a9fe368666800933b68e2
:100f4e00100001932369013b1c00002e00da0126dc
:100f5e000022009dea5435000123002c03dc002bf7
:100f6e001cd02000febd02000a4309d1002d07dc73
:100f7e00089a921b5219002af1dd019a9207eed5ba
:100f8e00099b099adb1700f0b2fa8c460099013cd6
:100f9e00130030320a55013d6146dee710233a68f0
:060fae009a433a60dde702
:020000040000fa
:100fb40010b584291fd007dc812915d0822922d0bd
:100fc400802911d0002010bd90291cd008dc88296c
:100fd400f8d119680c1d1c600b6803601a7010e0ce
:100fe400a02901d0c029edd119680c1d1c600b6823
:100ff40003601a6005e019680c1d1c600b6803602f
:101004001a800120dfe719680c1d1c600b6803605f
:081014001a60d2175a60f4e7dc
:020000040000fa
:10101c007fb51600c2680d0013000091591e8b415c
:10102c00f31a019383680400039269460222006854
:10103c00029300f007fc002808dc18220823024069
:10104c005340626813436360060010e0019b8342c7
:10105c00fad2a268c01ae3681018e2632064002b6d
:10106c0005d0531ce3631378ad19013d2b70300090
:04107c0004b070bd8f
:020000040000fa
:1010800037b5164d04002b68002b0fd000f02afc5a
:10109000019001a800f007fd0f230f30984301993c
:1010a00000f086fc00280cd000232b60002c00d11f
:1010b00001340f230f349c4304d10c222000084b31
:1010c0001a603ebd042c00d204242000fff77cfef1
:1010d0000028f6d0031f1c60f3e7c046b8050020c7
:0410e000bc0400202c
:020000040000fa
:1010e400144b01221a601a00d369002bfcd1114b56
:1010f400802252005a601a00d369002bfcd10d4b98
:10110400e822da600c4a1a601a00d369002bfcd179
:10111400084b10225a831a00d369002bfcd1074bc9
:10112400002221215a5401395a54024b83329a75b0
:101134007047c046000c00421600100058040020fe
:020000040000fa
:1011440000230e4a10b513600d4a13600d4a136054
:101154000d4a13600d4a13600d4a53621361013343
:10116400936000f0f5fc00f002fd0a4c0a4b9c422f
:1011740000d310bd08cc9847f8e7c046b804002057
:101184001404002010040020080400200c04002093
:0c11940018040020b8000000bc0000009f
:020000040000fa
:1011a00070b504000d00002801d1002070bd436817
:1011b0009b0607d543698269934215d80023a36231
:1011c000a3616361e16b236c994204d2c91a0122c5
:1011d000206800f0fffc00232364e3639d42e4d019
:1011e000206800f0e7fce1e70022c36a110098479d
:0c11f0006369002be2d101204042d7e7e8
:020000040000fa
:1011fc0010b5114b00229a61da61104b83321a76ca
:10120c005a680f4c22405a601a00d369002bfcd14b
:10121c0000290cd0084a20330324d454400008433e
:10122c00064b58621a00d369002bfcd110bd024a40
:10123c0020230424d454f1e758040020000c00426d
:04124c00fffffbffa6
:020000040000fa
:10125000f8b505000c000020002d20d000f08efa1b
:10126000002c17d000200e4a0421072605e0178d18
:101270004300ef52013084420dd0137e0b42fcd06c
:10128000538b334207d153683340012befd0138d7a
:101290002b54efe72000201a44426041c0b2f8bd51
:0412a0000004004204
:020000040000fa
:1012a40010b5114b06225a60104b1b6818680021b8
:1012b40000f034fc0e4b1b681868002100f02efc73
:1012c40000f043fafff73efc00f058fcfff708ff7c
:1012d400fff777fd00f088f900f00cf800f032f821
:1012e40000f0a0fa10bdc04600400041d004002028
:0412f400b40500201d
:020000040000fa
:1012f800114b01221a7019000b8c1342fcd10f4bb1
:101308001b681a02e021c9000a409b065b0f1a43ba
:10131800094b9a8502225a7001325a7380219970ba
:101328001a8100225a8107229a711a00138c9bb2e3
:10133800002bfbd17047c04600440042206080006b
:020000040000fa
:1013480010b5114b18691a6902218a431a611a6982
:101358000e4c22401a61014211d01a001b690b433e
:10136800136111000422cb681a42fcd0064b1b699a
:10137800db0504d404490122cb681a42fcd0024b95
:101388000422da6110bdc046001800401e003f006c
:020000040000fa
:1013980070b5040016001d00022a1cd043689b0685
:1013a80019d4002908d1002d01d18025ed0028008d
:1013b8000830fff761fe010020236268a160134333
:1013c80063602300e5603433ff22012e00d10a2236
:1013d8001a70024be362002070bdc046490e00003f
:020000040000fa
:1013e80010b5064c2378002b07d1054b002b02d0f3
:1013f800044800e000bf0123237010bd84040020ce
:101408000000000000000000044b10b5002b03d0c2
:101418000349044800e000bf10bdc04600000000ba
:08142800880400200000000010
:020000040000fa
:1014300010b50a4b98470a4b984700f0f1f8094b52
:10144000ff229343084a9360084b9847084b9847fc
:10145000084b9847fff724fcfee7c046e719000059
:10146000e71900000000000000ed00e04511000059
:08147000e7190000e719000074
:020000040000fa
:1014780070b5002818d0002918d000250c4a01247e
:10148800072605e06b00c35a13850135a94209d028
:10149800137e2342fcd053683340012bf2d0435dc6
:1014a8001385f2e7012070bd0020fce70120fae770
:0414b80000040042ea
:020000040000fa
:1014bc00030010b51a78202a0dd01100093904291f
:1014cc0009d900212b2a02d02d2a01d10131013357
:1014dc0000200a2404e00133ece760430133801a56
:1014ec001a78303a092af8d9002900d1404210bda7
:020000040000fa
:1014fc00002b11d1002a0fd1002900d1002802d0d5
:10150c000021c943081c07b4024802a140180290ec
:10151c0003bdc046b106000003b4684601b502988d
:10152c00fff7e3f9019b9e4602b00cbc7047c04626
:020000040000fa
:10153c00436870b50400d80512d52569954200d9c9
:10154c001500002d0bd02a00606900f0bbfa22694f
:10155c0063695b19551b0022636125611a7070bdac
:0c156c00db06fcd4200000f0c1faf8e718
:020000040000fa
:101578001c2101231b04984201d3000c10391b0abb
:10158800984201d3000a08391b09984201d300097f
:10159800043902a2105c40187047c04604030202d6
:0c15a80001010101000000000000000033
:020000040000fa
:1015b40070b50c4d20242d5d0024002d01d0200099
:1015c40070bd084ca080e360049b6361a16022614c
:1015d4000023a37023702122a3540021fff70cfee3
:0815e4000124ece7580400208b
:020000040000fa
:1015ec000a4b0b4a1a60d22252429a81c0229202b2
:1015fc005a601a00d369002bfcd1044a13680221eb
:10160c000b431360d369002bfcd1704700040042dc
:04161c000401314054
:020000040000fa
:1016200010b50a480168002903d14368002b00d196
:1016300010bd04008368064a9bb20c349b009b5883
:1016400042682000984780002018ebe7cc05000096
:04165000bc1a0000c0
:020000040000fa
:10165400f4464a1805d200f063f801d5c0174008d3
:10166400604701235b05d34206d200f059f801d547
:101674000120c0074042604701d10042f5d0d01795
:041684004008704763
:020000040000fa
:10168800f0b5050000200a4a4400a65c002e02d1ed
:1016980012195078f0bd296801300f78c0b2b742ee
:1016a80003d112190131507829600a28ebd9f1e7e2
:0416b800901a000084
:020000040000fa
:1016bc00074b1a68002a01d1064a1a60064a1168bb
:1016cc00002901d1054911601a68054b1a60704751
:1016dc00a8040020c0050020a4040020c00700209e
:0416ec00a004002036
:020000040000fa
:1016f00070b5094d04002b68002b01d1fff7deff08
:10170000064a286812680419a24201d32c6070bdf1
:1017100001204042fbe7c046a0040020a4040020b2
:020000040000fa
:101720004a0010d2520d03231b02ff33d21a0ad4ef
:1017300052421f3209d4400dc90208430123db077e
:0e1740001843d040704700207047d017704704
:020000040000fa
:10174e008223db05012246215a5401315a540531b8
:10175e005a5401315a541a395954033122205854cb
:0c176e0093315a54b332b9399954704782
:020000040000fa
:02177a00fee788
:020000040000fa
:10177c00094b5b8b5b070dd0074b80221a76793aad
:10178c005a831b7e5b0705d5034b04211a8d1a7ee9
:0c179c000a42fbd17047c0460004004226
:020000040000fa
:1017a80054656d7065726174757265203d202530d1
:1017b8003264204620204c696768742073656e7314
:0c17c8006f72203d20253064200d0a00c7
:020000040000fa
:1017d400002380290fdb812901dd83290bd1072117
:1017e400136807338b431900083111601a685b686a
:0a17f40002604360012318007047f3
:020000040000fa
:1017fe00020000234832d356591e0b4313700423a4
:10180e004268134005d01023134343600120404229
:0a181e0070470364c3631800fae783
:020000040000fa
:10182800bff35f8f62b6074ac220800013581b02bd
:101838001b0ac02109060b43135080231b011360a8
:081848007047c04600e100e01a
:020000040000fa
:10185000f7b5002507000c002e000192019b9e4267
:1018600001db2800febd62682168380000f018f82e
:0818700001362d180834f1e7e0
:020000040000fa
:10187800f7b5002507000c002e000192019b9e423f
:1018880001db2800febd62682168380000f062f8bc
:0818980001362d180834f1e7b8
:020000040000fa
:1018a00010b50c000023002809d10300002a06d03f
:1018b00001212000fff7ccfc0028f9d001231800fb
:0218c00010bd59
:020000040000fa
:0218c200fee73f
:020000040000fa
:1018c4000fb407b5054b04aa1b6802ca1868019235
:1018d40000f0a0f803b008bc04b01847b405002019
:020000040000fa
:1018e40010b5054c2368002b01d1fff7e5fe034b2f
:1018f40018682368c01a10bda0040020a4040020a6
:020000040000fa
:10190400002310b5934206d103201840421e904193
:0e1914009b08c01810bdc45ccc540133f2e730
:020000040000fa
:02192200fee7de
:020000040000fa
:10192400054a137802210b431370110002220b8c19
:0c1934001342fcd17047c0460044004242
:020000040000fa
:10194000054a137e02210b43137611008022d20038
:0c1950000b8c1342fcd170470044004295
:020000040000fa
:10195c0070b50d001400012801d0200070bd2100cd
:0c196c002800fff783fd0028f9d0f6e703
:020000040000fa
:10197800054b004206d5404200b5984708bc0122f5
:0c198800d2071143184700009519000019
:020000040000fa
:1019940042221201033a010007d002d4013a00188e
:0c19a400fcd51205c30a400599187047d5
:020000040000fa
:1019b0000023054a10b514689c4203d110600361ee
:0c19c00001600133180010bdc0040020bd
:020000040000fa
:1019cc0010b50400fff715ff002805d1a368e268e5
:0a19dc00a36163619b18a36210bdb4
:020000040000fa
:0219e600704748
:020000040000fa
:1019e800044b9b7901221340181e01d0014b9a71b8
:0819f8007047c04600440042a4
:020000040000fa
:101a000010b500f09ff8002802d1024b01221a7095
:081a100010bdc046c704002010
:020000040000fa
:101a180013b50400019201aafef758fb6368db06c0
:081a280001d50120404216bd6a
:020000040000fa
:101a3000d0400b1cd1409c46203ad3401843524220
:081a4000634693401843704710
:020000040000fa
:101a48009140031c90409c46203a934019435242cf
:081a58006346d34019437047b7
:020000040000fa
:101a600010b5002903d1fff787fd203002e0081ce4
:081a7000fff782fd10bdc04626
:020000040000fa
:101a78000378002b06d0030001331a78002afbd123
:081a8800181a70470020fce76a
:020000040000fa
:101a900068076c094c836a9074a07ac000806888db
:061aa00000846c8200814d
:020000040000fa
:101aa600006810b5002801da002010bdfff71dfe02
:061ab600431cfad1f8e721
:020000040000fa
:101abc00331b000005190000bb1b0000bb1b000002
:041acc00bb1b000040
:020000040000fa
:101ad00010b5002a05d00023cc5cc45401339342d6
:041ae000fad110bd6a
:020000040000fa
:101ae40010b500f061f8024b1860586010bdc04694
:041af400ac0400201e
:020000040000fa
:101af800c36a10b5002b01d0984710bd0068fff7e6
:041b080029fffae7d0
:020000040000fa
:101b0c00002a06d00300c9b282181970013393421f
:041b1c00fbd1704742
:020000040000fa
:101b20004a424a41802310b55200db00fff734fce3
:021b300010bde6
:020000040000fa
:101b32008a18914201d10020704700230b700131b5
:021b4200f7e7c3
:020000040000fa
:101b4400024a2123d05cc0b27047c046580400202a
:020000040000fa
:101b540010b5fff7c5ff00f026f800f024f810bd1b
:020000040000fa
:0e1b64000300413b192b01d820231843704782
:020000040000fa
:021b72007047ba
:020000040000fa
:0c1b7400014b988c80b270470044004286
:020000040000fa
:0c1b8000014b84225a6070470040004175
:020000040000fa
:0c1b8c00014b5862996270475804002019
:020000040000fa
:0a1b980010b50068fff7defe10bd77
:020000040000fa
:081ba200286e696c2900250082
:020000040000fa
:021baa00704782
:020000040000fa
:081bac000048704738050020d5
:020000040000fa
:061bb400012040427047d1
:020000040000fa
:041bba000020704750
:020000040000fa
:041bbe00002070474c
:020000040000fa
:041bc2000020704748
:020000040000fa
:041bc6000020704744
:020000040000fa
:041bca000020704740
:020000040000fa
:021bce0070475e
:020000040000fa
:041bd0007047c04654
:020000040000fa
:041bd4000020704736
:020000040000fa
:0200000400807a
:04400000ff00fe03bc
:020000040000fa
:0200000400807a
:0440040000fcffffbe
:00000001FF
