:10000000F07F0020790500009507000097070000A9
:1000100000000000000000000000000000000000E0
:100020000000000000000000000000005707000072
:100030000000000000000000570700005707000004
:100040005707000057070000000000005707000096
:100050005707000057070000570700005707000028
:100060005707000057070000570700005707000018
:100070005707000057070000570700000000000066
:1000800000000000000000005707000057070000B4
:1000900057070000570700005707000057070000E8
:1000A00057070000570700005707000057070000D8
:1000B0005707000057070000570700000000000026
:1000C00000000000000000000000000057070000D2
:1000D0005707000057070000570700000000000006
:1000E0000000000000000000000000000000000010
:1000F00000000000000000000000000057070000A2
:100100005707000057070000570700005707000077
:100110005707000057070000570700005707000067
:100120005707000057070000570700005707000057
:100130005707000057070000570700005707000047
:100140005707000057070000570700000000000095
:10015000570700005707000057070000F07F0020F6
:1001600079050000950700009707000000000000D7
:10017000000000000000000000000000000000007F
:100180000000000000000000570700000000000011
:100190000000000057070000570700005707000045
:1001A0005707000099070000570700005707000095
:1001B00057070000570700005707000057070000C7
:1001C00057070000570700005707000057070000B7
:1001D0005707000057070000990700009907000023
:1001E0009907000057070000570700005707000055
:1001F0005707000057070000570700005707000087
:100200005707000057070000570700005707000076
:1002100057070000570700009907000099070000E2
:1002200099070000990700005707000057070000D2
:1002300057070000570700009907000099070000C2
:10024000990700009907000099070000990700002E
:1002500099070000990700005707000057070000A2
:100260005707000057070000570700005707000016
:100270005707000057070000570700005707000006
:1002800057070000570700005707000057070000F6
:1002900057070000570700005707000057070000E6
:1002A0005707000057070000990700005707000094
:1002B0005707000057070000F8B5C046F8BC08BC57
:1002C0009E467047F1050000F8B5C046F8BC08BC72
:1002D0009E467047CD05000041F20003C4F20003C2
:1002E000CA221A7641F20043C4F2000300221A74B3
:1002F00041F60043C4F200030632FF32C0F20102AD
:100300001A6241F60042C4F2000204215368194205
:10031000FCD141F60043C4F2000340F20512C0F2E2
:1003200003025A6241F60042C4F2000208215368F7
:100330001942FCD141F60043C4F20003A02241213E
:10034000995041F60042C4F20002A020013913582E
:100350001942FCD041F60043C4F20003C4224021FC
:10036000995041F60042C4F20002C42013581942C9
:10037000FCD041F60043C4F20003CC224021995046
:1003800041F60042C4F20002CC2013581942FCD0BE
:1003900041F60043C4F20003D0224021995041F6B7
:1003A0000042C4F20002D02013581942FCD041F69A
:1003B0000043C4F20003FC224121995041F600425F
:1003C000C4F20002FC20013913581942FCD07047D6
:1003D00010B5BFF35F8F62B64EF20013CEF200038A
:1003E00040F28022995804242143995099589958F1
:1003F00048F20000014399509958985880214902C9
:100400000143995099589958802080020843985088
:100410009958995880200006084398509A5840F2FD
:1004200084229858012108439850995898580221DD
:100430000843985099589958214399509958995878
:100440008020014399509958995840000143995090
:10045000995899584000014399509958995840002B
:10046000014399509958995840000143995099581F
:1004700099584000014399509958995840000143B8
:100480009950995899584000014399509A5840F210
:10049000882299580820014399509B5810BD30B5C7
:1004A00043F20023C4F2000348F248021A60082213
:1004B0001A6100213B329954423A44201A540130C7
:1004C0001A540130195406301A5401301A540230AB
:1004D000195406301A5401301A5425381954023070
:1004E000322418551954043422251D550134195548
:1004F0003A31273C5C5401315A544BF27801C0F236
:100500006001D966C8215A5401315A54B332985403
:10051000383240F20031995030BD704700230E4A06
:1005200010B513600D4A0E4C13600E4A13600E4A4C
:1005300013600E4A13600E4A5362136101339360D5
:1005400000F02BF900F029F90A4B9C4200D310BDB2
:1005500008CC9847F8E7C046700000200C00002047
:10056000C402000008000020000000200400002059
:1005700010000020C802000010B540F2AF63C0F2C6
:100580000003984740F2AF63C0F20003984700F0C1
:100590008FF840F20003C0F200037F2293434EF62F
:1005A0000052CEF20002936040F21D53C0F20003ED
:1005B000984740F2AF63C0F20003984740F2AF6340
:1005C000C0F20003984700F03EF8FEE710B5054C76
:1005D000227832B9044B13B1044800E000BF012374
:1005E000237010BD5000002000000000000000003B
:1005F000034B10B51BB10349034800E000BF10BD19
:1006000000000000540000200000000040F2004301
:10061000C4F2000300221A819A7901210A439A71D7
:100620009B7803221340022B0CD040F20043C4F20B
:100630000003013A9A705202C4F200020121937938
:100640000B42FCD0704710B582B08023DB021C68DF
:10065000002000F05DF8631C0FD084F38888042329
:10066000C0F204031B680193019C6408640020002D
:1006700021002200230000F001F8FEE7E0B5454626
:100680004E465746E0B45D4620B4254626462746EA
:10069000A046A146A246A346A44684F30088A447E8
:1006A00020BCAB46E0BCBA46B146A846E0BD7047A8
:1006B00010B50948016811B9436803B910BD0400B9
:1006C0008368064A9BB20C349B009B58426820000A
:1006D000984780002018EDE7E0060000580700006A
:1006E000500000202000000000000000000000205A
:1006F0005000000000000000700000200400000016
:100700000000000000000000000000006666666651
:1007100010B5FFF77BFF45F20003C4F2001304227B
:100720005A60FFF7BCFEFFF7D7FD00F01FF8FFF798
:10073000F4FEFFF74DFE10BD002310B5934206D125
:1007400003201840421E90419B08C01810BDC45C95
:10075000CC540133F2E7FEE77F07000039070000C1
:1007600091070000910700009107000045F2000387
:10077000C4F2001302225A60013A1A7270478A18B2
:10078000914201D10020704700230B700131F7E73F
:0C07900000207047FEE7FEE7FEE7704720
:020000040004F6
:10000000F0FF00202990040007400400D3570400AB
:1000100000000000000000000000000000000000E0
:100020000000000000000000000000006337040032
:1000300000000000000000006337040041A004003D
:100040000000000000000000099D04000000000006
:1000500000000000000000000000000000000000A0
:100060000000000000000000000000000000000090
:10007000000000000000000000000000057E0400F9
:10008000E57C0400297B0400000000000000000063
:100090000000000000000000000000000000000060
:1000A0000000000000000000000000000000000050
:1000B000000000000000000000000000D78B0400DA
:1000C000D78B0400D78B0400D78B040000000000FE
:1000D000000000000000000000000000453D04009A
:1000E000453D0400453D0400453D04003B8C0400B3
:1000F0003B8C04003B8C04003B8C0400000000009F
:1001000000000000000000000000000000000000EF
:1001100000000000000000000000000000000000DF
:1001200000000000000000000000000000000000CF
:1001300000000000000000000000000000000000BF
:1001400000000000000000000000000029AD0400D5
:10015000000000000000000000000000F8B5C046EC
:10016000F8BC08BC9E4670471D980400F8B5C04610
:10017000F8BC08BC9E467047F9970400CC320000DA
:1001800001000000F0B5DE4657464E464546E0B554
:1001900085B04AF25053C2F200035E7BF6B23EB91C
:1001A000300005B03CBC90469946A246AB46F0BD37
:1001B00002222521742009F05DF906000028EFD005
:1001C00001200AF0C1F908211F2009F049F80600B2
:1001D0000028E5D04AF25057C2F20007BB7B984690
:1001E000FB7B99463B7C9B463B7D1B027A7D1A43F9
:1001F0009246787C0003BB7C1B011843FB7C1B09E7
:1002000018430AF0FFF909F06FFA04000D004AF2F2
:10021000FC63C2F2000318880AF0F4F909F064FAEA
:100220000090019100220023C3F6E0632000290022
:1002300005F026FA0290039100220023C3F62073F2
:100240000098019905F01CFA02000B00029803992E
:100250000AF085FC0290039100220023C3F610737C
:100260002000290005F00CFA04000D0000220023F4
:10027000C3F650730098019905F002FA02000B00D2
:10028000200029000AF06BFC04000D004AF2FE6316
:10029000C2F2000318880AF0B5F909F025FA020045
:1002A0000B002000290005F0EBF908F029FD009073
:1002B0004AF20073C2F2000318880AF0A3F909F0A9
:1002C00013FA00220023C4F2300305F0D9F9040028
:1002D0000D000298039902000B0005F0D1F902000D
:1002E0000B002000290005F0CBF908F009FD011CE6
:1002F000009805F029FD7862786AFC21890507F0ED
:10030000B3F80021C4F27A710AF08CFC051C4AF2A1
:10031000EE63C2F2000318880AF074F9291C07F092
:10032000A3F8291C07F0A0F809F0DEF90022002349
:10033000C3F6107305F0A4F9009001914AF2EC6342
:10034000C2F2000318880AF05DF9291C07F08CF846
:1003500009F0CAF902000B000098019904F014FE9C
:100360000022FB239B0505F08BF908F0C9FC09F07E
:10037000BBF90022FC239B0505F082F90022002333
:10038000C3F6F07304F000FE009001914AF2E863B6
:10039000C2F2000318880AF035F909F0A5F9020045
:1003A0000B000098019905F06BF908F0A9FC041CFA
:1003B00009F020FB00B2002800D10FE14AF2F463FB
:1003C000C2F2000318880AF01DF9DC21890507F044
:1003D0004BF8071C4AF2F263C2F2000318880AF0D5
:1003E00011F9291C07F040F809F07EF902000B0012
:1003F00004F0CAFD00900191291C281C07F034F874
:10040000391C07F031F809F06FF902000B00009871
:10041000019904F0B9FD009001914AF2F063C2F233
:10042000000318880AF0EEF809F05EF900220023B4
:10043000C4F2F00305F024F90290039100980199A9
:1004400008F05EFC09F050F900220023C3F6D073D7
:1004500005F016F902000B000298039904F094FDD0
:10046000009001914B4618015B461B091843434617
:100470001B0318430AF0C6F8011C9320C0050AF0BC
:10048000D1FB09F031F9029003910098019908F02D
:1004900037FC09F029F900220023C3F6307305F078
:1004A000EFF802000B00029803990AF058FB0022B3
:1004B00046F60023C4F2B80305F0E2F8009001917B
:1004C000201C09F011F902000B000098019906F0B8
:1004D0003BFD08F015FC071C09F006F9002200237B
:1004E000C3F670730090019105F0CAF804000D0086
:1004F0004AF2FA63C2F2000318880AF083F8391C42
:1005000006F0B2FF391C06F0AFFFC021890506F0E6
:10051000ABFF071C4AF2F863C2F2000318880AF026
:1005200071F809F0E1F80022FC239B0505F0A8F81A
:10053000009A019B05F0A4F808F0E2FB011C381CAE
:1005400005F002FC071C4AF2EA63C2F200031888B5
:100550000AF0F4F800220023C3F6E06305F090F8F7
:100560000290039122002B002000290005F088F85A
:1005700022002B0005F084F802000B00029803997A
:1005800005F07EF808F0BCFB011C381C05F0DCFB14
:1005900009F0AAF804000D004AF2F663C2F2000363
:1005A00018880AF02FF809F09FF800220023C4F2FF
:1005B000600305F065F802000B002000290004F03C
:1005C000E3FC00220023C3F6B07305F059F8009A4B
:1005D000019B04F0D9FC08F093FB00E000204AF2F4
:1005E0005053C2F200039862586A0021C4F2A0512D
:1005F00007F0E5FA071C09F077F804000D004AF24D
:10060000E063C2F20003188809F0FCFF09F06CF8FF
:1006100000220023C3F6107305F032F822002B00ED
:1006200005F02EF800220023C3F6F07304F0ACFCB2
:10063000009001914AF2E263C2F20003188809F0C7
:10064000E1FF09F051F800220023C3F6B06305F082
:1006500017F822002B0005F013F822002B0005F0FC
:100660000FF802000B000098019904F08DFC009037
:1006700001914AF2DC63C2F20003188809F0C2FF5C
:1006800009F032F800220023C3F6D06304F0F8FF2B
:1006900002000B000098019904F0F2FF08F030FB13
:1006A0000090504609F0AEFF09F01EF80290039149
:1006B0004AF2DE63C2F20003188809F0A3FF09F0D2
:1006C00013F800220023C3F6E07304F0D9FF2200E0
:1006D0002B0004F0D5FF04000D004AF2DA63C2F2E9
:1006E0000003188809F08EFF08F0FEFF00220023A7
:1006F000C4F2300304F0C4FF02000B002000290004
:1007000004F042FC02000B00029803990AF027FA59
:1007100008F0F6FA011C009806F0A6FE041C4AF246
:10072000E663C2F20003188809F06CFFD421890542
:1007300006F09AFE391C06F097FE051C4AF2E463A7
:10074000C2F20003188809F05DFFE221890506F076
:100750008BFE011C281C05F0F7FA211C06F084FE14
:10076000211C06F081FE211C05F0EEFA041C00217C
:10077000C4F2C82109F0A9FC30B90021201C09F0FD
:10078000BBFC20B1002402E00024C4F2C8244AF2D9
:100790005053C2F20003DC6202E57047F0B59BB033
:1007A00013930B6815900A934B680D9102938B6815
:1007B000CE680B930B6918931368069353680698D9
:1007C000089300220023089909F090F960B90A9B68
:1007D0005B0734D408200A9B034009930B9B0393C7
:1007E000099B73B1202306E0802212069446089BE1
:1007F000634408932D2333700B9B013B0393012328
:100800000993089B06995B005B088E4AD9B993420D
:1008100019D1139B099A413BB018192B11D88A4959
:100820000AF0A6FA300009F0D5FF0A9B02000093F7
:1008300031000B9B159807F012FE1BB0F0BD2B2367
:10084000D9E78249ECE7934202D80BD1069B4BB122
:10085000139B099A413BB018192B01D87C49DFE75B
:100860007C49DDE7002200230698089909F072FC14
:100870000024794D0027E8BB070002E00137049C03
:10088000059D0022754B2000290004F0F9FE069A10
:10089000089B0490059109F00AF90028EED0002386
:1008A00004931FE06E4B9F4213DA049B8BB9002226
:1008B0006C4B0698089904F0E3FE6A4B0690089189
:1008C00020002900002204F0DBFE012304000D00BB
:1008D0000493200029000022604B06F035FB040041
:1008E0000D00013F22002B000698089909F0FEF840
:1008F0000028D7D113980AF003FAC3B20C93029BD5
:10090000002B00DA93E10C9B0493672B00D0AFE03F
:10091000029B002B00D185E13B1D03DB029B9F4224
:1009200000DAA1E06523B5E0002200230E920F93C8
:1009300003E106940795049B0897652B00D01CE102
:100940000023089319E1029B5BB9089B002B08DA8E
:100950002E23149A0134B354039B013B03930123C8
:10096000029323002A19302101E0F15401339A4205
:10097000FBD1039A2B193030551B5C1CF0546B1EB5
:100980000393002523E00D9B14941B691093053BF2
:10099000A34200D8FDE0069A079B0E98129906F034
:1009A000D3FA06F0EDFB1090119109F085FA0928B1
:1009B00000DD092010230A9A13400343002BC2D103
:1009C0000C9B672BBFD1089B002BCADA0135802016
:1009D0000006844612990E9A61440B0010981199F2
:1009E00000920193069A079B0AF03CF980231B06AC
:1009F000CB180E90129306980799184B002206F018
:100A0000A3FA089B06900791013B0893BCE00A9B60
:100A1000DB0600D4C1E02E2333550134BDE00A22A9
:100A200097FBF2F56A43BA1A3032013BF254039A4B
:100A30002F00013A0392BDE0039B325CF3181A5475
:100A40000138E3E00000F07F44AC040048AC04004F
:100A50004CAC040050AC04000000F03F0000244007
:100A6000D4FEFFFF00005043002F12DA66230493E8
:100A7000029B01330293049B662B0CD1002F02DAF8
:100A8000002400276D4D0C9B672B02D0029BDB19C5
:100A9000029366230493069B0E940F951293089B72
:100AA0001093002314930E9A0F9B1298109906F03E
:100AB0004BFA06F065FB1690179109F0FDF91990B5
:100AC0008020000684461099129A61440B00169803
:100AD0001799009201930E9A0F9B0AF0C3F8802396
:100AE0001B06CB181290109300220E980F99544BAE
:100AF00006F02AFA149B0E900F9101331493149A66
:100B0000029B9342CFD100224E4B04F0B9FD0E90D0
:100B10000F9102000B001298109908F0E7FF0028CF
:100B200000D001E70E9A0F9B1298109909F012FB62
:100B300018B1199BDB0700D4F6E60E9A0F9B0698B6
:100B4000089904F021FA00220E9012913C4B2000EB
:100B5000290004F095FD0E9A129B0690079108F06B
:100B6000E5FD002800D1E4E6049B0137662B00D0A8
:100B7000E1E6029B0897013302930025029A089B45
:100B8000099C9B1A16930295089B169A934200D0D3
:100B9000F9E6029B002B00D139E70021049B3019B4
:100BA0000170652B25D1189B013BF1548F4201DA6E
:100BB0007F420131002F00D031E7189A9A1A033290
:100BC000002A00DD2BE75D1E2D2201B9023A725585
:100BD000139A023B413A192A01D845220492049AF9
:100BE000F1180A70039A023A03929C4201DA0AF061
:100BF000BFF803230A9A1340022B00D012E6039B8E
:100C0000002B00DC0EE6300009F0E4FD099B834276
:100C100000DC11E7F018039A302109F037FF0023B8
:100C20000B93FFE50123029376E60623FBE70C9B7B
:100C3000672BFAD004930623029319E70000F03FD4
:100C40000000244000001440F0B587B00090009BE5
:100C50000B20002B00D1E2E1002603275B680496FD
:100C600002931B88019605930396049B059A934271
:100C70001ED1009B1A68137859B200290BDA08209C
:100C8000002101268446049C88B2844200D9FFE0FA
:100C90007F210B401370039B002B00D009E10198CA
:100CA00001231178002800D15BE10B4313705AE156
:100CB000009BB5009B685D191E236A681178194076
:100CC00001D001232B702B78042B73D00AD8022B70
:100CD0002ED043D8012B23D0049B033601339BB283
:100CE0000493C2E7852B00D182E0862B00D1A9E0D6
:100CF000072BF1D12989538899425FD9C91A009BE2
:100D00000298DB6840799B5D89B20341DBB28B427C
:100D100054D86B78002B69D101232B701770DBE757
:100D200003930029D8D102232B7008236B70D3E7DB
:100D30006978002910D05288042904D92A81013900
:100D4000697001237CE02B899342F8D002D9013BE2
:100D50002B81F4E70133FBE72F70BDE72989538826
:100D60009942B9D0009AD26810D9CB1A0299925DF3
:100D700049799BB20A41D2B29A42ADD8029B1B7903
:100D8000002BA9D007222A706B70DAE792195B1A40
:100D900011789BB299429FD89378002B05D0049983
:100DA000009807F01FFB002896D104232B70029BAC
:100DB0009B78E9E729895388994202D92F7000234B
:100DC000B4E7009A5B1AD2689BB2921911789942E3
:100DD000F4D29378002B06D00499009807F002FB18
:100DE000002800D078E76B78002B47D0013BCBE799
:100DF000029B00991B7A09680B71288953889842D5
:100E000007D986232B70029B9B786B70012301937B
:100E100016E0009A1B1AD2689BB291190A78497899
:100E2000140001310C410121121BD2B201919A42EE
:100E300000D251E786232B70029B9B786B700B00CE
:100E4000039349E728895388984209D96B78002B86
:100E500001D12F7001E0013B6B70012301933BE74F
:100E6000009A1B1AD2689BB291190A78497814002B
:100E700001310C41121BD2B29A4204D285232B704D
:100E8000029BDB78E8E76B78002BE2D0013BBCE704
:100E90000C2500984D43806845196F6838783042BA
:100EA00005D164462D78A54301D030433870013117
:100EB000E9E6029B597A002900D1F0E680231078F8
:100EC0005B4203431370012900D0E8E600218BB296
:100ED0000393049B88B2834200D8E0E60C20009B79
:100EE00048439B6808251818029303781C00AC43FC
:100EF00015D0852B01D0032B2ED10325009BDF6855
:100F00002B004B43FB189B789C46002B07D00023FB
:100F10001E000595049C9C4208D8002E1CD101257A
:100F200040680378AB4303700131D0E7039C9C42D7
:100F30000FD00C255D43029C2D5D042D01D0862D24
:100F400007D1059D5D437D19AD78654501D1012629
:100F5000049B01339BB2DDE70123406805782B43F6
:100F6000E1E7994311705288584B11001B88C83132
:100F70008B4251D99B1A9BB29C466346C82B4DD9D4
:100F80006346C83B9BB29C46009B1B685A88C8328C
:100F90005A801A79002A00D070E05A79002A01D0CC
:100FA000013A5A719A79002A01D0013A9A71009A4D
:100FB00050688679002E07D05A79002A04D1078814
:100FC00091B28F4234D85E71C579002D07D09A79DD
:100FD000002A04D1068891B2B1423CD39D71009B96
:100FE0005B68DA78002AC8D01F880C230021032010
:100FF0007B4302938BB2BB42BFD20C22009B4A437D
:101000009B689A181578852D04D15578002D38D015
:10101000013D55700131EDE7934202D3002007B046
:10102000F0BD2B495918891AC829F7D9013BA1E706
:101030000C21009C5143A46861180D78032D01D048
:10104000082D06D14C680D896488AC4201D9013560
:101050000D810132B4E70C2100985143806841189A
:101060000878032801D0082806D14C6808896788C9
:10107000874201D2013808810132ACE7013A1A7186
:10108000ADE701240500147052684D431070009ABA
:10109000D2685519AD78002DBCD0029C02321C19C3
:1010A00001920394039A9342B4D0019A1678AE4207
:1010B00006D101225E683478144201D01A70307073
:1010C000019A0C3303320192ECE7C04602A70020DC
:1010D000FFFF0000F0B599B014930B6857680993AF
:1010E0004B6813900D938B68CE680C930B69390095
:1010F00011931368002208930898002308F0F6FC67
:1011000060B9099B5B072FD40820099B0C9D034005
:10111000059363B12023013D337006E080231B0655
:10112000FF182D2333700C9B5D1E01230593089A35
:101130007B005B08E2B9AB4A934219D1149B059A34
:10114000413BB018192B11D8A74909F011FEA74847
:1011500009F040FB099B0200009331000C9B13989F
:1011600007F07DF919B0F0BD2B23DBE79F49ECE7D1
:101170009C4A934202D80ED1089B63B1149B059AF6
:10118000413BB018192B04D8994909F0F1FD994851
:10119000DEE79849F9E7059B05995A1C30237354FB
:1011A000149B413B0E930E995823192900D92033E3
:1011B0000599B3540231AB1E059107930022002319
:1011C0000898390008F0C6FF002800D15FE100232D
:1011D000894C0693029303940D9B1093002B01DA24
:1011E00018231093029B039C0A930B943C0000234A
:1011F000089D129328000A9A0B9B210005F0A4FE7B
:1012000005F0BEFF0A9A0B9B1690179104F038FA6E
:1012100002000B002800210009F0A1FC774B05001B
:101220000C000A980B99002204F02AFA129B0A90EB
:101230000B9101330F930D9B002B06DA0022002344
:101240002800210008F086FF30B9109B129A9342C3
:1012500000DD22E101330F9300220A980B99684BBD
:1012600004F00EFA0A900B9102000B0028002100F6
:1012700008F03CFC002800D011E10A9A0B9B2800E2
:10128000210008F067FF30B11698179908F014FE96
:10129000C30700D403E10A9A0B9B0898390003F0B6
:1012A00073FE169149000A90490818B94D4B9942AE
:1012B00000D143E70025059C10950895119B270058
:1012C000053BA34231D9029A039B0A98169905F06F
:1012D0003BFE05F055FF1490159108F0EDFD03005D
:1012E000002800D0E0E0089A002A00D1DCE00135B7
:1012F000029A039B1498159904F0C2F902000B009E
:101300000A98169909F02BFC00220A9016913B4B83
:101310000298039904F0B4F9089B029003910133F9
:101320000893089A0F9B9342C8D1109BD3B9002D04
:1013300000D1FDE00D9B002B00DCF9E0099BDB07F1
:1013400000D5F5E02E22302133191A702A19B2186F
:10135000597001339A42FBD12C19ED43079B01349C
:10136000EB1807930021119B069A3019013B01707D
:10137000F1548A4202DA524206920131069A002A58
:1013800000D0BFE0119A9A1A013200D1BAE05D1E76
:101390002D2201B9023A0E997255023B50221929A9
:1013A00000D92032F1180A709C4201DA09F0E0FC01
:1013B0000323099A1340022B11D1079B9C1E002C7A
:1013C0000DDD300009F006FA059B984200DBA8E02D
:1013D000F0182200302109F059FB00230C93300053
:1013E000B6E6C0460000F07F34AC040038AC040020
:1013F0003CAC040040AC04000000F03F0000B03FF3
:1014000000002040069B0294039501330693029A44
:10141000039B1000190003F0B7FD04000D0002004B
:101420000B000898390008F061FB0028EAD0029A06
:10143000039B0898390008F059FB002800D1CBE63F
:101440000298039900223E4B04F01AF9002200236F
:1014500008F080FE78B1029803990022394B04F01D
:101460000FF9002202900391364B0898390004F0DE
:1014700007F90F000890324B02980399002204F0FC
:10148000FFF8069B02900391013B0693CFE70023F0
:101490002D4C069002930394B9E70F9BA9E6002315
:1014A00000240A930B94F6E6109A4AB9089A3AB1C6
:1014B0002E22F255079A0134013A07920122109226
:1014C0002A191292302201E03255013412998C42CD
:1014D000FAD11800079A5730571B092B01DC30331B
:1014E00018000E9B192B06D820230343613B192BB0
:1014F00001D809F00CFC129B00255C1CF0547B1EEB
:101500000793F5E60A22069D069F95FBF2F56A43CE
:10151000BA1A3032013BF254079A0695013A079203
:101520002CE7079B325C023BF3181A5401384BE757
:10153000099BDB0600D415E72E233355013411E750
:101540000000E03F000050430000F03FF0B5DE46F1
:1015500057464E464546E0B589B04AF24C6AC2F25B
:10156000000A49F60823C2F200030393D3465B4600
:1015700002229A56002A00D1FDE11B785BB2990045
:101580004AF24C60C2F20000844661444C68013368
:10159000D90F5B18012003405B1A59460B70013AC2
:1015A0008A702100039D280009F0E2FB4AF24060A6
:1015B000C2F20000210008F0CAFC46F68021C0F209
:1015C0000401280007F07AFF05000028CFD004AB03
:1015D0009E1D46F68023C0F204030193B6E1013359
:1015E00033803388F81802782AB12C2AF7D10133D6
:1015F00033800170F5E79046380009F0EBF800B24F
:10160000431E1BB2002806DBFA18180013780D2BB6
:10161000F6D1002313702B78443BDAB2132A00D999
:101620008CE19300C44AD3589F4606A90E2002F0CD
:1016300021FA06AC08AB9946009525005CE046F619
:10164000BC11C0F20401009808F056F900285FD1DF
:1016500046F6CC11C0F20401009808F04DF90028BC
:1016600063D039000120A0470BE046F6C411C0F258
:101670000401009808F040F9002852D039000420F5
:10168000A04746F6E811C0F20401009808F034F9CA
:1016900010B139000820A04746F6F411C0F2040149
:1016A000009808F029F910B139000920A04746F642
:1016B0000021C0F20401009808F01EF910B13900B1
:1016C0000A20A04746F60821C0F20401009808F05D
:1016D00013F910B139000720A04746F61021C0F2D7
:1016E0000401009808F008F910B139000620A0475D
:1016F0000435A94500D121E12C68002CF8D046F62C
:10170000B011C0F20401009808F0F6F8002896D055
:10171000009808F079FD0028A7D039000320A047E1
:10172000AFE739000520A047ABE746F6D411C0F279
:101730000401009808F0E0F8002892D146F6E01184
:10174000C0F20401009808F0D7F8002899D03900B9
:101750000020A04795E706A90C2000F01BF906AB76
:1017600099460523029300240095BA464D4644E06D
:1017700000210124C2F20044AC4601310A00435C5E
:1017800033B3203BDBB21D2BF7D82500DD402B0007
:1017900001251D42F1D0654683185B7820211C008D
:1017A0008C43002C47D02C2B47D0023280180024C9
:1017B00020221900A3001B195B005B18303B1C00A2
:1017C00001780B0093432BB101302C29F2D101E0B9
:1017D0006546002446F62421C0F20401009808F072
:1017E0008BF860B301230293524602992000B84758
:1017F000043508AB9D4200D1A0E02F68002FF7D040
:1018000046F61C21C0F20401009808F075F8002883
:10181000E0D003786BB1203BDBB21D2BA8D80122AE
:10182000C2F20042DA40002101231342A1D000227B
:10183000B2E70024CEE70024CCE70024CAE746F64E
:101840003021C0F20401009808F056F810B1434668
:101850000293C9E746F63C21C0F20401009808F063
:101860004BF810B102230293BEE746F64421C0F2C2
:101870000401009808F040F860B100233380202173
:10188000504609F00DF908F0D4F830800323029394
:10189000B246A9E746F65021C0F20401009808F0CC
:1018A0002BF80028A0D0042302939DE706A90A2064
:1018B00001F058FF06AC08AB9A4603235B42029343
:1018C00000953D0021E029000120B847029046F62E
:1018D0006821C0F20401009808F00EF818B1290040
:1018E0000320B847029046F67421C0F20401009824
:1018F00008F002F818B129000220B8470290029BB4
:1019000003331BD00434A24518D02768002FF9D028
:1019100046F65C21C0F20401009807F0EDFF0028B4
:10192000D5D0280008F085F80028CCD02900002068
:10193000B8470290CBE7C0462091040001990020EF
:1019400007F0BCFD0500002800D110E6280008F0D3
:1019500041FF0128F2D9002333803A21280009F001
:101960009FF8471C20213CE6002300220021002094
:1019700001F062F806E04AF2B773C2F200031B7886
:10198000002BF1D1002009B03CBC90469946A246FC
:10199000AB46F0BD30B58DB004000D000C2800D969
:1019A00016E28300A94AD3589F460020002944D05C
:1019B00045F25013C0F2040345F26410C0F2040073
:1019C0000022002101F038F82A6862B145F268135C
:1019D000C0F2040345F26410C0F204000092002239
:1019E000002101F029F86A6862B145F28013C0F263
:1019F000040345F26410C0F20400009200220021AA
:101A000001F01AF845F29813C0F2040345F264108D
:101A1000C0F204000022002101F00EF840B20CE0F8
:101A200045F25013C0F2040345F26410C0F2040002
:101A30000022002101F000F840B20DB030BD45F2A7
:101A4000AC13C0F2040345F2BC11C0F2040145F22C
:101A50006410C0F204006A7B009204AA00F0ECFF5C
:101A600003000020002BE8D104A807F0E2FFA860E3
:101A70002B78012B2DD0C3B1022B3ED000202A7B26
:101A8000002ADAD00028D8D145F20C23C0F2040392
:101A900045F26410C0F204000192AA68009200228C
:101AA000002100F0C9FF40B2C7E745F2C413C0F2FD
:101AB000040345F26414C0F20404AA7B02926A880B
:101AC0000192009000220021200000F0B5FF40B2FA
:101AD000D5E745F2DC13C0F2040345F26414C0F20A
:101AE00004046A8802926A68019200900022002130
:101AF000200000F0A1FF40B2C1E745F2F413C0F2AC
:101B0000040345F26414C0F204046A8802926A680D
:101B10000192009000220021200000F08DFF40B2D1
:101B2000ADE745F22023C0F2040345F2BC11C0F238
:101B3000040145F26410C0F2040004AA00F07CFF26
:101B400003000020002B00D077E72A00083245F27E
:101B50003021C0F2040104A808F008FF2B78012B03
:101B60002CD0BBB10020022B00D066E745F2F41365
:101B7000C0F2040345F26410C0F204006A880292C5
:101B80006A680192AA6800920022002100F054FFC6
:101B900040B252E745F2C413C0F2040345F26410A8
:101BA000C0F20400AA7B02926A880192AA6800929D
:101BB0000022002100F040FF40B23EE745F2DC1376
:101BC000C0F2040345F26410C0F204006A88029275
:101BD0006A680192AA6800920022002100F02CFF9E
:101BE00040B22AE70A680020002A00D125E745F222
:101BF0003423C0F2040345F26410C0F204000092E2
:101C00000022002100F018FF40B216E745F24423FD
:101C1000C0F2040345F26414C0F204044A7901924C
:101C20000A68009200220021200000F005FF45F222
:101C30005823C0F204032A7901922A6800920022F4
:101C40000021200000F0F8FE40B2F6E6509E0400AD
:101C50000B68002B00D182E045F26C23C0F2040334
:101C600045F26410C0F204000122019200940022A7
:101C7000002100F0E1FE6A686AB145F28023C0F2FB
:101C8000040345F26410C0F20400019200940022A3
:101C9000002100F0D1FEAA686AB145F29423C0F297
:101CA000040345F26410C0F2040001920094002283
:101CB000002100F0C1FEEA686AB145F2A823C0F233
:101CC000040345F26410C0F2040001920094002263
:101CD000002100F0B1FE2A696AB145F2BC23C0F2CE
:101CE000040345F26410C0F2040001920094002243
:101CF000002100F0A1FE6A696AB145F2D023C0F26A
:101D0000040345F26410C0F2040001920094002222
:101D1000002100F091FEAB6993B345F2E423C0F2D9
:101D2000040345F26410C0F2040001220192009401
:101D30000022002100F080FEEB69FBB145F2F823A0
:101D4000C0F2040345F26410C0F20400AA690192D3
:101D500000940022002100F06FFE40B26DE645F2D3
:101D60006C23C0F2040345F26410C0F204000022A8
:101D700001920094002100F05FFE8CE740B25CE627
:101D800045F2E423C0F2040345F26410C0F20400FB
:101D9000002201920094002100F04EFE40B24CE679
:101DA0004AF28C63C2F200035960002045E64AF211
:101DB0008C63C2F20003196000203EE64AF28C6395
:101DC000C2F200031A680A605B684B60002034E6C8
:101DD0000120404231E6C046ACA500201C000000B6
:101DE0000000000050A400203C00000000000000A3
:101DF00090A4002090000000000000001CA600201D
:101E00000C0000000000000080A500202C00000055
:101E100000000000C8A00020000100000000000039
:101E200090A300204000000000000000C8A1002096
:101E30000001000000000000D0A3002040000000CE
:101E40000000000028A6002018000000000000008C
:101E500000A00020C800000000000000D7A600205D
:101E6000010000000000000004A7002001000000A5
:101E7000000000007CA60020080000000000000018
:101E80008CA400200400000000000000B4A6002084
:101E90000400000000000000089A00200003000079
:101EA0000000000008900020000A00000000000070
:101EB00040A600201800000000000000B7A7002086
:101EC000010000000100000001000000B0A7002098
:101ED0000400000001000000FFFF0700AEA7002083
:101EE00001000000010000000100000005A7002023
:101EF000010000000000000084A600201000000087
:101F00000000000020A500203000000000000000BC
:101F1000C09E002040010000000000009EA700209D
:101F200002000000010000000100000094A6002053
:101F30000800000000000000D4A6002003000000FC
:101F40000000000006A700200200000000000000C2
:101F5000A4A600200600000000000000ACA600209F
:101F6000060000000000000058A600200C00000041
:101F7000000000009CA600200800000000000000F7
:101F800008A700200100000000000000D0A60020EB
:101F9000020000000000000009A70020010000006E
:101FA00000000000B8A700200300000001000000AE
:101FB00000010200A8A700200600000001000000A8
:101FC00001008130000200007CA700201800000002
:101FD0000100000000008000000001001400000467
:101FE000A8A700207CA70020ACA60020B4A7002052
:101FF00003000000010000001401000094A700206D
:102000000A000000010000000100040005001405A2
:10201000140100004CA70020200000000100000077
:102020009CA6002094A7002058A60020B4A700205A
:1020300001000300ACA70020B8A70020011906008A
:10204000A0A7002008000000010000006CA70020ED
:102050005CA700206CA70020100000000100000019
:1020600000000000A4A60020ACA60020D4A60020FA
:10207000C8A200207800000000000000089D002099
:10208000B801000000000000DCA5002010000000E6
:102090000000000008800020001000000000000088
:1020A0000AA70020010000000000000064A6002034
:1020B0000C0000000000000010A400204000000000
:1020C00000000000AAA6002002000000000000009E
:1020D000B2A600200200000000000000D2A60020EE
:1020E0000200000000000000D8A60020020000004E
:1020F00000000000B8A6002008000000000000005A
:102100000BA700200200000000000000AFA7002085
:1021100001000000010000000100000030A70020C5
:102120001C0000000100000088760400B87604005E
:10213000C876040000770400B322020010A7002034
:1021400003003C0010A70020200000000100000058
:102150000477040008770400187704002C77040043
:10216000000000008876040000000000000000006D
:10217000ECA500201000000000000000C8A5002011
:102180001400000000000000FCA50020100000006A
:102190000000000050A500203000000000000000FA
:1021A000DAA6002028000000000000000CA6002095
:1021B00010000000000000000DA70020010000003A
:1021C000010000000100000070A600200C000000CB
:1021D0000000000000800020080000000000000057
:1021E00002A700200200000000000000C0A600209E
:1021F000080000000000000040A300205000000084
:1022000000000000C8A60020080000000000000038
:102210000000000000000000F0B58BB00400019148
:102220000292242901D8012903D11622B64B1A6043
:1022300053E0E36BE26C934222D25A1CE2631D78B6
:10224000202DF6D02B00093B042BF2D90222223B91
:102250009343002203925BB92D3D6B425D416B427B
:102260000393E26CE36B93420FD25A1CE2631D7836
:10227000019BE26C73B1102B53D1302D0CD050E088
:10228000200006F051FE0500DAE7200006F04CFEC3
:102290000500EDE7302D42D1E36B934223D25A1C67
:1022A000E2631D7820232B43782B2DD1E36BE26C66
:1022B00093421DD25A1CE2631D781022934B019267
:1022C0005B5D0F2B00D8C4E0E36C002B00D1A6E1CE
:1022D000029AE36B8AB1023BE363002600273000D9
:1022E00039000BB0F0BD200006F01EFE0500D9E756
:1022F000200006F019FE0500DFE7013BE363002143
:10230000200008F073FAE8E7019B002B00D19EE063
:10231000019B0A2B00D09CE0002302931CE00A23BF
:1023200001937A4B01995B5D8B42F1D312B1E36B60
:10233000013BE3630021200008F058FA75E70A2307
:10234000029A5343E26C5D19E36B303D0295934270
:1023500067D25A1CE2631D782B00303B092B03D84F
:102360006B4B029A9A42EAD90027029E2B00303B1F
:102370000293092B33D8674B9F4213D802D1664B87
:102380009E420FD800230A223000390007F0F0F9EE
:10239000029B049300230593049BDB434A1C45D115
:1023A000984243D9594B019A5B5D934217D2E36B34
:1023B000E26C934200D317E15A1CE2631878534B46
:1023C000019A1B5C9342F2D3109E119F22224E4B26
:1023D0001A600123109A134201D000230393E36C87
:1023E00013B1E36B013BE363119BBB4200D90CE1EA
:1023F00003D1109BB34200D907E10123109A134285
:1024000000D0F5E0039B002B00D0F1E02222012652
:102410007642F7173C4B1A60109B119CF6186741E7
:102420005DE7200006F080FD050095E7E36BE26CB8
:10243000049E059F36184F41934203D25A1CE26313
:102440001D7893E7200006F06FFD05008EE7082356
:102450000193019B5E1E33400293002B00D0BBE032
:10246000019A173353432D4A1B065B0FD35C049329
:10247000264B019A5B5D9A4203D9294A02999142FF
:102480002BD9049A01204042C11708F0D3F9002744
:10249000029E089006911D4B5B5D0293029A019B80
:1024A000934200D87EE7069B9F4200D97AE703D18A
:1024B000089B9E4200D975E7049A3000390008F065
:1024C000C5F9029BE26C03431E00E36B0F009342CD
:1024D00015D25A1CE2631D78DDE7029E049A9640ED
:1024E000E26C1E43E36B0296934203D25A1CE263F2
:1024F0001D78BDE7200006F017FD0500B8E72000B5
:1025000006F012FD0500C6E7CCA6002042640400D8
:1025100098999919999999199999999938640400F0
:10252000FFFFFF07029E019A5643F3180293E26CE5
:10253000E36B93424BD25A1CE2631D783B4B019AEA
:102540005B5D9A4203D93A4A02999142EAD900273F
:10255000029E364B5B5D0293029A019B934200D828
:1025600020E7BFB11A0000233000190007F000F97E
:10257000002304913A001900019807F0F9F8049B30
:10258000089300230993089A099B80185941002950
:1025900000D007E73B0032000198002107F0E8F87F
:1025A000029B069300230793069BDB434A1C02D140
:1025B000984200D9F6E6069E079FE36BE26C361858
:1025C0004F4193420BD25A1CE2631D78C1E72000B1
:1025D00006F0AAFC0500B1E700230293AEE7200055
:1025E00006F0A2FC0500B4E7200006F09DFCE6E63C
:1025F000119B9F4203D808D1109B9E4205D9109E83
:10260000119F22220B4B1A6069E6039B013300D015
:1026100065E633003C0000275E42A7415FE6029B6F
:1026200000260027002B00D059E668E6426404002B
:10263000C6711C07CCA600200023F0B505001600CB
:10264000F1B0079108930493079B1B78002B64D08B
:10265000002309930A930B930EAB0C93802307A9D5
:1026600028000D9307F0D4FC0400079B1A780AB1E8
:10267000252A40D1089A141908941A78252A31D1AC
:1026800000245A1C07920B945A782A2A02D102334A
:1026900007930134079807F0CCF901000B9028004C
:1026A00008F0A4F8079B1A78303A092A4BD907A8F2
:1026B00007F0E8FB079B0700187808F021FB672864
:1026C00063DC652800DBC9E0612800D1C6E03DDCA1
:1026D000079B252800D1EDE05B2800D108E1079B8E
:1026E00001330793039B013300D0F4E0049BA3B9AB
:1026F000013B049311E0EB6BEA6C934210D25A1C3D
:10270000EA631B780393079B039A1B7893420ED0CE
:10271000EB6C13B1EB6B013BEB63049871B0F0BD54
:10272000280006F001FC030003900133EBD1089B65
:1027300007A901330893079B28000133079307F08B
:1027400067FC241891E701330793ABE7632800D1B6
:1027500097E06428C3D108AB09AA2EA9280008F085
:102760004BFB002800DA65E1079B01330793002C3F
:1027700000D0B0E03300012239002EA805F0F4FDAE
:10278000041E68DA631CB1D0C7E7702842D00BDCA6
:102790006E2851D030DC6928A1D108AB09AA2EA936
:1027A000280008F029FBDCE7752814D078282AD007
:1027B000732800D093E7802F00D090E7079B013368
:1027C000079300231CB933681A1D32601B680093FD
:1027D000012208AB69E008AB09AA2EA9280007F07E
:1027E000A2FC002800DA25E1079B01330793002CA7
:1027F00071D133002200BFE708AB09AA2EA9280037
:1028000008F0FAFAEDE708AB09AA2EA9280008F0AB
:10281000F3FAE6E708AB09AA2EA9280008F0ECFABB
:10282000002800DA06E1079B01330793002C52D100
:1028300033002200F021A0E7079B01330793089B98
:102840002E93DB172F93002C45D133002200390043
:102850002EA805F089FD049B1B19F4E608AB09AA14
:102860002EA9280008F0C8FA002800DAE2E0079B49
:10287000013307937CBB320039002EA806F08AFD95
:102880007EE7802F00D02AE70B9B05930BB901331D
:102890000B93079B0133079300231CB933681A1D60
:1028A00032601B680022009308AB09A9280008F0D9
:1028B000A5FA65E7802F00D011E701330793EA6C92
:1028C000EB6B934209D25A1CEA631878252808D189
:1028D000089B013308930024BDE7280006F024FB81
:1028E000F4E7EB6C002BF6D0EB6B013BEB63F2E70C
:1028F000802F00D0F3E600271CB93268111D31602B
:1029000017685A1C07925A7800245E2A02D10233B3
:102910000793013440F2011221002EA808F0B6F806
:10292000A821002304AA52181370079B1A782D2A95
:102930001ED1013307930123A93204A91B1B52188E
:10294000137007990B785D2B1CD10024002F40D108
:10295000EB6BEA6C934268D25A1CEA631B780393D0
:10296000039A2EAB9B185C78002C5AD105943FE05B
:102970005D2AE6D101330793012304AA07321B1B0A
:10298000FF32DDE7002BE0D02D2B09D00122079B81
:102990002EA819789B184118101B48700793D0E790
:1029A000089B1B78002BF1D05D2BEFD04B1C0793BD
:1029B000069B1B7848788342E8DA01220133101B1A
:1029C0002EAA9854F6E7039B3B55089B013401332C
:1029D0000893EB6BEA6C059493421DD25A1CEA6390
:1029E0001B780393039A2EAB9B185B78002BEAD1DC
:1029F000EB6C13B1EB6B013BEB63079B013307936C
:102A0000059B002B00D16AE6002F00D167E600236A
:102A1000059A0124BB541EE7280006F085FA0390AE
:102A2000E0E7089B0133089392E7280006F07CFA60
:102A3000039095E70400A5E608B4F0B5C64600B5D6
:102A400085B00C00170002AB0022DA800B9BC3B1EB
:102A50000CAB029349F20865C2F200050B9A40F2F2
:102A60000041280006F07CF906000100280007F06C
:102A7000FEFA32000021280008F008F80FB1002308
:102A80003B704AF2B073C2F200034FF6FF72C0F21D
:102A900007021A601E004AF2B775C2F200053368D9
:102AA000013B5A1C00D166E12A78591E0AB90B0075
:102AB000F7E7336002AB06331B881BB240F2FF32EC
:102AC000934200DCA7E002AB9A1DD98809B2DB88EB
:102AD0001BB249F20860C2F2000084466144023928
:102AE00009786344033B1970118809B213881BB23B
:102AF0006144013909786344023B19701388013B32
:102B00001BB2138002AB06331B881BB249F208626A
:102B1000C2F2000294466344013B1B78232B00D190
:102B20003AE102AB06331B881BB2012BB7DD02ABC7
:102B300006331B881BB26344013B1B780A2BAED1C2
:102B400002AB06331B881BB26344023B1B780D2B80
:102B5000A5D102AB06331B881BB2032B08DD02ABE9
:102B600006331B881BB26344033B1B784B2B68D096
:102B700049F20863C2F200031B78452B00D1CAE07A
:102B80000D2B8CD149F20863C2F200035B782B2B2A
:102B900000D084E702AB06331B881BB249F20862FF
:102BA000C2F200020021D1544AF24063C2F2000393
:102BB0000220185640B31A000023D35699009446B9
:102BC0006144496801910133D90F8C466344012166
:102BD0000B4061465B1A13700138907040F200326E
:102BE0000021019807F052FF49F20861C2F200018A
:102BF00040F20032019808F0C1F84AF24C60C2F28B
:102C00000000019907F0A3F9002F00D1ADE002AB5D
:102C10000022DA8043E702ABD88800B249F20863A9
:102C2000C2F200039C466044012104F08EFE01289C
:102C300000D034E702AB9A1DDB8801331BB213804E
:102C400060E702AB06331B881BB26344043B1B786E
:102C50004F2B8DD102AB991DDB881BB26344013B26
:102C600000221A700B881BB26344023B1A70002FBB
:102C700000D19DE0C4B349F20860C2F20000210017
:102C800006F03AFE0500200007F0A4FD01904AF688
:102C9000EC51C0F20401280006F010FC05000226E9
:102CA00007E04AF6EC51C0F20401002006F006FCF1
:102CB0000500BDB12100280006F01EFE0028F0D05E
:102CC000380007F087FD38184AF6E851C0F20401D1
:102CD000320007F0D1FE6B4699886918380007F07A
:102CE0003AFEDEE7002059E002AB9C1DDB881BB2F8
:102CF00049F20861C2F200018C466344053B0022A0
:102D00001A70228812B2053A380007F0B5FE208802
:102D1000053880B242E049F20863C2F200035B78F2
:102D2000522B00D0BBE649F20863C2F200039B7845
:102D3000522B00D0B3E602AB991DDB881BB249F2DF
:102D40000862C2F2000294466344013B00221A70FA
:102D50000B881BB26344023B1A705FB317493800FB
:102D600008F006F84FF6FF7018E00B9B002B00D020
:102D70004DE7002012E04AF2B073C2F200030122D4
:102D800052421A604FF6FB7000B205B004BC904688
:102D9000F0BC08BC01B018474FF6FE704AF2B073A1
:102DA000C2F200031B680133EED14FF6FB70EBE774
:102DB0000020F3E74FF6FF70F0E7C0460E960020C4
:102DC0000322F0B5AB4B89B09B780392002B14D053
:102DD000A94B1B6804931B6805931B880693A74B9C
:102DE0001B6807930023029303936B461A89069B83
:102DF0009A4205D302229F4B9A70039809B0F0BD06
:102E0000029B07995B00CC5A062302994B43049915
:102E10008968CD180C2302992E784B430499F60645
:102E20004968760FCB180193DB7A042E00D96AE14A
:102E3000300007F05DFE050013004A012B01DD00A4
:102E40000F21019A927A0A40934201D99E1AF6B252
:102E500034416C80029B01330293C6E71C41884ACF
:102E6000A3B26B80AF88934217D9864A9B18320071
:102E70009BB205995B088978402913D0002A13D0AA
:102E8000814A0026974211D181232B700E23039390
:102E90002B785A0625D5012330E0794AD31A9BB204
:102EA0000022E6E7002AEBD0002FEDD0092BEFD966
:102EB0000F24B9043A123811890F224020402740CC
:102EC000002E3AD0CF2B01D9002966D1152B6ED90F
:102ED000002A67D1002291426BD00139C9B20A227F
:102EE00067E05BB2002B0ADB0322059BDB78134013
:102EF000934208D1FF23019A137211232B70BF0450
:102F0000BF0CAF80A6E7022B07D10F22019B5B7A93
:102F10009343019A53720923F0E7012BBBD10F228F
:102F2000019B5B7A1A4050231343019A53720D237D
:102F3000E4E70131CF3BC9B29BB2CF2B01D90329C2
:102F4000F7D1152B0DD90F2A06D10F2203290AD04C
:102F50000131C9B2052206E00132153BD2B29BB263
:102F6000EFE70F2AF1D0022B11D90F280AD10F2A2F
:102F700000D1C9E00132D2B2052003290BD0022BC7
:102F8000DBD826E00130023BC0B29BB2EBE70F2852
:102F9000EDD003291DD10321F1E70139CF3BC9B29F
:102FA0009BB28FE7013A153BD2B29BB28EE7002A63
:102FB00090D0022B0BD9002804D1002A11D1170080
:102FC000100006E00138023BC0B29BB2F1E70028D6
:102FD000F3D009038CB212021443274300010743C4
:102FE0008FE7013AD2B20A20022B00D96AE7F0E754
:102FF0001C41019BA4B21F7A01200023FF2F14D192
:103000007F23019A6C8013722B78012B00D021E76B
:10301000FF33FF339C4273D91A4BE418A4B20A2C35
:1030200000D817E745232B7014E73900D940002654
:10303000014201D11E0008230133DBB2072BF4D972
:103040002100100005F086F8002804D00123B340C9
:103050001F43019B1F720123002E08D0013EF6B2D0
:10306000B340019A127A9A43019B1A72CCE72B70F3
:10307000CAE7C04670A6002000800020048000201F
:10308000FF01000001FEFFFFFF3F00001C41019B0C
:10309000A4B25F7A3E09052E15D02100100005F07C
:1030A00059F800280AD1013601232B700F2336016D
:1030B0001F40019B3E435E726C80A5E7002EF3D05B
:1030C000013EF6B2F2E70426F0E71C410F26019B11
:1030D000A4B25F7A3E4011D02100100005F03AF80A
:1030E000002806D1013EF6B201232B700F239F4327
:1030F000DFE7032EF8D00136F6B2F7E70126F5E751
:10310000044B1C1B8AE7FEE7032900D157E7100098
:1031100035E7C046FF0100000023F0B506001500AA
:10312000B1B00791039307990B78002B00D10AE106
:1031300001235B420C9310AB00240E9380230B946D
:103140000D940F930B5D0BB1252B29D134B12200C7
:10315000300006F09FFD079B1B190793079B1A7809
:10316000252A00D0E4E040F2020C012110270133AF
:1031700004930793079803782B2B1AD025D8202B7C
:103180001AD0232B1DD02A2B28D006F052FC0D90EC
:10319000079B1A78303A092A31D801330793F7E7A9
:1031A0000134CFE70B9B05930B4301300B93079042
:1031B000E0E704230B9A0FE00B9B0593059A082385
:1031C0000AE00B9B05933B43EFE72D2BEAD0302B16
:1031D000D9D162460B9B05931343E6E72B68013078
:1031E0001A1D1B6807902A600D93002B07DA0B9AB3
:1031F0005B420592012205990D934A400B920B9B6D
:10320000DA0702D5022293430B93079B1A782E2AE2
:103210000ED10022581C0C9207905A782A2A27D1E6
:10322000023307932B681A1D1B682A6005930C93C1
:1032300007A806F027FE079B0700187807F060FD37
:10324000692800D182E034DC632800D1D7E01ADCA1
:10325000252800D1E4E0612858D0049B012207937F
:10326000002352420C920B930D9300930232E1E043
:1032700006F0DFFB0C90079B1A78303A092AD7D862
:1032800001330793F7E7642860D06728E5DC2A005C
:10329000390008A806F0CDFF002800D1ABE0079B5D
:1032A0000BA95A1C07921B7808AA3000FDF776FA82
:1032B0003DE0702800D17BE016DC6E2800D193E061
:1032C0006F28CAD12B000022390008A804F027F982
:1032D000002800D18FE0079B08AA01330BA930001A
:1032E000079305F03FFB22E0752840D078284ED0A8
:1032F0007328B2D1802F00D07DE0079B2A6801336C
:103300000793131D2B601268002384E02A00390004
:1033100008A806F08EFF002800D16CE0079B0BA9DF
:103320005A1C07921B7808AA3000FDF7D3FE241818
:10333000039B1C19A34200DC7EE04F223F4B1A6026
:1033400001235B420393039831B0F0BD2B000122AF
:10335000390008A804F0E3F800284CD0079B08AA1D
:1033600001330BA93000079304F098FADFE72B0034
:103370000022390008A804F0D2F8E0B3079B08AA9D
:1033800001330BA93000079305F0F9FDCFE72B00BF
:103390000022390008A804F0C2F860B3079B5A1C49
:1033A00007921B7808AA0BA9300002F003FEBEE7C3
:1033B0002B000022F02108A804F0B1F8D8B1079B37
:1033C000099A01330793089B13435BB91C4807F024
:1033D00001FA02000B9B1A4900930D9B300005F087
:1033E0003EF8A4E77823DDE7039B39001A1908A803
:1033F0002B0005F023FB079B0133079398E7802FF1
:10340000F9D1079B013307932B681A1D1B682A60AB
:1034100008AA137001230BA9300005F0E1FF86E72D
:10342000802FE8D10122079B013307930B9B049364
:1034300000930D9B0349D1E7039474E6CCA60020CA
:10344000CCAD0400D2AD0400F0B585B00093039379
:10345000009B02900C001600150001900F00002B3D
:1034600000D0C9E08A424AD9100006F0F5FB48B105
:103470002023019F1B1ADF40019B8440834085402D
:1034800027430193AAB22B0CB7FBF3F11600944625
:103490001A004A434E43BF1A019A3F04140C2743B3
:1034A0000A00BE4207D97F19013ABD4203D8BE4285
:1034B00001D98A1E7F19BE1BB6FBF3F14B4364464C
:1034C000F61A6B464C439B8836041E430F00B442E9
:1034D00007D97619013FB54203D8B44201D98F1EEE
:1034E00076191204341B3A430A9B23B1C4401C6072
:1034F00000230A994B601000009905B0F0BD02B995
:10350000FFDE100006F0A8FBB8BB0123A41B00934C
:103510002B0CB4FBF3F21F0011005743AEB2714302
:10352000E41B019F24043F0C3C439446A1420AD96A
:10353000012764197F42BC44A54204D8A14202D9A4
:10354000023A94466419641AB4FBF3F77B43E41A15
:103550006B467E439B8824041C433900A64207D94E
:1035600064190139A54203D8A64201D9B91E6419CC
:1035700063461A04A41B0A43B6E7202223000199DC
:10358000121AD3408440D140019A854082402143A1
:103590008C46290CB3FBF1F401920A006243260029
:1035A0009B1A6246AFB27E43120C1B0413432200E7
:1035B0009E4207D95B19013A9D4203D89E4201D928
:1035C000A21E5B199B1BB3FBF1F671435B1A6146AC
:1035D00077438CB21B041C433100A74207D96419FE
:1035E0000139A54203D8A74201D9B11E64191204BA
:1035F0000A43E41B00928BE7009B8B420AD90A9B8B
:10360000002B00D1ABE0029A59601A6000230093AE
:103610001A0070E7039806F01FFBD8B9039BA3427A
:1036200003D3029B02009E420AD8029B01229E1BEA
:10363000039B0196E41A029BB342AD416D42671BA6
:103640000A9B0093002B00D155E7019982C3002308
:10365000009350E720231B1A01933300019A039F24
:10366000D34087401F4323000199D340029A8440EE
:10367000CA4022439446029A390C8240B3FBF1F4CB
:1036800002920A0086406243009626009B1A624618
:10369000BDB26E43120C1B04134322009E4207D995
:1036A000DB19013A9F4203D89E4201D9A21EDB19C1
:1036B0009E1BB6FBF1F4634661436543761A3604FC
:1036C00099B20E432300B54207D9F619013BB74220
:1036D00003D8B54201D9A31EF61912041A436B464A
:1036E0001C88009B711B8C46190C230096B2150C8C
:1036F0006C4373434D4371431E0C091971188C427E
:1037000002D9802464022D190C0C9BB2090465199E
:10371000C918AC4503D30BD1029B8B4208D2009B46
:10372000013ACE1AB14289414942CF193100ED1B0D
:103730000A9B0093002B00D1DDE6029B019C591AE5
:1037400063465D1B029B8B429B415B42ED1A2B0043
:10375000C140A340C54019430A9B22C377E70A9B97
:1037600055E7FEE730B587B00C000A2800D97BE1A9
:103770008000BF4B1B589F4644F6D033C0F2040371
:1037800044F6E030C0F204000A7E009200220021DC
:10379000FFF752F9A07C002852D144F6F433C0F26E
:1037A000040344F6E035C0F20405226800920022CA
:1037B00000212800FFF740F944F60843C0F2040353
:1037C000228A0092002200212800FFF735F944F6F2
:1037D0001843C0F20403626800920022002128000E
:1037E000FFF72AF944F62C43C0F20403A2680092C2
:1037F000002200212800FFF71FF944F64043C0F2E1
:103800000403E2680092002200212800FFF714F967
:1038100044F65443C0F20403628B0092002200215C
:103820002800FFF709F945B2E37C002B00D1A3E0A3
:1038300045F20D31C0F204010920FFF793FF9BE030
:103840006169FEF7A7F844F6E433C0F2040344F6D6
:10385000E030C0F20400A27C009200220021FFF7B9
:10386000EBF89AE70B78E3BB01256D426388002BE8
:1038700051D16368C3B144F6C443C0F2040344F6B3
:10388000E035C0F20405002200212800FFF7D4F83B
:1038900044F6DC43C0F20403626800920022002177
:1038A0002800FFF7C9F845B26369002B64D044F6DD
:1038B000F443C0F2040344F6E035C0F204050022EC
:1038C00000212800FFF7B8F844F60C53C0F20403B7
:1038D00062690092002200212800FFF7ADF845B28E
:1038E0004AE044F66443C0F2040344F6E035C0F213
:1038F0000405002200212800FFF79EF844F67C43CF
:10390000C0F2040322780092002200212800FFF771
:1039100093F845B2AAE744F69443C0F2040344F690
:10392000E035C0F20405002200212800FFF784F8EA
:1039300044F6AC43C0F204036288009200220021E6
:103940002800FFF779F845B293E744F62453C0F214
:10395000040344F6E034C0F20404002200212000F5
:10396000FFF76AF844F63853C0F20403002200213E
:103970002000FFF761F845B2280007B030BD44F6DB
:103980004853C0F2040344F6E030C0F204008A68F1
:1039900003924A6802924A7801920A7800920022C1
:1039A0000021FFF749F845B2E6E744F66853C0F254
:1039B000040344F6E030C0F2040000220021FFF7C7
:1039C0003BF845B2D8E744F62453C0F2040344F66A
:1039D000E030C0F2040000220021FFF72DF845B2CC
:1039E000CAE744F67853C0F2040344F6E030C0F26C
:1039F00004008A6804924A6803928A7802924A789C
:103A000001920A78009200220021FFF715F845B2D2
:103A1000B2E744F69853C0F2040344F6E030C0F233
:103A200004000A7801924A68009200220021FFF700
:103A300003F845B2A0E74AF28463C2F2000359607A
:103A4000002599E74AF28463C2F200031960002559
:103A500092E74AF28463C2F200031A680A605B6864
:103A60004B6001256D4287E701256D4284E7C04622
:103A7000DCA1040030B583B00C00102803D880000E
:103A8000AF4B1B589F460120404256E146F224337B
:103A9000C0F2040346F23030C0F2040000220021DC
:103AA000FEF7CAFF40B248E146F23433C0F20403E5
:103AB00046F23030C0F2040000220021FEF7BCFFC5
:103AC00040B23AE146F24033C0F2040346F23030ED
:103AD000C0F2040000220021FEF7AEFF40B22CE14C
:103AE00046F24C33C0F2040346F23030C0F2040018
:103AF0000A78009200220021FEF79EFF40B21CE1EE
:103B000046F25C33C0F2040346F23030C0F20400E7
:103B1000009100220021FEF78FFF40B20DE146F236
:103B20006C33C0F2040346F23030C0F204000A786D
:103B3000009200220021FEF77FFF40B2FDE00B78EB
:103B4000002B50D00020012B00D0F6E046F2343399
:103B5000C0F2040346F23035C0F204050022002111
:103B60002800FEF769FF46F24033C0F2040300224A
:103B700000212800FEF760FF46F2B433C0F20403D0
:103B800062680092002200212800FEF755FF46F2ED
:103B9000C833C0F20403A26800920022002128006A
:103BA000FEF74AFF46F2DC33C0F20403227B0092A8
:103BB000002200212800FEF73FFF46F24C33C0F2FE
:103BC0000403A27B0092002200212800FEF734FFAC
:103BD00046F2EC33C0F20403002200212800FEF775
:103BE0002BFF40B2A9E046F24033C0F2040346F294
:103BF0003035C0F20405002200212800FEF71CFF2A
:103C000046F23433C0F20403002200212800FEF7FC
:103C100013FF46F27C33C0F2040362680092002274
:103C200000212800FEF708FF46F29033C0F204039B
:103C3000A2680092002200212800FEF7FDFE46F255
:103C4000A433C0F20403227B00920022002128004A
:103C5000FEF7F2FE637B0BB940B26EE046F24033F2
:103C6000C0F2040346F23034C0F204040022002102
:103C70002000FEF7E1FE46F22433C0F204030022E6
:103C800000212000FEF7D8FE40B256E046F2F8339D
:103C9000C0F2040346F23030C0F20400009100226A
:103CA0000021FEF7C9FE40B247E046F20C43C0F2E5
:103CB000040346F23030C0F2040000220021FEF777
:103CC000BBFE40B239E046F21843C0F2040346F2AC
:103CD0003030C0F2040000220021FEF7ADFE40B2F9
:103CE0002BE04AF29463C2F200035960002024E002
:103CF0004AF29463C2F20003196000201DE04AF208
:103D00009463C2F200031A680A605B684B6000208B
:103D100013E000230B7046F22443C0F2040346F282
:103D20003041C0F2040146F23030C0F204002200FB
:103D3000FEF782FE40B200E0002003B030BDC04676
:103D40006096040010B540F60043C4F200239B7D4A
:103D500043B34AF28053C2F200039C6A40F6004328
:103D6000C4F200235B8B9B071DD54AF28053C2F23D
:103D700000032022FF2199540132FD3999544AF25F
:103D80008053C2F2000320229B5C5BB2013300D15E
:103D9000E5E04AF28053C2F2000320229B5C062B2E
:103DA00000D108E110BD40F60043C4F200235B8B54
:103DB000DB070AD54AF28053C2F200032022FF211A
:103DC00099540132FD399954D9E740F60043C4F2C1
:103DD00000235B8B5B070AD54AF28053C2F20003D3
:103DE0002022FF2199540132FE399954C7E74AF243
:103DF0008053C2F2000320229B5C5BB2032B78D07D
:103E0000042B1BD0022BBAD14AF28053C2F200031A
:103E10001B694BB14AF28053C2F20003988880B20A
:103E2000002104F083FCAAE74AF28053C2F20003A7
:103E3000988880B2012104F079FCA0E74AF280530F
:103E4000C2F200039A691B69934218D04AF2805368
:103E5000C2F200039B68995C40F60043C4F2002361
:103E60009962511C40F60042C4F20022D369002B33
:103E7000FCD14AF28053C2F2000399617FE74AF213
:103E80008053C2F200035B69DBB14AF28053C2F295
:103E900000039B885B000122134340F60042C4F2FA
:103EA0000022536240F60042C4F20022D369002B84
:103EB000FCD14AF28053C2F200032022032199541C
:103EC0005DE740F60043C4F200235968C022920225
:103ED0000A435A6040F60042C4F20022D369002B24
:103EE000FCD14AF28053C2F20003202206219954E9
:103EF00045E74AF28053C2F20003D9695B69013B8E
:103F00008B4214D040F60042C4F20022D369002B49
:103F1000FCD140F60043C4F20023986A4AF2805371
:103F2000C2F20003DA6850540131D96127E740F644
:103F30000043C4F200235868E022D20202435A60D0
:103F400040F60042C4F20022D369002BFCD14AF2B1
:103F50008053C2F20003202206209854D2E74AF28E
:103F60008053C2F200030021995440F60043C4F28A
:103F700000235968C02292020A435A6040F6004268
:103F8000C4F20022D369002BFCD140F60043C4F2F6
:103F900000239B221A764AF28053C2F200035B6A26
:103FA000002B00D1FEE64AF28053C2F200035B6AA6
:103FB00020009847F6E64AF28053C2F2000300223E
:103FC00020215A5401315A5440F60043C4F20023D0
:103FD0009B321A7640F60042C4F200220F31538B16
:103FE0000B40102BFBD14AF28053C2F200035B6AF4
:103FF000002B00D1D6E64AF28053C2F200035B6A7E
:1040000020009847CEE6FEE710B54AF25053C2F2C0
:1040100000031A78062A00D952E19300A94AD3581E
:104020009F460321002001F04DFD4AF25053C2F299
:1040300000035860431C06D14AF25053C2F20003F9
:1040400006221A703CE14AF25054C2F200042200E7
:104050000C324AF62B11C0F2040105F038FE0123A0
:1040600023702DE10222B621E02005F003FA30B9D9
:104070004AF25053C2F2000306221A7020E10120D6
:1040800006F062FA0121D02005F00CFB6128EFD187
:10409000603806F059FA0121F02005F003FB0128F1
:1040A000E6D106F051FA02220121722005F0E2F970
:1040B0000028DDD0012006F047FA022225217420D5
:1040C00005F0D8F90028D3D0012006F03DFA4AF2D5
:1040D0005053C2F2000302221A70F1E00221E920DB
:1040E00005F0BEF830B94AF25053C2F2000306227E
:1040F0001A70E5E04AF2FC62C2F200024AF2505342
:10410000C2F20003D97B09029B7B0B43138003217E
:104110008A2005F0A5F8002800D1D1E04AF2FE621D
:10412000C2F200024AF25053C2F20003D87B0002EE
:10413000997B014311804AF20072C2F20002197C9D
:10414000118003221A70BBE013218E2005F088F83D
:1041500030B94AF25053C2F2000306221A70AFE09F
:104160004AF2E862C2F200024AF25053C2F200037D
:10417000D87B0002997B014311804AF2EC62C2F2C3
:104180000002587C0002197C014311804AF2EE6261
:10419000C2F20002997C11804AF2F062C2F200027F
:1041A000587D0002197D014311804AF2F262C2F289
:1041B0000002D87D0002997D014311804AF2F46229
:1041C000C2F20002597E11804AF2F662C2F2000287
:1041D000197E11804AF2F862C2F20002587F000292
:1041E000197F014311804AF2FA62C2F20002D87FBD
:1041F0000002997F014311804AF2EA62C2F2000292
:104200002021595C118004221A7059E00821E12014
:1042100005F026F830B94AF25053C2F200030622E4
:104220001A704DE04AF25053C2F20003987B4AF2F2
:10423000DA62C2F200021C7C24010F2101402143FA
:1042400011804AF2DC61C2F20001DA7B120900013E
:1042500002430A804AF2DE62C2F20002597C1180F7
:104260004AF2E062C2F20002997C11804AF2E262F4
:10427000C2F20002D97C11804AF2E462C2F200026A
:10428000197D11804AF2E662C2F20002597D118066
:1042900005221A70043A5A7312E04AF25053C2F2DD
:1042A000000300225A7305321A704AF21841C0F214
:1042B0000401002003F0EDFD40F2F41006F044F993
:1042C00010BDC04620A70400F0B5D6464F4646466E
:1042D000C0B586B0049005910392029311AB1E788D
:1042E000109B6BB301235B42109A136004F072FEC3
:1042F000050028B3012E0CD0022E0FD0082E0DD0B1
:10430000029BEBB1039BDBB10F9BCBB10E9B4BB977
:1043100016E00F9BA3B10E9B23B911E0029B7BB16A
:10432000039B6BB12F683B01DB1B9B004AF25042A1
:10433000C2F2000290469844404603F04FFF28B96D
:1043400006B01CBC90469946A246F0BD2A681301EF
:104350009B1A9B004AF25041C2F200018C46634412
:104360005C6A1B6A9C46002B00D1F4E02078210097
:104370002C31002370B16446944601339C4200D135
:10438000E9E00A002C3108002C3800780028F4D12C
:1043900014006246012121700021A16229680802EF
:1043A0004FF6FF79494601408C461101891A890070
:1043B0004AF25040C2F2000082468A445146888D3B
:1043C00000046146084340F2FF0C6146194008436F
:1043D000206253469B8D01339BB24B4533D0110174
:1043E0008A1A92004AF25041C2F200018C4662449D
:1043F0009385059B63800E9B63600F9BA360039B6B
:10440000E360029B2361049BA36100232422A35445
:10441000233A227763752675109B226A1A604346F9
:104420009B6A93B13B01DB1B9B004AF25042C2F2F4
:104430000002944663449B6A002B64D09A6A002A67
:104440005DD11A005EE00123C9E743469C623B014F
:10445000DB1B9B004AF25042C2F2000294466344C6
:104460005B696A69934212D0280014303B01DB1B60
:104470009B004AF25042C2F20002914699444B46D8
:10448000DB685B69002198474B466A695A610223E1
:104490002377012E3BD0022E4BD063682269E1685E
:1044A00060883E01F61BB6004AF25045C2F2000594
:1044B000AC466644F668A5680095B668B04710BB80
:1044C00001235B42109A13603B01DB1B9B004AF205
:1044D0005042C2F2000294466344DB681B6998476D
:1044E0002423E054E35C5A4253415A4202231340CE
:1044F000013B6375404606F005FB04E01A00936A31
:10450000002BFBD19462404603F0E6FF18E7608879
:104510003B01DB1B9B004AF25042C2F20002944670
:104520006344DB681B68A268616898470028EAD189
:10453000C6E760883B01DB1B9B004AF25042C2F297
:10454000000294466344DB685B682269E16898472F
:104550000028D8D1B4E7404603F0BEFFF0E6F0B53E
:10456000DE4657464E464546E0B595B04AF264638E
:10457000C2F200031B78012B57D05BB1022B65D030
:10458000042B00D11DE115B03CBC90469946A246D3
:10459000AB46F0BD4AF62921C0F2040100220020FA
:1045A00006F010FA03F0BCFC0FA945F6B023C0F2E8
:1045B00004030A0031CB31C2186810609B889380D5
:1045C000052000F0F5FB47F2ED71C0F204010D206B
:1045D000FFF750FA0BAC00230B930E9345F65412E1
:1045E000C0F204020C9245F65C13C0F204030D9372
:1045F000032323730125657345F66811C0F2040196
:10460000002003F046FC21000320FFF733FA43F2B9
:104610000003C4F2000308229A6138325A614AF258
:104620006463C2F200031D70ADE749F6DF30C0F2EB
:10463000040001236422002104F04BFC4AF264636D
:10464000C2F20003586002221A709CE74AF20B7310
:10465000C2F200031B78022B02D0FCF777FF92E72F
:104660004AF26463C2F200031B7A002BF5D006F015
:104670002BFB002876D106F02EFB00287AD106F01D
:1046800031FB002800D07DE006F033FB002800D08D
:1046900080E0FBF777FD002800D083E04AF2AA63B0
:1046A000C2F2000300229B5E09934AF2B263C2F297
:1046B00000031A8891464AF2D263C2F200031A88B4
:1046C00092464AF2D863C2F200031A8893464AF22D
:1046D000B863C2F20003186805F006F806000F0080
:1046E0004AF2BC63C2F20003186804F0FDFF040044
:1046F0000D0045F68C12C0F2040248F20808C2F21E
:10470000000806940795049605975946029151466C
:10471000019149460091099B41F20001404606F093
:1047200030F945F61021C0F2040104940595029673
:10473000039758460190504600904B46099A002036
:1047400003F0A7FB0FA900230B704B708B7045F68D
:104750007823C0F204034B6043468B600720FFF7C9
:1047600001F87AE703F023FC4AF2AA63C2F20003DD
:10477000188080E706F0EAFA4AF2B263C2F2000358
:1047800018807CE704F0B7F84AF2D263C2F2000363
:10479000188079E703F098FC4AF2D863C2F200036C
:1047A000188076E706F00AF84AF2B863C2F200030E
:1047B000186006F0D1FA4AF2BC63C2F20003186036
:1047C0006CE74AF26463C2F2000303221A7045F6F2
:1047D0008C21C0F20401002003F05BFBD3E6F0B5AE
:1047E00002008DB00B20002A6AD055681168AB78A2
:1047F00001934B7802932B7B002B3ED000242000AA
:104800002B889C46019B5B000393029B5E006746DE
:10481000A3B29F4256D86B7B984200D87BE0CB680E
:1048200002995B181978013119701168536848783A
:10483000C968085C997B88421FD169469D68029BC4
:104840000989E81803780391002B53D0013BDBB2B0
:104850006E466F46B68800213E823E8A0124B446E9
:1048600067468EB2B74247D8002CEDD003700023C4
:10487000180051688978994247D8029B69465B00C5
:104880000A93019B56685B08013306936B469B882D
:104890008B818B890B9300239C4603933388039968
:1048A0008B4244D8029B01990133DBB28B42894190
:1048B000B0680B40C05C71680870002012685370CB
:1048C0000DB0F0BD062363438F68FB185F884B680B
:1048D0009B5B9F420AD9FB1A9BB21F1C834200D2EA
:1048E000071CB8B2039B0134F61890E79F42F9D237
:1048F000DB1BF1E70F23ABE7039FB74203D06E5CEE
:104900009E4200D100240131AAE71168C968C85449
:1049100001339BB2ADE75B088342AED9CB68029905
:104920005B1819780029A8D001391970A5E706236A
:10493000039910684B438168CB1804931B78DB06FE
:104940005B0F40D1614640684900411805910499C8
:10495000059849880A9C09930153019999422ED9D7
:10496000002005995D0049190891040001210DE01E
:104970009F420AD0059D6700ED5B0795089D2F8833
:10498000079DBD4215D10131C9B20134019DE7B285
:10499000BD42EDD8069C8C4204D9844206D9411808
:1049A000A14203DB089B1B880993019B0133DBB207
:1049B000D3E7079DBD42E8D20130C0B2E5E76946C2
:1049C000049B898C5980039B0B9901339BB2039301
:1049D00063468C4663449BB29C465FE7F0B585B066
:1049E000029006F00FF90222704E002433889343A0
:1049F000338006F007F90C23029A6D4D5A432B6859
:104A000001925B689B185B68336200962B685A685A
:104A1000019BD2180123A34052681A4207D01F21DC
:104A2000644B0833E05C0140400904F067FC01344A
:104A3000202CEBD106F0E6F82B68019A5B68012187
:104A40009B589C466246009BDA610022594B083312
:104A500003930B006046934018421BD01F27039B13
:104A6000D45C66092740F0017B081B1852481B18CC
:104A700018780C4200D190E00F242040187050208C
:104A80001C7820431870F6014C4BBF19FF18002307
:104A90003B7039700132202ADBD10622029B444F41
:104AA0005A4339688B689B181A789C88920701D5FD
:104AB00005221A701E7806F0A5F80023F606760F78
:104AC0009E4205D13B68019A5B689B189B7A1B0943
:104AD000384A3B492832D35C0F221A4012040C405A
:104AE00014439B06374A9B0F1B0514401C433B682D
:104AF000019A5B689B181B7AFA2B54D80433240262
:104B00001B06240A07261C4306F07CF82B68019A32
:104B10005B682D499B185B7A009A1B0952683340E9
:104B20000A401B051343009A536006F06BF80320FC
:104B30002B685968019BC9184A7A009B02401B8860
:104B40002248120203401343009A1380CB7A1E407E
:104B500006F058F8009BB6B29C6006F053F8009B34
:104B60009E8106F04FF83022009B9B7B9343009A76
:104B7000937306F047F8009B1A8802231343009AA8
:104B8000138006F03FF8009B1A7C01231343009A20
:104B9000137406F037F805B0F0BD0F24A043187069
:104BA0001C7805206DE7FF231B06ABE700400042A1
:104BB000008000209CA004003030004040300040C5
:104BC000FFFFF0FFFFFFCFFFFFFF8FFFFFFCFFFFA7
:104BD00041542B4D515454433D382C25640D0A004B
:104BE0004F4B000041542B4D515454433D372C251D
:104BF000640D0A0041542B4D515454433D312C2235
:104C00002573220D0A00000041542B4D515454438A
:104C10003D322C25640D0A0041542B4D5154544310
:104C20003D332C222573220D0A00000041542B4DE8
:104C3000515454433D342C222573220D0A000000A8
:104C400041542B4D515454433D352C222573220D94
:104C50000A00000041542B4D515454433D362C253D
:104C6000640D0A0041542B4D51545450524F50542E
:104C700058533D312C310D0A0000000041542B4D9A
:104C800051545450524F5054583D312C25640D0A04
:104C90000000000041542B4D51545450524F505479
:104CA00058533D322C310D0A0000000041542B4D69
:104CB00051545450524F5054583D322C25640D0AD3
:104CC0000000000041542B4D51545450524F505449
:104CD00058533D332C310D0A0000000041542B4D38
:104CE00051545450524F5054583D332C2225732266
:104CF0000D0A000041542B4D51545450524F505402
:104D000058533D31372C310D0A00000041542B4DD2
:104D100051545450524F5054583D31372C25640D46
:104D20000A00000041542B4D515454444953434F01
:104D30004E4E3D300D0A000041542B4D515454430A
:104D40004F4E4E3D310D0A0041542B4D5154544CA1
:104D500057543D25642C25642C222573222C2225B2
:104D600073220D0A0000000041542B4D515454434E
:104D70004F4E4E3D300D0A0041542B4D515454506E
:104D800055423D25642C25642C25642C2225732254
:104D90002C222573220D0A0041542B4D515454539B
:104DA00055423D222573222C25640D0A0000C04681
:104DB00030B5A3B00C000B2800D9E0E08000714BA7
:104DC0001B589F4646F24453C0F2040346F250502B
:104DD000C0F2040002AA0021FDF72EFE40B223B06B
:104DE00030BD46F25453C0F2040346F25050C0F2B4
:104DF000040000220021FDF71FFE40B2EFE7002370
:104E00000B7046F25C53C0F2040346F26851C0F2E4
:104E1000040146F25050C0F204002200FDF70CFEDF
:104E200040B2DCE700230B7046F27053C0F204037B
:104E300046F27C51C0F2040146F25050C0F2040028
:104E40002200FDF7F9FD40B2C9E700230B7046F2DE
:104E50008453C0F2040346F28C51C0F2040146F2BE
:104E60005050C0F204002200FDF7E6FD40B2B6E764
:104E700046F29453C0F2040346F25050C0F20400CC
:104E800000220021FDF7D8FD40B2A8E746F2A0536A
:104E9000C0F2040346F25050C0F204000A680092C7
:104EA00000220021FDF7C8FD40B298E746F2B0535A
:104EB000C0F2040346F25050C0F204000A680092A7
:104EC00000220021FDF7B8FD40B288E746F2C0534A
:104ED000C0F2040346F25050C0F2040000910022D8
:104EE0000021FDF7A9FD40B279E700230B7046F2DF
:104EF000D453C0F2040346F2E451C0F2040146F276
:104F00005050C0F204002200FDF796FD40B266E763
:104F100046F2F053C0F2040346F25055C0F20405C5
:104F20000091002200212800FDF786FD46F2006373
:104F3000C0F204030094002200212800FDF77CFD4C
:104F400046F21463C0F204030094002200212800FA
:104F5000FDF772FD40B242E700230B7046F2246376
:104F6000C0F2040346F23061C0F2040146F2505030
:104F7000C0F204002200FDF75FFD40B22FE70120E0
:104F800040422CE7809F0400F0B40125ED070F009C
:104F90005F405AD48B4200D1824205D950404240F2
:104FA000504059404B4059404E18760DDF187F0D48
:104FB0003BD0741C640529D0F41B352C26D80E0D6B
:104FC000DB022B43DB0AC9022943C9121700202C3C
:104FD0001ED2E741E2405740E3415A40A340E3403C
:104FE0005A400024801859410AD3B21C520521D0DE
:104FF000C207012F624117004008CB071843490838
:10500000013636054208AF4160417141F0BC70473E
:10501000203C06D01F00E741E3405F400024012A06
:105020006741C0186141EBD3DFE7002EEED1294084
:105030000020EBE7013631050020E7E7E742E5D144
:105040000020C143090DC904E0E76B400E00871A38
:105050009E4104D26E40C01BB141D21973414E181B
:10506000DF18AC0AE642E9D2760D7F0D31D0F41B91
:10507000362CCBD8B4460E0DDB022B43DB0AC9021B
:105080002943C90A012C32D804D1D4075208DF07BA
:105090003A435B08EF0A6442904199411ED00022D6
:1050A00039424DD12419404149410124394204D1AA
:1050B0000134001849413942FAD06246A24204D96B
:1050C000361B013E36058919A0E7F10AC907002001
:1050D0009CE736429AD10020002197E70200224344
:1050E00094D0B842DED2010020002024E3D1202C4D
:1050F00013DD203CE2411700A240E2405740E3416B
:105100005A40A340E3405A40012FBF4101371743A3
:1051100000227C42984191410CE01700E741E240B7
:105120005740E3415A40A340E3405A407C429041FB
:10513000994100220F0303D2013E24194041494105
:10514000013E36054708AC4150417141F0BC704703
:1051500041542B4448435053433D302C312C300DA7
:105160000A0000004F4B000041542B4E4554494665
:10517000433D302C34302C222573220D0A000000D0
:1051800041542B4448435053433D302C322C22256C
:1051900073220D0A0000000041542B444843505331
:1051A000433D302C312C310D0A00000041542B536B
:1051B0004F434B4F3D322C25640D0A002B534F4378
:1051C0004B4F3A0041542B534F434B424C3D256CBF
:1051D000752C25642C25640D0A00000041542B53C6
:1051E0004F434B42523D256C752C222573222C25B2
:1051F000640D0A0041542B534F434B424D3D256CE7
:10520000752C25732C25640D0A00000041542B5386
:105210004F434B544C533D256C752C25640D0A00AF
:1052200041542B534F434B4F3D312C340D0A00005A
:10523000256C750041542B534F434B434C3D256C1B
:10524000750D0A0041542B534F434B433D256C755C
:105250002C322C25640D0A0041542B534F434B43F1
:105260003D256C752C312C25640D0A0041542B54BE
:105270004C53433D25642C34302C25640D0A00002A
:1052800041542B544C53433D25642C312C2225731F
:10529000220D0A0041542B544C53433D25642C32BB
:1052A0002C222573220D0A0041542B544C53433DAC
:1052B00025642C332C222573220D0A0041542B54D3
:1052C0004C53433D25642C342C222573220D0A00B7
:1052D00041542B544C53433D25642C352C222573CB
:1052E000220D0A0041542B544C53433D25642C3469
:1052F000312C25640D0A000041542B544C53433D7E
:1053000025642C362C222573220D0A0070B5C6B0F8
:105310000C00012800D1BEE038B1022834D00328A7
:105320001ED00320404246B070BD03AA0023137074
:1053300045F2BC43C0F20403049345F2C041C0F2FD
