:10000000F07F0020FD1E00002B22000003230000D3
:1000100000000000000000000000000000000000E0
:100020000000000000000000000000006B23000042
:1000300000000000000000006B2300006B230000A4
:100040006B2300006B2300002D2200006B230000B7
:100050006B2300006B2300006B230000CB23000008
:100060006B2300006B2300006B230000F91B0000D2
:100070006B2300006B2300006B23000000000000D6
:10008000000000006B2300006B2300006B230000C6
:100090006B2300006B2300006B2300006B23000028
:1000A0006B2300006B2300006B2300006B23000018
:1000B0006B2300006B2300006B2300006B23000008
:1000C0006B2300006B2300006B2300006B230000F8
:1000D0006B2300006B2300006B2300006B230000E8
:1000E0006B2300006B2300006B2300000000000066
:1000F0000000000000000000000000006B23000072
:100100006B2300006B2300006B230000230F000013
:10011000230F0000230F0000230F00006B230000BB
:100120006B2300006B2300006B2300006B23000097
:100130006B2300006B2300006B2300006B23000087
:100140006B2300006B2300006B2300006B23000077
:100150006B2300006B2300006B230000F07F002066
:10016000FD1E00002B220000032300000000000001
:10017000000000000000000000000000000000007F
:1001800000000000000000006B23000000000000E1
:10019000000000006B2300006B2300006B230000B5
:1001A0006B230000F72400006B2300006B2300008A
:1001B0006B2300006B230000F72400006B2300007A
:1001C0006B2300006B230000F72400006B2300006A
:1001D0006B2300006B230000F7240000F7240000CD
:1001E0006B2300006B2300006B2300006B230000D7
:1001F0006B2300006B2300006B2300006B230000C7
:100200006B2300006B2300006B2300006B230000B6
:100210006B2300006B2300006B2300006B230000A6
:100220006B2300006B2300006B2300006B23000096
:100230006B2300006B2300006B2300006B23000086
:100240006B2300006B230000F7240000F72400005C
:10025000F7240000F72400006B2300006B2300004C
:100260006B2300006B230000F7240000F72400003C
:10027000F7240000F72400006B2300006B2300002C
:100280006B2300006B2300006B2300006B23000036
:100290006B2300006B2300006B2300006B23000026
:1002A0006B2300006B2300006B2300006B23000016
:1002B0006B2300006B23000070B5050040F2E613CD
:1002C000C2F200031C78E4B254B92000010002001D
:1002D0000300844670BC02BC864681F300880C474C
:1002E0006422002102F04AF940F2C006C2F2000680
:1002F000300002F001F902003100280002F034F968
:1003000040F2E613C2F2000300221A70DDE740F269
:10031000E013C2F2000301221A7040F2C813C2F2C5
:1003200000031860002001000200030084468EF3E1
:100330000088744740F2DB13C2F200031A78D2B28D
:100340000021197040F2EB13C2F200031B78037016
:1003500010001100130094468EF30088744710B506
:1003600000F020F80020010002000300844610BCC9
:1003700001BC864680F3008804470000F8B5C046FB
:10038000F8BC08BC9E4670475D200000F8B5C0462A
:10039000F8BC08BC9E467047392000006C0800007D
:1003A0000100000070B582B040F2E813C2F2000311
:1003B0001B78002B00D0CDE040F2E413C2F2000322
:1003C0001B78002B46D140F2E213C2F200031B78E7
:1003D000002B5ED140F2DA13C2F200031B78BBB3EC
:1003E00040F2DA13C2F2000300221A7040F2E9135D
:1003F000C2F200031B78002B00D17FE0012B00D15B
:1004000087E0022B00D18FE0032B00D197E0002082
:1004100002F03AF840F2E913C2F200031B789A00A6
:10042000D218920041F65073C0F200039C46624419
:1004300041F23C21C0F2000140F2C000C2F20000D3
:1004400002F072F840F2E613C2F2000301221A70C1
:1004500002B070BD40F2C004C2F200042000383087
:100460002C22002102F08AF841F2E411C0F20001CE
:100470003922200002F078F840F2E413C2F20003BF
:1004800000221A7040F2E613C2F2000301321A7021
:1004900099E740F2E213C2F2000300221A7040F220
:1004A000C004C2F2000464320021200002F066F8A9
:1004B00040F2E913C2F200031B789A00D2189200AE
:1004C00041F65073C0F200039C46624441F2202181
:1004D000C0F20001200002F027F843F20023C4F22A
:1004E000000340F21C1280210903995040F2E613E8
:1004F000C2F200031C3AFF3A1A706BE740F2E913AC
:10050000C2F2000301321A7040F2004001F0CAFF4B
:100510007DE740F2E913C2F2000302221A7040F6AE
:10052000000001F0BFFF72E740F2E913C2F20003DE
:1005300003221A7041F2000001F0B4FF67E740F2B5
:10054000E913C2F2000300221A7040F2002001F009
:10055000A9FF5CE740F2E513C2F200031B78002B11
:1005600000D08FE040F2EC13C2F200031B783BB1E5
:1005700040F2E213C2F200031B78002B00D0A0E08F
:1005800040F2EC13C2F200031B78002B00D146E1CD
:1005900040F2E313C2F200031B78002B00D13EE1CE
:1005A00040F2E313C2F2000300221A7040F2DA13A1
:1005B000C2F200031B78002B00D0A9E040F2D81350
:1005C000C2F200031A7812025878104300B2C01128
:1005D00001F076FF00220023C3F6E07300F0F4FE82
:1005E00001F075FE00B2C4002418052394FBF3F457
:1005F0002034E4B240F2EA15C2F200052C7040F259
:10060000C006C2F2000664220021300001F0B6FFED
:1006100041F29821C0F200012200300001F084FF75
:1006200043F20023C4F2000340F21C1280210903AC
:10063000995040F2DE13C2F20003C53A1A7040F23C
:10064000EC13C2F2000300221A702B7840F2DC1186
:10065000C2F2000140F2EB14C2F2000422780A70E8
:100660004B700222572001F047FD23780133DBB2A3
:10067000042B46D8237040F2E613C2F20003012295
:100680001A70D2E040F2C004C2F2000420003230FE
:100690003222002101F072FF41F26421C0F2000118
:1006A0003322200001F060FF40F2E513C2F20003A4
:1006B00000221A7040F2E613C2F2000301321A70EF
:1006C00050E740F2E213C2F2000300221A7040F237
:1006D000EC13C2F200031A7040F2DE13C2F2000300
:1006E0004F321A7040F2D813C2F2000340F2DF1109
:1006F000C2F200014D3A0092013A4F2001F0BCFCD9
:100700003EE740F2EB13C2F2000300221A70B2E798
:1007100040F2DA13C2F2000300221A70002001F046
:10072000B3FE40F2E913C2F200031B780BB3012BB6
:100730003DD0022B57D0032B9DD140F2E913C2F2DA
:10074000000300221A7040F2C001C2F2000141F21F
:100750002833C0F200030A0013CB13C213CB13C219
:1007600013CB13C21B78137040F2002001F09AFEE5
:1007700081E740F2E913C2F2000301221A7040F24D
:10078000C001C2F2000141F2B023C0F200030A002E
:1007900013CB13C213CB13C213CB13C2198811800E
:1007A0009B78937040F2004001F07CFE63E740F2DA
:1007B000E913C2F2000302221A7040F2C001C2F231
:1007C000000141F2D823C0F200030A0013CB13C288
:1007D00013CB13C213CB13C21B68136040F6000087
:1007E00001F060FE47E740F2E913C2F20003032282
:1007F0001A7040F2C001C2F2000141F20033C0F2AF
:1008000000030A0013CB13C213CB13C213CB13C2C2
:100810001B68136041F2000001F044FE2BE740F238
:10082000E713C2F200031B78BBBB40F2EC13C2F229
:1008300000031B78002B00D10AE640F2E013C2F25D
:1008400000031B78002B00D102E640F2EC12C2F24A
:1008500000020023137040F2E012C2F20002137093
:1008600040F2E112C2F200020121117040F2DE12E8
:10087000C2F200025631117040F2DC11C2F20001E6
:100880000B7040F2C813C2F200031B6806220092EC
:10089000053A572001F0F0FBDAE540F2C004C2F25D
:1008A0000004200040302422002101F067FE41F2C4
:1008B0005031C0F200014122200001F055FE40F20B
:1008C000E613C2F2000301221A7040F2E713C2F2EB
:1008D000000300221A70A8E70023F0B506001500F7
:1008E000B1B00791039307990B78002B00D10AE16F
:1008F00001235B420C9310AB00240E9380230B94D6
:100900000D940F930B5D0BB1252B29D134B122002F
:10091000300001F085FD079B1B190793079B1A7890
:10092000252A00D0E4E040F2020C01211027013317
:1009300004930793079803782B2B1AD025D8202BE4
:100940001AD0232B1DD02A2B28D001F013FC0D9098
:10095000079B1A78303A092A31D801330793F7E711
:100960000134CFE70B9B05930B4301300B930790AA
:10097000E0E704230B9A0FE00B9B0593059A0823ED
:100980000AE00B9B05933B43EFE72D2BEAD0302B7E
:10099000D9D162460B9B05931343E6E72B680130E0
:1009A0001A1D1B6807902A600D93002B07DA0B9A1B
:1009B0005B420592012205990D934A400B920B9BD5
:1009C000DA0702D5022293430B93079B1A782E2A4B
:1009D0000ED10022581C0C9207905A782A2A27D14F
:1009E000023307932B681A1D1B682A6005930C932A
:1009F00007A801F087FC079B0700187801F00AFEA2
:100A0000692800D182E034DC632800D1D7E01ADC09
:100A1000252800D1E4E0612858D0049B01220793E7
:100A2000002352420C920B930D9300930232E1E0AB
:100A300001F0A0FB0C90079B1A78303A092AD7D80E
:100A400001330793F7E7642860D06728E5DC2A00C4
:100A5000390008A801F0CFFC002800D1ABE0079BCB
:100A60000BA95A1C07921B7808AA300001F0E5FD7B
:100A70003DE0702800D17BE016DC6E2800D193E0C9
:100A80006F28CAD12B000022390008A800F09CFE74
:100A9000002800D18FE0079B08AA01330BA9300082
:100AA000079301F0C8FD22E0752840D078284ED089
:100AB0007328B2D1802F00D07DE0079B2A680133D4
:100AC0000793131D2B601268002384E02A0039006D
:100AD00008A801F090FC002800D16CE0079B0BA94E
:100AE0005A1C07921B7808AA300001F0A6FD2418B2
:100AF000039B1C19A34200DC7EE04F223F4B1A608F
:100B000001235B420393039831B0F0BD2B00012217
:100B1000390008A800F058FE00284CD0079B08AA0E
:100B200001330BA93000079300F0A9FEDFE72B008B
:100B30000022390008A800F047FEE0B3079B08AA8E
:100B400001330BA93000079301F075FDCFE72B00AF
:100B50000022390008A800F037FE60B3079B5A1C3A
:100B600007921B7808AA0BA9300001F066FDBEE7CA
:100B70002B000022F02108A800F026FED8B1079B28
:100B8000099A01330793089B13435BB91C4801F092
:100B9000B3FC02000B9B1A4900930D9B300000F040
:100BA000EEFFA4E77823DDE7039B39001A1908A8B4
:100BB0002B0001F041F9079B0133079398E7802F41
:100BC000F9D1079B013307932B681A1D1B682A6014
:100BD00008AA137001230BA9300001F0E1F986E7A0
:100BE000802FE8D10122079B013307930B9B0493CD
:100BF00000930D9B0349D1E7039474E6D4010020D0
:100C00002226000028260000F0B585B0009303934B
:100C1000009B02900C001600150001900F00002BA5
:100C200000D0C9E08A424AD9100001F0C3FA48B1A5
:100C30002023019F1B1ADF40019B84408340854095
:100C400027430193AAB22B0CB7FBF3F1160094468D
:100C50001A004A434E43BF1A019A3F04140C27431B
:100C60000A00BE4207D97F19013ABD4203D8BE42ED
:100C700001D98A1E7F19BE1BB6FBF3F14B436446B4
:100C8000F61A6B464C439B8836041E430F00B44251
:100C900007D97619013FB54203D8B44201D98F1E56
:100CA00076191204341B3A430A9B23B1C4401C60DA
:100CB00000230A994B601000009905B0F0BD02B9FD
:100CC000FFDE100001F076FAB8BB0123A41B0093ED
:100CD0002B0CB4FBF3F21F0011005743AEB271436B
:100CE000E41B019F24043F0C3C439446A1420AD9D3
:100CF000012764197F42BC44A54204D8A14202D90D
:100D0000023A94466419641AB4FBF3F77B43E41A7D
:100D10006B467E439B8824041C433900A64207D9B6
:100D200064190139A54203D8A64201D9B91E641934
:100D300063461A04A41B0A43B6E720222300019944
:100D4000121AD3408440D140019A85408240214309
:100D50008C46290CB3FBF1F401920A006243260091
:100D60009B1A6246AFB27E43120C1B04134322004F
:100D70009E4207D95B19013A9D4203D89E4201D990
:100D8000A21E5B199B1BB3FBF1F671435B1A614614
:100D900077438CB21B041C433100A74207D9641966
:100DA0000139A54203D8A74201D9B11E6419120422
:100DB0000A43E41B00928BE7009B8B420AD90A9BF3
:100DC000002B00D1ABE0029A59601A600023009317
:100DD0001A0070E7039801F0EDF9D8B9039BA3421C
:100DE00003D3029B02009E420AD8029B01229E1B53
:100DF000039B0196E41A029BB342AD416D42671B0F
:100E00000A9B0093002B00D155E7019982C3002370
:100E1000009350E720231B1A01933300019A039F8C
:100E2000D34087401F4323000199D340029A844056
:100E3000CA4022439446029A390C8240B3FBF1F433
:100E400002920A0086406243009626009B1A624680
:100E5000BDB26E43120C1B04134322009E4207D9FD
:100E6000DB19013A9F4203D89E4201D9A21EDB1929
:100E70009E1BB6FBF1F4634661436543761A360464
:100E800099B20E432300B54207D9F619013BB74288
:100E900003D8B54201D9A31EF61912041A436B46B2
:100EA0001C88009B711B8C46190C230096B2150CF4
:100EB0006C4373434D4371431E0C091971188C42E6
:100EC00002D9802464022D190C0C9BB20904651907
:100ED000C918AC4503D30BD1029B8B4208D2009BAF
:100EE000013ACE1AB14289414942CF193100ED1B76
:100EF0000A9B0093002B00D1DDE6029B019C591A4E
:100F000063465D1B029B8B429B415B42ED1A2B00AB
:100F1000C140A340C54019430A9B22C377E70A9BFF
:100F200055E710B541F60003C4F200239B7D43B39F
:100F300040F27413C2F200039C6A41F60003C4F24B
:100F400000235B8B9B071DD540F27413C2F2000394
:100F50002022FF2199540132FD39995440F2741333
:100F6000C2F2000320229B5C5BB2013300D1E5E0BA
:100F700040F27413C2F2000320229B5C062B00D1C6
:100F800008E110BD41F60003C4F200235B8BDB07D0
:100F90000AD540F27413C2F200032022FF219954B3
:100FA0000132FD399954D9E741F60003C4F2002318
:100FB0005B8B5B070AD540F27413C2F20003202258
:100FC000FF2199540132FE399954C7E740F2741356
:100FD000C2F2000320229B5C5BB2032B78D0042B6F
:100FE0001BD0022BBAD140F27413C2F200031B696A
:100FF0004BB140F27413C2F20003988880B2002112
:1010000000F070FEAAE740F27413C2F20003988861
:1010100080B2012100F066FEA0E740F27413C2F234
:1010200000039A691B69934218D040F27413C2F20C
:1010300000039B68995C41F60003C4F200239962A7
:10104000511C41F60002C4F20022D369002BFCD1EE
:1010500040F27413C2F2000399617FE740F2741307
:10106000C2F200035B69DBB140F27413C2F2000309
:101070009B885B000122134341F60002C4F2002268
:10108000536241F60002C4F20022D369002BFCD166
:1010900040F27413C2F200032022032199545DE749
:1010A00041F60003C4F200235968C02292020A43A9
:1010B0005A6041F60002C4F20022D369002BFCD131
:1010C00040F27413C2F2000320220621995445E72E
:1010D00040F27413C2F20003D9695B69013B8B4291
:1010E00014D041F60002C4F20022D369002BFCD1D7
:1010F00041F60003C4F20023986A40F27413C2F26E
:101100000003DA6850540131D96127E741F6000342
:10111000C4F200235868E022D20202435A6041F62A
:101120000002C4F20022D369002BFCD140F27413F8
:10113000C2F20003202206209854D2E740F2741332
:10114000C2F200030021995441F60003C4F20023C7
:101150005968C02292020A435A6041F60002C4F262
:101160000022D369002BFCD141F60003C4F2002316
:101170009B221A7640F27413C2F200035B6A002BC2
:1011800000D1FEE640F27413C2F200035B6A200055
:101190009847F6E640F27413C2F2000300222021C1
:1011A0005A5401315A5441F60003C4F200239B32D1
:1011B0001A7641F60002C4F200220F31538B0B4025
:1011C000102BFBD140F27413C2F200035B6A002BB8
:1011D00000D1D6E640F27413C2F200035B6A20002D
:1011E0009847CEE62A2A2A2A2A2A2A2A2A2A2A2A74
:1011F0002A205072696E74696E6720546F67676C3D
:10120000696E67204C45442072617465202A2A2A41
:101210002A2A2A2A2A2A2A2A2A2A0D0A0000000013
:10122000546F67676C696E67204C45442061742079
:1012300025732072617465200D0A00004C4544201E
:10124000546F67676C696E6720726174652069739B
:10125000206368616E67656420746F2025730D0AD2
:10126000000000002A2A2A2A2A2A2A2A2A2A2A2A86
:101270002A205072696E74696E672054656D7065BE
:10128000726174757265202A2A2A2A2A2A2A2A2A31
:101290002A2A2A2A0D0A000054656D70657261744D
:1012A000757265203D202530326420460D0A00000D
:1012B00053616D706C696E672054656D7065726105
:1012C0007475726520657665727920312073656367
:1012D0006F6E64200D0A000053616D706C696E675B
:1012E0002054656D706572617475726520657665F0
:1012F00072792032207365636F6E6473200D0A006B
:1013000053616D706C696E672054656D70657261B4
:101310007475726520657665727920342073656313
:101320006F6E6473200D0A0053616D706C696E6797
:101330002054656D7065726174757265206576659F
:10134000727920353030206D73200D0A00000000C6
:101350004572726F722E2120436F6E6E656374202A
:10136000494F312058706C61696E65642050726F0E
:1013700020626F61726420616E64205265737461D3
:10138000727420746865206465766963652E0D0A41
:101390000000C04606D128B9F54203D800D30AB9E7
:1013A0006D0D09D10020C143090DC904F0BDF9D16B
:1013B0001242F7D1640DF5D00020C1434905490818
:1013C000A6E000206146F0BDF0B50127FF070E0042
:1013D0005E403E40B446BE0A4C18DD18F442D9D2F5
:1013E000F542E4D2640DECD06D0DEAD06419C90267
:1013F0003943460DC0023143DB023B43DB0A10B4E4
:101400008E4685B297B26F43140C6C433E0CA41900
:10141000260C2404BFB227439CB26C43A419190CB8
:101420006943250CA4B249190D04090C6419000C78
:1014300095B245433E0C76193743BFB2360C150CB6
:101440004543AD19A6B2240CAD192E0437432E0C1A
:1014500036199DB24543AD19ACB22E0C89191D0C3D
:1014600045436D182E04290C3443704680B295B262
:1014700045433E0C76193743BFB2360C150C454335
:10148000AD19A6B2AD19240C2E0437432E0C361913
:101490009DB24543AD19ACB22E0C89191D0C4543C4
:1014A0006D182E043443290C75462D0C90B26843F8
:1014B0003E0C80190604BFB23E43070CA0B23F1891
:1014C000120C6A43D019020C80B2240CA4189AB2F0
:1014D0006A43121914042043120C89181B0C6B4325
:1014E000C91810BC01273D05294203D1B619404156
:1014F0004941013CFF077D0D013D641B0BDB6D0085
:10150000AC4209DA240500254208BE416841614128
:1015100066463143F0BD54E74EE741F20003C4F2A2
:1015200000030220187641F20041C4F200010022BB
:101530000A7441F60001C4F2000108621A8641F201
:101540000002C4F200028021490413690B42FCD05E
:1015500046F22003C0F280031B685B009B0E9B02D7
:1015600040F200221343D200C4F20002536341F25E
:101570000002C4F200028021490413690B42FCD02E
:1015800041F20003C4F2000302221A86D202C4F21E
:1015900000028021490413690B42FCD041F600434C
:1015A000C4F2000340F20712C0F201021A6241F6CF
:1015B0000042C4F20002042153681942FCD141F6F2
:1015C0000043C4F2000390224021995041F60042AA
:1015D000C4F20002902013581942FCD041F6004397
:1015E000C4F20003D0224021995041F60042C4F2D7
:1015F0000002D02013581942FCD041F60043C4F237
:101600000003D8224021995041F60042C4F2000262
:10161000D82013581942FCD070477047F0B5BFF37B
:101620005F8F62B64EF20013CEF2000340F2003438
:101630001A5933480240C02109040A431A510422AE
:101640001A6040F204355A591202120AC0242406C4
:1016500022435A5180221A6004355A591202120A42
:1016600022435A5140F600071F6040F280229E58E4
:1016700048F200052E439E509D589D5880267602C4
:101680002E439E509A5840F284229D583D439D50CF
:101690009D589D5841F2000635439D509D589D58D8
:1016A000760035439D509D589D58760035439D509A
:1016B0009A5840F230355A591202120A14435C51BA
:1016C000802212035A6040F234329C58FF25AC430A
:1016D0003F3D2C439C50802464035C609C58094D22
:1016E0002C404CF200052C439C508024A4035C60E9
:1016F0009C582040014399508022D2035A60F0BD8B
:10170000FFFF00FFFF00FFFFA00100201C00000002
:101710000000000000000020C000000000000000E9
:10172000BC0100200C00000000000000740100203B
:101730002C00000000000000DA0100200100000081
:1017400000000000C80100200400000000000000AC
:10175000DB0100200400000000000000D801002090
:101760000200000000000000DF0100200C0000006B
:1017700000000000C0000020640000000000000025
:10178000EB0100200100000000000000EC0100203F
:10179000010000000100000001000000CC01002059
:1017A00004000000000000002401002050000000A0
:1017B00000000000D0010020080000000000000030
:1017C000000000000000000010B588293AD014DCA9
:1017D00081294AD003DC802947D0002010BD82290E
:1017E00010D08429F9D119682AB30A1D1A60002281
:1017F0008B5E0360DB17436010E0A0292ED00FDC66
:101800009029EAD1196807246AB30919A1430A008B
:1018100008321A600B684C68036044600120DDE701
:10182000C02901D0F029D8D11A68111D1960136898
:1018300003600023DFE70C1D1C600B689BB2036094
:101840004260EBE7196822B10A1D1A600023CB56EB
:10185000CFE70C1D1C600B68DBB2F0E71A68111DA6
:1018600019601368C5E70731D0E719681AB10A1D76
:101870001A600B68BDE70C1D1C600B68DFE7F0B554
:101880004B6889B005930B6807009C460793CB68AB
:101890000C008E6810685168CD0F0493002D41D064
:1018A0000B000200002150429941059B002B07DBF1
:1018B000022263469343079315B9079B5A0728D51D
:1018C000731E07AA02920A22009301920B000200E3
:1018D000200000F041FA15B9079B5A071DD50138C1
:1018E0002D2305B9023B049A135423695A1E049B05
:1018F000121A1918079B38000093330000F03FF9C3
:101900007B68DB0503D56368984200DA180009B0EC
:10191000F0BD1B07DB0FF31AD3E71B07E5D5013832
:101920002023E0E7059B002BC2DAC6E710B542F69C
:101930000023C4F200031A7801210A431A7042F608
:101940000022C4F20002012153681942FCD142F680
:101950000021C4F2000190231B03CB610B6241F212
:1019600010030B6140F20003C2F2000310221A724E
:101970001A7520201A540C301A540C3004241C54AC
:101980000C301A540C301A540C301A540C301A54AF
:101990000C301A540C301A540C301A540C300834D1
:1019A0001C540C301A540C301A540C301A540B7846
:1019B000022213430B7042F60022C4F200020221FD
:1019C00053681942FCD110BD10B582B08023DB02F0
:1019D0001C68002000F061FC41F66F40C0F200007E
:1019E000002100F009FE42F2B750C0F200000021D1
:1019F00000F0FBFD42F20761C0F2000100220C2062
:101A000000F030FC42F23711C0F200010022042045
:101A100000F028FC40F2C000C2F2000041F2E411E4
:101A2000C0F20001392200F09FFD40F2E613C2F23D
:101A3000000301221A7000F007FD631C0FD084F32D
:101A400088880423C0F204031B680193019C640886
:101A50006400200021002200230000F06DFCFEF74E
:101A6000A1FCFCE741F60003C4F2002301221A6046
:101A700041F60002C4F20022D369002BFCD141F6EA
:101A80000003C4F2002340F200125A6041F6000243
:101A9000C4F20022D369002BFCD141F60003C4F24A
:101AA0000023E822DA60D23AC0F210021A6041F64E
:101AB0000002C4F20022D369002BFCD141F60003DE
:101AC000C4F2002310225A8341F60002C4F200221D
:101AD000D369002BFCD140F27413C2F20003002240
:101AE00021215A5401395A5441F60003C4F200230B
:101AF0009B329A75704710B543F20023C4F200037D
:101B00000022DA660021CCF2300190201950052124
:101B10004430195401301954093019540130195402
:101B2000253822241C54053011341C542D30C02477
:101B3000A4031C500020C0F6080040F20014185105
:101B40000020C0F618001034185140F253101A54F7
:101B5000013019545731FF315A5401315438FF388C
:101B6000585423395A5401315A5403315A540131CB
:101B70005A546D32FF3280210905995010BDF0B5DD
:101B80001D00012389B014000E9A06001A4003912B
:101B900002920AB9A5420AD822000399300000F047
:101BA0003FFCA54203D82500280009B0F0BD2F1B3B
:101BB00001973A00102F00D91022202104A800F02C
:101BC000DDFC019B0F2B0ED80F2204A93A403000F8
:101BD00000F026FC029B002BE6D122000399300086
:101BE00000F01EFCE0E7102204A9300000F018FC11
:101BF000019B103B0193E4E7F0B5C64600B508240D
:101C000042F60025C4F20005012604E06F616B690D
:101C10000134102C28D063001B199B0040F20001F6
:101C2000C2F200018C4663441B7ADBB2E1B28B4204
:101C3000EED16B693700A7401F42E9D040F20001A6
:101C4000C2F2000163001B199B005B58002BDDD022
:101C50008C46630019198900614448681B199B0070
:101C600062469B589847D1E704BC9046F0BD10B53A
:101C700000F0B3FC30BB40F2DE13C2F200031B786D
:101C80004F2B12D040F2E113C2F200031B7893B144
:101C900040F2E113C2F2000300221A7040F2DB139B
:101CA000C2F2000301321A7005E040F2E313C2F2FF
:101CB000000301221A7040F2EC13C2F20003012269
:101CC0001A7010BD00F089FC012806D140F2E7131C
:101CD000C2F2000301221A70F3E700F07EFC022832
:101CE000EFD1F3E710B540F27413C2F20003002203
:101CF0009A61DA6141F60003C4F200239B321A763E
:101D00005A68144C22405A6041F60002C4F2002284
:101D1000D369002BFCD1A9B140F27413C2F20003C5
:101D2000202203249C544000084341F60003C4F2DF
:101D30000023586241F60002C4F20022D369002B4E
:101D4000FCD110BD40F27413C2F20003202204241F
:101D50009C54E8E7FFFFFBFFF7B5040019000A9F5A
:101D6000E368666800933B68100001932369013BB8
:101D70001C00002E00DA01260022009DEA543500E6
:101D80000123002C02DCE3B12000FEBD02000A4367
:101D90004AB9002D07DC089A921B5219002AF2DD7D
:101DA000019A9207EFD5099B099ADB1700F084F995
:101DB0008C460099013C130030320A55013D6146C2
:101DC000DFE710233A689A433A60DDE742F20043C6
:101DD000C4F2000301221A8042F20042C4F200025F
:101DE000012113691942FCD142F20043C4F20003FD
:101DF000104A1A8042F20042C4F2000248F2000186
:101E000013691942FCD142F20043C4F2000340F2CC
:101E100000221A6242F20042C4F200022021136939
:101E20001942FCD142F20043C4F2000340F2001216
:101E30005A8170478081FFFF10B584291FD007DCCD
:101E4000812915D0822922D0802911D0002010BDEF
:101E500090291CD008DC8829F8D119680C1D1C6059
:101E60000B6803601A7010E0A02901D0C029EDD1E1
:101E700019680C1D1C600B6803601A6005E0196886
:101E80000C1D1C600B6803601A800120DFE71968D5
:101E90000C1D1C600B6803601A60D2175A60F4E7CF
:101EA00000230E4A10B513600D4A0E4C13600E4A03
:101EB00013600E4A13600E4A13600E4A5362136198
:101EC0000133936000F0BBFB00F0B9FB0A4B9C426E
:101ED00000D310BD08CC9847F8E7C046D0010020D9
:101EE00030010020880300002C0100202401002084
:101EF00028010020340100208C03000010B542F2BC
:101F0000B313C0F20003984742F2B313C0F20003C8
:101F1000984700F02BFA40F20003C0F200037F2242
:101F200093434EF60052CEF20002936041F6A16355
:101F3000C0F20003984742F2B313C0F2000398477F
:101F400042F2B313C0F200039847FFF73DFDFEE7EE
:101F5000353030206D696C6C695365636F6E6473E6
:101F60000000000031205365636F6E6400000000C4
:101F7000000000000000000032205365636F6E64B3
:101F800073000000000000000000000034205365D2
:101F9000636F6E647300000000000000000000002A
:101FA000F0B50F00150087B0039007220E4904A872
:101FB0001C0000F0D9FABB687E6802933F6805B93F
:101FC00004AD1CB9280000F097FA0400002E02DBD3
:101FD000B44200D934000097029B220029000398E4
:101FE000FFF7CDFD07B0F0BD2A26000030B5150083
:101FF000012289B0524201920432FF32029200B9AA
:10200000684603900491002401B14C1E05940029F8
:1020100006DA4F220120074B40421A6009B030BD5A
:1020200000220790027006901A00290001A800F013
:102030006FFAF3E7D401002010B5054C227832B9CD
:10204000044B13B1044800E000BF0123237010BD0E
:10205000A00100200000000000000000034B10B5AC
:102060001BB10349034800E000BF10BD00000000A1
:10207000A40100200000000070B5050040F27414B7
:10208000C2F200042020245C002004B170BD40F2A4
:102090007414C2F20004A580E360049B6361A16034
:1020A00022610023A37023702122A3540021280061
:1020B000FFF718FE0120E9E7002B11D1002A0FD10C
:1020C000002900D1002802D00021C943081C07B410
:1020D000024802A14018029003BDC04665050000F9
:1020E00003B4684601B50298FEF78EFD019B9E463B
:1020F00002B00CBC7047C04670B5050040F27413C6
:10210000C2F2000320201B5C002003B170BD40F22E
:102110007413C2F200039D800024DC605C6199604E
:102120001A619C701C7021229C5400212800FFF72A
:10213000D9FD0120EAE740F2E813C2F200031B7860
:102140005BB940F2E813C2F2000301221A7040F2B8
:10215000E513C2F200031A70704740F2E813C2F2AE
:10216000000300221A7040F2E413C2F200030132AD
:102170001A70F1E7030010B51A78202A0DD011006B
:102180000939042909D900212B2A02D02D2A01D18D
:102190000131013300200A2404E00133ECE76043FD
:1021A0000133801A1A78303A092AF8D901B9404225
:1021B00010BD70471C2101231B04984201D3000C61
:1021C00010391B0A984201D3000A08391B099842AA
:1021D00001D30009043902A2105C40187047C046C0
:1021E00004030202010101010000000000000000E0
:1021F00040F20043C4F2000300221A819A790121BF
:102200000A439A719B7803221340022B0CD040F2B0
:102210000043C4F20003013A9A705202C4F2000271
:10222000012193790B42FCD07047FEE710B542F2D2
:102230000042C4F20002918989B240F2BC13C2F29A
:10224000000359600649918192891B683BB140F2B5
:10225000BC13C2F20003586899681B68984710BD08
:10226000FFC1FFFF30B543001B189B0040F2000484
:10227000C2F20004A44663441B7ADBB2834200D05E
:1022800030BD40F20004C2F2000443001D18AD004E
:102290002951280060444260F2E710B5FFF7A8FF1B
:1022A00045F20003C4F2001304225A60FFF723FC36
:1022B000FFF733F900F076F9FFF7AFF9FFF7D2FB3C
:1022C000FFF734FBFFF782FDFFF7A8F910BDF446D6
:1022D0004A1805D200F064F801D5C01740086047DD
:1022E00001235B05D34206D200F05AF801D5012044
:1022F000C0074042604701D10042F5D0D0174008E6
:102300007047FEE770B5040000200A4B4200D55C20
:1023100015B9D218507870BD216801300E78C0B25E
:10232000AE4204D1034B0131D218507821600A2803
:10233000EBD9F0E73E250000E0B545464E4657464E
:10234000E0B45D4620B4254626462746A046A14671
:10235000A246A346A44684F30088A44720BCAB460B
:10236000E0BCBA46B146A846E0BDFEE710B5094854
:10237000016811B9436803B910BD04008368064AB7
:102380009BB20C349B009B58426820009847800009
:102390002018EDE708170000542500004A0010D26D
:1023A000520D03231B02FF33D21A0AD452421F32AA
:1023B00009D4400DC90208430123DB071843D0406C
:1023C000704700207047D017704710B542F60023C1
:1023D000C4F2000310225A615B6940F20003C2F2AA
:1023E00000031B6B33B140F20003C2F20003586BD1
:1023F0001B6B984710BD002380290FDB812901DD6D
:1024000083290BD10721136807338B431900083147
:1024100011601A685B68026043600123180070470E
:1024200070B505690400954200D915005DB12A0018
:10243000606900F099F8226963695B19551B0022F5
:10244000636125611A7070BD42F20043C4F200035B
:102450001A8802210A431A8042F20042C4F20002A2
:10246000022113691942FCD17047002310B5934231
:1024700006D103201840421E90419B08C01810BD91
:10248000C45CCC540133F2E742F20043C4F20003CF
:10249000986142F20042C4F2000208211369194215
:1024A000FCD1704742F20043C4F20003186242F2CA
:1024B0000042C4F20002202113691942FCD1704786
:1024C00042F2DD43C0F20003004206D5404200B5AF
:1024D000984708BC0122D2071143184740F21D4219
:1024E000010007D002D4013A0018FCD51205C30A36
:1024F000400599187047FEE7037833B103000133B4
:102500001A78002AFBD1181A70470020FCE7C04651
:1025100013B50400019201AAFEF7DEF96368DB0639
:1025200001D50120404216BD0EB403B503AA02CA6C
:10253000019200F02DF802B008BC03B018476807FC
:102540006C094C836A9074A07AC00080688800840B
:102550006C820081C92500006B2400003326000036
:10256000332600003326000010B52AB10023CC5CCE
:10257000C45401339342FAD110BDC04632B10300B6
:10258000C9B28218197001339342FBD17047C0461B
:1025900010B513000A000249FFF728FD10BDC04620
:1025A000FFFFFF7F45F20003C4F2001306225A60CA
:1025B000053A1A727047C30505D540F2E213C2F21C
:1025C000000301221A7070478A18914201D100203D
:1025D000704700230B700131F7E740F27413C2F229
:1025E00000032122985CC0B2704740F2BC13C2F2D3
:1025F000000318609960704740F27413C2F2000340
:1026000058629962704740F2DA13C2F20003012265
:102610001A7070470300413B192B01D8202318433F
:102620007047286E696C29002500286E756C6C292E
:0126300000A9
:1026320000207047002070470020704770477047A5
:02264200C04690
:020000040003F7
:10FE00007FE97FE9C0F7ABBA7FE97FE9C0F792BA33
:10FE10007FE97FE9C0F750BA7FE97FE9C0F777BA99
:020000040004F6
:10000000F0FF00207D120400F70E04005F130400CF
:1000100000000000000000000000000000000000E0
:10002000000000000000000000000000B116040005
:100030000000000000000000B1160400B11604002A
:1000400000000000000000000000000000000000B0
:1000500000000000000000000000000000000000A0
:100060000000000000000000000000000000000090
:10007000000000000000000000000000690E040005
:10008000490D040000000000000000000000000016
:100090000000000000000000000000000000000060
:1000A0000000000000000000000000000000000050
:1000B0000000000000000000000000000000000040
:1000C0000000000000000000000000000000000030
:1000D0000000000000000000000000000000000020
:1000E000000000000000000000000000BD1104003E
:1000F000BD110400BD110400BD110400000000008A
:1001000000000000000000000000000000000000EF
:1001100000000000000000000000000000000000DF
:1001200000000000000000000000000000000000CF
:1001300000000000000000000000000000000000BF
:1001400000000000000000000000000000000000AF
:10015000000000000000000000000000F8B5C046EC
:10016000F8BC08BC9E46704785130400F8B5C0462D
:10017000F8BC08BC9E4670476113040038030000B9
:10018000010000000023F0B506001500B1B0079192
:10019000039307990B78002B00D10AE101235B42FE
:1001A0000C9310AB00240E9380230B940D940F93AB
:1001B0000B5D0BB1252B29D134B12200300001F0A9
:1001C000B0F9079B1B190793079B1A78252A00D0C3
:1001D000E4E040F2020C012110270133049307935D
:1001E000079803782B2B1AD025D8202B1AD0232B35
:1001F0001DD02A2B28D001F0F3F80D90079B1A7818
:10020000303A092A31D801330793F7E70134CFE7B1
:100210000B9B05930B4301300B930790E0E70423FE
:100220000B9A0FE00B9B0593059A08230AE00B9BA2
:1002300005933B43EFE72D2BEAD0302BD9D1624613
:100240000B9B05931343E6E72B6801301A1D1B68CF
:1002500007902A600D93002B07DA0B9A5B420592F8
:10026000012205990D934A400B920B9BDA0702D5A8
:10027000022293430B93079B1A782E2A0ED1002259
:10028000581C0C9207905A782A2A27D102330793D8
:100290002B681A1D1B682A6005930C9307A801F0B0
:1002A000F9F8079B0700187801F0EDF9692800D1EB
:1002B00082E034DC632800D1D7E01ADC252800D1A5
:1002C000E4E0612858D0049B0122079300235242A6
:1002D0000C920B930D9300930232E1E001F080F851
:1002E0000C90079B1A78303A092AD7D80133079324
:1002F000F7E7642860D06728E5DC2A00390008A801
:1003000001F0FAF8002800D1ABE0079B0BA95A1CBA
:1003100007921B7808AA300001F0C4F93DE070286C
:1003200000D17BE016DC6E2800D193E06F28CAD1A3
:100330002B000022390008A800F0B0FB002800D1F3
:100340008FE0079B08AA01330BA93000079301F047
:10035000A7F922E0752840D078284ED07328B2D172
:10036000802F00D07DE0079B2A6801330793131D7F
:100370002B601268002384E02A00390008A801F0ED
:10038000BBF8002800D16CE0079B0BA95A1C079210
:100390001B7808AA300001F085F92418039B1C196A
:1003A000A34200DC7EE04F223F4B1A6001235B42F8
:1003B0000393039831B0F0BD2B000122390008A847
:1003C00000F06CFB00284CD0079B08AA01330BA956
:1003D0003000079300F0BDFBDFE72B00002239005F
:1003E00008A800F05BFBE0B3079B08AA01330BA948
:1003F0003000079301F054F9CFE72B0000223900B9
:1004000008A800F04BFB60B3079B5A1C07921B78AF
:1004100008AA0BA9300001F045F9BEE72B00002225
:10042000F02108A800F03AFBD8B1079B099A0133E4
:100430000793089B13435BB91C4801F095F8020031
:100440000B9B1A4900930D9B300000F0D4FDA4E7EC
:100450007823DDE7039B39001A1908A82B0000F068
:1004600079FE079B0133079398E7802FF9D1079B0B
:10047000013307932B681A1D1B682A6008AA1370A2
:1004800001230BA9300001F00FF986E7802FE8D196
:100490000122079B013307930B9B049300930D9B51
:1004A0000349D1E7039474E6708100209416040098
:1004B0009A160400F0B585B000930393009B029058
:1004C0000C001600150001900F00002B00D0C9E0B1
:1004D0008A424AD9100000F0A3FF48B12023019FAF
:1004E0001B1ADF40019B84408340854027430193D2
:1004F000AAB22B0CB7FBF3F1160094461A004A433C
:100500004E43BF1A019A3F04140C27430A00BE420F
:1005100007D97F19013ABD4203D8BE4201D98A1ECC
:100520007F19BE1BB6FBF3F14B436446F61A6B46CC
:100530004C439B8836041E430F00B44207D97619FA
:10054000013FB54203D8B44201D98F1E7619120477
:10055000341B3A430A9B23B1C4401C6000230A9910
:100560004B601000009905B0F0BD02B9FFDE10002D
:1005700000F056FFB8BB0123A41B00932B0CB4FB67
:10058000F3F21F0011005743AEB27143E41B019F09
:1005900024043F0C3C439446A1420AD90127641924
:1005A0007F42BC44A54204D8A14202D9023A9446F3
:1005B0006419641AB4FBF3F77B43E41A6B467E4379
:1005C0009B8824041C433900A64207D964190139C9
:1005D000A54203D8A64201D9B91E641963461A047C
:1005E000A41B0A43B6E7202223000199121AD34024
:1005F0008440D140019A8540824021438C46290C99
:10060000B3FBF1F401920A00624326009B1A624692
:10061000AFB27E43120C1B04134322009E4207D943
:100620005B19013A9D4203D89E4201D9A21E5B1973
:100630009B1BB3FBF1F671435B1A614677438CB2A7
:100640001B041C433100A74207D964190139A54294
:1006500003D8A74201D9B11E641912040A43E41B4E
:1006600000928BE7009B8B420AD90A9B002B00D19A
:10067000ABE0029A59601A60002300931A0070E7F9
:10068000039800F0CDFED8B9039BA34203D3029B8D
:1006900002009E420AD8029B01229E1B039B0196E8
:1006A000E41A029BB342AD416D42671B0A9B009363
:1006B000002B00D155E7019982C30023009350E736
:1006C00020231B1A01933300019A039FD3408740D4
:1006D0001F4323000199D340029A8440CA40224319
:1006E0009446029A390C8240B3FBF1F402920A005C
:1006F00086406243009626009B1A6246BDB26E4356
:10070000120C1B04134322009E4207D9DB19013A45
:100710009F4203D89E4201D9A21EDB199E1BB6FB45
:10072000F1F4634661436543761A360499B20E4389
:100730002300B54207D9F619013BB74203D8B542A9
:1007400001D9A31EF61912041A436B461C88009B9C
:10075000711B8C46190C230096B2150C6C43734325
:100760004D4371431E0C091971188C4202D9802423
:1007700064022D190C0C9BB209046519C918AC450B
:1007800003D30BD1029B8B4208D2009B013ACE1AB5
:10079000B14289414942CF193100ED1B0A9B0093B8
:1007A000002B00D1DDE6029B019C591A63465D1BBC
:1007B000029B8B429B415B42ED1A2B00C140A34040
:1007C000C54019430A9B22C377E70A9B55E7F0B55A
:1007D000040148F20815C2F20005AC466444267BC9
:1007E000F6B246F20004C4F200143F27E55DEDB214
:1007F000E0550F37E45DA40702D10024002E5CD140
:1008000046F20004C4F200144E260327A755060141
:1008100048F20814C2F200043419023F277348F268
:10082000E804C2F20004345B64054ED5C9183400F4
:1008300048F2E806C2F20006B4466444616048F239
:10084000E801C2F200010401615A090546D5D21837
:10085000210048F2E804C2F20004A44661448A6020
:1008600048F2E802C2F2000201018A5A9205920F90
:10087000D3409BB248F2E802C2F2000294466144BF
:100880004B8046F20002C4F200124021535C022465
:1008900023435354516C536C9B049B0E08220A4013
:1008A000134301244BB946F20002C4F2001211694D
:1008B000012383400B431361012446F20003C4F279
:1008C00000133F229D542000F0BD040148F2E806C9
:1008D000C2F20006B44664446160B0E7010148F228
:1008E000E804C2F20004A44661448A60B8E7F8B59F
:1008F000002000F0C0FE41F2D951C0F204010022F4
:10090000002000F05FFE41F2ED51C0F20401002230
:10091000012000F057FE48F27412C2F2000241F2C8
:100920002801C4F2002101230120FFF750FF48F203
:100930000004C2F2000441F22805C4F2002548F286
:100940006A17C2F2000748F27516C2F2000614E0F8
:10095000200000F009FE03002A0021000020FFF71C
:1009600036FF0FE000233B7048F26410C2F2000033
:10097000FFF752FA09E0FFF743FA2000FFF748FAC1
:100980000028E5D13B78002BECD148F27510C2F27B
:100990000000FFF739FA0028EDD000233B703178D2
:1009A00048F26410C2F2000000F013F848F274122A
:1009B000C2F20002012329000120FFF708FF43F2E1
:1009C0000003C4F2000340F21C1280210905995073
:1009D000D1E7F8B5CE46474680B58146884648F20D
:1009E0000002C2F2000241F20063C0F2040303CB32
:1009F00003C24346042B4FD84E464644454607247F
:100A000041F20867C0F204070022B25648F2000320
:100A1000C2F20003E018390000F0BEFD2418E4B271
:100A20000135EDB20136052DEED14346C3B14D4639
:100A30004F460137013BDBB2FF1841F20866C0F2B6
:100A400004060022AA5648F20003C2F20003E0188E
:100A5000310000F0A1FD2418E4B20135BD42F0D10F
:100A600048F20005C2F20005601941F21061C0F2BF
:100A70000401032200F0D8FD280000F075FD0300FA
:100A800041F22802C4F2002229000020FFF79FFE55
:100A90000CBC90469946F8BD0724C6E710B58829D6
:100AA0003AD014DC81294AD003DC802947D00020C9
:100AB00010BD822910D08429F9D119682AB30A1DE2
:100AC0001A6000228B5E0360DB17436010E0A029F0
:100AD0002ED00FDC9029EAD1196807246AB30919CE
:100AE000A1430A0008321A600B684C680360446036
:100AF0000120DDE7C02901D0F029D8D11A68111DE5
:100B00001960136803600023DFE70C1D1C600B688D
:100B10009BB203604260EBE7196822B10A1D1A60BC
:100B20000023CB56CFE70C1D1C600B68DBB2F0E74F
:100B30001A68111D19601368C5E70731D0E71968F5
:100B40001AB10A1D1A600B68BDE70C1D1C600B680A
:100B5000DFE7F0B54B6889B005930B6807009C464A
:100B60000793CB680C008E6810685168CD0F049312
:100B7000002D41D00B000200002150429941059BFD
:100B8000002B07DB022263469343079315B9079BAB
:100B90005A0728D5731E07AA02920A2200930192CF
:100BA0000B000200200000F063FA15B9079B5A07FA
:100BB0001DD501382D2305B9023B049A135423692E
:100BC0005A1E049B121A1918079B38000093330011
:100BD00000F011FA7B68DB0503D56368984200DA00
:100BE000180009B0F0BD1B07DB0FF31AD3E71B0792
:100BF000E5D501382023E0E7059B002BC2DAC6E7E4
:100C000070B548F2B403C2F200031B7D002B4AD03A
:100C100048F2B402C2F200029368516841F2000245
:100C2000C4F20022127ED2071FD599421DD941F28B
:100C30000001C4F20021072648F2B400C2F200000D
:100C4000012509E00268D25C8A62013344680A7EA9
:100C50002A420AD09C4208D94A683240012AF1D17E
:100C600002685C00A25A8A62EFE748F2B402C2F25C
:100C70000002936052689A4215D848F2B403C2F257
:100C8000000300221A755A6041F20002C4F20022E9
:100C900001211175DB6833B148F2B403C2F20003DD
:100CA0001869DB68984770BD10B548F2B403C2F20A
:100CB00000032C229B5C33B348F2B403C2F200035E
:100CC000DA691B6A93421ED248F2B403C2F20003EF
:100CD000986A41F20002C4F20022916A1B6A5468C9
:100CE00007222240012A0FD048F2B402C2F20002C9
:100CF0009269D154013348F2B402C2F20002136285
:100D0000D2699A4208D010BD48F2B402C2F2000281
:100D100092695C00A152EDE748F2B403C2F200030D
:100D200000222C215A54DA6141F20002C4F200225E
:100D3000583111755B6A002BE5D048F2B403C2F25A
:100D400000035B6A9847DEE710B582B00023019389
:100D500046F20003C4F200133F229C5CE4B201217E
:100D600099540F329B5CDBB20193019B02209B07DD
:100D70000CD546F20003C4F200130131995448F235
:100D80000813C2F2000300221A770138019BDB0727
:100D90000DD546F20003C4F200134E2201219954EE
:100DA00048F20813C2F2000300221A77022048F228
:100DB0000813C2F200035B6933B148F20813C2F2B0
:100DC000000399695B69984746F20003C4F2001377
:100DD0003F229C5402B010BD70B54EF20013CEF20B
:100DE000000340F20C315A581202120AC0242406A1
:100DF00022435A5048F200021A6040F210329858CA
:100E0000FF26B043C02528439850802252021A6022
:100E10001C315A581202120A22435A5040F600025C
:100E20005A6040F22C329958B1432943995041F20B
:100E30000001596099580A4801404CF200000143F2
:100E4000995042F200015960995806480840C02163
:100E500009040143995044F200025A6070BDC04633
:100E6000FF00FFFFFFFF00FF10B582B000210191DE
:100E700046F20003C4F200133F229C5CE4B2995492
:100E80000F329B5CDBB20193019B02209B070CD5C8
:100E900046F20003C4F200130231995448F20813D9
:100EA000C2F2000300221A730138019BDB070DD543
:100EB00046F20003C4F200134E220121995448F275
:100EC0000813C2F2000300221A73022048F208132A
:100ED000C2F200035B6833B148F20813C2F20003A8
:100EE00099685B68984746F20003C4F200133F22FA
:100EF0009C5402B010BDFEE7488100201C00000099
:100F000000000000E88000206000000000000000F9
:100F1000B480002030000000000000006481002048
:100F200007000000000000006B81002001000000AD
:100F300000000000008000206400000000000000AD
:100F4000748100200200000000000000E480002006
:100F50000400000000000000648000205000000039
:100F6000000000006C81002008000000000000006C
:100F7000000000000000000070B548F20813C2F243
:100F8000000300211970596099601973197459612F
:100F90009961197748F2E800C2F2000046F20002B7
:100FA000C4F20012506348F22814C2F200049463A1
:100FB00048F28114C8F2811454613F26915540F6DD
:100FC0000031C0F28001516440F2094101800121E9
:100FD00019704D2403251555915540F60026C0F291
:100FE0008006566440F6090606821974155540F6C7
:100FF0000273138070BDF0B51D00012389B0140089
:101000000E9A06001A40039102920AB9A5420AD824
:1010100022000399300000F084FAA54203D825008D
:10102000280009B0F0BD2F1B01973A00102F00D9FE
:101030001022202104A800F00BFB019B0F2B0ED8DF
:101040000F2204A93A40300000F06BFA029B002BFB
:10105000E6D122000399300000F063FAE0E71022A5
:1010600004A9300000F05DFA019B103B0193E4E716
:10107000F7B5040019000A9FE368666800933B68AF
:10108000100001932369013B1C00002E00DA0126A9
:101090000022009DEA5435000123002C02DCE3B15C
:1010A0002000FEBD02000A434AB9002D07DC089A61
:1010B000921B5219002AF2DD019A9207EFD5099B83
:1010C000099ADB1700F06CF98C460099013C13007B
:1010D00030320A55013D6146DFE710233A689A43F2
:1010E0003A60DDE741F20003C4F2002340F204124B
:1010F000C4F210021A60164A9A81C02292025A6003
:1011000041F20002C4F20022D369002BFCD141F26B
:101110000003C4F200231A6802210A431A6041F254
:101120000002C4F20022D369002BFCD148F2B403C0
:10113000C2F2000300229A61DA611A622C215A5429
:101140005A621A605A609A601A75DA60DA857047D6
:101150002BF6FFFF10B584291FD007DC812915D09D
:10116000822922D0802911D0002010BD90291CD0C6
:1011700008DC8829F8D119680C1D1C600B68036015
:101180001A7010E0A02901D0C029EDD119680C1DFA
:101190001C600B6803601A6005E019680C1D1C6078
:1011A0000B6803601A800120DFE719680C1D1C60C2
:1011B0000B6803601A60D2175A60F4E710B541F269
:1011C0000003C4F200239B7D1BB341F20002C4F272
:1011D0000022137EDBB2927D52B2002A1ADB41F26A
:1011E0000003C4F200231A7ED2B29B7DDB0703D535
:1011F000D30701D5FFF704FD41F20003C4F2002339
:101200001A7ED2B29B7D5B0703D5530701D5FFF74A
:101210004BFD10BD5BB2002BE1DA00F07FF8DEE79A
:1012200000230E4A10B513600D4A0E4C13600E4A8F
:1012300013600E4A13600E4A13600E4A5362136124
:101240000133936000F035FA00F033FA0A4B9C4208
:1012500000D310BD08CC9847F8E7C0466C81002049
:1012600070800020680104006C80002064800020F1
:1012700068800020748000206C01040010B541F2E9
:101280001F43C0F20403984741F21F43C0F2040316
:10129000984700F019F940F20003C0F204037F22DE
:1012A00093434EF60052CEF20002936041F22123A6
:1012B000C0F20403984741F21F43C0F20403984769
:1012C00041F21F43C0F204039847FFF710FBFEE70B
:1012D00030B51500012289B0524201920432FF322A
:1012E000029200B9684603900491002401B14C1E9B
:1012F0000594002906DA4F220120074B40421A606C
:1013000009B030BD00220790027006901A00290033
:1013100001A800F035F9F3E77081002010B541F223
:101320000003C4F200235B8B0722134003B910BDF6
:1013300048F2B404C2F20004E38500F08FF841F2F1
:101340000003C4F2002384221A752C230022E254E5
:10135000636A002BEBD0A06A636A9847E7E7FEE771
:1013600010B5054C227832B9044B13B1044800E0A3
:1013700000BF0123237010BD488100200000000041
:1013800000000000034B10B51BB10349034800E007
:1013900000BF10BD000000004C81002000000000D4
:1013A000002B11D1002A0FD1002900D1002802D032
:1013B0000021C943081C07B4024802A1401802904A
:1013C00003BDC046E902000003B4684601B50298B7
:1013D000FFF770F8019B9E4602B00CBC7047C046F8
:1013E000030010B51A78202A0DD0110009390429FC
:1013F00009D900212B2A02D02D2A01D10131013334
:1014000000200A2404E00133ECE760430133801A32
:101410001A78303A092AF8D901B9404210BD70470C
:101420001C2101231B04984201D3000C10391B0A14
:10143000984201D3000A08391B09984201D30009D8
:10144000043902A2105C40187047C046040302022F
:1014500001010101000000000000000041F2000352
:10146000C4F200235B8B5B0713D041F20003C4F28C
:10147000002380221A76793A5A831B7E5B0708D5AF
:1014800041F20003C4F2002304219A6A1A7E0A4240
:10149000FBD1704770B5040000200A4B4200D55CB8
:1014A00015B9D218507870BD216801300E78C0B2DD
:1014B000AE4204D1034B0131D218507821600A2882
:1014C000EBD9F0E7AE15040010B50948016811B971
:1014D000436803B910BD04008368064A9BB20C340C
:1014E0009B009B5842682000984780002018EDE739
:1014F000F80E040014160400002380290FDB812954
:1015000001DD83290BD10721136807338B431900B1
:10151000083111601A685B6802604360012318009B
:10152000704770B505690400954200D915005DB19A
:101530002A00606900F078F8226963695B19551B1D
:101540000022636125611A7070BD002310B59342BB
:1015500006D103201840421E90419B08C01810BDC0
:10156000C45CCC540133F2E7037833B10300013398
:101570001A78002AFBD1181A70470020FCE7C046F1
:1015800013B50400019201AAFEF7FCFD6368DB06B7
:1015900001D50120404216BD0EB403B503AA02CA0C
:1015A000019200F04BF802B008BC03B0184768077E
:1015B0006C094C836A9074A07AC0008068880084AB
:1015C0006C820081000148F20813C2F200039C46BD
:1015D0006044416082607047012800D0704748F243
:1015E0006B13C2F2000301221A70F7E7012800D042
:1015F000704748F26A13C2F2000301221A70F7E73B
:10160000454550524F4D3A002564467C000000008D
:101610000D0A0000651604004B1504009D16040019
:101620009D1604009D16040010B52AB10023CC5C61
:10163000C45401339342FAD110BDC04610B5130013
:101640000A000249FFF744FE10BDC046FFFFFF7FBE
:1016500032B10300C9B28218197001339342FBD131
:101660007047C0468A18914201D10020704700237C
:101670000B700131F7E710B5FFF734FDFFF77CFC85
:10168000FFF7AAFB10BD0300413B192B01D8202313
:1016900018437047286E696C2900250000207047A8
:1016A0000020704700207047002070477047C046F8
:0416B000FEE770479A
:0200000400807A
:1040000077438FB0BBF0FFFF008430F000FFFFFF6D
:10401000000000000A000000100000000000000086
:04402000B67376E815
:0CC00000FFFF07F00000E8FFCC9A34C0FE
:10C01000FFFFFFFFFFFFFFFFFFFFFFFFFFFFFFFF30
:10C02000FFFFFFFFFFFFFFFFFFFFFFFFFFFFFFFF20
:10C03000FFFFFFFFFFFFFFFFFFFFFFFFFFFFFFFF10
:10C04000FFFFFFFFFFFFFFFFFFFFFFFFFFFFFFFF00
:10C05000FFFFFFFFFFFFFFFFFFFFFFFFFFFFFFFFF0
:10C06000FFFFFFFFFFFFFFFFFFFFFFFFFFFFFFFFE0
:10C07000FFFFFFFFFFFFFFFFFFFFFFFFFFFFFFFFD0
:10C08000FFFFFFFFFFFFFFFFFFFFFFFFFFFFFFFFC0
:10C0E000FFFFFFFFFFFFFFFFFFFFFFFFFFFFFFFF60
:10C0F000FFFFFFFFFFFFFFFFFFFFFFFFFFFFFFFF50
:00000001FF
