:10000000F07F00208D060000CF080000D10800001E
:1000100000000000000000000000000000000000E0
:10002000000000000000000000000000CD080000FB
:100030000000000000000000CD080000CD08000016
:10004000CD080000CD080000CD080000CD0800005C
:10005000CD08000000000000CD080000CD08000021
:10006000CD080000CD080000CD080000CD0800003C
:10007000CD080000CD080000CD080000CD0800002C
:10008000CD080000CD080000CD080000CD0800001C
:10009000CD080000CD080000CD080000CD0800000C
:1000A000CD080000CD080000CD080000CD080000FC
:1000B000CD080000CD080000CD08000000000000C1
:1000C0000000000000000000000000000000000030
:1000D0000000000000000000000000000000000020
:1000E0000000000000000000000000000000000010
:1000F000000000000000000000000000CD0800002B
:10010000CD080000CD080000CD080000CD0800009B
:10011000CD080000CD080000CD0800000000000060
:10012000CD080000CD080000CD080000CD0800007B
:10013000CD080000CD080000CD080000CD0800006B
:10014000CD080000CD080000CD080000CD0800005B
:10015000CD080000CD080000CD080000F07F002091
:100160008D060000CF080000D1080000000000004C
:10017000000000000000000000000000000000007F
:100180000000000000000000CD080000000000009A
:1001900000000000CD080000CD080000CD080000E0
:1001A000CD080000CD080000CD080000CD080000FB
:1001B000D5080000CD080000CD080000CD080000E3
:1001C000CD080000CD080000CD080000CD080000DB
:1001D000CD080000CD080000CD080000CD080000CB
:1001E000CD080000CD080000CD080000CD080000BB
:1001F000CD080000CD080000CD080000CD080000AB
:10020000CD080000CD080000CD080000CD0800009A
:10021000CD080000CD080000D5080000D50800007A
:10022000D5080000D5080000D5080000D50800005A
:10023000D5080000D5080000D5080000D50800004A
:10024000D5080000D5080000D5080000D50800003A
:10025000D5080000D5080000CD080000CD0800003A
:10026000CD080000CD080000CD080000CD0800003A
:10027000CD080000CD080000D5080000CD08000022
:10028000CD080000CD080000CD080000CD0800001A
:10029000CD080000CD080000CD080000CD0800000A
:1002A000CD080000CD080000CD080000CD080000FA
:1002B000CD080000CD080000401801000200030036
:1002C00084468EF300887447F8B5C046F8BC08BC75
:1002D0009E46704755070000F8B5C046F8BC08BCFC
:1002E0009E4670473107000041F20003C4F200034C
:1002F0000220187641F20041C4F2000100220A7483
:1003000041F60001C4F2000108621A8641F20002BF
:10031000C4F200028021490413690B42FCD046F26A
:100320002003C0F280031B685B009B0E9B0240F21F
:1003300000221343D200C4F20002536341F20002D0
:10034000C4F200028021490413690B42FCD041F23F
:100350000003C4F2000302221A86D202C4F2000291
:100360008021490413690B42FCD041F60043C4F2DA
:10037000000340F20712C0F201021A6241F6004285
:10038000C4F20002042153681942FCD141F6004333
:10039000C4F2000390224021995041F60042C4F279
:1003A0000002902013581942FCD041F60043C4F2D9
:1003B0000003C4224021995041F60042C4F20002D9
:1003C000C42013581942FCD041F60043C4F2000384
:1003D000C8224021995041F60042C4F20002C820D0
:1003E00013581942FCD041F60043C4F20003CC225A
:1003F0004021995041F60042C4F20002CC2013582B
:100400001942FCD041F60043C4F20003D02240213F
:10041000995041F60042C4F20002D020135819420C
:10042000FCD041F60043C4F20003DC224021995085
:1004300041F60042C4F20002DC2013581942FCD0FD
:10044000704710B5BFF35F8F62B64EF20013CEF265
:10045000000340F280229958202421439950995852
:10046000985880210906014399509A5840F28422F5
:1004700099580120014399509958985802210843EE
:10048000985099589858042108439850995898586A
:1004900008210843985099589858102108439850BB
:1004A0009958995821439950995899584020014397
:1004B00099509958995840300143995099589958F2
:1004C0004000014399509958995840000143995070
:1004D000995899584000014399509958985880214B
:1004E0000904014399509B5810BD30B543F20023D5
:1004F000C4F2000348F28842C0F210021A6048F2C7
:100500000842C0F290021A61002243215A54423933
:10051000442019540130195402301A54013019542E
:100520000130195401301A54013019540330022497
:100530001C5401301A54013019540130195403303D
:100540001A54033003341C5426381A5402302D3404
:1005500018551A5402341855013430251D550234EB
:100560001A5501340E3D1D5502341A5501341A55E1
:100570004CF6B872C0F29302DA66C822995401327E
:100580009954153A9854383240F20031995030BDA0
:1005900010B542F60023C4F200031A7801210A4381
:1005A0001A7042F60022C4F2000201215368194277
:1005B000FCD142F60021C4F2000140F60013CB61E9
:1005C00000230B62042008634B63086140F20003C0
:1005D000C2F2000310221A721A7520241A550C3424
:1005E0001A550C341A550C341A550C341A550C344F
:1005F0001A550C341A550C341A550C341A550C343F
:100600001A550C341A550C341A550C341A550C342E
:100610001A5508640B78022213430B7042F600222D
:10062000C4F20002022153681942FCD110BD704788
:1006300000230E4A10B513600D4A0E4C13600E4A8B
:1006400013600E4A13600E4A13600E4A5362136120
:100650000133936000F040F900F03EF90A4B9C42F0
:1006600000D310BD08CC9847F8E7C0463001002001
:10067000CC000020D4020000C8000020C0000020F0
:10068000C4000020D0000020D802000010B540F6C1
:10069000D303C0F20003984740F6D303C0F200032F
:1006A000984700F09DF840F20003C0F200037F225B
:1006B00093434EF60052CEF20002936040F2316353
:1006C000C0F20003984740F6D303C0F200039847F6
:1006D00040F6D303C0F20003984700F066F8FEE747
:1006E000100100201C00000000000000000000209D
:1006F000C0000000000000002C01002004000000E9
:1007000000000000C00000205000000000000000B9
:100710003001002004000000000000000000000084
:100720000000000066666666666666666666666601
:1007300010B5054C227832B9044B13B1044800E0DF
:1007400000BF0123237010BD100100200000000035
:1007500000000000034B10B51BB10349034800E043
:1007600000BF10BD000000001401002000000000C8
:1007700040F20043C4F2000300221A819A79012159
:100780000A439A719B7803221340022B0CD040F24B
:100790000043C4F20003013A9A705202C4F200020C
:1007A000012193790B42FCD0704710B582B08023B1
:1007B000DB021C68002000F046F8631C0FD084F3B5
:1007C00088880423C0F204031B680193019C640819
:1007D0006400200021002200230000F01BF8FEE747
:1007E00010B50A48016821B9436813B900F073F8DD
:1007F00010BD04008368064A9BB20C349B009B58D2
:1008000042682000984780002018EBE7E0060000CF
:1008100090080000E0B545464E465746E0B45D46B8
:1008200020B4254626462746A046A146A246A34612
:10083000A44684F30088A44720BCAB46E0BCBA467B
:10084000B146A846E0BD10B5FFF792FF45F20003A0
:10085000C4F2001304225A60FFF747FEFFF744FD7D
:1008600000F020F8FFF7E3FEFFF792FEFFF7E9FD47
:1008700010BD002310B5934206D103201840421E3C
:1008800090419B08C01810BDC45CCC540133F2E702
:10089000B708000073080000C9080000C90800007C
:1008A000C908000045F20003C4F2001306225A6092
:1008B000053A1A7270478A18914201D10020704798
:1008C00000230B700131F7E700207047FEE7FEE7D9
:0A08D000FEE77047FEE7704770472F
:020000040003F7
:08E620007FE97FE9C1F748BE64
:020000040004F6
:10000000F0FF0020196B04005B61040053690400D9
:1000100000000000000000000000000000000000E0
:10002000000000000000000000000000BB520400BF
:100030000000000000000000BB520400AD75040089
:1000400000000000000000000000000000000000B0
:1000500000000000AD760400000000000000000079
:100060000000000000000000000000000000000090
:100070000000000000000000000000000000000080
:100080000000000000000000000000000000000070
:100090000000000000000000000000000000000060
:1000A0000000000000000000000000000000000050
:1000B0000000000000000000000000006F67040066
:1000C0006F6704006F6704006F6704000B6704002C
:1000D0000B6704000B6704000B670400694404000D
:1000E000694404006944040069440400BB520400EC
:1000F000BB520400BB520400BB52040000000000CD
:1001000000000000000000000000000000000000EF
:1001100000000000000000000000000095710400D5
:1001200000000000000000000000000000000000CF
:1001300000000000000000000000000000000000BF
:1001400000000000000000000000000000000000AF
:10015000000000000000000000000000F8B5C046EC
:10016000F8BC08BC9E4670473D700400F8B5C04618
:10017000F8BC08BC9E46704719700400DC3C0000C7
:10018000010000000000000000000000000000006E
:10019000000000000000000000000000000000005F
:1001A000000000000000000000000000000000004F
:1001B000000000000000000000000000000000003F
:1001C000000000000000000000000000000000002F
:1005E0000000000000000003FFC000000003FFE067
:1005F000000000000000001FFFFE0000003FFFFCA5
:10060000000000000000001FFFFE0000003FFFFC94
:1006100000000000000001FFFFFF800003FFFFFF5C
:1006200080000000000007FFFFFFE00007FFFFFF62
:10063000F000000000003FFFFFFFFE003FFFFFFF54
:10064000FE0000000000FFFFFFFFFF80FFFFFFFF35
:10065000FF0000000001FFFFFFFFFF80FFFFFFFF23
:10066000FF8000000003FFFFFFFFFFC3FFFFFFFF4E
:10067000FFC000000003FFFFFFFFFFC3FFFFFFFFFE
:10068000FFC000000003FFFFFFFFFFC3FFFFFFFFEE
:10069000FFC000000007FFFFFFFFFFFFFFFFFFFF9E
:1006A000FFE000000007FFFFFFFFFFFFFFFFFFFF6E
:1006B000FFE00000000FFFFFFFFFFFFFFFFFFFFF56
:1006C000FFF80000001FFFFFFFFFFFFFFFFFFFFF1E
:1006D000FFFC0000001FFFFFFFFFFFFFFFFFFFFF0A
:1006E000FFFC0000001FFFFFFFFFFFFFFFFFFFFFFA
:1006F000FFFC0000001FFFFFFFFFFFFFFFFFFFFFEA
:10070000FFFC0000003FFFFFFFFFFF83FFFFFFFF35
:10071000FFFE0000003FFFFFFFFFFF80FFFFFFFF26
:10072000FFFE0000003FFFFFFFFFFF80FFFFFFFF16
:10073000FFFE0000003FFFFFFFFFFF80FFFFFFFF06
:10074000FFFE0000001FFFFFFFFFFF00FFFFFFFF96
:10075000FFFE0000001FFFFFFFFFFF00FFFFFFFF86
:10076000FFFE0000001FFFFFFFFFFF00FFFFFFFF76
:10077000FFFE0000001FFFFFFFFFFF00FFFFFFFF66
:10078000FFFC0000001FFFFFFFFFFE007FFFFFFFD9
:10079000FFFC0000001FFFFFFF81FC007FFFFFFF49
:1007A000FFFC0000000FFFFFFF01FC003FFFFFFF09
:1007B000FFF800000007FFFFFF01FC003FFFFFFF05
:1007C000FFE000000007FFFFFF00F0001FFFFFFF3A
:1007D000FFE000000007FFFFFF00F0001FFFFFFF2A
:1007E000FFE000000007FFFFFE00F0301FE0FFFF0A
:1007F000FFE000000007FFFFFE00F0301FE0FFFFFA
:10080000FFE000000003FFFFFE0010301FE0FFFFCD
:10081000FFC000000003FFFFFC0000781FC03FFF87
:10082000FFC000000001FFFFFC0000781FC01FFF99
:10083000FF8000000000FFFFF800007C1FC00FFFDA
:10084000FF0000000000FFFFF800007C0F800FFF9A
:10085000FF00000000003FFFF800007C0F8007FF52
:10086000FE00000000000000001C00FF0C00000063
:100870000000000000000000007C00FF00020000FB
:100880000000000000000000007C01FF00060000E6
:1008900000000000000001FFFFFE01FF0007FFFF56
:1008A00080000000000001FFFFFE01FF0007FFFFC6
:1008B00080000000000001FFFFFE01FF0007FFFFB6
:1008C00080000000000001FFFFFE03FF001FFFFF8C
:1008D00080000000000000FFFFFE03FF001FFFFF7D
:1008E000000000000000007FFFFF03FF801FFFFEED
:1008F000000000000000000FFFFFFFFFC03FFFF8F7
:100900000000000000000003FFFFFFFFC03FFFE00A
:100910000000000000000001FFFFFFFFC07FFF801C
:100920000000000000000001FFFFFFFFC07FFF800C
:100930000000000000000000FFFFFFFFC1FFFF00FC
:1009400000000000000000003FFFFFFFFFFFFC0071
:10095000000000000000000007FFFFFFFFFFF000A5
:10096000000000000000000007FFFFFFFFFFF00095
:10097000000000000000000003FFFFFFFFFFE00099
:10098000000000000000000000FFFFFFFFFF00006C
:100990000000000000000000007FFFFFFFFC0000DF
:1009A0000000000000000000001FFFFFFFF8000033
:1009B00000000000000000000007FFFFFFF0000043
:1009C00000000000000000000001FFFFFFC0000069
:1009D000000000000000000000007FFFFE0000009B
:1009E000000000000000000000003FFFFC000000CD
:1009F0000000000000000000000001FFC000000037
:100A00000000000000000000000001FFC000000026
:100A100000000000000000000000007F0000000057
:100A200000000000000000000000007F0000000047
:100A300000000000000000000000000000000000B6
:100A400000000000000000000000000000000000A6
:100A50000000000000000000000000000000000096
:100A60000000000000000000000000000000000086
:1015500000000000000000000000000FF00000008C
:101560000000000000000000000000FFFE0000007E
:101570000000000000000000000003FFFF810000E9
:10158000000000000000000000000FFFFFC000008E
:10159000000000000000000000003FFFFFE100002D
:1015A000000000000000000000007FFFFFE00000DE
:1015B00000000000000000000000FFFFFFF000003E
:1015C00000000000000000000001FFFFFFF8000025
:1015D00000000000000000000003FE3FFE78000055
:1015E00000000000000000000007FC1FFC3C0000A1
:1015F00000000000000000000007F81FF81E0000B7
:101600000000000000000000000FF80FF01E0000B6
:101610000000000000000000000FF007F00F0000C5
:101620000000000000000000001FE007E00780004D
:101630000000000000000000001FE003C007800061
:101640000000000000000000003FE001C003C000F7
:101650000000000000000000003FE001E001C000C9
:101660000000000000000000003FF000E001E0008A
:101670000000000000000000003F7800F000F000D3
:101680000000000000000000003E38007800F0007C
:101690000000000000000000003C1C003800780042
:1016A0000000000000000000003C1C003C003C006A
:1016B000000000000000000000380E001C003C008C
:1016C000000000000000000000300F000E001C00B1
:1016D0000000000000000000002007000F000C00C8
:1016E00000000000000000000020038007000C0044
:1016F0000000000000000000000003C003800400A0
:101700000000000000000000000007C003C000004F
:101710000000000000000000000007E003C000001F
:10172000000000000000000000000FF007E00000D3
:10173000000000000000000000001FF00FF000009B
:10174000000000000000000000001FF80FF0000083
:10175000000000000000000000003FFC1FF8000037
:10176000000000000000000000007FFC3FF80000C7
:1017700000000000000000000000FFFE3FFC000031
:1017800000000000000000000000FFFFFFFE00005E
:1017900000000000000000000000FFFFFFFE00004E
:1017A000000000000000000000003FFFFFFC000000
:1017B000000000000000000000001FFFFFF8000014
:1017C000000000000000000000000FFFFFE000002C
:1017D0000000000000000000000003FFFF80000088
:1017E00000000000000000000000003FFC000000BE
:1017F00000000000000000000000000000000000E9
:1018000000000000000000000000000000000000D8
:10181000000000000600380000000000000000008A
:10182000000000000F007C0000000000000000002D
:10183000000000000F807C0000000000000000009D
:10184000000000000F807C0000000000000000008D
:10185000000000000F80FC000000000000000000FD
:10186000000000001FC0FC387FF3FFC1FFC1FFCEA6
:10187000039E7FF01FC1FC38FFF3FFE3FFE3FFCEC1
:10188000039E7FF81FE1FC39FFF3FFE3FFE7FFCE84
:10189000039E7FFC1FE1FC39FFF3FFE7FFE7FFCE6C
:1018A000039E7FFC1EE3DE39E00380E780E7800EC5
:1018B000039E701C1CF3DE39C00380E700E7000FB5
:1018C000FF9E701C1CF79E39C00380E700E7000FE5
:1018D000FF9E701C1C7F9E39C003FFE700E7000FCE
:1018E000FF9E7FBC1C7F8E39C003FFC700E7000F3F
:1018F000FF9E7FFC3C7F0E39C003FFC700E7000E50
:10190000039E7FF83C3F0E39E003FFE780E7800E3F
:10191000039E7FF83C3E0E39FFF380E7FFE7FFCEE2
:10192000039E70003C1E0E39FFF380E3FFE7FFCEFD
:10193000039E70003C1C0F38FFF380E3FFC3FFCE13
:10194000039E70003C000F387FE380E1FF81FF8E33
:10195000039E700000000000000000000000000076
:101960000000000000000000000000000000000077
:101970000000000000000000000000000000000067
:101980000000000000000000000000000000000057
:101990000000000000000000000000000000000047
:1026800000000000000020007F00101003880100FF
:102690000298010004A8010008B8010006C8010062
:1026A0000BD8010008F8010002080200051802001A
:1026B00004280200063802000748020002580200FF
:1026C00004680200027802000588020006980200F1
:1026D00006A8020006B8020006C8020006D80200DA
:1026E00006E8020006F802000608030006180300C8
:1026F00006280300033803000348030008580300BA
:102700000868030008780300058803000B9803009D
:1027100007B8030006C8030007D8030007E8030052
:1027200006F8030006080400071804000728040040
:102730000338040004480400065804000568040037
:10274000097804000798040008A8040006B80400EB
:1027500008C8040007D8040007E8040007F80400CC
:1027600007080500071805000B28050007480500A5
:10277000075805000668050004780500058805006F
:102780000498050009A8050007C8050005D805003C
:1027900006E8050006F8050005080600061806000C
:1027A00006280600053806000648060006580600FA
:1027B00002680600037806000588060002980600F5
:1027C0000AA8060006C8060006D8060006E80600A5
:1027D00006F806000408070005180700042807008B
:1027E0000638070005480700095807000578070064
:1027F000058807000598070005A8070003B807002B
:1028000005C8070008D8070003E80700000000001B
:1028100000000000000000000000000000000000B8
:102820000202020202020002020000000000000A8E
:102830000A0A0A000000000000000000000000007A
:102840005050FC28287E28141400000000000004CA
:10285000043E0505061C24241F040400000000009B
:10286000000000000C019200920052002C03A00412
:102870009004900408030000000000000000000025
:102880001E2121124E5161619E00000000000002D5
:102890000202020000000000000000000000001022
:1028A00008040402020202020404081000000001ED
:1028B00002040408080808080404020100000008D3
:1028C0002A1C2A0800000000000000000000000090
:1028D000000808087F080808000000000000000049
:1028E00000000000000000020202010000000000E1
:1028F000000000000F0000000000000000000000C9
:1029000000000000000000020200000000000010B3
:10291000100808080404020202010100000000007F
:102920001E212121212121211E0000000000000084
:10293000080E0808080808083E0000000000000013
:102940001E212020100C02013F00000000000000AA
:102950001E2120201C2020211E000000000000005D
:1029600010181412113F1010100000000000000099
:102970003F01011F202020211E0000000000000058
:102980001C02011F212121211E0000000000000067
:102990003F2010100808040402000000000000009E
:1029A0001E2121211E2121211E0000000000000007
:1029B0001E212121213E20100E00000000000000F9
:1029C00000000404000000040400000000000000F7
:1029D00000000404000000040404020000000000E1
:1029E00000806018061860800000000000000000F1
:1029F000000000FE0000FE000000000000000000DB
:102A000000020C30C0300C0200000000000000008A
:102A10000E11100804020002020000000000000075
:102A200000000000F8000603F2028904890489040A
:102A30008904F2030600F800000000000000000016
:102A40000808141422223E4141000000000000004A
:102A50000F1111111F2121211F0000000000000093
:102A60003C420101010101423C0000000000000065
:102A70001F214141414141211F0000000000000091
:102A80003F0101013F0101013F0000000000000083
:102A90003F0101013F0101010100000000000000B1
:102AA0003C420101017141427C0000000000000035
:102AB000414141417F41414141000000000000008F
:102AC00007020202020202020700000000000000EA
:102AD0000E080808080808080700000000000000A9
:102AE0002111090503050911210000000000000063
:102AF00001010101010101011F00000000000000AF
:102B000000000000830183014501450129012901DD
:102B1000110111010101000000000000000000008F
:102B200043434545495151616100000000000000E8
:102B30003C428181818181423C0000000000000014
:102B40001F2121211F0101010100000000000000E0
:102B50003C428181818181423C10E0000000000004
:102B60001F2121211F091121410000000000000048
:102B70003E4101013E4040413E0000000000000097
:102B80007F08080808080808080000000000000086
:102B900041414141414141221C0000000000000030
:102BA00041414122221414080800000000000000E6
:102BB00000000000210421045104510452028A0241
:102BC0008A028A02040100000000000000000000E8
:102BD00041221414081414224100000000000000D7
:102BE0004122221408080808080000000000000024
:102BF0003F201008040402013F0000000000000E06
:102C0000020202020202020202020E0000000001A1
:102C10000102020204040808081010000000000E5F
:102C2000080808080808080808080E000000000046
:102C30000000000030004800840002010000000095
:102C40000000000000000000000000000000000084
:102C5000000000000000000000007F0000000008ED
:102C60001000000000000000000000000000000054
:102C700000001E20203E21312E0000000000000137
:102C800001011D23212121211F000000000000005F
:102C900000001E01010101011E00000000000020D3
:102CA00020203E21212121312E00000000000000C3
:102CB00000001E21213F01211E0000000000001C19
:102CC00002020F02020202020200000000000000E5
:102CD00000003E21212121312E20201E0000000174
:102CE00001011D23212121212100000000000000FD
:102CF00002000202020202020200000000000000C4
:102D00000400060404040404040404030000000195
:102D1000010111090503050911000000000000026E
:102D20000202020202020202020000000000000091
:102D300000000000000000009A0166022202220248
:102D40002202220222020000000000000000000017
:102D500000001D232121212121000000000000008E
:102D600000001E21212121211E0000000000000082
:102D700000001D23212121211F010101000000006D
:102D800000003E21212121312E20202000000000C2
:102D900000000D030101010101000000000000001E
:102DA00000000E11010E10110E00000000000000C6
:102DB00002020F02020202020C00000000000000EA
:102DC00000002121212121312E00000000000000FF
:102DD000000011110A0A0A040400000000000000AB
:102DE000000000000000000011011101AA00AA006B
:102DF000AA004400440000000000000000000000A1
:102E00000000110A0A040A0A110000000000000074
:102E1000000011110A0A0A04040402020000000062
:102E200000001F10080402011F000000000000182D
:102E3000040404040403040404041800000000044F
:102E40000404040404040404040404000000000353
:102E50000404040404180404040403000000000033
:102E60000000008C926200000000000000000007DB
:102E7000050505050505050507000000ACA10020B6
:102E80001C0000000000000048A20020010000001B
:102E90000000000044A2002001000000000000002B
:102EA00038A20020020000000000000004A2002060
:102EB0000400000000000000EAA100200200000061
:102EC0000000000032A2002002000000000000000C
:102ED0002AA2002002000000000000002EA2002014
:102EE000020000000000000029A2002001000000F4
:102EF00000000000008000208012000000000000A0
:102F000036A2002002000000000000003AA20020CB
:102F1000020000000000000078A300200100000073
:102F2000010000003300000074A300200100000035
:102F3000010000000300000070A300200100000059
:102F400001000000C70000006CA300200300000087
:102F5000010000002701000068A30020010000001C
:102F6000010000001A00000064A30020010000001E
:102F7000010000000800000060A300200200000023
:102F800001000000000F00005CA300200200000010
:102F900001000000000F000058A300200200000004
:102FA000010000009400000040A300200800000081
:102FB00001000000000027019400270154A3002015
:102FC00001000000010000006E0000002DA20020A2
:102FD000010000000000000035A2002001000000F8
:102FE000000000003CA200200200000000000000E1
:102FF00042A20020020000000000000045A20020C4
:10300000010000000000000008A2002004000000F1
:103010000000000080920020000500000000000079
:103020003EA200200400000000000000E89C0020F8
:10303000800000000000000046A200200100000007
:1030400000000000889B0020C0000000000000007D
:1030500047A20020010000000000000080A1002025
:103060002C00000000000000689D0020000100000E
:103070000000000080A000204000000000000000D0
:10308000689E00200001000000000000C0A0002099
:103090004000000000000000C8A100200C0000005B
:1030A00000000000ECA1002008000000000000006B
:1030B00049A200200100000000000000689F0020DD
:1030C00064000000000000004AA20020010000008F
:1030D000000000000CA2002004000000000000001E
:1030E00034A2002001000000000000004BA20020DC
:1030F000010000000000000010A2002004000000F9
:103100000000000048A300200800000001000000AB
:10311000000100003030303000A1002040000000ED
:1031200000000000489C0020A000000000000000FB
:1031300014A20020040000000000000040A10020B4
:103140004000000000000000CC9F00206400000050
:10315000000000004CA20020010000000000000060
:1031600030A200200200000000000000F4A10020B6
:1031700008000000000000004DA200200100000037
:10318000000000004EA2002002000000000000002D
:10319000E0A100200A0000000000000050A2002072
:1031A00001000000000000002CA20020010000002F
:1031B0000000000028A20020010000000000000024
:1031C00051A2002001000000000000006FA30020B9
:1031D0000100000001000000C000000018A2002053
:1031E000040000000000000030A00020500000009B
:1031F0000000000054A200206C000000010000004C
:1032000060A200205CA2002060A20020000000005C
:103210002500000088970020000400000000000046
:10322000000000000000000000000000000000009E
:10323000000000000000000000000000E77D040026
:10324000000000000000000000000000000000007E
:1032500037680400000000000000000000000000CB
:103260000000000000000000000000008097002027
:10327000080400000000000020A30020200000003F
:103280000100000001000000030000000000000039
:10329000000000000000000000000000000000002E
:1032A000FCA10020FCA1002008000000000000009C
:1032B0001CA200200800000000000000C0A20020A6
:1032C0006000000001000000010000000300000099
:1032D00000000000000000000000000000000000EE
:1032E000000000000D6A0400000000000000000063
:1032F000000000001D7D04007B750400000000003C
:1033000000000000000000000000000000000000BD
:1033100000000000000000000000000000000000AD
:10332000000000000000000050A300200400000086
:10333000010000000100000024A2002004000000A1
:1033400000000000D4A100200C00000000000000DC
:1033500000000000000000006666666610B584B0DC
:103360004AF22823C2F200031A780E2A00D90BE190
:103370009300DF4AD3589F4604F0D5FC002800D0C4
:1033800004E14AF24C23C2F2000300221A7004F056
:10339000CEFC002800D00CE14AF24C23C2F200031C
:1033A00000221A704AF25023C2F20003187804F087
:1033B000C2FC002800D00FE14AF24C23C2F2000305
:1033C00000221A7047F66840C0F204000F2104F092
:1033D000B6FC4AF24C23C2F200031870002800D059
:1033E0000DE14AF25123C2F2000300221A7004F0E8
:1033F0009EFC002800D01BE14AF24C23C2F20003DD
:1034000000221A704AF26F33C2F20003187804F0F7
:103410009AFC002800D01EE14AF24C23C2F20003BD
:1034200000221A7001AC45F27C33C0F204031A6822
:1034300001921B792371200004F012FBC1B220001D
:1034400004F085FC002800D018E14AF24C23C2F2B7
:10345000000300221A7004F07EFC002800D020E156
:103460004AF24C23C2F2000300221A7004F05FFCFF
:10347000002800D028E14AF24C23C2F200030022C7
:103480001A7001AC45F28433C0F204031A68019249
:103490001B792371200004F0E3FAC1B2200004F08C
:1034A0005EFC002800D025E14AF24C23C2F2000362
:1034B00000221A7001AC45F28C33C0F204032200E2
:1034C00003CB03C2198811809B789370200004F00D
:1034D000C7FAC1B2200004F046FC002800D01CE16D
:1034E0004AF24C23C2F2000300221A7001AC45F2EA
:1034F0009833C0F20403220003CB03C21988118061
:103500009B789370200004F0ABFAC1B2200004F065
:103510002AFC002800D013E14AF24C23C2F2000337
:1035200000221A7001AC45F2A433C0F20403220059
:1035300003CB03C2198811809B789370200004F09C
:103540008FFAC1B2200004F00EFC002800D00AE17E
:103550004AF24C23C2F2000300221A7004F0FBFB73
:10356000002800D012E14AF24C23C2F200030022EC
:103570001A7004F0DCFB002800D01AE14AF24C2358
:10358000C2F2000300221A7004B010BD4AF24C23AC
:10359000C2F2000300221A7045F2BC20C0F20400FF
:1035A00004F098F84AF22823C2F2000302221A70AB
:1035B000EDE64AF24C23C2F2000300221A7045F2F3
:1035C000D420C0F2040004F085F84AF22823C2F2A5
:1035D000000301221A70E5E64AF24C23C2F200030E
:1035E00000221A7045F2E820C0F2040004F072F8DC
:1035F0004AF22823C2F2000303221A70E2E64AF2DA
:103600004C23C2F2000300221A704AF25123C2F284
:10361000000301321A7045F2FC20C0F2040004F0ED
:1036200059F84AF22823C2F2000307221A70DEE694
:103630004AF24C23C2F2000300221A7045F2D42051
:10364000C0F2040004F046F84AF22823C2F2000354
:1036500006221A70D6E64AF24C23C2F20003002278
:103660001A7045F21030C0F2040004F033F84AF248
:103670002823C2F2000308221A70D3E64AF24C2330
:10368000C2F2000300221A7045F22430C0F2040096
:1036900004F020F84AF22823C2F2000309221A702B
:1036A000D9E64AF24C23C2F2000300221A7045F216
:1036B0003430C0F2040004F00DF84AF22823C2F2BC
:1036C000000304221A70D1E64AF24C23C2F200032E
:1036D00000221A7045F2D420C0F2040003F0FAFF71
:1036E0004AF22823C2F200030B221A70C9E6C04630
:1036F000487204004AF24C23C2F2000300221A70FE
:1037000045F24830C0F2040003F0E4FF4AF22823F7
:10371000C2F200030C221A70CCE64AF24C23C2F229
:10372000000300221A7045F25C30C0F2040003F07E
:10373000D1FF4AF22823C2F200030D221A70D5E607
:103740004AF24C23C2F2000300221A7045F25C30A8
:10375000C0F2040003F0BEFF4AF22823C2F20003C5
:103760000E221A70DEE64AF24C23C2F20003002257
:103770001A7045F25C30C0F2040003F0ABFF4AF26D
:103780002823C2F200030A221A70E7E64AF24C2309
:10379000C2F2000300221A7045F23430C0F2040075
:1037A00003F098FF4AF22823C2F2000305221A70A0
:1037B000DFE64AF24C23C2F2000300221A7045F2FF
:1037C000D420C0F2040003F085FFDDE6F0B5DE464C
:1037D00057464E464546E0B583B04AF23E23C2F214
:1037E00000031C88A4B24AF24323C2F200031B78F0
:1037F000002B5BD04AF24323C2F2000300221A706E
:103800004AF23E23C2F200031B884AF20822C2F2A7
:10381000000212689B1840F2FF42934274D94AF2A8
:103820003E26C2F200063088328849F28027C2F272
:103830000007BC46604440F20055AA1A49F6E84128
:10384000C2F2000104F0B2F9318832884AF208234A
:10385000C2F200031B68B24884466344D218691A56
:1038600049F6E843C2F200039C466144380004F084
:103870009DF94AF20823C2F2000319684AF23E2376
:10388000C2F200031A88521892B21A801B889BB2A7
:1038900040F2FF42934209D94AF23E22C2F20002AC
:1038A00013889F498C4663449BB213804AF240239D
:1038B000C2F200031B88A34201D940F200544AF22D
:1038C0002D22C2F2000212784AF23C21C2F200011B
:1038D000098889464AF24621C2F200010D784AF26F
:1038E0003521C2F200010F780021019140F2000859
:1038F00040F2000A009100268A498C4649F2802055
:10390000C2F20000B34638E04AF23E23C2F200039E
:1039100018884AF20823C2F200031A6849F2802389
:10392000C2F200039C46604449F6E841C2F200013D
:1039300004F03CF99DE7C15C312908D0013399B20C
:103940008BB29C420BD9465C0131312EF8D1013348
:103950009BB240F20108012740F2010B0DE040F25A
:10396000010B0AE0C75C353F79424F417F000133CC
:103970009BB240F2010840F2010BA34200D394E055
:10398000042FFAD8B900664671588F46C75C3B3F92
:1039900079424F417F4203210F4001339BB240F2F5
:1039A000010840F2010BE8E7190013E001339BB274
:1039B00040F20108042740F2010A0022012100918F
:1039C000002540F2010BD8E701339BB201318EB2E2
:1039D000B4420AD98BB2465C3B2EF5D10135EDB22B
:1039E000032DE3D001260096EEE740F2010BC4E779
:1039F0003200574640F2010A40F2010BBDE75E4635
:103A000026B14AF24021C2F200010B80009B23B193
:103A10004AF24623C2F200031D70534623B14AF214
:103A20002D23C2F200031A704AF23523C2F20003BA
:103A300000221A704AF23C23C2F200031A804AF2B2
:103A40004523C2F200031A704AF22D23C2F200038A
:103A50000020185653E01E00C15C3B2919D00133E9
:103A600099B213003200BA461E00825CB300F3180C
:103A70005B00D218303AD6B28BB29C42B8D90A0059
:103A8000475C01313B2FF0D1320040F2010A40F295
:103A9000010B4946013189B289466429AFD0012121
:103AA000019140F20108002767E75E4626B14AF21D
:103AB0004021C2F200010B80009921B14AF2462157
:103AC000C2F200010D70514621B14AF22D21C2F21D
:103AD00000010A70424622B14AF23522C2F20002C7
:103AE0001770019A2AB14AF23C22C2F200024946FA
:103AF000118040F20052934208D00120404203B0AE
:103B00003CBC90469946A246AB46F0BD4AF24023E3
:103B1000C2F2000300221A8001204042EFE7C046B3
:103B200000FBFFFF707B04000023F0B506001500CA
:103B3000B1B00791039307990B78002B00D10AE1EC
:103B400001235B420C9310AB00240E9380230B9453
:103B50000D940F930B5D0BB1252B29D134B12200AD
:103B6000300003F0CBFB079B1B190793079B1A78C8
:103B7000252A00D0E4E040F2020C01211027013395
:103B800004930793079803782B2B1AD025D8202B62
:103B90001AD0232B1DD02A2B28D003F0DCFA0D904D
:103BA000079B1A78303A092A31D801330793F7E78F
:103BB0000134CFE70B9B05930B4301300B93079028
:103BC000E0E704230B9A0FE00B9B0593059A08236B
:103BD0000AE00B9B05933B43EFE72D2BEAD0302BFC
:103BE000D9D162460B9B05931343E6E72B6801305E
:103BF0001A1D1B6807902A600D93002B07DA0B9A99
:103C00005B420592012205990D934A400B920B9B52
:103C1000DA0702D5022293430B93079B1A782E2AC8
:103C20000ED10022581C0C9207905A782A2A27D1CC
:103C3000023307932B681A1D1B682A6005930C93A7
:103C400007A803F035FC079B0700187804F04DF82F
:103C5000692800D182E034DC632800D1D7E01ADC87
:103C6000252800D1E4E0612858D0049B0122079365
:103C7000002352420C920B930D9300930232E1E029
:103C800003F069FA0C90079B1A78303A092AD7D8C2
:103C900001330793F7E7642860D06728E5DC2A0042
:103CA000390008A803F0C3FC002800D1ABE0079B53
:103CB0000BA95A1C07921B7808AA300004F08FF851
:103CC0003DE0702800D17BE016DC6E2800D193E047
:103CD0006F28CAD12B000022390008A802F066F82C
:103CE000002800D18FE0079B08AA01330BA9300000
:103CF000079304F072F822E0752840D078284ED05F
:103D00007328B2D1802F00D07DE0079B2A68013351
:103D10000793131D2B601268002384E02A003900EA
:103D200008A803F084FC002800D16CE0079B0BA9D5
:103D30005A1C07921B7808AA300004F050F8241887
:103D4000039B1C19A34200DC7EE04F223F4B1A600C
:103D500001235B420393039831B0F0BD2B00012295
:103D6000390008A802F022F800284CD0079B08AAC6
:103D700001330BA93000079302F073F8DFE72B0043
:103D80000022390008A802F011F8E0B3079B08AA46
:103D900001330BA93000079304F01FF8CFE72B0085
:103DA0000022390008A802F001F860B3079B5A1CF2
:103DB00007921B7808AA0BA9300000F040FFBEE76D
:103DC0002B000022F02108A801F0F0FFD8B1079BDA
:103DD000099A01330793089B13435BB91C4803F00E
:103DE0003FFE02000B9B1A4900930D9B300002F02E
:103DF00033FAA4E77823DDE7039B39001A1908A8F2
:103E00002B0002F0E8FB079B0133079398E7802F14
:103E1000F9D1079B013307932B681A1D1B682A6091
:103E200008AA137001230BA9300003F0DAFF86E71C
:103E3000802FE8D10122079B013307930B9B04934A
:103E400000930D9B0349D1E7039474E620A2002060
:103E5000B87D0400BE7D0400F0B585B000930393E7
:103E6000009B02900C001600150001900F00002B23
:103E700000D0C9E08A424AD9100003F021FA48B1C3
:103E80002023019F1B1ADF40019B84408340854013
:103E900027430193AAB22B0CB7FBF3F1160094460B
:103EA0001A004A434E43BF1A019A3F04140C274399
:103EB0000A00BE4207D97F19013ABD4203D8BE426B
:103EC00001D98A1E7F19BE1BB6FBF3F14B43644632
:103ED000F61A6B464C439B8836041E430F00B442CF
:103EE00007D97619013FB54203D8B44201D98F1ED4
:103EF00076191204341B3A430A9B23B1C4401C6058
:103F000000230A994B601000009905B0F0BD02B97A
:103F1000FFDE100003F0D4F9B8BB0123A41B00930B
:103F20002B0CB4FBF3F21F0011005743AEB27143E8
:103F3000E41B019F24043F0C3C439446A1420AD950
:103F4000012764197F42BC44A54204D8A14202D98A
:103F5000023A94466419641AB4FBF3F77B43E41AFB
:103F60006B467E439B8824041C433900A64207D934
:103F700064190139A54203D8A64201D9B91E6419B2
:103F800063461A04A41B0A43B6E7202223000199C2
:103F9000121AD3408440D140019A85408240214387
:103FA0008C46290CB3FBF1F401920A00624326000F
:103FB0009B1A6246AFB27E43120C1B0413432200CD
:103FC0009E4207D95B19013A9D4203D89E4201D90E
:103FD000A21E5B199B1BB3FBF1F671435B1A614692
:103FE00077438CB21B041C433100A74207D96419E4
:103FF0000139A54203D8A74201D9B11E64191204A0
:104000000A43E41B00928BE7009B8B420AD90A9B70
:10401000002B00D1ABE0029A59601A600023009394
:104020001A0070E7039803F04BF9D8B9039BA34239
:1040300003D3029B02009E420AD8029B01229E1BD0
:10404000039B0196E41A029BB342AD416D42671B8C
:104050000A9B0093002B00D155E7019982C30023EE
:10406000009350E720231B1A01933300019A039F0A
:10407000D34087401F4323000199D340029A8440D4
:10408000CA4022439446029A390C8240B3FBF1F4B1
:1040900002920A0086406243009626009B1A6246FE
:1040A000BDB26E43120C1B04134322009E4207D97B
:1040B000DB19013A9F4203D89E4201D9A21EDB19A7
:1040C0009E1BB6FBF1F4634661436543761A3604E2
:1040D00099B20E432300B54207D9F619013BB74206
:1040E00003D8B54201D9A31EF61912041A436B4630
:1040F0001C88009B711B8C46190C230096B2150C72
:104100006C4373434D4371431E0C091971188C4263
:1041100002D9802464022D190C0C9BB20904651984
:10412000C918AC4503D30BD1029B8B4208D2009B2C
:10413000013ACE1AB14289414942CF193100ED1BF3
:104140000A9B0093002B00D1DDE6029B019C591ACB
:1041500063465D1B029B8B429B415B42ED1A2B0029
:10416000C140A340C54019430A9B22C377E70A9B7D
:1041700055E77047F0B5DE4657464E464546E0B532
:1041800087B002904BB2002B00DA41E14AF23623AD
:10419000C2F2000319804AF23A23C2F200031A80E5
:1041A0004AF23223C2F2000304934AF2362AC2F2E0
:1041B000000A47E03C420BD16400E4B20135EDB2A5
:1041C000A84510D0002CF5D1377801360134F1E73D
:1041D0004AF2EA13C2F200031A786B4619782800F3
:1041E00003F0FBF9E8E74B4601335A46013AD2B2F5
:1041F0009B189BB29946009B01339BB20093019B95
:104200000133DBB201939BB2039A93420DD2534622
:104210001B8899465B46002BEDD04B46DDB25B46D2
:104220005B19DBB298460024CCE7059B33B14AF218
:104230003A23C2F20003009A1A8003E04B4601338E
:1042400052461380029B1B78002B00D183E0029A18
:10425000013202929BB2049A11888B42F2D34AF245
:104260002E22C2F2000212889A42EBD34AF20422B2
:10427000C2F2000212685B1A9B009BB20833D3188B
:1042800019788B469E783602D978090476185B78BF
:10429000F61896194AF22923C2F200031B780593F7
:1042A000002B00D1BBE0022B00D1CCE053461A8892
:1042B00003924AF22A23C2F200031B880193002BC7
:1042C0003FD0009200272BE03778013601343C4282
:1042D00008D16400E4B2013DEDB2A8450DD0002C38
:1042E000F5D1F1E74AF2EA13C2F200031A786B46FD
:1042F0001978280003F071F9EBE74B46013B5A4669
:10430000013AD2B29B1A9BB29946009A039BD31AE8
:104310000133DBB2013292B20092019A934212D27F
:104320004AF23A23C2F200031B8899465B46002BEF
:10433000EBD04B46DDB25B46EB1ADBB2984600246D
:10434000CDE7019B99464AF23A22C2F200024B465F
:10435000013B138076E74AF25C31C2F2000102228F
:10436000442002F098F84AF24431C2F200010422DB
:10437000452002F090F84AF24421C2F200010122E5
:104380004E2002F088F84AF25831C2F200010222AF
:104390004F2002F080F800220021242002F07BF858
:1043A00043F20003C4F2000340F200425A610822C3
:1043B0009A6148F20000C2F200002A4D441C01211B
:1043C00003F0A1FC2000AC42F8D143F20003C4F298
:1043D000000340F200429A61022002F02AFD6420AC
:1043E00002F027FD4AF27031C2F2000101222220C0
:1043F00002F051F800220021202002F04CF80022A7
:104400000021FF2002F047F840F2E83002F011FDF1
:1044100007B03CBC90469946A246AB46F0BD4AF276
:104420003A23C2F200031B8800934AF22A23C2F205
:1044300000031B8803939946002B00D1FEE600275A
:1044400000230193E3E64AF23A23C2F200031B88F9
:1044500000934AF22A23C2F200031B880393002B25
:10446000EDD1E4E68092002070B54AF28013C2F2EA
:104470000003586A40F60043C4F200239B7D002BE2
:1044800000D199E040F60042C4F2002254680721AE
:104490000C404AF28013C2F2000359699D699E687C
:1044A000137E5B0700D49EE040F60043C4F2002375
:1044B0009A6A4AF28013C2F20003DB688B4200D88A
:1044C00091E0002C00D078E04AF28013C2F20003A1
:1044D0005B685A54013140F60043C4F200231B7E4E
:1044E000DB072AD540F60043C4F2002301221A75E7
:1044F0004AF28013C2F200039B68AB4200D897E0F7
:104500004AF28013C2F200031B685A5D40F6004372
:10451000C4F200239A6201354AF28013C2F200030A
:104520001B6913B9B54200D1AFE04AF28013C2F261
:104530000003DB688B4200D1AEE04AF28013C2F286
:10454000000359619D6140F60043C4F200231B7EC5
:104550009B0725D54AF24723C2F200031B785BB3C1
:104560004AF28013C2F20003DB688B421ED14AF28A
:104570008013C2F200030021197740F60042C4F212
:104580000022072414754AF24722C2F20002117079
:104590001B6A8BB14AF28013C2F200031B6A984770
:1045A0004AF24723C2F200031B782BB140F60043C6
:1045B000C4F2002302229A7570BD4AF28013C2F23F
:1045C00000035B684C00E252013140F60043C4F244
:1045D00000231B7EDB07B0D540F60043C4F2002366
:1045E00001221A750FE040F60043C4F200231B7E3F
:1045F000DB07A2D540F60043C4F2002301221A755E
:10460000002C00D174E74AF28013C2F200039B68C9
:10461000AB4223D94AF28013C2F200031B686A003E
:10462000D25A40F60043C4F200239A62013573E780
:104630004AF28013C2F200031B69002B00D16BE722
:1046400040F60043C4F20023FF229A624AF280132C
:10465000C2F200031A69013A1A615DE74AF2801357
:10466000C2F200031B69002B00D155E740F600435E
:10467000C4F200234FF6FF729A624AF28013C2F22C
:1046800000031A69013A1A6146E74AF24723C2F267
:10469000000301221A7050E740F60043C4F20023E1
:1046A00001229A7503321A7547E770B505004AF280
:1046B0008014C2F20004207FC0B2002800D003E1C1
:1046C00000297AD0002D78D040F60044C4F20024AE
:1046D000666807243440012C00D196E04AF280102D
:1046E000C2F20000056042600024446184610461FC
:1046F0004AF28010C2F200008160002A00D189E0F5
:104700004AF28012C2F20002D3604AF28012C2F270
:1047100000020121117740F60042C4F20022127E0D
:10472000520708D540F60042C4F200220420916AE4
:10473000117E0142FBD140F60042C4F20022518BAF
:10474000042001435183117E8020014311764AF2F7
:104750008012C2F200029168D2688A4206D94AF2F7
:104760008012C2F20002D068401A106140F6004286
:10477000C4F200225268520768D14AF28012C2F293
:10478000000292698A424CD24AF28012C2F20002BE
:104790001168087840F60041C4F2002188629169EE
:1047A00001319161002B00D186E040F60043C4F254
:1047B000002304229A75012087E0002B00D184E0B9
:1047C000002A00D181E040F60044C4F2002466686B
:1047D00007243440012C13D04AF28010C2F20000AA
:1047E000056042600024446184610461002D00D0B2
:1047F0007EE74AF28011C2F20001002088607CE767
:10480000002963D1DC07E7D55FE0CC075DD4002B3E
:10481000E2D0F7E74AF28012C2F200020021D16032
:1048200073E74AF28012C2F200021269002AB9D07C
:1048300040F60042C4F20022FF2191624AF2801247
:10484000C2F20002116901391161ABE74AF280122C
:10485000C2F200029168490891601169490811612A
:10486000D1684908D160916892698A420ED24AF2B1
:104870008012C2F200021168088840F60041C4F2BA
:10488000002188629169013191618BE74AF28012BF
:10489000C2F200021269002A84D040F60042C4F23B
:1048A00000224FF6FF7191624AF28012C2F20002BA
:1048B00011690139116175E740F60043C4F2002324
:1048C00001229A75012000E0002070BDCC0799D527
:1048D000FBE730B583B04AF22C23C2F200031B7809
:1048E000012B2ED0002B67D0022B03D0032B14D02A
:1048F00003B030BD6C4646F2C803C0F20403220088
:1049000003CB03C2200003F0ABF8C1B200230022A6
:10491000200003F02CFA00287AD14AF24C23C2F28C
:10492000000300221A704AF24D23C2F200031B78E2
:10493000002B00D085E04AF22C23C2F200030322B0
:104940001A704AF24F24C2F20004217847F6482038
:10495000C0F2040002F0ACFF227846F2BC01C0F2C3
:1049600004014AF2E014C2F20004200003F0DEF871
:1049700043F20003C4F2000348F200029A610020EF
:1049800003F092F840F28410C0F2040000F082FFBD
:1049900042F28460C0F204000022FF2102F0E6F837
:1049A0000025657294220E212000FFF7E3FB4AF2F6
:1049B0002823C2F200031D7046F2D003C0F20403A4
:1049C0001A6800921B796A4613714AF24F23C2F2A9
:1049D000000300229A5646F2C401C0F204014AF2D2
:1049E0003024C2F20004200003F0A0F8684603F06F
:1049F00037F8C1B202232200684603F0B8F9002854
:104A000041D14AF24C23C2F2000300221A706FE730
:104A10004AF24C23C2F2000300221A7046F25400FC
:104A2000C0F2040002F056FE46F26000C0F204003C
:104A300002F050FE4AF22C23C2F2000303221A7045
:104A40006BE74AF24D23C2F200031A7046F29C0053
:104A5000C0F2040002F03EFE02F0D4FD4AF24F2301
:104A6000C2F200031870431C06D04AF22C23C2F293
:104A7000000301221A7064E74AF22C23C2F20003F9
:104A800003221A705DE74AF24C23C2F200030022AF
:104A90001A704AF22C23C2F2000303321A7027E77D
:104AA000F8B504004AF24833C2F200031B680BB3A6
:104AB00000200F274AF24C36C2F2000606E0421CE4
:104AC000D2B231540F2B0BD910002B001D093A0024
:104AD0001A4011003731092AF1D830321100EEE7BF
:104AE0004AF21023C2F2000319604AF24833C2F2BC
:104AF00000031D6047F24841C0F20401200002F0AB
:104B0000CBFA80B14AF24A23C2F2000300221A70A3
:104B10004AF24923C2F200031A704AF24B23C2F24E
:104B200000031A70F8BD47F25441C0F2040120009E
:104B300002F0B2FA30B14AF24B23C2F20003012272
:104B40001A70EFE747F26041C0F20401200002F062
:104B5000A3FA00284DD04AF24B23C2F200030022F0
:104B60001A70002349F66871C2F20001E25C5A54DF
:104B70000133312BFAD149F66874C2F200040422E1
:104B80000821200002F00FFC08220D21200002F075
:104B90000AFC08221621200002F005FC08221F2131
:104BA000200002F000FC04222821200002F0FBFB80
:104BB00004222D21200002F0F6FB4F2002F0ABFF73
:104BC000542002F0A8FF412002F0A5FF412002F08E
:104BD000A2FF2C2002F09FFF302002F09CFF31202A
:104BE00002F099FF0D2002F096FF0A2002F093FFD9
:104BF00098E747F26841C0F20401200002F04CFA45
:104C000060B14AF24923C2F2000301221A704AF24B
:104C10004B23C2F2000300221A7083E747F274416B
:104C2000C0F20401200002F037FA002800D179E731
:104C30004AF24A23C2F2000301221A7072E7F0B569
:104C40008FB00D934B680C9006938B680D00079303
:104C5000CB6816000393069B0F68002B42DB0223F0
:104C60009F4310233B400A93079B04930A9B3BB14D
:104C7000726833681343079A13B11300023B04931D
:104C800008233B400B935A1E9341049AD31A049372
:104C90003368039A0893736809932B695C1E002399
:104CA0001355069B0593012C1FDC0A9B002B50D14A
:104CB0000B9B1BB12023039A013C13552B690097D2
:104CC0005A1E039B121B19190C98079B01F0C4FA7A
:104CD0000C9B5B68DB0503D56B68984200DA180013
:104CE0000FB0F0BD01230693BBE7089B099A13435D
:104CF0005BB9059B002B08DC069A049B9B1A059A5E
:104D00009B18002BD1DDBB07CFD50F23089A013CA0
:104D1000134018005730092B01DC303318000D9B6D
:104D2000413B192B06D820230343613B192B01D8A3
:104D300002F0E2FF039B1855059B013B0593099B7D
:104D40001A07089B1B091A43099B08921B09099320
:104D5000A9E70CCE1343002BAAD0039B0D9A1B1975
:104D6000013B1A703023039A023C1355A0E77047A9
:104D7000F0B5D6464F464646C0B54EF20013CEF2C9
:104D8000000340F204315A583F4E32404CF20005C5
:104D90002A435A5040F220094A461A6018315A589C
:104DA0001202120AC020000602435A508022120644
:104DB0001A6040F22032995840F2FF084446A1435D
:104DC00040F2C00C64462143995001215960995822
:104DD0003140294399500221596099582B4F39404D
:104DE000C0242404A24621439950042159609958B3
:104DF0000902090A0143995008225A6040F22432FC
:104E000099584446A1436446214399501021596062
:104E10009958314029439950494659609958394029
:104E20005446214399504021596099580902090A72
:104E30000143995080225A6040F2283299584446E2
:104E4000A14364462143995040F20011596099589A
:104E50000E4035439D5040F20021596099580F4053
:104E600054463C439C50D8325A6040F234315A5830
:104E70001202120A10435850802212045A601CBCBD
:104E800090469946A246F0BDFF00FFFFFFFF00FFDE
:104E9000F0B5DE4657464E464546E0B583B08446FB
:104EA0008B46002900D181E0002440F60007C4F2BF
:104EB000002707214AF28003C2F200030122624464
:104EC00090460AE049F6E855C2F200054846A85562
:104ED0009A60621C0134934556D97A680A40012AC7
:104EE0001DD09E68DA689146721C1D69AA42AD41C8
:104EF0002A40914549D065462D5DA9467D680D4003
:104F0000012DDFD1760049F6E855C2F2000548468A
:104F1000A855013640F200094846A855D8E79E68D2
:104F2000DA689146721C1D69AA42AD412A4091453A
:104F30002BD06000814640464D46455D28028246A2
:104F400060464D46405D55460543019578680840EA
:104F5000012808D0E8B249F6E855C2F20005A85584
:104F60009A60621CB6E7760068460079824649F688
:104F7000E859C2F200094846554685550136019860
:104F8000050A48468555EBE7140002F0F2FB28B10C
:104F900040F60003C4F2002301229A75200003B0FA
:104FA0003CBC90469946A246AB46F0BD0C00ECE7EF
:104FB00010B54AF2F413C2F200035A79052A29D82F
:104FC00093003F4AD3589F4600F063FA002002F056
:104FD0006BFD41F20440C0F2040000F05BFC42F2C1
:104FE0008460C0F204000022FF2101F0BFFD47F6FB
:104FF000CF41C0F204010022022002F00AFA4AF274
:105000002823C2F2000300221A704AF2F413C2F2FB
:1050100000035A7110BD4AF24E23C2F200031B78FE
:10502000002BF7D1FEF79AF94AF2F413C2F200030B
:1050300005225A71EEE743F20003C4F2000348F27E
:1050400000025A614AF2F413C2F2000303225A71B9
:10505000E0E74AF22C23C2F2000302221A70FFF7A3
:1050600038FC4AF2F413C2F2000304225A71D1E769
:105070004AF24D23C2F2000300221A704AF2F413DE
:10508000C2F2000305325A71C4E74AF2F413C2F2C5
:1050900000035B8833B94AF2F413C2F2000340F212
:1050A000F4125A804AF24D23C2F200031B78002BFF
:1050B000B0D04AF2F413C2F2000302225A71A9E7F7
:1050C000307A0400F0B5C64600B54AF20013C2F2C9
:1050D00000035A6B59691961002A5FD0916847F63D
:1050E000FF7399424DD94AF20013C2F200035B6983
:1050F00000251C0047F6FF720023A4185D414AF208
:105100000018C2F2000843465B689B699847002775
:10511000060043461B69834204D94FF6FF72002301
:10512000B6185F414AF20013C2F20003196A002365
:105130000A0092197B41AB4202D83CD1A2423AD933
:105140008E194AF20013C2F20003DE614AF2001324
:10515000C2F20003DB694FF6FF721A4205D14AF230
:105160000013C2F200030122DA614AF20013C2F214
:105170000003D86980B25B685B69984704BC9046BD
:10518000F0BD91684AF20013C2F200035B6900258A
:105190001C0000230A00A4185D41B0E74AF2001386
:1051A000C2F200035B6900251C0047F6FF72002372
:1051B000A4185D41A3E74AF20013C2F20003DC61C8
:1051C000C4E7F8B54AF20014C2F20004656B6368E4
:1051D0009B6998476061606902F0B7FBA66AE76A5D
:1051E0000023020092197B41A262E362002D5BD092
:1051F0004AF20014C2F200043022A35C0133A3542B
:1052000002F0B5F8646B44B1A36833B901250027F7
:105210004AF20016C2F2000613E049F64845C2F20F
:105220000005002400261FE0E06901F0D1FFE368DB
:105230000BB120699847746B002CEED0A368002B4B
:10524000EBD125756575A37813B9E368002BEBD115
:10525000200001F021FBA378002BE8D16770E6E77E
:1052600001342035052C17D0630149F64841C2F2BC
:1052700000018C4663445B7D002BF1D063016344E5
:105280005E75AB78012BEBD1620162446B68936071
:10529000280000F08DF8E3E74AF20013C2F20003A1
:1052A00030215A5C013A5A5402F075FD0400FFF7B0
:1052B00009FF200002F073FDF8BDFEE7524E4244A4
:1052C0003435315F494E495449414C495A494E475A
:1052D0000D000000456E746572656420434D4420E6
:1052E0004D6F64650D000000466163746F72792034
:1052F000526573657420446F6E650D004465766970
:105300006365204E616D65205365740D00000000DB
:1053100053657276696365204269746D61702053CC
:1053200065740D00417070656172616E6365205334
:1053300065740D005265626F6F7420436F6D706C01
:10534000657465640D0000005365727669636520BD
:1053500055554944205365740D000000536572761D
:10536000696365204368617261637465726973740F
:10537000696373205365740D0000000030333430CE
:105380000000000031383044000000003241333763
:105390002C31302C30350000324133382C30322C57
:1053A00030350000324133392C30382C3035000094
:1053B000F0B5DE4657464E464546E0B585B08146D7
:1053C000002856D04AF20013C2F20003596B8368DA
:1053D0009A4661B18B685246039240F200089A45A2
:1053E00049D3002200238B460092019308E083609A
:1053F0004AF20013C2F200035863012032E0E34690
:105400005E46B66834000025009A019B12196B4174
:10541000009201935E46B669B44696B16646B66898
:1054200000210F00009A019BB6185F4147452BD819
:10543000E5D1039B9E42E2D960465946009A019B02
:1054400001E0300059464C46A0618C610020514675
:105450008A1A4B469A609B6923B14A4691689A68BA
:10546000521A9A6005B03CBC90469946A246AB469B
:10547000F0BD0020F6E74AF20013C2F200035863C1
:10548000816100220120E2E760465946009A019BB3
:10549000D9E770B502F029FB43F20004C4F200041E
:1054A0000823A361DB01A36180256D03A56165610C
:1054B000C82001F0BEFCA561C82001F0BAFC4AF288
:1054C0006C31C2F200010322012000F0E4FF4AF235
:1054D0006831C2F2000101223A2000F0DCFF4AF2FA
:1054E0006431C2F2000101223B2000F0D4FF4AF2F5
:1054F0007434C2F2000401222100112000F0CBFF1D
:105500004AF26031C2F200010222442000F0C3FFDF
:105510004AF24031C2F200010422452000F0BBFFF4
:105520004AF25431C2F2000101222C2000F0B3FFF4
:105530004AF27831C2F2000101223C2000F0ABFFB8
:1055400001222100112000F0A6FF022001F071FCD1
:1055500046F67C61C0F204014622322000F09BFF37
:1055600040F2E83001F065FC70BD10B54AF242230C
:10557000C2F200031B78E3B14AF24523C2F20003F2
:105580001B78002B37D04AF24023C2F20003188860
:105590004AF23E22C2F200024AF24321C2F2000164
:1055A00013889BB2834202D10B78002BF8D00120E4
:1055B00010BD47F24B50C0F20400002102F06BFB1B
:1055C00049F28020C2F2000040F2005100F0F1FCEC
:1055D0000A2002F059FB0021012002F01BFA02F020
:1055E00084FA012001F025FC4AF24223C2F20003B2
:1055F00001221A70C0E741F2883001F01AFC49F22A
:105600008020C2F2000040F20052002102F0D8FADD
:105610004AF24523C2F2000301221A704AF23E23E5
:10562000C2F2000300221A804AF24023C2F20003B1
:105630001A804AF24323C2F200031A70A3E7F0B5BE
:1056400085B001AD46F64C74C0F204041034C0CCF1
:10565000C0C524882C804AF24014C2F200045325AD
:1056600025700B3D65700F35A5702B3DE57059B168
:105670000024065D4AF24015C2F2000565192E713C
:105680000134E5B2A942F4D80C1DE4B2002B2CD0B1
:105690004AF24010C2F200002C2505554C1DE4B220
:1056A000043505550631C9B245540021545C4AF20F
:1056B0004010C2F200000818C4720131C8B283421F
:1056C000F4D84AF24010C2F200001A000B32D2B2F3
:1056D0000D2181540C33DBB20A22C2540A2301AAE1
:1056E000023100F007FB05B0F0BD4AF24010C2F2F3
:1056F00000000D2303550531C9B2033B435401AAF1
:105700000D2100F0F7FAEEE7F0B5C64600B582B01D
:1057100040F60005C4F2002501274AF28004C2F2D7
:105720000004072649F6E851C2F2000112E05A00CF
:105730009046885C844668466246827142460132E1
:105740008A5CC271013314E06B4606331B78AB628E
:10575000237DE3B92B7E3B4235D0A268E3689A42B1
:105760002BD06A683240012AE1D0C85C6A46907149
:1057700001332269934292411340E3606B683340E6
:10578000012BE1D16B4606331B88AB62E0E702F0E8
:1057900096F92368002BC5D06168237F33B1A369D4
:1057A0009842BFD3236803209847BBE7A369984278
:1057B000B8D1236803209847B4E740F60003C4F249
:1057C000002301221A7502B004BC9046F0BDF0B56A
:1057D000C64600B582B040F20045C4F2002501275C
:1057E0004AF2C004C2F20004072649F6E861C2F298
:1057F000000112E05A009046885C84466846624682
:105800008271424601328A5CC271013314E06B46F8
:1058100006331B78AB62237DE3B92B7E3B4235D048
:10582000A268E3689A422BD06A683240012AE1D02C
:10583000C85C6A46907101332269934292411340D9
:10584000E3606B683340012BE1D16B4606331B8864
:10585000AB62E0E702F03EF92368002BC5D0616837
:10586000237F33B1A3699842BFD3236803209847AD
:10587000BBE7A3699842B8D1236803209847B4E7EF
:1058800040F20043C4F2002301221A7502B004BCA6
:105890009046F0BD70B505004AF26031C2F20001D9
:1058A0000222442000F0F7FD4AF24031C2F200012A
:1058B0000422452000F0EFFD4AF24821C2F2000127
:1058C00001224E2000F0E7FD4AF23821C2F2000129
:1058D00002224F2000F0DFFD00220021242000F0F2
:1058E000DAFD43F20003C4F2000340F200425A61C1
:1058F00008229A612C0041F2802C6544012120008D
:1059000002F001FA0134AC42F8D143F20003C4F2D0
:10591000000340F200429A61022001F08AFA6420FA
:1059200001F087FA4AF27031C2F20001012222200E
:1059300000F0B1FD00220021202000F0ACFD00228B
:105940000021FF2000F0A7FD40F2E83001F071FADD
:1059500070BD70B50D00002954D0002855D14AF211
:105960000014C2F2000438230122E2540B68636081
:10597000DB689847E0600026A0220023002101F0A8
:1059800007FB46F60042C0F2DC22002301F0A4FB34
:10599000022200238018594120620423EB5623720F
:1059A00026614FF6FF73A3615B08E36100220023C9
:1059B000A262E36266633023E65445F2C310C0F28C
:1059C000040063681B680021984763681A690AB17C
:1059D000208B90474AF20014C2F20004E06980B2C2
:1059E00063685B69984763685B68984749F6484015
:1059F000C2F20000A022002102F0E2F8022323708C
:105A0000200070BD01204042FBE701204042F8E742
:105A1000F8B540F60006C4F2002604274AF28004D6
:105A2000C2F2000417E0226A12B3616A236A0120FD
:105A30009847A36A0133226B93429241134017E0C7
:105A4000A16AEDB249F66852C2F200025554A3624F
:105A50003423E35C0BBB337E3B4235D0B56AA36A8B
:105A60000133226B934292411340E26A9A42DAD0A8
:105A7000E26A9A42EFD0716807220A40012ADFD118
:105A8000A26A5200E8B249F66851C2F20001885495
:105A90000132ADB22D0A8D54D9E701F07CFE236AA4
:105AA000002BD8D0616A3C23E35C33B1A36B9842EE
:105AB000D1D3236A00209847CDE7A36B9842CAD17F
:105AC000236A00209847C6E7F8BDF8B540F20046C3
:105AD000C4F2002604274AF2C004C2F2000417E010
:105AE000226A12B3616A236A01209847A36A0133CC
:105AF000226B93429241134017E0A16AEDB249F63E
:105B00006862C2F200025554A3623423E35C0BBB0B
:105B1000337E3B4235D0B56AA36A0133226B934290
:105B200092411340E26A9A42DAD0E26A9A42EFD096
:105B3000716807220A40012ADFD1A26A5200E8B246
:105B400049F66861C2F2000188540132ADB22D0AF3
:105B50008D54D9E701F043FE236A002BD8D0616A47
:105B60003C23E35C33B1A36B9842D1D3236A00207A
:105B70009847CDE7A36B9842CAD1236A0020984783
:105B8000C6E7F8BD40F60003C4F2002340F2041259
:105B9000C4F210021A60284A9A81C02292025A6006
:105BA00040F60002C4F20022D369002BFCD140F67B
:105BB0000003C4F200231A6802210A431A6040F667
:105BC0000002C4F20022D369002BFCD14AF2800308
:105BD000C2F2000300221A629A62DA6234215A5435
:105BE00008315A549A630021DA871A609A60DA60A1
:105BF000197519779A6140F60003C4F200235A68B8
:105C000007231340012B0FD04AF28003C2F2000396
:105C100080221A631A6140F60003C4F20023802236
:105C20009A757C3A9A7570474AF28003C2F2000373
:105C300040221A631A61EEE72BF6FFFF40F20043A1
:105C4000C4F2002340F20412C4F210021A60284A7F
:105C50009A81C02292025A6040F20042C4F20022AD
:105C6000D369002BFCD140F20043C4F200231A6830
:105C700002210A431A6040F20042C4F20022D369B2
:105C8000002BFCD14AF2C003C2F2000300221A62C8
:105C90009A62DA6234215A5408315A549A630021C4
:105CA000DA871A609A60DA60197519779A6140F29A
:105CB0000043C4F200235A6807231340012B0FD07E
:105CC0004AF2C003C2F2000380221A631A6140F252
:105CD0000043C4F2002380229A757C3A9A7570477B
:105CE0004AF2C003C2F2000340221A631A61EEE7CF
:105CF0002BF6FFFFF0B5D6464F464646C0B504002A
:105D00000D009246984647F60407C0F20407FE6865
:105D100001E07B689847B0470028FAD129002000AD
:105D200001F074FA002547F60407C0F2040703E007
:105D30000120FB6998470135B04704000028F7D0DF
:105D4000412DF5D9002547F60407C0F2040749F6AE
:105D5000CC79C2F2000904E07B6898474B46E854CE
:105D60000135B0470028F7D1A84518D1E5B149F66B
:105D7000CC73C2F200031A7853461B789A420ED1B4
:105D8000002349F6CC76C2F2000601339D4205D0CD
:105D9000995D5246D25C9142F7D000E020001CBCD5
:105DA00090469946A246F0BD2000F8E710B5882934
:105DB0003AD014DC81294AD003DC802947D0002066
:105DC00010BD822910D08429F9D119682AB30A1D7F
:105DD0001A6000228B5E0360DB17436010E0A0298D
:105DE0002ED00FDC9029EAD1196807246AB309196B
:105DF000A1430A0008321A600B684C6803604460D3
:105E00000120DDE7C02901D0F029D8D11A68111D81
:105E10001960136803600023DFE70C1D1C600B682A
:105E20009BB203604260EBE7196822B10A1D1A6059
:105E30000023CB56CFE70C1D1C600B68DBB2F0E7EC
:105E40001A68111D19601368C5E70731D0E7196892
:105E50001AB10A1D1A600B68BDE70C1D1C600B68A7
:105E6000DFE7F0B54B6889B005930B6807009C46E7
:105E70000793CB680C008E6810685168CD0F0493AF
:105E8000002D41D00B000200002150429941059B9A
:105E9000002B07DB022263469343079315B9079B48
:105EA0005A0728D5731E07AA02920A22009301926C
:105EB0000B000200200000F046FA15B9079B5A07B4
:105EC0001DD501382D2305B9023B049A13542369CB
:105ED0005A1E049B121A1918079B380000933300AE
:105EE00000F0BAF97B68DB0503D56368984200DAF5
:105EF000180009B0F0BD1B07DB0FF31AD3E71B072F
:105F0000E5D501382023E0E7059B002BC2DAC6E780
:105F1000F0B5D6464F464646C0B584464AF28002A2
:105F2000C2F20002D36A966A00293DD0B3423ED045
:105F30000400012040F6000AC4F2002A40F20708DB
:105F400049F66855C2F2000515E0EA5C91466246E2
:105F5000013A4F46175401334AF28002C2F200025E
:105F6000126B934292411340884212D2421C023477
:105F7000B3420FD010005246526847463A40012AB9
:105F8000E3D15A00AF5C27700132AA5C6270013322
:105F9000E2E71E004AF28003C2F20003DE621CBC8C
:105FA00090469946A246F0BD1E000800F2E7002088
:105FB000F0E7F0B5D6464F464646C0B584464AF2AD
:105FC000C002C2F20002D36A966A00293DD0B342F1
:105FD0003ED00400012040F2004AC4F2002A40F200
:105FE000070849F66865C2F2000515E0EA5C9146CB
:105FF0006246013A4F46175401334AF2C002C2F2D8
:106000000002126B934292411340884212D2421C0A
:106010000234B3420FD010005246526847463A400D
:10602000012AE3D15A00AF5C27700132AA5C62708A
:106030000133E2E71E004AF2C003C2F20003DE624F
:106040001CBC90469946A246F0BD1E000800F2E72F
:106050000020F0E748524253205365740D000000C1
:1060600050726573732074686520557365722042A1
:106070007574746F6E20746F205374617274204D48
:106080006561737572696E67207468652048656123
:10609000727420526174650D0000000021212120DE
:1060A0004D6561737572696E672048656172742011
:1060B00052617465202121210D0000002564627069
:1060C0006D00000025780000313030352C30330071
:1060D000313030320000C046F0B51600050002270E
:1060E0008369426987B00293D31A03939B19049181
:1060F0000596019302AC3A002100286801F012FBDA
:10610000019B984208D1AB68EA68AB619A18AA6211
:106110006B61300007B0F0BD00280CDA10220023BC
:106120006968AB620A43AB616B616A60022F12D08F
:106130006368F61AEDE7019B1B1A019363689842A6
:1061400002D9C01A0834013F23681B182360636812
:10615000181A6060CFE71E00DBE7FEE7F7B51E4CBC
:10616000256801942B0065B1002229001600130058
:106170000F68BC460F6984450AD132B117610B0024
:1061800010331800FEBD3900F2E7019B1F60F6E7EF
:10619000844503D9D3B11C68A44517D30A00002F46
:1061A000F1D1002BEDD01F001A681969121A1037AF
:1061B000102A05D91860381801610100103A0260F0
:1061C0009D4206D1019B19603B00DAE716000B00E7
:1061D000E4E73161F8E7C04624A20020F8B5846AFC
:1061E00005000F00160054B1AB6A6A699B1AB342EE
:1061F0000CD2320039002800FFF76EFF05E001F0F5
:1062000047FC03002000002BEED0F8BD002EF0D09C
:106210002B0034331B785BB2002B1BDB3400DBB26A
:10622000621EB95C994212D1220039002800FFF7A2
:1062300053FFA042E9D33F19341B2200390068699B
:1062400001F0B4FC6B6930001C196C61DDE71400CF
:10625000002AE5D13400F0E7F0B51D00012389B034
:1062600014000E9A06001A40039102920AB9A54240
:106270000AD822000399300001F040F8A54203D863
:106280002500280009B0F0BD2F1B01973A00102F00
:1062900000D91022202104A801F092FC019B0F2BB1
:1062A0000ED80F2204A93A40300001F027F8029BD3
:1062B000002BE6D122000399300001F01FF8E0E73F
:1062C000102204A9300001F019F8019B103B019342
:1062D000E4E730B585B001AA46F64C73C0F204037A
:1062E000103330CB30C21B8813804AF24013C2F205
:1062F000000353221A70053A5A70223A9A7001B379
:106300000023C45C4AF24012C2F200029A18D47010
:106310000133DAB29142F4D80B004AF24010C2F2D3
:106320000000DA1CD2B20D2484540433DBB20A22FA
:10633000C2540531C9B20A2301AAFFF7DBFC05B03C
:1063400030BD0B00E9E7F7B5040019000A9FE368C8
:10635000666800933B68100001932369013B1C00B1
:10636000002E00DA01260022009DEA5435000123A8
:10637000002C02DCE3B12000FEBD02000A434AB952
:10638000002D07DC089A921B5219002AF2DD019AAF
:106390009207EFD5099B099ADB1700F09DFE8C460A
:1063A0000099013C130030320A55013D6146DFE798
:1063B00010233A689A433A60DDE710B584B001AA29
:1063C00046F64C73C0F20403103312CB12C21B8882
:1063D000138002094AF24013C2F2000353211970DC
:1063E00059702739997011005731092A01D8303274
:1063F00011004AF24013C2F20003D9700F23184073
:1064000003005733092800D8273B4AF24010C2F254
:10641000000003710D234371033B837101AA07211F
:10642000FFF768FC04B010BD30B585B001AA46F690
:106430004C73C0F20403103330CB30C21B8813807E
:106440004AF24013C2F2000353221A700F3A5A70F4
:10645000033A9A70153ADA7059B10023C45C4AF2D3
:106460004012C2F200029A1814710133DAB291425A
:10647000F4D84AF24010C2F200000B1DDBB20D222C
:10648000C2540531C9B20A23435401AA0A21FFF7B5
:1064900031FC05B030BDF0B583B00C0017006B4681
:1064A000D87143F20002C4F2000244F20001136A00
:1064B0001942FCD143F20005C4F2000540F200434A
:1064C0006B6108266E6101216B46D81D01F01BFC33
:1064D000AE618FB943F20003C4F2000340F2004200
:1064E0009A6143F20002C4F2000244F20001136A0E
:1064F0001942FCD103B0F0BD3900200001F003FCCB
:10650000E8E730B585B001AA46F64C73C0F2040343
:10651000103330CB30C21B8813804AF24013C2F2D2
:10652000000350221A7003325A70273A9A7059B1F8
:106530000023C45C4AF24012C2F200029A18D470DE
:106540000133DAB29142F4D84AF24010C2F20000AC
:10655000CB1CDBB20D22C2540431C9B20A2343540E
:1065600001AA0921FFF7C6FB05B030BD30B585B0E3
:1065700001AA46F64C73C0F20403103330CB30C28C
:106580001B8813804AF24013C2F2000350221A7093
:106590000D3A5A70173A9A7059B10023C45C4AF206
:1065A0004012C2F200029A18D4700133DAB291425A
:1065B000F4D84AF24010C2F20000CB1CDBB20D222C
:1065C000C2540431C9B20A23435401AA0F21FFF770
:1065D00091FB05B030BD10B584291FD007DC81299F
:1065E00015D0822922D0802911D0002010BD9029F9
:1065F0001CD008DC8829F8D119680C1D1C600B68B8
:1066000003601A7010E0A02901D0C029EDD11968EB
:106610000C1D1C600B6803601A6005E019680C1DF6
:106620001C600B6803601A800120DFE719680C1DED
:106630001C600B6803601A60D2175A60F4E710B54B
:1066400040F60003C4F200235B8B0722134003B91A
:1066500010BD4AF28002C2F20002D38740F6000366
:10666000C4F2002380221A76793A5A831B7E5B0794
:1066700008D540F60003C4F2002304219A6A1A7E6A
:106680000A42FBD14AF28003C2F200031B6A002BCC
:10669000DED04AF28003C2F20003596A1B6A02206C
:1066A0009847D5E710B540F20043C4F200235B8B56
:1066B0000722134003B910BD4AF2C002C2F2000221
:1066C000D38740F20043C4F2002380221A76793A3D
:1066D0005A831B7E5B0708D540F20043C4F20023B7
:1066E00004219A6A1A7E0A42FBD14AF2C003C2F21E
:1066F00000031B6A002BDED04AF2C003C2F2000383
:10670000596A1B6A02209847D5E710B540F6000386
:10671000C4F200239B7D1BB340F60002C4F20022AA
:10672000137EDBB2927D52B2002A1ADB40F60003E0
:10673000C4F200231A7ED2B29B7DDB0703D5D307B8
:1067400001D5FEF7E1FF40F60003C4F200231A7EF4
:10675000D2B29B7D5B0703D5530701D5FFF758F9EC
:1067600010BD5BB2002BE1DAFFF769FFDEE710B581
:1067700040F20043C4F200239B7D1BB340F2004271
:10678000C4F20022137EDBB2927D52B2002A1ADBE1
:1067900040F20043C4F200231A7ED2B29B7DDB0795
:1067A00003D5D30701D5FFF712F840F20043C4F236
:1067B00000231A7ED2B29B7D5B0703D5530701D518
:1067C000FFF783F910BD5BB2002BE1DAFFF76AFF38
:1067D000DEE710B54AF25823C2F200031B681868BE
:1067E000002101F026FA4AF23C33C2F200031B6892
:1067F0001868002101F01DFA00F034FA00F0DFF90A
:10680000FFF7C0F9FFF71AFA00F0A0FF00F0ECFA6A
:1068100000F02AF947F6A851C0F204010020FFF762
:1068200098F84AF21423C2F20003186001F056FAF5
:10683000FEF79EFA10BD7FB51600C2680D0013006A
:106840000091591E8B41F31A01938368040003924F
:10685000694602220068029300F050FF002808DC1D
:106860001822082302405340626813436360060005
:106870000FE0019B8342FAD2A268C01AE3681018A5
:10688000E26320642BB1531CE3631378AD19013D1F
:106890002B70300004B070BD10B501004AF2001337
:1068A000C2F200035A6B12B3824204D183699BB1D6
:1068B000002206E01A009369DBB19942FAD18B6994
:1068C00023B18C689868001998603AB18B6993611C
:1068D000002000238B6110BD1A00F6E74AF2001376
:1068E000C2F200035A6B92695A630120F1E700205B
:1068F000F1E70020EFE770B588B0040001AA46F682
:106900004C73C0F204032833110061CB61C161CB29
:1069100061C11B680B604AF24010C2F200005323B1
:1069200003700D3B43701A3B837004711F3B43712E
:10693000033B837112330621FFF7DCF9040047F6AD
:106940000403C0F20403DB69FA209847200008B072
:1069500070BDFEE700230E4A10B513600D4A0E4CC1
:1069600013600E4A13600E4A13600E4A13600E4AFB
:10697000536213610133936001F07EF900F04BFB29
:106980000A4B9C4200D310BD08CC9847F8E7C0469C
:106990001CA200203CA000206801040038A00020B8
:1069A00030A0002034A0002040A000206C01040092
:1069B00037B5144D04002B6873B100F089FF0190C6
:1069C00001A801F0C9F80F230F309843019901F095
:1069D00013F858B100232B6004B901340F230F348E
:1069E0009C4324B90C222000074B1A603EBD042CA6
:1069F00000D204242000FFF7B1FB0028F6D0031FCB
:106A00001C60F3E750A3002020A2002070B5040012
:106A10000D0008B9002070BD43689B0607D5436987
:106A20008269934215D80023A362A3616361E16B7D
:106A3000236C994204D2C91A0122206801F0D8F9C6
:106A400000232364E363002DE4D0206801F0C0F943
:106A5000E1E70022C36A110098476369002BE2D185
:106A600001204042D7E7704741F60043C4F20023BB
:106A700001221A6041F60042C4F20022012113698A
:106A80001942FCD141F60043C4F2002310221A60DF
:106A90000D3A1A73094A9A8333229A724AF2EC1217
:106AA000C2F200020021116020225A7241F6004217
:106AB000C4F200221369002BFCD170477FBBFFFF9B
:106AC00010B584B001AA46F64C73C0F204031C331F
:106AD000110011CB11C1188808809B788B704AF285
:106AE0004010C2F2000052230370263B437005336E
:106AF0008370243B0371033B437101330521FFF78E
:106B0000F9F8040047F60403C0F20403DB69FA2035
:106B10009847200004B010BD10B546F66723C0F2B8
:106B20000403984746F66723C0F20403984700F031
:106B3000A5FC40F20003C0F204037F2293434EF60B
:106B40000052CEF20002936046F65513C0F20403E1
:106B5000984746F66723C0F20403984746F6672332
:106B6000C0F20403984701F05BF8FEE730B54AF243
:106B70000423C2F2000318604AF23223C2F2000377
:106B8000C5782D02847864191C804AF22E23C2F243
:106B9000000345792D02047964191C804AF22A23E6
:106BA000C2F20003807918804AF2EA13C2F20003AD
:106BB00019804AF22923C2F200031A7030BD4AF24A
:106BC0008013C2F2000300221A621A779A60DA6018
:106BD00040F60043C4F20023802292025A6040F63D
:106BE0000042C4F20022D369002BFCD140F60043DE
:106BF000C4F2002300221A730E32C3F230021A606C
:106C000040F60042C4F20022D369002BFCD1704749
:106C1000F8B505000C00002015B300F08CFBD4B1D2
:106C2000002041F20002C4F200220421072605E000
:106C3000976A4300EF52013084420DD0137E0B421D
:106C4000FCD0538B334207D153683340012BEFD034
:106C5000936A2B54EFE72000201A44426041C0B2EF
:106C6000F8BD704741F20003C4F2002340F2041261
:106C7000C4F210021A600E4A9A81C02292025A602F
:106C800041F20002C4F20022D369002BFCD141F290
:106C90000003C4F200231A6802210A431A6041F279
:106CA0000002C4F20022D369002BFCD17047C04619
:106CB0002BF6FFFF70B5104C0500236863B1002D63
:106CC00012DA0E4B22681B68D31A6A42934208DB21
:106CD00020684519256006E000F050FC2368002B71
:106CE000EDD10120404270BD054B22681B689B1A04
:106CF000AB42EDDAF5E7C046D4A10020DCA10020CC
:106D0000D8A1002070B5040016001D00022A1AD078
:106D100043689B0617D439B90DB940F200452800E5
:106D20000830FFF745FE010020236268A16013438D
:106D300063602300E5603433FF22012E00D10A2274
:106D40001A70024BE362002070BDC046DD61040092
:106D500030B51500012289B0524201920432FF324F
:106D6000029200B9684603900491002401B14C1EC0
:106D70000594002906DA4F220120074B40421A6091
:106D800009B030BD00220790027006901A00290059
:106D900001A800F071FEF3E720A2002037B56B4692
:106DA000DD1D836A0400297063B16369A26A93429E
:106DB0000FD3E36A0122290020009847012805D15A
