:020000040000fa
:1090000078ff0020139a00006b9d0000f39e000083
:109010000000000000000000000000000000000050
:10902000000000000000000000000000c7a00000d9
:109030000000000000000000c7a00000c7a0000062
:10904000c7a00000c7a00000c7a00000c7a0000084
:10905000c7a00000c7a00000c7a00000c7a0000074
:10906000c7a00000c7a00000c7a00000c7a0000064
:10907000c7a00000c7a00000c7a00000c7a0000054
:10908000c7a00000c7a00000c7a00000c7a0000044
:10909000c7a00000c7a00000c7a00000c7a0000034
:1090a000c7a00000c7a00000c7a00000c7a0000024
:1090b000c7a00000c7a00000c7a00000c7a0000014
:1090c000c7a00000c7a00000c7a00000c7a0000004
:1090d000c7a00000c7a00000c7a00000c7a00000f4
:1090e000c7a00000c7a00000c7a00000c7a00000e4
:1090f000c7a00000c7a00000c7a00000c7a00000d4
:10910000c7a00000c7a00000c7a00000c7a00000c3
:10911000c7a00000c7a00000c7a00000c7a00000b3
:10912000c7a00000c7a00000c7a00000c7a00000a3
:10913000c7a00000c7a00000c7a00000c7a0000093
:10914000c7a00000c7a00000c7a00000c7a0000083
:10915000c7a00000c7a00000c7a0000078ff002043
:10916000139a00006b9d0000f39e000000000000b9
:1091700000000000000000000000000000000000ef
:109180000000000000000000c7a000000000000078
:1091900000000000c7a00000c7a00000c7a000009a
:1091a000c7a00000c7a00000c7a00000c7a0000023
:1091b000c7a00000c7a00000c7a00000c7a0000013
:1091c000c7a00000c7a00000c7a00000c7a0000003
:1091d000c7a00000c7a00000c7a00000c7a00000f3
:1091e000c7a00000c7a00000c7a00000c7a00000e3
:1091f000c7a00000c7a00000c7a00000c7a00000d3
:10920000c7a00000c7a00000c7a00000c7a00000c2
:10921000c7a00000c7a00000c7a00000c7a00000b2
:10922000c7a00000c7a00000c7a00000c7a00000a2
:10923000c7a00000c7a00000c7a00000c7a0000092
:10924000c7a00000c7a00000c7a00000c7a0000082
:10925000c7a00000c7a00000c7a00000c7a0000072
:10926000c7a00000c7a00000c7a00000c7a0000062
:10927000c7a00000c7a00000c7a00000c7a0000052
:10928000c7a00000c7a00000c7a00000c7a0000042
:10929000c7a00000c7a00000c7a00000c7a0000032
:1092a000c7a00000c7a00000c7a00000c7a0000022
:0892b000c7a00000c7a00000e8
:020000040000fa
:1092b800f8b5c046f8bc08bc9e467047a19c0000a3
:1092c800f8b5c046f8bc08bc9e4670477d9c0000b7
:020000040000fa
:1092d800580400201c000000000000008804002042
:1092e80004000000000000000804002050000000f6
:1092f80000000000980400206c000000010000003d
:10930800a4040020a0040020a40400200000000001
:1093180025000000080000200004000000000000f4
:109328000000000000000000000000000000000035
:10933800000000000000000000000000dba00000aa
:109348000000000000000000000000000000000015
:109358004798000000000000000000000000000026
:1093680000000000000000000000000000000020d5
:109378000804000000000000640500202000000030
:1093880001000000010000000300000000000000d0
:1093980000000000000000000000000000000000c5
:1093a8008004002080040020080000000000000065
:1093b8008c040020040000000000000004050020c8
:1093c8006000000001000000010000000300000030
:1093d8000000000000000000000000000000000085
:1093e800000000006199000000000000000000007b
:1093f80000000000ada00000e9a00000000000008f
:109408000000000000000000000000000000000054
:109418000000000000000000000000000000000044
:109428000000000000000000840500200400000087
:109438000100000001000000900400200800000066
:1094480000000000740400200c0000000000000070
:1094580000000000000000006666666666666666d4
:020000040000fa
:1094680041f20003c4f200030220187641f20041e1
:10947800c4f2000100220a7441f60001c4f200019e
:1094880008621a8641f20002c4f2000280214904ef
:1094980013690b42fcd046f22003c0f280031b681c
:1094a8005b009b0e9b0240f200221343d200c4f2e1
:1094b8000002536341f20002c4f200028021490411
:1094c80013690b42fcd041f20003c4f200030222ec
:1094d8001a86d202c4f200028021490413690b42a1
:1094e800fcd041f60043c4f2000340f20712c0f278
:1094f80001021a6241f60042c4f2000204215368d4
:109508001942fcd141f60043c4f20003d0224021a5
:10951800995041f60042c4f20002d0201358194273
:04952800fcd07047bc
:020000040000fa
:10952c000d0a23232323232323204e657720417008
:10953c00706c69636174696f6e206c6f61646564d3
:10954c002066726f6d20466c617368202323232381
:10955c002323230d00000000232323232323232074
:10956c00507265737320616e6420486f6c64207454
:10957c0068652053573020746f2072652d747269a2
:10958c006767657220426f6f746c6f6164657220df
:10959c00232323232323230d000000002323232331
:1095ac0023232320426f6f746c6f616465722054a7
:1095bc007269676765726564202323232323232341
:0495cc000d00c04688
:020000040000fa
:1095d00010b5002000f0f1f900f008fd49f22c5020
:1095e000c0f2000000f038fc49f26450c0f2000004
:1095f00000f032fc43f20023c4f2000340f22012d8
:109600009b58db0210d543f20024c4f2000440f260
:10961000e83000f0edfa40f21c1380221203e25011
:109620000433e358db02f2d449f2a850c0f2000040
:1096300000f012fc8022920544f24d33c5f248033b
:10964000136053609360d360bff34f8f4ef60053a7
:10965000cef200030422c0f2fa52da60bff34f8f59
:04966000c046fde71c
:020000040000fa
:10966400f0b51600050002278369426987b00293aa
:10967400d31a03939b1904910596019302ac3a0003
:109684002100286800f00efc019b984208d1ab68c9
:10969400ea68ab619a18aa626b61300007b0f0bd4a
:1096a40000280cda102200236968ab620a43ab611c
:1096b4006b616a60022f12d06368f61aede7019bb2
:1096c4001b1a01936368984202d9c01a0834013ff7
:1096d40023681b1823606368181a6060cfe71e00b4
:0296e400dbe7c2
:020000040000fa
:0296e6007047cb
:020000040000fa
:1096e800f7b51e4c256801942b0065b100222900ae
:1096f800160013000f68bc460f6984450ad132b1c1
:1097080017610b0010331800febd3900f2e7019b0a
:109718001f60f6e7844503d9d3b11c68a44517d365
:109728000a00002ff1d1002bedd01f001a6819692b
:10973800121a1037102a05d918603818016101006b
:10974800103a02609d4206d1019b19603b00dae79e
:1097580016000b00e4e73161f8e7c04690040020ea
:020000040000fa
:10976800f8b5846a05000f00160054b1ab6a6a693f
:109778009b1ab3420cd2320039002800fff76eff63
:1097880005e000f016fc03002000002beed0f8bd29
:10979800002ef0d02b0034331b785bb2002b1bdb80
:1097a8003400dbb2621eb95c994212d12200390042
:1097b8002800fff753ffa042e9d33f19341b2200ca
:1097c8003900686900f02efc6b6930001c196c6167
:0c97d800dde71400002ae5d13400f0e7c2
:020000040000fa
:1097e40043f20023c4f200030022da660121d420ec
:1097f400195401301954b931b338585432315a50cc
:109804000021c0f60801de3019500021c1f618010c
:109814001030195040f253115a544e39ff39443024
:10982400195407301a54013019543431ff315a5441
:1098340001315a5403315a5401315a542e315a5079
:0298440070476b
:020000040000fa
:109846007fb51600c2680d0013000091591e8b41aa
:10985600f31a0193836804000392694602220068a2
:10986600029300f00afb002808dc182208230240b5
:10987600534062681343636006000fe0019b834216
:10988600fad2a268c01ae3681018e26320642bb10a
:10989600531ce3631378ad19013d2b70300004b0ff
:0298a60070bd93
:020000040000fa
:1098a80000230e4a10b513600d4a0e4c13600e4a81
:1098b80013600e4a13600e4a13600e4a5362136116
:1098c8000133936000f0e6fb00f008fc0a4b9c4271
:1098d80000d310bd08cc9847f8e7c0468c04002098
:1098e80014040020c4920000100400200804002082
:0c98f8000c04002018040020c89200009e
:020000040000fa
:1099040037b5144d04002b6873b100f0f1fa0190df
:1099140001a800f074fb0f230f309843019900f065
:1099240023fb58b100232b6004b901340f230f34f7
:109934009c4324b90c222000074b1a603ebd042c22
:1099440000d204242000fff7cdfe0028f6d0031f28
:0c9954001c60f3e7840500209404002050
:020000040000fa
:1099600070b504000d0008b9002070bd43689b0667
:1099700007d543698269934215d80023a362a36186
:109980006361e16b236c994204d2c91a01222068f9
:1099900000f0a5fb00232364e363002de4d02068de
:1099a00000f096fbe1e70022c36a11009847636963
:0a99b000002be2d101204042d7e76e
:020000040000fa
:1099ba0010b500f09cf945f20003c4f2001304222a
:1099ca005a6040f29c43c2f200031b6818680021e7
:1099da0000f044fb40f28053c2f200031b6818688f
:1099ea00002100f03bfbfff7f8fefff738fd00f01f
:1099fa005ef800f02afbfff771fe00f0c0fa00f0f3
:089a0a00cbfa00f053fb10bd84
:020000040000fa
:109a120010b549f6d373c0f20003984749f6d373e1
:109a2200c0f20003984700f0a0f949f20003c0f227
:109a320000037f2293434ef60052cef2000293605f
:109a420049f6a903c0f20003984749f6d373c0f25e
:109a52000003984749f6d373c0f200039847fff713
:049a6200b6fdfee768
:020000040000fa
:109a6600f8b505000c00002015b300f05ff9d4b17d
:109a7600002041f20002c4f200220421072605e07c
:109a8600976a4300ef52013084420dd0137e0b4299
:109a9600fcd0538b334207d153683340012befd0b0
:109aa600936a2b54efe72000201a44426041c0b26b
:029ab600f8bdf9
:020000040000fa
:109ab80041f20003c4f2002340f20412c4f210027f
:109ac8001a600e4a9a81c02292025a6041f200023c
:109ad800c4f20022d369002bfcd141f20003c4f286
:109ae80000231a6802210a431a6041f20002c4f2f4
:109af8000022d369002bfcd17047c0462bf6ffff2c
:020000040000fa
:109b080070b5104c0500236863b1002d12da0e4bb6
:109b180022681b68d31a6a42934208db20684519f9
:109b2800256006e000f052f92368002bedd10120f2
:109b3800404270bd054b22681b689b1aab42eddaa8
:109b4800f5e7c046740400207c0400207804002057
:020000040000fa
:109b580070b5040016001d00022a1ad043689b063f
:109b680017d439b90db940f2004528000830fff77d
:109b7800c5fe010020236268a160134363602300cf
:109b8800e5603433ff22012e00d10a221a70024bfd
:0c9b9800e362002070bdc0466997000029
:020000040000fa
:109ba40037b56b46dd1d836a0400297063b16369b0
:109bb400a26a93420fd3e36a012229002000984746
:109bc400012805d1287805e000f0f5f90028eed049
:109bd400012040423ebd220034321278287852b22d
:0c9be4009042e8d05a1c62611870f3e750
:020000040000fa
:109bf00070b54ef21003cef200035e681b68db07ff
:109c00001ad54bf6803358434ef21003cef20003c0
:109c10009b6888b100214ef21005cef2000506e0e7
:109c2000741ca41ae318c9181300884204d9aa683e
:0a9c30009a42f5d89b1af6e770bdc2
:020000040000fa
:109c3a0070b5d0b1d9b1002541f20002c4f20022b8
:109c4a000124072605e06b00c35a93620135a94235
:109c5a0009d0137e2342fcd053683340012bf2d043
:109c6a00435d9362f2e7012070bd0020fce701200a
:029c7a00fae707
:020000040000fa
:109c7c0010b5054c227832b9044b13b1044800e0fe
:109c8c0000bf0123237010bd580400200000000009
:109c9c0000000000034b10b51bb10349034800e062
:109cac0000bf10bd000000005c040020000000009c
:020000040000fa
:109cbc000b00496810b50200890603d4190000f0a6
:109ccc0069f810bd190034310978c0b249b281422b
:109cdc0007d059699c6aa14203d24c1c5c610a7082
:0c9cec00efe711001800fff757ffeae750
:020000040000fa
:109cf80040f20043c4f2000300221a819a7901213c
:109d08000a439a719b7803221340022b0cd040f22d
:109d18000043c4f20003013a9a705202c4f20002ee
:0a9d2800012193790b42fcd0704733
:020000040000fa
:109d320041f20003c4f200235b8b5b0713d041f2b4
:109d42000003c4f2002380221a76793a5a831b7eda
:109d52005b0708d541f20003c4f2002304219a6a8a
:089d62001a7e0a42fbd1704792
:020000040000fa
:029d6a00fee712
:020000040000fa
:109d6c0010b50a48016821b9436813b900f0b3f97a
:109d7c0010bd04008368064a9bb20c349b009b58b0
:109d8c0042682000984780002018ebe7d89200002a
:049d9c0018a000000b
:020000040000fa
:109da00013b50b006a46d41d5a68c1b22170d205a2
:109db00005d55a69c0b2541c5c61117016bd0122f0
:109dc0002100180000f058f908b12078f6e70120ca
:049dd0004042f3e733
:020000040000fa
:109dd400064b1a680ab9064a1a60064a116809b994
:109de400054911601a68054b1a6070477c0400200d
:109df40090050020780400209007002074040020bf
:020000040000fa
:109e0400020000234832d356591e0b431370042317
:109e1400426813402bb11023134343600120404296
:0a9e240070470364c3631800fae7f7
:020000040000fa
:109e2e0070b5140016000a004e430d00511e8a41f3
:109e3e005242144001003200180000f016f986421a
:0a9e4e0001d0b0fbf5f4200070bd58
:020000040000fa
:109e580010b5084c2368196800f036f8012300286b
:109e680005db23680a20196800f025f9c30f58425a
:089e780010bdc046800500206a
:020000040000fa
:109e8000f7b5002507000c002e000192019b9e42b1
:109e900001db2800febd62682168380000f03af856
:089ea00001362d180834f1e72a
:020000040000fa
:109ea800f7b5002507000c002e000192019b9e4289
:109eb80001db2800febd62682168380000f044f824
:089ec80001362d180834f1e702
:020000040000fa
:109ed00070b50e00050000f07df8330004000200ac
:109ee00001212800fff7a3ff001b431e98414042b9
:029ef00070bd43
:020000040000fa
:029ef200fee789
:020000040000fa
:109ef40010b5054c22680ab9fff76aff034b1868ce
:109f04002368c01a10bdc0467404002078040020e1
:020000040000fa
:109f140010b503000c00002043b9180032b1012130
:0e9f24002000fff79efd0028f9d0012010bd9f
:020000040000fa
:109f3200002310b5934206d103201840421e9041df
:0e9f42009b08c01810bdc45ccc540133f2e77c
:020000040000fa
:109f500070b50d001400012801d0200070bd210053
:0c9f60002800fff76afe0028f9d0f6e7a1
:020000040000fa
:109f6c00054a10b5146800231cb910600361016028
:0c9f7c000133180010bdc0469004002006
:020000040000fa
:109f88004ef21003cef2000300221a609a604bf6dc
:0a9f98007f325a6004221a607047fd
:020000040000fa
:109fa20043f20023c4f2000340f218128021090395
:089fb200995009029950704713
:020000040000fa
:109fba0010b50400fff721ff28b9a368e268a3617e
:089fca0063619b18a36210bd46
:020000040000fa
:029fd2007047d6
:020000040000fa
:109fd400037833b1030001331a78002afbd1181a2d
:089fe40070470020fce7c046b5
:020000040000fa
:109fec004ef21003cef2000300229a601a6801218f
:069ffc000a431a607047e1
:020000040000fa
:10a00200006810b5002801da002010bdfff77bfdc3
:06a01200431cfad1f8e73f
:020000040000fa
:10a018008ba00000339f0000d7a00000d7a000004d
:04a02800d7a00000bd
:020000040000fa
:10a02c0010b52ab10023cc5cc45401339342fad14d
:04a03c0010bdc0464d
:020000040000fa
:10a0400010b500f041f8024b1860586010bdc046d2
:04a050008004002068
:020000040000fa
:10a0540045f20003c4f2001306225a60053a1a724c
:02a06400704743
:020000040000fa
:10a066004a424a4110b5520040f20043fff771fde3
:02a0760010bd1b
:020000040000fa
:10a07800c36a10b50bb1984710bd0068fff764ffbd
:02a08800fae7f5
:020000040000fa
:10a08a008a18914201d10020704700230b700131d8
:02a09a00f7e7e6
:020000040000fa
:10a09c0010b5fff7cfff00f020f800f01ef810bd50
:020000040000fa
:0aa0ac0010b50068fff74eff10bd6d
:020000040000fa
:08a0b600bff35f8f62b6704733
:020000040000fa
:08a0be0010b5fff7fcfd10bd19
:020000040000fa
:02a0c600fee7b3
:020000040000fa
:08a0c800004870470405002068
:020000040000fa
:06a0d00001204042704730
:020000040000fa
:04a0d60000207047af
:020000040000fa
:04a0da0000207047ab
:020000040000fa
:04a0de0000207047a7
:020000040000fa
:02a0e2007047c5
:020000040000fa
:02a0e4007047c3
:020000040000fa
:02a0e6007047c1
:020000040000fa
:02a0e8007047bf
:00000001FF
