:020000040000fa
:10000000f0ff00202551010083a1010085a101001e
:1000100000000000000000000000000000000000e0
:100020000000000000000000000000007fa10100af
:1000300000000000000000007fa10100017c010021
:100040007fa101007fa101007fa101007fa101002c
:100050007fa101007fa101007fa101007fa101001c
:100060007fa101007fa101007fa101007fa101000c
:100070007fa101007fa10100000000007fa101001d
:100080007fa101007fa101007fa101007fa10100ec
:100090007fa101007fa101007fa101007fa10100dc
:1000a0007fa101007fa101007fa101007fa10100cc
:1000b0007fa10100000000007fa101007fa10100dd
:1000c0007fa101007fa101007fa101007fa10100ac
:1000d0007fa101007fa101007fa101001941010062
:1000e000194101001941010019410100e17a0000a4
:1000f000e17a0000e17a0000e17a00009f780000d8
:100100009f7800009f7800009f7800007fa1010089
:100110007fa101007fa101007fa10100316c0100de
:100120007fa101007fa101007fa101007fa101004b
:100130007fa101007fa101007fa101007fa101003b
:100140007fa101007fa101007fa101007fa101002b
:0c0150007fa101007fa101007fa1010040
:020000040000fa
:10015c00f8b5c046f8bc08bc9e4670474564010023
:10016c00f8b5c046f8bc08bc9e4670472164010037
:020000040000fa
:08017c00105e0000010000000c
:020000040000fa
:100184005ce100201c00000000000000a0bb002077
:100194001e000000000000000000002024000000f9
:1001a4000000000028d80020e0000000000000004b
:1001b40004de00205400000000000000b0da00203b
:1001c400c00000000000000024000020080000001f
:1001d40000000000b0e10020140000000000000056
:1001e40050e800202000000001000000e1a0010010
:1001f400e5a001008b9a0100e9a001003ba00100e9
:1002040041a00100db9b010047a001003ce5002068
:10021400e4010000010000004b150000f79b010001
:10022400e7900100918a0100259e01009b9a01003c
:10023400ab9a01004b1500004b1500004b15000054
:100244002f9e0100a57301004b150000a787010034
:10025400c98701006d81010093810100b98101000a
:100264004b1500004b1500004b1500004b1500000a
:1002740071730100379501004b150000459701008b
:10028400698e0100b18a0100eb8701004b15000063
:100294004b1500004b1500004b1500006f45000086
:1002a4004d950100499901004b150000df810100c3
:1002b400157701001f7101004b1500004b1500005c
:1002c4004b1500004b150000a7620000d1920100fd
:1002d40001910100d18a01004b1500000b9f010020
:1002e400139f01004b1500004b1500004b15000037
:1002f4004b1500009f830000639501001b910100d2
:1003040005820100eda001004b1500004da0010085
:100314004b1500004b1500004b1500004b15000059
:10032400a7620000d1920100019101002b8201001b
:1003340053a0010059a001004b1500004b1500000b
:100344004b1500004b1500004b1500004b15000029
:100354004b1500004b1500004b1500004b15000019
:100364004b1500004b1500004b1500004b15000009
:100374004b1500004b1500004b1500004b150000f9
:100384004b1500004b1500004b1500004b150000e9
:100394004b1500004b1500004b1500004b150000d9
:1003a4004b1500004b1500004b1500004b150000c9
:1003b4004b1500004b1500004b1500004b150000b9
:1003c4004b1500004b1500004b1500004b150000a9
:1003d4004b1500004b1500004b1500004b15000099
:1003e4004b1500004b1500004b1500004b15000089
:1003f4004b1500004b1500004b150000c4e1002014
:100404001000000000000000ace200200400000026
:1004140000000000c0cb0020ec020000000000003f
:1004240014e100202400000000000000b0e70020d8
:10043400400000000100000000000000a86200006d
:100444000803000000000000000000000d00090087
:100454000000000050250000000000000c590000be
:100464005003000000000000000000000d0009001f
:1004740000000000c02c000074e700203c000000d5
:100484000100000000000000b45500005603000005
:10049400020000000400000014000000130000002b
:1004a4007c01000056030000b45500000000000069
:1004b4000000000000000000000000000000000038
:1004c40005e300200100000000000000b0e200206d
:1004d400040000000000000022e3002001000000ee
:1004e400000000002c0000201000000000000000ac
:1004f40078e100201c0000000000000023e300203d
:1005040001000000000000003c0000203400000056
:1005140000000000b4e20020080000000000000019
:100524003ce3002000020000010000000000008005
:1005340000040084100010801004f7bd108400f83b
:10054400e007e0ff1f001ff8ff07ffff0c0010008b
:1005540015001a001f00e002ec02f002f502fa0294
:10056400ff0220042c04300435043a043f046005df
:100574006c05700575057a057f05a006ac06b00606
:10058400b506ba06bf06e007ec07f007f507fa0759
:10059400ff0700600c60106015601a601f60e06265
:1005a400ec62f062f562fa62ff6220642c643064eb
:1005b40035643a643f6460656c65706575657a6539
:1005c4007f65a066ac66b066b566ba66bf66e0676e
:1005d400ec67f067f567fa67ff6700800c801080ae
:1005e40015801a801f80e082ec82f082f582fa8204
:1005f400ff8220842c84308435843a843f8460854f
:100604006c85708575857a857f85a086ac86b08675
:10061400b586ba86bf86e087ec87f087f587fa87c8
:10062400ff8700a80ca810a815a81aa81fa8e0aa5c
:10063400ecaaf0aaf5aafaaaffaa20ac2cac30ac1a
:1006440035ac3aac3fac60ad6cad70ad75ad7aad68
:100654007fada0aeacaeb0aeb5aebaaebfaee0af9d
:10066400ecaff0aff5affaafffaf00d00cd010d0c5
:1006740015d01ad01fd0e0d2ecd2f0d2f5d2fad2f3
:10068400ffd220d42cd430d435d43ad43fd460d53e
:100694006cd570d575d57ad57fd5a0d6acd6b0d665
:1006a400b5d6bad6bfd6e0d7ecd7f0d7f5d7fad7b8
:1006b400ffd700f80cf810f815f81af81ff8e0fa4c
:1006c400ecfaf0faf5fafafafffa20fc2cfc30fc0a
:1006d40035fc3afc3ffc60fd6cfd70fd75fd7afd58
:1006e4007ffda0feacfeb0feb5febafebffee0ff8d
:1006f400ecfff0fff5fffaffffff41088210e3185b
:1007040025298631c7392842694acb5a0c630c63c0
:100714000c63ae731084518cb294f39c54a596b5bb
:10072400d7bd38c679cedbde1ce77def7ce8002040
:100734000800000001000000d0e70020b0e700201e
:1007440070000020700000000000000024e300207e
:100754000100000000000000bce2002014000000c2
:100764000000000025e3002002000000000000005b
:1007740006e300200c0000000000000080a7002019
:100784002014000000000000ecdf00202c0000001a
:100794000000000012e30020100000000000000030
:1007a40024e200200c0000000000000018e00020fb
:1007b4002c00000000000000e8d90020c800000060
:1007c4000000000030e200202400000000000000cf
:1007d4009ce000202800000000000000808b002026
:1007e4000010000000000000c0780020c0120000cb
:1007f4000000000000040020c024000000000000ed
:10080400c04800200018000000000000809b002069
:10081400000c000000000000c06000200018000070
:100824000000000008d90020e000000000000000e3
:1008340038e100202400000000000000c02800204f
:10084400002000000000000020e700205400000009
:1008540001000000100000002c0100000000000056
:1008640020000000600000000000000040000000c4
:100874006000000000000000800000002000000074
:1008840000000000c4000000300000000000000070
:10089400000100001800000000000000000000003b
:1008a4000000000000000000c0bb002000080000a1
:1008b4000000000078df00203c0000000000000081
:1008c400d0e2002008000000000000008ce80020b6
:1008d400010000000100000064000000e0000020ae
:1008e400480000000000000027e300200200000090
:1008f40000000000d4e1002010000000000000000f
:1009040070e800200c00000001000000999d010027
:100914002db60000994501006ce20020080000009b
:1009240000000000d8e200200400000000000000e5
:1009340074e200201000000000000000dce200204f
:10094400080000000000000028e800202800000043
:10095400010000006500000000000000000000002d
:10096400000000000000000066000000000000001d
:1009740000000000000000000000000029e3002047
:10098400010000000000000044e000202c000000f2
:10099400000000002ae30020010000000000000025
:1009a40070e000202c00000000000000a0dc00200b
:1009b4000001000000000000f8de002040000000fc
:1009c4000000000054e200200c00000000000000c1
:1009d40084e2002008000000000000002be3002057
:1009e4000100000000000000a0dd00206400000001
:1009f400000000002ce300200100000000000000c3
:100a0400e4e20020040000000000000004e30020f1
:100a140001000000000000002de3002001000000a0
:100a240000000000e8e200200400000000000000d4
:100a340084e800200800000001000000000100001c
:100a4400303030302ee300200100000000000000b0
:100a5400ece200200400000000000000e4e10020bb
:100a64001000000000000000bebb002002000000d7
:100a74000000000018d30020000200000000000065
:100a84008ce200200800000000000000c0c3002029
:100a9400000800000000000018d50020000200003b
:100aa40000000000c4e00020280000000000000056
:100ab40094e100201c0000000000000010e8002069
:100ac4001800000001000000c4e0002094e10020b0
:100ad40060e200200000000018d5002000000000a3
:100ae400280100200200000000000000b4df002004
:100af4003800000000000000e8d0002030020000b0
:100b040000000000acce00203c0200000000000009
:100b14002fe30020020000000000000094e2002007
:100b24000800000000000000f4e1002010000000b4
:100b34000000000018d70020100100000000000091
:100b440004e2002010000000000000009ce20020ed
:100b5400080000000000000031e300200100000054
:100b6400000000002c0100207002000000000000c2
:100b740038df0020400000000000000070db00208f
:100b8400a0000000000000003ae300200200000082
:100b9400010000000100000014e200201000000029
:100ba40000000000ece0002028000000000000002d
:100bb40010dc0020900000000000000060e2002033
:100bc4000c000000000000009c0300200c0000004a
:100bd40000000000f0e2002004000000000000001b
:100be40032e30020020000000000000034e3002093
:100bf4000100000000000000f4e2002004000000f6
:100c04000000000035e300200100000000000000a7
:100c140036e30020010000000000000039e300205a
:100c240001000000010000002500000037e300205f
:100c3400020000000000000058de00205000000008
:100c440000000000a803002058000000000000007d
:100c5400f8e200200400000000000000a8de0020ec
:100c64005000000000000000f0e700202000000019
:100c7400010000000100000003000000000000006b
:100c84000000000000000000000000000000000060
:100c9400a4e20020a4e200200800000000000000fc
:100ca400fce200200800000000000000000000003a
:100cb4000000000066666666666666666666666668
:020000040000fa
:100cc400f0b5de4657464e464546e0b58db0089031
:100cd40040f2cc73c45c002c5ed0012c00d123e123
:100ce400022c00d102e2032c00d1e1e20aa840f672
:100cf40004230899cb5840f6fc128a589b180380a9
:100d040040f60823cb5840f600228a589b184380ab
:100d14004ef22533c2f200031b7883804ef2263351
:100d2400c2f200031b78c380283114f01bfd012894
:100d340001d100f0e0fb40f604224ef22533c2f26a
:100d440000031b78089988580690844663448b50a6
:100d5400183a080089584222825a521893420fdbeb
:100d640040f60423c15040f608224ef22633c2f264
:100d740000031b78010080580690844663448b501e
:100d8400089b986913f0d7fb00200db03cbc90463b
:100d94009946a246ab46f0bd4ef22533c2f200039b
:100da40008221a704ef22633c2f200031a700500ac
:100db400031d079300930023043a0821082011f02f
:100dc400a0f86b690693180018f084f8a8614ef235
:100dd400c423c2f2000340f2c442ac4662441a6027
:100de4004ef2bc23c2f2000340f2445262441a6041
:100df4004ef2c023c2f2000340f2c45262441a60ad
:100e04004ef20c33c2f2000300221a804ef206376f
:100e1400c2f2000740f20008069481e0d5b2200433
:100e2400330203432b434ef20c32c2f20002128807
:100e3400079813f0f7fd4ef2c423c2f200031a68b8
:100e440002321a604ef2bc23c2f200031a68023264
:100e54001a604ef2c023c2f200031a6802321a600a
:100e64003988013189b2398007294ed84ef2c4231a
:100e7400c2f200031b6800229b5e8033db014ef24a
:100e8400bc22c2f2000212680020105e4ef2c82298
:100e9400c2f2000210604ef2c022c2f200021268d6
:100ea4000025555f4ef2cc22c2f200021560b42236
:100eb4006a43d218d211069c03d4ff2a00ddff2214
:100ec400d4b28206121a92001218920012189200da
:100ed400d2186b065b1b9b005b19db005b199b0044
:100ee4005b199b18db11069e03d4ff2b00ddff2347
:100ef400deb203011b181b01181a8218d211069db9
:100f04008dd4ff2a8addff2288e74ef20c32c2f22a
:100f14000002138801339bb21380072b00d9e5e646
:100f240043463b800021a1e74ef22533c2f2000381
:100f340008221a704ef22633c2f2000308321a70e5
:100f4400089c231d0793009300230c3a10210820ca
:100f540010f0d7ff63690693180017f0bbffa06178
:100f64004ef22433c2f2000300221a7000234ef220
:100f74000c38c2f2000840f2000b8be0d3b2624698
:100f8400120448460002104303434af2f802c0f236
:100f940001024ef22430c2f200000078125c1219f1
:100fa400d200079813f03efd336802333360534692
:100fb4001988013189b21980072952d83368002071
:100fc400185e8030c00143461c886308db005b1850
:100fd4005b004ef2bc22c2f200021268d25e4ef2f4
:100fe400c825c2f200052a604ef2c025c2f20005ef
:100ff4002d68ed5e4ef2cc23c2f200031d60b423d3
:101004006b431b18db11069fbc4604d4ff2b00dd89
:10101400ff23dbb29c4693069b1a9b009b189b0004
:101024009b189b001b186806401b80004019c000d9
:10103400401980004019c018c011069da94604d467
:10104400ff2800ddff20c0b2814610018018000196
:10105400821ad218d211069b91d4ff2a8eddff2268
:101064008ce7574643461b8801339bb242461380a4
:10107400072b04d85b463b800021ba469ee74ef21c
:101084002432c2f2000213780133dbb21370012b55
:1010940000d92be64ef2c421c2f20001da0140f27b
:1010a400c44c62440898844662440a609b0140f23e
:1010b400c45c63444ef2bc22c2f20002c118116047
:1010c4004ef2c022c2f200028033844663441360ad
:1010d40043465a461a804ef20637c2f200074ef2d1
:1010e400c426c2f2000600230693c3e74ef225335a
:1010f400c2f2000310221a704ef22633c2f2000329
:10110400083a1a70089c231d079300930023043a9d
:101114000821102010f0f5fe63690693180017f0fb
:10112400d9fea0614ef22433c2f2000300221a70e9
:1011340000234ef20c38c2f2000840f2000b8be0a0
:10114400d0b263461b044a461202134303432201ee
:101154004af2f400c0f201004ef22434c2f2000458
:101164002478005d4118079813f05cfc336802335f
:10117400336053461988013189b21980072952d83e
:1011840033680020185e8030c00143461c88e300a9
:101194004a089b185b004ef2bc22c2f2000212689d
:1011a400d25e4ef2c825c2f200052a604ef2c02576
:1011b400c2f200052d68ed5e4ef2cc23c2f20003ac
:1011c4001d60b4236b431b18db11069fbc4604d47b
:1011d400ff2b00ddff23dbb29c4693069b1a9b008a
:1011e4009b189b009b189b001b186806401b8000e3
:1011f4004019c000401980004019c018c011069d54
:10120400a94604d4ff2800ddff20c0b281461001a6
:1012140080180001821ad218d211069891d4ff2a9c
:101224008eddff228ce7574643461b8801339bb271
:1012340042461380072b04d85b463b800021ba4604
:101244009ee74ef22432c2f2000213780133dbb27d
:101254001370012b00d949e54ef2c421c2f20001fa
:10126400da0140f2c44c62440898844662440a603d
:10127400db0040f2c45c63444ef2bc22c2f20002c2
:10128400c11811604ef2c022c2f2000280338446bb
:101294006344136043465a461a804ef20637c2f23c
:1012a40000074ef2c426c2f2000600230693c3e7e9
:1012b4004ef22533c2f2000310221a704ef2263386
:1012c400c2f200031a70089c231d079300930023a5
:1012d4000c3a1021102010f014fe636906931800d4
:1012e40017f0f8fda0614ef22433c2f2000300228d
:1012f4001a7000234ef20c39c2f2000940f2000abf
:1013040009920692b6e0c2b263461b045846000234
:10131400034313434ef21032c2f2000212884046d5
:10132400008840004ef20a3cc2f2000c65462d884b
:10133400ac4660444118079813f074fb31880131be
:1013440089b2318001293ed83b689a1c3a60002258
:101354009a5e8032d2014ef2cc23c2f200031b68a3
:10136400b42058438018c011069dac4604d4ff280d
:1013740000ddff20c0b284462568a806401b80001b
:10138400401980004019800080185a06d21a920031
:10139400d218d200d2189200d2181218d211069b79
:1013a4009b4604d4ff2a00ddff22d3b29b462a01c8
:1013b40052191201521b1018c011069aa4d4ff2806
:1013c400a1ddff209fe7250043461b8801339bb224
:1013d40042461380032b21d84a4612885208d20071
:1013e4009b189bb25b004ef2bc22c2f20002126850
:1013f400d25e2a604ef2cc22c2f200024ef2c0212a
:10140400c2f200010968cb5e13605346338006992b
:101414004ef2c427c2f200072c0095e74b461b8806
:1014240001339bb24a461380072b18d84ef2103270
:10143400c2f200024ef20e31c2f2000109885b18ba
:101444001380434652461a80099b4ef2c824c2f2c6
:1014540000044ef20836c2f200062500bce74ef244
:101464002432c2f2000213780133dbb21370032b6f
:1014740000d93be44ef20a32c2f200024af2f4010d
:10148400c0f20101c95c11804ef20e32c2f20002b8
:101494004af2f801c0f201015808095c11804ef2c9
:1014a400c421c2f20001da0140f2c44c624408983b
:1014b400844662440a604af2f002c0f20102d35c3c
:1014c40040f2623c63445b004ef2bc22c2f2000272
:1014d400c11811604ef2c022c2f200028033844669
:1014e400634413604b4652461a8000234ef206387a
:1014f400c2f200089ae70898011d036b049340f6b2
:101504000823c35840f6002282589b18039340f6e0
:101514000423c35840f6fc1282589b1802934ef2df
:101524002633c2f200031b7801934ef22533c2f234
:1015340000031b780093436a069300230022069c51
:06154400a047fff7f8fbd1
:020000040000fa
:02154a007047e8
:020000040000fa
:10154c00f0b5de4657464e464546e0b597b011908d
:10155c000e000192029311a813f062fb002800da2e
:10156c00b5e34ef2ec23c2f200038200d3580bb168
:10157c0000221a7040f22813c2f200034000c55c2e
:10158c009c46604443789b46280018f05efac307db
:10159c0000d59ee3430700d5a3e3002e01d100f054
:1015ac00f2fb73681593002b01d100f0f2fb159b35
:1015bc005a1e47f6ff718a4201d81a4201d0012304
:1015cc00159373789846013b012b01d940f2010821
:1015dc00b7687a1e47f6ff739a4204d83b0704d0cb
:1015ec0040f2002701e040f20027f46880235b04fe
:1015fc009c4200d9a6e0631e23405a4253415b42f1
:10160c001c4040f2ff13029a9a4200d86be30199f6
:10161c00002900d169e333780693002314935b46c9
:10162c00002b00d190e0012300220e00280016f0c0
:10163c00d5fb002800d05ae340f2ff133100f25cd6
:10164c001202013bf35c1343984a1bb2934200d045
:10165c004fe35b461e01af36ff368c466644042bc7
:10166c0000d948e33379002b00d146e33000083031
:10167c0018f02cf8059030000c3018f027f8149066
:10168c00149b7f2b00d83ce340f2ff13c0f2010304
:10169c00802204929c4201d8630a04930223069a86
:1016ac00110019400d91002963d0013b13405a429f
:1016bc0053410233039318f0e6fb1090149b9a46a7
:1016cc001b0b1c007b015b0a0a93059a01320e92dc
:1016dc00944663440993159b5a1e07925b420893e8
:1016ec0053465b0c0f9350464146b9460c95a446a5
:1016fc00039b032b00d11ae3049b1c00002b5ed030
:10170c00b0fbf4f540f6f5739d4275d9ab1c5b004c
:10171c0040f2ff1a53445d0a2e004e43099b9a4631
:10172c005644079b9b19089a13409b1bb3fbf1f281
:10173c004a43934268d0013b059a02320b9240f225
:10174c00020a65e000245ce714aa0121280015f0c8
:10175c00a5fa002800d0d2e200230593069b1b07b4
:10176c008ed4149b3f2b8bd93f3b14933f23059373
:10177c0086e7069bdb0700d4c5e2022303939ae7b6
:10178c000494b5e74ff6ff73c0f20103984214d9e5
:10179c0049f66c33c0f201030433022402220c9f7d
:1017ac000f9daa4207d8640002339a1e1288002aa1
:1017bc00f7d10c97c0e20c97bee20124bce240f6d4
:1017cc00ff73984216d949f65c33c0f20103043317
:1017dc00022404220c9f6546aa4208d864000233f6
:1017ec009a1e1288002af7d10c97ac4688e70c9702
:1017fc00ac4685e7012483e76b005b1901335b087a
:10180c0003330122039283e70e9a0b9240f2010af2
:10181c00b3fbf1f35b190a9d2201059ff61b961988
:10182c00b04200d273e252465619861b0a005a4344
:10183c00b61ab6fbf4f6039a032a15d0039a022ab9
:10184c0036d14ff6f57296421fd9049b002b00d06f
:10185c006be26400402c93d90d9b002b00d066e208
:10186c00802c10d8049443e74ff6f57296421fd89b
:10187c00049b002b00d04ce2012c02d9630804938a
:10188c0036e70e2026e20e2024e240f6f572964250
:10189c0000d9b4e0049b002b00d03ce2630004931d
:1018ac00802b00d824e70e2014e2c04655aaffff77
:1018bc00089552460792824604930c9d4f468946e2
:1018cc00039b012b00d0bee040f6f5739e4200d97d
:1018dc0023e240f200220021019817f0ebff47f2bf
:1018ec00e051c0f201010b22019817f0d9ff00233f
:1018fc00019ad372023313735473079b93739bb285
:10190c001b0ad37343461374019a5774bfb23f0a30
:10191c0097744ff6ff739a4500d9b6e05346d374cb
:10192c009bb21b0a1375029b5b0a9846109b53448f
:10193c001f00f82301994b75b93b0b7600234b76ae
:10194c00ff228a76cb7608001c30059918f0f0f847
:10195c00039b032b00d19ee03900019e3000273001
:10196c0018f0e6f8049bb3759bb21b0af37524239d
:10197c008022f2540233573af25447f20061c0f21b
:10198c000101163a30002b3017f08aff40f2fe139b
:10199c005522f25401335532f254ff3bff3b059a6a
:1019ac003100280015f05fff002800d0b7e1029b42
:1019bc005a0a52020021019817f07cff4b46002b6b
:1019cc0000d1dde1039b013b5a1e93415b421b0698
:1019dc004ff6f87cc0f2ff0c6344059340f2000a0a
:1019ec000b9f02954346a0461c00039b032b00d182
:1019fc00dae00599019818f09bf8049df8e0089539
:101a0c0052460792824604930c9d4f46894640f2fb
:101a1c0000220021019817f04dff47f2e051c0f26f
:101a2c0001010b22019817f03bff0023019ad3729e
:101a3c00023313735473079b93739bb21b0ad373b8
:101a4c004346137460e740f200220021019817f01e
:101a5c0031ff47f2e051c0f201010b22019817f05f
:101a6c001fff0023019ad372023313735473079b25
:101a7c0093739bb21b0ad37343461374039b033bb0
:101a8c005a1e93415b421f403ee70198203051465d
:101a9c0018f04ef847e73900019f3800433018f032
:101aac0047f838002430049918f042f838002c30ec
:101abc00022118f03df830230122fa540023303271
:101acc00bb5401320621b9540132bb5440334d3260
:101adc00fa540233573afa5447f2ec51c0f201016e
:101aec00163a3800473017f0dbfe40f2fe13552251
:101afc00fa5401335532fa54ff3bff3b059a390037
:101b0c00280015f0b0fe03000120002b00d0e1e00e
:101b1c00059b9a1d0123019f3900280015f0a3fe97
:101b2c0040f200220021380017f0c4fe45f2522189
:101b3c00c4f26111380017f0fbff47f27221c6f2b4
:101b4c0041113b00e533ff33180017f0f1ff711e14
:101b5c003e00e936ff36300017f0eaff3800ed3072
:101b6c00ff30022117f0e4ff40f2fe135522fa5425
:101b7c0001335532fa54059bda1d01233900280034
:101b8c0015f071fe01230e9a3900280015f06bfe3a
:101b9c00029b5a0a52020021380017f08bfe4b466a
:101bac00002b00d00ee733e008214942019d2800ac
:101bbc0017f0beff01212b1d4942180017f0b8ff8a
:101bcc0028000830764917f0b3ff16e733003a00c7
:101bdc000199029815f047fe002800d0a1e040f2d0
:101bec0000220021019817f065febf19ad1b25b12d
:101bfc002e00a542ead92600e8e740f2010ce244a7
:101c0c00d14500d9f1e60b97029d23004446984636
:101c1c00039b0b9f032b0ed0089c0b9f0be03300f8
:101c2c003a000199280015f01efe002800d07ae039
:101c3c00bf19a41b24b126004445f0d94646eee753
:101c4c00039a032a09d04ff6ff730634149999426c
:101c5c0004d8022a10d0053c00e00c245b466bb97a
:101c6c00069b1b0726d500221100280015f016f83c
:101c7c00431e9841c0b22de00424efe7012300225b
:101c8c00019e3100280016f0a9f8030001200bbbbf
:101c9c005b46013b1b01b4466344c333ff331c70ea
:101cac00030000223100280015f0ddfd0028dad0f9
:101cbc0001200fe0149b129300231393019b22002d
:101ccc0012a9280009f00bf90028ccd002e00b2057
:101cdc0000e0032017b03cbc90469946a246ab46a8
:101cec00f0bd0a20f6e71120f4e71120f2e70120fd
:101cfc00f0e70e20eee70e20ece70e20eae70120dd
:101d0c00e8e70e20e6e71320e4e70e20e2e70e20da
:101d1c00e0e70e20dee70e20dce70e20dae70120fc
:101d2c00d8e70120d6e70120d4e70d9b33b3049b01
:101d3c001c00002b00d125e5b0fbf4f2930040f21f
:101d4c00072a53445b0a174daa4652442d0cc0f681
:101d5c00fe75aa42d9d8059d20351e004e43761932
:101d6c00079a9219089f3a40921b40f2200a92441b
:101d7c00aa180b920025032203924de50e20a9e729
:101d8c00089c0b9f57e70023159349f67c36c0f24d
:101d9c00010615aa0321280014f080fffff707fca9
:081dac00ffffff0f0a00ffff1b
:020000040000fa
:101db400f8b50400c3001b1a5b014df62802c2f2f9
:101dc400000294466344da331b78012b00d0f8bd3b
:101dd400c5002d1a6d01ae183300da3300221a70d3
:101de4009d3b1b78012b2cd07bb1022b00d1dfe073
:101df400e3001c1b64014df62803c2f200039c4659
:101e04006444da3401232370e1e7c3001b1a5b0145
:101e14004df62802c2f2000294466344d96e3000a3
:101e240016f00cf80028e3d0e3001b1b5b014df611
:101e34002802c2f20002944663443d3301221a7020
:101e4400d6e7c3001b1a5b014df62802c2f200025a
:101e5400944663444c331b78002bc9d0c3001b1a2f
:101e64005b01634419004c3100220a700f390a7077
:101e74003e331b78032b36d0042b7bd00020fbb1e0
:101e8400e3001b1b5b014df62802c2f200029446dc
:101e940063441a007832107079331b788342a7d0d8
:101ea400e3001b1b5b0163447933187001284dd197
:101eb400e3001b1b5b0163443d3302221a7097e766
:101ec40041f68021c0f20601300014f0c7fce300a3
:101ed4001b1b5b014df62802c2f2000294466344c8
:101ee4003e3303221a700023e200121b52014df606
:101ef4002801c2f200018c466244ff21d15401330f
:101f04000a2bfbd10a223100300012f08fff68bb8c
:101f1400e3001b1b5b014df62802c2f2000294464b
:101f240063441a0078320021117079331b78002b36
:101f340000d15de7e3001b1b5b014df62802c2f2f2
:101f4400000294466344793300221a70e3001b1b99
:101f54005b014df62802c2f2000294466344190064
:101f64007b3100220a703e331a7041e7300017f0cb
:101f7400a1f985e70022042130000bf073fc00284e
:101f8400c6d01422310030000ff0b4f80028bfd0be
:101f9400280091304df62803c2f200039c466044a9
:101fa4001322310017f068f843425841c0b267e782
:101fb400c3001b1a5b014df62802c2f200029446cc
:101fc40063443f331a780b2a00d9a0e29300c94a2c
:101fd400d3589f4641f68021c0f20601300014f028
:101fe4003dfce3001b1b5b014df62802c2f200021c
:101ff400944663441a007c32002111703f3301225d
:102004001a700023e200121b52014df62801c2f29d
:1020140000018c466244ff21d15401330a2bfbd1c9
:102024000a223100300012f001ff002800d17be2c7
:10203400e3001b1b5b014df62802c2f2000294462a
:1020440063443f3302221a70300017f033f960b949
:10205400e3001b1b5b014df62802c2f2000294460a
:1020640063443f3301221a70c2e6e3001b1b5b0189
:102074004df62802c2f20002944663443f33032221
:102084001a7040f2aa12022130000bf0ebfbe0b10f
:10209400a523f35c5b0736d4e3001b1b5b014df601
:1020a4002802c2f2000294466344a6331b78aa2b8a
:1020b40018d0e3001b1b5b014df62802c2f200029c
:1020c40094466344503300221a70e3001b1b5b01e7
:1020d4004df62802c2f20002944663443f330c22b8
:1020e4001a70e6e0e3001b1b5b016344a7331a7814
:1020f4000f231340012bdcd1df336343634450339c
:1021040001221a700be0e3001b1b5b014df6280251
:10211400c2f2000294466344503300221a70e30072
:102124001b1b5b014df62802c2f200029446634475
:102134003f3304221a7040f2e831300015f0a8fe53
:1021440000286ed0e7003f1b7f014df62803c2f242
:1021540000039c46674400220f2130000bf082fbf1
:1021640000285bd03b0050331a78920712213000cc
:102174000bf078fb002861d0a523f35cdb0704d5c2
:102184003b004d331b78002be5d0300017f0b0f93d
:10219400e3001b1b5b014df62802c2f200029446c9
:1021a40063444d331b78e3bbe3001b1b5b014df61b
:1021b4002802c2f20002944663443f3305221a7097
:1021c4000022102130000bf04dfbd0b1e3001b1bab
:1021d4005b014df62802c2f20002944663441a00e1
:1021e400a932127812061900a831097809040a43a1
:1021f4001900a63109780a43a7331b781b0213433d
:1022040020d4e3001b1b5b014df62802c2f200023e
:10221400944663443f330c221a704ae0300017f0ae
:1022240067f9e3001b1b5b014df62802c2f20002b2
:10223400944663443f330c221a703ae0300017f09e
:1022440057f9eee75b0048d5e3001b1b5b016344d1
:102254007c3301221a70e3001b1b5b014df628023c
:10226400c2f20002944663443f3306221a70e70028
:102274003f1b7f014df62803c2f200039c466744ce
:10228400b96e300014f0eafa3f3707233b7000229e
:10229400032130000bf0e6fa70bbe3001b1b5b016b
:1022a4004df62802c2f20002944663443f330c22e6
:1022b4001a70e3001b1b5b014df62802c2f20002f8
:1022c400944663441900793100220a7001390a7076
:1022d4003a390a703d331a708ae5e3001b1b5b012f
:1022e4004df62802c2f20002944663447c33002275
:1022f4001a70b0e7387901001422310030000ef072
:10230400f9fe0028c9d02f007d374df62803c2f20c
:1023140000039c46674414223100380017f0c4fac5
:102324003b78fe3b5a425341ff183b783f2293438c
:102334005bb3fa791204fc239b031a403b7a1b0219
:102344001a437b7a1a4301329202e3001b1b5b019e
:102354004df62801c2f200018c4663445a673f33ac
:1023640008221a700022042130000bf07bfa68bbab
:10237400e3001b1b5b014df62802c2f200029446e7
:1023840063443f330c221a7093e7ba790321114056
:102394000902fa79114389007a7a5200062313401c
:1023a4003a7a92090a430132b97ac9090b430233d2
:1023b4009a4013007a790f211140093901228a4089
:1023c40011004ff6ff720a405a43bee7142231004f
:1023d40030000ef08ffe0028cad0280091304df650
:1023e4002803c2f200039c4660441422310017f013
:1023f4005bfae3001b1b5b014df62802c2f20002ec
:10240400944663443f3309221a700022112130009c
:102414000bf028fa60b9e3001b1b5b014df62802a0
:10242400c2f20002944663443f330c221a7040e720
:10243400e3001b1b5b014df62802c2f20002944626
:1024440063443f330a221a7040f20022072130000d
:102454000bf008fa60b9e3001b1b5b014df6280280
:10246400c2f20002944663443f330c221a7020e700
:10247400e3001b1b5b014df62802c2f200029446e6
:1024840063443f330b221a70e3001b1b5b014df6c0
:102494002802c2f20002944663441a007a320020f1
:1024a4001070596f1e00c03640f2002232600436ac
:1024b40031600436326004363160043632601a000a
:1024c400d4321160283a182111701900b031012258
:1024d4000a6004310a6004310a600431c03565447d
:1024e4000d6041390a701a003e32042111703d33e7
:1024f40018707de4c3001b1a5b014df62802c2f27a
:102504000002944663443f3300221a7070e4c3000f
:102514001b1a5b014df62802c2f200029446634482
:102524003f3300221a7063e4e3001b1b5b014df68a
:102534002802c2f20002944663443f331b780b2bfb
:0c254400a2d00c2b00d053e4b3e6c0463c
:020000040000fa
:102550005f000000200000000000070000000000f5
:102560000000000000000000210002000800070039
:102570000200080000000100000000002200050029
:10258000030007000100080000000100080000002f
:1025900023000700080007000000080000000100f9
:1025a0000c000000240006000a00070000000900db
:1025b00000000100140000002500070008000700cb
:1025c00000000800000001002000000026000700b5
:1025d00008000700000008000000010028000000bb
:1025e00027000200030007000200080000000100ad
:1025f00030000000280004000a0007000100080065
:102600000000010034000000290005000a00070056
:102610000100080000000100400000002a00060040
:102620000500070000000800000001004c00000049
:102630002b00060006000700000007000000010054
:10264000540000002c0003000300070002000200f9
:10265000000001005c0000002d00050001000700e3
:102660000100030000000100600000002e000300d4
:1026700002000700020002000000010064000000e8
:102680002f000500080007000100080000000100fd
:102690006800000030000600080007000000080085
:1026a0000000010070000000310004000800070075
:1026b0000100080000000100780000003200060060
:1026c0000800070000000800000001008000000072
:1026d00033000600080007000000080000000100a9
:1026e0008800000034000700080007000000080010
:1026f00000000100900000003500060008000700ff
:1027000000000800000001009800000036000600ec
:10271000080007000000080000000100a000000001
:102720003700060008000700000008000000010054
:10273000a80000003800060008000700000008009c
:1027400000000100b000000039000600080007008a
:102750000000080000000100b80000003a0002007c
:10276000060007000200060000000100c000000093
:102770003b00030007000700020006000000010004
:10278000c80000003c00060005000700000006002d
:1027900000000100d00000003d000600030007001b
:1027a0000000050000000100d80000003e00060007
:1027b000050007000000060000000100dc0000002a
:1027c0003f000600080007000000080000000100ac
:1027d000e4000000400007000900070000000800b6
:1027e00000000100ec0000004100070008000700a5
:1027f0000000080000000100f8000000420007008f
:1028000008000700000008000000010000010000af
:102810004300070008000700000008000000010056
:10282000080100004400070008000700000008003d
:10283000000001001001000045000500080007002d
:10284000010008000000010018010000460005001a
:10285000080007000100080000000100200100003e
:102860004700060008000700000008000000010003
:1028700028010000480006000800070000000800ca
:1028800000000100300100004900050008000700b9
:102890000100080000000100380100004a000600a5
:1028a00008000700000008000000010040010000cf
:1028b0004b000600080007000100080000000100ae
:1028c000480100004c000500080007000100080056
:1028d00000000100500100004d0006000800070044
:1028e0000000080000000100580100004e00060032
:1028f000080007000000080000000100600100005f
:102900004f00070008000700000008000000010059
:1029100068010000500006000800070000000800e1
:102920000000010070010000510007000a000700cc
:1029300000000800000001007801000052000600bd
:1029400008000700010008000000010084010000e9
:102950005300060008000700000008000000010006
:102960008c01000054000700080007000000080068
:102970000000010094010000550006000800070057
:1029800000000800000001009c0100005600070044
:10299000080007000000080000000100a40100007a
:1029a00057000700080007000000080000000100b1
:1029b000ac010000580007000800070000000800f4
:1029c00000000100b40100005900070008000700e2
:1029d0000000080000000100bc0100005a000700d0
:1029e000080007000000080000000100c40100000a
:1029f0005b0004000a00070002000800000001005c
:102a0000cc0100005c000500080007000100080080
:102a100000000100d80100005d0004000a0007006a
:102a20000100080000000100e00100005e00060057
:102a3000050007000000080000000100ec01000094
:102a40005f00080001000700ffffffff000001001a
:102a5000f40100006000030002000700020009000a
:102a600000000100f80100006100060006000700f8
:102a70000000060000000100fc01000062000600ea
:102a80000800070000000800000001000402000028
:102a900063000600060007000000060000000100b9
:102aa0000c02000064000600080007000000080097
:102ab0000000010014020000650006000600070087
:102ac00000000600000001001c0200006600060075
:102ad00008000700000008000000010024020000b8
:102ae0006700070009000700000006000000010061
:102af0002c02000068000600080007000000080023
:102b0000000001003802000069000500080007000d
:102b10000100080000000100400200006a000500fa
:102b20000b00070000000800000001004802000040
:102b30006b0006000800070001000800000001000b
:102b4000540200006c0005000800070001000800a6
:102b5000000001005c0200006d0007000600070095
:102b60000000060000000100640200006e00060084
:102b70000600070000000600000001006c020000d3
:102b80006f000600060007000000060000000100bc
:102b90007402000070000600090007000000060033
:102ba000000001007c02000071000600090007001f
:102bb000000006000000010088020000720005000d
:102bc000060007000100060000000100940200005a
:102bd0007300050006000700010006000000010068
:102be0009c020000740006000800070000000800b6
:102bf00000000100a40200007500060006000700a6
:102c00000000060000000100ac0200007600070092
:102c1000060007000000060000000100b4020000ea
:102c20007700080006000700ffff06000000010013
:102c3000bc02000078000700060007000000060044
:102c400000000100c402000079000700090007002d
:102c50000000060000000100cc0200007a0006001f
:102c6000060007000000060000000100d802000076
:102c70007b0005000a0007000100080000000100b9
:102c8000e00200007c0002000b00070002000800c8
:102c900000000100ec0200007d0005000a000700b2
:102ca0000100080000000100f80200007e0006009c
:102cb00004000700000006000000010004030000fb
:020000040000fa
:102cc0005f00000020000000000003000000000082
:102cd00000000000000000002100030008000300c5
:102ce00000000800000001000000000022000500b4
:102cf00003000500000008000000010008000000bb
:102d00002300070008000700000008000000010081
:102d10000c00000024000600090006000000080066
:102d2000000001001400000025000a0008000a004d
:102d3000000008000000020020000000260009003a
:102d40000800080000000800000002003000000039
:102d5000270003000300030000000800000001003a
:102d600040000000280004000900040000000800e2
:102d700000000100440000002900040009000400d4
:102d80000000080000000100500000002a000600ba
:102d90000600060000000800000001005c000000c2
:102da0002b000600050006000000060000000100e0
:102db000640000002c000300030003000000020078
:102dc000000001006c0000002d000400030004005e
:102dd0000000050000000100700000002e0003004c
:102de0000200030000000200000001007400000067
:102df0002f00050008000500000008000000010089
:102e000078000000300006000800060000000800fe
:102e100000000100800000003100050008000600ed
:102e200000000800000001008800000032000600d9
:102e300008000600000008000000010090000000eb
:102e40003300060008000600000008000000010032
:102e50009800000034000700080006000000080089
:102e600000000100a0000000350006000800060078
:102e70000000080000000100a80000003600060065
:102e8000080006000000080000000100b00000007b
:102e900037000600080006000000080000000100de
:102ea000b800000038000600080006000000080016
:102eb00000000100c0000000390006000800060004
:102ec0000000080000000100c80000003a000300f4
:102ed000060003000000060000000100d000000012
:102ee0003b00030007000300000006000000010093
:102ef000d80000003c0006000600060000000700a5
:102f000000000100e00000003d0006000500060092
:102f10000000060000000100e80000003e0006007e
:102f2000060006000000070000000100f00000009d
:102f30003f00050008000500000008000000010037
:102f4000f800000040000a000a000a000000080023
:102f50000000020000010000410008000800080015
:102f600000000800000001001401000042000700fa
:102f70000800070000000800000001001c0100001c
:102f800043000700080007000000080000000100df
:102f900024010000440008000800080000000800a8
:102fa000000001002c01000045000600080006009a
:102fb0000000080000000100340100004600060087
:102fc0000800060000000800000001003c010000ad
:102fd0004700080008000800000008000000010089
:102fe0004401000048000800080008000000080034
:102ff000000001004c01000049000400080004002a
:103000000000080000000100540100004a00040014
:103010000b000400ffff0800000001005c0100003d
:103020004b00080008000700000008000000010035
:10303000680100004c0006000800060000000800bf
:1030400000000100700100004d000a0008000a00a5
:103050000000080000000200780100004e00080097
:1030600008000900000008000000010088010000bd
:103070004f000900080009000000080000000200dd
:103080009001000050000700080007000000080041
:1030900000000100a0010000510009000a00090021
:1030a0000000080000000200a80100005200080013
:1030b000080007000000080000000100bc0100003b
:1030c0005300060008000600000008000000010090
:1030d000c4010000540007000800060000000800ba
:1030e00000000100cc0100005500080008000800a5
:1030f0000000080000000100d40100005600080094
:10310000080007000000080000000100dc010000ca
:1031100057000b0008000b00000008000000020030
:10312000e401000058000800080007000000080043
:1031300000000100f401000059000700080007002a
:103140000000080000000100fc0100005a00070018
:103150000800060000000800000001000402000052
:103160005b0004000a0004000000080000000100e9
:103170000c0200005c0005000800050000000800cb
:1031800000000100180200005d0003000a000400b6
:103190000000080000000100200200005e0007009f
:1031a0000500060000000800000001002c020000dd
:1031b0005f00060003000500ffff000000000100a3
:1031c0003402000060000400020004000000090056
:1031d0000000010038020000610006000600070040
:1031e00000000600000001003c0200006200070031
:1031f0000800070000000800000001004402000071
:103200006300060006000600000006000000010042
:103210004c020000640007000800070000000800de
:1032200000000100540200006500070006000700ce
:1032300000000600000001005c02000066000500be
:103240000800040000000800000001006402000003
:1032500067000700090007000000060000000100e9
:103260006c0200006800070008000700000008006a
:10327000000001007802000069000300080003005c
:103280000000080000000100800200006a00040045
:103290000b000300ffff080000000100880200008f
:1032a0006b00070008000700000008000000010094
:1032b000940200006c0003000800030000000800f6
:1032c000000001009c0200006d000a0006000b00d7
:1032d0000000060000000200a40200006e000700cb
:1032e000060007000000060000000100b002000018
:1032f0006f00070006000700000006000000010044
:10330000b802000070000700090007000000060076
:1033100000000100c0020000710007000900070062
:103320000000060000000100cc0200007200050051
:10333000060005000000060000000100d8020000a1
:1033400073000600060005000000060000000100f2
:10335000e0020000740005000800050000000800fd
:1033600000000100e80200007500070006000700e9
:103370000000060000000100f002000076000700d7
:10338000060006000000060000000100f802000030
:1033900077000a0006000900000006000000020095
:1033a0000003000078000700060006000000060089
:1033b000000001000c03000079000700090006006e
:1033c0000000060000000100140300007a0006005f
:1033d00006000500000006000000010020030000b8
:1033e0007b0004000a000400000008000000010047
:1033f000280300007c0002000b0006000200080009
:1034000000000100340300007d0005000a000400f4
:103410000000080000000100400300007e000600dc
:103420000400060000000600000001004c0300003c
:020000040000fa
:10343000f0b5de4657464e464546e0b589b0dc4f0e
:103440004df6787bc2f2000bda4b183b05931c2338
:103450005b4404930fe040f2e003c2f20003002259
:103460009a602821022058545a64190044311b687c
:103470009b680530984740f2e003c2f2000328221f
:103480009b5c9a00d219002b00d101e30a2bfad8d9
:1034900011688f4640f2e003c2f200039a685a6452
:1034a000190044311b689b680f209847002807ddee
:1034b00040f2e003c2f20003282209219954dae71e
:1034c00040f2e004c2f20004a06813f04bfd206259
:1034d000006e6062243016f000fb606a303016f037
:1034e000fcfaa06813f05afd4ef2d423c2f2000396
:1034f0004bf6f002c0f200024001815840f6000293
:10350000b2fbf1f21a60e368012b13d9606a4368d9
:1035100083b1002440f2e005c2f20005e100036837
:103520009c466144243012f06ffc0134686a4368a1
:103530009c42f3d340f2e003c2f20003586a002435
:1035400003697bb140f2e005c2f20005e100c36807
:103550009c466144243012f057fc0134686a0369c8
:103560009c42f3d3836a3bb940f2e003c2f200030a
:103570002822092199547ee7243011f097f840f26f
:10358000e004c2f20004606a243010f02ffd606a8b
:10359000243011f0f5fca06813f096fa012811d040
:1035a0004ef2d423c2f20003196840f2e003c2f2e3
:1035b0000003586a24300cf062fc40f2e005c2f2cd
:1035c00000050ee04ef2d423c2f200031968606acf
:1035d00024300cf0b5fcf0e7686a303006a912f030
:1035e00013fc6c6aa36ae3b10822616a06a816f0ac
:1035f0005df920002430002114f03dfe6a6a536b0f
:10360000002be9d00024e300106bc01806a912f0cb
:10361000daf90128e5d001346a6a536b9c42f2d38f
:10362000dae740f2e003c2f20003986813f04cfac4
:10363000012819d040f2e003c2f20003586a30308a
:103640000cf0ceff40f2e003c2f2000300221a6148
:103650001a635b6a5b6b83b940f2e003c2f200035a
:1036600028320921995406e740f2e003c2f2000330
:10367000586a30300cf058ffe4e740f2e004c2f240
:103680000004a06813f08afc0ef061fe28230322d8
:10369000e254f0e640f2e003c2f20003596a1a690c
:1036a0004b6b9a4207d140f2e003c2f2000328229a
:1036b0000a219954dfe640f2e003c2f2000301223e
:1036c00052421a64049816f081fa002840d040f261
:1036d000e003c2f200031b6c013300d1cbe60126ec
:1036e00040f2000840f2e005c2f20005a86813f0bd
:1036f00039fc04006a6a2b69db00116bc9180ef0f3
:10370000a4fa6b6a2a69d2001b6b9b1804215a5ecb
:10371000914606229b5e9a46a86813f03ffc020081
:1037200045464bf6c033c2f20003f31800955146ec
:1037300048460ef0e8fb5c23e35c93b1022b14d007
:1037400040f2e003c2f2000328220421995492e6d9
:1037500040f2e003c2f2000300221a640026d846b9
:10376000c0e75023e35c052bead1280010f039f9bb
:10377000431ce5d1434658691a69002116f0a0f8a8
:10378000dee740f2e004c2f20004a06813f0eafbb6
:10379000443012f035f8606170b10023c37740f215
:1037a000e003c2f2000328220521995463e6c046d3
:1037b000e07c0100f800002028220721a1545ae6ed
:1037c00040f2e003c2f200035c69a37f63b12368a7
:1037d0009b6b2000984701280ed0a37f022b18d0a6
:1037e000a36c5a1e9341a37740f2e003c2f2000398
:1037f0002822062199543ee623685b6c20009847f6
:103800000028ead140f218132268d35820009847c4
:10381000eae7236ca3b306ad2900200011f0bafe3d
:103820000422ab5e002b18dd06ab06229b5e002b4c
:1038300013dd40f2e003c2f200035a6a1b69db00a9
:10384000116bc91806a811f08fff68b940f2181360
:103850002268d35820009847c6e740f21813226820
:10386000d35820009847bfe7059b5a6a1b6903930a
:10387000db00106bc0188a4a06a90ff068fa0ce04a
:1038800040f2e000c2f20000436a196b0369db00fa
:103890001830c918082216f009f84ef68c01c2f249
:1038a000000140f214132268d35820009847636a3d
:1038b00001336362e37f012b00d0e9e040f2e003d3
:1038c000c2f200031a6b01321a6389e740f2e00387
:1038d000c2f20003282204219954cce540f2e0030f
:1038e000c2f200035a6a1969c900126b521800210a
:1038f000505e0221515e1a6c13019c1aa4004df611
:103900007875c2f20005ac466444e568a562656856
:103910002562a56865629b1a9b005c461d5d0023bd
:103920000a24ac425b415b421d4013019c1aa40077
:10393000644425772569e5620025a56365692563eb
:103940009a1a92001c32624440f2e003c2f2000371
:103950001b685b689847431c00d199e040f2e00384
:10396000c2f20003012252421a6414f0d2fa82e534
:1039700014f0cffa7fe540f2e002c2f20002936851
:10398000013393604ef2d022c2f20002116840f27d
:10399000e8228a5893429b41072293430a3340f21c
:1039a000e002c2f200022821535413689b680021f0
:1039b000062098475fe540f2e004c2f20004236865
:1039c0009b6800210820984700232363e36a0133a2
:1039d000e3624ef2d023c2f200031a6840f2e823f9
:1039e000d358002b00d146e50025260040f22809d7
:1039f00040f2000a3ae020000c30210012f06bfc8b
:103a00006368082b03d9200014f000ff35e0200084
:103a100016f063f831e040f2180ca444634621002c
:103a20000c310393604612f056fce369082b06d96b
:103a3000039814f0ebfe01234a46b3540ae00398be
:103a400016f04bf8f7e720000c3016f046f84b461e
:103a50005246f25401354ef2d023c2f200031a68e6
:103a600040f2e823d3589d4200d304e5280013f028
:103a700079fa046ef368012bbdd8e369002bcad133
:103a80002369082bdfd920000c3014f0bffedee7dd
:103a900009b03cbc90469946a246ab46f0bdc04634
:043aa000f80000200a
:020000040000fa
:103aa400f0b5de4657464e464546e0b589b00400bb
:103ab400002302939b4623689b68a26b9a4200d31f
:103ac400b1e2029b012b45d004ab5d1d2300012212
:103ad40001212800266ab0472d78ff2debd104abd5
:103ae4009e1d2300012201213000276ab847337844
:103af400d92b00d8f5e0db2b00d186e100d259e2c6
:103b0400dd2b00d174e1e02b00d0f5e0200014f0af
:103b140047f80f2800d84de106ad23000522012106
:103b24002800266ab0472b784a2b00d148e12000b0
:103b340015f00bfb3d256055200015f006fb3e23d8
:103b4400e054635d012bb6d040f2be436422e254dc
:103b5400642028e24533e35c012b0fd00020032bc3
:103b640000d020e24733e35c012b11d0022b5dd05f
:103b740040f2be436422e254642014e240f2c343a0
:103b84000122e25440f2cc730022e25400200ae203
:103b94004c33e35c012b27d0022be9d14933e35c9e
:103ba400012be5d14d33e35c012be1d1fe33cff69c
:103bb4000073e26c13400122c0f200129342d7d189
:103bc40040f2c3430422e254002040f2c673e0549e
:103bd4000133e054012340f2c872a354013202219c
:103be400a1540332a354dee14a33e35c012bbfd179
:103bf4004d33e35c012bbbd1fe33cff60073e26c93
:103c040013400122c0f200129342b1d140f2c343e7
:103c14000322e25440f2c673e0540133023ae25400
:103c240001330132e2540433e054bce14b33e35c2e
:103c3400012b2dd0022b9bd14933e35c012b97d16f
:103c44004d33e35c012b93d1fe33cff60073e26c6a
:103c540013400122c0f20012934289d140f2c343bf
:103c64000622e254002340f2c672a3540132a35444
:103c74000132a3540132a35440f2ca730122e25424
:103c840001330132e25401330132e25400208ae16b
:103c94004a33e35c012b00d06ae74d33e35c012b2c
:103ca40000d065e7fe33cff60073e26c13400122c7
:103cb400c0f20012934200d05ae740f2c3430422f8
:103cc400e254002040f2c673e0540133e05401335f
:103cd400033ae254022340f2c972a3540332a354b8
:103ce40061e1d02b00d3e6e6c02b11d0c42b00d168
:103cf400f8e0012b00d1dee6200013f051ff01288b
:103d040000d88ae10238a36b9c466044a063d2e6e3
:103d1400200013f045ff050008283dd9200015f0c8
:103d240014fa4023e054200013f03aff4423e052f5
:103d3400200013f035ff4223e052200015f005fa6d
:103d44004623e05443001b180733ab422cda029f8e
:103d540004ab5e1d40f20f0820b3200015f0f5f906
:103d6400e5192b0047331870200015f0eef9307078
:103d74002b004a3302091a7003334246104018706c
:103d8400200015f0e2f9503528700137ffb24623c0
:103d9400e35cbb42e1d88ee640f2be436422e254c7
:103da400642000e1029086e640f2be436422e254bd
:103db4006420f8e040f2be436422e2546420f2e05e
:103dc40006ab5b78462b00d0b1e606ab9b78492b5b
:103dd40000d0ace606abdb78462b00d0a7e606abfa
:103de4001b79002b00d0a2e63c330122e2549ee66c
:103df400200013f0d5fe042800d05ce6200013f068
:103e0400cffe40f2d413e05255e6200013f0c8fe72
:103e14000390422802d940f253084be040f2be43db
:103e24006422e2546420bee004abdf1d23000122bf
:103e340001213800266ab04723000122012101989c
:103e4400266ab0472a7853469b019b1828335b00a7
:103e5400e31839780902019a127852189a800135c8
:103e64004d4518d05b46019a13704346e35c002b22
:103e7400dad104abdf1d2300012201213800266ab8
:103e8400b0472a7853469b019b1828335b00e318fc
:103e94003a789a80e3e74346e35c5a4253415b42f3
:103ea4003f2293438133039ad31a9bb20393422b49
:103eb40000d800e6200015f048f904ab58710f2330
:103ec40003409a4600094346e35c18434346e054e2
:103ed40046f2e055c0f2010540f24009a94406aba0
:103ee4000193bfe7200013f05bfe0700122802d9fc
:103ef40040f20f0921e040f2be436422e254642000
:103f040051e03101d831ff3165183602f836ff36f9
:103f1400b246a24425e0102d40d823002a000121f6
:103f24005046266ab0477f1bbfb240f2d612a35c4c
:103f34000133a354122f00d8bde5200015f005f974
:103f440004ab58714e4606400009012303409846cd
:103f5400002bd6d13f363601f51d65192736b246fa
:103f6400a2442300102201212800266ab0472b0016
:103f740029001031002556461a78ad18adb2013328
:103f84008b42f9d1b246113fbfb2bd4206d8434677
:103f9400002bc0d040f200139d42bed940f2be4374
:103fa4006422e254642009b03cbc90469946a2467f
:103fb400ab46f0bd200013f0f3fd06000700022815
:103fc4001bd9200015f0c1f8030004aa5071033e68
:103fd4004200b61ab6b24622a25c824213d1400015
:103fe4000230b8420fda029a17000192d3bba36bd6
:103ff4009b19a363012302935de540f2be4364224f
:10400400e2546420cfe740f2be436422e2546420c9
:10401400c9e702250fe001250de040f2be4364220a
:10402400e2546420bfe73c23e05c0138431e98411e
:10403400c0b2b8e7019d200015f087f804ab5871b1
:10404400631940f2b84299180f2202400a7040f2f4
:10405400bb4c6344000918700137ffb24623e35c8c
:10406400bb42c4d9200015f070f804aa507147224d
:10407400a25c8242ded04822a25c8242cbd049229a
:0c408400a25c8242c5d0022de6d8d4e731
:020000040000fa
:10409000f0b5de4657464e464546e0b5cbb08446c1
:1040a00000900d000aab4026664440f24009894466
:1040b0002aaa9346103108910193ca460990e9e073
:1040c0002022835e2a8c5a432023f45e5346198ca7
:1040d0004c431319d900c9180901c91a4b01591abf
:1040e000a3041b1b1b011b199b001b19db001b1bc3
:1040f0005b011b1b5b1841f67e094c46544362185a
:104100000024015f2c8861430027f45fa4465446d5
:104110002488a046644647467c43a0468946c1445d
:104120004c466403a1464446091b490314004c4411
:1041300003944f46ba1a04925c180594cb1a06935e
:104140003021735e51460a8e110059438946102171
:10415000735e5146098a594388463021435e288e52
:10416000010059438c462b8a029959430c004b4657
:104170006344414609195a1842f2a150424398013a
:10418000c0188001c0180003c0188000c018830147
:10419000181a0b055b1a9b005b18db005b1a5b01ae
:1041a0005b189b001018d11807914f463b19da0095
:1041b000d21a510152185200d21a9200d21a920009
:1041c000d3185b4240f68e117943620012199702b0
:1041d000b9464a449200121bc41861180291079c08
:1041e000a1464b449b1847466744ba04d21b920031
:1041f000d21bd200d21bd201d21b9200d21944f2a0
:10420000b319494647467943884646f254294946f8
:10421000674679438c46a118414480186044039f47
:10422000fa1840f2004c6244d212019c2260fb1a40
:104230006344db125f463b66059a13186344db1246
:104240002362101a6044c01238640698431863440d
:10425000db122364411a6144c9123962049a029b39
:10426000d3186344db122366029bd41a6444e4121d
:104270003c60009b023300930235019b04330193a1
:10428000023640f2020ce24440f2040ce344089b84
:104290009d4235d0009a10001021535e0293002bee
:1042a00000d00de72023d35e002b00d008e730229a
:1042b000835e002b00d003e70021725e002a00d04d
:1042c000fee61021725e002a00d0f9e62021725e1f
:1042d000002a00d0f4e63022b35e002b00d0efe6d7
:1042e0000023c25e2b8853439b00019a1360136224
:1042f000136413665a461360136213641366b8e7b7
:10430000099b9c468023634402930aac20001fe073
:1043100080225242ace080235b42bae080235b42c1
:10432000c8e080214942d6e080235b42e3e080245c
:104330006442f0e080235b42fee036b263461e81b9
:1043400040f21008c4442030029b9c4500d107e194
:10435000836881695e18f20092191201921b56015e
:10436000b21a8d046d1a2d016d18ad006d18ed0097
:104370006d1a6d016d1aad1841f67e014b439a1806
:10438000016804690e1976030c1b640393190093ea
:10439000b11a89462b190193641b4768c569c36824
:1043a000984645442e004569ed19721942f2a15311
:1043b0005a43b3019b199b019b191b039b199b003b
:1043c0009b199e01f61ab0462b055b1b9b005b19df
:1043d000db005b1b5b015d19ad0090445519c6699c
:1043e000f319da00d21a5601b3465a445200d21acf
:1043f0009200d21a9200d3185b4240f68e16c26920
:1044000056437a00d21991028b465a449200d21b2d
:104410004146cf18be19eb189b184169c2689246f5
:1044200051448a04521a9200521ad200521ad201ee
:10443000521a9200521844f2b31a574641694f4338
:10444000ba4646f25427c1684f43ad18554442441a
:10445000d719009ad21880218902884642449214c2
:104460001100803100da53e77f2a00dd7f2212b28b
:1044700061460a80009ad31a8022920290464344f1
:104480009b141a00803200da45e77f2b00dd7f2382
:104490001bb26246d381019bdb19802292029046b7
:1044a00043449b141a00803200da37e77f2b00dd8b
:1044b0007f231bb262465380019bd91b80239b0242
:1044c0009846414489140b00803300da29e77f299c
:1044d00000dd7f2109b2634699816319802292022f
:1044e000904643449b141a00803200da1ce77f2b6d
:1044f00000dd7f231bb262469380641b80239b02f6
:1045000098464444a4142300803300da0fe77f2c3c
:1045100000dd7f2424b263465c814b469b198022d8
:104520009202904643449b141a00803200da01e75d
:104530007f2b00dd7f231bb26246d3804b469e1b40
:1045400080239b0298464644b6143300803304db34
:104550007f2e00dcf1e67f26efe680267642ede650
:0e4560004bb03cbc90469946a246ab46f0bd1f
:020000040000fa
:02456e00704794
:020000040000fa
:10457000f0b5de4657464e464546e0b585b04ef6a8
:104580001003c2f200031c68187d48b92378002b81
:1045900032d105b03cbc90469946a246ab46f0bd30
:1045a0002378002b00d017e2210028310022531c71
:1045b000dbb29842edd028310d00283d2d780db9a1
:1045c0001a00f4e70232d2b2012a00d105e24ef617
:1045d0001001c2f200010a75ff2bdad09a00d3183d
:1045e000db00e4186379012b08d0237b042bd0d89f
:1045f0009b00ce4ad3589f460300efe7237b042b52
:1046000010d0002323732023e35c012b00d1b7e1fa
:10461000002323702022a3546371a370e37063709e
:104620002371b6e74ef61003c2f2000300225a755a
:10463000e7e7e088a3685b6a032198476061431c51
:10464000a7d047f23b31c0f20101a3681b692200e9
:104650009847022323739ce7a3681b686069984707
:1046600068b12023e35c33b9a3685b68606998474d
:1046700060620323237320230122e25489e720236d
:10468000e35c012b03d020230022e25481e72000c9
:1046900014f0bcfc00232371f5e74ef61003c2f2c0
:1046a00000035b7d002b00d073e74ef61003c2f2cf
:1046b000000301225a75636a1b691b68ff32ff32cf
:1046c0000126934202d87602b6fbf3f64ef61005a9
:1046d000c2f2000540f200220021286915f0f0f82e
:1046e00021230222e2542a6921001c316069a36857
:1046f00000969d680023a847e369013302d0042394
:10470000237346e74ef61003c2f2000300225a75e7
:104710003fe72123e356022b09d083b14ef6100365
:10472000c2f2000300225a750323237331e7a36802
:10473000db6a002b00d12ce72069984729e74ef669
:104740001003c2f200031d6900236370ff33ff33bf
:10475000eb5c40f20008552b78d0c14640f2ff0ace
:104760004ef61003c2f200035d682b78002b64d173
:104770004ef61003c2f200031b699b4623790133f6
:10478000237149f67003c0f20103227e9200d358d0
:104790000393180014f080fec6b2ff270740a81c40
:1047a0003a00039915f082f8a378ef19bb70731cd7
:1047b000dbb2eb18227930329a700236f6b2ae19bb
:1047c0000023b370ac6153466b704b464a4633b31b
:1047d000db0700d4b9e000235246ff2a1fd049f678
:1047e0007c72c0f2010259008a5a5946895c69708c
:1047f0005a44d17a0906907a00040918107a0918e7
:10480000507a000209186961d1790906907900048b
:10481000091810790918527912028a182a61424639
:10482000002a00d1a3e040f22812c2f20002e1788f
:1048300011700133537001232b704ef61003c2f236
:10484000000300225a7502232373a2e6ab33ff3321
:10485000eb5caa2b81d12b78eb2b37d040f2c21323
:10486000e85c14f0d1fd002857d1637840f20009cc
:10487000637040f2d213e85c14f0c6fd30b102233d
:104880004a461a43914663780133637040f2e2135b
:10489000e85c14f0b9fd00284ad004234a461a43c4
:1048a000914663780133637040f2f213e85c14f0d0
:1048b000abfdb0b308234a461a43914663780133ef
:1048c000637040f2010840f2010a49e76b783c2b23
:1048d00003d0582b01d0fe2bc0d1ab78902bbdd18b
:1048e0008f3b63705133eb5c462b4dd05323eb5c15
:1048f000412b4fd05423eb5c542b51d03623eb5c2f
:10490000462b53d03723eb5c412b55d03823eb5c3f
:10491000542b57d040f200081fe7012340f2010951
:10492000a6e740f20108c2461ae7c0465c980100bb
:1049300040f2f213e85c14f067fd0028bad14b4650
:10494000002b45d140f2010807e74b469b0701d5f4
:10495000012341e74b465b0701d502233ce70823cf
:104960001a401300002a00d136e7032334e740f24f
:104970002813c2f20003e2781a7000225a705ae734
:10498000200014f043fb43e640f20008c14640f229
:104990000b0ae5e640f20008c14640f20b0adfe6ea
:1049a00040f20008c14640f20b0ad9e640f2000886
:1049b000c14640f2060ad3e640f20008c14640f282
:1049c000060acde640f20008c14640f2060ac7e6f4
:1049d00040f20108c246c3e600234ef61002c2f2be
:0849e000000200211175f9e548
:020000040000fa
:1049e800f0b5de4657464e464546e0b585b00d0063
:1049f8000192984610f0dbfc070015b101235b42d9
:104a08002b60002f00d1e8e13c780294e3001b1be7
:104a18005b014df62802c2f20002944663447b33e0
:104a28001b78002b00d1dae14346002b00d1dfe1ef
:104a38000f9b002b00d1dde1019b002b00d07ee015
:104a480000210e9800230f9a80185941e3001b1b80
:104a58005b016344c4331a68002300296dd199426d
:104a680069d0e3001b1b5b014df62802c2f200026d
:104a780094466344da331b7899460026012b00d00c
:104a8800aee1e3001b1b5b016344da3300221a70ba
:104a9800fdb1e3001b1b5b0163441a0030320221a5
:104aa80011709a8e1204397809020a439a632a60af
:104ab8009a8e013292b24ff6ff739a4268d0e300a1
:104ac8001b1b5b014df62801c2f200018c466344b2
:104ad8009a86e3001b1b5b014df62802c2f2000216
:104ae800944663440393019b002b00d0b0e001334c
:104af8000f9a93429b415b4240f2080a9a44e300b2
:104b08001b1b5b0163447c331b7813b90e9b5b0250
:104b18000e930e9a5146039e300008f0a1fe00281d
:104b280056d0a523f35c9b46002b51d10026434663
:104b3800a0461c0044e0904293d9002650e1002191
:104b48000e9800230f9a80185941e3001b1b5b0144
:104b58004df62802c2f2000294466344cc331a6828
:104b6800002399b999420fd0e3001b1b5b014df656
:104b78002802c2f20002944663447a331b78002b61
:104b880000d16ee700262be19042edd9002627e1ff
:104b9800012294e7210003980bf00cf908b9444668
:104ba80016e00222039801000cf0a2fa002800d1b6
:104bb80022e140f2002c644401360f9bb34228d016
:104bc800fa22fe2103980df055f90028e2d1444657
:104bd80000265db1e3001b1b5b014df62802c2f203
:104be800000294466344303300221a707b681bb17c
:104bf800ba68290048469847e3001c1b64014df633
:104c08002803c2f200039c466444da34012323706b
:104c1800e6e044465346092b12d04df62802c2f26c
:104c28000002e3001b1b5b01ff219954012203983a
:104c380001000cf00bfa06000028cad0d946c8e7d4
:104c480000220521039808f00bfe0028e5d1bfe7f4
:104c580001230f9a93429b415b4240f20a0a9a440d
:104c6800e3001b1b5b014df62802c2f200029446ca
:104c780063447c331b7813b90e9b5b020e930e9a28
:104c88005146039e300008f0ebfd00286cd0a523a8
:104c9800f35c002b68d100260193ab464546a0463d
:104ca800029c4ce04df62802c2f20002e3001b1bf6
:104cb8005b01fe2199544ee0290003980bf019f886
:104cc80010b944465d464fe04df62801c2f2000196
:104cd800e300181b4001ff22425403008c46634442
:104ce8005a70fd3a039801000cf0b0f910b9444627
:104cf8005d4639e00122039801000cf0f9f900281b
:104d080000d17be04df62802c2f20002e3001b1b33
:104d18005b019b5c1f221340052b02d044465d4675
:104d280022e0db32ff2103980df0a4f8002868d0b8
:104d380040f2002c654401360f9bb34216d053460f
:104d48000a2bafd04df62802c2f20002e3001b1b6b
:104d58005b01fc2199540122039801000cf076f9bb
:104d68000028a9d144465d46002632e744465d4600
:104d7800019b9b4653460b2b13d04df62802c2f2db
:104d88000002e3001b1b5b01ff21995401220398d9
:104d980001000cf05bf90600002e00d119e7d94696
:104da80017e74df62802c2f20002e300191b490179
:104db800fd2088540b0094466344ff225a70fd3a44
:104dc800039801000cf042f90028cdd0fa22ff2107
:104dd80003980df04ff80600dee7002600e00026f5
:104de800300005b03cbc90469946a246ab46f0bda3
:104df8000026f5e70026f3e74446e9e644465d4623
:084e0800b2e744465d46afe746
:020000040000fa
:104e1000f0b5de4657464e464546e0b587b0834678
:104e20000f00036898460b782f2b06d05c2b04d01c
:104e300042469269826008e001373b782f2bfbd015
:104e40005c2bf9d000235a4693603b781f2b04d982
:104e5000c2463b005f469b4629e12f2380225946ec
:104e6000ca54002158460bf02bfd9de1fe2c00d9c1
:104e7000a9e163005e53013405a813f0c6fd431c8d
:104e800000d1a0e14ff6ff73984203d96300020cf2
:104e90005a53013486b21f2e2dd92f2e11d05c2edd
:104ea0000fd07f2ee2d84ff6ff71014049f648003f
:104eb000c0f2010014f00efd0028d7d083e10133c9
:104ec0000593059b1a782f2af9d05c2af7d0002683
:104ed0001f2393427641b3000093059b9b46012c10
:104ee0000cd0022c22d0002c00d16ae1b74be31881
:104ef0005b00eb1826e004230093eee72b882e2bb3
:104f0000f4d1630000225a530e2039002431a2420a
:104f10009b41034020338b5401320b2af7d12026ca
:104f2000009b33431e002f23fe54a5e06b882e2bdd
:104f3000dcd12b882e2bd9d1e3e7013c023b002c9e
:104f400000d13ee11a88202af7d02e2af5d063003e
:104f50000022ea52002c00d135e12a88202a46d1cd
:104f6000002601367200aa5a202afad0002e3fd01d
:104f7000032200991143cab20092ea18023a128839
:104f8000043beb182e2a05d0013c1cb1023b5a8889
:104f90002e2af9d1380024300b22202114f090fc65
:104fa00008230193002302930393a8462500741c51
:104fb00076004346f65aaeb3202e1ed02e2e1ad0bf
:104fc000029b019a93421fd2ac4200d100e17f2e96
:104fd00000d981e049f65400c0f20100310014f01c
:104fe00079fc002800d1b6e0009b994689e00026b4
:104ff0002e2ac2d1bce7ac42e2d00323009a1a4366
:10500000d3b200932600d2e7019b0b2b55d0ac42c4
:1050100000d1e1e00323009a1a43d3b20093ac42db
:1050200000d8d9e02423fb5ce52b51d0019b082b51
:1050300000d1aae00c23039a13400c2b02d0d343d7
:105040009b0704d10223009e1e43f3b20093009af3
:1050500093070ed4039bdb0703d510231a43d3b267
:105060000093039b5b0704d50823009e1e43f3b205
:1050700000932f23009afa54380004f0f0ff2f23f6
:10508000fb5c002800d085e05b0700d58ce0bb7995
:1050900010221a4200d192e05346383340f2ff11f9
:1050a0007a6911405918504613f0c0fcb8605b464d
:1050b00005933b68dd680024dee60323009e1e4363
:1050c000f3b200932423fb5ce52bb3d10b230193b4
:1050d00024230522fa54a9e70223009a1343dbb2e2
:1050e000994640f2b511300011f008f806000306a9
:1050f00015d542f66802c0f201027f231840165c03
:1051000036bb03234a461a43d3b20093029b5f2661
:105110005a1c0292fb1824331e70260047e7ff2812
:10512000eed9019b013b029a9a4208d2029a531c83
:10513000ba182432000a10704a460092e8e70323a6
:10514000009a1a43d3b200932600019b02932ee7e4
:105150004b4600933ee73300413b9bb2192b05d8e9
:105160000223039a1a430392029bd1e73300613b67
:105170009bb2192b07d80123039a1a430392203eae
:10518000b6b2029bc4e7029bc2e7039b9b00dbb263
:1051900003934fe7042807d19a060cd55b0786d501
:1051a0002f238022fa54002007b03cbc9046994639
:1051b000a246ab46f0bd5b07f6d40520f4e7052018
:1051c000f2e700232b800620eee7c046ffffff7fbb
:1051d000019b0b2b00d170e7039b9b00dbb2039379
:0c51e0002e000b230193033b0293e0e63a
:020000040000fa
:1051ec00f0b5de4657464e464546e0b585b00f0055
:1051fc00160000230b600ff013fd051e00da32e1e0
:10520c004ef2ec23c2f200038200d458002c00d1e1
:10521c0032e13c6001239e43237873b1607814f033
:10522c0095ffc30709d4002e00d11de104260640ca
:10523c00002e00d118e10a2616e1002323706078b5
:10524c0014f003fc01270740002f00d016e116b123
:10525c00430700d514e16d0040f22813c2f200039d
:10526c009c4665446e780021200008f05bf902280a
:10527c0001d02ed89eb3042e00d921e12500ff3594
:10528c00ff3540f23e29a144e846280014f01efaee
:10529c00434601c3984610354d45f6d135006b1e7b
:1052ac009d41751bad006d4404ab98460ae020008f
:1052bc0008f038f96eb9012801d810e00320043544
:1052cc00a84506d029680029f1d1002ef6d00d266c
:1052dc00cae0042800d1d5e0012800d9d4e0442349
:1052ec00e25c1202013be35c134340f200221bb26e
:1052fc00934200d0cae04f23e55c2d02013be35cf6
:10530c001d4325b920005c3014f0e0f90500636bf7
:10531c009b4625624823e65ce670731e012b00d980
:10532c00b6e04523e35c98469bb26381002b00d129
:10533c00b0e04346013b42461a4200d0ace04a235f
:10534c00e25c1202013be35c13431bb299469bb235
:10535c009a4623811b0700d0a0e04c23e05c00029e
:10536c00013be35c184318b92000583014f0aef937
:10537c004723e35c1b024622a25c1343002b00d1a3
:10538c008ee032006a4351460909c91889188842cf
:10539c0000d287e0401ab0fbf8fc404500d283e015
:1053ac004ff6f570c0f6ff70844500d98ae04ff6d1
:1053bc00f5700326844500d985e040f6f570022689
:1053cc00844500d981e0022060448046e061584663
:1053dc0060625b44a362594421630d265146002947
:1053ec0042d0d318e362012643465b0043445b087a
:1053fc00012241460a409b1840f2ff1c63445b0aa1
:10540c00ab4259d801235b426361236181336371e1
:10541c0026704bf6be32c2f20002138801339bb2e7
:10542c001380e3804df21833c2f20003e3600023d3
:10543c00a3614ef2e413c2f200031b689c420bd032
:10544c003e0011e05146002934d09b18e362022e35
:10545c00cad143465b00cfe74ef2e413c2f200031d
:10546c0000221a60ece70b26300005b03cbc9046dd
:10547c009946a246ab46f0bd0c26f5e70326f3e7aa
:10548c000a26f1e70126efe70d26ede70d26ebe7ff
:10549c000d26e9e70d26e7e70d26e5e70d26e3e700
:1054ac000d26e1e70d26dfe70d26dde70d26dbe710
:1054bc000d26d9e70d26d7e70d26d5e70d26d3e720
:1054cc000d26d1e70026002ef8d00220604480463d
:1054dc00e061584660625b44a36259442163032e29
:1054ec00b0d16323e25c1202013be35c13434a46f6
:1054fc001a4313b2002bd9d12000643014f0e6f813
:10550c00e06243469b0040f2ff1c63445b0aab42e3
:10551c00ced801235b426361236181336371173bf6
:10552c00e25c1202013be35c1343012b00d06fe7fa
:10553c0059460131200012f033f8002800d067e7fb
:10554c000023637140f23723e25c1202013be35cff
:10555c001343144a1bb2934200d059e72000383051
:10556c0014f0b4f845f25223c4f26113984200d0ff
:10557c004ee740f21c23e01814f0a8f847f272230f
:10558c00c6f24113984200d042e740f22023e018c3
:10559c0014f09cf8606140f22423e01814f096f8a3
:0855ac00206135e755aaffff5d
:020000040000fa
:1055b400ffd8ffe000104a4649460001010100609f
:1055c40000600000ffdb004300100b0c0e0c0a10ff
:1055d4000e0d0e1211101318281a1816161831234e
:1055e400251d283a333d3c3933383740485c4e401a
:1055f4004457453738506d51575f626768673e4d71
:1056040071797064785c656763ffdb004301111294
:10561400121815182f1a1a2f6342384263636363f2
:105624006363636363636363636363636363636346
:105634006363636363636363636363636363636336
:105644006363636363636363636363636363ffc02d
:1056540000110800130014030122000211010311b8
:1056640001ffc4001f000001050101010101010047
:1056740000000000000000010203040506070809f9
:105684000a0bffc400b51000020103030204030562
:105694000504040000017d01020300041105122128
:1056a40031410613516107227114328191a10823fb
:1056b40042b1c11552d1f02433627282090a16171d
:1056c40018191a25262728292a3435363738393a1d
:1056d400434445464748494a535455565758595ade
:1056e400636465666768696a737475767778797ace
:1056f400838485868788898a9293949596979899c6
:105704009aa2a3a4a5a6a7a8a9aab2b3b4b5b6b7ea
:10571400b8b9bac2c3c4c5c6c7c8c9cad2d3d4d516
:10572400d6d7d8d9dae1e2e3e4e5e6e7e8e9eaf155
:10573400f2f3f4f5f6f7f8f9faffc4001f010003d9
:10574400010101010101010101000000000000014b
:1057540002030405060708090a0bffc400b511007b
:105764000201020404030407050404000102770093
:10577400010203110405213106124151076171131d
:1057840022328108144291a1b1c109233352f01588
:105794006272d10a162434e125f11718191a262742
:1057a40028292a35363738393a4344454647484943
:1057b4004a535455565758595a636465666768691d
:1057c4006a737475767778797a8283848586878814
:1057d400898a92939495969798999aa2a3a4a5a638
:1057e400a7a8a9aab2b3b4b5b6b7b8b9bac2c3c464
:1057f400c5c6c7c8c9cad2d3d4d5d6d7d8d9dae290
:10580400e3e4e5e6e7e8e9eaf2f3f4f5f6f7f8f9b4
:10581400faffda000c03010002110311003f00d665
:10582400926bbf10ea53dadbdcfd9ed2107ee9e511
:10583400fb027b9c9fc31ef54f47d335146b9b889b
:105844005cc72dab6df2b3feb587254fb63bfbd5d8
:10585400fd4e4b5d016c63b505ae22259b9c174341
:10586400f7b77d4e31f4f6a92eb58b2b5d56daeae7
:10587400094325cc605c63a05fe163ee39fc3f0a19
:10588400c2cafa9eca94f9396947dd6b4d3b6f7ff2
:10589400546a5acd15cd9c12c058c6c831b8e48e8e
:1058a400d83ee28aa973a64c2e6492cafdeda39851
:1058b400f98c8aa08dc7a91f5c515addf63cd74ede
:1058c4009b7752b7de4fadd85add59bcb3c21a48e4
:1058d400d7e56e411f88ae73c3b616b7778cb71180
:1058e4000902f201271ffd7a28a8925cc8ecc3cef6
:1058f4004b0d3b3d8ebe501480a00006001da8a297
:085904008ad4f30fffd9c0465d
:020000040000fa
:10590c0040404040400000405050500034247e281d
:10591c0028fe785810787070781c1c7810000000e5
:10592c006200f200d400d5807a801ac013803180d6
:10593c0038006c006800380073004e006e007f0069
:10594c004040400020604040c040406020000000cb
:10595c004060202020202060400000003030783053
:10596c00480000001010fc30100000004040c00047
:10597c0000e000000040000010303020604040c0cb
:10598c0038784ccccc4c683818785818181818182b
:10599c00784c0c08183060fc784c08380c0c1c78cf
:1059ac001818386848fc1808786040780c0c18787f
:1059bc00386040f8eccc6c38fc0c081810303060b7
:1059cc00786c4c7878cc4c787878cccc7c0c187083
:1059dc004000000000400000400000004040c000bb
:1059ec00041860601804000000fc00fc00000000bb
:1059fc000060181c7000000070d818302020006067
:105a0c001e0033006e805a80528056805f8060008a
:105a1c003e00000018382c2c647e46c27c6e647ce0
:105a2c0066666e7c3c7460404060703c7c6e666266
:105a3c0062666e7c7c6060786060607c78606060c0
