:10000000F82E0020D5070000810A0000830A0000B6
:1000100000000000000000000000000000000000E0
:10002000000000000000000000000000850A000041
:100030000000000000000000850A0000850A0000A2
:10004000850A0000850A000000000000850A000003
:10005000850A0000850A0000850A000000000000F3
:10006000850A000000000000850A00000000000072
:10007000850A0000850A0000850A000000000000D3
:1000800000000000850A0000850A0000850A0000C3
:10009000850A0000850A0000850A0000850A000024
:1000A000850A0000850A0000850A0000850A000014
:1000B000850A0000850A0000850A00000000000093
:1000C0000000000000000000000000000000000030
:1000D000000000000000000000000000850A000091
:1000E000850A0000850A0000850A00000000000063
:1000F000000000000000000000000000850A000071
:10010000850A0000850A0000850A00000000000042
:10011000000000000000000000000000850A000050
:10012000850A000000000000850A0000850A000022
:10013000850A0000850A0000850A0000850A000083
:10014000850A0000850A0000850A0000850A000073
:10015000850A0000850A0000850A0000F82E0020AC
:10016000D5070000810A0000830A0000000000009B
:10017000000000000000000000000000000000007F
:100180000000000000000000850A000000000000E0
:1001900000000000850A0000850A0000850A0000B2
:1001A000850A0000870A0000850A0000850A000011
:1001B000850A0000850A0000870A0000850A000001
:1001C000870A0000850A0000870A0000850A0000EF
:1001D000850A0000850A0000870A0000870A0000DF
:1001E000850A0000850A0000850A0000850A0000D3
:1001F000850A0000850A0000850A0000850A0000C3
:10020000850A0000850A0000850A0000850A0000B2
:10021000850A0000850A0000870A0000870A00009E
:10022000870A0000870A0000870A0000870A00008A
:10023000870A0000870A0000850A0000850A00007E
:10024000850A0000850A0000870A0000870A00006E
:10025000870A0000870A0000850A0000850A00005E
:10026000850A0000850A0000870A0000870A00004E
:10027000870A0000870A0000850A0000850A00003E
:10028000870A0000850A0000850A0000850A000030
:10029000850A0000850A0000850A0000850A000022
:1002A000850A0000850A0000850A0000850A000012
:1002B000850A0000850A000010B500F0CFFB40F26F
:1002C0000003C2F20003186001000200030084462C
:1002D00010BC02BC864681F300880C47F8B5C046C6
:1002E000F8BC08BC9E4670479D080000F8B5C046A3
:1002F000F8BC08BC9E4670477908000041F2000334
:10030000C4F200030220187641F20041C4F2000159
:1003100000220A7441F60001C4F2000108621A8644
:1003200041F20002C4F200028021490413690B4229
:10033000FCD046F22003C0F280031B685B009B0EDA
:100340009B0240F200221343D200C4F20002536326
:1003500041F20002C4F200028021490413690B42F9
:10036000FCD041F20003C4F2000302221A86D2023A
:10037000C4F200028021490413690B42FCD041F60B
:100380000043C4F2000340F20712C0F201021A62F5
:1003900041F60042C4F20002042153681942FCD124
:1003A00041F60043C4F2000390224021995041F6E7
:1003B0000042C4F20002902013581942FCD041F6CA
:1003C0000043C4F20003C4224021995041F6004288
:1003D000C4F20002C42013581942FCD041F6004375
:1003E000C4F20003C8224021995041F60042C4F2F1
:1003F0000002C82013581942FCD041F60043C4F251
:100400000003D0224021995041F60042C4F200027C
:10041000D02013581942FCD041F60043C4F2000327
:10042000D8224021995041F60042C4F20002D8205F
:1004300013581942FCD041F60043C4F20003E022F5
:100440004021995041F60042C4F20002E0201358C6
:100450001942FCD041F60043C4F20003F0224021CF
:10046000995041F60042C4F20002F020135819429C
:10047000FCD040F60003C4F200034FF6F762C0F26E
:100480001F02DA61704730B5BFF35F8F62B64EF27C
:100490000013CEF2000340F280229958042529432C
:1004A00099509958995880200143995099589958D2
:1004B0008000014399509958995840F6000421430F
:1004C00099509958995880010143995099589958D1
:1004D00040000843985099589958802000060843D6
:1004E00098509A5840F28422985801210843985015
:1004F0009958985802210843985099589958294377
:1005000099509958985808210843985099589858E4
:100510001021084398509958985820210843985022
:100520009958985840210843985099589958214310
:1005300099509958995841F200000143995099589F
:1005400099584000014399509958995840000143E7
:100550009950995898588021090301439950995806
:1005600098588021490301439950995898588021FF
:10057000890301439950995898588021C903014330
:1005800099509958985880218904014399509B5853
:1005900030BD10B543F20023C4F2000348F200025C
:1005A0001A601A6101214522995400224F201A54E1
:1005B00001301954013019540130195401301954C3
:1005C000213810241C5405301A5404382834185586
:1005D00001341855F8242403DC66D4241955013459
:1005E0001955013419550834195501341955B931C3
:1005F000BD3C5C5401315A54043158540021CCF2B2
:100600007001B93019504EF20001C0F60B011430E0
:1006100019500021C1F61A011030195040F24D1145
:100620005A5401315A5401315A5401315A5401314A
:100630005A5402315A544D39FF3944301954073055
:100640001A54013019543031FF315A5401315A547F
:1006500001315A5401315A5401315A5403315A5418
:1006600001315A544EF20002C1F61B022E315A508B
:1006700010BD10B542F60023C4F200031A78012120
:100680000A431A7042F60022C4F2000201215368A4
:100690001942FCD142F60021C4F200010023C0F24D
:1006A0000923CB6190231B030B6241F250000861C8
:1006B00040F20403C2F2000310221A721A752024B9
:1006C0001A550C341A550C341A550C341A550C346E
:1006D0001A550C341A550C341A550C341A550C345E
:1006E0001A550C341A550C341A550C341A550C344E
:1006F0001A550C341A5508640B78022213430B70F8
:1007000042F60022C4F20002022153681942FCD1D1
:1007100010BD43F60003C4F2002301221A7043F611
:100720000002C4F200220121138C0B42FCD146F2DC
:100730002003C0F280031B681A0240F200710A40D5
:100740009B065B0F1A4343F60003C4F200239A850D
:1007500002225A7001325A73822199701A81013231
:100760005A8107229A7143F60002C4F20022138CC8
:100770009BB2002BFBD1704700230E4A10B51360CB
:100780000D4A0E4C13600E4A13600E4A13600E4A57
:1007900013600E4A536213610133936000F074F9E1
:1007A00000F072F90A4B9C4200D310BD08CC984768
:1007B000F8E7C04634010020D0000020E802000025
:1007C000CC000020C4000020C8000020D40000207D
:1007D000EC02000010B540F67F23C0F200039847FA
:1007E00040F67F23C0F20003984700F0D3F840F2B0
:1007F0000003C0F200037F2293434EF60052CEF274
:100800000002936040F27973C0F20003984740F60B
:100810007F23C0F20003984740F67F23C0F2000315
:10082000984700F066F8FEE7140100201C00000065
:100830000000000004000020C000000000000000D4
:100840000000002004000000000000003001002033
:100850000400000000000000C40000205000000060
:10086000000000003401002004000000000000002F
:10087000000000000000000010B5054C227832B9DD
:10088000044B13B1044800E000BF0123237010BDE6
:10089000140100200000000000000000034B10B510
:1008A0001BB10349034800E000BF10BD0000000079
:1008B000180100200000000040F20043C4F20003D1
:1008C00000221A819A7901210A439A719B780322A6
:1008D0001340022B0CD040F20043C4F20003013A53
:1008E0009A705202C4F20002012193790B42FCD0AB
:1008F000704710B582B08023DB021C68002000F036
:1009000015F800F05FF8631C0FD084F38888042387
:10091000C0F204031B680193019C6408640020007A
:1009200021002200230000F01BF8FEE710B5FFF7BE
:10093000C3FF45F20003C4F2001304225A60FFF71C
:1009400028FEFFF7DBFC00F077F8FFF7E2FE00F08F
:1009500068F800F01EF8FFF78CFEFFF794FD10BD5D
:10096000E0B545464E465746E0B45D4620B42546C0
:1009700026462746A046A146A246A346A44684F39F
:100980000088A44720BCAB46E0BCBA46B146A846A6
:10099000E0BD704710B50948016811B9436803B953
:1009A00010BD04008368064A9BB20C349B009B5820
:1009B00042682000984780002018EDE728080000D2
:1009C000240A000043F60003C4F200231A7802212F
:1009D0000A431A7043F60002C4F200220221138C6B
:1009E0000B42FCD1704743F60003C4F200239B790D
:1009F00001221340180023B143F60003C4F2002380
:100A00009A717047002310B5934206D10320184015
:100A1000421E90419B08C01810BDC45CCC540133E9
:100A2000F2E770474B0A0000050A00007B0A00004D
:100A30007B0A00007B0A000045F20003C4F20013A9
:100A400006225A60053A1A7270478A18914201D1FB
:100A50000020704700230B700131F7E710B5FFF756
:100A6000C2FF0028FBD000F001F810BD43F60003E0
:100A7000C4F20023988C80B2704700207047704702
:0A0A8000FEE7FEE7FEE7FEE7704721
:020000040003F7
:08FE00007FE97FE9C0F758BA61
:020000040004F6
:10000000F8FF00201D320500FB9104002796040034
:1000100000000000000000000000000000000000E0
:100020000000000000000000000000002BA30400FE
:1000300000000000000000002BA304002BA304001C
:100040000000000000000000694E050000000000F4
:10005000000000000000000000000000B16005008A
:1000600000000000D960050000000000A944050060
:100070000000000000000000000000007D010500FD
:10008000E9FB040000000000000000000000000088
:100090000000000000000000000000000000000060
:1000A0000000000000000000000000000000000050
:1000B000000000000000000000000000555C04008B
:1000C000555C0400555C0400555C04002D50040090
:1000D0002D5004002D5004002D500400000000009D
:1000E0000000000000000000000000006521050085
:1000F000652105006521050065210500000000005F
:100100000000000000000000000000006B4D040033
:100110006B4D04006B4D04006B4D040000000000AB
:1001200000000000F74A0500000000000000000089
:1001300000000000000000000000000000000000BF
:1001400000000000000000000000000000000000AF
:10015000000000000000000000000000F8B5C046EC
:10016000F8BC08BC9E467047CD420500F8B5C046B5
:10017000F8BC08BC9E467047A9420500D448000060
:1001800001000000D453000001000000F0B5BC4C99
:10019000A544109304000023080008920693302819
:1001A00051D02E2877D1E36BE26C934258D25A1C7F
:1001B000E26318780022002302920393302853D080
:1001C00001230993002300221E0015001F00129333
:1001D000059300930300303B092B62D92E2862D08F
:1001E000099B0BB902950396069B002B00D1AEE349
:1001F00020230343652B00D0C1E39999200009F027
:1002000013FA70B980231B0699420AD1999B002BDF
:1002100000D1AAE3E36C0020002113B1E36B013BA2
:10022000E363029B039C1B184C4102930394129CB2
:10023000002C00D088E0989816F0F0FC00220023F3
:1002400008F085FB97E3E36BE26C934204D25A1CFF
:10025000E26318780123A1E7200012F0E1FEF9E73C
:10026000200012F0DDFEA5E701225242D3170298CA
:10027000039980185941E36BE26C02900391934219
:1002800005D25A1CE26318780123069396E72000F2
:1002900012F0C6FEF8E700230022099302920393AE
:1002A00090E72E280ED1099B002B4BD10295039687
:1002B00001330993E36BE26C93423FD25A1CE26331
:1002C000187887E7009A7C2A20DC29003200012573
:1002D0000026491972410D001600302800D0059102
:1002E00037B1009A12A9920052580A214A43D318F2
:1002F000009A12A992005350012301370693092F47
:10030000D8D1009B002701330093D3E72A003300A4
:10031000012500265219734115001E003028C9D04E
:1003200040F2F01212AB9B580593012305990B4341
:1003300012A98B5040F25C430593BBE7200012F0FA
:100340006FFE47E72E204FE7029A95421BD1039A92
:10035000964218D1002E16DC0EB9092D13D8089B31
:100360001E2B03DC2300089AD34063B9989816F03B
:1003700055FC060020000F0016F016FD02000B00D1
:10038000300039005CE7109B109ADB0F9B185B1064
:1003900003995B42DA17914203DC11D1029A9A4227
:1003A0000ED92222374B98981A6016F037FC01229A
:1003B000354B524208F0CBFA0122334B52423FE711
:1003C000109B03996A3BDA178A4203DC11D1029A27
:1003D00093420ED922222B4B98981A6016F01EFCDD
:1003E000802300225B0308F0B2FA802300225B0323
:1003F00026E70A21F7B9059B029C082B6BDCA34278
:1004000069DC112C67DC092C1AD1129816F0CCFC8F
:10041000040098980D0016F001FC02000B0020006B
:1004200029000DE79A0012ABD35812A806934B434C
:1004300001371350009B082FF4DD01330093DAE7F6
:10044000082C25DC129816F0AFFC060098980F00D7
:1004500016F0E4FB02000B003000390008F077FAD8
:1004600008231C1B094BA4000600E0580F0016F0DF
:10047000D5FB02000B00300039000DF088FA7AE25B
:10048000B4FDFFFF60660020FFFFEF7FC85D050041
:100490002300093B9A009B1A089A9B181E2B02DC2A
:1004A000129ADA40BAB9129816F07EFC06009898B3
:1004B0000F0016F0B3FB02000B003000390008F00B
:1004C00046FA0A3C8E4BA4000600E0580F0016F0D6
:1004D000A5FB53E70093009B12A9013B9A005258D9
:1004E000002AF7D0092394FBF3F25343E31A029353
:1004F000DBB1002C01DA093302930823029A12A817
:100500009B1A7F4A9B009F5800231A001900009DE8
:10051000A9420DD12BB1A90012A80B502B00013319
:100520000093029B0292E41A09340023059378E0B9
:100530000568B5FBF7F6F3189C460360714B7E43E4
:1005400093FBF7F3AE1B7343914205D165461DB98A
:100550007F224D1C2A40093C01310430D7E7059B1E
:100560001D3B0593009B5D1E7F231D4000230693CA
:1005700012AAAB009B58DA085B070A93069B0B9202
:100580000C9300230A9E0B9F0D930C9A0D9BB6189B
:100590005F4117B95B4B9E421ED95A4A0023300077
:1005A000390014F081F8574A0690002330003900D2
:1005B00014F07AF8AB0012A95A50009B591E7F2301
:1005C0000B40AB420BD1029B9D4273D002B9009508
:1005D0007F23013D1D40CBE732000697EAE7029AF0
:1005E0009542F5D1069AE2B17F21029A0934013A87
:1005F0000A4002920298009A82420DD15A1E0A4085
:10060000920012A810589900009012A8095800985A
:100610000093014312A81150029B06999B0012AA55
:100620009950112C9BDD122C06D1029B12A99B0024
:10063000354A5B58934292D90126029B009A934215
:1006400015D012AA9B009B582F4A93420FD92F4ACC
:1006500093420ED17F22029B01331340009A9A42AB
:1006600005D09B0012A92A4A5B58934201D8122C4C
:1006700050D032001B2C00DD0922059B00219B1865
:10068000059333009340013B06931E4B13419C4658
:10069000029B009883420FD10029CED0421C7F20BC
:1006A000029B02409A4220D0009B12A89B00C1509E
:1006B0000092C2E7029B95E79F0012A83D582800D0
:1006C000D040401812A978500699294065466943E0
:1006D000029DAB4205D120B95D1C7F3005400295DB
:1006E000093C7F2001330340D3E7009B12AA013B62
:1006F00003409B00D25812A906923243CA509CE78D
:10070000C85D050000CA9A3B5E7089005F70890071
:10071000FF092F0F029B009A934209D15A1C7F2395
:100720001A40130000920022013B9B0012A9CA50FC
:10073000029B12AA9B00D05816F036FB0022002321
:1007400007F0A8F8029B009A5E1C7F231E40964289
:1007500008D101321A40130000920022013B9B0095
:1007600012ACE2500022874B08F0F1F804000D00B3
:1007700012ABB600F05816F017FB22002B0007F062
:1007800089F804000D00989816F048FA22002B0012
:100790000690079108F0DBF8059B109A353311930A
:1007A0009B1A089A0A900B910C93934200DBB1E0DC
:1007B000002B00DAB1E01D0001230993342D00DD88
:1007C000AFE069220020521B6F4912F00BFF0A9A1A
:1007D0000B9B16F0A5FF35220E900F91521B0020A7
:1007E000694912F0FFFE02000B000A980B9917F0FE
:1007F0002FF902000B0006000F000A980B9916F063
:10080000ABFE02000B000E980F9907F043F80A9018
:100810000B917F22029B0099023313408B4232D00E
:1008200012A99B005B5859498B4200D980E02BB933
:10083000029C009B033414409C420DD00022544B78
:100840000698079908F083F802000B003000390081
:1008500007F020F806000F0035235B1B012B12DD8B
:100860000022494B3000390017F0F2F80022002333
:1008700015F0E2F938B1300039000022424B07F0A0
:1008800009F806000F000A980B99109B32005C4291
:10089000089BE41A3B0006F0FDFF0E9A0F9B16F032
:1008A0005BFE119B621E5B00009001915B089A4207
:1008B0002ADC17F0C9F80022364B13F0E9FB90B19F
:1008C000099B2BB10C9B5D1B2B005D1EAB4109935B
:1008D000314B00980199002208F039F8059B0090EF
:1008E000019101330593059B03343433A34208DAA5
:1008F000099B4BB1002200233000390015F09CF910
:1009000010B92222254B1A60059A0098019917F018
:1009100097F830E0089D00234FE701230025099355
:100920004FE7002300241E000E930F94270070E76A
:100930001B498B4202D000221A4B81E7029C009B8C
:100940000334144000229C42F6D1134B78E7002870
:1009500008DBE36C13B1E36B013BE363069B002B05
:1009600000D064E416220D4B1A600021200016F01E
:1009700019FB0020002140F24C239D44F0BD0028CB
:10098000E7DA54E465CDCD410000F03FFF64CD1DB2
:100990000000D03F000040430000E03F60660020C0
:1009A0000065CD1D0000E83FF0B595B0040004924D
:1009B000022900D929E1AF4B01335B18DB7F4900E5
:1009C0005BB21293AB4BC91824228B5E0A93E36B84
:1009D000E26C93422CD25A1CE2631D78202DF6D093
:1009E0002B00093B042BF2D901222B2D25D0069296
:1009F00002232D2D22D0002720239F4A2B43BA18F3
:100A00001278934229D0032F03D040D9049B002BA6
:100A10003ED0E26C12B1E36B013BE363049B4BB34A
:100A2000032F27D012B1E36B013BE363013FF7E7EC
:100A3000200012F0F5FA0500D0E70023D31A069340
:100A4000E26CE36B934203D25A1CE2631D78D2E757
:100A5000200012F0E5FA0500CDE77E1C072F09D033
:100A6000E36BE26C93420DD25A1CE2631D783700AF
:100A7000082EC1D1069B0020013300D1A2E27F499C
:100A800015B0F0BD200012F0CBFA0500EFE7B7B1CA
:100A9000E36C002B00D1B1E0E36B013BE363ADE01D
:100AA0007E1C022F00D19AE2E36BE26C93426BD280
:100AB0005A1CE2631D783700032E00D18FE22023F9
:100AC0006F4A2B43BA1812789342E9D0002FDFD136
:100AD000129B0B93302D00D069E2E36BE26C9342E2
:100AE00000D39CE05A1CE26318782023E26C034395
:100AF000782B00D057E2E36B934200D393E05A1C6B
:100B0000E263187800230F93302800D18FE02E285D
:100B100000D199E000220023089209930E9300234C
:100B200000221393574B00251092119300230026A7
:100B3000029203930300303B0C93092B00D8BBE0D7
:100B400020230343613B052B00D8B5E02E2800D1BC
:100B5000B4E00F9B002B00D01BE1E36C002B00D115
:100B600032E2049AE36B002A00D10BE10E9A002ACC
:100B700000D005E1023BE363069816F04FF800222F
:100B8000002307F0E4FE7BE7200012F049FA05009D
:100B900091E75A1CE26318782838431E9841C0B286
:100BA000012540B1E36C13B90020374968E7E36BD6
:100BB000013BE363F8E7E36BE26C934211D25A1C0A
:100BC000E26318780300303B092B08D92023020088
:100BD0009A431300413B192B01D95F2805D10135F8
:100BE000E9E7200012F01CFAECE72928DCD0E26CDF
:100BF00012B1E36B013BE363049B6BB91622234BF9
:100C00001A600021200016F0CDF90020002137E7FE
:100C100012B1E36B013BE363013DF9D2C4E720006D
:100C200012F0FEF961E7200012F0FAF96AE7E36BCF
:100C3000E26C934204D25A1CE2631878012362E703
:100C4000200012F0EDF9F9E7E36BE26C93420DD26C
:100C50005A1CE26318780022002301256D42EE172A
:100C600008920993302813D0012357E7200012F08F
:100C7000D7F9F0E7C85D0500047805000000F07FB3
:100C80000D7805000000F03F0000F87F606600204E
:100C9000E36BE26C93420BD25A1CE2631878089A19
:100CA000099B521973410892099301230F93D9E7C5
:100CB000200012F0B5F9F2E72E2813D10E9B002B7D
:100CC00000D086E10C950D9601330E93E36BE26C38
:100CD000934251D25A1CE2631878089509960C9DEC
:100CE0000D9E27E7392803DD20230343573B0C9350
:100CF000002E2ADC0EB9072D0DD80C9B3F01DF1901
:100D00000122002352197341089D099E0C920D93F4
:100D100001230F93DAE70D2D17D8109811990022AF
:100D2000B34B07F014FE109011910C9815F076FF5C
:100D3000109A119B07F00BFE02000B00029803991A
:100D400006F0A8FD02900391DAE70C9B002BD7D0A8
:100D5000139B002BD4D1109811990022A54B07F0BA
:100D6000F6FD0B0002000298039906F093FD0123A3
:100D7000029003911393C3E7200012F051F9ACE7FE
:100D8000033BF8E6013BE3630021200016F00AF97B
:100D9000F2E60E9B0BB9089509960122002302E0AA
:100DA000AD185E413F01002E03DC002EF8D1072D67
:100DB000F6D92026304370280CD10499200008F081
:100DC00033FC70B980231B0699420AD1049B002B87
:100DD00000D116E7E36C13B1E36B013BE363002042
:100DE0000021002F00D1C7E6089A099B082464421D
:100DF000E51712196B411400960F9B003343A200B4
:100E000012184B41049205930A9B05995B42DA172D
:100E1000914203DC11D1049A9A420ED92222764BD8
:100E200006981A6015F0FAFE0122744B524207F040
:100E30008EFD0122714B5242A3E60A9B05996A3B43
:100E4000DA178A4203DC33D1049A934230D9222242
:100E5000694B06981A6015F0E1FE802300225B03BF
:100E600007F075FD802300225B038AE600220298CA
:100E70000399604B13F00CF97F00002800D187E044
:100E80000298039900225E4B16F066FB01370200C0
:100E90000B000298039906F0FDFC01225242D31781
:100EA0000290039104980599801859410490059186
:100EB000002FDBDA04980599129B2022DC1700230F
:100EC00012184B410A98C117121A8B419C4203DC3D
:100ED00008D11299914205D9049B0A9A9B1A203392
:100EE0000B935AD40B9B342B5ADC54220B9B0020BF
:100EF000D21A434912F076FB040006980D0015F053
:100F00008DFE0B0002002900200016F009FC0B9B4F
:100F100004000D001F2B0DDC029803990022002312
:100F200014F08AFE30B9FB0704D400220023029299
:100F300003930137069815F071FE029A039B069001
:100F4000079107F004FD02900391380015F02CFF83
:100F5000069A079B07F0FBFC22002B0006F09AFC88
:100F6000029A039B06F096FC22002B0016F0F4FA7E
:100F70000022002304000D0014F05EFE10B12222B6
:100F80001D4B1A60049A2000290016F059FD77E5E0
:100F9000029A039B100019007DE700230B93A4E73E
:100FA00000240025C6E712B1E36B013BE363049B19
:100FB000129A0193069B2900009320000A9BFFF7D9
:100FC000E5F85DE50F495BE5049B002B00D0D3E518
:100FD000DAE60F9B2E20002B00D0DEE6BDE5E36BAA
:100FE000E26C934200D2D4E5200012F019F8D3E568
:100FF0000000B03F0000E03F60660020FFFFEF7F91
:101000000000F03F0000F0FF006500201C00000021
:10101000000000005C6400200400000000000000EC
:10102000C86500200400000000000000DC6700200C
:101030000800000001000000694605008529050040
:101040002C62002048000000000000000860002022
:101050008200000000000000A85A002000010000EB
:1010600000000000CC65002004000000000000002B
:10107000746200204400000000000000BC630020F7
:101080002A00000000000000D065002004000000DD
:1010900000000000DF6400200100000000000000EC
:1010A000806100205C0000000000000098650020C6
:1010B00008000000000000000047002000080000B9
:1010C00000000000A0580020010100000000000006
:1010D000A45900200101000000000000004F002082
:1010E0000004000000000000D4650020080000009B
:1010F00000000000686500200C00000000000000F7
:10110000DC6500200400000000000000FF640020F7
:1011100001000000000000008A60002002000000C2
:1011200000000000E0650020040000000000000056
:1011300079660020030000000100000007010100A3
:101140000C6100207400000000000000E465002035
:101150000400000000000000A15900200100000070
:10116000000000001C6500201C00000000000000C2
:10117000A55A00200200000000000000E8650020E1
:101180000C00000000000000EE67002001000000DD
:101190000100000004000000EC67002002000000D5
:1011A0000400000000010800E8630020280000009F
:1011B00000000000A75A002001000000000000000D
:1011C000A06500200800000000000000F465002079
:1011D0001C00000000000000EF670020010000007C
:1011E00001000000FF000000106600200C0000005D
:1011F00000000000E6630020020000000000000084
:10120000696600200300000000000000285E002046
:10121000B0000000000000006C660020010000002B
:10122000000000001C660020080000000000000014
:10123000A259002002000000000000006D6600209E
:1012400002000000000000002466002004000000EE
:1012500000000000A85B002000010000000000006A
:10126000386500201000000000000000005700203A
:10127000A001000000000000A8670020140000008A
:1012800001000000E9440500654705000161050013
:10129000B17605005DA40400606700203000000006
:1012A0000100000000030000C0000000A086010053
:1012B000000000000000000000000000000000002E
:1012C0000000000000000000DC0500001400000029
:1012D000A8670020D06700200C000000010000007B
:1012E00000000000906700200000000090670020D0
:1012F0001800000001000000957A0500997A0500A9
:101300006F280500BD2D0500696305009D7A050065
:10131000E467002004000000010000002B2F3D4086
:10132000286600200400000000000000386400204F
:1013300024000000000000004865002010000000AC
:101340000000000060640020600000000000000059
:10135000A85C0020C00000000000000074650020B0
:101360000C0000000000000038630020580000005E
:10137000000000006F660020010000000000000077
:10138000906300202C000000000000008C60002012
:101390008000000000000000005300200004000056
:1013A00000000000B86200204000000000000000C3
:1013B000A865002010000000000000002C6600203E
:1013C0000400000000000000706600200100000022
:1013D00000000000002F00200008000000000000B6
:1013E000306600200800000000000000685D00205A
:1013F000C000000000000000B865002008000000E8
:1014000000000000806500200C00000000000000CB
:10141000716600200200000000000000F862002059
:101420004000000000000000D85E0020A000000086
:1014300000000000FE660020020000000400000022
:1014400001000100106400202800000000000000DE
:10145000785F002090000000000000003866002047
:10146000040000000000000058650020100000008B
:10147000000000003C6600200400000000000000A6
:101480007366002002000000000000006866002073
:10149000010000000000000075660020010000004F
:1014A00000000000003700200008000000000000DD
:1014B0004066002008000000000000007C6600205C
:1014C0008200000004000000424141414141444487
:1014D0003144424141414444314400704866002057
:1014E0000400000000000000C06400201F00000095
:1014F00000000000E06400201F0000000000000069
:10150000766600200200000000000000003F00207E
:1015100000080000000000004C66002004000000ED
:1015200000000000BC670020140000000400000060
:101530003C5052454649583E000C00005066002081
:101540000400000000000000786600200100000098
:1015500000000000546600200C00000000000000A5
:10156000E867002004000000010000000100000006
:10157000606600200400000000000000DC61002024
:101580005000000000000000C065002008000000BE
:10159000000000006466002004000000000000005D
:1015A0000067002060000000010000000100000052
:1015B0000300000000000000000000000000000028
:1015C0000000000000000000012C050000000000E9
:1015D0000000000000000000677905009B4805003E
:1015E00000000000000000000000000000000000FB
:1015F00000000000000000000000000000000000EB
:101600000000000000000000000000008C650020C9
:101610000C000000000000000000000000000000BE
:10162000666666666666666666666666666666665A
:101630006666666666666666F0B59BB013930B6871
:1016400015900A934B680D9102938B68CE680B93AB
:101650000B69189313680693536806980893002241
:101660000023089913F0BCF860B90A9B5B0734D4D7
:1016700008200A9B034009930B9B0393099B73B1BA
:10168000202306E0802212069446089B63440893B8
:101690002D2333700B9B013B039301230993089B7C
:1016A00006995B005B088E4AD9B9934219D1139B06
:1016B000099A413BB018192B11D88A4916F028F91C
:1016C000300015F057FC0A9B0200009331000B9B81
:1016D00015980FF047FD1BB0F0BD2B23D9E78249C9
:1016E000ECE7934202D80BD1069B4BB1139B099AAE
:1016F000413BB018192B01D87C49DFE77C49DDE775
:10170000002200230698089914F096FA0024794DD7
:101710000027E8BB070002E00137049C059D00227A
:10172000754B2000290007F012F9069A089B0490D7
:10173000059113F0D1F80028EED0002304931FE0A8
:101740006E4B9F4213DA049B8BB900226C4B0698B8
:10175000089907F0FCF86A4B0690089120002900D0
:10176000002207F0F4F8012304000D000493200088
:1017700029000022604B0CF00AF904000D00013F23
:1017800022002B000698089913F02AF80028D7D1D8
:10179000139816F029F8C3B20C93029B002B00DAC1
:1017A00093E10C9B0493672B00D0AFE0029B002BCE
:1017B00000D185E13B1D03DB029B9F4200DAA1E0E3
:1017C0006523B5E0002200230E920F9303E10694F7
:1017D0000795049B0897652B00D01CE10023089314
:1017E00019E1029B5BB9089B002B08DA2E23149A9F
:1017F0000134B354039B013B039301230293230061
:101800002A19302101E0F15401339A42FBD1039AA5
:101810002B193030551B5C1CF0546B1E03930025B4
:1018200023E00D9B14941B691093053BA34200D841
:10183000FDE0069A079B0E9812990CF0A8F80CF0A0
:1018400081FA1090119113F0E3FD092800DD0920C1
:1018500010230A9A13400343002BC2D10C9B672B21
:10186000BFD1089B002BCADA0135802000068446D0
:1018700012990E9A61440B001098119900920193ED
:10188000069A079B15F054FF80231B06CB180E9079
:10189000129306980799184B00220CF078F8089BD1
:1018A00006900791013B0893BCE00A9BDB0600D43D
:1018B000C1E02E2333550134BDE00A2297FBF2F537
:1018C0006A43BA1A3032013BF254039A2F00013AAC
:1018D0000392BDE0039B325CF3181A540138E3E035
:1018E0000000F07F00770500047705000877050009
:1018F0000C7705000000F03F00002440D4FEFFFFFD
:1019000000005043002F12DA66230493029B013338
:101910000293049B662B0CD1002F02DA00240027CF
:101920006D4D0C9B672B02D0029BDB190293662343
:101930000493069B0E940F951293089B109300231B
:1019400014930E9A0F9B129810990CF020F80CF03B
:10195000F9F91690179113F05BFD1990802000069D
:1019600084461099129A61440B00169817990092B8
:1019700001930E9A0F9B15F0DBFE80231B06CB18FC
:101980001290109300220E980F99544B0BF0FFFF0A
:10199000149B0E900F9101331493149A029B93425F
:1019A000CFD100224E4B06F0D2FF0E900F910200D5
:1019B0000B001298109912F013FF002800D001E7D5
:1019C0000E9A0F9B1298109914F036F918B1199BC2
:1019D000DB0700D4F6E60E9A0F9B0698089905F0EF
:1019E00059FF00220E9012913C4B2000290006F076
:1019F000AEFF0E9A129B0690079112F027FB00286B
:101A000000D1E4E6049B0137662B00D0E1E6029B9F
:101A10000897013302930025029A089B099C9B1AA0
:101A200016930295089B169A934200D0F9E6029B02
:101A3000002B00D139E70021049B30190170652B80
:101A400025D1189B013BF1548F4201DA7F420131CD
:101A5000002F00D031E7189A9A1A0332002A00DDCD
:101A60002BE75D1E2D2201B9023A7255139A023BF3
:101A7000413A192A01D845220492049AF1180A70B1
:101A8000039A023A03929C4201DA15F041FF0323C4
:101A90000A9A1340022B00D012E6039B002B00DCB5
:101AA0000EE6300015F066FA099B834200DC11E770
:101AB000F018039A302115F083FC00230B93FFE507
:101AC0000123029376E60623FBE70C9B672BFAD0F3
:101AD00004930623029319E70000F03F000024401E
:101AE00000001440F0B5DE4657464E464546E0B588
:101AF000BBB046F23463C2F200031B680BBB46F274
:101B0000B053C2F200031C683CB143F60453C0F268
:101B1000050340F2480A9A44BFE046F22C61C2F243
:101B200000014A78013147F27030C0F205000DF033
:101B30003AFF70B146F2B053C2F200031C68002CA9
:101B4000E3D101203BB03CBC90469946A246AB464F
:101B5000F0BD46F27063C2F200031B78002BE9D19E
:101B600046F27063C2F2000301221A70E2E700231A
:101B7000637543F60457C0F2050726001236A846DF
:101B8000554603223968300014F06CFB002800D160
:101B9000F3E10C37AF42F4D1AA460023238278E068
:101BA0000D2840D00A283ED0082800D170E17F28B7
:101BB00000D1A5E11B2800D1C4E1E16940F2200871
:101BC000A0444346CB1A4F2B00DDC4E1A369CB1AD6
:101BD000002B00D1BBE14A1ED84309181078507081
:101BE000013A9142FAD1E269511CE1610021517040
:101BF000A26901324BF63041C0F20401200072307C
:101C000015F0A5FA7123E7543368210071312800DB
:101C10009847A3691F70A3690133A361E2699342E6
:101C200037D9E36135E040F2200BA344E3695B451B
:101C30005ED04FF6E041C0F20401280033689847B7
:101C40000023E26913705B46A361E3612022002157
:101C500008A815F0B5FB676805975122594610A8EA
:101C600015F05CFE082208A910A80EF02BFC0490C9
:101C7000002845D14BF66C31C0F2040123681B6883
:101C8000380098474BF60C41C0F204013368280035
:101C90009847A468002C00D153E72668656828009F
:101CA000F36898470028F4D0280033699847070064
:101CB0001021635E002B00D172E7E21890740133AB
:101CC0001DB22582032D00D151E7022DE1DDE6682A
:101CD000B3689D42DDD131682000123015F000FA62
:101CE00018B9736831002000984700232382D0E799
:101CF00047F67C01C0F20501336828009847C8E721
:101D0000049B002B08DC4BF6DC31C0F20401236895
:101D10001B6805989847B5E7CC23E3582200CC32DE
:101D20005768BB4240D079682200CC3251600B60CA
:101D3000CC23E35852685A60380008305122594683
:101D400015F0ECFDCC23E358B3B33B60CC23220069
:101D5000CC3252687A601760E2585760E750D4235B
:101D60000022E250089B039346F2D437C0F20507E5
:101D700040F22408B8444346A0462C001D003968B0
:101D8000039815F0ADF9F8B10C37AF42F7D1250043
:101D9000444645F66858C2F20008A14606955B46DF
:101DA0000793B34646463EE00022CC216250210014
:101DB000CC314A601F00BFE7CC33E7502300CC335F
:101DC0005F603F607F60CAE725004446049B082BA4
:101DD00009DD4BF6A431C0F2040123685B680822D8
:101DE000059898474EE77B6808AA049940469847AB
:101DF00048E74C465E46069D4BF6A431C0F204010E
:101E000023685B680822059898473BE74C465E4686
:101E1000069D7B6808AA04994846984732E7183619
:101E2000584B9E422CD07468002CF8D0356995B17F
:101E30005122079925A815F071FD7369009351236C
:101E400025AA49462000A847F0B9082208A925A8D4
:101E50000EF038FB0490049B082BCADC77683468CA
:101E6000002CDCD0089B039300253968039815F0FB
:101E700037F90028CAD001350C37A542F5D1CEE795
:101E80004C465E46069D3EE74C465E46069DF9E69C
:101E9000A16923002033994200D8FAE6E369994208
:101EA00020D24A1E5B1A33B1581E091850781070A0
:101EB00001329142FAD1A269013AA261E269013A82
:101EC000E261002111704BF61041C0F20401A269D9
:101ED00027007137380015F03AF9336839002800C7
:101EE0009847D6E64BF61C41C0F20401336828003F
:101EF0009847A369013BA361E369013BE361C8E63D
:101F0000E369A269934200D8C3E6511C5B1A2BB166
:101F1000D0185178117001328242FAD1E269013A47
:101F2000E261002111704BF62441C0F20401A26964
:101F300027007137380015F00AF933683900280096
:101F40009847A6E61B23A37401232382A1E67223EC
:101F50000022E25456E64BF63841C0F20401280054
:101F6000336898474346A361E3614BF60C41C0F2E6
:101F700004013368280098478BE6AA464546E76087
:101F8000A5E6C046285E0020F0B599B014930B6812
:101F9000576809934B6813900D938B68CE680C9328
:101FA0000B693900119313680022089308980023E5
:101FB00012F016FC60B9099B5B072FD40820099B1F
:101FC0000C9D0340059363B12023013D337006E06F
:101FD00080231B06FF182D2333700C9B5D1E0123ED
:101FE0000593089A7B005B08E2B9AB4A934219D18A
:101FF000149B059A413BB018192B11D8A74915F02D
:1020000087FCA74814F0B6FF099B0200009331003B
:102010000C9B13980FF0A6F819B0F0BD2B23DBE74B
:102020009F49ECE79C4A934202D80ED1089B63B1CA
:10203000149B059A413BB018192B04D8994915F007
:1020400067FC9948DEE79849F9E7059B05995A1C12
:1020500030237354149B413B0E930E995823192936
:1020600000D920330599B3540231AB1E0591079373
:10207000002200230898390013F0DEFD002800D16B
:102080005FE10023894C0693029303940D9B109308
:10209000002B01DA18231093029B039C0A930B94E4
:1020A0003C000023089D129328000A9A0B9B2100F4
:1020B0000BF06DFC0BF046FE0A9A0B9B16901791E5
:1020C00006F045FC02000B002800210015F044FA40
:1020D000774B05000C000A980B99002206F037FC9C
:1020E000129B0A900B9101330F930D9B002B06DA84
:1020F000002200232800210013F09EFD30B9109B20
:10210000129A934200DD22E101330F9300220A98D4
:102110000B99684B06F01BFC0A900B9102000B0018
:102120002800210012F05CFB002800D011E10A9A7F
:102130000B9B2800210013F07FFD30B116981799F2
:1021400013F066F9C30700D403E10A9A0B9B0898C1
:10215000390005F09FFB169149000A90490818B90B
:102160004D4B994200D143E70025059C10950895F9
:10217000119B2700053BA34231D9029A039B0A9881
:1021800016990BF004FC0BF0DDFD1490159113F083
:102190003FF90300002800D0E0E0089A002A00D1AF
:1021A000DCE00135029A039B1498159906F0CFFBE9
:1021B00002000B000A98169915F0CEF900220A9039
:1021C00016913B4B0298039906F0C1FB089B0290C5
:1021D000039101330893089A0F9B9342C8D1109B37
:1021E000D3B9002D00D1FDE00D9B002B00DCF9E000
:1021F000099BDB0700D5F5E02E22302133191A7038
:102200002A19B218597001339A42FBD12C19ED43A7
:10221000079B0134EB1807930021119B069A301994
:10222000013B0170F1548A4202DA524206920131B6
:10223000069A002A00D0BFE0119A9A1A013200D102
:10224000BAE05D1E2D2201B9023A0E997255023B89
:102250005022192900D92032F1180A709C4201DA63
:1022600015F056FB0323099A1340022B11D1079B4B
:102270009C1E002C0DDD300014F07CFE059B984266
:1022800000DBA8E0F0182200302115F099F80023B7
:102290000C933000B6E6C0460000F07FF0760500F3
:1022A000F4760500F8760500FC7605000000F03FA6
:1022B0000000B03F00002040069B029403950133CC
:1022C0000693029A039B1000190005F0E3FA04003C
:1022D0000D0002000B000898390012F081FA002866
:1022E000EAD0029A039B0898390012F079FA002884
:1022F00000D1CBE60298039900223E4B06F027FB63
:102300000022002313F098FC78B102980399002270
:10231000394B06F01CFB002202900391364B0898C3
:10232000390006F014FB0F000890324B0298039915
:10233000002206F00CFB069B02900391013B0693E2
:10234000CFE700232D4C069002930394B9E70F9B2F
:10235000A9E6002300240A930B94F6E6109A4AB9E2
:10236000089A3AB12E22F255079A0134013A07929F
:10237000012210922A191292302201E032550134C2
:1023800012998C42FAD11800079A5730571B092B23
:1023900001DC303318000E9B192B06D82023034391
:1023A000613B192B01D815F026FA129B00255C1C05
:1023B000F0547B1E0793F5E60A22069D069F95FBC7
:1023C000F2F56A43BA1A3032013BF254079A069585
:1023D000013A07922CE7079B325C023BF3181A5430
:1023E00001384BE7099BDB0600D415E72E23335554
:1023F000013411E70000E03F000050430000F03FCF
:1024000070B5D74CA544040042F6B441C0F20501B2
:102410005822FFA8043014F0C9FF46F27963C2F2D3
:1024200000031B78073BDAB2082A00D9B8E0930012
:10243000CC4AD3589F4643F20003C4F2000340F253
:102440001C1242F200019950200007F09BF970B96C
:1024500045F60822C0F204020021083013F0AFFD57
:1024600046F27963C2F2000308221A7098E045F63A
:102470004022C0F2040240F20211032013F09FFD3B
:1024800045F67C20C0F2040012F026FD45F6B0208F
:10249000C0F2040012F020FD46F27963C2F200039C
:1024A00000221A707CE043F20003C4F2000340F201
:1024B0001C1244F20001995046F2E044C2F20004BA
:1024C000200014F057FDC2B246F2BC30C2F2000048
:1024D000210011F0F3FB002862D146F2C044C2F2A1
:1024E0000004200014F046FDC2B246F27420C2F28D
:1024F0000000210012F0C3FA002851D145F6D02285
:10250000C0F2040200210A3013F059FD46F279634B
:10251000C2F200030A221A7042E046F27A63C2F263
:1025200000031B78012B16D040F2ED73C0F20503B7
:1025300046F27422C2F2000246F2BC31C2F200013D
:10254000200008F075FF58BB46F27963C2F2000321
:102550000B221A7024E040F2ED71C0F20501200058
:1025600010F028FFE0B946F27963C2F200030B22B3
:102570001A7045F60C30C0F2040012F0ADFC0FE00A
:1025800043F20003C4F2000340F21C12802149020E
:10259000995046F27963C2F20003123AFF3A1A7078
:1025A00040F2F41015F05CF840F258439D4470BDC1
:1025B00046F2DF43C2F2000301221A70FFAB04337C
:1025C00040F284321A8312F0E2F9C0B230B146F21E
:1025D0007963C2F200030F221A70E1E7FFAB1033F8
:1025E0006A461A6040F20041684611F01AFCC0B217
:1025F00030B146F27963C2F200030F221A70CFE7BE
:10260000FFAD0435EC68200014F0B4FC431CE01866
:10261000286440F20044E41A210012F00FFEC0B218
:1026200030B146F27963C2F200030F221A70B7E7A5
:10263000FFAE0436356C280014F09CFC411C681871
:10264000F064611A12F096FFC0B230B146F27963BD
:10265000C2F200030F221A70A2E746F28010C2F203
:102660000000FFA904310CF077FA30B946F2796323
:10267000C2F200030D221A7092E745F62432C0F22E
:10268000040240F202410D2013F099FC43F20003D2
:10269000C4F2000340F2141280210905995004325B
:1026A000090A995046F27963C2F200031B78DBB243
:1026B000092B00D874E746F27963C2F200030A3AA4
:1026C000FF3A1A706CE745F6A004C2F2000440F22B
:1026D0000111200012F097F941F2DF13C0F2050357
:1026E00046F28010C2F20000002221000AF0C6FB70
:1026F00078B946F27963C2F200030E221A7043F2EF
:102700000003C4F200030732FF328021090399500D
:1027100046E745F66832C0F2040240F202410D205D
:1027200013F04DFC43F20003C4F2000340F2181210
:10273000802109039950043A0902995046F27963BD
:10274000C2F200031B78DBB2092B00D828E746F25F
:102750007963C2F20003063AFF3A1A7020E7C046D6
:10276000A8FBFFFF2063050046F2E053C2F200031E
:102770001B68A3B146F27B63C2F200031B78D3B996
:1027800046F2FF43C2F200031B78042B00D007E798
:1027900046F2DF43C2F2000300221A7000E746F25D
:1027A000E053C2F2000305221A6046F27B63C2F2D4
:1027B0000003043A1A7008F0AFF846F27B63C2F2E5
:1027C000000300221A70EBE646F2DF43C2F2000378
:1027D00000221A7046F2D453C2F200031A6046F285
:1027E000D853C2F200031A6014F090FA46F268530C
:1027F000C2F20003002018560EF06AFD46F279631B
:10280000C2F2000308221A70CAE646F2DF43C2F29F
:1028100000031B7833B946F27963C2F20003092240
:102820001A70BDE645F6A001C2F2000146F2801022
:10283000C2F200000DF0F8FA88B946F28010C2F238
:10284000000012F0A0FA0028E5D045F60842C0F2D8
:10285000040240F202410F2013F0B1FBDBE745F622
:10286000B832C0F2040240F202410F2013F0A7FB7D
:10287000E3E7C046F0B5DE4657464E464546E0B56E
:1028800099B00D001400412834D0542832D0422889
:1028900053D0432800D16FE0442800D1CCE04B282E
:1028A00000D1C9E04A2800D1F5E0462800D10EE168
:1028B000482800D13BE106274D2800D108E14528F2
:1028C00000D1BDE1472800D1E8E107254C2800D11F
:1028D000B7E152282AD10123142207A920000EF0C3
:1028E000C7FB18BB089B0BB307A90A7C099907987B
:1028F00098471BE00023042207A920000EF0B8FB34
:10290000A0B907AB5A7803AB1A7046F22063C2F243
:1029100000031B6853B146F22063C2F200031B6838
:1029200007AA0020105603AA0121984719B03CBC01
:1029300090469946A246AB46F0BD0023042207A963
:1029400020000EF095FB0028F0D107AB5A7803ABBE
:102950001A7046F22063C2F200031B68002BE5D018
:1029600046F22063C2F200031B6807AA002010563B
:1029700003AA02219847D9E700230C2203A92000CB
:102980000EF076FB0028D1D103AB09229A56002A1B
:1029900035DB18000823C3561B0145F62861C2F237
:1029A00000018C466344D97AC9B213016344D972D9
:1029B000012199724189083989B2198145F6A2131A
:1029C000C2F200031988013189B219801B889BB2B9
:1029D0003BB945F6A211C2F200010B8801339BB24C
:1029E0000B8045F6A213C2F20003198889B21301C5
:1029F00045F62860C2F2000084466344D98007ABE4
:102A00001A7002229A8003AA5188D980049A0992E6
:102A100046F22063C2F200031B68002B00D185E759
:102A200046F22063C2F200031B6803AA0820105676
:102A300007AA0421984779E70023042207A9200068
:102A40000EF016FB002800D070E707AB00201856E8
:102A500003AA10705B785BB253705BB907AB5B88FD
:102A6000083B9BB2020145F62861C2F200018C4688
:102A70006244138146F22063C2F200031B68002BFC
:102A800000D153E746F22063C2F200031B6803AA99
:102A9000052198474AE70023442207A920000EF0A9
:102AA000E7FA002800D041E746F21C63C2F20003B7
:102AB0001B68002B00D139E746F21C63C2F2000309
:102AC0001B68179A0192110007A898472EE706275E
:102AD0000023102203A920000EF0CAFA002800D01B
:102AE00024E703AB0C269E57DA8990460196320103
:102AF00045F62861C2F200018C4662441073082139
:102B0000585E83465889814607A859884181049BAD
:102B10000A93D3889BB243450BD0102D00D805E70C
:102B200001230022002100200EF0A2FAFEE6092770
:102B3000CEE75B46002B01DDAB4516DB07AB5A4603
:102B40009A800023079346F22063C2F200031B68B9
:102B5000002B00D1EAE646F22063C2F200031B68B4
:102B600007AA390030009847E0E645F62863C2F22C
:102B700000033201D358002B00D1D7E61300634481
:102B80009B889BB2002B00D1D0E6330163449B7A33
:102B9000DBB29846012B00D0C8E6A1445B469DB24B
:102BA000C58033019B4663465B449A4605E0434635
:102BB0002C000CE0002D00D1B8E653469B88EB1AA0
:102BC0001BB2002BF3DD53469C88A4B2002345F6CC
:102BD0002862C2F2000259468958220048460EF087
:102BE00047FA002800D0A1E645F62863C2F20003A8
:102BF0005A46D25807AB07929C80DA88121BDA80BB
:102C000046F22063C2F200031B6843B146F2206320
:102C1000C2F200031B6807AA3900300098472D1B39
:102C2000ADB2A14453469B7A002BC3D1002D00D1F5
:102C30007CE601330022110010000EF019FA75E64F
:102C400007250023082207A920000EF011FA00280A
:102C500000D06BE607AB002018569A88598803AB62
:102C60001980030145F62861C2F200018C466344D5
:102C7000DB889BB2934200D058E646F22063C2F252
:102C800000031B68002B00D150E646F22063C2F21D
:102C900000031B6803AA2900984747E60825D0E7E8
:102CA000F0B58BB0040001910292242901D80129CA
:102CB00003D11622B64B1A6053E0E36BE26C9342E9
:102CC00022D25A1CE2631D78202DF6D02B00093B3E
:102CD000042BF2D90222223B9343002203925BB9D8
:102CE0002D3D6B425D416B420393E26CE36B93427B
:102CF0000FD25A1CE2631D78019BE26C73B1102B5A
:102D000053D1302D0CD050E0200010F089F905008F
:102D1000DAE7200010F084F90500EDE7302D42D10C
:102D2000E36B934223D25A1CE2631D7820232B438A
:102D3000782B2DD1E36BE26C93421DD25A1CE263D7
:102D40001D781022934B01925B5D0F2B00D8C4E0DD
:102D5000E36C002B00D1A6E1029AE36B8AB1023B3F
:102D6000E36300260027300039000BB0F0BD2000DF
:102D700010F056F90500D9E7200010F051F90500D0
:102D8000DFE7013BE3630021200014F00BF9E8E7E3
:102D9000019B002B00D19EE0019B0A2B00D09CE000
:102DA000002302931CE00A2301937A4B01995B5D97
:102DB0008B42F1D312B1E36B013BE36300212000AE
:102DC00014F0F0F875E70A23029A5343E26C5D1998
:102DD000E36B303D0295934267D25A1CE2631D7843
:102DE0002B00303B092B03D86B4B029A9A42EAD94D
:102DF0000027029E2B00303B0293092B33D8674BF0
:102E00009F4213D802D1664B9E420FD800230A225C
:102E10003000390011F05EF9029B04930023059302
:102E2000049BDB434A1C45D1984243D9594B019A34
:102E30005B5D934217D2E36BE26C934200D317E1E0
:102E40005A1CE2631878534B019A1B5C9342F2D3ED
:102E5000109E119F22224E4B1A600123109A13429A
:102E600001D000230393E36C13B1E36B013BE363F5
:102E7000119BBB4200D90CE103D1109BB34200D996
:102E800007E10123109A134200D0F5E0039B002BC9
:102E900000D0F1E0222201267642F7173C4B1A605F
:102EA000109B119CF61867415DE7200010F0B8F800
:102EB000050095E7E36BE26C049E059F36184F41D1
:102EC000934203D25A1CE2631D7893E7200010F06E
:102ED000A7F805008EE708230193019B5E1E33408F
:102EE0000293002B00D0BBE0019A173353432D4AC5
:102EF0001B065B0FD35C0493264B019A5B5D9A42E1
:102F000003D9294A029991422BD9049A01204042BF
:102F1000C11714F05FF80027029E089006911D4B20
:102F20005B5D0293029A019B934200D87EE7069B69
:102F30009F4200D97AE703D1089B9E4200D975E7EA
:102F4000049A3000390014F051F8029BE26C0343FC
:102F50001E00E36B0F00934215D25A1CE2631D78EA
:102F6000DDE7029E049A9640E26C1E43E36B0296F4
:102F7000934203D25A1CE2631D78BDE7200010F093
:102F80004FF80500B8E7200010F04AF80500C6E742
:102F90006066002056B60400989999199999991974
:102FA000999999994CB60400FFFFFF07029E019A78
:102FB0005643F3180293E26CE36B93424BD25A1CD4
:102FC000E2631D783B4B019A5B5D9A4203D93A4A12
:102FD00002999142EAD90027029E364B5B5D02932B
:102FE000029A019B934200D820E7BFB11A00002348
:102FF0003000190011F06EF8002304913A00190016
:10300000019811F067F8049B089300230993089A2C
:10301000099B80185941002900D007E73B00320086
:103020000198002111F056F8029B069300230793A4
:10303000069BDB434A1C02D1984200D9F6E6069E65
:10304000079FE36BE26C36184F4193420BD25A1C38
:10305000E2631D78C1E720000FF0E2FF0500B1E751
:1030600000230293AEE720000FF0DAFF0500B4E77B
:1030700020000FF0D5FFE6E6119B9F4203D808D150
:10308000109B9E4205D9109E119F22220B4B1A6065
:1030900069E6039B013300D065E633003C0000275E
:1030A0005E42A7415FE6029B00260027002B00D06E
:1030B00059E668E656B60400C6711C076066002033
:1030C000F0B5A1B00C00002900D1A5E046F23853BC
:1030D000C2F200035D68002D00D19DE00438C3B248
:1030E0002E2B00D998E09800CF4B1B589F46EB7BC6
:1030F000002B00D190E00023EB730123CB56A3B942
:103100000B786B746BB98823EC58002C00D183E0EA
:1031100046F23850C2F20000002300220021A047EE
:103120007AE0287C13F0B0FB76E000236B7473E048
:10313000280034300431062214F038F901263A23ED
:10314000EE5427000A37280013302022390014F0EB
:103150002DF92121380013F0CEFF46F23853C2F288
:10316000000359683323C8540122A2560A33CA54B3
:10317000A2780133CA54E278033BCA548E744D33AB
:10318000CC58002C48D00B0013334A7C097C013109
:10319000C9B246F23850C2F20000A04740B946F228
:1031A0003853C2F200035A6888230021D15033E01B
:1031B00046F23853C2F200035B681C7C0134E4B26F
:1031C0001C7414F0D9FA844208D346F23853C2F280
:1031D00000035A6888230021D1501DE046F238547C
:1031E000C2F200046368187C13F04EFB636800228F
:1031F0009A7411E00B78012B10D013B9AB735422E1
:10320000AB548C23ED583DB146F23850C2F2000069
:10321000637822780100A84721B0F0BDAB73A133D9
:10322000EB5C002BEDD1A433EB58002BE9D0A123AC
:103230000122EA54E5E78C23ED58002DECD0002262
:103240008A56130016331BD01300163309DD0123F1
:10325000110015310CD0130014335A1E934106335C
:1032600006E01732534253415B4201229343073336
:1032700046F23850C2F2000000220100A847CBE716
:103280000323F5E72B7B13B9A1330122EA54E1783C
:103290000906A3781B0419432378194363781B029A
:1032A0001943A423E9501433EB58002BB4D046F251
:1032B0003850C2F200009847AEE708000DF0A0FCBD
:1032C00001000028A8D046F23853C2F200035A6821
:1032D0009023D358002B9FD046F23850C2F2000002
:1032E000984799E7C023EB58002B00D194E72121A0
:1032F000200013F000FF0500C3B204A920228B5464
:10330000202B00D988E7002104A814F059F8FF22E7
:103310002A40210004A814F049F86223E35C0FAAB4
:103320001370022B13D06323E35C5A425341DBB288
:1033300046F23854C2F20004C025626856590FAAFA
:1033400004A92000B047636800225A5164E72500B1
:103350002135280013F00EFE06000FAB98704022B6
:103360000021372302A884466344180014F028F88B
:1033700032002900372302A884466344180014F061
:1033800015F8D0E72121200013F0B5FE060046F223
:103390003853C2F200035D68C3B27522AB54202BD0
:1033A00000D939E72F005537553A0021380014F07D
:1033B00007F8FF2232402100380013F0F7FF2123E5
:1033C000E65C6333EE545F3BE35C1B062422A25CA5
:1033D000120413432222A25C13432322A25C120292
:1033E0001343AB6740F27C0CAC44634606222100D9
:1033F00026310393604613F0D9FF01238222AB5498
:103400002E3AAB549333ED58002D00D104E746F229
:103410003850C2F20000683BE35601930096039BCC
:103420003A000100A847F7E6CCDB040000228A56E8
:103430004E23EA544A33EB58002B00D1ECE646F217
:103440003854C2F200042100200098476268982393
:103450000021D150E0E69C23EB58002B00D1DBE6A5
:1034600004A812F08DFBA51C2121280013F043FEB7
:10347000C2B2290004A810F021FC617804A812F05F
:1034800096FB2378012B0CD0022B18D046F2385033
:10349000C2F200009C234268D358002200219847C2
:1034A000BAE60FA814F076F946F23850C2F20000DE
:1034B0009C234268D3580FAA04A99847ACE623344A
:1034C0004121200013F017FEC2B221000FA811F015
:1034D000D6FAE9E7F0B5DE4657464646C0B584B0B1
:1034E0000C0090461E00002800D18DE10368062BD9
:1034F00000D98CE19B00A84AD3589F4614F058F895
:103500000290A0B143689A4644F22831C0F2050106
:10351000200013F05DFA051E00DA7BE104B12418E7
:103520005346002B00D1CDE126B900272CE040F214
:10353000000AE9E744F22C31C0F20501200013F043
:1035400047FA002800DA68E104B124182D18ECE7E6
:103550002D183900029813F024FE43465A1C0C9B88
:10356000009333002100FFF7B5FF002800DA5AE18D
:1035700004B124182D185346013BBB4212D8FEB9A2
:103580000137574500D19AE1002EE2D04346591C3D
:10359000200010F027FB002800DA41E1002CD7D0F2
:1035A0002418D5E744F23031C0F20501200013F0B1
:1035B0000FFA002800DA39E104B124182D18DEE7EB
:1035C00044F22C31C0F20501200013F001FA00286A
:1035D00000DA2EE104B124182D18D1E7414620006D
:1035E00010F000FB002800DA26E104B124182D18A1
:1035F00068E113F0D5FF0390A0B183689B4644F2C5
:103600003831C0F20501200013F0E2F9051E00DA9E
:1036100018E104B124185B46002B00D136E126B92D
:1036200000272DE040F2000BE9E744F22C31C0F214
:103630000501200013F0CCF9002800DA05E104B1FF
:1036400024182D18ECE72D180299039812F05FFF4B
:1036500043465A1C0C9B009333002100FFF73AFFAE
:10366000002800DA00E104B124182D185B46013B64
:10367000BB423FD8002E4BD101375F4500D102E15C
:103680003900039813F083FD029056B14346591C4C
:10369000200010F0A7FA002800DAD9E004B12418BD
:1036A0002D182100029805F0F1FC002800DAD2E084
:1036B000002C00D1F5E024182D1844F23C31C0F262
:1036C0000501200013F084F9002800DAC6E004B1F7
:1036D00024182D18002EB7D044F24031C0F2050155
:1036E000200013F075F9002800DABAE0002CAAD007
:1036F0002418A8E744F23031C0F20501200013F08D
:1037000067F9002800DAB2E004B124182D18B1E7F7
:1037100044F22C31C0F20501200013F059F90028C1
:1037200000DAA7E004B124182D18A5E741462000CF
:1037300010F058FA002800DA9FE004B124182D1880
:10374000A4E013F03DFF210005F0A0FC002805DBFC
:1037500004B01CBC90469A46A346F0BD01204042EE
:10376000F6E713F02EFB58B144F24831C0F20501E0
:10377000200013F02DF90028EADA01204042E7E7A3
:1037800044F25031C0F20501200013F021F9002865
:10379000DEDA01204042DBE7EC69050013F075FA40
:1037A00006000F00C4B13000390011F031FE0500F1
:1037B00013F034FA32003B0012F03EFA70B144F2DA
:1037C0005831C0F205012A00200013F0C0FC002887
:1037D000BEDA01204042BBE70C9CE4E744F25C31D6
:1037E000C0F2050132003B00200013F0B0FCEEE710
:1037F00044F26031C0F20501200013F0E9F800281E
:10380000A6DA01204042A3E701204042A0E70120C0
:1038100040429DE7012040429AE70120404297E75D
:103820000120404294E70120404291E701204042BC
:103830008EE7012040428BE70120404288E70120CB
:10384000404285E70120404282E7012040427FE775
:10385000012040427CE70120404279E701204042BC
:1038600076E70120404273E70120404270E70120E3
:1038700040426DE7012040426AE70120404267E78D
:103880000120404264E7002E00D04FE744F244316B
:10389000C0F20501200013F09BF80028F0DB281887
:1038A00056E72D1844F23C31C0F20501002013F018
:1038B0008FF8002800DB0CE70120404248E7002E8B
:1038C00000D08BE644F23431C0F20501200013F041
:1038D0007FF80028B3DB28183AE7C0460023F0B58C
:1038E00005001600F1B0079108930493079B1B781D
:1038F000002B64D0002309930A930B930EAB0C9317
:10390000802307A928000D9312F050F80400079BAC
:103910001A780AB1252A40D1089A141908941A78FD
:10392000252A31D100245A1C07920B945A782A2A4E
:1039300002D1023307930134079810F070FF0100A1
:103940000B90280013F02EFB079B1A78303A092AB7
:103950004BD907A811F076FD079B0700187813F0E4
:1039600043FF672863DC652800DBC9E0612800D1DC
:10397000C6E03DDC079B252800D1EDE05B2800D1A7
:1039800008E1079B01330793039B013300D0F4E068
:10399000049BA3B9013B049311E0EB6BEA6C9342E7
:1039A00010D25A1CEA631B780393079B039A1B7877
:1039B00093420ED0EB6C13B1EB6B013BEB630498BD
:1039C00071B0F0BD28000FF02BFB03000390013312
:1039D000EBD1089B07A901330893079B280001330B
:1039E000079311F0E3FF241891E701330793ABE746
:1039F000632800D197E06428C3D108AB09AA2EA997
:103A0000280014F05DF8002800DA65E1079B013317
:103A10000793002C00D0B0E03300012239002EA81B
:103A20000DF0E8FA041E68DA631CB1D0C7E770280D
:103A300042D00BDC6E2851D030DC6928A1D108AB14
:103A400009AA2EA9280014F03BF8DCE7752814D049
:103A500078282AD0732800D093E7802F00D090E7F1
:103A6000079B0133079300231CB933681A1D32608A
:103A70001B680093012208AB69E008AB09AA2EA9D4
:103A8000280014F01DF8002800DA25E1079B013317
:103A90000793002C71D133002200BFE708AB09AABD
:103AA0002EA9280014F00CF8EDE708AB09AA2EA9FE
:103AB000280009F002F9E6E708AB09AA2EA92800B8
:103AC00009F0FBF8002800DA06E1079B01330793B1
:103AD000002C52D133002200F021A0E7079B0133D4
:103AE0000793089B2E93DB172F93002C45D13300AF
:103AF000220039002EA80DF07DFA049B1B19F4E674
:103B000008AB09AA2EA9280013F0DAFF002800DA72
:103B1000E2E0079B013307937CBB320039002EA8FB
:103B20000FF0CAFF7EE7802F00D02AE70B9B05939A
:103B30000BB901330B93079B0133079300231CB987
:103B400033681A1D32601B680022009308AB09A974
:103B5000280013F0B7FF65E7802F00D011E701338D
:103B60000793EA6CEB6B934209D25A1CEA6318780C
:103B7000252808D1089B013308930024BDE72800BD
:103B80000FF04EFAF4E7EB6C002BF6D0EB6B013B39
:103B9000EB63F2E7802F00D0F3E600271CB9326810
:103BA000111D316017685A1C07925A7800245E2A4A
:103BB00002D102330793013440F2011221002EA8F2
:103BC00013F0FEFBA821002304AA52181370079BD0
:103BD0001A782D2A1ED1013307930123A93204A993
:103BE0001B1B5218137007990B785D2B1CD10024F6
:103BF000002F40D1EB6BEA6C934268D25A1CEA6307
:103C00001B780393039A2EAB9B185C78002C5AD137
:103C100005943FE05D2AE6D101330793012304AA0E
:103C200007321B1BFF32DDE7002BE0D02D2B09D024
:103C30000122079B2EA819789B184118101B487069
:103C40000793D0E7089B1B78002BF1D05D2BEFD0BA
:103C50004B1C0793069B1B7848788342E8DA0122C5
:103C60000133101B2EAA9854F6E7039B3B55089B83
:103C7000013401330893EB6BEA6C059493421DD237
:103C80005A1CEA631B780393039A2EAB9B185B784C
:103C9000002BEAD1EB6C13B1EB6B013BEB63079BA1
:103CA00001330793059B002B00D16AE6002F00D15A
:103CB00067E60023059A0124BB541EE728000FF095
:103CC000AFF90390E0E7089B0133089392E72800DF
:103CD0000FF0A6F9039095E70400A5E6F0B59DB0B6
:103CE00014002C2850D01B2860D0062800D170E08A
:103CF0000E2859D0322800D17EE03D2800D18EE038
:103D00002F2800D19EE0342800D1B3E0112800D143
:103D1000C5E0132800D1E4E0042800D1F6E06528CE
:103D200000D108E1092800D11AE12A2800D12CE1AC
:103D3000272800D13EE1202800D150E11D2833D1B1
:103D400000230422694620000DF092F960BB6B4607
:103D50005F881A8801AB5A8046F21463C2F20003EE
:103D60001B680BB346F21063C2F200031B68DBB1A1
:103D700046F2E633C2F200031B88ABB101AD46F256
:103D8000E636C2F200066DE10023042201A92000FC
:103D90000DF06EF940B946F21863C2F200031B68D9
:103DA00013B101A92C3098471DB0F0BD00230822A3
:103DB00001A920000DF05CF90028F5D146F2186346
:103DC000C2F200031B68002BEED001A91B309847FC
:103DD000EAE70123302201A920000DF049F900286B
:103DE000E2D146F21863C2F200031B68002BDBD05D
:103DF00001A906309847D7E70023182201A920001F
:103E00000DF036F90028CFD146F21863C2F2000354
:103E10001B68002BC8D001A932309847C4E70123A2
:103E20000022002120000DF023F90028BCD146F229
:103E30001863C2F200031B68002BB5D000213D308F
:103E40009847B1E76422002101A813F0B9FA0023D2
:103E5000642201A920000DF00BF90028A4D146F23C
:103E60001863C2F200031B68002B9DD001A92F30FC
:103E7000984799E70023042201A920000DF0F8F8E3
:103E8000002800D090E746F21863C2F200031B68D6
:103E9000002B00D188E700213430984784E746F2B0
:103EA0006B63C2F2000300221A700023043201A9DE
:103EB00020000DF0DDF8002800D075E701AB1A787E
:103EC00046F26963C2F200031A7046F21863C2F246
:103ED00000031B68002B00D166E701A91130984749
:103EE00062E700232C2201A920000DF0C1F8002870
:103EF00000D059E746F21863C2F200031B68002B9A
:103F000000D151E701A9133098474DE7002304225F
:103F10001AA920000DF0ACF8002800D044E746F2C2
:103F20001863C2F200031B68002B00D13CE71AA9FA
:103F30000430984738E7002304221AA920000DF026
:103F400097F8002800D02FE746F21863C2F200036A
:103F50001B68002B00D127E71AA96530984723E793
:103F60000123642201A920000DF082F8002800D06E
:103F70001AE746F21863C2F200031B68002B00D157
:103F800012E701A9093098470EE70123042201A98D
:103F900020000DF06DF8002800D005E746F2186308
:103FA000C2F200031B68002B00D1FDE601A92A30F4
:103FB0009847F9E60023042201A920000DF058F8E3
:103FC000002800D0F0E646F21863C2F200031B6836
:103FD000002B00D1E8E601A927309847E4E600234A
:103FE000082201A920000DF043F8002800D0DBE6EC
:103FF00001AB9A8820000830012301990DF038F8B0
:10400000002800D0D0E646F21863C2F200031B6815
:10401000002B00D1C8E601A920309847C4E62A80C9
:1040200046F21061C2F20001096838190DF020F85B
:10403000002800D0B8E62B886A88D21A6A80DF1977
:10404000BFB246F21063C2F20003196846F214636D
:10405000C2F200031B682A001D3098476B88002BB2
:1040600000D1A1E66988328800239142D7D80A009E
:104070000133D4E7F0B5C64600B586B005000F00A1
:10408000132907D90026300006B004BC9046F0BDC5
:1040900001342C602C682378202BF9D01A00093ABF
:1040A000042AF5D9223BDAB2592A00D998E19300C3
:1040B000BE4AD3589F460FF02DF9060013F070FA50
:1040C0000390002EDFD02B6801332B6001E0013319
:1040D0002B602B681A78202AF9D01100093904299D
:1040E000F5D97D2A5ED101332B60CCE701332B60FB
:1040F0002B681A78202AF9D0110009390429F5D93A
:10410000C4B13A2A16D101332B60791C2800FFF77D
:10411000B1FF009098B1009A210003980BF0CBFEFC
:10412000431C18D046F2DC73C2F200031B68200067
:10413000984721E0300009F063FE0026A3E746F22D
:10414000DC73C2F200031B6820009847300009F0BE
:1041500057FE009E97E746F2DC75C2F2000520008C
:104160002B6898472B6800989847300009F048FE64
:10417000002688E701332B602B681A78202AF9D0B3
:10418000110009390429F5D92C2A15D101332B60E6
:1041900001E001332B602B681A78202AF9D0093A04
:1041A000042AF6D92B681B7833B1280001F09EF859
:1041B00004009DE701332B602B681A78202AF9D080
:1041C000110009390429F5D97D2A0DD1039B4BB182
:1041D000996803980AF069FE431C05D02B680133E7
:1041E0002B6050E70021F4E7300009F009FE0026BB
:1041F00049E70FF01FFA060013F0DAF90090002EDD
:1042000000D140E72B6801332B6001E001332B60C4
:104210002B681A78202AF9D0110009390429F5D918
:104220007C1C5D2A1FD101332B602CE7300009F084
:10423000E7FD3E0027E701332B602B681A78202A20
:10424000F9D0110009390429F5D92C2A29D10133D3
:104250002B6001E001332B602B681A78202AF9D0FB
:10426000093A042AF6D92B681B78D3B1210028001B
:10427000FFF700FF07000028D8D0010000980FF0DA
:104280006DFF431CD9D146F2DC73C2F200031B68F8
:1042900038009847300009F0B3FD0026F3E60133FB
:1042A0002B602B681A78202AF9D0110009390429CB
:1042B000F5D95D2A0DD1009B4BB1596800980FF0DC
:1042C00017FB431C05D02B6801332B60DBE6002174
:1042D000F4E7300009F094FD0026D4E6280001F050
:1042E00005F80400002800D17CE012F063FB060012
:1042F000002800D0C7E646F2DC73C2F200031B6858
:1043000020009847BFE644F24830C0F2050004227E
:10431000210011F0A7FF88B144F25030C0F205002F
:104320000522210011F09EFF0026002800D0AAE6F9
:1043300005342C6012F00BF90600A4E604342C605E
:10434000013012F004F906009DE605A9200013F0E3
:1043500005FB009001912C68059B98461F1B012FBF
:1043600002D92378302B23D0022F0DD947F67811AC
:10437000C0F205010222200011F074FF20B9A378D9
:1043800000262E2B00D07EE67E1EA619671E47F65D
:104390007C14C0F20504BE4226D03178200013F010
:1043A00019F8013E0028F6D000266CE6FC910400C6
:1043B000637800262E2B00D065E6D5E744F2603006
:1043C000C0F205000422210011F04CFF0026002855
:1043D00000D058E604342C6012F0FFFC060052E6D0
:1043E000002650E606004EE643462B6000980199F1
:1043F00012F09DF8060046E60023F0B50600150011
:10440000B1B00791039307990B78002B00D10AE113
:1044100001235B420C9310AB00240E9380230B947A
:104420000D940F930B5D0BB1252B29D134B12200D4
:10443000300010F08BFC079B1B190793079B1A7821
:10444000252A00D0E4E040F2020C012110270133BC
:1044500004930793079803782B2B1AD025D8202B89
:104460001AD0232B1DD02A2B28D010F0D8F90D906C
:10447000079B1A78303A092A31D801330793F7E7B6
:104480000134CFE70B9B05930B4301300B9307904F
:10449000E0E704230B9A0FE00B9B0593059A082392
:1044A0000AE00B9B05933B43EFE72D2BEAD0302B23
:1044B000D9D162460B9B05931343E6E72B68013085
:1044C0001A1D1B6807902A600D93002B07DA0B9AC0
:1044D0005B420592012205990D934A400B920B9B7A
:1044E000DA0702D5022293430B93079B1A782E2AF0
:1044F0000ED10022581C0C9207905A782A2A27D1F4
:10450000023307932B681A1D1B682A6005930C93CE
:1045100007A810F097FF079B0700187813F064F9BD
:10452000692800D182E034DC632800D1D7E01ADCAE
:10453000252800D1E4E0612858D0049B012207938C
:10454000002352420C920B930D9300930232E1E050
:1045500010F065F90C90079B1A78303A092AD7D8E1
:1045600001330793F7E7642860D06728E5DC2A0069
:10457000390008A811F0D2FC002800D1ABE0079B5D
:104580000BA95A1C07921B7808AA3000FDF754F8B3
:104590003DE0702800D17BE016DC6E2800D193E06E
:1045A0006F28CAD12B000022390008A809F053FE59
:1045B000002800D18FE0079B08AA01330BA9300027
:1045C00007930DF0F2F922E0752840D078284ED0FC
:1045D0007328B2D1802F00D07DE0079B2A68013379
:1045E0000793131D2B601268002384E02A00390012
:1045F00008A811F093FC002800D16CE0079B0BA9E0
:104600005A1C07921B7808AA3000FDF7BDFC24183D
:10461000039B1C19A34200DC7EE04F223F4B1A6033
:1046200001235B420393039831B0F0BD2B000122BC
:10463000390008A809F00FFE00284CD0079B08AAF3
:1046400001330BA9300007930AF02FFADFE72B00A4
:104650000022390008A809F0FEFDE0B3079B08AA74
:1046600001330BA9300007930EF005FDCFE72B00B7
:104670000022390008A809F0EEFD60B3079B5A1C20
:1046800007921B7808AA0BA9300005F07FFFBEE750
:104690002B000022F02108A809F0DDFDD8B1079B0E
:1046A000099A01330793089B13435BB91C4812F026
:1046B00061FC02000B9B1A4900930D9B30000CF02B
:1046C00051FDA4E77823DDE7039B39001A1908A8F8
:1046D0002B000DF0B3FB079B0133079398E7802F66
:1046E000F9D1079B013307932B681A1D1B682A60B9
:1046F00008AA137001230BA930000FF003FA86E714
:10470000802FE8D10122079B013307930B9B049371
:1047100000930D9B0349D1E7039474E66066002083
:10472000307A0500367A0500F0B54E4657464546C4
:10473000DE469046E0B516001F0002000B0012187E
:104740004B41BF4A85B08146934200D952E13400C3
:104750003D000023A4197D410022CFF6E073121919
:104760006B410024CFF6C074A34200D942E100D1CE
:104770003DE10023002400930194CB0FDB077C0074
:1047800001934D006308C2460393CB466D089D42DA
:1047900000D8BAE02B0D9C46002B50D08020090396
:1047A000090B4003084303994A46090D0300894653
:1047B00000297AD080253C03240B6D032543404615
:1047C000290066464F46E14500DB20E114001D004C
:1047D000241A8D41002D06DB23002B43002B00D132
:1047E0009DE022002B00013E92185B41BE42EDD1BC
:1047F000B94614001D00241A8D41002D06DB23004C
:104800002B43002B00D18AE022002B0080204003A4
:104810000100184206D1484692185B4101381942FE
:10482000FAD0814649464C1E00D5F2E00020210511
:1048300080185941009B019CC018614171E02A0019
:10484000002D00D1A3E04FF6FF739D4200D9D6E0C2
:1048500040F2180910232A047A4CA24201D84B4690
:104860001202794CA24201D804331201774CA242C1
:1048700001D802339200D243D20F9A180B235B4225
:104880009C4694442B3A914600D5A6E005004C4640
:10489000A5402B000100604681400A0041428C4641
:1048A0000399090D8946002984D103980100002845
:1048B0003ED04FF6FF70814200D9A4E040F21808C4
:1048C000102009045F4DA94201D8404609025E4DFF
:1048D000A94201D8043009015C4DA94201D8023037
:1048E0008900C943C90F41180B2040428146203836
:1048F00089440D183FD43400AC4021004D463400AB
:10490000AC4020006C42A1465BE79D4202D1C1450C
:1049100000D93FE7DA4504D1039BAB4201D10098AF
:10492000019905B03CBC90469946A246AB46F0BD05
:1049300040464FF6FF780825C24502D810213004C2
:104940001035404CA04201D8290000023E4DA8423B
:1049500001D8043100013D4DA84201D80231800048
:10496000C043C00F09180B20404281462031203837
:1049700089440D18BFD5484620213500091ACD407D
:10498000039CA8468440210044462143B6E74FF6E5
:10499000FF7C4B4640F20809E34503D840F2180972
:1049A00010220304274CA34201D84A461B02264C7E
:1049B000A34201D804321B01244CA34201D8023285
:1049C0009B00DB43DB0FD2180B235B429C4620325B
:1049D00094442B3A914600D458E76246202364461B
:1049E0009B1AA5400200DA402B00134352E7002A2D
:1049F00000D1BEE600210020C7F6F87191E740F231
:104A00000809002328E740F2080800205AE7E14699
:104A1000EFE648460121091A20204042081807D431
:104A20001C00C4402000CB40020000210020FFE613
:104A300020201C00401A84401000C8402043F2E7A8
:104A4000FFFFDFFFFFFFFF00FFFFFF0FFFFFFF3F45
:104A5000F0B585B000930393009B02900C00160004
:104A6000150001900F00002B00D0C9E08A424AD9FE
:104A7000100010F013F948B12023019F1B1ADF40EA
:104A8000019B84408340854027430193AAB22B0CAD
:104A9000B7FBF3F1160094461A004A434E43BF1A7F
:104AA000019A3F04140C27430A00BE4207D97F191C
:104AB000013ABD4203D8BE4201D98A1E7F19BE1BEE
:104AC000B6FBF3F14B436446F61A6B464C439B88A6
:104AD00036041E430F00B44207D97619013FB54290
:104AE00003D8B44201D98F1E76191204341B3A43FD
:104AF0000A9B23B1C4401C6000230A994B6010003C
:104B0000009905B0F0BD02B9FFDE100010F0C6F844
:104B1000B8BB0123A41B00932B0CB4FBF3F21F00C2
:104B200011005743AEB27143E41B019F24043F0CB4
:104B30003C439446A1420AD9012764197F42BC44F0
:104B4000A54204D8A14202D9023A94466419641AD3
:104B5000B4FBF3F77B43E41A6B467E439B88240443
:104B60001C433900A64207D964190139A54203D86C
:104B7000A64201D9B91E641963461A04A41B0A434C
:104B8000B6E7202223000199121AD3408440D14075
:104B9000019A8540824021438C46290CB3FBF1F4F5
:104BA00001920A00624326009B1A6246AFB27E431E
:104BB000120C1B04134322009E4207D95B19013AD1
:104BC0009D4203D89E4201D9A21E5B199B1BB3FBD9
:104BD000F1F671435B1A614677438CB21B041C43A8
:104BE0003100A74207D964190139A54203D8A74269
:104BF00001D9B11E641912040A43E41B00928BE729
:104C0000009B8B420AD90A9B002B00D1ABE0029A91
:104C100059601A60002300931A0070E7039810F09F
:104C20003DF8D8B9039BA34203D3029B02009E42E6
:104C30000AD8029B01229E1B039B0196E41A029B49
:104C4000B342AD416D42671B0A9B0093002B00D11C
:104C500055E7019982C30023009350E720231B1AD4
:104C600001933300019A039FD34087401F432300E1
:104C70000199D340029A8440CA4022439446029A42
:104C8000390C8240B3FBF1F402920A008640624381
:104C9000009626009B1A6246BDB26E43120C1B049E
:104CA000134322009E4207D9DB19013A9F4203D8E1
:104CB0009E4201D9A21EDB199E1BB6FBF1F463468E
:104CC00061436543761A360499B20E432300B54218
:104CD00007D9F619013BB74203D8B54201D9A31E43
:104CE000F61912041A436B461C88009B711B8C46F4
:104CF000190C230096B2150C6C4373434D4371435A
:104D00001E0C091971188C4202D9802464022D19D5
:104D10000C0C9BB209046519C918AC4503D30BD11F
:104D2000029B8B4208D2009B013ACE1AB1428941C4
:104D30004942CF193100ED1B0A9B0093002B00D193
:104D4000DDE6029B019C591A63465D1B029B8B4268
:104D50009B415B42ED1A2B00C140A340C540194363
:104D60000A9B22C377E70A9B55E710B541F600037B
:104D7000C4F200239B7D43B346F26433C2F20003C6
:104D80009C6A41F60003C4F200235B8B9B071DD590
:104D900046F26433C2F200032022FF21995401320B
:104DA000FD39995446F26433C2F2000320229B5C21
:104DB0005BB2013300D1E5E046F26433C2F2000396
:104DC00020229B5C062B00D108E110BD41F60003B8
:104DD000C4F200235B8BDB070AD546F26433C2F2D0
:104DE00000032022FF2199540132FD399954D9E75B
:104DF00041F60003C4F200235B8B5B070AD546F241
:104E00006433C2F200032022FF2199540132FE399B
:104E10009954C7E746F26433C2F2000320229B5C38
:104E20005BB2032B78D0042B1BD0022BBAD146F2F5
:104E30006433C2F200031B694BB146F26433C2F221
:104E40000003988880B200210CF0CCFCAAE746F25F
:104E50006433C2F20003988880B201210CF0C2FCD6
:104E6000A0E746F26433C2F200039A691B699342D9
:104E700018D046F26433C2F200039B68995C41F695
:104E80000003C4F200239962511C41F60002C4F2EF
:104E90000022D369002BFCD146F26433C2F2000336
:104EA00099617FE746F26433C2F200035B69DBB1CC
:104EB00046F26433C2F200039B885B000122134375
:104EC00041F60002C4F20022536241F60002C4F22D
:104ED0000022D369002BFCD146F26433C2F20003F6
:104EE0002022032199545DE741F60003C4F2002318
:104EF0005968C02292020A435A6041F60002C4F285
:104F00000022D369002BFCD146F26433C2F20003C5
:104F100020220621995445E746F26433C2F2000389
:104F2000D9695B69013B8B4214D041F60002C4F29F
:104F30000022D369002BFCD141F60003C4F2002308
:104F4000986A46F26433C2F20003DA6850540131C1
:104F5000D96127E741F60003C4F200235868E02234
:104F6000D20202435A6041F60002C4F20022D36921
:104F7000002BFCD146F26433C2F20003202206204B
:104F80009854D2E746F26433C2F2000300219954E8
:104F900041F60003C4F200235968C02292020A437A
:104FA0005A6041F60002C4F20022D369002BFCD102
:104FB00041F60003C4F200239B221A7646F26433C2
:104FC000C2F200035B6A002B00D1FEE646F26433B6
:104FD000C2F200035B6A20009847F6E646F26433AB
:104FE000C2F20003002220215A5401315A5441F6E2
:104FF0000003C4F200239B321A7641F60002C4F289
:1050000000220F31538B0B40102BFBD146F264333F
:10501000C2F200035B6A002B00D1D6E646F264338D
:10502000C2F200035B6A20009847CEE610B540F656
:105030000003C4F200239B7D43B346F23833C2F22F
