:10000000F07F00202904000077060000B5060000FC
:1000100000000000000000000000000000000000E0
:10002000000000000000000000000000B706000013
:100030000000000000000000B7060000B706000046
:10004000B7060000B7060000B7060000B7060000BC
:10005000B7060000B7060000B7060000B7060000AC
:10006000B7060000B7060000B7060000B70600009C
:10007000B7060000B7060000B7060000B70600008C
:10008000B7060000B7060000B7060000B70600007C
:10009000B7060000B7060000B7060000B70600006C
:1000A000B7060000B7060000B7060000B70600005C
:1000B000B7060000B7060000B7060000B70600004C
:1000C000B7060000B7060000B7060000B70600003C
:1000D000B7060000B7060000B706000000000000E9
:1000E0000000000000000000000000000000000010
:1000F000000000000000000000000000B706000043
:10010000B7060000B7060000B7060000B7060000FB
:10011000B7060000B7060000B7060000B7060000EB
:10012000B7060000B7060000B7060000B7060000DB
:10013000B7060000B7060000B7060000B7060000CB
:10014000B7060000B7060000B7060000B7060000BB
:10015000B7060000B7060000B7060000F07F0020D9
:100160002904000077060000B5060000000000002A
:10017000000000000000000000000000000000007F
:100180000000000000000000B706000000000000B2
:1001900000000000B7060000B7060000B706000028
:1001A000B7060000B7060000B7060000B70600005B
:1001B000B7060000B7060000B7060000B70600004B
:1001C000B7060000B7060000B7060000B70600003B
:1001D000B7060000B7060000B7060000B70600002B
:1001E000B7060000B7060000B7060000B70600001B
:1001F000B7060000B7060000B7060000B70600000B
:10020000B7060000B7060000B7060000B7060000FA
:10021000B7060000B7060000B7060000B7060000EA
:10022000B7060000B7060000B7060000B7060000DA
:10023000B7060000B7060000BB060000BB060000C2
:10024000BB060000BB060000BB060000BB060000AA
:10025000BB060000BB060000B7060000B7060000A2
:10026000B7060000B7060000B7060000B70600009A
:10027000B7060000B7060000B7060000B70600008A
:10028000B7060000B7060000B7060000B70600007A
:10029000B7060000B7060000B7060000B70600006A
:1002A000B7060000B7060000B7060000B70600005A
:1002B000B7060000B7060000401801000200030066
:1002C00084468EF300887447F8B5C046F8BC08BC75
:1002D0009E467047A1040000F8B5C046F8BC08BCB3
:1002E0009E4670477D04000041F20003C4F2000303
:1002F0000220187641F20041C4F2000100220A7483
:1003000041F60001C4F2000108621A8641F20002BF
:10031000C4F200028021490413690B42FCD046F26A
:100320002003C0F280031B685B009B0E9B0240F21F
:1003300000221343D200C4F20002536341F20002D0
:10034000C4F200028021490413690B42FCD041F23F
:100350000003C4F2000302221A86D202C4F2000291
:100360008021490413690B42FCD041F60043C4F2DA
:10037000000340F20712C0F201021A6241F6004285
:10038000C4F20002042153681942FCD141F6004333
:10039000C4F20003CC224021995041F60042C4F23D
:1003A0000002CC2013581942FCD041F60043C4F29D
:1003B0000003D0224021995041F60042C4F20002CD
:1003C000D02013581942FCD07047704700230E4AC2
:1003D00010B513600D4A0E4C13600E4A13600E4A9E
:1003E00013600E4A13600E4A536213610133936027
:1003F00000F064F900F062F90A4B9C4200D310BD92
:1004000008CC9847F8E7C046700000200C00002098
:10041000D40200000800002000000020040000209A
:1004200010000020D802000010B540F2B963C0F2FD
:100430000003984740F2B963C0F20003984700F008
:10044000C7F840F20003C0F200037F2293434EF648
:100450000052CEF20002936040F2CD33C0F20003AE
:10046000984740F2B963C0F20003984740F2B9637D
:10047000C0F20003984700F077F8FEE710B5054C8E
:10048000227832B9044B13B1044800E000BF0123C5
:10049000237010BD5000002000000000000000008C
:1004A000034B10B51BB10349034800E000BF10BD6A
:1004B000000000005400002000000000BFF35F8F28
:1004C00062B64EF20013CEF2000340F28422995835
:1004D0008020014399509958995840000143995000
:1004E000995899584000014399509958995840009B
:1004F000014399509B58704740F20043C4F20003F7
:1005000000221A819A7901210A439A719B78032269
:100510001340022B0CD040F20043C4F20003013A16
:100520009A705202C4F20002012193790B42FCD06E
:10053000704743F20023C4F2000301224C215A54B5
:1005400001315A5417392220585443F20001D96618
:10055000C8215A5401315A54B33296399954383219
:1005600040F200319950704710B582B08023DB0211
:100570001C68002000F05CF8631C0FD084F38888AE
:100580000423C0F204031B680193019C6408640007
:10059000200021002200230000F001F8FEE7E0B572
:1005A00045464E465746E0B45D4620B425462646AD
:1005B0002746A046A146A246A346A44684F3008847
:1005C000A44720BCAB46E0BCBA46B146A846E0BD55
:1005D00010B50948016811B9436803B910BD04009A
:1005E0008368064A9BB20C349B009B5842682000EB
:1005F000984780002018EDE700060000780600000C
:10060000500000202000000000000000000000203A
:1006100050000000000000007000002004000000F6
:100620000000000000000000000000006666666632
:1006300010B5FFF761FF45F20003C4F20013042276
:100640005A60FFF776FFFFF74FFE00F01FF8FFF745
:10065000BCFEFFF733FF10BD002310B5934206D157
:1006600003201840421E90419B08C01810BDC45C76
:10067000CC540133F2E7FEE79F0600005906000064
:10068000B1060000B1060000B106000045F200030B
:10069000C4F2001306225A60053A1A7270478A188B
:1006A000914201D10020704700230B700131F7E720
:0E06B00000207047FEE7FEE77047FEE7704748
:020000040003F7
:08FE00007FE97FE9C0F758BA61
:020000040004F6
:10000000F0FF0020871404005B1104007313040048
:1000100000000000000000000000000000000000E0
:10002000000000000000000000000000771B04003A
:100030000000000000000000771B0400771B040094
:1000400000000000000000000000000000000000B0
:1000500000000000000000000000000000000000A0
:100060000000000000000000000000000000000090
:100070000000000000000000000000000000000080
:100080000000000000000000000000000000000070
:100090000000000000000000000000000000000060
:1000A0000000000000000000000000000000000050
:1000B0000000000000000000000000000000000040
:1000C0000000000000000000000000000000000030
:1000D000000000000000000000000000CF07040046
:1000E000CF070400CF070400CF070400771B0400EC
:1000F000771B0400771B0400771B0400000000003E
:1001000000000000000000000000000000000000EF
:1001100000000000000000000000000000000000DF
:1001200000000000000000000000000000000000CF
:1001300000000000000000000000000000000000BF
:1001400000000000000000000000000000000000AF
:10015000000000000000000000000000F8B5C046EC
:10016000F8BC08BC9E46704779160400F8B5C04636
:10017000F8BC08BC9E4670475516040038030000C2
:10018000010000000023F0B506001500B1B0079192
:10019000039307990B78002B00D10AE101235B42FE
:1001A0000C9310AB00240E9380230B940D940F93AB
:1001B0000B5D0BB1252B29D134B12200300001F0A9
:1001C00025FB079B1B190793079B1A78252A00D04C
:1001D000E4E040F2020C012110270133049307935D
:1001E000079803782B2B1AD025D8202B1AD0232B35
:1001F0001DD02A2B28D001F0CCFA0D90079B1A783D
:10020000303A092A31D801330793F7E70134CFE7B1
:100210000B9B05930B4301300B930790E0E70423FE
:100220000B9A0FE00B9B0593059A08230AE00B9BA2
:1002300005933B43EFE72D2BEAD0302BD9D1624613
:100240000B9B05931343E6E72B6801301A1D1B68CF
:1002500007902A600D93002B07DA0B9A5B420592F8
:10026000012205990D934A400B920B9BDA0702D5A8
:10027000022293430B93079B1A782E2A0ED1002259
:10028000581C0C9207905A782A2A27D102330793D8
:100290002B681A1D1B682A6005930C9307A801F0B0
:1002A00027FB079B0700187801F0EEFC692800D1B6
:1002B00082E034DC632800D1D7E01ADC252800D1A5
:1002C000E4E0612858D0049B0122079300235242A6
:1002D0000C920B930D9300930232E1E001F059FA76
:1002E0000C90079B1A78303A092AD7D80133079324
:1002F000F7E7642860D06728E5DC2A00390008A801
:1003000001F056FB002800D1ABE0079B0BA95A1C5B
:1003100007921B7808AA300001F0D1FC3DE070285C
:1003200000D17BE016DC6E2800D193E06F28CAD1A3
:100330002B000022390008A800F0D8FC002800D1CA
:100340008FE0079B08AA01330BA93000079301F047
:10035000B4FC22E0752840D078284ED07328B2D162
:10036000802F00D07DE0079B2A6801330793131D7F
:100370002B601268002384E02A00390008A801F0ED
:1003800017FB002800D16CE0079B0BA95A1C0792B1
:100390001B7808AA300001F092FC2418039B1C195A
:1003A000A34200DC7EE04F223F4B1A6001235B42F8
:1003B0000393039831B0F0BD2B000122390008A847
:1003C00000F094FC00284CD0079B08AA01330BA92D
:1003D0003000079300F0E5FCDFE72B000022390036
:1003E00008A800F083FCE0B3079B08AA01330BA91F
:1003F0003000079301F061FCCFE72B0000223900A9
:1004000008A800F073FC60B3079B5A1C07921B7886
:1004100008AA0BA9300001F052FCBEE72B00002215
:10042000F02108A800F062FCD8B1079B099A0133BB
:100430000793089B13435BB91C4801F09DFB020026
:100440000B9B1A4900930D9B300000F049FEA4E776
:100450007823DDE7039B39001A1908A82B0000F068
:10046000F1FE079B0133079398E7802FF9D1079B93
:10047000013307932B681A1D1B682A6008AA1370A2
:1004800001230BA9300001F01CFC86E7802FE8D186
:100490000122079B013307930B9B049300930D9B51
:1004A0000349D1E7039474E6BC840020A01C040037
:1004B000A61C0400F0B585B000930393009B029046
:1004C0000C001600150001900F00002B00D0C9E0B1
:1004D0008A424AD9100001F07BF948B12023019FDC
:1004E0001B1ADF40019B84408340854027430193D2
:1004F000AAB22B0CB7FBF3F1160094461A004A433C
:100500004E43BF1A019A3F04140C27430A00BE420F
:1005100007D97F19013ABD4203D8BE4201D98A1ECC
:100520007F19BE1BB6FBF3F14B436446F61A6B46CC
:100530004C439B8836041E430F00B44207D97619FA
:10054000013FB54203D8B44201D98F1E7619120477
:10055000341B3A430A9B23B1C4401C6000230A9910
:100560004B601000009905B0F0BD02B9FFDE10002D
:1005700001F02EF9B8BB0123A41B00932B0CB4FB94
:10058000F3F21F0011005743AEB27143E41B019F09
:1005900024043F0C3C439446A1420AD90127641924
:1005A0007F42BC44A54204D8A14202D9023A9446F3
:1005B0006419641AB4FBF3F77B43E41A6B467E4379
:1005C0009B8824041C433900A64207D964190139C9
:1005D000A54203D8A64201D9B91E641963461A047C
:1005E000A41B0A43B6E7202223000199121AD34024
:1005F0008440D140019A8540824021438C46290C99
:10060000B3FBF1F401920A00624326009B1A624692
:10061000AFB27E43120C1B04134322009E4207D943
:100620005B19013A9D4203D89E4201D9A21E5B1973
:100630009B1BB3FBF1F671435B1A614677438CB2A7
:100640001B041C433100A74207D964190139A54294
:1006500003D8A74201D9B11E641912040A43E41B4E
:1006600000928BE7009B8B420AD90A9B002B00D19A
:10067000ABE0029A59601A60002300931A0070E7F9
:10068000039801F0A5F8D8B9039BA34203D3029BBA
:1006900002009E420AD8029B01229E1B039B0196E8
:1006A000E41A029BB342AD416D42671B0A9B009363
:1006B000002B00D155E7019982C30023009350E736
:1006C00020231B1A01933300019A039FD3408740D4
:1006D0001F4323000199D340029A8440CA40224319
:1006E0009446029A390C8240B3FBF1F402920A005C
:1006F00086406243009626009B1A6246BDB26E4356
:10070000120C1B04134322009E4207D9DB19013A45
:100710009F4203D89E4201D9A21EDB199E1BB6FB45
:10072000F1F4634661436543761A360499B20E4389
:100730002300B54207D9F619013BB74203D8B542A9
:1007400001D9A31EF61912041A436B461C88009B9C
:10075000711B8C46190C230096B2150C6C43734325
:100760004D4371431E0C091971188C4202D9802423
:1007700064022D190C0C9BB209046519C918AC450B
:1007800003D30BD1029B8B4208D2009B013ACE1AB5
:10079000B14289414942CF193100ED1B0A9B0093B8
:1007A000002B00D1DDE6029B019C591A63465D1BBC
:1007B000029B8B429B415B42ED1A2B00C140A34040
:1007C000C54019430A9B22C377E70A9B55E710B53A
:1007D00040F60043C4F200239B7D43B348F25843E4
:1007E000C2F200039C6A40F60043C4F200235B8B14
:1007F0009B071DD548F25843C2F200032022FF2177
:1008000099540132FD39995448F25843C2F2000319
:1008100020229B5C5BB2013300D1E5E048F25843F3
:10082000C2F2000320229B5C062B00D108E110BD20
:1008300040F60043C4F200235B8BDB070AD548F285
:100840005843C2F200032022FF2199540132FD399E
:100850009954D9E740F60043C4F200235B8B5B0751
:100860000AD548F25843C2F200032022FF219954CE
:100870000132FE399954C7E748F25843C2F20003E7
:1008800020229B5C5BB2032B78D0042B1BD0022B65
:10089000BAD148F25843C2F200031B694BB148F287
:1008A0005843C2F20003988880B2002100F056FC41
:1008B000AAE748F25843C2F20003988880B20121A7
:1008C00000F04CFCA0E748F25843C2F200039A69DA
:1008D0001B69934218D048F25843C2F200039B6848
:1008E000995C40F60043C4F200239962511C40F623
:1008F0000042C4F20022D369002BFCD148F25843D5
:10090000C2F2000399617FE748F25843C2F2000344
:100910005B69DBB148F25843C2F200039B885B007D
:100920000122134340F60042C4F20022536240F613
:100930000042C4F20022D369002BFCD148F2584394
:10094000C2F200032022032199545DE740F60043E0
:10095000C4F200235968C02292020A435A6040F64A
:100960000042C4F20022D369002BFCD148F2584364
:10097000C2F2000320220621995445E748F2584369
:10098000C2F20003D9695B69013B8B4214D040F687
:100990000042C4F20022D369002BFCD140F6004390
:1009A000C4F20023986A48F25843C2F20003DA689E
:1009B00050540131D96127E740F60043C4F20023C7
:1009C0005868E022D20202435A6040F60042C4F264
:1009D0000022D369002BFCD148F25843C2F2000335
:1009E000202206209854D2E748F25843C2F200036E
:1009F0000021995440F60043C4F200235968C022F4
:100A000092020A435A6040F60042C4F20022D369BF
:100A1000002BFCD140F60043C4F200239B221A763F
:100A200048F25843C2F200035B6A002B00D1FEE695
:100A300048F25843C2F200035B6A20009847F6E68A
:100A400048F25843C2F20003002220215A540131D7
:100A50005A5440F60043C4F200239B321A7640F603
:100A60000042C4F200220F31538B0B40102BFBD1FC
:100A700048F25843C2F200035B6A002B00D1D6E66D
:100A800048F25843C2F200035B6A20009847CEE662
:100A9000848400201C000000000000005884002016
:100AA0002C00000000000000C484002005000000AD
:100AB00000000000B48400200400000000000000DA
:100AC000088400205000000000000000CC840020BA
:100AD0006C00000001000000D8840020D4840020B5
:100AE000D8840020000000002500000008800020BD
:100AF00000040000000000000000000000000000F2
:100B000000000000000000000000000000000000E5
:100B100000000000C71C04000000000000000000EE
:100B2000000000000000000011130400000000009D
:100B300000000000000000000000000000000000B5
:100B400000000000008000200804000000000000F9
:100B50009885002020000000010000000100000036
:100B60000300000000000000000000000000000082
:100B70000000000000000000AC840020AC840020D5
:100B80000800000000000000B884002008000000F9
:100B90000000000038850020600000000100000017
:100BA0000100000003000000000000000000000041
:100BB0000000000000000000000000002D140400F0
:100BC000000000000000000000000000971C04006E
:100BD000D51C040000000000000000000000000020
:100BE0000000000000000000000000000000000005
:100BF00000000000000000000000000000000000F5
:100C0000B885002004000000010000000100000081
:100C1000C08400200400000000000000A084002028
:100C20000C000000000000000000000000000000B8
:100C3000F8B5002000F023FE00F078FF41F65520C3
:100C4000C0F20400002101F018F80E2000F042FD6F
:100C5000FF230340582B06D040F68C70C0F20400EE
:100C600000F00AFF19E040F60801032000F023FE1F
:100C70000028F1D042F26001042000F01CFE0028A0
:100C8000EAD00021080000F016FE0028E4D040F66B
:100C90006470C0F2040000F0EFFE00F079FF48F24B
:100CA000C844C2F20004002748F2C646C2F2000659
:100CB00040F6B075C0F2040514E02770082000F07B
:100CC00009FD3080092000F005FD020048F2C44310
:100CD000C2F2000318803188280000F0CDFE6420A5
:100CE00000F072FC2378002BFCD0E6E710B58829D1
:100CF0003AD014DC81294AD003DC802947D0002077
:100D000010BD822910D08429F9D119682AB30A1D8F
:100D10001A6000228B5E0360DB17436010E0A0299D
:100D20002ED00FDC9029EAD1196807246AB309197B
:100D3000A1430A0008321A600B684C6803604460E3
:100D40000120DDE7C02901D0F029D8D11A68111D92
:100D50001960136803600023DFE70C1D1C600B683B
:100D60009BB203604260EBE7196822B10A1D1A606A
:100D70000023CB56CFE70C1D1C600B68DBB2F0E7FD
:100D80001A68111D19601368C5E70731D0E71968A3
:100D90001AB10A1D1A600B68BDE70C1D1C600B68B8
:100DA000DFE7F0B54B6889B005930B6807009C46F8
:100DB0000793CB680C008E6810685168CD0F0493C0
:100DC000002D41D00B000200002150429941059BAB
:100DD000002B07DB022263469343079315B9079B59
:100DE0005A0728D5731E07AA02920A22009301927D
:100DF0000B000200200000F0EBF915B9079B5A0721
:100E00001DD501382D2305B9023B049A13542369DB
:100E10005A1E049B121A1918079B380000933300BE
:100E200000F05EF97B68DB0503D56368984200DA61
:100E3000180009B0F0BD1B07DB0FF31AD3E71B073F
:100E4000E5D501382023E0E7059B002BC2DAC6E791
:100E500040F60043C4F2002301221A6040F600422B
:100E6000C4F20022D369002BFCD140F60043C4F247
:100E7000002340F200125A6040F60042C4F2002201
:100E8000D369002BFCD140F60043C4F20023E822D2
:100E9000DA60D23AC0F210021A6040F60042C4F2A0
:100EA0000022D369002BFCD140F60043C4F200239A
:100EB00010225A8340F60042C4F20022D369002B6C
:100EC000FCD148F25843C2F20003002221215A54B7
:100ED00001395A5440F60043C4F200239B329A75FC
:100EE0007047F0B51600050002278369426987B094
:100EF0000293D31A03939B1904910596019302ACB4
:100F00003A002100286800F091FD019B984208D129
:100F1000AB68EA68AB619A18AA626B61300007B0EF
:100F2000F0BD00280CDA102200236968AB620A4386
:100F3000AB616B616A60022F12D06368F61AEDE74D
:100F4000019B1B1A01936368984202D9C01A0834A6
:100F5000013F23681B1823606368181A6060CFE79D
:100F60001E00DBE70A0D56434E4C34323030204928
:100F70006E697469616C697A6174696F6E207375EA
:100F8000636365737366756C0A0D00000A0D564342
:100F90004E4C3432303020496E697469616C697A24
:100FA0006174696F6E206661696C65640A0D00008A
:100FB0000D50726F78696D6974792053656E736F27
:100FC000723A2025642C20416D6269656E74204C54
:100FD000696768742053656E736F723A20256420C8
:100FE0000900C046F7B51E4C256801942B0065B179
:100FF00000222900160013000F68BC460F698445C3
:101000000AD132B117610B0010331800FEBD390050
:10101000F2E7019B1F60F6E7844503D9D3B11C6852
:10102000A44517D30A00002FF1D1002BEDD01F00EB
:101030001A681969121A1037102A05D91860381859
:1010400001610100103A02609D4206D1019B1960C6
:101050003B00DAE716000B00E4E73161F8E7C04631
:10106000C0840020F8B5846A05000F00160054B152
:10107000AB6A6A699B1AB3420CD23200390028006D
:10108000FFF72FFF05E000F06AFD03002000002BB2
:10109000EED0F8BD002EF0D02B0034331B785BB2BD
:1010A000002B1BDB3400DBB2621EB95C994212D10B
:1010B000220039002800FFF714FFA042E9D33F19AE
:1010C000341B22003900686900F098FD6B6930001C
:1010D0001C196C61DDE71400002AE5D13400F0E74B
:1010E000F0B51D00012389B014000E9A06001A40C5
:1010F000039102920AB9A5420AD82200039930004E
:1011000000F084FBA54203D82500280009B0F0BDFB
:101110002F1B01973A00102F00D91022202104A87C
:1011200000F076FD019B0F2B0ED80F2204A93A4048
:10113000300000F06BFB029B002BE6D122000399EC
:10114000300000F063FBE0E7102204A9300000F05B
:101150005DFB019B103B0193E4E7FEE710B548F20D
:101160005843C2F2000300229A61DA6140F600435C
:10117000C4F200239B321A765A68144C22405A60FB
:1011800040F60042C4F20022D369002BFCD1A9B181
:1011900048F25843C2F20003202203249C5440002A
:1011A000084340F60043C4F20023586240F6004270
:1011B000C4F20022D369002BFCD110BD48F2584381
:1011C000C2F20003202204249C54E8E7FFFFFBFF47
:1011D000F7B5040019000A9FE368666800933B684E
:1011E000100001932369013B1C00002E00DA012648
:1011F0000022009DEA5435000123002C02DCE3B1FB
:101200002000FEBD02000A434AB9002D07DC089AFF
:10121000921B5219002AF2DD019A9207EFD5099B21
:10122000099ADB1700F076FA8C460099013C13000E
:1012300030320A55013D6146DFE710233A689A4390
:101240003A60DDE710B584291FD007DC812915D06D
:10125000822922D0802911D0002010BD90291CD0D5
:1012600008DC8829F8D119680C1D1C600B68036024
:101270001A7010E0A02901D0C029EDD119680C1D09
:101280001C600B6803601A6005E019680C1D1C6087
:101290000B6803601A800120DFE719680C1D1C60D1
:1012A0000B6803601A60D2175A60F4E74EF200131D
:1012B000CEF2000340F224301A581202120AC02162
:1012C00009060A431A5080225A6040F2283299587F
:1012D000FF2081433F380143995040F2001159608B
:1012E0009958094801404CF200000143995040F2DE
:1012F00000215960995805480840C021090401435C
:101300009950D8325A607047FF00FFFFFFFF00FF7F
:101310007FB51600C2680D0013000091591E8B4165
:10132000F31A01938368040003926946022200685D
:10133000029300F067FB002808DC18220823024013
:10134000534062681343636006000FE0019B8342D1
:10135000FAD2A268C01AE3681018E26320642BB1C5
:10136000531CE3631378AD19013D2B70300004B0BA
:1013700070BDFEE700230E4A10B513600D4A0E4CF7
:1013800013600E4A13600E4A13600E4A13600E4A31
:10139000536213610133936000F067FC00F019FCA5
:1013A0000A4B9C4200D310BD08CC9847F8E7C046D2
:1013B000B8840020148400206801040010840020F8
:1013C000088400200C840020188400206C01040094
:1013D00037B5144D04002B6873B100F05DFB01902C
:1013E00001A800F0EBFB0F230F309843019900F0A8
:1013F0008FFB58B100232B6004B901340F230F3445
:101400009C4324B90C222000074B1A603EBD042CDB
:1014100000D204242000FFF7E5FD0028F6D0031FCA
:101420001C60F3E7B8850020BC84002070B5040080
:101430000D0008B9002070BD43689B0607D54369BD
:101440008269934215D80023A362A3616361E16BB3
:10145000236C994204D2C91A0122206800F038FC9A
:1014600000232364E363002DE4D0206800F020FC17
:10147000E1E70022C36A110098476369002BE2D1BB
:1014800001204042D7E710B541F6EF03C0F2040354
:10149000984741F6EF03C0F20403984700F042FA80
:1014A00040F20003C0F204037F2293434EF6005241
:1014B000CEF20002936041F27533C0F20403984704
:1014C00041F6EF03C0F20403984741F6EF03C0F280
:1014D00004039847FFF7ACFBFEE7F8B505000C00E6
:1014E000002015B300F0AFF9D4B1002041F20002A2
:1014F000C4F200220421072605E0976A4300EF5258
:10150000013084420DD0137E0B42FCD0538B33420A
:1015100007D153683340012BEFD0936A2B54EFE788
:101520002000201A44426041C0B2F8BD41F20003DD
:10153000C4F2002340F20412C4F210021A600E4AF0
:101540009A81C02292025A6041F20002C4F2002243
:10155000D369002BFCD141F20003C4F200231A68C6
:1015600002210A431A6041F20002C4F20022D36948
:10157000002BFCD17047C0462BF6FFFF70B504006E
:1015800016001D00022A1AD043689B0617D439B9E9
:101590000DB940F2004528000830FFF719FF01009F
:1015A00020236268A160134363602300E560343345
:1015B000FF22012E00D10A221A70024BE3620020A2
:1015C00070BDC0466510040070B54EF21003CEF237
:1015D00000035E681B68DB071AD54BF6803358435F
:1015E0004EF21003CEF200039B6888B100214EF248
:1015F0001005CEF2000506E0741CA41AE318C91801
:101600001300884204D9AA689A42F5D89B1AF6E7D3
:1016100070BD70B5D0B1D9B1002541F20002C4F25D
:1016200000220124072605E06B00C35A93620135AE
:10163000A94209D0137E2342FCD053683340012BCA
:10164000F2D0435D9362F2E7012070BD0020FCE719
:101650000120FAE710B5054C227832B9044B13B1DA
:10166000044800E000BF0123237010BD84840020E3
:101670000000000000000000034B10B51BB103493F
:10168000034800E000BF10BD000000008884002077
:101690000000000070B5050048F25844C2F2000492
:1016A0002020245C002004B170BD48F25844C2F2EE
:1016B0000004A580E360049B6361A16022610023B4
:1016C000A37023702122A35400212800FFF746FDB8
:1016D0000120E9E700B587B00F216944087048F29E
:1016E000C843C2F2000300221A700223009305AB24
:1016F00001325120FFF7CEFF48F2C842C2F2000289
:101700001378002BFCD005AA53781B0210781843DD
:1017100007B000BD002B11D1002A0FD1002900D144
:10172000002802D00021C943081C07B4024802A1C6
:101730004018029003BDC0469505000003B46846FA
:1017400001B50298FEF7B6FE019B9E4602B00CBCA6
:101750007047C04670B5050048F25843C2F2000316
:1017600020201B5C002003B170BD48F25843C2F238
:1017700000039D800024DC605C6199601A619C70AC
:101780001C7021229C5400212800FFF7E7FC012057
:10179000EAE7030010B51A78202A0DD011000939A4
:1017A000042909D900212B2A02D02D2A01D1013187
:1017B000013300200A2404E00133ECE760430133E5
:1017C000801A1A78303A092AF8D901B9404210BD76
:1017D0001C2101231B04984201D3000C10391B0A61
:1017E000984201D3000A08391B09984201D3000925
:1017F000043902A2105C40187047C046040302027C
:10180000010101010000000000000000436870B504
:101810000400D80511D52569954200D915005DB1A0
:101820002A00606900F0EAF9226963695B19551BB7
:101830000022636125611A7070BDDB06FCD42000B4
:1018400000F0F9F9F8E741F20003C4F200235B8BE2
:101850005B0713D041F20003C4F2002380221A7602
:10186000793A5A831B7E5B0708D541F20003C4F224
:10187000002304219A6A1A7E0A42FBD1704710B5F0
:1018800048F2D043C2F200031B681868002100F040
:10189000C9F948F2B453C2F200031B68186800216A
:1018A00000F0C0F9FFF742FEFFF7D2FA00F03EF970
:1018B000FFF7FCFC10BD00B583B001AB1870597088
:1018C000090A997048F2C842C2F200020021117060
:1018D000032219005120FFF73DFF48F2C842C2F22F
:1018E00000021378002BFCD0012003B000BD70472C
:1018F00070B5040000200A4B4200D55C15B9D2181F
:10190000507870BD216801300E78C0B2AE4204D16B
:10191000034B0131D218507821600A28EBD9F0E747
:10192000A61B040010B50948016811B9436803B942
:1019300010BD04008368064A9BB20C349B009B5880
:1019400042682000984780002018EDE7900A0400C4
:10195000D41B0400064B1A680AB9064A1A60064AE4
:10196000116809B9054911601A68054B1A6070477A
:10197000A8840020C0850020A4840020C087002007
:10198000A084002070B5084C050023680BB9FFF750
:10199000E1FF064A206812684519AA4201D3256072
:1019A00070BD01204042FBE7A0840020A4840020F9
:1019B000002380290FDB812901DD83290BD1072139
:1019C000136807338B431900083111601A685B688C
:1019D0000260436001231800704702000023483270
:1019E000D356591E0B4313700423426813402BB186
:1019F0001023134343600120404270470364C363D4
:101A00001800FAE7F7B5002507000C002E00019238
:101A1000019B9E4201DB2800FEBD62682168380000
:101A200000F04AF801362D180834F1E7F7B5002523
:101A300007000C002E000192019B9E4201DB280052
:101A4000FEBD62682168380000F054F801362D1898
:101A50000834F1E710B500F000F930B948F2C84396
:101A6000C2F2000301221A7010BD48F2C843C2F24C
:101A7000000300221A70F7E70FB407B5054B04AA5C
:101A80001B6802CA1868019200F05DF803B008BC38
:101A900004B01847B485002010B5054C22680AB977
:101AA000FFF758FF034B18682368C01A10BDC046E3
:101AB000A0840020A484002010B503000C000020A6
:101AC00043B9180032B101212000FFF706FD0028BC
:101AD000F9D0012010BD002310B5934206D1032098
:101AE0001840421E90419B08C01810BDC45CCC54E5
:101AF0000133F2E770B50D001400012801D0200079
:101B000070BD21002800FFF784FD0028F9D0F6E71A
:101B1000054A10B5146800231CB910600361016008
:101B20000133180010BDC046C08400204EF21003DF
:101B3000CEF2000300221A609A604BF67F325A60A0
:101B400004221A60704713B50400019201AAFEF73F
:101B500019FB6368DB0601D50120404216BD10B5B4
:101B60000400FFF73AFF28B9A368E268A361636144
:101B70009B18A36210BDFEE7037833B10300013365
:101B80001A78002AFBD1181A70470020FCE7C046DB
:101B90004EF21003CEF2000300229A601A6801216F
:101BA0000A431A60704768076C094C836A9074A0F6
:101BB0007AC00080688800846C820081006810B55B
:101BC000002801DA002010BDFFF7DCFE431CFAD12B
:101BD000F8E77047491C0400D71A0400B71C04003A
:101BE000B71C0400B71C040010B500F05DF8024BF0
:101BF0001860586010BDC046AC84002010B52AB1F2
:101C00000023CC5CC45401339342FAD110BDC046CA
:101C100032B10300C9B28218197001339342FBD16B
:101C20007047C0464A424A4110B5520040F2004354
:101C3000FFF7A4FC10BDC36A10B50BB1984710BDE7
:101C40000068FFF757FFFAE78A18914201D1002098
:101C5000704700230B700131F7E748F25843C2F296
:101C600000032122985CC0B2704710B5FFF7BCFF9B
:101C700000F02BF800F029F810BD48F25843C2F2EA
:101C800000035862996270470300413B192B01D849
:101C900020231843704710B50068FFF72BFF10BDD5
:101CA000286E696C2900250000487047388500209F
:101CB00001204042704700207047002070470020FC
:101CC0007047002070470020704770477047C0463B
:061CD00000207047704780
:0200000400807A
:1040000077438FB0BBF0FFFF008430F000FFFFFF6D
:104010000000000002000000180000000000000086
:04402000B67376E815
:0CC00000FFFF07F00000E8FFCC9A34C0FE
:10C01000FFFFFFFFFFFFFFFFFFFFFFFFFFFFFFFF30
:10C02000FFFFFFFFFFFFFFFFFFFFFFFFFFFFFFFF20
:10C03000FFFFFFFFFFFFFFFFFFFFFFFFFFFFFFFF10
:10C04000FFFFFFFFFFFFFFFFFFFFFFFFFFFFFFFF00
:10C05000FFFFFFFFFFFFFFFFFFFFFFFFFFFFFFFFF0
:10C06000FFFFFFFFFFFFFFFFFFFFFFFFFFFFFFFFE0
:10C07000FFFFFFFFFFFFFFFFFFFFFFFFFFFFFFFFD0
:10C08000FFFFFFFFFFFFFFFFFFFFFFFFFFFFFFFFC0
:10C0E000FFFFFFFFFFFFFFFFFFFFFFFFFFFFFFFF60
:10C0F000FFFFFFFFFFFFFFFFFFFFFFFFFFFFFFFF50
:00000001FF
